:03000000021EEAF3
:0C1EEA00787FE4F6D8FD75819A021F3164
:10145C00045700000000410063004100980C41005B
:10146C00994044009000000000440074000000000B
:10147C00440078000000004400AD0000000044006F
:10148C009D000000004400B40000000042008400F5
:10149C000142007200004100680041008D004200D2
:1014AC00B9000042006900004100610841009B0046
:1014BC004100BB00015B00015C004100B200410037
:1014CC00710041007C014100870A41009C004100F1
:1014DC009A0A41008C0041008E00420066000041D7
:1014EC00006200028800000286000041006F00418B
:1014FC0000B10041008F00107600000000000000D9
:10150C0000000000000000000001720001730001E7
:10151C00750001740001710041006500410070000C
:10152C0042007D00004A00A3000000000000000003
:06153C0000004100640004
:102974008E098F0A8B0B8A0C890DAF051DEF602120
:10298400050AE50AAE097002050914F5828E83E48E
:1029940093FF780BE475F001120CBFEF120A1A8052
:0229A400D92236
:102BC200E4FDFCC3ED9FEC9E50070DBD00010C809F
:012BD200F210
:012BD30022DF
:102A36008F828E83E4F55AF559F558F557AF82AE75
:102A460083E4FCFDAB5AAA59A958A857C3120C2710
:082A5600500543BD1080E6228B
:102BD400E4FDFCC3ED9FEC9E50070DBD00010C808D
:012BE400F2FE
:012BE50022CD
:10000300758E5190FE917401F0A37410F075BD5F6D
:0700130090FEA07420F02212
:102B0E00E490FE80F0758901758DFA758BCB43A824
:0E2B1E0008438840758CCB758AEB43881022E3
:1029D80090FF10E054F04408F090FF02E054F044F7
:1029E80002F0D28490FFA07420F0A37404F075CC98
:1029F8000675CEFF75CD98759E0275981043A81080
:012A080022AB
:102B7D0043B40343B4807F147E00122BC275B5019C
:072B8D0090FE9B744BF02247
:102B4A0090FF08E04488F090FF00E0540F4430F012
:0A2B5A0090FF11E054F04403F02254
:0B2C01008F99E59830E1FB5398FD220D
:1027C1008FB543B440E5B430E5FB53B4DF7F647E9D
:1027D10000122BC2E4FBFAF943B440E5B430E5FB47
:1027E10053B4DFE5B62BFBE5B73AFA7F147E00124E
:1027F1002BC209B910E275B501A9027F647E0012EE
:042801002BC2AF0136
:0128050022B0
:10158E007B017A0079A37D0A7F007E2F1229749049
:10159E0000A3E0FFE4FCFDFE90006B120C769000C1
:1015AE006B120C5E7808120C4B90006B120C76903E
:1015BE00006B120C6A9000A4E0FFE4FCFDFE120A20
:1015CE00CB90006B120C7690006B120C5EE47BE8F5
:1015DE007A03F9F8120AE690006B120C76E47F306B
:1015EE007E75FDFC90006B120C6AC3120C27401422
:1015FE007F007E097D3D7C0090006B120C6AD31239
:10160E000C27400A90006B120C8200009C40900048
:10161E00A5E09000B8F0700280079000B8E0B4FE2C
:10162E000374FFF09000A6E0FF900089E4F0A3EFB2
:10163E00F0E0F8E4F0E8900089F09000A7E0FF9069
:10164E000089E48FF0120AB5900089E0FEA3E0FF56
:10165E004E6009D3EF9408EE94074009900089E498
:10166E00F0A37405F09000A8E0900087F090008E33
:10167E00F09000A9E090007FF06006E0D394FF4068
:10168E000690007F7401F09000AAE0F454019000DF
:10169E007CF07B017A0079647D017F807E2F122998
:0A16AE0074900064E090008CF022BC
:10003E00E55B600302073143B440E5B430E5FB53A2
:10004E00B4DF85B70985B60A900072E475F0011227
:10005E000AB59000B4120C6AAE09AF0AE4FCFD12A8
:10006E000ACB9000B4120C769000A1E0FEA3E0FF44
:10007E00C3950AEE9509500DC3E50A9FF50AE509E9
:10008E009EF509800BC3EF950AF50AEE9509F50961
:10009E00900078120C6AAE09AF0AE4FCFD120ACB8E
:1000AE00900078120C76900072E05401FEA3E04EA0
:1000BE007061D39000BAE094009000B9E0940040D3
:1000CE001790009AE094645042E02402F0E0D3943A
:1000DE006440387464F08033900069E07004A3E0EB
:1000EE006401702F900087E0FF90009AE0FED39F8E
:1000FE004019EE94024004E024FEF090009AE0C312
:10010E009F5008900087E090009AF090009AE0FFD0
:10011E0012264AC3900072E09420500302077C43DB
:10012E00BD10E4F0A3F090009BE004F090009D124F
:10013E000C5E9000B4120C6A120ACB90009D120C49
:10014E007690009BE0C394084037E4F090009D1237
:10015E000C5E7810120C3890009D120C7690009D5B
:10016E00120C5E9000A1EE8FF0120AB59000A1E085
:10017E00C313F0A3E013F090009D120C8200000058
:10018E0000900061E0C394085005E004F0805690A2
:10019E0000B9E07002A3E0704C7F0A1227C19000F4
:1001AE0088EFF09000B3E0FE2402FDE433FCEFD3C1
:1001BE009DEC6480F8748098501E900088E02402B4
:1001CE00FDE433FCEED39DEC6480F8748098500807
:1001DE009000B3E0900088F0900088E09000B3F0BB
:1001EE00E4900061F0E4FFFEFDFC900074120C6AD6
:1001FE00C3120C277041900078120C5EEF2488FF1A
:10020E00EE3413FEE43DFDE43CFC900074120C76DB
:10021E00900084E07002A3E0701D7F407E427D0F4F
:10022E00FC900074120C6AD3120C27400A900074D2
:10023E00120C82000F4240900063E070169000781E
:10024E00120C5E900090120C76900080120C8200C0
:10025E00000001900080120C5E900078120C6A1261
:10026E000ACB900090120C6AC3120C2740030205B1
:10027E0007900080120C5E900090120C6A120ACB4E
:10028E00900078120C6AC3120C27400302050790E7
:10029E000063E004F09000AD120C5E900078120C3A
:1002AE006A120ACB9000AD120C76900063E0FFFB51
:1002BE00E4FAF9F89000AD120C5E120B71900090FA
:1002CE00120C76900090120C5E7803120C3890008F
:1002DE0080120C76E47F207E4EFDFC900080120C86
:1002EE006AC3120C27500A900080120C8200004E36
:1002FE0020E47F607EEAFDFC900080120C6AD3122F
:10030E000C27400A900080120C820000EA609000D8
:10031E0090120C5E900074120C6AD3120C27404C93
:10032E00900090120C6A900074120C5E120AD89013
:10033E0000B4120C767F807E387D017C009000B474
:10034E00120C6AD3120C2740089000987406F080A5
:10035E0021E47F407E9CFDFC9000B4120C6AD31207
:10036E000C2790009840087409F08006900098744D
:10037E000CF0900098E0FF900063E0C39F407B90EC
:10038E000074120C5E900090120C6AC3120C27506F
:10039E0069900099E094105003020516900098E0C1
:1003AE00D394095008900090120C5E8044900090F7
:1003BE00120C5EEF24A0FFEE340FFEE43DFDE43C94
:1003CE00FC900074120C6AD3120C27402A90007411
:1003DE00120C5E900090120C6A120ACB90007412EE
:1003EE000C76900074120C5EE47B02FAF9F8120B94
:1003FE0071900074120C76020507900099E0FF9040
:10040E000063E0C39F5003020516900074120C5E49
:10041E00EF24A0FFEE340FFEE43DFDE43CFC900023
:10042E0090120C6AD3120C2750030204F79000743A
:10043E00120C6A900090120C5E120AD89000B41240
:10044E000C767F007E127D7A7C00900090120C6AF2
:10045E00C3120C2740030204F77F807E1A7D067CB0
:10046E00009000B4120C6AC3120C27507C900099B5
:10047E00E09410400280487FE07E937D047C0090E3
:10048E0000B4120C6AD3120C274008900099741015
:10049E00F0801F7FF07E497D027C009000B4120C2C
:1004AE006AD3120C279000994005740CF0800374E7
:1004BE0008F0900099E0FF900063E0C39F402A90FF
:1004CE000074120C5E900090120C6A120ACB90000F
:1004DE0074120C76900074120C5EE47B02FAF9F83A
:1004EE00120B71900074120C76900099E0FF900040
:1004FE0063E0C39F4012E48004E4900063F0900038
:10050E00AD120C820000000090008DE0D3940040EC
:10051E0066E014F0900094120C5EEF2470FFEE343F
:10052E0017FEE43DFDE43CFC900074120C6AD312FD
:10053E000C27500302069E900094120C5EEF249836
:10054E00FFEE343AFEE43DFDE43CFC900078120CE4
:10055E006AC3120C27400302069E900094120C5E92
:10056E00EF2470FFEE3417FEE43DFDE43CFC9000FA
:10057E0074120C7602069ED3900085E094009000D3
:10058E0084E09400407B74FFF5F0120AB5D390001E
:10059E0085E09400900084E0940040657F007E1218
:1005AE007D7A7C00900074120C6AD3120C27400CDA
:1005BE0090006B120C82000C3500804590006B127F
:1005CE000C5E900074120C6A120ACB9000B4120CDE
:1005DE00767F407E547D897C009000B4120C6AD3E5
:1005EE00120C27401C900074120C6AC374409BFFBF
:1005FE0074549AFE748999FDE498FC90006B120C69
:10060E007690006B120C5E900074120C6A120ACB7C
:10061E00900078120C6AD3120C2740749000B8E048
:10062E00FF900088E0D39F400FD3900085E09400A8
:10063E00900084E0940040589000B9E07002A3E06E
:10064E00700C900074120C5E900094120C76900058
:10065E00B9E4F0A304F07874F690007DE475F0012F
:10066E00120AB590007DE0FEA3E0FFE48F2C8E2BE6
:10067E00F52AF5297F74121E549000997408F0E43F
:10068E00900069F0A3F07888F608F67886F608F6FA
:10069E009000A1E0FEA3E0FFE48F2C8E2BF52AF54F
:1006AE00297F75121E54900088E0FFE48F2CF52BE5
:1006BE00F52AF5297F76121E54900074120C5E8F67
:1006CE002C8E2B8D2A8C297F77121E549000781237
:1006DE000C5E8F2C8E2B8D2A8C297F78121E5490B7
:1006EE0000B4120C8200000000900078120C820000
:1006FE000000009000B9E0FEA3E0FFD39400EE945A
:10070E0000406B900089E0FCA3E0FDD3EF9DEE9CD2
:10071E00405CE49000B9F0A3F0755B017874F67854
:10072E0071F622900069E4F0A304F0E4F55B90000A
:10073E0066F0A3F0900062F07FFAFE122A36900067
:10074E009D120C8200000000E490009BF090009936
:10075E007440F090008D7402F09000617406F0E425
:0E076E00900063F09000AD120C8200000000BD
:01077C00225A
:10225D00E4F50A9000B4120C8200000000E4F509C8
:10226D0043B440E5B430E5FB53B4DF9000B4120C39
:10227D006AAFB6AEB7E4FCFD120ACB9000B4120CF7
:10228D00760509E509B480D87F907E01122A369033
:10229D0000B4120C5E780B120C388F09E509D3943B
:1022AD000C400CE509948D5006E50A9414500A056E
:0922BD000AE50AD39450409B226B
:0122C60022F5
:1022C7009000B4120C8200000000E4F509E4F50C5C
:1022D700F50D43B440E5B430E5FB53B4DF85B70AE9
:1022E70085B60B9000B4120C6AAE0AAF0BE4FCFD86
:1022F700120ACB9000B4120C76050DE50D7002059D
:102307000CB400CEE50CB420C943BD100509E5099E
:10231700B408BA9000B4120C5E7810120C38900012
:06232700A1EEF0A3EFF0AF
:01232D00228D
:10245000BF0105E4FCFD80377E007C017DFF120A90
:102460004E1C7D64120A60AC06AD07E412091A8F97
:102470002A8E298D288C27E4FFFEFD7C3FAB2AAAFB
:1024800029A928A827120784120953AC06AD079082
:10249000FF907411F075DA0175E30175E2FF8CE5C8
:0724A0008DE475E10F7F00E0
:0124A7002212
:10264A00BF0104E4FE80397E007C007DFF120A4E41
:10265A00AC06AD07E412091AE4FBFA79C87842120B
:10266A0008788F0E8E0D8D0C8C0BE4FFFEFD7C3FDF
:10267A00AB0EAA0DA90CA80B120784120953AE07B8
:10268A0090FF9C7410F075DEFF8EDF75DD947F007D
:01269A00221D
:100F6500122B64120003122B4A7F6412264A122B9D
:100F75000E1229D8122B7D75BBAA90FEA774FFF01F
:100F850053BBF7D2AF7FC87E00122A367F64122684
:100F95004A9000B27401F07F0A1227C1900088EFD1
:100FA500F09000B3F0C2AF12158E90008CE004F003
:100FB5007F807E2F122A857F107E27122BD49000EA
:100FC5008CE0FF7D807C2F122A5E7F647E00122BD1
:100FD500D4D2AF12225D900087E0FF90009AF01204
:100FE500264A7F2C7E01122A361222C79000B4129F
:100FF5000C820000000090008CE0C394034005E4DF
:10100500F0122AAA7873E6D39402502A18E66401EE
:101015007024F608067F55122C017FAA122C01E4D4
:10102500FF122C017FB4122C01E4FF122C01122CAB
:10103500017FB3122C0143BD10E55B700B9000736B
:10104500E0541F70031211A190007CE0640160035D
:1010550002114BE55C703DF55B755C01900087E026
:1010650090009AF090009D120C8200000000E49020
:10107500009BF09000997440F090008D7402F09000
:1010850000617406F0E4900063F09000AD120C82EC
:101095000000000012003ED390006AE0940090002A
:1010A50069E094004036900062E0B4012FE4F090CE
:1010B500006975F001120AB590007FE0FFC390004A
:1010C5006AE09F900069E094004011E4F0A3F0907D
:1010D5000070E064016005E4FF12264AD39000BA6F
:1010E500E094009000B9E0940040127887E664012E
:1010F50018467009F608F675F001120AB57875E616
:1011050064016003020FFB18E6FF78716670030245
:101115000FFBA6079000B9E4F0A304F0E4F508E599
:1011250008C394084003020FFBE50825E02476F880
:10113500E6FA08E6FB4A600A900071E0FD7F71124D
:101145001F76050880D9E4F55C900071E07007FF13
:1011550012264A020FFB90008EE0FF12264AE4F5A4
:101165005B900087E090009AF090009D120C820041
:10117500000000E490009BF09000997440F090000E
:101185008D7402F09000617406F0E4900063F090B5
:0C11950000AD120C8200000000020FFBF5
:03001B00021BD1F4
:101BD100C0E0C0F0C083C082C0D075D000C000C0DA
:101BE10001C002C003C004C005C006C007AF5AAEA1
:101BF10059AD58AC57EF2401FFE43EFEE43DFDE44E
:101C01003C8F5A8E598D58F557900066E475F00156
:101C1100120AB5900066E0FEA3E0FFE4FCFD7B60E4
:101C21007AEAF9F8D3120C11500C900066E4F0A393
:101C3100F090006204F0788906E618700106C37816
:101C410089E694E818E69403401278727601788860
:101C5100760008760078867600087601D007D006EF
:101C6100D005D004D003D002D001D000D0D0D08292
:071C7100D083D0F0D0E03277
:030023000227337E
:10273300C0E0C0F0C083C082C0D075D000C000C06C
:0D27430001C002C003C004C005C006C007ED
:0F275000E59830E00AAF991221ED5398FED2AF11
:10275F00D007D006D005D004D003D002D001D000CE
:0B276F00D0D0D082D083D0F0D0E03278
:03003B0002001AA6
:01001A0032B3
:102A850053BBF7C280E5BB20E3F6D280C2AF75FD2C
:102A9500F075FC0F8EFA8FF975FDD275FC2D75FD5D
:052AA500E175FC1E229A
:102A5E0053BBF7C280E5BB20E3F6D280C2AF8FFB3B
:102A6E0075FDF075FC0F8CFA8DF975FDB475FC4B88
:072A7E0075FDE175FC1E224D
:04154200026D000036
:10217C00EFC39430400CEFD39439500674D02FFF3A
:10218C008022EFC39441400CEFD394465006EF24C9
:10219C00C9FF8010EFC39461400AEFD394665004DA
:1021AC00EF24A9FFEF540FC454F0FFEDC39430405B
:1021BC000CEDD39439500674D02DFD801EEDC394D4
:1021CC00414008EDD394465002800CEDC39461401D
:1021DC000AEDD394665004ED24A9FDED540F42078B
:0121EC0022D0
:0624FE008B168A178918F5
:10250400E4F51CF51BF51AF519E94A4B7005FFFEB5
:10251400FDFC22E4F51CF51BF51AF5197816E47593
:10252400F001120CBF1209D4601AE51C2401FFE467
:10253400351BFEE4351AFDE435198F1C8E1B8D1AEC
:0C254400F51980D8AF1CAE1BAD1AAC1905
:012550002268
:062904008B398A3A893B81
:10290A008B3F8A408941E94A4B7004FBFAF922E578
:10291A003E153EAE3D7002153D4E600F783FE475A0
:10292A00F001120CBFED120A1A80E4AB39AA3AA9D7
:01293A003B61
:01293B002279
:061990008B1D8A1E891F59
:101996008B258A26892785202885212985222AE9DB
:1019A6004A4B6008E5224521452070077B007A00F6
:1019B600790022D3852983852A82E5279582E52623
:1019C60095834019E52A2524F9E5293523FA8A83E2
:1019D6008982D3E5279582E52695834038E4F52B61
:1019E600F52CC3E52C9524E52B95235067AB28AA47
:1019F60029A92A852C82852B831209EDAB25AA26D7
:101A0600A927852C82852B83120A2C052CE52C70A0
:101A1600D1052B80CD85232B85242CD3E52C940052
:101A2600E52B9400402EAB28AA29A92AE52C24FFF1
:101A3600FFE52B34FFFE8F82F5831209EDAB25AA55
:101A460026A9278F828E83120A2CE52C152C70CBA3
:0A1A5600152B80C7AB1DAA1EA91FA7
:011A60002263
:102806008F6C8E6B8D6A8C697818120C38EF120AF1
:102816001AAF6CAE6BAD6AAC697810120C389000CA
:1028260001EF120A2CAF6CAE6BAD6AAC6978081278
:102836000C38900002EF120A2CE56CFF900003EFB3
:03284600020A2C57
:101DBC00E4F52DF52CF52BF52A1209D4FFE48F2D23
:101DCC00F52CF52BF52AAE2CAD2BAC2A7808120C81
:101DDC004B8F2D8E2C8D2B8C2A9000011209EDFF30
:101DEC00E52D4FFFE52CFEE52BFDE52A8F2D8E2CE6
:101DFC008D2BF52AFC7808120C4B8F2D8E2C8D2BED
:101E0C008C2A9000021209EDFFE52D4FFFE52CFE08
:101E1C00E52BFDE52A8F2D8E2C8D2BF52AFC7808D1
:101E2C00120C4B8F2D8E2C8D2B8C2A9000031209AB
:101E3C00EDFFE52D4FFFE52CFEE52BFDE52A8F2D63
:071E4C008E2C8D2BF52AFC02
:011E5300226C
:062C2E00900022E0FF22ED
:0C2BF500E4900022F0FDFC7F040225F7B4
:062C340090001FE0FF22EA
:082551008F5D8B5E8A5F8960DB
:10255900E4FDFC900021E0B401037F0122AF05AE48
:1025690004AD5D120026AC06E4FD120026AC06E5BA
:1025790061FD120026AC06AD62120026AC06AD075D
:10258900AB5EAA5FA96085611B85621C1228CEAC6F
:0A25990006AD077F071225F77F014A
:0125A3002215
:04269B008D25AB07D7
:10269F00E4FDFC900021E0B401037F0122AF05AE01
:1026AF0004AD03120026AC067D01120026AC06E431
:1026BF00FD120026AC067D01120026AC06AD07E523
:1026CF00257003FD8006AF05AE047D01120026AC18
:0A26DF0006AD077F071225F77F0103
:0126E90022CE
:021F7600A907B9
:101F7800E4FCF525F526900021E0B401037F012259
:101F88007527557528AAE4F529752AB2F52B752CFD
:101F9800078A2D8B2E892F753001F531753201EDA9
:101FA8007004F5338003753301E4F536F53774278B
:101FB8002537F8E62CFC0537E53770020536640D41
:101FC800453670EA8C3475250075260EE4F536F52D
:101FD80037E5261526AE25700215254E60147427A0
:101FE8002537F8E6FF12001E0537E53770E305369A
:041FF80080DF7F0106
:011FFC0022C2
:021B1F00A90714
:101B2100E4FCF525F526900021E0B401037F0122B4
:101B31007527557528AAE4F529752AB2F52B752C58
:101B4100078A2D8B2E892F753001F531753201ED04
:101B51007004F533802EBD01057533018026BD0269
:101B610005753302801EBD03057533038016BD0460
:101B710005753304800EBD05057533058006BD0668
:101B810003753306E4F536F53774272537F8E62C67
:101B9100FC0537E53770020536640D453670EA8C71
:101BA1003475250075260EE4F536F537E52615263C
:101BB100AE25700215254E601474272537F8E6FF0F
:0F1BC10012001E0537E5377002053680DF7F0101
:011BD00022F2
:021E5400AB07DA
:101E5600E4FDFC900021E0B401037F0122AF05AE52
:101E660004AD03120026AC067D02120026AC06E481
:101E7600FD120026AC067D04120026C006C007AF80
:101E86002CAE2BAD2AAC297818120C38AD07D0072A
:101E9600D006120026C006C007AF2CAE2BAD2AAC6A
:101EA600297810120C38AD07D007D006120026C0CC
:101EB60006C007AF2CAE2BAD2AAC297808120C3819
:101EC600AD07D007D006120026AC06C007E52CFFEA
:101ED600E4AD07D007120026AC06AD077F07122532
:031EE600F77F0182
:011EE90022D6
:021A6100AD07CF
:101A6300E4FBF52FF530900021E0B401037F012260
:101A7300788A76550876AAE408F60876B208F60856
:101A8300760AE52D08F608A62E08A605087602E4D0
:101A930008F6087604AF2CAE2BAD2AAC29781812C1
:101AA3000C387896A607AF2CAE2BAD2AAC2978104C
:101AB300120C387897A607AF2CAE2BAD2AAC297839
:101AC30008120C387898A607E52CFFE408A607F55A
:101AD30031F532748A2532F8E62BFB0532E5327094
:101AE3000205316410453170EA789AA603752F0018
:101AF300753011E4F531F532E5301530AE2F700253
:101B0300152F4E6014748A2532F8E6FF12001E0565
:0B1B130032E5327002053180DF7F01F7
:011B1E0022A4
:0825A4008F638B648A65896670
:1025AC00E4FDFC900021E0B401037F0122AF05AEF5
:1025BC0004AD63120026AC067D03120026AC06E5C2
:1025CC0067FD120026AC06AD68120026AC06AD07FE
:1025DC00AB64AA65A96685671B85681C1228CEACFE
:0A25EC0006AD077F071225F77F01F7
:0125F60022C2
:042849008D25AB0727
:10284D00E4FDFC900021E0B401037F0122AF05AE51
:10285D0004AD03120026AC067D04120026AC06E47E
:10286D00FD120026AC067D01120026AC06AD251228
:0D287D000026AC06AD077F071225F77F018E
:01288A00222B
:0218A800AD078A
:1018AA00E4F547F548900021E0B401037F0122AF37
:1018BA0048AE471200268E478F487D051200268EB5
:1018CA00478F48E4FD1200268E478F4874FFFFE5D4
:1018DA0045FEE544FDE543FCE47BFFFAF9F8C31253
:1018EA000C2770117D01AF48AE471200268E478F34
:1018FA0048AD46807E74FFFFFEE544FDE543FCE407
:10190A007BFF7AFFF9F8C3120C2770047D02803638
:10191A007D04AF48AE471200268E478F48AF46AEC9
:10192A0045AD44AC437818120C38AD07AF48AE4702
:10193A001200268E478F48AF46AE45AD44AC437879
:10194A0010120C38AD07AF48AE471200268E478FEB
:10195A0048AF46AE45AD44AC437808120C38AD07E3
:10196A00AF48AE471200268E478F48E546FFE4ADE2
:10197A0007AF481200268E478F48AD48AC477F070D
:05198A001225F77F01AA
:01198F002235
:082C0C008C258D261209D4FF6E
:012C1400229D
:082C15008C258D261209D4FF65
:012C1D002294
:072C1E008C288D29121DBC5A
:012C2500228C
:1021ED008F38D3855583855682E5539582E5529573
:1021FD00834015E5539556FFE5529555FEC3EF9473
:10220D001FEE648094805047C3855583855682E5C3
:10221D00539582E5529583500DC3E5569553FFE5D1
:10222D005595524F6029C390001FE5539582E55295
:10223D009583400D7A0079007551017552007553E3
:10224D00007851E475F001120CBFE538120A1A221C
:1011A100E4F509F50AF50BF50CC3E56E941FE56D41
:1011B10094005024122B2CEFD39400401B12277A59
:1011C100056EE56EAC6D7002056D142423F5827415
:1011D100003CF583EFF080D1C3E56E9407E56D9493
:1011E100005003021321C3E56E950AFFE56D9509D1
:1011F100FEC3EF9407EE940050030212EA74232514
:101201000AF58274003509F583E06455600A050A20
:10121100E50A70D2050980CE7424250AF58274008E
:101221003509F583E064AA600A050AE50A70B70585
:101231000980B37425250AF58274003509F583E028
:101241006004740280387427250AF5827400350918
:10125100F583E0FE7428250AF58274003509F583CB
:10126100E07C002400FFEC3ECF2407F50CE43FF5C1
:101271000BD3E50C9426E50B940040097403250A71
:10128100F50AE4805DC3E56E950AFFE56D9509FEFB
:10129100C3EF950CEE950B40507423250AF97400A9
:1012A1003509FA7B01E50C24FFFDE50B34FFFC1247
:1012B1002A09E50A250CFDE509350BFC74222DF5FB
:1012C1008274003CF583E06F60097403250AF50A16
:1012D100E4800FAF0AAE09120CF5E50C250AF50AF8
:1012E100E50B3509F5090211E7C3E56E950AF56EBF
:1012F100E56D9509F56DD3E56E9400E56D940040BB
:101301001F7423250AF974003509752001F5218917
:1013110022856D23856E247B017A00792312199031
:0113210022A9
:102B64007551017552007553007554017555007502
:092B7400560090001F74FFF022CE
:101546004100C0004400BC00000000014E00014BF9
:1015560000014A00014900014D00014C00014F0005
:10156600602000C1010103020402650466026701EE
:1015760068026902710172017301740275027602D2
:04158600770278026E
:102AAA007F55122C017FAA122C01E4FF122C017F00
:102ABA0004122C01E4FF122C01E4FF122C017F0303
:032ACA00022C01DA
:03001E00022C01B0
:10132200900000E0FD7F0112269B900071E0FD7F9E
:101332007112269B900087E0FFE48F2CF52BF52A93
:10134200F5297F03121E549000B8E0FFB4FF05E4B4
:10135200F515801EEFB4C8057515028015EFB42887
:1013620005751503800CEFB414057515048003751B
:101372001505AD157F65122849900089E0FEA3E0AE
:10138200FFE48F2C8E2BF52AF5297F66121E5490CE
:10139200007CE0FD7F6712269B90007FE0FFE48FD8
:1013A2002CF52BF52AF5297F68121E54E47B107A5E
:1013B20027F9F890006B120C5E120B71C374329F06
:1013C200FFE48F2CF52BF52AF5297F69121E54783C
:1013D20075E6FD7F7212269B900065E0FFE48F2C7C
:1013E200F52BF52AF5297F04121E54900070E0FDBA
:1013F2007F7312269B90007DE0FEA3E0FFE48F2C1A
:101402008E2BF52AF5297F74121E549000A1E0FE5E
:10141200A3E0FFE48F2C8E2BF52AF5297F75121E8F
:1014220054900088E0FFE48F2CF52BF52AF5297FF4
:1014320076121E54900074120C5E8F2C8E2B8D2A05
:101442008C297F77121E54900078120C5E8F2C8E9E
:0A1452002B8D2A8C297F78021E548E
:102B9400122C0C900000EFF0FD7F0112269BBF0168
:062BA400037F01227F0007
:012BAA002208
:10208100122C1E8F268E258D248C23054A900087C5
:10209100E0FFE4FCFDFEAB26AA25A924A823C31278
:1020A1000C276032E4F54AF527E52725E02476F888
:1020B100E6FA08E6FB4A601585262C85252B852442
:1020C1002A8523298A2D8B2E7F03121A610527E584
:1020D10027C3940840D3AF26900087EFF090008E7D
:1020E100F01217B7900087E0FFE48F2CF52BF52A4B
:0F20F100F5297F03121E54BF01037F01227F00D8
:0121000022BC
:1029A600122C1E8F268E258D248C23900065EFF029
:1029B6001224501217B7900065E0FFE48F2CF52B18
:1029C600F52AF5297F04121E54BF01037F01227FD9
:0129D6000000
:0129D70022DD
:101C7800122C158F2305499000C0E0B52317E523E2
:101C8800640570359000B8E0FF900088E06F602927
:101C9800E4F5498024E4F549F524E52425E0247693
:101CA800F8E6FA08E6FB4A6007AD237F65121B1FBA
:101CB8000524E524C3940840E1E52314601014606A
:101CC8001514601A14601F146024240570289000ED
:101CD800B874FFF080209000B874C8F080189000A5
:101CE800B87428F080109000B87414F08008900040
:101CF80088E09000B8F09000C0E523F01217B79084
:101D080000C0E0FD7F65122849BF01037F01227FE3
:011D180000CA
:011D190022A7
:101FFD00122C1E8F268E258D248C23054D90008945
:10200D00E0FEA3E0FFE4FCFDAB26AA25A924A8234E
:10201D00C3120C276032E4F54DF527E52725E024A2
:10202D0076F8E6FA08E6FB4A601585262C85252B01
:10203D0085242A8523298A2D8B2E7F66121A610508
:10204D0027E527C3940840D3900089E525F0A3E543
:10205D0026F01217B7900089E0FEA3E0FFE48F2C65
:10206D008E2BF52AF5297F66121E54BF01037F01C1
:03207D00227F00BF
:01208000223D
:1024A800122C0C8F23054B90007CE065236024E4FC
:1024B800F54BF524E52425E02476F8E6FA08E6FB52
:1024C8004A6007AD237F67121F760524E524C3946D
:1024D8000840E1E52390007C7003F080037401F06C
:1024E8001217B790007CE0FD7F6712269BBF01039F
:0524F8007F01227F00BE
:0124FD0022BC
:10210100122C1E8F268E258D248C23054C90007F4A
:10211100E0FFE4FCFDFEAB26AA25A924A823C312F7
:102121000C276032E4F54CF527E52725E02476F805
:10213100E6FA08E6FB4A601585262C85252B8524C1
:102141002A8523298A2D8B2E7F68121A610527E59E
:1021510027C3940840D390007FE526F01217B7906B
:10216100007FE0FFE48F2CF52BF52AF5297F68121B
:0A2171001E54BF01037F01227F000E
:01217B002241
:101D1A00122C1E8F268E258D248C23054F9000BCF5
:101D2A00120C5EAB26AA25A924A823C3120C27608D
:101D3A0032E4F54FF527E52725E02476F8E6FA0898
:101D4A00E6FB4A601585262C85252B85242A8523C2
:101D5A00298A2D8B2E7F69121A610527E527C394DC
:101D6A000840D3AF26AE25AD24AC239000BC120C9C
:101D7A0076C374329526FFE49525FEE49524FDE4A6
:101D8A009523FCE47B107A27F9F8120AE690006B97
:101D9A00120C761217B79000BC120C5E8F2C8E2B89
:101DAA008D2A8C297F69121E54BF01037F01227F6D
:011DBA000028
:011DBB002205
:10239400122C0C8F23054E900071E065236024E419
:1023A400F54EF524E52425E02476F8E6FA08E6FB64
:1023B4004A6007AD237F71121F760524E524C39478
:1023C4000840E1E5237006900071F0801190007CD4
:1023D400E0B40104787476019000717401F0900007
:1023E40071E0FD7F7112269BBF01037F01227F00F4
:0123F40022C6
:1026EA00122C0C8F23E5237875666022E4F524E525
:1026FA002425E02476F8E6FA08E6FB4A6007AD23CB
:10270A007F72121F760524E524C3940840E1E5236D
:10271A0078757003F680027601AD237F7212269BCC
:08272A00BF01037F01227F00C3
:012732002284
:102BAB00122C0C900070EFF0FD7F7312269BBF016F
:062BBB00037F01227F00F0
:012BC10022F1
:0616B8008B1D8A1E891F34
:1016BE00EF120CCF16E70117160317260417356520
:1016CE001744661753671762681771691780711789
:1016DE008F72179E73000017AFAB1DAA1EA91FAD08
:1016EE0021AC20122B948F22E52264016003021795
:1016FE00B490009CE004F0E0C3940550030217B4CC
:10170E00E4F0122AAA0217B4AB1DAA1EA91FAD211E
:10171E00AC201220810217ABAB1DAA1EA91FAD2152
:10172E00AC201229A68076AB1DAA1EA91FAD21AC36
:10173E0020121C788067AB1DAA1EA91FAD21AC20FC
:10174E00121FFD8058AB1DAA1EA91FAD21AC201281
:10175E0024A88049AB1DAA1EA91FAD21AC201221C1
:10176E0001803AAB1DAA1EA91FAD21AC20121D1A75
:10177E00802BAB1DAA1EA91FAD21AC201223948075
:10178E001CAB1DAA1EA91FAD21AC201226EA800D8E
:10179E00AB1DAA1EA91FAD21AC20122BAB8F228030
:0817AE0000E490009CF0AF2262
:0117B6002210
:032C3A007F1022E6
:1017B7007F007E2F122A857F107E27122BD4E47B91
:1017C700E87A03F9F890006B120C5E120B71780837
:1017D700120C387D007C2F122A5E7F647E00122B4C
:1017E700D4E47BE87A03F9F890006B120C5E120BD5
:1017F70071E47D017C2F122A5E7F647E00122BD458
:101807009000B8E0FF7D027C2F122A5E7F647E0085
:10181700122BD4900089E0FF7D037C2F122A5E7F74
:10182700647E00122BD4900089A3E0FF7D047C2FF7
:10183700122A5E7F647E00122BD4900087E0FF7D22
:10184700057C2F122A5E7F647E00122BD490007FC6
:10185700E0FF7D067C2F122A5E7F647E00122BD468
:1018670090007CE0F4FF7D077C2F122A5E7F647E68
:1018770000122BD4900065E0FF7D087C2F122A5EB2
:101887007F647E00122BD47F807E2F122A857F10E3
:101897007E27122BD47D807C2FE4FF122A5ED2AFE5
:0118A700221E
:0F2BE600386C6D786E6C676700312E302E3000C2
:03158A000150000D
:1000260074482FF974003EFA7B01ED120A1A0FBFCD
:0300360000010EB8
:0100390022A4
:0628C800AF157E007BFF4E
:0A28CE008E168F178B188A19891ACD
:1028D80074482FF974003EFA7B0185182085192168
:1028E800851A22851B23851C24121990E51C25179F
:0B28F800F517E51B3516F516FEAF17AF
:0129030022B1
:10288B008B2F8A3089318C328D33E94A4B602DE5A1
:10289B003345326027E5331533AE32700215324EB5
:1028AB00601AAB2FAA30A9311209D4FF12001E7483
:0D28BB00012531F531E43530F53080D922AA
:0A2A09008B2F8A3089318C328D3317
:102A1300E4FFFDFCC3ED9533EC95325015782FE4BC
:102A230075F001120CBF1209D42FFF0DBD00010C6C
:022A330080E23F
:012A3500227E
:0425F7008C2D8D2E6C
:1025FB009000427455F0A374AAF0E4A3F0A3EFF09B
:10260B00E52DA3F0E52EA3F02407F52EE4352DF5EB
:10261B002D7B017A007942E52E24FFFDE52D34FF59
:10262B00FC122A097441252EF5827400352DF58391
:0F263B00EFF07B017A007942AD2EAC2D02288B97
:04232E008C6F8D70B3
:1023320074022570F570E4356FF56F9000427455A4
:10234200F0A374AAF0E4A3F0A3EFF0E56FA3F0E525
:1023520070A3F0A374FFF0A3F074072570F570E486
:10236200356FF56F7B017A007942E57024FFFDE558
:102372006F34FFFC122A0974412570F5827400350E
:102382006FF583EFF07B017A007942AD70AC6F029A
:02239200288B96
:102AEE00E4FFE550700AFEFD1200267550018007C6
:102AFE007E007D01120026EFFD7C00E4FF0225F72B
:10293C00E4F5157BFF7A2B79E61224FE8E1B8F1C97
:10294C007A2B79E61228C88F157BFF7A2B79EF1238
:10295C0024FE8E1B8F1C7A2B79EF1228C88F15EF53
:08296C00FD7C007F010225F74C
:082C2600E4FDFC7F020225F72A
:022ACD008F1C5C
:102ACF00122C3AE4FEEEC39F501275F002EE900006
:0E2ADF00C1120CB3E0651C60030E80E9AF0667
:012AED0022C6
:0623F5008B158A16891702
:1023FB001209D4F5189000011209EDF5199000029D
:10240B001209ED751B00F51A9000031209ED251B3F
:10241B00F51BE4351AF51AAF18122ACD75F002EF39
:10242B009000C2120CB3E0651960037F0022AB155C
:10243B00E5172404F9E43516FA851A20851B21AF1C
:04244B00181216B895
:01244F00226A
:040CF5008E0D8F0EC3
:100CF90074262FF58274003EF583E0FF120CCF0DA8
:100D090024000D27010D2A020D2D030D46040D4D5A
:100D1900060F61080DE8B400000F64022AEE0229EB
:100D29003C022C267429250EF5827400350DF583B5
:100D3900E090001FF0E4FDFC7F030225F7900022FC
:100D49007401F0227427250EF5827400350DF583A0
:100D5900E0751400F5137428250EF5827400350D1D
:100D6900F583E02514F514E43513F513E4F511F5CD
:100D790012C3E5129514E51195134003020F64E5BA
:100D89000E2512FDE50D3511FC742B2DF58274002D
:100D99003CF583E0751000F50F742C2DF582740075
:100DA9003CF583E02510F510E4350FF50F7429257E
:100DB9000EF97400350DFA7B01E92512F9EA3511AE
:100DC900FA1223F5BF01031217B7E5102404FFE453
:100DD900350FFEEF2512F512EE3511F511809274DB
:100DE90027250EF5827400350DF583E0751400F59D
:100DF900137428250EF5827400350DF583E025144A
:100E0900F514E43513F513742A250EF582740035AB
:100E19000DF583E0F8E47977F7E819F7742B250ED7
:100E2900F5827400350DF583E0787726F618E436F7
:100E3900F6742C250EF5827400350DF583E0F8E47F
:100E49007979F7E819F7742D250EF5827400350DB7
:100E5900F583E0787926F618E436F6742E250EF532
:100E6900827400350DF583E0F8E4797BF7E819F72A
:100E7900742F250EF5827400350DF583E0787B26F5
:100E8900F618E436F67430250EF5827400350DF542
:100E990083E0F8E4797DF7E819F77431250EF582D6
:100EA9007400350DF583E0787D26F618E436F6747E
:100EB90032250EF5827400350DF583E0F8E4797F6B
:100EC900F7E819F77433250EF5827400350DF583AB
:100ED900E0787F26F618E436F67434250EF5827428
:100EE90000350DF583E0F8E47981F7E819F77435F1
:100EF900250EF5827400350DF583E0788126F61804
:100F0900E436F67436250EF5827400350DF583E066
:100F1900F8E47983F7E819F77437250EF582740038
:100F2900350DF583E0788326F618E436F67438250E
:100F39000EF5827400350DF583E0F8E47985F7E85C
:100F490019F77439250EF5827400350DF583E078AB
:0B0F59008526F618E436F6221213225B
:010F6400226A
:102B2C00E5548555838556826551700AE553658257
:0E2B3C007004E552658360037F01227F002252
:10277A00AB54AA55A956E5518552838553826554AF
:10278A00700AE55665827004E55565836028C39032
:10279A00001FE5569582E5559583400D7A0079002C
:1027AA007554017555007556007854E475F0011298
:0627BA000CBF1209D4FF60
:0127C00022F6
:10077D000209BFE86480F8E933E83360110460F0E2
:10078D00ED33EC337009E8FCE9FDEAFEEBFF2204E2
:10079D0060DED3EB9FEA9EE99DE8C2E78CF0C2F7DD
:1007AD0095F0400CE8CCF8E9CDF9EACEFAEBCFFBA9
:1007BD0012098A85D0F05804700320D5B3E804706F
:1007CD00075002B2D50209C992D5EC0460F7E4CC0A
:1007DD00C0E0C398F8603B94186008400DD0E0FB72
:1007ED000209A1E4FBFAC9FC8028E830E406E4C95B
:1007FD00FBE4CAFCE830E305E4C9CACBFCE85407C6
:10080D006010F8C3E913F9EA13FAEB13FBEC13FCD0
:10081D00D8F130F52FC3E49CFCEF9BFFEE9AFEED73
:10082D0099FDD0E0FBEF4E4D4C701222DB03020917
:10083D00C6EC2CFCEF33FFEE33FEED33FDED30E770
:10084D00EB0209A1EF2BFFEE3AFEED39FDD0E0FBF7
:10085D0050130BBB00030209C9ED13FDEE13FEEFA0
:08086D0013FFEC13FC0209A1CA
:100875000209C9EC5D046005E8590470030209BF6B
:1008850012098A580460F6EC4860F2EC7004FDFE2B
:10089500FF22C860DB2481C85009C3986002500656
:1008A5000209C69850CAF582E9294B4A7005AB8200
:1008B5000209B575F0007C1A7880C3EF9BEE9AEDBE
:1008C50099400DC3EF9BFFEE9AFEED99FDE842F0CE
:1008D500DC23ACF0D0E0FFD0E0FED0E0FDAB822021
:1008E500E7101BEB60BAEC2CFCEF33FFEE33FEEDAB
:1008F50033FD0209A1E803F830E705C0F075F00003
:10090500EF2FFFEE33FEED33FD40B830E7C280AA8E
:1009150075F020800E75F010800575F0087D007E5D
:10092500007F003392D530D503120C03EC33401011
:10093500EF33FFEE33FEED33FDEC33FCD5F0ED2266
:0E094500E5F0247EA2D513CC92E7CDCEFF22A2
:10095300EDD2E7CD33EC3392D524814006E4FFFE9C
:10096300FDFC22FCE4CFCECDCC24E0501174FF80FB
:10097300EDC3CC13CCCD13CDCE13CECF13CF047098
:07098300F030D5DE020C0389
:10098A00E9D2E7C933E833F892D5EDD2E7CD33ECB3
:07099A0033FC5002B2D5222C
:1009A100EC30E7100FBF000C0EBE00080DBD0004B7
:1009B1000BEB6014A2D5EB13FCED92E7FD2274FF63
:1009C100FCFDFEFF22E480F8A2D574FF13FC7D80BC
:0309D100E480EFD0
:101EF600020F65E493A3F8E493A34003F68001F28E
:101F060008DFF48029E493A3F85407240CC8C333EC
:101F1600C4540F4420C8834004F456800146F6DFBB
:101F2600E4800B010204081020408090145CE47EDB
:101F3600019360BCA3FF543F30E509541FFEE493B0
:101F4600A360010ECF54C025E060A840B8E493A377
:101F5600FAE493A3F8E493A3C8C582C8CAC583CAA2
:101F6600F0A3C8C582C8CAC583CADFE9DEE780BE5A
:01158D00005D
:1009D400BB010689828A83E0225002E722BBFE0221
:0909E400E32289828A83E4932254
:1009ED00BB010CE58229F582E5833AF583E02250BF
:1009FD0006E92582F8E622BBFE06E92582F8E22209
:0D0A0D00E58229F582E5833AF583E4932222
:100A1A00BB010689828A83F0225002F722BBFE01BB
:020A2A00F322B5
:100A2C00F8BB010DE58229F582E5833AF583E8F000
:100A3C00225006E92582C8F622BBFE05E92582C8AC
:020A4C00F22294
:100A4E00EF8DF0A4A8F0CF8CF0A428CE8DF0A42EBC
:020A5E00FE2276
:100A6000BC000BBE0029EF8DF084FFADF022E4CC7A
:100A7000F875F008EF2FFFEE33FEEC33FCEE9DEC43
:100A8000984005FCEE9DFE0FD5F0E9E4CEFD22ED89
:100A9000F8F5F0EE8420D21CFEADF075F008EF2FD3
:100AA000FFED33FD4007985006D5F0F222C398FDC4
:050AB0000FD5F0EA2261
:100AB500C5F0F8A3E028F0C5F0F8E58215827002CC
:060AC5001583E038F02269
:0D0ACB00EF2BFFEE3AFEED39FDEC38FC227A
:0E0AD800C3EF9BFFEE9AFEED99FDEC98FC2219
:100AE600E88FF0A4CC8BF0A42CFCE98EF0A42CFCAF
:100AF6008AF0EDA42CFCEA8EF0A4CDA8F08BF0A42D
:100B06002DCC3825F0FDE98FF0A42CCD35F0FCEB8B
:100B16008EF0A4FEA9F0EB8FF0A4CFC5F02ECD3950
:0F0B2600FEE43CFCEAA42DCE35F0FDE43CFC22BD
:100B350075F008758200EF2FFFEE33FECD33CDCC77
:100B450033CCC58233C5829BED9AEC99E5829840FA
:100B55000CF582EE9BFEED9AFDEC99FC0FD5F0D6D7
:100B6500E4CEFBE4CDFAE4CCF9A88222B800C1B901
:100B75000059BA002DEC8BF084CFCECDFCE5F0CB3F
:100B8500F97818EF2FFFEE33FEED33FDEC33FCEB78
:100B950033FB10D703994004EB99FB0FD8E5E4F933
:100BA500FA227818EF2FFFEE33FEED33FDEC33FC20
:100BB500C933C910D7059BE99A4007EC9BFCE99A14
:100BC500F90FD8E0E4C9FAE4CCFB2275F010EF2F59
:100BD500FFEE33FEED33FDCC33CCC833C810D70759
:100BE5009BEC9AE899400AED9BFDEC9AFCE899F894
:0E0BF5000FD5F0DAE4CDFBE4CCFAE4C8F92227
:0E0C0300C3E49FFFE49EFEE49DFDE49CFC2202
:100C1100EB9FF5F0EA9E42F0E99D42F0EC6480C85A
:060C210064809845F022FA
:100C2700EB9FF5F0EA9E42F0E99D42F0E89C45F023
:010C3700229A
:100C3800E8600FECC313FCED13FDEE13FEEF13FF9A
:030C4800D8F122BE
:100C4B00E8600FEFC333FFEE33FEED33FDEC33FC07
:030C5B00D8F122AB
:0C0C5E00E0FCA3E0FDA3E0FEA3E0FF2209
:0C0C6A00E0F8A3E0F9A3E0FAA3E0FB220D
:0C0C7600ECF0A3EDF0A3EEF0A3EFF022F1
:100C8200A8828583F0D083D082120C99120C99121B
:100C92000C99120C99E473E493A3C583C5F0C58340
:100CA200C8C582C8F0A3C583C5F0C583C8C582C8BC
:010CB200221F
:0C0CB300A42582F582E5F03583F583224C
:100CBF00FAE6FB0808E6F925F0F618E6CA3AF62236
:100CCF00D083D082F8E4937012740193700DA3A3B4
:100CDF0093F8740193F5828883E4737402936860C8
:060CEF00EFA3A3A380DFC8
:00000001FF
