:03000000021C9F40
:0C1C9F00787FE4F6D8FD75818B021CE60E
:10128000045200000000410006004100430C4100F0
:10129000444044003A0000000044001800000000F0
:1012A00044001C0000000044005A000000004400FC
:1012B00047000000004400600000000042002C00D5
:1012C00001420016000041000D00410037004200BD
:1012D00065000042000E0000410000084100460089
:1012E0000156000157004100150041002401410052
:1012F0002F0A4100450A41003600410038004200F3
:101300000B00004100020002850000028100001075
:101310006E0000000000000000000000000000005F
:1013200000016D0041000A00410007004100140067
:101330004200250000420034000041005E014100EF
:101340000301420004000041000100016C00410063
:10135000300041004200017E00016A00027F00006F
:10136000016B00028303E84100390041002E004D6B
:10137000004D0000000000000000000000000042DE
:041380000008000061
:1013CD00EF24A0FFEE340FFEE43DFDE43CFC1205DE
:1013DD001FD30204D0E4900046F09000447440F016
:1013ED009000377402F09000007406F0E49000064F
:1013FD00F090005A2290001812051390003A120531
:10140D001F1203749000181205379000180205136F
:10141D0090003A12051FC30204D0E4FCFD120374C0
:10142D0090006002053790003E120513EF2470FF07
:10143D00EE3417FEE43DFDE43CFC90001822122B27
:10144D0092E47BE87A03F9F89000100205139000FE
:10145D0044E0FF900006E0C39F22D390002DE0945E
:10146D000090002CE0940022E475F00102035E125E
:10147D00051390001C12051F0203741202F7AC062F
:10148D00AD07E41201C3E4FBFA79C87842020121E9
:10149D007F647E00022B9290001002053790003A77
:1014AD00020513E4FFFEFD7C3F12002D0201FCD36B
:1014BD00900066E09400900065E094002290002F6B
:1014CD00E0900045F0227F0A12280D900031EFF0D8
:1014DD0090005F2290006002051FD39DEC6480F8A0
:1014ED007480982290001C020513E47B02FAF9F82F
:1014FD0002041A90001802051F7E2F122ACA7F10AF
:03150D007E272214
:102996008E098F0A8B0B8A0C890DAF051DEF6021FE
:1029A600050AE50AAE097002050914F5828E83E46C
:1029B60093FF780BE475F001120580EF1202C380D5
:0229C600D92214
:102A55008F828E83E4F555F554F553F552AF82AE6A
:102A650083E4FCFDAB55AA54A953A852C31204D064
:082A7500500543BD1080E6226C
:092B8900E0FF7C2F122A7D7F641D
:102B9200E4FDFCC3ED9FEC9E50070DBD00010C80CF
:012BA200F240
:012BA300220F
:102BBE00758E5190FE917401F0A37410F075BD5F87
:072BCE0090FEA07420F0222C
:102B3000E490FE80F0758901758DFA758BCB43A802
:0E2B400008438840758CCB758AEB43881022C1
:1029C80090FF10E054F04408F090FF02E054F04407
:1029D80002F0D28490FFA07420F0A37404F075CCA8
:1029E8000675CEFF75CD98759E0275981043A81090
:0129F80022BC
:102BD50043B40343B4807F147E00122B9275B50174
:072BE50090FE9B744BF022EF
:102BA40090FF08E04488F090FF00E0540F4430F0B8
:0A2BB40090FF11E054F04403F022FA
:0B2C45008F99E59830E1FB5398FD22C9
:10280D008FB543B440E5B430E5FB53B4DF12149DEE
:10281D00E4FBFAF943B440E5B430E5FB53B4DFE52E
:10282D00B62BFBE5B73AFA7F147E00122B9209B94D
:0C283D0010E275B501A90212149DAF0154
:01284900226C
:100FA9007B017A00794D7D0D7F007E2F1229969065
:100FB900004DE0FFE4FCFDFE1214A412145578085C
:100FC9001204F41214A490001012051F90004EE0B0
:100FD900FFE4FCFDFE1203741214A4121455E47B01
:100FE900E87A03F9F812038F1214A4E47F307E75AE
:100FF900FDFC90001012142040107F007E097D3DF9
:101009007C009000101213DB400A90001012054377
:1010190000009C4090004FE0900064F0700280074F
:10102900900064E0B4FE0374FFF0900050E0FF907C
:101039000032E4F0A3EFF0E0F8E4F0E8900032F0D9
:10104900900051E0FF900032E48FF012035E9000AF
:1010590032E0FEA3E0FF4E6009D3EF9408EE940757
:101069004009900032E4F0A37405F0900052E0903A
:10107900002FF0900038F0900053E0900027F060C6
:1010890006E0D394FF40069000277401F0900054C5
:10109900E0F45401900024F0900055E05401786D7B
:1010A900F6A3E05401900015F0900057E054019028
:1010B9000014F0900058E090000AF07B017A007962
:1010C900087D027F807E2F122996900008E090000B
:1010D90036F0900009E0900007F07F807E2F122AF9
:1010E900CA7F107E27122B92900036E004F0E0FFB1
:1010F9007D807C2F122A7D12149D900007E07003D9
:10110900022C1F900007E0FFB4010A7D817C2F1299
:061119002A7D12149D2244
:1005B600E5566003020A9543B440E5B430E5FB53C3
:1005C600B4DF85B70985B60A9000161214751214A1
:1005D600E1AE09AF0A12142790004BE0FEA3E0FF3C
:1005E600C3950AEE9509500DC3E50A9FF50AE5097C
:1005F6009EF509800BC3EF950AF50AEE9509F509F4
:1006060090001C12051FAE09AF0AE4FCFD1203742C
:1006160090001C120537900016E05401FEA3E04E30
:1006260070521214BC4017900045E09464503DE0AF
:100636002402F0E0D3946440337464F0802E90007A
:100646000EE07004A3E06401702A90002FE0FF9092
:100656000045E0FED39F4014EE94024004E024FEE1
:10066600F0900045E0C39F50031214CA900045E085
:10067600FF1222B1C3900016E094205003020AC470
:1006860043BD10E4F0A3F0900046E004F0A3120589
:1006960013900060121482900047120537900046AE
:1006A600E0C394084035E4F0A31205137810120451
:1006B600E190004712053790004712051390004B52
:1006C600EE8FF012035E90004BE0C313F0A3E0132D
:1006D600F090004712054300000000900000E0C3C0
:1006E60094085005E004F08040900065E07002A395
:1006F600E070361214D3E0FE2402FDE433FCEF1260
:1007060014E75018900031E02402FDE433FCEE12A9
:1007160014E7500890005FE0900031F0900031E05F
:1007260090005FF0E4900000F0E4FFFEFDFC900016
:100736001812142070331214F1EF2488FFEE3413CC
:1007460012144012053790002CE07002A3E07019D5
:100756007F407E427D0FFC9000181213DB400A900A
:100766000018120543000F4240900006E070131275
:1007760014F190003A120537900028120543000044
:10078600000190002812147C12141D400302093C3B
:1007960090002812051390003A12148290001C1241
:1007A6001420400302093C900006E004F090005A31
:1007B60012147C90005A120537900006E0FFFBE405
:1007C600FAF9F890005A12051312041A90003A1218
:1007D60005371214AA78031204E19000281205378F
:1007E600E47F207E4EFDFC900028121420500A90D3
:1007F600002812054300004E20E47F607EEAFDFCDF
:100806009000281213DB400A9000281205430000CE
:10081600EA601214AA9000181213DB403E90003AC8
:1008260012051F12141712038112142D7F807E38B1
:100836007D017C009000601213DB40089000437439
:1008460006F0801DE47F407E9CFDFC900060121344
:10085600DB90004340087409F08006900043740C56
:10086600F090004312145E403B12141712141D50F0
:1008760033900044E09410500302094B900043E08B
:10088600D3940950051214AA80111214AA900018C4
:100896001213CD400C1214021214F7900018120510
:1008A6003702093C12145B500302094B12141790CD
:1008B600003A1213CD40771215001214AA120381C2
:1008C60012142D7F007E127D7A7C0012141D505E5C
:1008D6007F807E1A7D067C00900060121420504EA8
:1008E600900044E09410400280387FE07E937D04BF
:1008F6007C009000601213DB40089000447410F0F6
:10090600801B7FF07E497D027C009000601213DB25
:100916009000444005740CF080037408F012145BD8
:10092600400C1214021214F7900018120537121414
:100936005B4012E48004E4900006F090005A120531
:100946004300000000900037E0D394004036E014E6
:10095600F01214331213DB5003020A4A90003E12BF
:100966000513EF2498FFEE343AFEE43DFDE43CFC2B
:1009760090001C1214204003020A4A121433120576
:1009860037020A4A121467405774FFF5F012035EE5
:10099600121467404B7F007E127D7A7C009000180F
:1009A6001213DB400C900010120543000C3500803A
:1009B6002F12145512150012142A7F407E547D8979
:1009C6007C009000601213DB4016121500C37440C1
:1009D6009BFF74549AFE748999FDE498FC1214A442
:1009E60012145590001812148290001C1213DB404A
:1009F60053900064E0FF900031E0D39F400512144D
:100A0600674041900065E07002A3E0700912141778
:100A160090003E120537900065E4F0A304F09000C4
:100A2600251214759000307401F0786CF69000442D
:100A36007408F0E490000EF0A3F07885F608F678D6
:100A460081F608F61214F190002012053790006026
:100A56001205430000000090001C12054300000030
:100A660000900065E0FEA3E0FFD39400EE94004002
:100A76004D900032E0FCA3E0FDD3EF9DEE9C403E9E
:100A8600E4900065F0A3F0755601900030F02290D6
:100A9600000EE4F0A304F0E4F55690000BF0A3F08A
:100AA600900002F07FFAFE122A5590004712054385
:0E0AB600000000001213E212054300000000D1
:010AC400220F
:10219D00E4F50A90006012054300000000E4F50923
:1021AD0043B440E5B430E5FB53B4DF1214E1AFB6F0
:1021BD00AEB71214270509E509B480E47F907E01BE
:1021CD00122A55900060120513780B1204E18F0945
:1021DD00E509D3940C400CE509948D5006E50A945D
:0D21ED0014500A050AE50AD3945040A722B9
:0121FA0022C2
:1021FB0090006012054300000000E4F509E4F50CC3
:10220B00F50D43B440E5B430E5FB53B4DF85B70AB5
:10221B0085B60B1214E1AE0AAF0B121427050DE5B0
:10222B000D7002050CB400DAE50CB420D543BD10DB
:10223B000509E509B408C690006012051378101261
:0A224B0004E190004BEEF0A3EFF069
:012255002266
:10245900BF0105E4FCFD802E7E007C017DFF120298
:10246900F71C7D64120309AC06AD07E41201C38FA2
:102479002D8E2C8D2B8C2AAB2DAA2CA92BA82A1298
:1024890014B0AC06AD0790FF907411F075DA0175C0
:0E249900E30175E2FF8CE58DE475E10F7F0035
:0124A7002212
:1028C300BF0104E4FE801E7E007C007DFF1214889D
:1028D3008F2D8E2C8D2B8C2AAB2DAA2CA92BA82ABD
:1028E3001214B0AE0790FF9C7410F075DEFF8EDFFC
:0528F30075DD947F007B
:0128F80022BD
:0222B1008F2874
:1022B300787EE6B528037F0022787EA628E528707D
:1022C3000790005E04F08012E528B46407E49000F0
:1022D3005EF0800690005E7402F0E528FD7C0090BD
:1022E300000AE0FF7E00121488E4FBFAF9783F123B
:1022F30014B68F29C3E5289529FF122459AF291253
:0423030028C37F006C
:0123070022B3
:100D6600122BEC122BBE122BA4122B301229C812F6
:100D76002BD575BBAA90FEA774FFF053BBF7D2AF75
:100D86007FC87E00122A551214D3F0C2AF120FA9E3
:100D96007F641222B1D2AF12219D90002FE0FF9006
:100DA6000045F01222B17F2C7E01122A551221FB3A
:100DB60090006012054300000000900036E0D394D6
:100DC600034007E4F0122C1F8003121ACF9000395B
:100DD600E0601A120F9090002EE004F0E0FF74031A
:100DE600D39F5009E4900039F090002EF0786AE61F
:100DF600601B120F90788006E618700106D3742CDB
:100E0600788096740118965004E4786AF690000388
:100E1600E0FF90005EE0FD6F600D7F761228F9908E
:100E2600005EE0900003F0900042E0FF900030E0AA
:100E3600FD6F600D7F771228F9900030E090004238
:100E4600F0900001E06401706DF0786CE66401706A
:100E560065F6900025E0FEA3E0FF900034E06E709A
:100E660003A3E06F601DE48F2E8E2DF52CF52B7FEE
:100E760074121E33900025E0FFA3E0900034CFF0FB
:100E8600A3EFF0786DE66401702CF508E50825E01F
:100E9600246EF8E6FA08E6FB4A6012786B7601E4FF
:100EA600FD7F781223087F647E00122A550508E527
:100EB60008C3940840D643BD10E556700B90001742
:100EC600E0541F700312111F900024E064016003B8
:100ED600020F5BE557701CF5567557011214CA9040
:100EE6000047120543000000001213E212054300FA
:100EF6000000001205B6D390000FE0940090000E9B
:100F0600E094004033900002E0B4012CE4F090003D
:100F16000E121476900027E0FFC390000FE09F901A
:100F2600000EE094004011E4F0A3F0900014E06499
:100F3600016005E4FF1222B11214BC5003020DD366
:100F46007882E6640118466003020DD3F608F612AD
:100F56001476020DD3E4F557900015E07007FF12E2
:100F660022B1020DD3900038E0FF1222B1E4F5560B
:100F76001214CA900047120543000000001213E243
:0A0F860012054300000000020DD325
:100F90007F641222B17F647E00122A55E4FF122280
:090FA000B17F647E00122A552283
:03001B000218B018
:1018B000C0E0C0F0C083C082C0D075D000C000C0FE
:1018C00001C002C003C004C005C006C007AF55AECA
:1018D00054AD53AC52EF2401FFE43EFEE43DFDE481
:1018E0003C8F558E548D53F55290000B1214759009
:1018F000000BE0FEA3E0FFE4FCFD7B607AEAF9F870
:10190000D31204BA500C90000BE4F0A3F090000244
:1019100004F0788606E618700106C37886E694E837
:1019200018E69403400C760008760078817600086B
:1019300076019000041214757883E6FE08E6FFC372
:10194000900005E09F900004E09E4009E4F0A3F0C1
:1019500090000104F0D007D006D005D004D003D009
:1019600002D001D000D0D0D082D083D0F0D0E032ED
:030023000226C3EF
:1026C300C0E0C0F0C083C082C0D075D000C000C0DD
:0D26D30001C002C003C004C005C006C0075E
:0F26E000E59830E00AAF991226785398FED2AFF2
:1026EF00D007D006D005D004D003D002D001D0003F
:0B26FF00D0D0D082D083D0F0D0E032E9
:102ACA0053BBF7C280E5BB20E3F6D280C2AF75FDE7
:102ADA00F075FC0F8EFA8FF975FDD275FC2D75FD18
:052AEA00E175FC1E2255
:102A7D0053BBF7C280E5BB20E3F6D280C2AF8FFB1C
:102A8D0075FDF075FC0F8CFA8DF975FDB475FC4B69
:072A9D0075FDE175FC1E222E
:101ACF007F0012150612144B12041A78081204E143
:101ADF007D007C2F122A7D7F647E0012144B12042E
:101AEF001A7D017C2F122A7D12149D9000647D02B5
:101AFF00122B899000327D03122B89A3E0FF7D0406
:101B0F00122B8B90002FE0FF7D05122B8B9000275F
:101B1F00E0FF7D06122B8B900024E0F4FF7D07126F
:101B2F002B8B786DE6FF7D08122B8B900015E0FF55
:101B3F007D09122B8B900014E0FF7D0A122B8B90E6
:101B4F00000AE0FF7D0B122B8B7F80121506122BE4
:101B5F00927D807C2FE4FF122A7D0D0F122A7DD2F9
:011B6F00AFC6
:011B70002252
:0413840002680000FB
:10197000120296FFE5304FFFE52FFEE52EFDE52D27
:101980008F308E2F8D2EF52DFC78081204F48F30B9
:101990008E2F8D2E22AF2EAE2DAD2CAC2B1204E14E
:1019A000AD0722AF2FAE2EAD2DAC2C1204E1AD074A
:1019B00022AB07E4FDFC900088E02285508385512E
:1019C00082E54E9582E54D958322C3E569950AFF30
:1019D000E5689509FEC3EF22AC06AD077F0722E458
:1019E00075F001020580AF67AE66AD65AC640204B8
:1019F000E1FEE546FDE545FCE47BFF22E4F51DF54F
:101A00001CF51BF51A22120296AB26AA27A928223A
:101A1000AF05AE04AD0322754C01754D00754E67E0
:0B1A200022748A250AF974003509229F
:101F8F00EFC39430400CEFD39439500674D02FFF29
:101F9F008022EFC39441400CEFD394465006EF24B8
:101FAF00C9FF8010EFC39461400AEFD394665004C9
:101FBF00EF24A9FFEF540FC454F0FFEDC39430404A
:101FCF000CEDD39439500674D02DFD801EEDC394C3
:101FDF00414008EDD394465002800CEDC39461400C
:101FEF000AEDD394665004ED24A9FDED540F42077A
:011FFF0022BF
:06270A008B178A188919E3
:102710001219FCE94A4B7005FFFEFDFC221219FC60
:1027200078171219DF12027D601AE51D2401FFE4FB
:10273000351CFEE4351BFDE4351A8F1D8E1C8D1BE8
:0C274000F51A80DCAF1DAE1CAD1BAC1AFE
:01274C00226A
:06292F008B3B8A3C893D50
:102935008B418A428943E94A4B7004FBFAF922E547
:10294500401540AE3F7002153F4E600B784112199D
:0D295500DFED1202C380E8AB3BAA3CA93DB8
:012962002252
:06172A008B1E8A1F8920BE
:101730008B268A27892885212985222A85232BE93A
:101740004A4B6008E5234522452170077B007A005B
:10175000790022D3852A83852B82E5289582E52787
:1017600095834019E52B2525F9E52A3524FA8A8346
:101770008982D3E5289582E52795834032E4F52CCC
:10178000F52DC3E52D9525E52C9524505BAB29AAB5
:101790002AA92B852D82852C83121A06852D8285F8
:1017A0002C831202D5052DE52D70D7052C80D3850D
:1017B000242C85252DD3E52D9400E52C940040287C
:1017C000AB29AA2AA92BE52D24FFFFE52C34FFFE27
:1017D0008F82F583121A068F828E831202D5E52D31
:0E17E000152D70D1152C80CDAB1EAA1FA9208F
:0117EE0022D8
:102963008F678E668D658C6478181204E1EF12020E
:10297300C378101219E6900001EF1202D5780812FD
:1029830019E6900002EF1202D5E567FF900003EF0E
:032993000202D568
:10262D00E4F530F52FF52EF52D12027DFFE48F30F8
:10263D00F52FF52EF52DAE2FAD2EAC2D1219898C53
:10264D002D9000011219708C2D9000021219708CB2
:10265D002D900003120296FFE5304FFFE52FFEE5AA
:0A266D002EFDE52D12198EF52DFC4F
:012677002240
:062C7A00900089E0FF223A
:0C2C3900E4900089F0FDFC7F040223B44D
:062C8000900086E0FF2237
:082595008F588B598A5A895BAB
:10259D001219B3B401037F0122AF05AE04AD581279
:1025AD002C2CAC06E4FD122C2CAC06E55CFD122C9B
:1025BD002CAC06AD5D122C2CAC06AD07AB59AA5A4E
:1025CD00A95B855C1C855D1D1229F91219D8122392
:0325DD00B47F01C7
:0125E00022D8
:02274D008D27D6
:10274F001219B1B401037F0122121A10122781E46A
:10275F00FD122781AD07E5277003FD8006AF05AE9B
:10276F00047D01122C2CAC06AD077F071223B47F1A
:01277F000158
:0E27800022122C2CAC067D01122C2CAC062251
:08213E008F278D288A298B2AC6
:10214600E4FDFCF52B900088E0B401037F0122AF8B
:1021560005AE04E529FD122C2CAC06AD2A122C2C5A
:10216600AC06AD27122190E4FD122190AD07E528BB
:102176007003FD8006AF05AE047D01122C2CAC0663
:09218600AD077FB21223B47F0102
:0E218F0022122C2CAC067D01122C2CAC062248
:082308008F278D288A298B2AFA
:10231000E4FDFCF52B900088E0B401037F0122AFBF
:1023200005AE04E529FD122C2CAD2A122357AD274A
:10233000122C2C7D04122357E4FD122C2CAC067DAC
:1023400001122C2CAC06AD28122C2CAC06AD077F4C
:06235000B21223B47F016C
:0923560022AC06122C2CAC06226C
:101E33001219B1B401037F0122121A10122C2CAC17
:101E4300067D02122C2CAC06E4FD122C2CAC067D74
:101E530004122C2CC006C0077818121995D007D08D
:101E630006122C2CC006C0077810121995D007D083
:101E730006122C2CC006C007AF2EAE2DAD2CAC2BFA
:101E830078081204E1AD07D007D006122C2CAC065B
:101E9300C007E52EFFE4AD07D007122C2C1219D88A
:051EA3001223B47F01D1
:011EA8002217
:021C0C008F2B1C
:101C0E00E4FDFCF532900088E0B401037F0122AFC1
:101C1E0005AE04E530FD122C2CAC06AD31122C2C89
:101C2E00AC06AD2B122C2CAC067D02122C2CAC0665
:101C3E00E4FD122C2CAC067D04122C2CC006C00721
:101C4E0078181219A3D007D006122C2CC006C00784
:101C5E0078101219A3D007D006122C2CC006C0077C
:101C6E00AF2FAE2EAD2DAC2C78081204E1AD07D0FF
:101C7E0007D006122C2CAC06C007E52FFFE4AD07EB
:101C8E00D007122C2CAC06AD077FB21223B47F0105
:011C9E002223
:0825E1008F5E8B5F8A60896147
:1025E9001219B3B401037F0122AF05AE04AD5E1227
:1025F9002C2CAC067D03122C2CAC06E562FD122CAA
:102609002CAC06AD63122C2CAC06AD07AB5FAA60EF
:10261900A96185621C85631D1229F91219D8122333
:03262900B47F017A
:01262C00228B
:0228F9008D2729
:1028FB001219B1B401037F0122121A10122C2CAC45
:10290B00067D04122C2CAC06E4FD122C2CAC067D9F
:10291B0001122C2CAC06AD27122C2C1219D8122319
:03292B00B47F0175
:01292E002286
:0217EF00AD0744
:1017F100E4F549F54A900088E0B401037F01221223
:1018010018907D051218A8E4FD1218A874FFFFE5D1
:10181100471219F1FAF9F8C31204D070097D0112C7
:101821001890AD48803D74FFFF1219F17AFFF9F865
:10183100C31204D070047D0280197D0412189C78B3
:1018410018121877AF48AE47AD46AC457810120470
:10185100E1AD0712189C7808121877E548FFE4AD4E
:1018610007AF4A122C2C8E498F4AAD4AAC497F07EB
:051871001223B47F0109
:1018760022AF48AE47AD46AC451204E1AD07AF4ACC
:10188600AE49122C2C8E498F4A22AF4AAE49122CF1
:101896002C8E498F4A22AF4AAE49122C2C8E498F84
:0A18A6004A22122C2C8E498F4A2290
:082C50008C278D2812027DFF84
:012C58002259
:082C59008C278D2812027DFF7B
:012C61002250
:072C62008C2B8D2C12262D96
:012C69002248
:102678008F3AD31219BB4015E54E9551FFE54D959C
:1026880050FEC3EF941FEE64809480502DC312193E
:10269800BB500DC3E551954EFFE550954D4F601A5F
:1026A800C39000861219C140077A007967121A1779
:0B26B800784C1219DFE53A1202C32231
:10111F00E4F509F50AF50BF50CC3E5699423E568C9
:10112F0094005024122B4EEFD39400401B12278EA5
:10113F000569E569AC687002056814248AF5827444
:10114F00003CF583EFF080D1C3E5699407E568941F
:10115F0000500302127F1219CA9407EE9400500335
:10116F0002124E748A250AF58274003509F583E060
:10117F006455600A050AE50A70DC050980D8748B8E
:10118F00250AF58274003509F583E064AA600A0523
:10119F000AE50A70C1050980BD748C250AF58274B1
:1011AF00003509F583E0600474028038748E250AD7
:1011BF00F58274003509F583E0FE748F250AF582F8
:1011CF0074003509F583E07C002400FFEC3ECF244A
:1011DF0007F50CE43FF50BD3E50C942AE50B9400CF
:1011EF0040097403250AF50AE4804D1219CA950CBB
:1011FF00EE950B404A121A21FA7B01E50C24FFFDF4
:10120F00E50B34FFFC122AA4E50A250CFDE5093590
:10121F000BFC74892DF58274003CF583E06F600937
:10122F007403250AF50AE4800FAF0AAE09120AC546
:10123F00E50C250AF50AE50B3509F509021165C319
:10124F00E569950AF569E5689509F568D3E5699447
:10125F0000E56894004019121A21752101F52289C1
:10126F00238568248569257B017A00798A12172ADC
:01127F00224C
:102BEC00121A17754F017550007551679000867455
:032BFC00FFF022C5
:10138800018B00048700000000603400CC010103D9
:10139800020402650466026701680269027101724B
:1013A8000173017402750176047704780479027A6E
:1013B80001820483048404850486048704880489DC
:0113C8000420
:10235F00AB1EAA1FA920AD22AC212225E0246EF8C6
:10236F00E6FA08E6FB4A22E0FFE48F2EF52DF52C66
:10237F00F52B22900025E0FEA3E0FFE48F2E8E2D9B
:10238F00F52CF52B22FFE48F2F8E2EF52DF52C8AB1
:10239F00308B3122E0FFE4FCFDFEC30204D07883D2
:0523AF00E6FE08E62235
:0D2C1F00E4FDFC7F041223B4786A760122E4
:102B6C00E4FEEF7004FFFD8006EEFF7E007D011297
:0D2B7C002C2CAE07EEFD7C007FB10223B4CF
:03001E00022C456C
:101510007D017F0112163B9000157F711215F3902B
:10152000002F1223767F03121600900064E0FFB4B0
:10153000FF05E4F516801EEFB4C805751602801588
:10154000EFB42805751603800CEFB4140575160466
:101550008003751605AD167F65121646900032128F
:1015600023857F661216009000247F671215F39082
:1015700000271223767F6812160BE47B107A27F976
:10158000F890001012051312041AC374329F12232C
:10159000777F6912160B786DE6FD7F7212163B900D
:1015A000000A1223767F041216309000147F731203
:1015B00016161223827F7412163090005E7F761208
:1015C00016239000307F771216237D017F78121644
:1015D000461223AD1223897F79121E337F647E0069
:1015E000122A559000397F7A121616E4FDFC7FB45A
:0315F0000223B41F
:1015F300E0FD12274D7F647E00122A5522121E330E
:101603007F647E00122A5522121E337F647E0012ED
:101613002A5522E0FD12274D7F647E00122A5522AF
:10162300E0FD1228F97F647E00122A5522121E3330
:101633007F647E00122A552212274D7F647E00129A
:0E1643002A55221228F97F647E00122A5522B1
:102BFF00122C508F257D017F0112274D8F247F02CC
:012C0F0022A2
:101EA900E4F529122C628F278E268D258C2490002B
:101EB9002FAB27AA26A925A8241223A370057529C3
:101EC90001802D786DE66028E4F528E52812236A5B
:101ED900601585272F85262E85252D85242C8A306A
:101EE9008B317F03121C0C0528E528C3940840DBBD
:101EF900AF2790002FEFF0FE900038F01223787F83
:101F090003121E33BF010AE52960037F02227F0104
:031F1900227F0024
:011F1C0022A2
:10206F00E4F527122C628F2590000AE0B52505753F
:10207F0027018026786DE66021E4F526E5261223F8
:10208F006A600EE485252FF52E12239A7F04121C09
:10209F000C0526E526C3940840E290000AE525F0DA
:1020AF001223767F04121E338F24E4FF1222B19085
:1020BF000038E0FF1222B1E524B4010AE5276003DE
:0820CF007F02227F01227F0045
:0120D70022E6
:101D2B00E4F526122C598F24E524788B6670057503
:101D3B002601801F786DE6601AE4F525E525122350
:101D4B006A6007AD247F651223080525E525C3943A
:101D5B000840E9E52414601014601514601A14602F
:101D6B001F1460242405702890006474FFF08020F9
:101D7B0090006474C8F080189000647428F0801090
:101D8B009000647414F08008900031E0900064F0CF
:101D9B00788BA624AD247F651228F9BF010AE526AE
:0A1DAB0060037F02227F01227F0007
:011DB500220B
:101DB600E4F529122C628F278E268D258C2490001F
:101DC60032E0FEA3E0FFE4FCFDAB27AA26A925A886
:101DD60024C31204D07005752901802D786DE66044
:101DE60028E4F528E52812236A601585272F85261D
:101DF6002E85252D85242C8A308B317F66121C0C6E
:101E06000528E528C3940840DBAE26AF27900032AC
:101E1600EEF0A3EFF012238A7F66121E33BF010A8B
:0C1E2600E52960037F02227F01227F007B
:011E3200228D
:1024A800E4F526122C508F24900024E0B5240575FD
:1024B8002601801F786DE6601AE4F525E5251223CC
:1024C8006A6007AD247F6712213E0525E525C39480
:1024D8000840E9900024E524F0FD7F6712274DBFEE
:0E24E800010AE52660037F02227F01227F00A9
:0124F60022C3
:10200000E4F529122C628F278E268D258C249000D2
:1020100027AB27AA26A925A8241223A37005752972
:1020200001802D786DE66028E4F528E52812236A02
:10203000601585272F85262E85252D85242C8A3011
:102040008B317F68121C0C0528E528C3940840DBFF
:10205000AF27900027EFF01223787F68121E33BF5E
:0E206000010AE52960037F02227F01227F0032
:01206E00224F
:101A2B00E4F529122C628F278E268D258C2478873E
:101A3B00120507AB27AA26A925A824C31204D07028
:101A4B0005752901802D786DE66028E4F528E528D9
:101A5B0012236A601585272F85262E85252D852433
:101A6B002C8A308B317F69121C0C0528E528C39416
:101A7B000840DBAF27AE26AD25AC24788712052BAB
:101A8B00C374329527FFE49526FEE49525FDE49576
:101A9B0024FCE47B107A27F9F812038F90001012C4
:101AAB00053778871205078F2E8E2D8D2C8C2B7F6B
:101ABB0069121E33BF010AE52960037F02227F01F1
:031ACB00227F0077
:011ACE0022F5
:1024F700E4F526122C508F24900015E0B5240575BD
:102507002601801F786DE6601AE4F525E52512237C
:102517006A6007AD247F7112213E0525E525C39426
:102527000840E9900015E524F0FD7F7112274DBFA3
:0E253700010AE52660037F02227F01227F0059
:012545002273
:10240700122C508F24786DE6FF6524601DEF601A4B
:10241700E4F525E52512236A6007AD247F721221B2
:102427003E0525E525C3940840E9786DA624AF2429
:10243700122B6C786DE66008E4FDFC7FB41223B4C0
:10244700786DE6FD7F7212274DBF01037F01227F62
:012457000084
:012458002261
:10254600E4F526122C508F24900014E0B52405756E
:102556002601801F786DE6601AE4F525E52512232D
:102566006A6007AD247F7312213E0525E525C394D5
:102576000840E9900014E524F0FD7F7312274DBF53
:0E258600010AE52660037F02227F01227F000A
:012594002224
:1027CE00122C50EF6036E4900025F0A3F0786DE601
:1027DE006022E4F524E52412236A600F900025E0C0
:1027EE00FEA3E01223947F74121C0C0524E524C36F
:0E27FE00940840E11223827F74121E337F0282
:01280C0022A9
:102A2800122C59AD07ED701B786BE6B40104E4F67F
:102A38008011900065E4F0A304F090003704F09052
:0C2A48000030F07F781228F98F247F0204
:012A5400225F
:1020D800E4F52A122C628F288E278D268C25122350
:1020E800ADFFE4FCFDAB28AA27A926A825C3120446
:1020F800D07005752A018023786DE6601EE4F52905
:10210800E52912236A600B1223AD1223947F7912FA
:102118001C0C0529E529C3940840E5AF287883A657
:102128002708A607E524B4010AE52A60037F0222EE
:052138007F01227F0081
:01213D00227F
:10000300122C50EF60069000397401F0E4FD7F7A02
:0700130012274D8F247F022C
:01001A0022C3
:061651008B1E8A1F892098
:10165700EF120590168C0116970316A20416AD65B6
:1016670016B86616C36716CE6816D96916E37116DB
:10167700ED7216F773170175170B78171579171F82
:101687007A0000172712235F122BFF8F23021727D9
:1016970012235F121EA98F2302172712235F12201E
:1016A7006F8F2302172712235F121D2B8F23021719
:1016B7002712235F121DB68F2302172712235F12EB
:1016C70024A88F2302172712235F1220008F2302DB
:1016D700172712235F121A2B8F23804412235F12BE
:1016E70024F78F23803A12235F1224078F23803039
:1016F70012235F1225468F23802612235F1227CEDF
:101707008F23801C12235F122A288F238012122313
:101717005F1220D88F23800812235F1200038F23C4
:02172700AF23EE
:01172900229D
:032C86007F1A2290
:0F2C1000386C6D786E6C676700312E302E300097
:0313C900014B00D5
:101F1D00748E250EF5827400350DF583E075140071
:101F2D00F513748F250EF5827400350DF583E025BC
:101F3D0014F514E43513F51322350DF583E0F8E4AB
:101F4D0022E026F618E436F6227490250EF58274FA
:101F5D0000350DF583E02212051378101204E1AD62
:101F6D00072212051378081204E1AD072274B32F6E
:101F7D00F974003EFA7B0122E475F001120580022E
:021F8D00027DD3
:101B7100E4FFFE90004BE0C4F854F0C8A3E0C45465
:101B81000F48FD122C2C7E00900031E0FD122C2C10
:101B91007E00C006C007900018121F64D007D0064F
:101BA100122C2C7E00C006C007900018121F6FD0A7
:101BB10007D006122C2C7E00C006C0079000201210
:101BC1001F64D007D006122C2C7E00C006C00790DF
:101BD1000020121F6FD007D006122C2C7E00C006E9
:101BE100C007900010121F64D007D006122C2C7E63
:101BF10000C006C007900010121F6FD007D0061258
:0B1C01002C2CEFFD7C007FC00223B400
:082C6A00E4FDFC7FC10223B46C
:0C2C2C00121F7AED1202C30FBF00010E50
:012C38002279
:0A29F9008E178F188B198A1A891B9C
:102A0300121F7A851921851A22851B23851C24858B
:102A13001D2512172AE51D2518F518E51C3517F590
:042A230017FEAF18D3
:012A2700228C
:10284A008B358A3689378C388D39E94A4B602DE5C4
:10285A003945386027E5391539AE38700215384ED2
:10286A00601AAB35AA36A93712027DFF12001E7410
:0D287A00012537F537E43536F53680D922D3
:0A2AA4008B358A3689378C388D395E
:102AAE00E4FFFDFCC3ED9539EC9538500E783512E8
:0B2ABE001F852FFF0DBD00010C80E9FB
:012AC90022EA
:0423B4008C338D34A5
:1023B8009000AD7455F0A374AAF0E4A3F0A3EFF075
:1023C800E533A3F0E534A3F02407F534E43533F519
:1023D800337B017A0079ADE53424FFFDE53334FF22
:1023E800FC122AA474AC2534F58274003533F583C5
:0F23F800EFF07B017A0079ADAD34AC3302284AA7
:102B1000E4FFE54B700AFEFD122C2C754B0180077B
:102B20007E007D01122C2CEFFD7C00E4FF0223B41B
:10288700E4F5167A2C79101228B37A2C79101229CC
:10289700F98F167A2C79191228B37A2C79191229FB
:0C28A700F98F16EFFD7C007F010223B4C6
:1028B3007BFF12270A8E1C8F1DAF167E007BFF2223
:082C7200E4FDFC7F020223B423
:022AEF008F1D39
:102AF100122C86E4FEEEC39F501275F002EE900098
:0E2B0100CC120574E0651D60030E80E9AF067E
:012B0F0022A3
:062256008B168A1789189F
:10225C0012027DF519900001120296F51A900002F7
:10226C00120296751C00F51B900003120296251C99
:10227C00F51CE4351BF51BAF19122AEF75F002EFB4
:10228C009000CD120574E0651A60037F0022AB1636
:10229C00E5182404F9E43517FA851B21851C22AFB7
:0422AC00191216519C
:0122B000220B
:040AC5008E0D8F0EF5
:100AC900748D2FF58274003EF583E0FF1205900BBB
:100AD90011000B14010B17020B1A030B37040B3E01
:100AE900060D62080AFDB10BB4B40B0BC00B0EC1A5
:100AF90000000D65121F566003020D65FDFC7FB4F1
:100B09008029021B71022C6A022B10022887022CF1
:100B190072121F56FF900086F0BF020AE4786AF647
:100B2900121ACF121510E4FDFC7F030223B49000C2
:100B3900897401F022121F1DE4F511F512C3E512A3
:100B49009514E51195134003020D65E50E2512FD77
:100B5900E50D3511FC74922DF58274003CF583E0A6
:100B6900751000F50F74932DF58274003CF583E040
:100B79002510F510E4350FF50F7490250EF9740062
:100B8900350DFA7B01E92512F9EA3511FA122256D7
:100B9900BF0103121ACFE5102404FFE4350FFEEF5D
:100BA9002512F512EE3511F5118092121F1D121F33
:100BB90056F5157491250EF5827400121F46796F4A
:100BC900F7E819F77492250EF5827400350DF5834F
:100BD900786F121F4E7493250EF5827400121F460A
:100BE9007971F7E819F77494250EF5827400350DBB
:100BF900F5837871121F4E7495250EF582740012D3
:100C09001F467973F7E819F77496250EF582740073
:100C1900350DF583E07873121F4F7497250EF58211
:100C29007400121F467975F7E819F77498250EF5BF
:100C3900827400350DF583E07875121F4F7499257C
:100C49000EF5827400121F467977F7E819F7749A3E
:100C5900250EF5827400350DF583E07877121F4F64
:100C6900749B250EF5827400121F467979F7E819ED
:100C7900F7749C250EF5827400350DF583E07879BB
:100C8900121F4F749D250EF5827400121F46797B41
:100C9900F7E819F7749E250EF5827400350DF58372
:100CA900E0787B121F4F749F250EF5827400121F86
:100CB90046797DF7E819F774A0250EF58274003599
:100CC9000DF583E0787D121F4F786FE618466004B2
:100CD9007D018002E4FD7F821228F97871E61846C9
:100CE90060047D018002E4FD7F831228F97873E6B0
:100CF900184660047D018002E4FD7F841228F9789A
:100D090075E6184660047D018002E4FD7F8512289E
:100D1900F97877E6184660047D018002E4FD7F8654
:100D29001228F97879E6184660047D018002E4FD0D
:100D39007F871228F9787BE6184660047D018002D6
:100D4900E4FD7F881228F9787DE6184660047D0164
:0C0D59008002E4FD7F890228F9121510C9
:010D6500226B
:102B4E00E54F855083855182654C700AE54E65824E
:0E2B5E007004E54D658360037F01227F002235
:10278E00AB4FAA50A951E54C854D83854E82654FBE
:10279E00700AE55165827004E55065836021C3902F
:1027AE000086E5519582E5509583400D7A00796754
:0F27BE00754F01755000755167784F121F85FFD9
:0127CD0022E9
:10002600020268E86480F8E933E83360110460F09E
:10003600ED33EC337009E8FCE9FDEAFEEBFF220440
:1000460060DED3EB9FEA9EE99DE8C2E78CF0C2F73B
:1000560095F0400CE8CCF8E9CDF9EACEFAEBCFFB07
:1000660012023385D0F05804700320D5B3E804702B
:10007600075002B2D502027292D5EC0460F7E4CCC6
:10008600C0E0C398F8603B94186008400DD0E0FBD0
:1000960002024AE4FBFAC9FC8028E830E406E4C917
:1000A600FBE4CAFCE830E305E4C9CACBFCE8540724
:1000B6006010F8C3E913F9EA13FAEB13FBEC13FC2F
:1000C600D8F130F52FC3E49CFCEF9BFFEE9AFEEDD2
:1000D60099FDD0E0FBEF4E4D4C701222DB0302027D
:1000E6006FEC2CFCEF33FFEE33FEED33FDED30E726
:1000F600EB02024AEF2BFFEE3AFEED39FDD0E0FBB4
:1001060050130BBB0003020272ED13FDEE13FEEF5C
:0801160013FFEC13FC02024A86
:10011E00020272EC5D046005E85904700302026885
:10012E00120233580460F6EC4860F2EC7004FDFEE7
:10013E00FF22C860DB2481C85009C39860025006B4
:10014E0002026F9850CAF582E9294B4A7005AB82BC
:10015E0002025E75F0007C1A7880C3EF9BEE9AED7A
:10016E0099400DC3EF9BFFEE9AFEED99FDE842F02C
:10017E00DC23ACF0D0E0FFD0E0FED0E0FDAB82207F
:10018E00E7101BEB60BAEC2CFCEF33FFEE33FEED09
:10019E0033FD02024AE803F830E705C0F075F000BF
:1001AE00EF2FFFEE33FEED33FD40B830E7C280AAED
:1001BE0075F020800E75F010800575F0087D007EBC
:1001CE00007F003392D530D5031204ACEC334010CF
:1001DE00EF33FFEE33FEED33FDEC33FCD5F0ED22C5
:0E01EE00E5F0247EA2D513CC92E7CDCEFF2201
:1001FC00EDD2E7CD33EC3392D524814006E4FFFEFB
:10020C00FDFC22FCE4CFCECDCC24E0501174FF8059
:10021C00EDC3CC13CCCD13CDCE13CECF13CF0470F6
:07022C00F030D5DE0204AC46
:10023300E9D2E7C933E833F892D5EDD2E7CD33EC11
:0702430033FC5002B2D5228A
:10024A00EC30E7100FBF000C0EBE00080DBD000415
:10025A000BEB6014A2D5EB13FCED92E7FD2274FFC1
:10026A00FCFDFEFF22E480F8A2D574FF13FC7D801A
:03027A00E480EF2E
:101CAB00020D66E493A3F8E493A34003F68001F2DC
:101CBB0008DFF48029E493A3F85407240CC8C3333A
:101CCB00C4540F4420C8834004F456800146F6DF09
:101CDB00E4800B0102040810204080901280E47E07
:101CEB00019360BCA3FF543F30E509541FFEE493FE
:101CFB00A360010ECF54C025E060A840B8E493A3C5
:101D0B00FAE493A3F8E493A3C8C582C8CAC583CAEF
:101D1B00F0A3C8C582C8CAC583CADFE9DEE780BEA7
:0113CC000020
:10027D00BB010689828A83E0225002E722BBFE027F
:09028D00E32289828A83E49322B2
:10029600BB010CE58229F582E5833AF583E022501D
:1002A60006E92582F8E622BBFE06E92582F8E22267
:0D02B600E58229F582E5833AF583E4932281
:1002C300BB010689828A83F0225002F722BBFE011A
:0202D300F32214
:1002D500F8BB010DE58229F582E5833AF583E8F05F
:1002E500225006E92582C8F622BBFE05E92582C80B
:0202F500F222F3
:1002F700EF8DF0A4A8F0CF8CF0A428CE8DF0A42E1B
:02030700FE22D4
:10030900BC000BBE0029EF8DF084FFADF022E4CCD8
:10031900F875F008EF2FFFEE33FEEC33FCEE9DECA1
:10032900984005FCEE9DFE0FD5F0E9E4CEFD22EDE7
:10033900F8F5F0EE8420D21CFEADF075F008EF2F31
:10034900FFED33FD4007985006D5F0F222C398FD22
:050359000FD5F0EA22BF
:10035E00C5F0F8A3E028F0C5F0F8E582158270022A
:06036E001583E038F022C7
:0D037400EF2BFFEE3AFEED39FDEC38FC22D8
:0E038100C3EF9BFFEE9AFEED99FDEC98FC2277
:10038F00E88FF0A4CC8BF0A42CFCE98EF0A42CFC0D
:10039F008AF0EDA42CFCEA8EF0A4CDA8F08BF0A48B
:1003AF002DCC3825F0FDE98FF0A42CCD35F0FCEBEA
:1003BF008EF0A4FEA9F0EB8FF0A4CFC5F02ECD39AF
:0F03CF00FEE43CFCEAA42DCE35F0FDE43CFC221C
:1003DE0075F008758200EF2FFFEE33FECD33CDCCD6
:1003EE0033CCC58233C5829BED9AEC99E582984059
:1003FE000CF582EE9BFEED9AFDEC99FC0FD5F0D636
:10040E00E4CEFBE4CDFAE4CCF9A88222B800C1B95F
:10041E000059BA002DEC8BF084CFCECDFCE5F0CB9D
:10042E00F97818EF2FFFEE33FEED33FDEC33FCEBD6
:10043E0033FB10D703994004EB99FB0FD8E5E4F991
:10044E00FA227818EF2FFFEE33FEED33FDEC33FC7E
:10045E00C933C910D7059BE99A4007EC9BFCE99A72
:10046E00F90FD8E0E4C9FAE4CCFB2275F010EF2FB7
:10047E00FFEE33FEED33FDCC33CCC833C810D707B7
:10048E009BEC9AE899400AED9BFDEC9AFCE899F8F2
:0E049E000FD5F0DAE4CDFBE4CCFAE4C8F92285
:0E04AC00C3E49FFFE49EFEE49DFDE49CFC2261
:1004BA00EB9FF5F0EA9E42F0E99D42F0EC6480C8B9
:0604CA0064809845F02259
:1004D000EB9FF5F0EA9E42F0E99D42F0E89C45F082
:0104E00022F9
:1004E100E8600FECC313FCED13FDEE13FEEF13FFF9
:0304F100D8F1221D
:1004F400E8600FEFC333FFEE33FEED33FDEC33FC66
:03050400D8F12209
:0C050700E6FC08E6FD08E6FE08E6FF2220
:0C051300E0FCA3E0FDA3E0FEA3E0FF225B
:0C051F00E0F8A3E0F9A3E0FAA3E0FB225F
:0C052B00ECF608EDF608EEF608EFF622FC
:0C053700ECF0A3EDF0A3EEF0A3EFF02237
:10054300A8828583F0D083D08212055A12055A12ED
:10055300055A12055AE473E493A3C583C5F0C58312
:10056300C8C582C8F0A3C583C5F0C583C8C582C802
:010573002265
:0C057400A42582F582E5F03583F5832292
:10058000FAE6FB0808E6F925F0F618E6CA3AF6227C
:10059000D083D082F8E4937012740193700DA3A3FA
:1005A00093F8740193F5828883E47374029368600E
:0605B000EFA3A3A380DF0E
:00000001FF
