:03000000021C10CF
:0C1C1000787FE4F6D8FD758185021C5732
:10126F00045000000000410006004100420C410004
:10127F004340440039000000004400180000000003
:10128F0044001C0000000044005F00000000440008
:10129F0049000000004400650000000042002D00DE
:1012AF0001420016000041000D00410037004200CE
:1012BF006A000042000E0000410000084100450096
:1012CF000154000155004100150041002401410067
:1012DF002F0A410048004100440A410036004100F6
:1012EF00380042000B000041000200027F000002A4
:1012FF007D0000106C0000000000000000000000E6
:10130F000000000000016B00016A0001680041004D
:10131F000A0041000700410014004200250000426E
:10132F00003400004100630041000300420004004C
:10133F00004100010041002C0041003000410041FC
:10134F0000017C00016900420046000050004F0080
:10135F00000000000000000000000000000000423C
:04136F000008000072
:1013B600EF24A0FFEE340FFEE43DFDE43CFC1205F5
:1013C6001FD30204D0E4900045F09000437440F02F
:1013D6009000377402F09000007406F0E490000666
:1013E600F090005F22900018120513900039120544
:1013F6001F12037490001812053790001802051387
:1014060090003912051FC30204D0E4FCFD120374D8
:1014160090006502053790003D120513EF2470FF1A
:10142600EE3417FEE43DFDE43CFC90001822122A3F
:1014360038E47BE87A03F9F8900010020513E475A6
:10144600F00102035E900043E0FF900006E0C39FB8
:1014560022D390002EE0940090002DE094002212FA
:10146600051390001C12051F0203741202F7AC0646
:10147600AD07E41201C3E4FBFA79C8784202012100
:101486007F647E00022A38900010020537900039EA
:10149600020513E4FFFEFD7C3F12002D0201FCD382
:1014A60090006BE0940090006AE094002290002F78
:1014B600E0900044F0227F0A1226A4900031EFF05B
:1014C60090006422F0900049020513900065020521
:1014D6001FD39DEC6480F874809822E47B02FAF9AD
:1014E600F802041A90001802051F7E2F1229707F39
:0414F600107E27221B
:102869008E098F0A8B0B8A0C890DAF051DEF60212C
:10287900050AE50AAE097002050914F5828E83E49A
:1028890093FF780BE475F001120580EF1202C38003
:02289900D92242
:1028FB008F828E83E4F553F552F551F550AF82AECE
:10290B0083E4FCFDAB53AA52A951A850C31204D0C7
:08291B00500543BD1080E622C7
:092A2F00E0FF7C2F1229237F64D3
:102A3800E4FDFCC3ED9FEC9E50070DBD00010C802A
:012A4800F29B
:012A4900226A
:10000300758E5190FE917401F0A37410F075BD5F6D
:0700130090FEA07420F02212
:1029D600E490FE80F0758901758DFA758BCB43A85E
:0E29E60008438840758CCB758AEB438810221D
:10289B0090FF10E054F04408F090FF02E054F04435
:1028AB0002F0D28490FFA07420F0A37404F075CCD6
:1028BB000675CEFF75CD98759E0275981043A810BE
:0128CB0022EA
:102A640043B40343B4807F147E00122A3875B50141
:072A740090FE9B744BF02261
:102A4A0090FF08E04488F090FF00E0540F4430F013
:0A2A5A0090FF11E054F04403F02255
:0B2ADA008F99E59830E1FB5398FD2236
:1026A4008FB543B440E5B430E5FB53B4DF12148670
:1026B400E4FBFAF943B440E5B430E5FB53B4DFE599
:1026C400B62BFBE5B73AFA7F147E00122A3809B913
:0C26D40010E275B501A902121486AF01D6
:0126E00022D7
:100F98007B017A00794F7D107F007E2F122869909F
:100FA800004FE0FFE4FCFDFE12148D12143E780899
:100FB8001204F412148D90001012051F900050E0D6
:100FC800FFE4FCFDFE12037412148D12143EE47B40
:100FD800E87A03F9F812038F12148DE47F307E75D6
:100FE800FDFC90001012140940107F007E097D3D21
:100FF8007C009000101213C4400A900010120543A0
:1010080000009C40900051E0900069F07002800759
:10101800900069E0B4FE0374FFF0900052E0FF9086
:101028000032E4F0A3EFF0E0F8E4F0E8900032F0EA
:10103800900053E0FF900032E48FF012035E9000BE
:1010480032E0FEA3E0FF4E6009D3EF9408EE940768
:101058004009900032E4F0A37405F0900054E09049
:10106800002FF0900038F0900055E0900027F060D5
:1010780006E0D394FF40069000277401F0900056D4
:10108800E0F45401900024F0900057E05401786B8C
:10109800F6A3E05401900015F0900059E054019037
:1010A8000014F090005AE090000AF07B017A007971
:1010B800087D027F807E2F122869900008E090004A
:1010C80036F0900009E0900007F07F807E2F12290B
:1010D800707F107E27122A38900036E004F0E0FF77
:1010E8007D807C2F122923121486900007E070035C
:1010F800022AB4900007E0FFB4010A7D817C2F1218
:06110800292312148622C7
:1005B600E5546003020A8D43B440E5B430E5FB53CD
:1005C600B4DF85B70985B60A9000161214441214D2
:1005D600D1AE09AF0A12141090004DE0FEA3E0FF61
:1005E600C3950AEE9509500DC3E50A9FF50AE5097C
:1005F6009EF509800BC3EF950AF50AEE9509F509F4
:1006060090001C12051FAE09AF0AE4FCFD1203742C
:1006160090001C120537900016E05401FEA3E04E30
:1006260070521214A54017900044E09464503DE0C7
:100636002402F0E0D3946440337464F0802E90007A
:100646000EE07004A3E06401702A90002FE0FF9092
:100656000044E0FED39F4014EE94024004E024FEE2
:10066600F0900044E0C39F50031214B3900044E09E
:10067600FF122034C3900016E094205003020ABCF7
:1006860043BD10E4F0A3F0900045E0041214CA90B4
:10069600006512146B900049120537900045E0C3BF
:1006A60094084030E41214CA78101204E19000490C
:1006B6001205371214CB90004DEE8FF012035E90A8
:1006C600004DE0C313F0A3E013F090004912054378
:1006D60000000000900000E0C394085005E004F01C
:1006E600804090006AE07002A3E070361214BCE00D
:1006F600FE2402FDE433FCEF1214D75018900031AB
:10070600E02402FDE433FCEE1214D7500890006496
:10071600E0900031F0900031E0900064F0E4900049
:1007260000F0E4FFFEFDFC900018121409703690EC
:10073600001C120513EF2488FFEE3413121429123D
:10074600053790002DE07002A3E070197F407E42CD
:100756007D0FFC9000181213C4400A900018120571
:1007660043000F4240900006E0701690001C1205F0
:100776001390003912053790002812054300000037
:1007860001900028121465121406400302093B90DA
:10079600002812051390003912146B90001C1214D5
:1007A60009400302093B900006E004F090005F1246
:1007B600146590005F120537900006E0FFFBE4FA2F
:1007C600F9F890005F12051312041A900039120509
:1007D6003712149378031204E1900028120537E4C7
:1007E6007F207E4EFDFC900028121409500A9000CE
:1007F6002812054300004E20E47F607EEAFDFC904F
:1008060000281213C4400A9000281205430000EA8B
:10081600601214939000181213C4403E90003912CF
:10082600051F1214001203811214167F807E387D74
:10083600017C009000651213C440089000427406C3
:10084600F0801DE47F407E9CFDFC9000651213C481
:1008560090004240087409F08006900042740CF043
:1008660090004212144E403B1214001214065033EC
:10087600900043E09410500302094A900042E0D3EE
:1008860094095005121493801112149390001812B3
:1008960013B6400C1213EB1214E190001812053730
:1008A60002093B12144B500302094A12140090002D
:1008B600391213B640771214EA12149312038112F6
:1008C60014167F007E127D7A7C00121406505E7F1D
:1008D600807E1A7D067C00900065121409504E90A9
:1008E6000043E09410400280387FE07E937D047CD4
:1008F600009000651213C440089000437410F08005
:100906001B7FF07E497D027C009000651213C49027
:1009160000434005740CF080037408F012144B4039
:100926000C1213EB1214E190001812053712144B37
:100936004012E48004E4900006F090005F12054344
:1009460000000000900037E0D394004036E014F039
:1009560012141C1213C45003020A4990003D1205DA
:1009660013EF2498FFEE343AFEE43DFDE43CFC90A0
:10097600001C1214094003020A4912141C120537FE
:10098600020A49121457405774FFF5F012035E121B
:100996001457404B7F007E127D7A7C00900018121F
:1009A60013C4400C900010120543000C3500802F34
:1009B60012143E1214EA1214137F407E547D897C71
:1009C600009000651213C440161214EAC374409BCB
:1009D600FF74549AFE748999FDE498FC12148D12E2
:1009E600143E90001812146B90001C1213C440534E
:1009F600900069E0FF900031E0D39F400512145744
:100A0600404190006AE07002A3E070091214009061
:100A1600003D12053790006AE4F0A304F0786AF608
:100A260090002512144490002C7401F09000437439
:100A360008F0E490000EF0A3F0787FF608F6787DD3
:100A4600F608F69000651205430000000090001CB1
:100A56001205430000000090006AE0FEA3E0FFD309
:100A66009400EE9400404F900032E0FCA3E0FDD3EA
:100A7600EF9DEE9C4040E490006AF0A3F0755401AF
:100A8600786AF67868F62290000EE4F0A304F0E4A3
:100A9600F55490000BF0A3F0900002F07FFAFE12DE
:100AA60028FB900049120543000000001213CB12E8
:060AB600054300000000F2
:010ABC002217
:10209400E4F50A90006512054300000000E4F50928
:1020A40043B440E5B430E5FB53B4DF1214D1AFB60A
:1020B400AEB71214100509E509B480E47F907E01DF
:1020C4001228FB900065120513780B1204E18F09A6
:1020D400E509D3940C400CE509948D5006E50A9467
:0D20E40014500A050AE50AD3945040A722C3
:0120F10022CC
:1021500090006512054300000000E4F509E4F50C69
:10216000F50D43B440E5B430E5FB53B4DF85B70A61
:1021700085B60B1214D1AE0AAF0B121410050DE583
:102180000D7002050CB400DAE50CB420D543BD1087
:102190000509E509B408C690006512051378101208
:0A21A00004E190004DEEF0A3EFF013
:0121AA002212
:10230700BF0105E4FCFD802E7E007C017DFF1202EB
:10231700F71C7D64120309AC06AD07E41201C38FF5
:102327002B8E2A8D298C28AB2BAA2AA929A82812FB
:102337001499AC06AD0790FF907411F075DA01752A
:0E234700E30175E2FF8CE58DE475E10F7F0088
:012355002265
:10279600BF0104E4FE801E7E007C007DFF121471E2
:1027A6008F2B8E2A8D298C28AB2BAA2AA929A828FB
:1027B600121499AE0790FF9C7410F075DEFF8EDF41
:0527C60075DD947F00A9
:0127CB0022EB
:022034008F26F5
:10203600787CE6B526037F0022787CA626E5267006
:1020460006900063048016E526B4640CE4900063F1
:10205600F090003004F0800B9000637402F0E4907E
:102066000030F0E526FD7C0090000AE0FF7E0012BD
:102076001471E4FBFAF9783F12149F8F27C3E52603
:0D2086009527FF122307AF271227967F0032
:01209300222A
:100D6C00122A92120003122A4A1229D612289B1216
:100D7C002A6475BBAA90FEA774FFF053BBF7D2AFE1
:100D8C007FC87E001228FB1214BCF0C2AF120F9861
:100D9C007F64122034D2AF12209490002FE0FF9089
:100DAC000044F01220347F2C7E011228FB122150BB
:100DBC0090006512054300000000900036E0D394CB
:100DCC00034005E4F0122AB47869E660237F6412CC
:100DDC000F8DE4FF120F8D900046121444C3900047
:100DEC0047E0942C900046E094014004E47869F6C6
:100DFC00900003E0FF900063E0FD6F600D7F7612C2
:100E0C0027CC900063E0900003F0900041E0FF904D
:100E1C000030E0FD6F600D7F771227CC900030E042
:100E2C00900041F0900001E06401704190002CE0D2
:100E3C00B4013AE4900001F090002CF0900025E011
:100E4C00FEA3E0FF900034E06E7003A3E06F601D22
:100E5C00E48F2D8E2CF52BF52A7F74121E0C90002E
:100E6C0025E0FFA3E0900034CFF0A3EFF043BD10DA
:100E7C00E554700B900017E0541F700312110E9084
:100E8C000024E064016003020F58E555701CF55412
:100E9C007555011214B3900049120543000000006F
:100EAC001213CB120543000000001205B6D39000BC
:100EBC000FE0940090000EE094004033900002E0AC
:100ECC00B4012CE4F090000E121445900027E0FFC2
:100EDC00C390000FE09F90000EE094004011E4F0EE
:100EEC00A3F0900014E064016005E4FF12203412BA
:100EFC0014A5400F787EE6640118467006F608F6D5
:100F0C00121445786BE664016003020DC618E6FF07
:100F1C007868667003020DC6A60790006AE4F0A319
:100F2C0004F0E4F508E508C394084003020DC6E597
:100F3C000825E0246CF8E6FA08E6FB4A600A900003
:100F4C0015E0FD7F71121C9C050880D9E4F55590C5
:100F5C000015E07007FF122034020DC6900038E037
:100F6C00FF122034E4F5541214B3900049120543D7
:100F7C00000000001213CB12054300000000020D0C
:010F8C00C69E
:0B0F8D001220347F647E001228FB223B
:03001B0002181AAE
:10181A00C0E0C0F0C083C082C0D075D000C000C094
:10182A0001C002C003C004C005C006C007AF53AE62
:10183A0052AD51AC50EF2401FFE43EFEE43DFDE41D
:10184A003C8F538E528D51F55090000B12144490D8
:10185A00000BE0FEA3E0FFE4FCFD7B607AEAF9F806
:10186A00D31204BA500C90000BE4F0A3F0900002DB
:10187A0004F0788006E618700106C37880E694E8DA
:10188A0018E69403400C7600087600787D76000806
:10189A007601900004121444C3900005E094E89085
:1018AA000004E094034009E4F0A3F090000104F07E
:1018BA00D007D006D005D004D003D002D001D00082
:0B18CA00D0D0D082D083D0F0D0E0322C
:030023000224D2E2
:1024D200C0E0C0F0C083C082C0D075D000C000C0D0
:0D24E20001C002C003C004C005C006C00751
:0F24EF00E59830E00AAF991224875398FED2AFD8
:1024FE00D007D006D005D004D003D002D001D00032
:0B250E00D0D0D082D083D0F0D0E032DB
:1029700053BBF7C280E5BB20E3F6D280C2AF75FD42
:10298000F075FC0F8EFA8FF975FDD275FC2D75FD73
:05299000E175FC1E22B0
:1029230053BBF7C280E5BB20E3F6D280C2AF8FFB77
:1029330075FDF075FC0F8CFA8DF975FDB475FC4BC4
:0729430075FDE175FC1E2289
:101A40007F001214F012143412041A78081204E100
:101A50007D007C2F1229237F647E0012143412042F
:101A60001A7D017C2F1229231214869000697D02B1
:101A7000122A2F9000327D03122A2FA3E0FF7D044B
:101A8000122A3190002FE0FF7D05122A31900027A5
:101A9000E0FF7D06122A31900024E0F4FF7D07125A
:101AA0002A31786BE6FF7D08122A31900015E0FF9D
:101AB0007D09122A31900014E0FF7D0A122A31902C
:101AC000000AE0FF7D0B122A317F801214F0122AE7
:101AD000387D807C2FE4FF1229230D0F122923D299
:011AE000AF56
:011AE10022E2
:04137300026600000E
:1014FA00120296FFE52E4FFFE52DFEE52CFDE52BAA
:10150A008F2E8E2D8D2CF52BFC78081204F48F2E3D
:10151A008E2D8D2C22AF2DAE2CAD2BAC2A1204E1D0
:10152A00AD0722AF2DAE2CAD2BAC2A1204E1AD07CC
:10153A0022AB07E4FDFC90008DE02274B22FF58205
:10154A0074003EF583E022854E83854F82E54C95F3
:10155A0082E54B958322C3E567950AFFE5669509FF
:10156A00FEC3EF22AC06AD077F0722E475F0010245
:10157A000580AF65AE64AD63AC620204E1FEE5448A
:10158A00FDE543FCE47BFF22E4F51DF51CF51BF5A4
:10159A001A22120296AB26AA27A92822AF05AE0460
:1015AA00AD0322AC06AD077FB222754A01754B0026
:0E15BA00754C6C22748F250AF97400350922D5
:101EF400EFC39430400CEFD39439500674D02FFFC5
:101F04008022EFC39441400CEFD394465006EF2453
:101F1400C9FF8010EFC39461400AEFD39466500464
:101F2400EF24A9FFEF540FC454F0FFEDC3943040E5
:101F34000CEDD39439500674D02DFD801EEDC3945E
:101F4400414008EDD394465002800CEDC3946140A7
:101F54000AEDD394665004ED24A9FDED540F420715
:011F6400225A
:062560008B178A1889198F
:10256600121592E94A4B7005FFFEFDFC22121592E8
:10257600781712157512027D601AE51D2401FFE415
:10258600351CFEE4351BFDE4351A8F1D8E1C8D1B94
:0C259600F51A80DCAF1DAE1CAD1BAC1AAA
:0125A2002216
:062802008B398A3A893B84
:102808008B3F8A408941E94A4B7004FBFAF922E57B
:102818003E153EAE3D7002153D4E600B783F1215D9
:0D28280075ED1202C380E8AB39AA3AA93B56
:012835002280
:061694008B1E8A1F892055
:10169A008B268A27892885212985222A85232BE9D1
:1016AA004A4B6008E5234522452170077B007A00F2
:1016BA00790022D3852A83852B82E5289582E5271E
:1016CA0095834019E52B2525F9E52A3524FA8A83DD
:1016DA008982D3E5289582E52795834032E4F52C63
:1016EA00F52DC3E52D9525E52C9524505BAB29AA4C
:1016FA002AA92B852D82852C8312159C852D8285FE
:10170A002C831202D5052DE52D70D7052C80D385A3
:10171A00242C85252DD3E52D9400E52C9400402812
:10172A00AB29AA2AA92BE52D24FFFFE52C34FFFEBD
:10173A008F82F58312159C8F828E831202D5E52D36
:0E174A00152D70D1152C80CDAB1EAA1FA92025
:01175800226E
:102836008F658E648D638C6278181204E1EF120244
:10284600C3781012157C900001EF1202D578081299
:10285600157C900002EF1202D5E565FF900003EFAC
:032866000202D596
:10243C00E4F52EF52DF52CF52B12027DFFE48F2EF5
:10244C00F52DF52CF52BAE2DAD2CAC2B1215138CCC
:10245C002B9000011214FA8C2B9000021214FA8C9F
:10246C002B900003120296FFE52E4FFFE52DFEE5A3
:0A247C002CFDE52B121518F52BFCC2
:012486002233
:062B0F0090008EE0FF22A1
:0C2ACE00E490008EF0FDFC7F040222B4B6
:062B150090008BE0FF229E
:0823A4008F568B578A588959A6
:1023AC0012153DB401037F0122AF05AE04AD5612E8
:1023BC002AC1AC06E4FD122AC1AC06E55AFD122A6C
:1023CC00C1AC06AD5B122AC1AC06AD07AB57AA581F
:1023DC00A959855A1C855B1D1228CC12156E122228
:0323EC00B47F01BA
:0123EF0022CB
:0225E5008D2641
:1025E70012153BB401037F01221215A6122619E426
:1025F700FD122619AD07E5267003FD8006AF05AE6F
:10260700047D01122AC1AC06AD077F071222B47FF1
:0126170001C1
:0E26180022122AC1AC067D01122AC1AC062294
:081C9C008F268D278A288B2971
:101CA400E4FDFCF52A90008DE0B401037F0122AF2E
:101CB40005AE04E528FD122AC1AC06AD29122AC1DD
:101CC400AC06AD26121D0EE4FD121D0EAD07E52770
:101CD4007003FD8006AF05AE047D01122AC1AC0677
:101CE400AD077F087E00121545252AF52A0FBF008F
:101CF400010EEF640D4E70EEAF05AE04AD2A122A4C
:091D0400C11215AD1222B47F01D9
:0E1D0D0022122AC1AC067D01122AC1AC0622A8
:081D95008F268D278A288B2977
:101D9D00E4FDFCF52A90008DE0B401037F0122AF34
:101DAD0005AE04E528FD122AC1AD29121E04AD268B
:101DBD00122AC17D04121E04E4FD122AC1AC067D57
:101DCD0001122AC1AC06AD27122AC1AC06AD077FA0
:101DDD00087E00121545252AF52A0FBF00010EEFCA
:101DED00640D4E70EEAF05AE04AD2A122AC1121568
:061DFD00AD1222B47F01CB
:091E030022AC06122AC1AC062231
:101E0C0012153BB401037F01221215A6122AC1AC94
:101E1C00067D02122AC1AC06E4FD122AC1AC067D75
:101E2C0004122AC1C006C007781812151FD007D09B
:101E3C0006122AC1C006C007781012151FD007D091
:101E4C0006122AC1C006C007AF2DAE2CAD2BAC2A92
:101E5C0078081204E1AD07D007D006122AC1AC06EF
:101E6C00C007E52DFFE4AD07D007122AC112156E8D
:051E7C001222B47F01F9
:011E8100223E
:02198D008F29A0
:10198F00E4FDFCF53090008DE0B401037F0122AF40
:10199F0005AE04E52EFD122AC1AC06AD2F122AC1E9
:1019AF00AC06AD29122AC1AC067D02122AC1AC06C3
:1019BF00E4FD122AC1AC067D04122AC1C006C0077D
:1019CF00781812152DD007D006122AC1C006C007ED
:1019DF00781012152DD007D006122AC1C006C007E5
:1019EF00AF2DAE2CAD2BAC2A78081204E1AD07D089
:1019FF0007D006122AC1AC06C007E52DFFE4AD07DC
:101A0F00D007122AC1AC06AD077F087E001215451C
:101A1F002530F5300FBF00010EEF64104E70EEAFA2
:101A2F0005AE04AD30122AC11215AD1222B47F01DA
:011A3F002284
:0823F0008F5C8B5D8A5E895F42
:1023F80012153DB401037F0122AF05AE04AD5C1296
:102408002AC1AC067D03122AC1AC06E560FD122A7A
:10241800C1AC06AD61122AC1AC06AD07AB5DAA5EC0
:10242800A95F85601C85611D1228CC12156E1222C9
:03243800B47F016D
:01243B00227E
:0227CC008D2658
:1027CE0012153BB401037F01221215A6122AC1ACC9
:1027DE00067D04122AC1AC06E4FD122AC1AC067DA8
:1027EE0001122AC1AC06AD26122AC112156E122292
:0327FE00B47F01A4
:0128010022B4
:02175900AD07DA
:10175B00E4F547F54890008DE0B401037F012212B8
:10176B0017FA7D05121812E4FD12181274FFFFE52B
:10177B0045121587FAF9F8C31204D070097D0112CE
:10178B0017FAAD46803D74FFFF1215877AFFF9F803
:10179B00C31204D070047D0280197D0412180678E0
:1017AB00181217E1AF46AE45AD44AC4378101204A6
:1017BB00E1AD0712180678081217E1E546FFE4AD14
:1017CB0007AF48122AC18E478F48AD48AC477F07F9
:0517DB001222B47F01A1
:1017E00022AF46AE45AD44AC431204E1AD07AF486D
:1017F000AE47122AC18E478F4822AF48AE47122A01
:10180000C18E478F4822AF48AE47122AC18E478FFC
:0A1810004822122AC18E478F482299
:082AE5008C268D2712027DFFF3
:012AED0022C6
:082AEE008C268D2712027DFFEA
:012AF60022BD
:072AF7008C298D2A12243CFA
:012AFE0022B5
:102487008F38D31215514015E54C954FFFE54B9505
:102497004EFEC3EF941FEE64809480502DC3121537
:1024A70051500DC3E54F954CFFE54E954B4F601AC4
:1024B700C390008B12155740077A00796C1215B438
:0B24C700784A121575E5381202C32296
:10110E00E4F509F50AF50BF50CC3E5679423E566DE
:10111E00940050241229F4EFD39400401B1226267B
:10112E000567E567AC667002056614248FF5827458
:10113E00003CF583EFF080D1C3E5679407E5669434
:10114E0000500302126E1215609407EE94005003C5
:10115E0002123D748F250AF58274003509F583E07D
:10116E006455600A050AE50A70DC050980D874909A
:10117E00250AF58274003509F583E064AA600A0534
:10118E000AE50A70C1050980BD7491250AF58274BD
:10119E00003509F583E06004740280387493250AE3
:1011AE00F58274003509F583E0FE7494250AF58204
:1011BE0074003509F583E07C002400FFEC3ECF245B
:1011CE0007F50CE43FF50BD3E50C942AE50B9400E0
:1011DE0040097403250AF50AE4804D121560950C3A
:1011EE00EE950B404A1215BEFA7B01E50C24FFFD6D
:1011FE00E50B34FFFC12294AE50A250CFDE50935FD
:10120E000BFC748E2DF58274003CF583E06F600943
:10121E007403250AF50AE4800FAF0AAE09120ABD5F
:10122E00E50C250AF50AE50B3509F509021154C33B
:10123E00E567950AF567E5669509F566D3E5679462
:10124E0000E566940040191215BE752101F522893C
:10125E00238566248567257B017A00798F12169483
:01126E00225D
:102A92001215B4754D01754E00754F6C90008B7414
:032AA200FFF02220
:10137700018500048100000000602E00D1010103F7
:10138700020402650466026701680269027101725C
:10139700017301740275017604770482048304845F
:0B13A700048504860487048804890480
:1025A30025E0246CF8E6FA08E6FB4A22AB1EAA1FD4
:1025B300A920AD22AC212290000AE0FFE48F2DF583
:1025C3002CF52BF52A22900025E0FEA3E0FFE48FF3
:1025D3002D8E2CF52BF52A22E0FFE4FCFDFEC30231
:0225E30004D022
:0D2AB400E4FDFC7F041222B4786976012253
:102A1200E4FEEF7004FFFD8006EEFF7E007D0112F2
:0D2A22002AC1AE07EEFD7C007FB10222B498
:03001E00022ADAD9
:1015C800900000E0FD7F011225E5900015E0FD7F09
:1015D800711225E590002F1225BD7F03121E0C9075
:1015E8000069E0FFB4FF05E4F516801EEFB4C805F6
:1015F8007516028015EFB42805751603800CEFB434
:1016080014057516048003751605AD167F65122737
:10161800CC9000321225CC7F66121E0C900024E07C
:10162800FD7F671225E59000271225BD7F68121EF1
:101638000CE47B107A27F9F89000101205131204B5
:101648001AC374329F1225BE7F69121E0C786BE68E
:10165800FD7F721225E51225BA7F04121E0C900038
:1016680014E0FD7F731225E51225C97F74121E0C44
:10167800900063E0FD7F761227CC900030E0FD7F7C
:0C168800771227CCE4FDFC7FB40222B4F2
:102A7B00122AE5900000EFF0FD7F011225E5BF0162
:062A8B00037F01227F0021
:012A91002222
:101FD100122AF78F278E268D258C2490002FAB2770
:101FE100AA26A925A8241225DB70037F0122E4F586
:101FF10028E5281225A3601585272D85262C852502
:102001002B85242A8A2E8B2F7F0312198D0528E513
:1020110028C3940840DBAF2790002FEFF0FE90001B
:1020210038F01225BF7F03121E0CBF01037F01226E
:022031007F002E
:01203300228A
:10220600122AF78F2490000AE0B524037F0122E406
:10221600F525E5251225A36013E485242DF52CF577
:102226002BF52A8A2E8B2F7F0412198D0525E5257D
:10223600C3940840DD90000AE524F0E4FF12203440
:10224600900038E0FF1220341225BA7F04121E0CCB
:08225600BF01037F01227F009C
:01225E00225D
:101D1B00122AEE8F24E52478856670037F0122E476
:101D2B00F525E5251225A36007AD247F65121D95CA
:101D3B000525E525C3940840E9E5241460101460DB
:101D4B001514601A14601F14602424057028900069
:101D5B006974FFF0802090006974C8F080189000BF
:101D6B00697428F080109000697414F0800890005A
:101D7B0031E0900069F07885A624AD247F651227A9
:091D8B00CCBF01037F01227F009F
:011D9400222C
:101F6500122AF78F278E268D258C24900032E0FECD
:101F7500A3E0FFE4FCFDAB27AA26A925A824C312EC
:101F850004D070037F0122E4F528E5281225A3601B
:101F95001585272D85262C85252B85242A8A2E8B8C
:101FA5002F7F6612198D0528E528C3940840DBAEFE
:101FB50026AF27900032EEF0A3EFF01225D17F6611
:0B1FC500121E0CBF01037F01227F00F1
:011FD00022EE
:10266600122AE58F24900024E0B524037F0122E49A
:10267600F525E5251225A36007AD247F67121C9C6E
:102686000525E525C3940840E9900024E524F0FDDE
:0D2696007F671225E5BF01037F01227F0051
:0126A3002214
:1020F200122AF78F278E268D258C24900027AB2756
:10210200AA26A925A8241225DB70037F0122E4F563
:1021120028E5281225A3601585272D85262C8525DF
:102122002B85242A8A2E8B2F7F6812198D0528E58C
:1021320028C3940840DBAF27900027EFF01225BF99
:0D2142007F68121E0CBF01037F01227F0089
:01214F00226D
:101B7D00122AF78F278E268D258C24788112050742
:101B8D00AB27AA26A925A824C31204D070037F0170
:101B9D0022E4F528E5281225A3601585272D852635
:101BAD002C85252B85242A8A2E8B2F7F6912198D42
:101BBD000528E528C3940840DBAF27AE26AD25AC3C
:101BCD0024788112052BC374329527FFE49526FEE8
:101BDD00E49525FDE49524FCE47B107A27F9F812B1
:101BED00038F90001012053778811205078F2D8E07
:101BFD002C8D2B8C2A7F69121E0CBF01037F0122B5
:021C0D007F0056
:011C0F0022B2
:10225F00122AE58F24900015E06524601AE4F52515
:10226F00E5251225A36007AD247F71121C9C05255F
:10227F00E525C3940840E9E5247006900015F08029
:10228F0011900024E0B40104786A7601900015746F
:10229F0001F0900015E0FD7F711225E5BF01037F6E
:0422AF0001227F0089
:0122B3002208
:10235600122AE58F24E524786B66601AE4F525E5F4
:10236600251225A36007AD247F72121C9C0525E566
:1023760025C3940840E9786BA624AF24122A127864
:102386006BE66008E4FDFC7FB41222B4786BE6FDD0
:0D2396007F721225E5BF01037F01227F0049
:0123A3002217
:10271E00122AE58F24900014E06524601AE4F52552
:10272E00E5251225A36007AD247F73121C9C052599
:10273E00E525C3940840E9900014E524F0FD7F736D
:0B274E001225E5BF01037F01227F0080
:01275900225D
:10251900122AE5EF70037F0122E4900025F0A3F071
:10252900F524E5241225A3601A900025E0FEA3E016
:10253900FFE48F2D8E2CF52BF52A8A2E8B2F7F7495
:1025490012198D0524E524C3940840D61225C97FA4
:0625590074121E0C7F014C
:01255F002259
:0618D5008B1E8A1F892012
:1018DB00EF120590190701192903193204193B65F9
:1018EB00194366194B67195368195B6919637119A9
:1018FB006B72197373197B75000019851225AF1262
:10190B002A7B8F23E52364017075900048E004F077
:10191B00E0C394054069E4F0122AB402198A122537
:10192B00AF121FD10219811225AF122206021981A3
:10193B001225AF121D1B803E1225AF121F6580367C
:10194B001225AF122666802E1225AF1220F28026AA
:10195B001225AF121B7D801E1225AF12225F80163F
:10196B001225AF122356800E1225AF12271E8006AA
:10197B001225AF1225198F238000E4900048F0AF99
:01198B002338
:01198C002238
:032B1B007F1722FF
:0F2AA500386C6D786E6C676700312E302E300004
:0313B200014900EE
:101E82007493250EF5827400350DF583E075140008
:101E9200F5137494250EF5827400350DF583E02553
:101EA20014F514E43513F51322350DF583E0F8E447
:101EB20022E026F618E436F6227495250EF5827491
:101EC20000350DF583E02212051378101204E1ADFE
:101ED200072212051378081204E1AD072274B82F05
:101EE200F974003EFA7B0122E475F00112058002CA
:021EF200027D6F
:101AE200E4FFFE90004DE0C4F854F0C8A3E0C454F3
:101AF2000F48FD122AC17E00900031E0FD122AC17A
:101B02007E00C006C007900018121EC9D007D0067A
:101B1200122AC17E00C006C007900018121ED4D03F
:101B220007D006122AC17E00C006C007900020120C
:101B32001EC9D007D006122AC17E00C006C0079077
:101B42000020121ED4D007D006122AC17E00C00681
:101B5200C007900010121EC9D007D006122AC17EFB
:101B620000C006C007900010121ED4D007D0061283
:0B1B72002AC1EFFD7C007FC00222B4FE
:082AFF00E4FDFC7FC10222B4DA
:0C2AC100121EDFED1202C30FBF00010E59
:012ACD0022E6
:0A28CC008E178F188B198A1A891BCA
:1028D600121EDF851921851A22851B23851C248556
:1028E6001D25121694E51D2518F518E51C3517F556
:0428F60017FEAF1802
:0128FA0022BB
:1026E1008B338A3489358C368D37E94A4B602DE539
:1026F1003745366027E5371537AE36700215364E49
:10270100601AAB33AA34A93512027DFF12001E7480
:0D271100012535F535E43534F53480D92245
:0A294A008B338A3489358C368D37C3
:10295400E4FFFDFCC3ED9537EC9536500E78331249
:0B2964001EEA2FFF0DBD00010C80E9F2
:01296F002245
:0422B4008C318D32AA
:1022B8009000B27455F0A374AAF0E4A3F0A3EFF071
:1022C800E531A3F0E532A3F02407F532E43531F522
:1022D800317B017A0079B2E53224FFFDE53134FF24
:1022E800FC12294A74B12532F58274003531F58320
:0F22F800EFF07B017A0079B2AD32AC310226E112
:1029B600E4FFE549700AFEFD122AC1754901800748
:1029C6007E007D01122AC1EFFD7C00E4FF0222B4E5
:10275A00E4F5167A2A79A51227867A2A79A5122803
:10276A00CC8F167A2A79AE1227867A2A79AE12285F
:0C277A00CC8F16EFFD7C007F010222B422
:102786007BFF1225608E1C8F1DAF167E007BFF22FD
:082B0700E4FDFC7F020222B490
:022995008F1D94
:10299700122B1BE4FEEEC39F501275F002EE90005F
:0E29A700D1120574E0651D60030E80E9AF06D5
:0129B50022FF
:0621AB008B168A1789184B
:1021B10012027DF519900001120296F51A900002A3
:1021C100120296751C00F51B900003120296251C45
:1021D100F51CE4351BF51BAF1912299575F002EFBB
:1021E1009000D2120574E0651A60037F0022AB16DD
:1021F100E5182404F9E43517FA851B21851C22AF63
:04220100191218D5C1
:0122050022B6
:040ABD008E0D8F0EFD
:100AC10074922FF58274003EF583E0FF1205900BBE
:100AD10009000B0C010B0F020B12030B3D040B441D
:100AE100060D68080AF5B10BBAB40B03C00B06C1B9
:100AF10000000D6B121EBB6003020D6BFDFC7FB489
:100B01008037021AE2022AFF0229B602275A022B73
:100B110007121EBBFF90008BF0BF0209E47869F653
:100B2100121A40800790008BE0B40108E4FDFC7FBD
:100B3100B41222B4E4FDFC7F030222B490008E744F
:100B410001F022121E82E4F511F512C3E51295148B
:100B5100E51195134003020D6BE50E2512FDE50D20
:100B61003511FC74972DF58274003CF583E0751006
:100B710000F50F74982DF58274003CF583E0251083
:100B8100F510E4350FF50F7495250EF97400350D48
:100B9100FA7B01E92512F9EA3511FA1221ABBF01FD
:100BA10003121A40E5102404FFE4350FFEEF25126D
:100BB100F512EE3511F5118092121E82121EBBF54F
:100BC100157496250EF5827400121EAB796DF7E847
:100BD10019F77497250EF5827400350DF583786D3C
:100BE100121EB37498250EF5827400121EAB796F34
:100BF100F7E819F77499250EF5827400350DF58320
:100C0100786F121EB3749A250EF5827400121EAB12
:100C11007971F7E819F7749B250EF5827400350D8B
:100C2100F583E07871121EB4749C250EF582740070
:100C3100121EAB7973F7E819F7749D250EF58274CE
:100C410000350DF583E07873121EB4749E250EF500
:100C5100827400121EAB7975F7E819F7749F250E9F
:100C6100F5827400350DF583E07875121EB474A019
:100C7100250EF5827400121EAB7977F7E819F77427
:100C8100A1250EF5827400350DF583E07877121EEB
:100C9100B474A2250EF5827400121EAB7979F7E8BF
:100CA10019F774A3250EF5827400350DF583E078EC
:100CB10079121EB474A4250EF5827400121EAB794C
:100CC1007BF7E819F774A5250EF5827400350DF54B
:100CD10083E0787B121EB4786DE6184660047D01CE
:100CE1008002E4FD7F821227CC786FE6184660040B
:100CF1007D018002E4FD7F831227CC7871E61846DE
:100D010060047D018002E4FD7F841227CC7873E6C4
:100D1100184660047D018002E4FD7F851227CC78AE
:100D210075E6184660047D018002E4FD7F86122786
:100D3100CC7877E6184660047D018002E4FD7F8768
:100D41001227CC7879E6184660047D018002E4FD23
:100D51007F881227CC787BE6184660047D018002EB
:0A0D6100E4FD7F890227CC1215C8BB
:010D6B002265
:1029F400E54D854E83854F82654A700AE54C6582B4
:0E2A04007004E54B658360037F01227F002292
:10262600AB4DAA4EA94FE54A854B83854C82654D35
:10263600700AE54F65827004E54E65836021C3909C
:10264600008BE54F9582E54E9583400D7A00796CB7
:0F265600754D01754E00754F6C784D121EEAFFE1
:012665002252
:10002600020268E86480F8E933E83360110460F09E
:10003600ED33EC337009E8FCE9FDEAFEEBFF220440
:1000460060DED3EB9FEA9EE99DE8C2E78CF0C2F73B
:1000560095F0400CE8CCF8E9CDF9EACEFAEBCFFB07
:1000660012023385D0F05804700320D5B3E804702B
:10007600075002B2D502027292D5EC0460F7E4CCC6
:10008600C0E0C398F8603B94186008400DD0E0FBD0
:1000960002024AE4FBFAC9FC8028E830E406E4C917
:1000A600FBE4CAFCE830E305E4C9CACBFCE8540724
:1000B6006010F8C3E913F9EA13FAEB13FBEC13FC2F
:1000C600D8F130F52FC3E49CFCEF9BFFEE9AFEEDD2
:1000D60099FDD0E0FBEF4E4D4C701222DB0302027D
:1000E6006FEC2CFCEF33FFEE33FEED33FDED30E726
:1000F600EB02024AEF2BFFEE3AFEED39FDD0E0FBB4
:1001060050130BBB0003020272ED13FDEE13FEEF5C
:0801160013FFEC13FC02024A86
:10011E00020272EC5D046005E85904700302026885
:10012E00120233580460F6EC4860F2EC7004FDFEE7
:10013E00FF22C860DB2481C85009C39860025006B4
:10014E0002026F9850CAF582E9294B4A7005AB82BC
:10015E0002025E75F0007C1A7880C3EF9BEE9AED7A
:10016E0099400DC3EF9BFFEE9AFEED99FDE842F02C
:10017E00DC23ACF0D0E0FFD0E0FED0E0FDAB82207F
:10018E00E7101BEB60BAEC2CFCEF33FFEE33FEED09
:10019E0033FD02024AE803F830E705C0F075F000BF
:1001AE00EF2FFFEE33FEED33FD40B830E7C280AAED
:1001BE0075F020800E75F010800575F0087D007EBC
:1001CE00007F003392D530D5031204ACEC334010CF
:1001DE00EF33FFEE33FEED33FDEC33FCD5F0ED22C5
:0E01EE00E5F0247EA2D513CC92E7CDCEFF2201
:1001FC00EDD2E7CD33EC3392D524814006E4FFFEFB
:10020C00FDFC22FCE4CFCECDCC24E0501174FF8059
:10021C00EDC3CC13CCCD13CDCE13CECF13CF0470F6
:07022C00F030D5DE0204AC46
:10023300E9D2E7C933E833F892D5EDD2E7CD33EC11
:0702430033FC5002B2D5228A
:10024A00EC30E7100FBF000C0EBE00080DBD000415
:10025A000BEB6014A2D5EB13FCED92E7FD2274FFC1
:10026A00FCFDFEFF22E480F8A2D574FF13FC7D801A
:03027A00E480EF2E
:101C1C00020D6CE493A3F8E493A34003F68001F265
:101C2C0008DFF48029E493A3F85407240CC8C333C9
:101C3C00C4540F4420C8834004F456800146F6DF98
:101C4C00E4800B010204081020408090126FE47EA7
:101C5C00019360BCA3FF543F30E509541FFEE4938D
:101C6C00A360010ECF54C025E060A840B8E493A354
:101C7C00FAE493A3F8E493A3C8C582C8CAC583CA7F
:101C8C00F0A3C8C582C8CAC583CADFE9DEE780BE37
:0113B5000037
:10027D00BB010689828A83E0225002E722BBFE027F
:09028D00E32289828A83E49322B2
:10029600BB010CE58229F582E5833AF583E022501D
:1002A60006E92582F8E622BBFE06E92582F8E22267
:0D02B600E58229F582E5833AF583E4932281
:1002C300BB010689828A83F0225002F722BBFE011A
:0202D300F32214
:1002D500F8BB010DE58229F582E5833AF583E8F05F
:1002E500225006E92582C8F622BBFE05E92582C80B
:0202F500F222F3
:1002F700EF8DF0A4A8F0CF8CF0A428CE8DF0A42E1B
:02030700FE22D4
:10030900BC000BBE0029EF8DF084FFADF022E4CCD8
:10031900F875F008EF2FFFEE33FEEC33FCEE9DECA1
:10032900984005FCEE9DFE0FD5F0E9E4CEFD22EDE7
:10033900F8F5F0EE8420D21CFEADF075F008EF2F31
:10034900FFED33FD4007985006D5F0F222C398FD22
:050359000FD5F0EA22BF
:10035E00C5F0F8A3E028F0C5F0F8E582158270022A
:06036E001583E038F022C7
:0D037400EF2BFFEE3AFEED39FDEC38FC22D8
:0E038100C3EF9BFFEE9AFEED99FDEC98FC2277
:10038F00E88FF0A4CC8BF0A42CFCE98EF0A42CFC0D
:10039F008AF0EDA42CFCEA8EF0A4CDA8F08BF0A48B
:1003AF002DCC3825F0FDE98FF0A42CCD35F0FCEBEA
:1003BF008EF0A4FEA9F0EB8FF0A4CFC5F02ECD39AF
:0F03CF00FEE43CFCEAA42DCE35F0FDE43CFC221C
:1003DE0075F008758200EF2FFFEE33FECD33CDCCD6
:1003EE0033CCC58233C5829BED9AEC99E582984059
:1003FE000CF582EE9BFEED9AFDEC99FC0FD5F0D636
:10040E00E4CEFBE4CDFAE4CCF9A88222B800C1B95F
:10041E000059BA002DEC8BF084CFCECDFCE5F0CB9D
:10042E00F97818EF2FFFEE33FEED33FDEC33FCEBD6
:10043E0033FB10D703994004EB99FB0FD8E5E4F991
:10044E00FA227818EF2FFFEE33FEED33FDEC33FC7E
:10045E00C933C910D7059BE99A4007EC9BFCE99A72
:10046E00F90FD8E0E4C9FAE4CCFB2275F010EF2FB7
:10047E00FFEE33FEED33FDCC33CCC833C810D707B7
:10048E009BEC9AE899400AED9BFDEC9AFCE899F8F2
:0E049E000FD5F0DAE4CDFBE4CCFAE4C8F92285
:0E04AC00C3E49FFFE49EFEE49DFDE49CFC2261
:1004BA00EB9FF5F0EA9E42F0E99D42F0EC6480C8B9
:0604CA0064809845F02259
:1004D000EB9FF5F0EA9E42F0E99D42F0E89C45F082
:0104E00022F9
:1004E100E8600FECC313FCED13FDEE13FEEF13FFF9
:0304F100D8F1221D
:1004F400E8600FEFC333FFEE33FEED33FDEC33FC66
:03050400D8F12209
:0C050700E6FC08E6FD08E6FE08E6FF2220
:0C051300E0FCA3E0FDA3E0FEA3E0FF225B
:0C051F00E0F8A3E0F9A3E0FAA3E0FB225F
:0C052B00ECF608EDF608EEF608EFF622FC
:0C053700ECF0A3EDF0A3EEF0A3EFF02237
:10054300A8828583F0D083D08212055A12055A12ED
:10055300055A12055AE473E493A3C583C5F0C58312
:10056300C8C582C8F0A3C583C5F0C583C8C582C802
:010573002265
:0C057400A42582F582E5F03583F5832292
:10058000FAE6FB0808E6F925F0F618E6CA3AF6227C
:10059000D083D082F8E4937012740193700DA3A3FA
:1005A00093F8740193F5828883E47374029368600E
:0605B000EFA3A3A380DF0E
:00000001FF
