:03000000021D2AB4
:0C1D2A00787FE4F6D8FD75819B021D71E6
:10124400045100000000410006004100420C41002E
:10125400434044003900000000440018000000002E
:1012640044001C0000000044005F00000000440033
:1012740049000000004400650000000042002D0009
:1012840001420016000041000D00410037004200F9
:101294006A000042000E00004100000841004500C1
:1012A40041006C0001550001560041001500410049
:1012B400240141002F0A410048004100440A410032
:1012C40036004100380042000B00004100020002D9
:1012D4008400000282000010710000000000000081
:1012E400000000000000000000016C00016E00011D
:1012F4007000016F00016B0041000A00410007000B
:101304004100140042002500004200340000410066
:101314006300410003004200040000410001004159
:10132400002C004100300041004100018100016DAA
:1013340000420046000050004F0000000000000082
:0E134400000000000000000000420008000051
:10139500EF24A0FFEE340FFEE43DFDE43CFC120516
:1013A5001FD30204D0E4900045F09000437440F050
:1013B5009000377402F09000007406F0E490000687
:1013C500F090005F22900018120513900039120565
:1013D5001F120374900018120537900018020513A8
:1013E50090003912051FC30204D0E4FCFD120374FA
:1013F50090006502053790003D120513EF2470FF3C
:10140500EE3417FEE43DFDE43CFC90001822122A60
:1014150091E47BE87A03F9F8900010020513E4756E
:10142500F00102035E900043E0FF900006E0C39FD9
:1014350022D390002EE0940090002DE0940022121B
:10144500051390001C12051F0203741202F7AC0667
:10145500AD07E41201C3E4FBFA79C8784202012121
:101465007F647E00022A91900010020537900039B2
:10147500020513E4FFFEFD7C3F12002D0201FCD3A3
:1014850090006BE0940090006AE094002290002F99
:10149500E0900044F0227F0A1226FD900031EFF023
:1014A50090006422F0900049020513900065020542
:1014B5001FD39DEC6480F874809822E47B02FAF9CE
:1014C500F802041A90001802051F7E2F1229C97F01
:0414D500107E27223C
:1028C2008E098F0A8B0B8A0C890DAF051DEF6021D3
:1028D200050AE50AAE097002050914F5828E83E441
:1028E20093FF780BE475F001120580EF1202C380AA
:0228F200D922E9
:102954008F828E83E4F554F553F552F551AF82AE70
:1029640083E4FCFDAB54AA53A952A851C31204D06A
:08297400500543BD1080E6226E
:092A8800E0FF7C2F12297C7F6421
:102A9100E4FDFCC3ED9FEC9E50070DBD00010C80D1
:012AA100F242
:012AA2002211
:10000300758E5190FE917401F0A37410F075BD5F6D
:0700130090FEA07420F02212
:102A2F00E490FE80F0758901758DFA758BCB43A804
:0E2A3F0008438840758CCB758AEB43881022C3
:1028F40090FF10E054F04408F090FF02E054F044DC
:1029040002F0D28490FFA07420F0A37404F075CC7C
:102914000675CEFF75CD98759E0275981043A81064
:012924002290
:102ABD0043B40343B4807F147E00122A9175B5018F
:072ACD0090FE9B744BF02208
:102AA30090FF08E04488F090FF00E0540F4430F0BA
:0A2AB30090FF11E054F04403F022FC
:0B2B33008F99E59830E1FB5398FD22DC
:1026FD008FB543B440E5B430E5FB53B4DF12146538
:10270D00E4FBFAF943B440E5B430E5FB53B4DFE53F
:10271D00B62BFBE5B73AFA7F147E00122A9109B960
:0C272D0010E275B501A902121465AF019D
:01273900227D
:100F6D007B017A00794F7D107F007E2F1228C29071
:100F7D00004FE0FFE4FCFDFE12146C12141D780806
:100F8D001204F412146C90001012051F900050E022
:100F9D00FFE4FCFDFE12037412146C12141DE47BAD
:100FAD00E87A03F9F812038F12146CE47F307E7522
:100FBD00FDFC9000101213E840107F007E097D3D6E
:100FCD007C009000101213A3400A900010120543EC
:100FDD0000009C40900051E0900069F07002800785
:100FED00900069E0B4FE0374FFF0900052E0FF90B2
:100FFD000032E4F0A3EFF0E0F8E4F0E8900032F016
:10100D00900053E0FF900032E48FF012035E9000E9
:10101D0032E0FEA3E0FF4E6009D3EF9408EE940793
:10102D004009900032E4F0A37405F0900054E09074
:10103D00002FF0900038F0900055E0900027F06000
:10104D0006E0D394FF40069000277401F0900056FF
:10105D00E0F45401900024F0900057E054017870B2
:10106D00F6A3E05401900015F0900059E054019062
:10107D000014F090005AE090000AF07B017A00799C
:10108D00087D027F807E2F1228C2900008E090001C
:10109D0036F0900009E0900007F07F807E2F122936
:1010AD00C97F107E27122A91900036E004F0E0FFF0
:1010BD007D807C2F12297C121465900007E070034F
:1010CD00022B0D900007E0FFB4010A7D817C2F12E9
:0610DD00297C12146522BB
:1005B600E5556003020A8D43B440E5B430E5FB53CC
:1005C600B4DF85B70985B60A9000161214231214F3
:1005D600B0AE09AF0A1213EF90004DE0FEA3E0FFA4
:1005E600C3950AEE9509500DC3E50A9FF50AE5097C
:1005F6009EF509800BC3EF950AF50AEE9509F509F4
:1006060090001C12051FAE09AF0AE4FCFD1203742C
:1006160090001C120537900016E05401FEA3E04E30
:1006260070521214844017900044E09464503DE0E8
:100636002402F0E0D3946440337464F0802E90007A
:100646000EE07004A3E06401702A90002FE0FF9092
:100656000044E0FED39F4014EE94024004E024FEE2
:10066600F0900044E0C39F5003121492900044E0BF
:10067600FF12206AC3900016E094205003020ABCC1
:1006860043BD10E4F0A3F0900045E0041214A990D5
:10069600006512144A900049120537900045E0C3E0
:1006A60094084030E41214A978101204E19000492D
:1006B6001205371214AA90004DEE8FF012035E90C9
:1006C600004DE0C313F0A3E013F090004912054378
:1006D60000000000900000E0C394085005E004F01C
:1006E600804090006AE07002A3E0703612149BE02E
:1006F600FE2402FDE433FCEF1214B65018900031CC
:10070600E02402FDE433FCEE1214B65008900064B7
:10071600E0900031F0900031E0900064F0E4900049
:1007260000F0E4FFFEFDFC9000181213E87036900E
:10073600001C120513EF2488FFEE3413121408125E
:10074600053790002DE07002A3E070197F407E42CD
:100756007D0FFC9000181213A3400A900018120592
:1007660043000F4240900006E0701690001C1205F0
:100776001390003912053790002812054300000037
:10078600019000281214441213E5400302093B901D
:10079600002812051390003912144A90001C1213F7
:1007A600E8400302093B900006E004F090005F1267
:1007B600144490005F120537900006E0FFFBE4FA50
:1007C600F9F890005F12051312041A900039120509
:1007D6003712147278031204E1900028120537E4E8
:1007E6007F207E4EFDFC9000281213E8500A9000F0
:1007F6002812054300004E20E47F607EEAFDFC904F
:1008060000281213A3400A9000281205430000EAAC
:10081600601214729000181213A3403E9000391211
:10082600051F1213DF1203811213F57F807E387DB8
:10083600017C009000651213A340089000427406E4
:10084600F0801DE47F407E9CFDFC9000651213A3A2
:1008560090004240087409F08006900042740CF043
:1008660090004212142D403B1213DF1213E5503351
:10087600900043E09410500302094A900042E0D3EE
:1008860094095005121472801112147290001812F5
:100896001395400C1213CA1214C090001812053793
:1008A60002093B12142A500302094A1213DF900070
:1008B6003912139540771214C91214721203811259
:1008C60013F57F007E127D7A7C001213E5505E7F61
:1008D600807E1A7D067C009000651213E8504E90CB
:1008E6000043E09410400280387FE07E937D047CD4
:1008F600009000651213A340089000437410F08026
:100906001B7FF07E497D027C009000651213A39048
:1009160000434005740CF080037408F012142A405A
:100926000C1213CA1214C090001812053712142A9A
:100936004012E48004E4900006F090005F12054344
:1009460000000000900037E0D394004036E014F039
:100956001213FB1213A35003020A4990003D12051D
:1009660013EF2498FFEE343AFEE43DFDE43CFC90A0
:10097600001C1213E84003020A491213FB12053742
:10098600020A49121436405774FFF5F012035E123C
:100996001436404B7F007E127D7A7C009000181240
:1009A60013A3400C900010120543000C3500802F55
:1009B60012141D1214C91213F27F407E547D897CD5
:1009C600009000651213A340161214C9C374409B0D
:1009D600FF74549AFE748999FDE498FC12146C1203
:1009E600141D90001812144A90001C1213A34053B1
:1009F600900069E0FF900031E0D39F400512143665
:100A0600404190006AE07002A3E070091213DF9083
:100A1600003D12053790006AE4F0A304F0786FF603
:100A260090002512142390002C7401F0900043745A
:100A360008F0E490000EF0A3F07884F608F67882C9
:100A4600F608F69000651205430000000090001CB1
:100A56001205430000000090006AE0FEA3E0FFD309
:100A66009400EE9400404F900032E0FCA3E0FDD3EA
:100A7600EF9DEE9C4040E490006AF0A3F0755501AE
:100A8600786FF6786BF62290000EE4F0A304F0E49B
:100A9600F55590000BF0A3F0900002F07FFAFE12DD
:100AA6002954900049120543000000001213AA12AF
:060AB600054300000000F2
:010ABC002217
:1020CA00E4F50A90006512054300000000E4F509F2
:1020DA0043B440E5B430E5FB53B4DF1214B0AFB6F5
:1020EA00AEB71213EF0509E509B480E47F907E01CB
:1020FA00122954900065120513780B1204E18F0916
:10210A00E509D3940C400CE509948D5006E50A9430
:0D211A0014500A050AE50AD3945040A7228C
:012127002295
:1021850090006512054300000000E4F509E4F50C34
:10219500F50D43B440E5B430E5FB53B4DF85B70A2C
:1021A50085B60B1214B0AE0AAF0B1213EF050DE591
:1021B5000D7002050CB400DAE50CB420D543BD1052
:1021C5000509E509B408C6900065120513781012D3
:0A21D50004E190004DEEF0A3EFF0DE
:0121DF0022DD
:1022EB00BF0105E4FCFD802E7E007C017DFF120208
:1022FB00F71C7D64120309AC06AD07E41201C38F12
:10230B002B8E2A8D298C28AB2BAA2AA929A8281217
:10231B001478AC06AD0790FF907411F075DA017567
:0E232B00E30175E2FF8CE58DE475E10F7F00A4
:012339002281
:1027EF00BF0104E4FE801E7E007C007DFF121450AA
:1027FF008F2B8E2A8D298C28AB2BAA2AA929A828A2
:10280F00121478AE0790FF9C7410F075DEFF8EDF08
:05281F0075DD947F004F
:012824002291
:02206A008F26BF
:10206C007881E6B526037F00227881A626E52670C6
:10207C0006900063048016E526B4640CE4900063BB
:10208C00F090003004F0800B9000637402F0E49048
:10209C000030F0E526FD7C0090000AE0FF7E001287
:1020AC001450E4FBFAF9783F12147E8F27C3E5260F
:0D20BC009527FF1222EBAF271227EF7F00C0
:0120C90022F4
:100D2700122AEB120003122AA3122A2F1228F412F6
:100D37002ABD75BBAA90FEA774FFF053BBF7D2AFCD
:100D47007FC87E0012295412149BF0C2AF120F6D98
:100D57007F6412206AD2AF1220CA90002FE0FF9062
:100D67000044F012206A7F2C7E011229541221853B
:100D770090006512054300000000900036E0D39410
:100D8700034005E4F0122B0D786DE660237F6412B3
:100D97000F62E4FF120F62900046121423C3900003
:100DA70047E0942C900046E094014004E4786DF607
:100DB700900003E0FF900063E0FD6F600D7F761207
:100DC7002825900063E0900003F0900041E0FF9039
:100DD7000030E0FD6F600D7F77122825900030E02E
:100DE700900041F0900001E06401704190002CE018
:100DF700B4013AE4900001F090002CF0900025E057
:100E0700FEA3E0FF900034E06E7003A3E06F601D67
:100E1700E48F2D8E2CF52BF52A7F74121EB69000C9
:100E270025E0FFA3E0900034CFF0A3EFF0786EE663
:100E3700D394005012786CE6B4010CE4F6786E0691
:100E4700FDFC7FB412277743BD10E555700B90006A
:100E570017E0541F70031210E3900024E064016050
:100E670003020F2DE556701CF555755601121492A5
:100E7700900049120543000000001213AA1205430F
:100E8700000000001205B6D390000FE09400900018
:100E97000EE094004033900002E0B4012CE4F0909F
:100EA700000E121424900027E0FFC390000FE09F6C
:100EB70090000EE094004011E4F0A3F0900014E0DD
:100EC70064016005E4FF12206A121484400F7883DE
:100ED700E6640118467006F608F61214247870E6E0
:100EE70064016003020D8118E6FF786B66700302E8
:100EF7000D81A60790006AE4F0A304F0E4F508E585
:100F070008C394084003020D81E50825E02471F821
:100F1700E6FA08E6FB4A600A900015E0FD7F7112C9
:100F27001DB6050880D9E4F556900015E07007FF57
:100F370012206A020D81900038E0FF12206AE4F562
:100F47005512149290004912054300000000121335
:0B0F5700AA12054300000000020D81FB
:0B0F620012206A7F647E0012295422D6
:03001B0002166268
:10166200C0E0C0F0C083C082C0D075D000C000C04E
:1016720001C002C003C004C005C006C007AF54AE1B
:1016820053AD52AC51EF2401FFE43EFEE43DFDE4D4
:101692003C8F548E538D52F55190000B12142390AF
:1016A200000BE0FEA3E0FFE4FCFD7B607AEAF9F8C0
:1016B200D31204BA500C90000BE4F0A3F090000295
:1016C20004F0788506E618700106C37885E694E88A
:1016D20018E694034012786C7601788476000876D6
:1016E2000078827600087601900004121423C390D9
:1016F2000005E094E8900004E094034009E4F0A3BC
:10170200F090000104F0D007D006D005D004D00339
:10171200D002D001D000D0D0D082D083D0F0D0E09F
:011722003294
:030023000224684C
:10246800C0E0C0F0C083C082C0D075D000C000C03A
:0D24780001C002C003C004C005C006C007BB
:0F248500E59830E00AAF9912241D5398FED2AFAC
:10249400D007D006D005D004D003D002D001D0009C
:0B24A400D0D0D082D083D0F0D0E03246
:1029C90053BBF7C280E5BB20E3F6D280C2AF75FDE9
:1029D900F075FC0F8EFA8FF975FDD275FC2D75FD1A
:0529E900E175FC1E2257
:10297C0053BBF7C280E5BB20E3F6D280C2AF8FFB1E
:10298C0075FDF075FC0F8CFA8DF975FDB475FC4B6B
:07299C0075FDE175FC1E2230
:101B5B007F001214CF12141312041A78081204E126
:101B6B007D007C2F12297C7F647E001214131204DB
:101B7B001A7D017C2F12297C1214659000697D025D
:101B8B00122A889000327D03122A88A3E0FF7D047D
:101B9B00122A8A90002FE0FF7D05122A8A900027D7
:101BAB00E0FF7D06122A8A900024E0F4FF7D0712E5
:101BBB002A8A7870E6FF7D08122A8A900015E0FFCA
:101BCB007D09122A8A900014E0FF7D0A122A8A905E
:101BDB00000AE0FF7D0B122A8A7F801214CF122A93
:101BEB00917D807C2FE4FF12297C0D0F12297CD272
:011BFB00AF3A
:011BFC0022C6
:04135200026700002E
:1017E400120296FFE52E4FFFE52DFEE52CFDE52BBD
:1017F4008F2E8E2D8D2CF52BFC78081204F48F2E51
:101804008E2D8D2C22AF2DAE2CAD2BAC2A1204E1E3
:10181400AD0722AB07E4FDFC90008EE022AF2DAEB5
:101824002CAD2BAC2A0204E1854F83855082E54D13
:101834009582E54C958322C3E568950AFFE5679593
:1018440009FEC3EF22AC06AD077F0722E475F00161
:10185400020580AF66AE65AD64AC630204E1FEE5EB
:1018640045FDE544FCE47BFF22E4F51DF51CF51B76
:10187400F51A22120296AB26AA27A92822AF05AE92
:1018840004AD0322754B01754C00754D6D227490A7
:08189400250AF9740035092250
:101F2C00EFC39430400CEFD39439500674D02FFF8C
:101F3C008022EFC39441400CEFD394465006EF241B
:101F4C00C9FF8010EFC39461400AEFD3946650042C
:101F5C00EF24A9FFEF540FC454F0FFEDC3943040AD
:101F6C000CEDD39439500674D02DFD801EEDC39426
:101F7C00414008EDD394465002800CEDC39461406F
:101F8C000AEDD394665004ED24A9FDED540F4207DD
:011F9C002222
:0624F5008B178A188919FB
:1024FB0012186DE94A4B7005FFFEFDFC2212186D98
:10250B00781712185012027D601AE51D2401FFE4A2
:10251B00351CFEE4351BFDE4351A8F1D8E1C8D1BFF
:0C252B00F51A80DCAF1DAE1CAD1BAC1A15
:012537002281
:06285B008B3A8A3B893C28
:102861008B408A418942E94A4B7004FBFAF922E51F
:102871003F153FAE3E7002153E4E600B7840121878
:0D28810050ED1202C380E8AB3AAA3BA93C1F
:01288E002227
:0614D9008B1E8A1F892012
:1014DF008B268A27892885212985222A85232BE98E
:1014EF004A4B6008E5234522452170077B007A00AF
:1014FF00790022D3852A83852B82E5289582E527DB
:10150F0095834019E52B2525F9E52A3524FA8A8399
:10151F008982D3E5289582E52795834032E4F52C1F
:10152F00F52DC3E52D9525E52C9524505BAB29AA08
:10153F002AA92B852D82852C83121877852D8285DC
:10154F002C831202D5052DE52D70D7052C80D38560
:10155F00242C85252DD3E52D9400E52C94004028CF
:10156F00AB29AA2AA92BE52D24FFFFE52C34FFFE7A
:10157F008F82F5831218778F828E831202D5E52D15
:0E158F00152D70D1152C80CDAB1EAA1FA920E2
:01159D00222B
:10288F008F668E658D648C6378181204E1EF1202E7
:10289F00C37810121857900001EF1202D578081262
:1028AF001857900002EF1202D5E566FF900003EF74
:0328BF000202D53D
:1023D200E4F52EF52DF52CF52B12027DFFE48F2E60
:1023E200F52DF52CF52BAE2DAD2CAC2B1217FD8C4B
:1023F2002B9000011217E48C2B9000021217E48C30
:102402002B900003120296FFE52E4FFFE52DFEE50D
:0A2412002CFDE52B121802F52BFC3F
:01241C00229D
:062B680090008FE0FF2247
:0C2B2700E490008FF0FDFC7F0402277793
:062B6E0090008CE0FF2244
:08233A008F578B588A59895A0C
:10234200121819B401037F0122AF05AE04AD571272
:102352002B1AAC06E4FD122B1AAC06E55BFD122B20
:102362001AAC06AD5C122B1AAC06AD07AB58AA59D3
:10237200A95A855B1C855C1D122925121849122752
:03238200777F0161
:012385002235
:022600008D2625
:10260200121817B401037F0122121881122634E432
:10261200FD122634AD07E5267003FD8006AF05AE38
:10262200047D01122B1AAC06AD077F071227777FB4
:0126320001A6
:0E26330022122B1AAC067D01122B1AAC0622C5
:021DB600A9077B
:101DB800E4FCF526F52790008EE0B401037F0122AC
:101DC8007528557529AAE4F52A752BB2F52C752DB9
:101DD800078A2E8B2F8930753101F532753301ED65
:101DE8007004F5348003753401E4F537F538742848
:101DF8002538F8E62CFC0538E53870020537640DFF
:101E0800453770EA8C3575260075270EE4F537F5E9
:101E180038E5271527AE26700215264E601474285B
:101E28002538F8E6FF12001E0538E53870E3053757
:041E380080DF7F01C7
:011E3C002283
:02195400A907E1
:10195600E4FCF526F52790008EE0B401037F012212
:101966007528557529AAE4F52A752BB2F52C752D1F
:10197600078A2E8B2F8930753101F532753301EDCB
:101986007004F534802EBD01057534018026BD0234
:1019960005753402801EBD03057534038016BD042B
:1019A60005753404800EBD05057534058006BD0633
:1019B60003753406E4F537F53874282538F8E62C2F
:1019C600FC0538E53870020537640D453770EA8C3A
:1019D6003575260075270EE4F537F538E527152702
:1019E600AE26700215264E601474282538F8E6FFD8
:0F19F60012001E0538E5387002053780DF7F01CB
:011A050022BE
:101EB600121817B401037F0122121881122B1AACD3
:101EC600067D02122B1AAC06E4FD122B1AAC067D17
:101ED60004122B1AC006C0077818121809D007D0AA
:101EE60006122B1AC006C0077810121809D007D0A0
:101EF60006122B1AC006C007AF2DAE2CAD2BAC2A8E
:101F060078081204E1AD07D007D006122B1AAC06EA
:101F1600C007E52DFFE4AD07D007122B1A121849AA
:051F26001227777F0186
:011F2B002293
:021A0600AD072A
:101A0800E4FBF530F53190008EE0B401037F01224C
:101A1800788676550876AAE408F60876B208F608B5
:101A2800760AE52E08F608A62F08A605087602E429
:101A380008F608760478181218217892A607781004
:101A48001218217893A607AF2DAE2CAD2BAC2A78AF
:101A5800081204E17894A607E52DFFE408A607F527
:101A680032F53374862533F8E62BFB0533E53370FE
:101A78000205326410453270EA7896A60375300084
:101A8800753111E4F532F533E5311531AE307002B8
:101A980015304E601474862533F8E6FF12001E05D3
:0B1AA80033E5337002053280DF7F0160
:011AB3002210
:082386008F5D8B5E8A5F8960A8
:10238E00121819B401037F0122AF05AE04AD5D1220
:10239E002B1AAC067D03122B1AAC06E561FD122B2F
:1023AE001AAC06AD62122B1AAC06AD07AB5EAA5F75
:1023BE00A96085611C85621D1229251218491227F4
:0323CE00777F0115
:0123D10022E9
:022825008D26FE
:10282700121817B401037F0122121881122B1AAC58
:10283700067D04122B1AAC06E4FD122B1AAC067D9A
:1028470001122B1AAC06AD26122B1A1218491227A1
:03285700777F0187
:01285A00225B
:02172300AD0710
:10172500E4F548F54990008EE0B401037F012212EB
:1017350017C47D051217DCE4FD1217DC74FFFFE505
:1017450046121862FAF9F8C31204D070097D011225
:1017550017C4AD47803D74FFFF1218627AFFF9F890
:10176500C31204D070047D0280197D041217D0784D
:10177500181217ABAF47AE46AD45AC44781012040E
:10178500E1AD071217D078081217ABE547FFE4ADB6
:1017950007AF49122B1A8E488F49AD49AC487F07D0
:0517A5001227777F010F
:1017AA0022AF47AE46AD45AC441204E1AD07AF499E
:1017BA00AE48122B1A8E488F4922AF49AE48122BD7
:1017CA001A8E488F4922AF49AE48122B1A8E488F7B
:0A17DA004922122B1A8E488F492273
:082B3E008C268D2712027DFF99
:012B4600226C
:082B47008C268D2712027DFF90
:012B4F002263
:072B50008C298D2A1223D20B
:012B5700225B
:10241D008F39D312182C4015E54D9550FFE54C958D
:10242D004FFEC3EF941FEE64809480502DC312189D
:10243D002C500DC3E550954DFFE54F954C4F601A4F
:10244D00C390008C12183240077A00796D121888EB
:0B245D00784B121850E5391202C32220
:1010E300E4F509F50AF50BF50CC3E5689423E56708
:1010F30094005024122A4DEFD39400401B12264132
:101103000568E568AC6770020567142490F582747E
:10111300003CF583EFF080D1C3E5689407E567945D
:1011230000500302124312183B9407EE940050033D
:101133000212127490250AF58274003509F583E0D2
:101143006455600A050AE50A70DC050980D87491C4
:10115300250AF58274003509F583E064AA600A055F
:101163000AE50A70C1050980BD7492250AF58274E7
:10117300003509F583E06004740280387494250A0D
:10118300F58274003509F583E0FE7495250AF5822E
:1011930074003509F583E07C002400FFEC3ECF2486
:1011A30007F50CE43FF50BD3E50C942AE50B94000B
:1011B30040097403250AF50AE4804D12183B950C87
:1011C300EE950B404A121892FA7B01E50C24FFFDC1
:1011D300E50B34FFFC1229A3E50A250CFDE50935CF
:1011E3000BFC748F2DF58274003CF583E06F60096E
:1011F3007403250AF50AE4800FAF0AAE09120ABD8B
:10120300E50C250AF50AE50B3509F509021129C391
:10121300E568950AF568E5679509F567D3E5689488
:1012230000E56794004019121892752101F522898F
:10123300238567248568257B017A0079901214D968
:011243002288
:102AEB00121888754E01754F0075506D90008C74DF
:032AFB00FFF022C7
:10135600019B00049700000000602E00D2010103EB
:10136600020402650466026701680269027101727D
:101376000173017402750176047704820283028484
:0B1386000285028602870288028902AD
:1025BE0025E02471F8E6FA08E6FB4A22AB1EAA1FB4
:1025CE00A920AD22AC212290000AE0FFE48F2DF568
:1025DE002CF52BF52A22900025E0FEA3E0FFE48FD8
:1025EE002D8E2CF52BF52A22E0FFE4FCFDFEC30216
:0225FE0004D007
:0D2B0D00E4FDFC7F04122777786D7601222D
:102A6B00E4FEEF7004FFFD8006EEFF7E007D011299
:0D2A7B002B1AAE07EEFD7C007FB10227771D
:03001E00022B337F
:10159E00900000E0FD7F01122600900015E0FD7F17
:1015AE007112260090002F1225D87F03121EB690BE
:1015BE000069E0FFB4FF05E4F516801EEFB4C80520
:1015CE007516028015EFB42805751603800CEFB45E
:1015DE0014057516048003751605AD167F65122861
:1015EE00259000321225E77F66121EB6900024E089
:1015FE00FD7F671226009000271225D87F68121EE5
:10160E00B6E47B107A27F9F8900010120513120435
:10161E001AC374329F1225D97F69121EB67870E6EE
:10162E00FD7F721226001225D57F04121EB6900081
:10163E0014E0FD7F731226001225E47F74121EB68D
:10164E00900063E0FD7F76122825900030E0FD7F4C
:04165E0077022825C2
:102AD400122B3E900000EFF0FD7F01122600BF0193
:062AE400037F01227F00C8
:012AEA0022C9
:10200800122B508F278E268D258C2490002FAB27DE
:10201800AA26A925A8241225F67002FF22E4F5288D
:10202800E5281225BE601585272D85262C85252BAC
:1020380085242A8A2E8B2F7F03121A060528E52865
:10204800C3940840DBAF2790002FEFF0FE900038D4
:10205800F01225DA7F03121EB6BF01037F01227F2B
:012068000077
:012069002254
:10223B00122B508F2490000AE0B524037F0022E478
:10224B00F525E5251225BE6013E485242DF52CF527
:10225B002BF52A8A2E8B2F7F04121A060525E525CE
:10226B00C3940840DD90000AE524F0E4FF12206AD5
:10227B00900038E0FF12206A1225D57F04121EB69B
:08228B00BF01037F01227F0067
:012293002228
:101E3D00122B478F24E524789B667002FF22E4F570
:101E4D0025E5251225BE6007AD247F6512195405C1
:101E5D0025E525C3940840E9E524146010146015A8
:101E6D0014601A14601F14602424057028900069F2
:101E7D0074FFF0802090006974C8F080189000699C
:101E8D007428F080109000697414F080089000316F
:101E9D00E0900069F0789BA624AD247F651228257B
:081EAD00BF01037F01227F0049
:011EB500220A
:101F9D00122B508F278E268D258C24900032E0FE3B
:101FAD00A3E0FFE4FCFDAB27AA26A925A824C312B4
:101FBD0004D07002FF22E4F528E5281225BE601535
:101FCD0085272D85262C85252B85242A8A2E8B2F3A
:101FDD007F66121A060528E528C3940840DBAE2655
:101FED00AF27900032EEF0A3EFF01225EC7F6612D2
:0A1FFD001EB6BF01037F01227F0022
:0120070022B6
:10268100122B3E8F24900024E0B524037F0022E426
:10269100F525E5251225BE6007AD247F67121DB61D
:1026A1000525E525C3940840E9900024E524F0FDC3
:0D26B1007F67122600BF01037F01227F001A
:0126BE0022F9
:10212800122B508F278E268D258C24900027AB27C5
:10213800AA26A925A8241225F67002FF22E4F5286C
:10214800E5281225BE601585272D85262C85252B8B
:1021580085242A8A2E8B2F7F68121A060528E528DF
:10216800C3940840DBAF27900027EFF01225DA7FF1
:0C21780068121EB6BF01037F01227F0029
:012184002238
:101C9800122B508F278E268D258C247897120507B6
:101CA800AB27AA26A925A824C31204D07002FF22B4
:101CB800E4F528E5281225BE601585272D85262CF4
:101CC80085252B85242A8A2E8B2F7F69121A0605D3
:101CD80028E528C3940840DBAF27AE26AD25AC2401
:101CE800789712052BC374329527FFE49526FEE4F6
:101CF8009525FDE49524FCE47B107A27F9F8120376
:101D08008F90001012053778971205078F2D8E2CAB
:101D18008D2B8C2A7F69121EB6BF01037F01227F9B
:011D280000BA
:011D29002297
:10229400122B3E8F24900015E0B524037F0022E426
:1022A400F525E5251225BE6007AD247F71121DB604
:1022B4000525E525C3940840E9E52470069000153A
:1022C400F08011900024E0B40104786F760190004E
:1022D400157401F0900015E0FD7F71122600BF0116
:0622E400037F01227F00D0
:0122EA0022D1
:10253800122B3E8F24E5247870667002FF22E4F5A2
:1025480025E5251225BE6007AD247F72121DB6054C
:1025580025E525C3940840E97870A624AF24122AFB
:102568006B7870E6FD7F72122600BF01037F01229F
:022578007F00E2
:01257A00223E
:1026BF00122B3E8F24900014E0B524037F0022E4F8
:1026CF00F525E5251225BE6007AD247F73121DB6D3
:1026DF000525E525C3940840E9900014E524F0FD95
:0D26EF007F73122600BF01037F01227F00D0
:0126FC0022BB
:1024AF00122B3EEF7002FF22E4900025F0A3F0F50F
:1024BF0024E5241225BE601A900025E0FEA3E0FF5C
:1024CF00E48F2D8E2CF52BF52A8A2E8B2F7F7412ED
:1024DF001A060524E524C3940840D61225E47F7418
:0524EF00121EB67F0182
:0124F40022C5
:06189C008B1E8A1F89204B
:1018A200EF12059018CE0118F00318F90419026519
:1018B200190A66191267191A68192269192A7119FF
:1018C2003272193A731942750000194C1225CA1264
:1018D2002AD48F23E52364017075900048E004F058
:1018E200E0C394054069E4F0122B0D021951122550
:1018F200CA1220080219481225CA12223B021948AC
:101902001225CA121E3D803E1225CA121F9D803624
:101912001225CA122681802E1225CA12212880265B
:101922001225CA121C98801E1225CA1222948016F1
:101932001225CA122538800E1225CA1226BF800629
:101942001225CA1224AF8F238000E4900048F0AF22
:011952002371
:011953002271
:032B74007F1722A6
:0F2AFE00386C6D786E6C676700312E302E3000AB
:03139100014A000E
:101AB400E6FE08E6FFE48F2D8E2CF52BF52A227422
:101AC40094250EF5827400350DF583E0751400F548
:101AD400137495250EF5827400350DF583E02514F5
:101AE400F514E43513F51322350DF583E0F8E422FB
:101AF400E026F618E436F6227496250EF582740074
:101B0400350DF583E02212051378101204E1AD07B8
:101B14002212051378081204E1AD07229000B37471
:101B240055F0A374AAF0E4A3F0A3EFF022F583EF39
:101B3400F07B017A0079B32274B92FF974003EFA6C
:101B44007B0122E475F00112058002027D256AF50D
:071B54006AE43569F569221E
:101BFD00E4FFFE90004DE0C4F854F0C8A3E0C454D7
:101C0D000F48FD122B1A7E00900031E0FD122B1AA9
:101C1D007E00C006C007900018121B0AD007D00620
:101C2D00122B1A7E00C006C007900018121B15D08B
:101C3D0007D006122B1A7E00C006C0079000201296
:101C4D001B0AD007D006122B1A7E00C006C00790C3
:101C5D000020121B15D007D006122B1A7E00C006CD
:101C6D00C007900010121B0AD007D006122B1A7E47
:101C7D0000C006C007900010121B15D007D0061229
:0B1C8D002B1AEFFD7C007FC0022777C0
:082B5800E4FDFC7FC1022777B8
:0C2B1A00121B3CED1202C30FBF00010EA5
:012B2600228C
:0A2925008E178F188B198A1A891B70
:10292F00121B3C851921851A22851B23851C2485A2
:10293F001D251214D9E51D2518F518E51C3517F5B9
:04294F0017FEAF18A8
:012953002261
:10273A008B308A3189328C338D34E94A4B602DE5EE
:10274A003445336027E5341534AE33700215334E01
:10275A00601AAB30AA31A93212027DFF12001E7430
:0D276A00012532F532E43531F53180D922F8
:0A29A3008B308A3189328C338D3479
:1029AD00E4FFFDFCC3ED9534EC9533500E783012F9
:0B29BD001B472FFF0DBD00010C80E93F
:0129C80022EC
:042777008C2E8D2FE8
:10277B00121B20E52EA3F0E52FA3F02407F52FE481
:10278B00352EF52E121B35E52F24FFFDE52E34FFDC
:10279B00FC1229A374B2252FF5827400352E121B5F
:0827AB0031AD2FAC2E02273ADC
:04257B008C698D6A70
:10257F007402121B51121B20E569A3F0E56AA3F048
:10258F00A374FFF0A3F07407121B51121B35E56AF9
:10259F0024FFFDE56934FFFC1229A374B2256AF507
:0F25AF008274003569121B31AD6AAC6902273A9C
:102A0F00E4FFE54A700AFEFD122B1A754A01800792
:102A1F007E007D01122B1AEFFD7C00E4FF02277769
:1027B300E4F5167A2A79FE1227DF7A2A79FE12299E
:1027C300258F167A2B79071227DF7A2B790712299F
:0C27D300258F16EFFD7C007F01022777A8
:1027DF007BFF1224F58E1C8F1DAF167E007BFF2210
:082B6000E4FDFC7F020227776F
:0229EE008F1D3B
:1029F000122B74E4FEEEC39F501275F002EE9000AD
:0E2A0000D2120574E0651D60030E80E9AF067A
:012A0E0022A5
:0621E0008B168A17891816
:1021E60012027DF519900001120296F51A9000026E
:1021F600120296751C00F51B900003120296251C10
:10220600F51CE4351BF51BAF191229EE75F002EF2C
:102216009000D3120574E0651A60037F0022AB16A6
:10222600E5182404F9E43517FA851B21851C22AF2D
:042236001912189CC5
:01223A002281
:040ABD008E0D8F0EFD
:100AC10074932FF58274003EF583E0FF1205900BBD
:100AD10015000B18010B1B020B1E030B38040B3FF7
:100AE100060D23080AF5B10BB5B40B0FC00B12C1EB
:100AF10000000D26121AFC700E7D017F7212260075
:100B0100E4FDFC7FB4802DE4FD7F72022600021B10
:100B1100FD022B58022A0F0227B3022B60121AFC86
:100B2100FF90008CF0BF0207E4786DF6121B5BE4C6
:100B3100FDFC7F0302277790008F7401F022121AC7
:100B4100C3E4F511F512C3E5129514E511951340AF
:100B510003020D26E50E2512FDE50D3511FC7498F5
:100B61002DF58274003CF583E0751000F50F749942
:100B71002DF58274003CF583E02510F510E4350F66
:100B8100F50F7496250EF97400350DFA7B01E925F0
:100B910012F9EA3511FA1221E0BF0103121B5BE5DC
:100BA100102404FFE4350FFEEF2512F512EE351186
:100BB100F5118092121AC3121AFCF5157497250EBD
:100BC100F5827400121AEC7972F7E819F774982516
:100BD1000EF5827400350DF5837872121AF474994A
:100BE100250EF5827400121AEC7974F7E819F7747E
:100BF1009A250EF5827400350DF5837874121AF476
:100C0100749B250EF5827400121AEC7976F7E819B7
:100C1100F7749C250EF5827400350DF583E0787626
:100C2100121AF5749D250EF5827400121AEC79786A
:100C3100F7E819F7749E250EF5827400350DF583DA
:100C4100E07878121AF5749F250EF5827400121A55
:100C5100EC797AF7E819F774A0250EF5827400355E
:100C61000DF583E0787A121AF574A1250EF58274D8
:100C710000121AEC797CF7E819F774A2250EF582B7
:100C81007400350DF583E0787C121AF574A3250EF6
:100C9100F5827400121AEC797EF7E819F774A4252D
:100CA1000EF5827400350DF583E0787E121AF57425
:100CB100A5250EF5827400121AEC7980F7E819F770
:100CC10074A6250EF5827400350DF583E078801247
:100CD1001AF57871121AB47F82121EB67873121A3D
:100CE100B47F83121EB67875121AB47F84121EB6B1
:100CF1007877121AB47F85121EB67879121AB47FEA
:100D010086121EB6787B121AB47F87121EB6787DC2
:100D1100121AB47F88121EB6787F121AB47F890224
:050D21001EB612159E34
:010D260022AA
:102A4D00E54E854F83855082654B700AE54D658255
:0E2A5D007004E54C658360037F01227F002238
:10264100AB4EAA4FA950E54B854C83854D82654E13
:10265100700AE55065827004E54F65836021C3907F
:10266100008CE5509582E54F9583400D7A00796D98
:0F267100754E01754F0075506D784E121B47FF67
:012680002237
:10002600020268E86480F8E933E83360110460F09E
:10003600ED33EC337009E8FCE9FDEAFEEBFF220440
:1000460060DED3EB9FEA9EE99DE8C2E78CF0C2F73B
:1000560095F0400CE8CCF8E9CDF9EACEFAEBCFFB07
:1000660012023385D0F05804700320D5B3E804702B
:10007600075002B2D502027292D5EC0460F7E4CCC6
:10008600C0E0C398F8603B94186008400DD0E0FBD0
:1000960002024AE4FBFAC9FC8028E830E406E4C917
:1000A600FBE4CAFCE830E305E4C9CACBFCE8540724
:1000B6006010F8C3E913F9EA13FAEB13FBEC13FC2F
:1000C600D8F130F52FC3E49CFCEF9BFFEE9AFEEDD2
:1000D60099FDD0E0FBEF4E4D4C701222DB0302027D
:1000E6006FEC2CFCEF33FFEE33FEED33FDED30E726
:1000F600EB02024AEF2BFFEE3AFEED39FDD0E0FBB4
:1001060050130BBB0003020272ED13FDEE13FEEF5C
:0801160013FFEC13FC02024A86
:10011E00020272EC5D046005E85904700302026885
:10012E00120233580460F6EC4860F2EC7004FDFEE7
:10013E00FF22C860DB2481C85009C39860025006B4
:10014E0002026F9850CAF582E9294B4A7005AB82BC
:10015E0002025E75F0007C1A7880C3EF9BEE9AED7A
:10016E0099400DC3EF9BFFEE9AFEED99FDE842F02C
:10017E00DC23ACF0D0E0FFD0E0FED0E0FDAB82207F
:10018E00E7101BEB60BAEC2CFCEF33FFEE33FEED09
:10019E0033FD02024AE803F830E705C0F075F000BF
:1001AE00EF2FFFEE33FEED33FD40B830E7C280AAED
:1001BE0075F020800E75F010800575F0087D007EBC
:1001CE00007F003392D530D5031204ACEC334010CF
:1001DE00EF33FFEE33FEED33FDEC33FCD5F0ED22C5
:0E01EE00E5F0247EA2D513CC92E7CDCEFF2201
:1001FC00EDD2E7CD33EC3392D524814006E4FFFEFB
:10020C00FDFC22FCE4CFCECDCC24E0501174FF8059
:10021C00EDC3CC13CCCD13CDCE13CECF13CF0470F6
:07022C00F030D5DE0204AC46
:10023300E9D2E7C933E833F892D5EDD2E7CD33EC11
:0702430033FC5002B2D5228A
:10024A00EC30E7100FBF000C0EBE00080DBD000415
:10025A000BEB6014A2D5EB13FCED92E7FD2274FFC1
:10026A00FCFDFEFF22E480F8A2D574FF13FC7D801A
:03027A00E480EF2E
:101D3600020D27E493A3F8E493A34003F68001F28F
:101D460008DFF48029E493A3F85407240CC8C333AE
:101D5600C4540F4420C8834004F456800146F6DF7D
:101D6600E4800B0102040810204080901244E47EB7
:101D7600019360BCA3FF543F30E509541FFEE49372
:101D8600A360010ECF54C025E060A840B8E493A339
:101D9600FAE493A3F8E493A3C8C582C8CAC583CA64
:101DA600F0A3C8C582C8CAC583CADFE9DEE780BE1C
:011394000058
:10027D00BB010689828A83E0225002E722BBFE027F
:09028D00E32289828A83E49322B2
:10029600BB010CE58229F582E5833AF583E022501D
:1002A60006E92582F8E622BBFE06E92582F8E22267
:0D02B600E58229F582E5833AF583E4932281
:1002C300BB010689828A83F0225002F722BBFE011A
:0202D300F32214
:1002D500F8BB010DE58229F582E5833AF583E8F05F
:1002E500225006E92582C8F622BBFE05E92582C80B
:0202F500F222F3
:1002F700EF8DF0A4A8F0CF8CF0A428CE8DF0A42E1B
:02030700FE22D4
:10030900BC000BBE0029EF8DF084FFADF022E4CCD8
:10031900F875F008EF2FFFEE33FEEC33FCEE9DECA1
:10032900984005FCEE9DFE0FD5F0E9E4CEFD22EDE7
:10033900F8F5F0EE8420D21CFEADF075F008EF2F31
:10034900FFED33FD4007985006D5F0F222C398FD22
:050359000FD5F0EA22BF
:10035E00C5F0F8A3E028F0C5F0F8E582158270022A
:06036E001583E038F022C7
:0D037400EF2BFFEE3AFEED39FDEC38FC22D8
:0E038100C3EF9BFFEE9AFEED99FDEC98FC2277
:10038F00E88FF0A4CC8BF0A42CFCE98EF0A42CFC0D
:10039F008AF0EDA42CFCEA8EF0A4CDA8F08BF0A48B
:1003AF002DCC3825F0FDE98FF0A42CCD35F0FCEBEA
:1003BF008EF0A4FEA9F0EB8FF0A4CFC5F02ECD39AF
:0F03CF00FEE43CFCEAA42DCE35F0FDE43CFC221C
:1003DE0075F008758200EF2FFFEE33FECD33CDCCD6
:1003EE0033CCC58233C5829BED9AEC99E582984059
:1003FE000CF582EE9BFEED9AFDEC99FC0FD5F0D636
:10040E00E4CEFBE4CDFAE4CCF9A88222B800C1B95F
:10041E000059BA002DEC8BF084CFCECDFCE5F0CB9D
:10042E00F97818EF2FFFEE33FEED33FDEC33FCEBD6
:10043E0033FB10D703994004EB99FB0FD8E5E4F991
:10044E00FA227818EF2FFFEE33FEED33FDEC33FC7E
:10045E00C933C910D7059BE99A4007EC9BFCE99A72
:10046E00F90FD8E0E4C9FAE4CCFB2275F010EF2FB7
:10047E00FFEE33FEED33FDCC33CCC833C810D707B7
:10048E009BEC9AE899400AED9BFDEC9AFCE899F8F2
:0E049E000FD5F0DAE4CDFBE4CCFAE4C8F92285
:0E04AC00C3E49FFFE49EFEE49DFDE49CFC2261
:1004BA00EB9FF5F0EA9E42F0E99D42F0EC6480C8B9
:0604CA0064809845F02259
:1004D000EB9FF5F0EA9E42F0E99D42F0E89C45F082
:0104E00022F9
:1004E100E8600FECC313FCED13FDEE13FEEF13FFF9
:0304F100D8F1221D
:1004F400E8600FEFC333FFEE33FEED33FDEC33FC66
:03050400D8F12209
:0C050700E6FC08E6FD08E6FE08E6FF2220
:0C051300E0FCA3E0FDA3E0FEA3E0FF225B
:0C051F00E0F8A3E0F9A3E0FAA3E0FB225F
:0C052B00ECF608EDF608EEF608EFF622FC
:0C053700ECF0A3EDF0A3EEF0A3EFF02237
:10054300A8828583F0D083D08212055A12055A12ED
:10055300055A12055AE473E493A3C583C5F0C58312
:10056300C8C582C8F0A3C583C5F0C583C8C582C802
:010573002265
:0C057400A42582F582E5F03583F5832292
:10058000FAE6FB0808E6F925F0F618E6CA3AF6227C
:10059000D083D082F8E4937012740193700DA3A3FA
:1005A00093F8740193F5828883E47374029368600E
:0605B000EFA3A3A380DF0E
:00000001FF
