:03000000021CE2FD
:0C1CE200787FE4F6D8FD75819F021D2973
:1011CA00043800000000410006004100420C013FC3
:1011DA0040440039000000004400180000000044A8
:1011EA00001C0000000044005900000000440045B3
:1011FA00000000004400600000000042002C0001D2
:10120A00420016000041000B004100370042006511
:10121A00000042000C0000410000084100440001A7
:10122A003C00013D00410013004100240141002F10
:10123A000A4100430A4100360041003800420009D1
:10124A00000042001400004100020002990000025E
:10125A00950000108200000000000000000000005D
:10126A00000000000001810041005F00017B004195
:10127A000012004200250000420034000041005DD7
:10128A000141000301420004000041000100018005
:10129A000001360041003000410041000192000186
:1012AA007A0002930000029703E8013E0041002EF3
:1012BA0000027C0000027E00000137004E004B0055
:1012CA0000000000000000000000000000420007CB
:0212DA00000012
:1015D000EF24A0FFEE340FFEE43DFDE43CFC1205D9
:1015E0001FD30204D0E4900044F0753F40900037D0
:1015F0007402F09000007406F0E4900006F0900091
:10160000592290001812051390003912051F120379
:1016100074900018120537900018020513900039D5
:1016200012051FC30204D0E4FCFD12037490006095
:1016300002053790003D120513EF2470FFEE3417BA
:10164000FEE43DFDE43CFC90001822122B0DE47BEF
:10165000E87A03F9F890000E020513E475F0010230
:10166000035ED390002DE0940090002CE0940022C3
:1016700012051390001C12051F0203747F647E0084
:10168000022B0D90000E020537900039020513E081
:10169000FEA3E0FFE4FCFD7B607AEAF9F822D39038
:1016A0000066E09400900065E094002290002FE036
:1016B000900043F0227F0A122640900031EFF09014
:1016C000005E22E4FFFEFD7C3F12002D0201FC9033
:1016D0000006E0C3953F2290006002051FD39DECF9
:1016E0006480F87480982290001C020513E47B0249
:1016F000FAF9F802041A90001802051FE48F2D8EE3
:101700002CF52BF52A227E2F122A457F107E2722C8
:102837008E098F0A8B0B8A0C890DAF051DEF60215E
:10284700050AE50AAE097002050914F5828E83E4CC
:1028570093FF780BE475F001120580EF1202C38035
:02286700D92274
:1029D0008F828E83E4F53BF53AF539F538AF82AE58
:1029E00083E4FCFDAB3BAA3AA939A838C31204D052
:0829F000500543BD1080E622F2
:092B0400E0FF7C2F1229F87F6428
:102B0D00E4FDFCC3ED9FEC9E50070DBD00010C8054
:012B1D00F2C5
:012B1E002294
:102B3900758E5190FE917401F0A37410F075BD5F0C
:072B490090FEA07420F022B1
:102AAB00E490FE80F0758901758DFA758BCB43A888
:0E2ABB0008438840758CCB758AEB4388102247
:1028690090FF10E054F04408F090FF02E054F04467
:1028790002F0D28490FFA07420F0A37404F075CC08
:102889000675CEFF75CD98759E0275981043A810F0
:01289900221C
:102B500043B40343B4807F147E00122B0D75B5017E
:072B600090FE9B744BF02274
:102B1F0090FF08E04488F090FF00E0540F4430F03D
:0A2B2F0090FF11E054F04403F0227F
:0B2BF7008F99E59830E1FB5398FD2218
:102640008FB543B440E5B430E5FB53B4DF12167CDC
:10265000E4FBFAF943B440E5B430E5FB53B4DFE5FD
:10266000B62BFBE5B73AFA7F147E00122B0D09B9A1
:0C26700010E275B501A90212167CAF0142
:01267C00223B
:10100F007B017A00794B7D0E7F007E2F122837905F
:10101F00004BE0FFE4FCFDFE121683121655780814
:10102F001204F412168390000E12051F90004CE06C
:10103F00FFE4FCFDFE120374121683121655E47BB7
:10104F00E87A03F9F812038F121683E47F307E7566
:10105F00FDFC90000E12162040107F007E097D3D92
:10106F007C0090000E1215DE400A90000E12054310
:10107F0000009C4090004DE0900064F070028007EB
:10108F00900064E0B4FE0374FFF090004EE0FF9018
:10109F000032E4F0A3EFF0E0F8E4F0E8900032F073
:1010AF0090004FE0FF900032E48FF012035E90004B
:1010BF0032E0FEA3E0FF4E6009D3EF9408EE9407F1
:1010CF004009900032E4F0A37405F0900050E090D6
:1010DF00002FF0900038F0900051E0900027F06062
:1010EF0006E0D394FF40069000277401F090005261
:1010FF00E0F45401900024F0900053E05401788103
:10110F00F6A3E05401900013F0900055E0540190C5
:10111F000012F0900056E090005FF0900057E0FF53
:10112F007897760008A607E6F8E47998F7E819F7B4
:10113F00A3E0789826F618E436F6E6FE08E6FF4EAA
:10114F006009D3EF94B8EE940B40077897760308B5
:10115F0076E87B017A0079077D027F807E2F122847
:10116F0037900007E0900036F0900008E0787BF6AB
:10117F007F807E2F122A457F107E27122B0D900025
:10118F0036E004F0E0FF7D807C2F1229F812167CE8
:10119F00787BE67014122BD190005F7464F090008E
:1011AF002F740AF0900038F022787BE6FFB4010A22
:0B11BF007D817C2F1229F812167C2283
:1005B600E53C6003020A9143B440E5B430E5FB53E1
:1005C600B4DF85B70985B60A90001612165B1216B7
:1005D600D7AE09AF0A121627900049E0FEA3E0FF46
:1005E600C3950AEE9509500DC3E50A9FF50AE5097C
:1005F6009EF509800BC3EF950AF50AEE9509F509F4
:1006060090001C12051FAE09AF0AE4FCFD1203742C
:1006160090001C120537900016E05401FEA3E04E30
:10062600705412169E401990005FE0FF900043E060
:100636009F503BE02402F0E0D39F4032EFF0802E43
:1006460090000CE07004A3E06401702A90002FE093
:10065600FF900043E0FED39F4014EE94024004E076
:1006660024FEF0900043E0C39F50031216AC9000A6
:1006760043E0FF1228C9C3900016E09420500302FD
:100686000ABA43BD10E4F0A3F0900044E004F0A3DE
:1006960012051390006012167690004512053790E9
:1006A6000044E0C394084035E4F0A3120513781023
:1006B6001204E1900045120537900045120513908B
:1006C6000049EE8FF012035E900049E0C313F0A3D9
:1006D600E013F09000451205430000000090000072
:1006E600E0C394085005E004F08040900065E07097
:1006F60002A3E070361216B5E0FE2402FDE433FCD8
:10070600EF1216DD5018900031E02402FDE433FCB0
:10071600EE1216DD500890005EE0900031F0900079
:1007260031E090005EF0E4900000F0E4FFFEFDFC96
:1007360090001812162070331216E7EF2488FFEE89
:10074600341312164012053790002CE07002A3E015
:1007560070197F407E427D0FFC9000181215DE4016
:100766000A900018120543000F4240900006E07000
:10077600131216E790003912053790002812054328
:100786000000000190002812167012161D40030288
:100796000939900028120513900039121676900038
:1007A6001C1216204003020939900006E004F0905E
:1007B6000059121670900059120537900006E0FF96
:1007C600FBE4FAF9F890005912051312041A900086
:1007D6003912053712168978031204E1900028129F
:1007E6000537E47F207E4EFDFC900028121620502F
:1007F6000A90002812054300004E20E47F607EEA3E
:10080600FDFC9000281215DE400A900028120543D0
:100816000000EA601216899000181215DE403E901C
:10082600003912051F12161712038112162D7F802A
:100836007E387D017C009000601215DE4008900035
:10084600427406F0801DE47F407E9CFDFC900060B3
:100856001215DE90004240087409F08006900042AE
:10086600740CF0900042E0FF900006E0C39F403910
:1008760012161712161D5031E53F94105003020947
:1008860048900042E0D3940950051216898011124F
:1008960016899000181215D0400C1216021216ED89
:1008A6009000181205370209391216CF50030209B3
:1008B600481216179000391215D0406F1216F6120C
:1008C600168912038112162D7F007E127D7A7C0016
:1008D60012161D50567F807E4F7D127C0090006060
:1008E6001216205046E53F9410400280327FE07E8B
:1008F600937D047C009000601215DE4005753F1064
:1009060080187FF07E497D027C009000601215DE23
:100916004005753F0C8003753F081216CF400C1238
:1009260016021216ED9000181205371216CF401255
:10093600E48004E4900006F090005912054300009C
:100946000000900037E0D394004036E014F0121611
:10095600331215DE5003020A4690003D120513EFCE
:100966002498FFEE343AFEE43DFDE43CFC90001C86
:100976001216204003020A46121633120537020ADF
:1009860046121662405774FFF5F012035E121662A5
:10099600404B7F007E127D7A7C009000181215DE97
:1009A600400C90000E120543000C3500802F1216E5
:1009B600551216F612162A7F407E547D897C0090C9
:1009C60000601215DE40161216F6C374409BFF74C3
:1009D600549AFE748999FDE498FC121683121655F2
:1009E60090001812167690001C1215DE40529000E8
:1009F60064E0FF900031E0D39F400512166240404C
:100A0600900065E07002A3E0700912161790003D91
:100A1600120537900065E4F0A304F0900025121645
:100A26005B9000307401F07880F6F536753F08E487
:100A360090000CF0A3F07899F608F67895F608F68B
:100A46001216E79000201205379000601205430049
:100A560000000090001C1205430000000090006595
:100A6600E0FEA3E0FFD39400EE94004047900032EE
:100A7600E0FCA3E0FDD3EF9DEE9C4038E4900065DA
:100A8600F0A3F0753C01900030F02290000CE4F0E9
:100A9600A304F0E4F53C900009F0A3F0900002F006
:100AA600900045120543000000001215E5120543AB
:040AB600000000003C
:010ABA002219
:10200000E4F50A90006012054300000000E4F509C1
:1020100043B440E5B430E5FB53B4DF1216D7AFB696
:10202000AEB71216270509E509B480E47F907E015A
:102030001229D0900060120513780B1204E18F0969
:10204000E509D3940C400CE509948D5006E50A94FB
:0D20500014500A050AE50AD3945040A72257
:01205D002260
:10205E0090006012054300000000E4F509E4F50C61
:10206E00F50D43B440E5B430E5FB53B4DF85B70A54
:10207E0085B60B1216D7AE0AAF0B121627050DE555
:10208E000D7002050CB400DAE50CB420D543BD107A
:10209E000509E509B408C690006012051378101200
:0A20AE0004E1900049EEF0A3EFF00A
:0120B8002205
:10221600BF0105E4FCFD802E7E007C017DFF1202DD
:10222600F71C7D64120309AC06AD07E41201C38FE7
:10223600738E728D718C70AB73AA72A971A87012AD
:1022460016C3AC06AD0790FF907411F075DA0175F0
:0E225600E30175E2FF8CE58DE475E10F7F007A
:012264002257
:1023E100BF0104E4FE80307E007C007DFF1202F715
:1023F100AC06AD07E41201C3E4FBFA79C8784212D6
:1024010001218F0E8E0D8D0C8C0BAB0EAA0DA90C1C
:10241100A80B1216C3AE0790FF9C7410F075DEFF77
:072421008EDF75DD947F00E2
:012428002291
:1028C9007892E6B507037F00227892A607EF700792
:1028D90090005D04F08010BF6407E490005DF08013
:0D28E9000690005D7402F01223E17F0022D2
:100D7500122B7C122B39122B1F122AAB1228691247
:100D85002B5075BBAA90FEA774FFF053BBF7D2AFEB
:100D95007FC87E001229D01216B5F0C2AF12100F0F
:100DA5007F641228C9D2AF12200090002FE0FF9077
:100DB5000043F01228C97F2C7E011229D012205E33
:100DC50090006012054300000000E4F537900036FE
:100DD500E0D394054007E4F0122BD18003121B01E8
:100DE50090001412168FC31204BA5010E490001428
:100DF500F0A3F0122C3BEF7003122BD1E53E6015EA
:100E0500120FF690002EE004F0E0FF7403D39F501C
:100E150004E4F53EF0787AE66020120FF678940641
:100E2500E618700106D37484789496740318965066
:100E350009E4787AF67893F608F6E5376003020E4A
:100E4500FE900003E0FF90005DE0FD6F600D7F7692
:100E550012273290005DE0900003F0900041E0FF22
:100E6500900030E0FD6F60187F77122732900030D8
:100E7500E0900041F0B40108787D06E6187001069F
:100E8500797DE7787F66700419E71866601C787CC1
:100E9500E6FE08E6FF1216FC7F7C121D6E787CE6E6
:100EA500FE08E6FF08A60608A607900001E0640113
:100EB5007047F07880E66401703FF6900025E0FE0B
:100EC500A3E0FF900034E06E7003A3E06F602A1288
:100ED50016FC7F74121D6E900025E0FFA3E09000C4
:100EE50034CFF0A3EFF09000201205138F2D8E2C38
:100EF5008D2B8C2A7F7D121D6EE5366401702AF5D7
:100F0500367881E664017021F508E50825E024823C
:100F1500F8E6FA08E6FB4A6007E4FD7F7812216CE3
:100F25000508E508C3940840E143BD1012132D9050
:100F35000024E064016003020FC1E53D701CF53C2F
:100F4500753D011216AC90004512054300000000E6
:100F55001215E5120543000000001205B6D39000F6
:100F65000DE0940090000CE094004033900002E006
:100F7500B4012CE4F090000C12165C900027E0FF01
:100F8500C390000DE09F90000CE094004011E4F048
:100F9500A3F0900012E064016005E4FF1228C91275
:100FA500169E5003020DE57896E664011846600327
:100FB500020DE5F608F612165C020DE5E4F53D9026
:100FC5000013E07007FF1228C9020DE5900038E014
:100FD500FF1228C9E4F53C1216AC900045120543F2
:100FE500000000001215E512054300000000020D87
:010FF500E516
:100FF6007F641228C97F647E001229D0E4FF12287C
:09100600C97F647E001229D0228A
:03001B0002198B3C
:10198B00C0E0C0F0C083C082C0D075D000C000C022
:10199B0001C002C003C004C005C006C007AF3BAE08
:1019AB003AAD39AC38EF2401FFE43EFEE43DFDE4F3
:1019BB003C8F3B8E3A8D39F53890000912165B90AF
:1019CB00000912168FD31204BA500C900009E4F0E0
:1019DB00A3F090000204F0789A06E618700106C393
:1019EB00789AE694E818E69403400C7600087600A3
:1019FB007895760008760190000412165B7897E6CE
:101A0B00FE08E6FFC3900005E09F900004E09E40B7
:101A1B0009E4F0A3F090000104F090001412165B9F
:101A2B00D007D006D005D004D003D002D001D0000F
:0B1A3B00D0D0D082D083D0F0D0E032B9
:030023000224298B
:10242900C0E0C0F0C083C082C0D075D000C000C079
:0D24390001C002C003C004C005C006C007FA
:0F244600E59830E00AAF991223965398FED2AF73
:10245500D007D006D005D004D003D002D001D000DB
:0B246500D0D0D082D083D0F0D0E03285
:102A450053BBF7C280E5BB20E3F6D280C2AF75FD6C
:102A5500F075FC0F8EFA8FF975FDD275FC2D75FD9D
:052A6500E175FC1E22DA
:1029F80053BBF7C280E5BB20E3F6D280C2AF8FFBA2
:102A080075FDF075FC0F8CFA8DF975FDB475FC4BEE
:072A180075FDE175FC1E22B3
:101B01007F0012170612164B12041A78081204E10C
:101B11007D007C2F1229F87F647E0012164B12047F
:101B21001A7D017C2F1229F812167C9000647D0227
:101B3100122B049000327D03122B04A3E0FF7D04DD
:101B4100122B0690002FE0FF7D05122B0690002737
:101B5100E0FF7D06122B06900024E0F4FF7D0712C2
:101B61002B067881E6FF7D08122B06900013E0FF1B
:101B71007D09122B06900012E0FF7D0A122B0690C0
:101B8100005FE0FF7D0B122B067897E6FF7D0C12BC
:101B91002B0608E6FF7D0D122B067F801217061219
:101BA1002B0D7D807C2FE4FF1229F80D0F1229F8EF
:021BB100D2AFB1
:011BB300220F
:0412DC000278000094
:101A4600120296FFE52E4FFFE52DFEE52CFDE52B58
:101A56008F2E8E2D8D2CF52BFC78081204F48F2EEC
:101A66008E2D8D2C22AF2DAE2CAD2BAC2A1204E17F
:101A7600AD0722AF4DAE4CAD4BAC4A1204E1AD07FB
:101A860022AB07E4FDFC900084E022855D83855E41
:101A960082E55B9582E55A958322C3E579950AFF2F
:101AA600E5789509FEC3EF22AC06AD077F0722E471
:101AB60075F001020580AF77AE76AD75AC740204A1
:101AC600E1FEE553FDE552FCE47BFF22E4F51DF55E
:101AD6001CF51BF51A22120296AB26AA27A9282264
:101AE600AF05AE04AD0322755901755A00755B67E3
:0B1AF600227486250AF97400350922CD
:101ECB00EFC39430400CEFD39439500674D02FFFEE
:101EDB008022EFC39441400CEFD394465006EF247D
:101EEB00C9FF8010EFC39461400AEFD3946650048E
:101EFB00EF24A9FFEF540FC454F0FFEDC39430400F
:101F0B000CEDD39439500674D02DFD801EEDC39487
:101F1B00414008EDD394465002800CEDC3946140D0
:101F2B000AEDD394665004ED24A9FDED540F42073E
:011F3B002283
:0624FA008B178A188919F6
:10250000121AD2E94A4B7005FFFEFDFC22121AD2C4
:102510007817121AB512027D601AE51D2401FFE436
:10252000351CFEE4351BFDE4351A8F1D8E1C8D1BFA
:0C253000F51A80DCAF1DAE1CAD1BAC1A10
:01253C00227C
:06279D008B408A418942D5
:1027A3008B468A478948E94A4B7004FBFAF922E5CC
:1027B300451545AE44700215444E600B7846121A17
:0D27C300B5ED1202C380E8AB40AA41A94267
:0127D00022E6
:061805008B1E8A1F8920E2
:10180B008B268A27892885212985222A85232BE95E
:10181B004A4B6008E5234522452170077B007A007F
:10182B00790022D3852A83852B82E5289582E527AB
:10183B0095834019E52B2525F9E52A3524FA8A836A
:10184B008982D3E5289582E52795834032E4F52CF0
:10185B00F52DC3E52D9525E52C9524505BAB29AAD9
:10186B002AA92B852D82852C83121ADC852D828546
:10187B002C831202D5052DE52D70D7052C80D38531
:10188B00242C85252DD3E52D9400E52C94004028A0
:10189B00AB29AA2AA92BE52D24FFFFE52C34FFFE4B
:1018AB008F82F583121ADC8F828E831202D5E52D7F
:0E18BB00152D70D1152C80CDAB1EAA1FA920B3
:0118C90022FC
:1027D1008F778E768D758C7478181204E1EF120262
:1027E100C37810121ABC900001EF1202D5780812BA
:1027F1001ABC900002EF1202D5E577FF900003EFBB
:032801000202D5FB
:10234B00E4F52EF52DF52CF52B12027DFFE48F2EE7
:10235B00F52DF52CF52BAE2DAD2CAC2B121A5F8C6D
:10236B002B900001121A468C2B900002121A468CED
:10237B002B900003120296FFE52E4FFFE52DFEE595
:0A238B002CFDE52B121A64F52BFC63
:012395002225
:062C3500900085E0FF2283
:0C2BEB00E4900085F0FDFC7F040221C393
:062C3B00900082E0FF2280
:0822B3008F5F8B608A61896274
:1022BB00121A89B401037F0122AF05AE04AD5F1280
:1022CB002BDEAC06E4FD122BDEAC06E563FD122B18
:1022DB00DEAC06AD64122BDEAC06AD07AB60AA61BB
:1022EB00A96285631C85641D12289A121AAE1221ED
:0322FB00C37F019D
:0122FE0022BD
:02257F008D26A7
:10258100121A87B401037F0122121AE61225B3E45D
:10259100FD1225B3AD07E5267003FD8006AF05AE3C
:1025A100047D01122BDEAC06AD077F071221C37F2C
:0125B1000128
:0E25B20022122BDEAC067D01122BDEAC0622BF
:081FA1008F6B8D6C8A6D8B6E55
:101FA900E4FDFCF56F900084E0B401037F0122AFEA
:101FB90005AE04E56DFD122BDEAC06AD6E122BDE0F
:101FC900AC06AD6B121FF3E4FD121FF3AD07E56C10
:101FD9007003FD8006AF05AE047D01122BDEAC0651
:091FE900AD077FB21221C37F0194
:0E1FF20022122BDEAC067D01122BDEAC062285
:08216C008F288D298A2A8B2B94
:10217400E4FDFCF52C900084E0B401037F0122AF60
:1021840005AE04E52AFD122BDEAD2B1221BBAD28D2
:10219400122BDE7D041221BBE4FD122BDEAC067D86
:1021A40001122BDEAC06AD29122BDEAC06AD077F87
:0621B400B21221C37F01FD
:0921BA0022AC06122BDEAC062259
:101D6E00121A87B401037F0122121AE6122BDEAC7F
:101D7E00067D02122BDEAC06E4FD122BDEAC067DD8
:101D8E0004122BDEC006C0077818121A6BD007D0CB
:101D9E0006122BDEC006C0077810121A6BD007D0C1
:101DAE0006122BDEC006C007AF2DAE2CAD2BAC2A13
:101DBE0078081204E1AD07D007D006122BDEAC0670
:101DCE00C007E52DFFE4AD07D007122BDE121AAEC9
:051DDE001221C37F018A
:011DE30022DD
:021C4F008F49BB
:101C5100E4FDFCF550900084E0B401037F0122AF64
:101C610005AE04E54EFD122BDEAC06AD4F122BDEA8
:101C7100AC06AD49122BDEAC067D02122BDEAC06A2
:101C8100E4FD122BDEAC067D04122BDEC006C0077C
:101C91007818121A79D007D006122BDEC006C007B9
:101CA1007810121A79D007D006122BDEC006C007B1
:101CB100AF4DAE4CAD4BAC4A78081204E1AD07D044
:101CC10007D006122BDEAC06C007E54DFFE4AD07D9
:101CD100D007122BDEAC06AD077FB21221C37F0104
:011CE10022E0
:0822FF008F658B668A67896810
:10230700121A89B401037F0122AF05AE04AD65122D
:102317002BDEAC067D03122BDEAC06E569FD122B26
:10232700DEAC06AD6A122BDEAC06AD07AB66AA675C
:10233700A96885691C856A1D12289A121AAE12218E
:03234700C37F0150
:01234A002270
:022732008D28F0
:10273400121A87B401037F0122121AE6122BDEACAF
:10274400067D04122BDEAC06E4FD122BDEAC067D06
:1027540001122BDEAC06AD28122BDE121AAE1221AA
:03276400C37F012F
:01276700224F
:0218CA00AD0768
:1018CC00E4F556F557900084E0B401037F01221231
:1018DC00196B7D05121983E4FD12198374FFFFE562
:1018EC0054121AC7FAF9F8C31204D070097D011208
:1018FC00196BAD55803D74FFFF121AC77AFFF9F8CA
:10190C00C31204D070047D0280197D0412197778FB
:10191C0018121952AF55AE54AD53AC527810120484
:10192C00E1AD071219777808121952E555FFE4ADAD
:10193C0007AF57122BDE8E568F57AD57AC567F071D
:05194C001221C37F0120
:1019510022AF55AE54AD53AC521204E1AD07AF57AF
:10196100AE56122BDE8E568F5722AF57AE56122B24
:10197100DE8E568F5722AF57AE56122BDE8E568F04
:0A1981005722122BDE8E568F5722DC
:082C02008C268D2712027DFFD4
:012C0A0022A7
:082C0B008C288D2912027DFFC7
:012C1300229E
:072C1D008C298D2A12234BC4
:012C2400228D
:102396008F35D3121A914015E55B955EFFE55A9588
:1023A6005DFEC3EF941BEE64809480502DC3121A19
:1023B60091500DC3E55E955BFFE55D955A4F601A3A
:1023C600C3900082121A9740077A007967121AEDB5
:0B23D6007859121AB5E5351202C32237
:10132D00E4F509F50AF50BF50CC3E579941FE5789D
:10133D0094005024122AC9EFD39400401B122600AA
:10134D000579E579AC7870020578142486F58274F8
:10135D00003CF583EFF080D1C3E5799407E57894EF
:10136D0000500302148D121AA09407EE940050033E
:10137D0002145C7486250AF58274003509F583E044
:10138D006455600A050AE50A70DC050980D8748782
:10139D00250AF58274003509F583E064AA600A0513
:1013AD000AE50A70C1050980BD7488250AF58274A5
:1013BD00003509F583E0600474028038748A250ACB
:1013CD00F58274003509F583E0FE748B250AF582EC
:1013DD0074003509F583E07C002400FFEC3ECF243A
:1013ED0007F50CE43FF50BD3E50C9426E50B9400C3
:1013FD0040097403250AF50AE4804D121AA0950CD4
:10140D00EE950B404A121AF7FA7B01E50C24FFFD0D
:10141D00E50B34FFFC122A1FE50A250CFDE5093505
:10142D000BFC74852DF58274003CF583E06F60092B
:10143D007403250AF50AE4800FAF0AAE09120ABB40
:10144D00E50C250AF50AE50B3509F509021373C3F9
:10145D00E579950AF579E5789509F578D3E57994E7
:10146D0000E57894004019121AF7752101F52289CB
:10147D00238578248579257B017A007986121805D4
:01148D00223C
:102B7C00121AED755C01755D00755E6790008274CC
:032B8C00FFF02235
:1012E000019F00049B00000000603C00C40101035A
:1012F00002040265046602670168026902710172F4
:101300000173017402750176047704780479027A16
:10131000017B047C027D02820483048404850486AC
:0913200004870488048904960482
:10280400AB1EAA1FA920AD22AC2122900025E0FE18
:10281400A3E0FFE48F2D8E2CF52BF52A22E0FFE4B4
:102824008F2DF52CF52BF52A22E0FFE4FCFDFEC3E9
:032834000204D0CB
:0D2BD100E4FDFC7F041221C3787A76012216
:102AE700E4FEEF7004FFFD8006EEFF7E007D01121D
:0D2AF7002BDEAE07EEFD7C007FB10221C397
:03001E00022BF7BB
:10148E007D017F011215BA9000137F7112157390B2
:10149E00002F1228217F03121580900064E0FFB404
:1014AE00FF05E4F516801EEFB4C80575160280150B
:1014BE00EFB42805751603800CEFB41405751604E9
:1014CE008003751605AD167F651215C59000321294
:1014DE0028127F661215809000247F671215739074
:1014EE0000271228217F6812158BE47B107A27F9CA
:1014FE00F890000E12051312041AC374329F1228AC
:10150E00227F6912158B7881E67F721215A39000E7
:10151E005F1228217F041215AF900012E07F731224
:10152E0015A312280F7F741215AF90005D7F7612EF
:10153E0015969000307F771215967D017F781215E3
:10154E00C57897E6FE08E61228167F79121D6E7F83
:10155E00647E001229D0AD3E7F7A1215BAE4FDFCEE
:05156E007FB40221C35F
:10157300E0FD12257F7F647E001229D022121D6EAA
:101583007F647E001229D022121D6E7F647E0012BA
:1015930029D022E0FD1227327F647E001229D02257
:1015A300FD12257F7F647E001229D022121D6E7FDB
:1015B300647E001229D02212257F7F647E001229C7
:0D15C300D0221227327F647E001229D02230
:102B8F00122C028F257D017F0112257F8F247F025A
:012B9F002213
:10247000E4F528122C1D8F278E268D258C249000A4
:102480002FAB27AA26A925A82412282D700375286A
:1024900001AF2790002FEFF0FE900038F0122823B4
:1024A0007F03121D6EBF010AE52860037F02227FB1
:0424B00001227F0086
:0124B4002205
:1028F600E4F524122C1D90005FE0B5070375240152
:1029060090005FEFF01228237F04121D6EBF010AAC
:0C291600E52460037F02227F01227F0085
:012922002292
:101F3C00E4F524122C0B789FE6B50703752401EF0A
:101F4C0014601014601514601A14601F146024249B
:101F5C0005702890006474FFF0802090006474C8B1
:101F6C00F080189000647428F08010900064741451
:101F7C00F08008900031E0900064F0789FEFF6FD5F
:101F8C007F65122732BF010AE52460037F02227F9E
:041F9C0001227F009F
:011FA000221E
:10226500E4F528122C1D8F278E268D258C249000B1
:1022750032E0FEA3E0FFE4FCFDAB27AA26A925A8D2
:1022850024C31204D07003752801AE26AF27900031
:1022950032EEF0A3EFF01228177F66121D6EBF0114
:0D22A5000AE52860037F02227F01227F00EE
:0122B2002209
:10294F00E4F524122C02900024E0B507037524014E
:10295F00900024EFF0FD7F6712257FBF010AE52469
:0A296F0060037F02227F01227F0037
:01297900223B
:1025C000E4F528122C1D8F278E268D258C24900053
:1025D00027AB27AA26A925A82412282D7003752821
:1025E00001AF27900027EFF01228237F68121D6E9D
:0F25F000BF010AE52860037F02227F01227F00DE
:0125FF0022B9
:101DE400E4F528122C1D8F278E268D258C24789BB4
:101DF400120507AB27AA26A925A824C31204D0706C
:101E040003752801AF27AE26AD25AC24789B1205B7
:101E14002BC374329527FFE49526FEE49525FDE453
:101E24009524FCE47B107A27F9F812038F90000EB6
:101E3400120537789B1205078F2D8E2C8D2B8C2A3B
:101E44007F69121D6EBF010AE52860037F02227FAD
:041E540001227F00E8
:011E58002267
:10297A00E4F524122C02900013E0B5070375240134
:10298A00900013EFF0FD7F7112257FBF010AE52445
:0A299A0060037F02227F01227F000C
:0129A4002210
:1026BA00E4F524122C027881E6B507037524017823
:1026CA0081EFF6122AE77881E66008E4FDFC7FB420
:1026DA001221C37881E6FD7F7212257FBF010AE5C8
:0B26EA002460037F02227F01227F009A
:0126F50022C2
:1029A500E4F524122C02900012E0B507037524010A
:1029B500900012EFF0FD7F7312257FBF010AE52419
:0A29C50060037F02227F01227F00E1
:0129CF0022E5
:10000300122C02EF600FE4900025F0A3F012280FEA
:070013007F74121D6E7F02D5
:01001A0022C3
:10292300122C0BAD07ED146016047016900065E4CD
:10293300F0A304F090003704F0900030F0800375AA
:0B2943003E017F781227328F247F02B4
:01294E002266
:10276800E4F524122C1D7897E6FC08E6B50707EE79
:10277800B504037524017897EEF608EFF6122817CA
:102788007F79121D6EBF010AE52460037F02227F54
:0427980001227F009B
:01279C00221A
:102B6700122C02EF6003753E01E4FD7F7A12257F88
:042B77008F247F0226
:012B7B002237
:10211400E4F527122C0B8F25E52514603704703C59
:102124007881E664017035F526E52625E02482F8F9
:10213400E6FA08E6FB4A600A7D017F7812216C7595
:1021440027010526E526C3940840DEE527600D75C2
:102154003E018008E4FDFC7FB41221C3AD257F7BE2
:072164001227328F247F02D5
:01216B002251
:10253D00122C0B8F25E525146015146017146019E6
:10254D0014601B14601D2405701C122C4A80171278
:10255D002C4D8012122C41800D122C14800812006B
:10256D002180031224B5AD257F961227328F247F4B
:01257D00025B
:01257E00223A
:061710008B1E8A1F8920D8
:10171600EF120590175101175C03176704177265DE
:10172600177D66178867179368179E6917A971173B
:10173600B47217BE7317C87517D27817DC7917E617
:101746007A17F07B17FA9600001802122804122B5B
:101756008F8F230218021228041224708F23021876
:10176600021228041228F68F2302180212280412E5
:101776001F3C8F230218021228041222658F2302AF
:10178600180212280412294F8F2302180212280465
:101796001225C08F23021802122804121DE48F237B
:1017A60002180212280412297A8F2302180212281C
:1017B600041226BA8F2380441228041229A58F23E7
:1017C600803A1228041200038F2380301228041254
:1017D60029238F2380261228041227688F23801C32
:1017E600122804122B678F23801212280412211448
:0E17F6008F23800812280412253D8F23AF2375
:0118040022C1
:032C47007F1E22CB
:032C4A00022BA0BA
:032C4D00022BB1A6
:062C41001224B5022BD1A4
:092C14007D017C007F040221C354
:0100210022BC
:1024B50090000E12054300009C4090006474FFF0EC
:1024C500900032E4F0A37405F090002F740AF090A8
:1024D50000277401F0900024F0E47881F690001351
:1024E500F0900012F090005F7464F078977603081E
:0524F50076E8021B0166
:102BA000C2AF75FDF075FC0F75FD8775FC78D2AF6F
:012BB0002202
:102BB100C2AF75FDF075FC0F75FD7875FC87D2AF5E
:012BC10022F1
:0F2BC20064646E6F6861663600312E302E30000D
:0313290001580068
:101E5900748A250EF5827400350DF583E07514003A
:101E6900F513748B250EF5827400350DF583E02585
:101E790014F514E43513F51322350DF583E0F8E470
:101E890022E026F618E436F622748C250EF58274C3
:101E990000350DF583E02212051378101204E1AD27
:101EA900072212051378081204E1AD072274AB2F3B
:101EB900F974003EFA7B0122E475F00112058002F3
:021EC900027D98
:101BB400E4FFFE900049E0C4F854F0C8A3E0C45424
:101BC4000F48FD122BDE7E00900031E0FD122BDE6B
:101BD4007E00C006C007900018121EA0D007D006D1
:101BE400122BDE7E00C006C007900018121EABD078
:101BF40007D006122BDE7E00C006C007900020121C
:101C04001EA0D007D006122BDE7E00C006C00790AF
:101C14000020121EABD007D006122BDE7E00C006B9
:101C2400C00790000E121EA0D007D006122BDE7E35
:101C340000C006C00790000E121EABD007D00612DB
:0B1C44002BDEEFFD7C007FC00221C3FF
:082C2500E4FDFC7FC10221C3A4
:0C2BDE00121EB6ED1202C30FBF00010E64
:012BEA0022C8
:0A289A008E178F188B198A1A891BFC
:1028A400121EB6851921851A22851B23851C2485B1
:1028B4001D25121805E51D2518F518E51C3517F515
:0428C40017FEAF1834
:0128C80022ED
:10267D008B308A3189328C338D34E94A4B602DE5AC
:10268D003445336027E5341534AE33700215334EBF
:10269D00601AAB30AA31A93212027DFF12001E74EE
:0D26AD00012532F532E43531F53180D922B6
:0A2A1F008B308A3189328C338D34FC
:102A2900E4FFFDFCC3ED9534EC9533500E7830127C
:0B2A39001EC12FFF0DBD00010C80E945
:012A4400226F
:0421C3008C2E8D2FA2
:1021C7009000A57455F0A374AAF0E4A3F0A3EFF070
:1021D700E52EA3F0E52FA3F02407F52FE4352EF520
:1021E7002E7B017A0079A5E52F24FFFDE52E34FF2C
:1021F700FC122A1F74A4252FF5827400352EF5834F
:0F220700EFF07B017A0079A5AD2FAC2E02267D7A
:102A8B00E4FFE558700AFEFD122BDE755801800736
:102A9B007E007D01122BDEEFFD7C00E4FF0221C3E3
:1026F600E4F5167A2B79C21227227A2B79C2122890
:102706009A8F167A2B79CB1227227A2B79CB12281D
:0C2716009A8F16EFFD7C007F010221C3AA
:102722007BFF1224FA8E1C8F1DAF167E007BFF22C8
:082C2D00E4FDFC7F020221C35B
:022A6A008F1DBE
:102A6C00122C47E4FEEEC39F501275F002EE90005C
:0E2A7C00C4120574E0651D60030E80E9AF060C
:012A8A002229
:0620B9008B168A1789183E
:1020BF0012027DF519900001120296F51A90000296
:1020CF00120296751C00F51B900003120296251C38
:1020DF00F51CE4351BF51BAF19122A6A75F002EFD8
:1020EF009000C5120574E0651A60037F0022AB16DD
:1020FF00E5182404F9E43517FA851B21851C22AF56
:04210F00191217107A
:0121130022A9
:040ABB008E0D8F0EFF
:100ABF0074892FF58274003EF583E0FF1205900BC9
:100ACF0007000B0A010B0D020B10030B46040B4D15
:100ADF00060D71080AF3B10BC3B40B01C00B04C1AF
:100AEF0000000D74121E926003020D74FDFC7FB4A2
:100AFF008042021BB4022C25022A8B0226F6022CFE
:100B0F002D121E92FF900082F0BF020E121B0112D7
:100B1F00148EE4F537787AF68015900082E0FFB4F2
:100B2F0001057537018008EF753701787A7601E492
:100B3F00FDFC7F030221C39000857401F022121E79
:100B4F0059E4F511F512C3E5129514E5119513400B
:100B5F0003020D74E50E2512FDE50D3511FC748EA3
:100B6F002DF58274003CF583E0751000F50F748F3E
:100B7F002DF58274003CF583E02510F510E4350F58
:100B8F00F50F748C250EF97400350DFA7B01E925EC
:100B9F0012F9EA3511FA1220B9BF0103121B01E550
:100BAF00102404FFE4350FFEEF2512F512EE351178
:100BBF00F5118092121E59121E92F515748D250E85
:100BCF00F5827400121E827983F7E819F7748E2567
:100BDF000EF5827400350DF5837883121E8A748F9B
:100BEF00250EF5827400121E827985F7E819F774C5
:100BFF0090250EF5827400350DF5837885121E8AC7
:100C0F007491250EF5827400121E827987F7E81908
:100C1F00F77492250EF5827400350DF583E0788711
:100C2F00121E8B7493250EF5827400121E82798921
:100C3F00F7E819F77494250EF5827400350DF583D6
:100C4F00E07889121E8B7495250EF5827400121EA2
:100C5F0082798BF7E819F77496250EF582740035B3
:100C6F000DF583E0788B121E8B7497250EF5827429
:100C7F0000121E82798DF7E819F77498250EF58208
:100C8F007400350DF583E0788D121E8B7499250E47
:100C9F00F5827400121E82798FF7E819F7749A257E
:100CAF000EF5827400350DF583E0788F121E8B746C
:100CBF009B250EF5827400121E827991F7E819F7C1
:100CCF00749C250EF5827400350DF583E078911232
:100CDF001E8B7883E6184660047D018002E4FD7F59
:100CEF00821227327885E6184660047D018002E47F
:100CFF00FD7F831227327887E6184660047D0180D6
:100D0F0002E4FD7F841227327889E6184660047D5D
:100D1F00018002E4FD7F85122732788BE61846604A
:100D2F00047D018002E4FD7F86122732788DE6185C
:100D3F004660047D018002E4FD7F87122732788FA1
:100D4F00E6184660047D018002E4FD7F8812273299
:100D5F007891E6184660047D018002E4FD7F8902E8
:050D6F00273212148E72
:010D7400225C
:102AC900E55C855D83855E826559700AE55B658293
:0E2AD9007004E55A658360037F01227F0022AE
:10260000AB5CAA5DA95EE559855A83855B82655CF2
:10261000700AE55E65827004E55D65836021C390A4
:102620000082E55E9582E55D9583400D7A007967CD
:0F263000755C01755D00755E67785C121EC1FFF9
:01263F002278
:10002600020268E86480F8E933E83360110460F09E
:10003600ED33EC337009E8FCE9FDEAFEEBFF220440
:1000460060DED3EB9FEA9EE99DE8C2E78CF0C2F73B
:1000560095F0400CE8CCF8E9CDF9EACEFAEBCFFB07
:1000660012023385D0F05804700320D5B3E804702B
:10007600075002B2D502027292D5EC0460F7E4CCC6
:10008600C0E0C398F8603B94186008400DD0E0FBD0
:1000960002024AE4FBFAC9FC8028E830E406E4C917
:1000A600FBE4CAFCE830E305E4C9CACBFCE8540724
:1000B6006010F8C3E913F9EA13FAEB13FBEC13FC2F
:1000C600D8F130F52FC3E49CFCEF9BFFEE9AFEEDD2
:1000D60099FDD0E0FBEF4E4D4C701222DB0302027D
:1000E6006FEC2CFCEF33FFEE33FEED33FDED30E726
:1000F600EB02024AEF2BFFEE3AFEED39FDD0E0FBB4
:1001060050130BBB0003020272ED13FDEE13FEEF5C
:0801160013FFEC13FC02024A86
:10011E00020272EC5D046005E85904700302026885
:10012E00120233580460F6EC4860F2EC7004FDFEE7
:10013E00FF22C860DB2481C85009C39860025006B4
:10014E0002026F9850CAF582E9294B4A7005AB82BC
:10015E0002025E75F0007C1A7880C3EF9BEE9AED7A
:10016E0099400DC3EF9BFFEE9AFEED99FDE842F02C
:10017E00DC23ACF0D0E0FFD0E0FED0E0FDAB82207F
:10018E00E7101BEB60BAEC2CFCEF33FFEE33FEED09
:10019E0033FD02024AE803F830E705C0F075F000BF
:1001AE00EF2FFFEE33FEED33FD40B830E7C280AAED
:1001BE0075F020800E75F010800575F0087D007EBC
:1001CE00007F003392D530D5031204ACEC334010CF
:1001DE00EF33FFEE33FEED33FDEC33FCD5F0ED22C5
:0E01EE00E5F0247EA2D513CC92E7CDCEFF2201
:1001FC00EDD2E7CD33EC3392D524814006E4FFFEFB
:10020C00FDFC22FCE4CFCECDCC24E0501174FF8059
:10021C00EDC3CC13CCCD13CDCE13CECF13CF0470F6
:07022C00F030D5DE0204AC46
:10023300E9D2E7C933E833F892D5EDD2E7CD33EC11
:0702430033FC5002B2D5228A
:10024A00EC30E7100FBF000C0EBE00080DBD000415
:10025A000BEB6014A2D5EB13FCED92E7FD2274FFC1
:10026A00FCFDFEFF22E480F8A2D574FF13FC7D801A
:03027A00E480EF2E
:101CEE00020D75E493A3F8E493A34003F68001F28A
:101CFE0008DFF48029E493A3F85407240CC8C333F7
:101D0E00C4540F4420C8834004F456800146F6DFC5
:101D1E00E4800B01020408102040809011CAE47E7A
:101D2E00019360BCA3FF543F30E509541FFEE493BA
:101D3E00A360010ECF54C025E060A840B8E493A381
:101D4E00FAE493A3F8E493A3C8C582C8CAC583CAAC
:101D5E00F0A3C8C582C8CAC583CADFE9DEE780BE64
:01132C0000C0
:10027D00BB010689828A83E0225002E722BBFE027F
:09028D00E32289828A83E49322B2
:10029600BB010CE58229F582E5833AF583E022501D
:1002A60006E92582F8E622BBFE06E92582F8E22267
:0D02B600E58229F582E5833AF583E4932281
:1002C300BB010689828A83F0225002F722BBFE011A
:0202D300F32214
:1002D500F8BB010DE58229F582E5833AF583E8F05F
:1002E500225006E92582C8F622BBFE05E92582C80B
:0202F500F222F3
:1002F700EF8DF0A4A8F0CF8CF0A428CE8DF0A42E1B
:02030700FE22D4
:10030900BC000BBE0029EF8DF084FFADF022E4CCD8
:10031900F875F008EF2FFFEE33FEEC33FCEE9DECA1
:10032900984005FCEE9DFE0FD5F0E9E4CEFD22EDE7
:10033900F8F5F0EE8420D21CFEADF075F008EF2F31
:10034900FFED33FD4007985006D5F0F222C398FD22
:050359000FD5F0EA22BF
:10035E00C5F0F8A3E028F0C5F0F8E582158270022A
:06036E001583E038F022C7
:0D037400EF2BFFEE3AFEED39FDEC38FC22D8
:0E038100C3EF9BFFEE9AFEED99FDEC98FC2277
:10038F00E88FF0A4CC8BF0A42CFCE98EF0A42CFC0D
:10039F008AF0EDA42CFCEA8EF0A4CDA8F08BF0A48B
:1003AF002DCC3825F0FDE98FF0A42CCD35F0FCEBEA
:1003BF008EF0A4FEA9F0EB8FF0A4CFC5F02ECD39AF
:0F03CF00FEE43CFCEAA42DCE35F0FDE43CFC221C
:1003DE0075F008758200EF2FFFEE33FECD33CDCCD6
:1003EE0033CCC58233C5829BED9AEC99E582984059
:1003FE000CF582EE9BFEED9AFDEC99FC0FD5F0D636
:10040E00E4CEFBE4CDFAE4CCF9A88222B800C1B95F
:10041E000059BA002DEC8BF084CFCECDFCE5F0CB9D
:10042E00F97818EF2FFFEE33FEED33FDEC33FCEBD6
:10043E0033FB10D703994004EB99FB0FD8E5E4F991
:10044E00FA227818EF2FFFEE33FEED33FDEC33FC7E
:10045E00C933C910D7059BE99A4007EC9BFCE99A72
:10046E00F90FD8E0E4C9FAE4CCFB2275F010EF2FB7
:10047E00FFEE33FEED33FDCC33CCC833C810D707B7
:10048E009BEC9AE899400AED9BFDEC9AFCE899F8F2
:0E049E000FD5F0DAE4CDFBE4CCFAE4C8F92285
:0E04AC00C3E49FFFE49EFEE49DFDE49CFC2261
:1004BA00EB9FF5F0EA9E42F0E99D42F0EC6480C8B9
:0604CA0064809845F02259
:1004D000EB9FF5F0EA9E42F0E99D42F0E89C45F082
:0104E00022F9
:1004E100E8600FECC313FCED13FDEE13FEEF13FFF9
:0304F100D8F1221D
:1004F400E8600FEFC333FFEE33FEED33FDEC33FC66
:03050400D8F12209
:0C050700E6FC08E6FD08E6FE08E6FF2220
:0C051300E0FCA3E0FDA3E0FEA3E0FF225B
:0C051F00E0F8A3E0F9A3E0FAA3E0FB225F
:0C052B00ECF608EDF608EEF608EFF622FC
:0C053700ECF0A3EDF0A3EEF0A3EFF02237
:10054300A8828583F0D083D08212055A12055A12ED
:10055300055A12055AE473E493A3C583C5F0C58312
:10056300C8C582C8F0A3C583C5F0C583C8C582C802
:010573002265
:0C057400A42582F582E5F03583F5832292
:10058000FAE6FB0808E6F925F0F618E6CA3AF6227C
:10059000D083D082F8E4937012740193700DA3A3FA
:1005A00093F8740193F5828883E47374029368600E
:0605B000EFA3A3A380DF0E
:00000001FF
