:03000000021CDD02
:0C1CDD00787FE4F6D8FD75819F021D247D
:1011C500043800000000410006004100420C013FC8
:1011D50040440039000000004400180000000044AD
:1011E500001C0000000044005900000000440045B8
:1011F500000000004400600000000042002C0001D7
:10120500420016000041000B004100370042006516
:10121500000042000C0000410000084100440001AC
:101225003C00013D00410013004100240141002F15
:101235000A4100430A4100360041003800420009D6
:101245000000420014000041000200029900000263
:101255009500001082000000000000000000000062
:10126500000000000001810041005F00017B00419A
:101275000012004200250000420034000041005DDC
:10128500014100030142000400004100010001800A
:10129500000136004100300041004100019200018B
:1012A5007A0002930000029703E8013E0041002EF8
:1012B50000027C0000027E00000137004E004B005A
:1012C50000000000000000000000000000420007D0
:0212D500000017
:1015CB00EF24A0FFEE340FFEE43DFDE43CFC1205DE
:1015DB001FD30204D0E4900044F0753F40900037D5
:1015EB007402F09000007406F0E4900006F0900096
:1015FB00592290001812051390003912051F12037F
:10160B0074900018120537900018020513900039DA
:10161B0012051FC30204D0E4FCFD1203749000609A
:10162B0002053790003D120513EF2470FFEE3417BF
:10163B00FEE43DFDE43CFC90001822122B08E47BF9
:10164B00E87A03F9F890000E020513E475F0010235
:10165B00035ED390002DE0940090002CE0940022C8
:10166B0012051390001C12051F0203747F647E0089
:10167B00022B0890000E020537900039020513E08B
:10168B00FEA3E0FFE4FCFD7B607AEAF9F822D3903D
:10169B000066E09400900065E094002290002FE03B
:1016AB00900043F0227F0A12263B900031EFF0901E
:1016BB00005E22E4FFFEFD7C3F12002D0201FC9038
:1016CB000006E0C3953F2290006002051FD39DECFE
:1016DB006480F87480982290001C020513E47B024E
:1016EB00FAF9F802041A90001802051FE48F2D8EE8
:1016FB002CF52BF52A227E2F122A407F107E2722D3
:102832008E098F0A8B0B8A0C890DAF051DEF602163
:10284200050AE50AAE097002050914F5828E83E4D1
:1028520093FF780BE475F001120580EF1202C3803A
:02286200D92279
:1029CB008F828E83E4F53BF53AF539F538AF82AE5D
:1029DB0083E4FCFDAB3BAA3AA939A838C31204D057
:0829EB00500543BD1080E622F7
:092AFF00E0FF7C2F1229F37F6433
:102B0800E4FDFCC3ED9FEC9E50070DBD00010C8059
:012B1800F2CA
:012B19002299
:102B3400758E5190FE917401F0A37410F075BD5F11
:072B440090FEA07420F022B6
:102AA600E490FE80F0758901758DFA758BCB43A88D
:0E2AB60008438840758CCB758AEB438810224C
:1028640090FF10E054F04408F090FF02E054F0446C
:1028740002F0D28490FFA07420F0A37404F075CC0D
:102884000675CEFF75CD98759E0275981043A810F5
:012894002221
:102B4B0043B40343B4807F147E00122B0875B50188
:072B5B0090FE9B744BF02279
:102B1A0090FF08E04488F090FF00E0540F4430F042
:0A2B2A0090FF11E054F04403F02284
:0B2BF2008F99E59830E1FB5398FD221D
:10263B008FB543B440E5B430E5FB53B4DF121677E6
:10264B00E4FBFAF943B440E5B430E5FB53B4DFE502
:10265B00B62BFBE5B73AFA7F147E00122B0809B9AB
:0C266B0010E275B501A902121677AF014C
:012677002240
:10100A007B017A00794B7D0E7F007E2F1228329069
:10101A00004BE0FFE4FCFDFE12167E121650780823
:10102A001204F412167E90000E12051F90004CE076
:10103A00FFE4FCFDFE12037412167E121650E47BC6
:10104A00E87A03F9F812038F12167EE47F307E7570
:10105A00FDFC90000E12161B40107F007E097D3D9C
:10106A007C0090000E1215D9400A90000E1205431A
:10107A0000009C4090004DE0900064F070028007F0
:10108A00900064E0B4FE0374FFF090004EE0FF901D
:10109A000032E4F0A3EFF0E0F8E4F0E8900032F078
:1010AA0090004FE0FF900032E48FF012035E900050
:1010BA0032E0FEA3E0FF4E6009D3EF9408EE9407F6
:1010CA004009900032E4F0A37405F0900050E090DB
:1010DA00002FF0900038F0900051E0900027F06067
:1010EA0006E0D394FF40069000277401F090005266
:1010FA00E0F45401900024F0900053E05401788108
:10110A00F6A3E05401900013F0900055E0540190CA
:10111A000012F0900056E090005FF0900057E0FF58
:10112A007897760008A607E6F8E47998F7E819F7B9
:10113A00A3E0789826F618E436F6E6FE08E6FF4EAF
:10114A006009D3EF94B8EE940B40077897760308BA
:10115A0076E87B017A0079077D027F807E2F12284C
:10116A0032900007E0900036F0900008E0787BF6B5
:10117A007F807E2F122A407F107E27122B08900034
:10118A0036E004F0E0FF7D807C2F1229F3121677F7
:10119A00787BE67014122BCC90005F7464F0900098
:1011AA002F740AF0900038F022787BE6FFB4010A27
:0B11BA007D817C2F1229F31216772292
:1005B600E53C6003020A9143B440E5B430E5FB53E1
:1005C600B4DF85B70985B60A9000161216561216BC
:1005D600D2AE09AF0A121622900049E0FEA3E0FF50
:1005E600C3950AEE9509500DC3E50A9FF50AE5097C
:1005F6009EF509800BC3EF950AF50AEE9509F509F4
:1006060090001C12051FAE09AF0AE4FCFD1203742C
:1006160090001C120537900016E05401FEA3E04E30
:100626007054121699401990005FE0FF900043E065
:100636009F503BE02402F0E0D39F4032EFF0802E43
:1006460090000CE07004A3E06401702A90002FE093
:10065600FF900043E0FED39F4014EE94024004E076
:1006660024FEF0900043E0C39F50031216A79000AB
:1006760043E0FF1228C4C3900016E0942050030202
:100686000ABA43BD10E4F0A3F0900044E004F0A3DE
:1006960012051390006012167190004512053790EE
:1006A6000044E0C394084035E4F0A3120513781023
:1006B6001204E1900045120537900045120513908B
:1006C6000049EE8FF012035E900049E0C313F0A3D9
:1006D600E013F09000451205430000000090000072
:1006E600E0C394085005E004F08040900065E07097
:1006F60002A3E070361216B0E0FE2402FDE433FCDD
:10070600EF1216D85018900031E02402FDE433FCB5
:10071600EE1216D8500890005EE0900031F090007E
:1007260031E090005EF0E4900000F0E4FFFEFDFC96
:1007360090001812161B70331216E2EF2488FFEE93
:10074600341312163B12053790002CE07002A3E01A
:1007560070197F407E427D0FFC9000181215D9401B
:100766000A900018120543000F4240900006E07000
:10077600131216E29000391205379000281205432D
:100786000000000190002812166B12161840030292
:10079600093990002812051390003912167190003D
:1007A6001C12161B4003020939900006E004F09063
:1007B600005912166B900059120537900006E0FF9B
:1007C600FBE4FAF9F890005912051312041A900086
:1007D6003912053712168478031204E190002812A4
:1007E6000537E47F207E4EFDFC90002812161B5034
:1007F6000A90002812054300004E20E47F607EEA3E
:10080600FDFC9000281215D9400A900028120543D5
:100816000000EA601216849000181215D9403E9026
:10082600003912051F1216121203811216287F8034
:100836007E387D017C009000601215D9400890003A
:10084600427406F0801DE47F407E9CFDFC900060B3
:100856001215D990004240087409F08006900042B3
:10086600740CF0900042E0FF900006E0C39F403910
:100876001216121216185031E53F94105003020951
:1008860048900042E0D39409500512168480111254
:1008960016849000181215CB400C1215FD1216E89E
:1008A6009000181205370209391216CA50030209B8
:1008B600481216129000391215CB406F1216F1121B
:1008C60016841203811216287F007E127D7A7C0020
:1008D60012161850567F807E4F7D127C0090006065
:1008E60012161B5046E53F9410400280327FE07E90
:1008F600937D047C009000601215D94005753F1069
:1009060080187FF07E497D027C009000601215D928
:100916004005753F0C8003753F081216CA400C123D
:1009260015FD1216E89000181205371216CA401265
:10093600E48004E4900006F090005912054300009C
:100946000000900037E0D394004036E014F0121611
:100956002E1215D95003020A4690003D120513EFD8
:100966002498FFEE343AFEE43DFDE43CFC90001C86
:1009760012161B4003020A4612162E120537020AE9
:100986004612165D405774FFF5F012035E12165DAF
:10099600404B7F007E127D7A7C009000181215D99C
:1009A600400C90000E120543000C3500802F1216E5
:1009B600501216F11216257F407E547D897C0090D8
:1009C60000601215D940161216F1C374409BFF74CD
:1009D600549AFE748999FDE498FC12167E121650FC
:1009E60090001812167190001C1215D940529000F2
:1009F60064E0FF900031E0D39F400512165D404051
:100A0600900065E07002A3E0700912161290003D96
:100A1600120537900065E4F0A304F0900025121645
:100A2600569000307401F07880F6F536753F08E48C
:100A360090000CF0A3F07899F608F67895F608F68B
:100A46001216E2900020120537900060120543004E
:100A560000000090001C1205430000000090006595
:100A6600E0FEA3E0FFD39400EE94004047900032EE
:100A7600E0FCA3E0FDD3EF9DEE9C4038E4900065DA
:100A8600F0A3F0753C01900030F02290000CE4F0E9
:100A9600A304F0E4F53C900009F0A3F0900002F006
:100AA600900045120543000000001215E0120543B0
:040AB600000000003C
:010ABA002219
:101FFB00E4F50A90006012054300000000E4F509C7
:10200B0043B440E5B430E5FB53B4DF1216D2AFB6A0
:10201B00AEB71216220509E509B480E47F907E0164
:10202B001229CB900060120513780B1204E18F0973
:10203B00E509D3940C400CE509948D5006E50A9400
:0D204B0014500A050AE50AD3945040A7225C
:012058002265
:1020590090006012054300000000E4F509E4F50C66
:10206900F50D43B440E5B430E5FB53B4DF85B70A59
:1020790085B60B1216D2AE0AAF0B121622050DE564
:102089000D7002050CB400DAE50CB420D543BD107F
:102099000509E509B408C690006012051378101205
:0A20A90004E1900049EEF0A3EFF00F
:0120B300220A
:10221100BF0105E4FCFD802E7E007C017DFF1202E2
:10222100F71C7D64120309AC06AD07E41201C38FEC
:10223100738E728D718C70AB73AA72A971A87012B2
:1022410016BEAC06AD0790FF907411F075DA0175FA
:0E225100E30175E2FF8CE58DE475E10F7F007F
:01225F00225C
:1023DC00BF0104E4FE80307E007C007DFF1202F71A
:1023EC00AC06AD07E41201C3E4FBFA79C8784212DB
:1023FC0001218F0E8E0D8D0C8C0BAB0EAA0DA90C22
:10240C00A80B1216BEAE0790FF9C7410F075DEFF81
:07241C008EDF75DD947F00E7
:012423002296
:1028C4007892E6B507037F00227892A607EF700797
:1028D40090005D04F08010BF6407E490005DF08018
:0D28E4000690005D7402F01223DC7F0022DC
:100D7500122B77122B34122B1A122AA61228641260
:100D85002B4B75BBAA90FEA774FFF053BBF7D2AFF0
:100D95007FC87E001229CB1216B0F0C2AF12100A1E
:100DA5007F641228C4D2AF121FFB90002FE0FF9082
:100DB5000043F01228C47F2C7E011229CB12205942
:100DC50090006012054300000000E4F537900036FE
:100DD500E0D394054007E4F0122BCC8003121AFCF3
:100DE50090001412168AC31204BA5010E49000142D
:100DF500F0A3F0122C36EF7003122BCCE53E6015F4
:100E0500120FF190002EE004F0E0FF7403D39F5021
:100E150004E4F53EF0787AE6601B120FF17894064B
:100E2500E618700106D37484789496740318965066
:100E350004E4787AF6E5376003020EF9900003E0E2
:100E4500FF90005DE0FD6F600D7F7612272D90000D
:100E55005DE0900003F0900041E0FF900030E0FD80
:100E65006F60187F7712272D900030E0900041F0D9
:100E7500B40108787D06E618700106797DE7787F6C
:100E850066700419E71866601C787CE6FE08E6FFC4
:100E95001216F77F7C121D69787CE6FE08E6FF08CE
:100EA500A60608A607900001E064017047F0788067
:100EB500E66401703FF6900025E0FEA3E0FF900098
:100EC50034E06E7003A3E06F602A1216F77F741288
:100ED5001D69900025E0FFA3E0900034CFF0A3EF5B
:100EE500F09000201205138F2D8E2C8D2B8C2A7FD0
:100EF5007D121D69E5366401702AF5367881E66450
:100F0500017021F508E50825E02482F8E6FA08E6EF
:100F1500FB4A6007E4FD7F781221670508E508C3F1
:100F2500940840E143BD10121328900024E06401A9
:100F35006003020FBCE53D701CF53C753D011216C2
:100F4500A7900045120543000000001215E01205A8
:100F550043000000001205B6D390000DE094009008
:100F6500000CE094004033900002E0B4012CE4F062
:100F750090000C121657900027E0FFC390000DE07B
:100F85009F90000CE094004011E4F0A3F090001253
:100F9500E064016005E4FF1228C4121699500302AB
:100FA5000DE57896E6640118466003020DE5F6083E
:100FB500F6121657020DE5E4F53D900013E07007B3
:100FC500FF1228C4020DE5900038E0FF1228C4E4A2
:100FD500F53C1216A79000451205430000000012CB
:0C0FE50015E012054300000000020DE5BD
:100FF1007F641228C47F647E001229CBE4FF12288B
:09100100C47F647E001229CB2299
:03001B0002198641
:10198600C0E0C0F0C083C082C0D075D000C000C027
:1019960001C002C003C004C005C006C007AF3BAE0D
:1019A6003AAD39AC38EF2401FFE43EFEE43DFDE4F8
:1019B6003C8F3B8E3A8D39F53890000912165690B9
:1019C600000912168AD31204BA500C900009E4F0EA
:1019D600A3F090000204F0789A06E618700106C398
:1019E600789AE694E818E69403400C7600087600A8
:1019F600789576000876019000041216567897E6D8
:101A0600FE08E6FFC3900005E09F900004E09E40BC
:101A160009E4F0A3F090000104F0900014121656A9
:101A2600D007D006D005D004D003D002D001D00014
:0B1A3600D0D0D082D083D0F0D0E032BE
:0300230002242490
:10242400C0E0C0F0C083C082C0D075D000C000C07E
:0D24340001C002C003C004C005C006C007FF
:0F244100E59830E00AAF991223915398FED2AF7D
:10245000D007D006D005D004D003D002D001D000E0
:0B246000D0D0D082D083D0F0D0E0328A
:102A400053BBF7C280E5BB20E3F6D280C2AF75FD71
:102A5000F075FC0F8EFA8FF975FDD275FC2D75FDA2
:052A6000E175FC1E22DF
:1029F30053BBF7C280E5BB20E3F6D280C2AF8FFBA7
:102A030075FDF075FC0F8CFA8DF975FDB475FC4BF3
:072A130075FDE175FC1E22B8
:101AFC007F0012170112164612041A78081204E11C
:101B0C007D007C2F1229F37F647E0012164612048E
:101B1C001A7D017C2F1229F31216779000647D0236
:101B2C00122AFF9000327D03122AFFA3E0FF7D04EE
:101B3C00122B0190002FE0FF7D05122B0190002746
:101B4C00E0FF7D06122B01900024E0F4FF7D0712CC
:101B5C002B017881E6FF7D08122B01900013E0FF2A
:101B6C007D09122B01900012E0FF7D0A122B0190CF
:101B7C00005FE0FF7D0B122B017897E6FF7D0C12C6
:101B8C002B0108E6FF7D0D122B017F80121701122D
:101B9C002B087D807C2FE4FF1229F30D0F1229F303
:021BAC00D2AFB6
:011BAE002214
:0412D7000278000099
:101A4100120296FFE52E4FFFE52DFEE52CFDE52B5D
:101A51008F2E8E2D8D2CF52BFC78081204F48F2EF1
:101A61008E2D8D2C22AF2DAE2CAD2BAC2A1204E184
:101A7100AD0722AF4DAE4CAD4BAC4A1204E1AD0700
:101A810022AB07E4FDFC900084E022855D83855E46
:101A910082E55B9582E55A958322C3E579950AFF34
:101AA100E5789509FEC3EF22AC06AD077F0722E476
:101AB10075F001020580AF77AE76AD75AC740204A6
:101AC100E1FEE553FDE552FCE47BFF22E4F51DF563
:101AD1001CF51BF51A22120296AB26AA27A9282269
:101AE100AF05AE04AD0322755901755A00755B67E8
:0B1AF100227486250AF97400350922D2
:101EC600EFC39430400CEFD39439500674D02FFFF3
:101ED6008022EFC39441400CEFD394465006EF2482
:101EE600C9FF8010EFC39461400AEFD39466500493
:101EF600EF24A9FFEF540FC454F0FFEDC394304014
:101F06000CEDD39439500674D02DFD801EEDC3948C
:101F1600414008EDD394465002800CEDC3946140D5
:101F26000AEDD394665004ED24A9FDED540F420743
:011F36002288
:0624F5008B178A188919FB
:1024FB00121ACDE94A4B7005FFFEFDFC22121ACDD4
:10250B007817121AB012027D601AE51D2401FFE440
:10251B00351CFEE4351BFDE4351A8F1D8E1C8D1BFF
:0C252B00F51A80DCAF1DAE1CAD1BAC1A15
:012537002281
:062798008B408A418942DA
:10279E008B468A478948E94A4B7004FBFAF922E5D1
:1027AE00451545AE44700215444E600B7846121A1C
:0D27BE00B0ED1202C380E8AB40AA41A94271
:0127CB0022EB
:061800008B1E8A1F8920E7
:101806008B268A27892885212985222A85232BE963
:101816004A4B6008E5234522452170077B007A0084
:10182600790022D3852A83852B82E5289582E527B0
:1018360095834019E52B2525F9E52A3524FA8A836F
:101846008982D3E5289582E52795834032E4F52CF5
:10185600F52DC3E52D9525E52C9524505BAB29AADE
:101866002AA92B852D82852C83121AD7852D828550
:101876002C831202D5052DE52D70D7052C80D38536
:10188600242C85252DD3E52D9400E52C94004028A5
:10189600AB29AA2AA92BE52D24FFFFE52C34FFFE50
:1018A6008F82F583121AD78F828E831202D5E52D89
:0E18B600152D70D1152C80CDAB1EAA1FA920B8
:0118C4002201
:1027CC008F778E768D758C7478181204E1EF120267
:1027DC00C37810121AB7900001EF1202D5780812C4
:1027EC001AB7900002EF1202D5E577FF900003EFC5
:0327FC000202D501
:10234600E4F52EF52DF52CF52B12027DFFE48F2EEC
:10235600F52DF52CF52BAE2DAD2CAC2B121A5A8C77
:102366002B900001121A418C2B900002121A418CFC
:102376002B900003120296FFE52E4FFFE52DFEE59A
:0A2386002CFDE52B121A5FF52BFC6D
:01239000222A
:062C3000900085E0FF2288
:0C2BE600E4900085F0FDFC7F040221BE9D
:062C3600900082E0FF2285
:0822AE008F5F8B608A61896279
:1022B600121A84B401037F0122AF05AE04AD5F128A
:1022C6002BD9AC06E4FD122BD9AC06E563FD122B27
:1022D600D9AC06AD64122BD9AC06AD07AB60AA61CA
:1022E600A96285631C85641D122895121AA91221FC
:0322F600BE7F01A7
:0122F90022C2
:02257A008D26AC
:10257C00121A82B401037F0122121AE11225AEE471
:10258C00FD1225AEAD07E5267003FD8006AF05AE46
:10259C00047D01122BD9AC06AD077F071221BE7F3B
:0125AC00012D
:0E25AD0022122BD9AC067D01122BD9AC0622CE
:081F9C008F6B8D6C8A6D8B6E5A
:101FA400E4FDFCF56F900084E0B401037F0122AFEF
:101FB40005AE04E56DFD122BD9AC06AD6E122BD91E
:101FC400AC06AD6B121FEEE4FD121FEEAD07E56C1F
:101FD4007003FD8006AF05AE047D01122BD9AC065B
:091FE400AD077FB21221BE7F019E
:0E1FED0022122BD9AC067D01122BD9AC062294
:082167008F288D298A2A8B2B99
:10216F00E4FDFCF52C900084E0B401037F0122AF65
:10217F0005AE04E52AFD122BD9AD2B1221B6AD28E1
:10218F00122BD97D041221B6E4FD122BD9AC067D9A
:10219F0001122BD9AC06AD29122BD9AC06AD077F96
:0621AF00B21221BE7F0107
:0921B50022AC06122BD9AC062263
:101D6900121A82B401037F0122121AE1122BD9AC93
:101D7900067D02122BD9AC06E4FD122BD9AC067DE7
:101D890004122BD9C006C0077818121A66D007D0DA
:101D990006122BD9C006C0077810121A66D007D0D0
:101DA90006122BD9C006C007AF2DAE2CAD2BAC2A1D
:101DB90078081204E1AD07D007D006122BD9AC067A
:101DC900C007E52DFFE4AD07D007122BD9121AA9D8
:051DD9001221BE7F0194
:011DDE0022E2
:021C4A008F49C0
:101C4C00E4FDFCF550900084E0B401037F0122AF69
:101C5C0005AE04E54EFD122BD9AC06AD4F122BD9B7
:101C6C00AC06AD49122BD9AC067D02122BD9AC06B1
:101C7C00E4FD122BD9AC067D04122BD9C006C0078B
:101C8C007818121A74D007D006122BD9C006C007C8
:101C9C007810121A74D007D006122BD9C006C007C0
:101CAC00AF4DAE4CAD4BAC4A78081204E1AD07D049
:101CBC0007D006122BD9AC06C007E54DFFE4AD07E3
:101CCC00D007122BD9AC06AD077FB21221BE7F0113
:011CDC0022E5
:0822FA008F658B668A67896815
:10230200121A84B401037F0122AF05AE04AD651237
:102312002BD9AC067D03122BD9AC06E569FD122B35
:10232200D9AC06AD6A122BD9AC06AD07AB66AA676B
:10233200A96885691C856A1D122895121AA912219D
:03234200BE7F015A
:012345002275
:02272D008D28F5
:10272F00121A82B401037F0122121AE1122BD9ACC3
:10273F00067D04122BD9AC06E4FD122BD9AC067D15
:10274F0001122BD9AC06AD28122BD9121AA91221BE
:03275F00BE7F0139
:012762002254
:0218C500AD076D
:1018C700E4F556F557900084E0B401037F01221236
:1018D70019667D0512197EE4FD12197E74FFFFE576
:1018E70054121AC2FAF9F8C31204D070097D011212
:1018F7001966AD55803D74FFFF121AC27AFFF9F8D9
:10190700C31204D070047D0280197D041219727805
:101917001812194DAF55AE54AD53AC52781012048E
:10192700E1AD07121972780812194DE555FFE4ADBC
:1019370007AF57122BD98E568F57AD57AC567F0727
:051947001221BE7F012A
:10194C0022AF55AE54AD53AC521204E1AD07AF57B4
:10195C00AE56122BD98E568F5722AF57AE56122B2E
:10196C00D98E568F5722AF57AE56122BD98E568F13
:0A197C005722122BD98E568F5722E6
:082BFD008C268D2712027DFFDA
:012C050022AC
:082C06008C288D2912027DFFCC
:012C0E0022A3
:072C18008C298D2A122346CE
:012C1F002292
:102391008F35D3121A8C4015E55B955EFFE55A9592
:1023A1005DFEC3EF941BEE64809480502DC3121A1E
:1023B1008C500DC3E55E955BFFE55D955A4F601A44
:1023C100C3900082121A9240077A007967121AE8C4
:0B23D1007859121AB0E5351202C32241
:10132800E4F509F50AF50BF50CC3E579941FE578A2
:1013380094005024122AC4EFD39400401B1225FBBA
:101348000579E579AC7870020578142486F58274FD
:10135800003CF583EFF080D1C3E5799407E57894F4
:10136800005003021488121A9B9407EE940050034D
:101378000214577486250AF58274003509F583E04E
:101388006455600A050AE50A70DC050980D8748787
:10139800250AF58274003509F583E064AA600A0518
:1013A8000AE50A70C1050980BD7488250AF58274AA
:1013B800003509F583E0600474028038748A250AD0
:1013C800F58274003509F583E0FE748B250AF582F1
:1013D80074003509F583E07C002400FFEC3ECF243F
:1013E80007F50CE43FF50BD3E50C9426E50B9400C8
:1013F80040097403250AF50AE4804D121A9B950CDE
:10140800EE950B404A121AF2FA7B01E50C24FFFD17
:10141800E50B34FFFC122A1AE50A250CFDE509350F
:101428000BFC74852DF58274003CF583E06F600930
:101438007403250AF50AE4800FAF0AAE09120ABB45
:10144800E50C250AF50AE50B3509F50902136EC303
:10145800E579950AF579E5789509F578D3E57994EC
:1014680000E57894004019121AF2752101F52289D5
:10147800238578248579257B017A007986121800DE
:011488002241
:102B7700121AE8755C01755D00755E6790008274D6
:032B8700FFF0223A
:1012DB00019F00049B00000000603C00C40101035F
:1012EB0002040265046602670168026902710172F9
:1012FB000173017402750176047704780479027A1C
:10130B00017B047C027D02820483048404850486B1
:09131B0004870488048904960487
:1027FF00AB1EAA1FA920AD22AC2122900025E0FE1E
:10280F00A3E0FFE48F2D8E2CF52BF52A22E0FFE4B9
:10281F008F2DF52CF52BF52A22E0FFE4FCFDFEC3EE
:03282F000204D0D0
:0D2BCC00E4FDFC7F041221BE787A76012220
:102AE200E4FEEF7004FFFD8006EEFF7E007D011222
:0D2AF2002BD9AE07EEFD7C007FB10221BEA6
:03001E00022BF2C0
:101489007D017F011215B59000137F7112156E90C1
:10149900002F12281C7F0312157B900064E0FFB413
:1014A900FF05E4F516801EEFB4C805751602801510
:1014B900EFB42805751603800CEFB41405751604EE
:1014C9008003751605AD167F651215C0900032129E
:1014D900280D7F6612157B9000247F6712156E9088
:1014E900002712281C7F68121586E47B107A27F9D9
:1014F900F890000E12051312041AC374329F1228B1
:101509001D7F691215867881E67F7212159E9000FB
:101519005F12281C7F041215AA900012E07F731233
:10152900159E12280A7F741215AA90005D7F761203
:1015390015919000307F771215917D017F781215F2
:10154900C07897E6FE08E61228117F79121D697F97
:10155900647E001229CBAD3E7F7A1215B5E4FDFCFD
:051569007FB40221BE69
:10156E00E0FD12257A7F647E001229CB22121D69BE
:10157E007F647E001229CB22121D697F647E0012C9
:10158E0029CB22E0FD12272D7F647E001229CB226B
:10159E00FD12257A7F647E001229CB22121D697FEF
:1015AE00647E001229CB2212257A7F647E001229D6
:0D15BE00CB2212272D7F647E001229CB2244
:102B8A00122BFD8F257D017F0112257A8F247F026A
:012B9A002218
:10246B00E4F528122C188F278E268D258C249000AE
:10247B002FAB27AA26A925A8241228287003752874
:10248B0001AF2790002FEFF0FE900038F012281EBE
:10249B007F03121D69BF010AE52860037F02227FBB
:0424AB0001227F008B
:0124AF00220A
:1028F100E4F524122C1890005FE0B507037524015C
:1029010090005FEFF012281E7F04121D69BF010ABB
:0C291100E52460037F02227F01227F008A
:01291D002297
:101F3700E4F524122C06789FE6B50703752401EF14
:101F470014601014601514601A14601F14602424A0
:101F570005702890006474FFF0802090006474C8B6
:101F6700F080189000647428F08010900064741456
:101F7700F08008900031E0900064F0789FEFF6FD64
:101F87007F6512272DBF010AE52460037F02227FA8
:041F970001227F00A4
:011F9B002223
:10226000E4F528122C188F278E268D258C249000BB
:1022700032E0FEA3E0FFE4FCFDAB27AA26A925A8D7
:1022800024C31204D07003752801AE26AF27900036
:1022900032EEF0A3EFF01228127F66121D69BF0123
:0D22A0000AE52860037F02227F01227F00F3
:0122AD00220E
:10294A00E4F524122BFD900024E0B5070375240159
:10295A00900024EFF0FD7F6712257ABF010AE52473
:0A296A0060037F02227F01227F003C
:012974002240
:1025BB00E4F528122C188F278E268D258C2490005D
:1025CB0027AB27AA26A925A824122828700375282B
:1025DB0001AF27900027EFF012281E7F68121D69AC
:0F25EB00BF010AE52860037F02227F01227F00E3
:0125FA0022BE
:101DDF00E4F528122C188F278E268D258C24789BBE
:101DEF00120507AB27AA26A925A824C31204D07071
:101DFF0003752801AF27AE26AD25AC24789B1205BD
:101E0F002BC374329527FFE49526FEE49525FDE458
:101E1F009524FCE47B107A27F9F812038F90000EBB
:101E2F00120537789B1205078F2D8E2C8D2B8C2A40
:101E3F007F69121D69BF010AE52860037F02227FB7
:041E4F0001227F00ED
:011E5300226C
:10297500E4F524122BFD900013E0B507037524013F
:10298500900013EFF0FD7F7112257ABF010AE5244F
:0A29950060037F02227F01227F0011
:01299F002215
:1026B500E4F524122BFD7881E6B50703752401782E
:1026C50081EFF6122AE27881E66008E4FDFC7FB42A
:1026D5001221BE7881E6FD7F7212257ABF010AE5D7
:0B26E5002460037F02227F01227F009F
:0126F00022C7
:1029A000E4F524122BFD900012E0B5070375240115
:1029B000900012EFF0FD7F7312257ABF010AE52423
:0A29C00060037F02227F01227F00E6
:0129CA0022EA
:10000300122BFDEF600FE4900025F0A3F012280AF5
:070013007F74121D697F02DA
:01001A0022C3
:10291E00122C06AD07ED146016047016900065E4D7
:10292E00F0A304F090003704F0900030F0800375AF
:0B293E003E017F7812272D8F247F02BE
:01294900226B
:10276300E4F524122C187897E6FC08E6B50707EE83
:10277300B504037524017897EEF608EFF6122812D4
:102783007F79121D69BF010AE52460037F02227F5E
:0427930001227F00A0
:01279700221F
:102B6200122BFDEF6003753E01E4FD7F7A12257A98
:042B72008F247F022B
:012B7600223C
:10210F00E4F527122C068F25E52514603704703C63
:10211F007881E664017035F526E52625E02482F8FE
:10212F00E6FA08E6FB4A600A7D017F78122167759F
:10213F0027010526E526C3940840DEE527600D75C7
:10214F003E018008E4FDFC7FB41221BEAD257F7BEC
:07215F0012272D8F247F02DF
:012166002256
:10253800122C068F25E525146015146017146019F0
:1025480014601B14601D2405701C122C4580171282
:102558002C488012122C3C800D122C0F800812007F
:102568002180031224B0AD257F9612272D8F247F5A
:012578000260
:01257900223F
:06170B008B1E8A1F8920DD
:10171100EF120590174C01175703176204176D65F7
:10172100177866178367178E6817996917A4711759
:10173100AF7217B97317C37517CD7817D77917E13A
:101741007A17EB7B17F596000017FD1227FF122B76
:101751008A8F230217FD1227FF12246B8F23021792
:10176100FD1227FF1228F18F230217FD1227FF1206
:101771001F378F230217FD1227FF1222608F2302CA
:1017810017FD1227FF12294A8F230217FD1227FF87
:101791001225BB8F230217FD1227FF121DDF8F2396
:1017A1000217FD1227FF1229758F230217FD122739
:1017B100FF1226B58F2380441227FF1229A08F2301
:1017C100803A1227FF1200038F2380301227FF1265
:1017D100291E8F2380261227FF1227638F23801C47
:1017E1001227FF122B628F2380121227FF12210F63
:0E17F1008F2380081227FF1225388F23AF2385
:0117FF0022C7
:032C42007F1E22D0
:032C4500022B9BC4
:032C4800022BACB0
:062C3C001224B0022BCCB3
:092C0F007D017C007F040221BE5E
:0100210022BC
:1024B00090000E12054300009C4090006474FFF0F1
:1024C000900032E4F0A37405F090002F740AF090AD
:1024D00000277401F0900024F0E47881F690001356
:1024E000F0900012F090005F7464F0789776030823
:0524F00076E8021AFC71
:102B9B00C2AF75FDF075FC0F75FD8775FC78D2AF74
:012BAB002207
:102BAC00C2AF75FDF075FC0F75FD7875FC87D2AF63
:012BBC0022F6
:0F2BBD0064646E6F6861663600312E302E300012
:031324000158006D
:101E5400748A250EF5827400350DF583E07514003F
:101E6400F513748B250EF5827400350DF583E0258A
:101E740014F514E43513F51322350DF583E0F8E475
:101E840022E026F618E436F622748C250EF58274C8
:101E940000350DF583E02212051378101204E1AD2C
:101EA400072212051378081204E1AD072274AB2F40
:101EB400F974003EFA7B0122E475F00112058002F8
:021EC400027D9D
:101BAF00E4FFFE900049E0C4F854F0C8A3E0C45429
:101BBF000F48FD122BD97E00900031E0FD122BD97A
:101BCF007E00C006C007900018121E9BD007D006DB
:101BDF00122BD97E00C006C007900018121EA6D087
:101BEF0007D006122BD97E00C006C0079000201226
:101BFF001E9BD007D006122BD97E00C006C00790BF
:101C0F000020121EA6D007D006122BD97E00C006C8
:101C1F00C00790000E121E9BD007D006122BD97E44
:101C2F0000C006C00790000E121EA6D007D00612E5
:0B1C3F002BD9EFFD7C007FC00221BE0E
:082C2000E4FDFC7FC10221BEAE
:0C2BD900121EB1ED1202C30FBF00010E6E
:012BE50022CD
:0A2895008E178F188B198A1A891B01
:10289F00121EB1851921851A22851B23851C2485BB
:1028AF001D25121800E51D2518F518E51C3517F51F
:0428BF0017FEAF1839
:0128C30022F2
:102678008B308A3189328C338D34E94A4B602DE5B1
:102688003445336027E5341534AE33700215334EC4
:10269800601AAB30AA31A93212027DFF12001E74F3
:0D26A800012532F532E43531F53180D922BB
:0A2A1A008B308A3189328C338D3401
:102A2400E4FFFDFCC3ED9534EC9533500E78301281
:0B2A34001EBC2FFF0DBD00010C80E94F
:012A3F002274
:0421BE008C2E8D2FA7
:1021C2009000A57455F0A374AAF0E4A3F0A3EFF075
:1021D200E52EA3F0E52FA3F02407F52FE4352EF525
:1021E2002E7B017A0079A5E52F24FFFDE52E34FF31
:1021F200FC122A1A74A4252FF5827400352EF58359
:0F220200EFF07B017A0079A5AD2FAC2E02267884
:102A8600E4FFE558700AFEFD122BD9755801800740
:102A96007E007D01122BD9EFFD7C00E4FF0221BEF2
:1026F100E4F5167A2B79BD12271D7A2B79BD1228A4
:10270100958F167A2B79C612271D7A2B79C6122836
:0C271100958F16EFFD7C007F010221BEB9
:10271D007BFF1224F58E1C8F1DAF167E007BFF22D2
:082C2800E4FDFC7F020221BE65
:022A65008F1DC3
:102A6700122C42E4FEEEC39F501275F002EE900066
:0E2A7700C4120574E0651D60030E80E9AF0611
:012A8500222E
:0620B4008B168A17891843
:1020BA0012027DF519900001120296F51A9000029B
:1020CA00120296751C00F51B900003120296251C3D
:1020DA00F51CE4351BF51BAF19122A6575F002EFE2
:1020EA009000C5120574E0651A60037F0022AB16E2
:1020FA00E5182404F9E43517FA851B21851C22AF5B
:04210A001912170B84
:01210E0022AE
:040ABB008E0D8F0EFF
:100ABF0074892FF58274003EF583E0FF1205900BC9
:100ACF0007000B0A010B0D020B10030B46040B4D15
:100ADF00060D71080AF3B10BC3B40B01C00B04C1AF
:100AEF0000000D74121E8D6003020D74FDFC7FB4A7
:100AFF008042021BAF022C20022A860226F1022C12
:100B0F0028121E8DFF900082F0BF020E121AFC12E7
:100B1F001489E4F537787AF68015900082E0FFB4F7
:100B2F0001057537018008EF753701787A7601E492
:100B3F00FDFC7F030221BE9000857401F022121E7E
:100B4F0054E4F511F512C3E5129514E51195134010
:100B5F0003020D74E50E2512FDE50D3511FC748EA3
:100B6F002DF58274003CF583E0751000F50F748F3E
:100B7F002DF58274003CF583E02510F510E4350F58
:100B8F00F50F748C250EF97400350DFA7B01E925EC
:100B9F0012F9EA3511FA1220B4BF0103121AFCE55B
:100BAF00102404FFE4350FFEEF2512F512EE351178
:100BBF00F5118092121E54121E8DF515748D250E8F
:100BCF00F5827400121E7D7983F7E819F7748E256C
:100BDF000EF5827400350DF5837883121E85748FA0
:100BEF00250EF5827400121E7D7985F7E819F774CA
:100BFF0090250EF5827400350DF5837885121E85CC
:100C0F007491250EF5827400121E7D7987F7E8190D
:100C1F00F77492250EF5827400350DF583E0788711
:100C2F00121E867493250EF5827400121E7D79892B
:100C3F00F7E819F77494250EF5827400350DF583D6
:100C4F00E07889121E867495250EF5827400121EA7
:100C5F007D798BF7E819F77496250EF582740035B8
:100C6F000DF583E0788B121E867497250EF582742E
:100C7F0000121E7D798DF7E819F77498250EF5820D
:100C8F007400350DF583E0788D121E867499250E4C
:100C9F00F5827400121E7D798FF7E819F7749A2583
:100CAF000EF5827400350DF583E0788F121E867471
:100CBF009B250EF5827400121E7D7991F7E819F7C6
:100CCF00749C250EF5827400350DF583E078911232
:100CDF001E867883E6184660047D018002E4FD7F5E
:100CEF008212272D7885E6184660047D018002E484
:100CFF00FD7F8312272D7887E6184660047D0180DB
:100D0F0002E4FD7F8412272D7889E6184660047D62
:100D1F00018002E4FD7F8512272D788BE61846604F
:100D2F00047D018002E4FD7F8612272D788DE61861
:100D3F004660047D018002E4FD7F8712272D788FA6
:100D4F00E6184660047D018002E4FD7F8812272D9E
:100D5F007891E6184660047D018002E4FD7F8902E8
:050D6F00272D1214897C
:010D7400225C
:102AC400E55C855D83855E826559700AE55B658298
:0E2AD4007004E55A658360037F01227F0022B3
:1025FB00AB5CAA5DA95EE559855A83855B82655CF8
:10260B00700AE55E65827004E55D65836021C390A9
:10261B000082E55E9582E55D9583400D7A007967D2
:0F262B00755C01755D00755E67785C121EBCFF03
:01263A00227D
:10002600020268E86480F8E933E83360110460F09E
:10003600ED33EC337009E8FCE9FDEAFEEBFF220440
:1000460060DED3EB9FEA9EE99DE8C2E78CF0C2F73B
:1000560095F0400CE8CCF8E9CDF9EACEFAEBCFFB07
:1000660012023385D0F05804700320D5B3E804702B
:10007600075002B2D502027292D5EC0460F7E4CCC6
:10008600C0E0C398F8603B94186008400DD0E0FBD0
:1000960002024AE4FBFAC9FC8028E830E406E4C917
:1000A600FBE4CAFCE830E305E4C9CACBFCE8540724
:1000B6006010F8C3E913F9EA13FAEB13FBEC13FC2F
:1000C600D8F130F52FC3E49CFCEF9BFFEE9AFEEDD2
:1000D60099FDD0E0FBEF4E4D4C701222DB0302027D
:1000E6006FEC2CFCEF33FFEE33FEED33FDED30E726
:1000F600EB02024AEF2BFFEE3AFEED39FDD0E0FBB4
:1001060050130BBB0003020272ED13FDEE13FEEF5C
:0801160013FFEC13FC02024A86
:10011E00020272EC5D046005E85904700302026885
:10012E00120233580460F6EC4860F2EC7004FDFEE7
:10013E00FF22C860DB2481C85009C39860025006B4
:10014E0002026F9850CAF582E9294B4A7005AB82BC
:10015E0002025E75F0007C1A7880C3EF9BEE9AED7A
:10016E0099400DC3EF9BFFEE9AFEED99FDE842F02C
:10017E00DC23ACF0D0E0FFD0E0FED0E0FDAB82207F
:10018E00E7101BEB60BAEC2CFCEF33FFEE33FEED09
:10019E0033FD02024AE803F830E705C0F075F000BF
:1001AE00EF2FFFEE33FEED33FD40B830E7C280AAED
:1001BE0075F020800E75F010800575F0087D007EBC
:1001CE00007F003392D530D5031204ACEC334010CF
:1001DE00EF33FFEE33FEED33FDEC33FCD5F0ED22C5
:0E01EE00E5F0247EA2D513CC92E7CDCEFF2201
:1001FC00EDD2E7CD33EC3392D524814006E4FFFEFB
:10020C00FDFC22FCE4CFCECDCC24E0501174FF8059
:10021C00EDC3CC13CCCD13CDCE13CECF13CF0470F6
:07022C00F030D5DE0204AC46
:10023300E9D2E7C933E833F892D5EDD2E7CD33EC11
:0702430033FC5002B2D5228A
:10024A00EC30E7100FBF000C0EBE00080DBD000415
:10025A000BEB6014A2D5EB13FCED92E7FD2274FFC1
:10026A00FCFDFEFF22E480F8A2D574FF13FC7D801A
:03027A00E480EF2E
:101CE900020D75E493A3F8E493A34003F68001F28F
:101CF90008DFF48029E493A3F85407240CC8C333FC
:101D0900C4540F4420C8834004F456800146F6DFCA
:101D1900E4800B01020408102040809011C5E47E84
:101D2900019360BCA3FF543F30E509541FFEE493BF
:101D3900A360010ECF54C025E060A840B8E493A386
:101D4900FAE493A3F8E493A3C8C582C8CAC583CAB1
:101D5900F0A3C8C582C8CAC583CADFE9DEE780BE69
:0113270000C5
:10027D00BB010689828A83E0225002E722BBFE027F
:09028D00E32289828A83E49322B2
:10029600BB010CE58229F582E5833AF583E022501D
:1002A60006E92582F8E622BBFE06E92582F8E22267
:0D02B600E58229F582E5833AF583E4932281
:1002C300BB010689828A83F0225002F722BBFE011A
:0202D300F32214
:1002D500F8BB010DE58229F582E5833AF583E8F05F
:1002E500225006E92582C8F622BBFE05E92582C80B
:0202F500F222F3
:1002F700EF8DF0A4A8F0CF8CF0A428CE8DF0A42E1B
:02030700FE22D4
:10030900BC000BBE0029EF8DF084FFADF022E4CCD8
:10031900F875F008EF2FFFEE33FEEC33FCEE9DECA1
:10032900984005FCEE9DFE0FD5F0E9E4CEFD22EDE7
:10033900F8F5F0EE8420D21CFEADF075F008EF2F31
:10034900FFED33FD4007985006D5F0F222C398FD22
:050359000FD5F0EA22BF
:10035E00C5F0F8A3E028F0C5F0F8E582158270022A
:06036E001583E038F022C7
:0D037400EF2BFFEE3AFEED39FDEC38FC22D8
:0E038100C3EF9BFFEE9AFEED99FDEC98FC2277
:10038F00E88FF0A4CC8BF0A42CFCE98EF0A42CFC0D
:10039F008AF0EDA42CFCEA8EF0A4CDA8F08BF0A48B
:1003AF002DCC3825F0FDE98FF0A42CCD35F0FCEBEA
:1003BF008EF0A4FEA9F0EB8FF0A4CFC5F02ECD39AF
:0F03CF00FEE43CFCEAA42DCE35F0FDE43CFC221C
:1003DE0075F008758200EF2FFFEE33FECD33CDCCD6
:1003EE0033CCC58233C5829BED9AEC99E582984059
:1003FE000CF582EE9BFEED9AFDEC99FC0FD5F0D636
:10040E00E4CEFBE4CDFAE4CCF9A88222B800C1B95F
:10041E000059BA002DEC8BF084CFCECDFCE5F0CB9D
:10042E00F97818EF2FFFEE33FEED33FDEC33FCEBD6
:10043E0033FB10D703994004EB99FB0FD8E5E4F991
:10044E00FA227818EF2FFFEE33FEED33FDEC33FC7E
:10045E00C933C910D7059BE99A4007EC9BFCE99A72
:10046E00F90FD8E0E4C9FAE4CCFB2275F010EF2FB7
:10047E00FFEE33FEED33FDCC33CCC833C810D707B7
:10048E009BEC9AE899400AED9BFDEC9AFCE899F8F2
:0E049E000FD5F0DAE4CDFBE4CCFAE4C8F92285
:0E04AC00C3E49FFFE49EFEE49DFDE49CFC2261
:1004BA00EB9FF5F0EA9E42F0E99D42F0EC6480C8B9
:0604CA0064809845F02259
:1004D000EB9FF5F0EA9E42F0E99D42F0E89C45F082
:0104E00022F9
:1004E100E8600FECC313FCED13FDEE13FEEF13FFF9
:0304F100D8F1221D
:1004F400E8600FEFC333FFEE33FEED33FDEC33FC66
:03050400D8F12209
:0C050700E6FC08E6FD08E6FE08E6FF2220
:0C051300E0FCA3E0FDA3E0FEA3E0FF225B
:0C051F00E0F8A3E0F9A3E0FAA3E0FB225F
:0C052B00ECF608EDF608EEF608EFF622FC
:0C053700ECF0A3EDF0A3EEF0A3EFF02237
:10054300A8828583F0D083D08212055A12055A12ED
:10055300055A12055AE473E493A3C583C5F0C58312
:10056300C8C582C8F0A3C583C5F0C583C8C582C802
:010573002265
:0C057400A42582F582E5F03583F5832292
:10058000FAE6FB0808E6F925F0F618E6CA3AF6227C
:10059000D083D082F8E4937012740193700DA3A3FA
:1005A00093F8740193F5828883E47374029368600E
:0605B000EFA3A3A380DF0E
:00000001FF
