:03000000021C815E
:0C1C8100787FE4F6D8FD758188021CC84D
:1013F200045000000000410006004100420C410080
:10140200434044003900000000440018000000007E
:1014120044001C0000000044005D00000000440085
:1014220047000000004400630000000042002D005D
:1014320001420016000041000D0041003700420049
:1014420068000042000E0000410000084100450013
:1014520001540001550041001500410024014100E2
:101462002F0A410046004100440A41003600410073
:10147200380042000B00004100020002820000021C
:10148200800000106D00000000000000000000005D
:101492000000000000016C00016B000168004100C7
:1014A2000A004100070041001400420025000042EA
:1014B20000340000410061004100030042000400CA
:1014C200004100010041002C004100300041004178
:1014D20000017D00016900027E0000016A005000E7
:1014E2004D000000000000000000000000000000AD
:0614F200004200080000AA
:10129D00EF24A0FFEE340FFEE43DFDE43CFC12050F
:1012AD001FD30204D0E4900045F09000437440F049
:1012BD009000377402F09000007406F0E490000680
:1012CD00F090005D22900018120513900039120560
:1012DD001F120374900018120537900018020513A1
:1012ED0090003912051FC30204D0E4FCFD120374F3
:1012FD0090006302053790003D120513EF2470FF37
:10130D00EE3417FEE43DFDE43CFC90001822122A59
:10131D0092E47BE87A03F9F890001002051390002F
:10132D0043E0FF900006E0C39F22D390002EE0948F
:10133D000090002DE0940022E475F00102035E128E
:10134D00051390001C12051F0203741202F7AC0660
:10135D00AD07E41201C3E4FBFA79C878420201211A
:10136D007F647E00022A92900010020537900039AA
:10137D00020513E4FFFEFD7C3F12002D0201FCD39C
:10138D00900069E09400900068E094002290002F96
:10139D00E0900044F0227F0A122689900031EFF090
:1013AD0090006222F0900047020513E50825E02425
:1013BD006EF9E719472290006302051FD39DEC6477
:1013CD0080F87480982290001C020513E47B02FAC9
:1013DD00F9F802041A90001802051F7E2F1229CA6F
:0513ED007F107E2722A5
:1028C3008E098F0A8B0B8A0C890DAF051DEF6021D2
:1028D300050AE50AAE097002050914F5828E83E440
:1028E30093FF780BE475F001120580EF1202C380A9
:0228F300D922E8
:102955008F828E83E4F553F552F551F550AF82AE73
:1029650083E4FCFDAB53AA52A951A850C31204D06D
:08297500500543BD1080E6226D
:092A8900E0FF7C2F12297D7F641F
:102A9200E4FDFCC3ED9FEC9E50070DBD00010C80D0
:012AA200F241
:012AA3002210
:10000300758E5190FE917401F0A37410F075BD5F6D
:0700130090FEA07420F02212
:102A3000E490FE80F0758901758DFA758BCB43A803
:0E2A400008438840758CCB758AEB43881022C2
:1028F50090FF10E054F04408F090FF02E054F044DB
:1029050002F0D28490FFA07420F0A37404F075CC7B
:102915000675CEFF75CD98759E0275981043A81063
:01292500228F
:102ABE0043B40343B4807F147E00122A9275B5018D
:072ACE0090FE9B744BF02207
:102AA40090FF08E04488F090FF00E0540F4430F0B9
:0A2AB40090FF11E054F04403F022FB
:0B2B34008F99E59830E1FB5398FD22DB
:102689008FB543B440E5B430E5FB53B4DF12136DA5
:10269900E4FBFAF943B440E5B430E5FB53B4DFE5B4
:1026A900B62BFBE5B73AFA7F147E00122A9209B9D4
:0C26B90010E275B501A90212136DAF010B
:0126C50022F2
:100FC6007B017A00794D7D107F007E2F1228C39019
:100FD600004DE0FFE4FCFDFE1213741213257808A1
:100FE6001204F412137490001012051F90004EE0C4
:100FF600FFE4FCFDFE120374121374121325E47B46
:10100600E87A03F9F812038F121374E47F307E75C1
:10101600FDFC9000101212F040107F007E097D3D0D
:101026007C009000101212AB400A9000101205438B
:1010360000009C4090004FE0900067F0700280072F
:10104600900067E0B4FE0374FFF0900050E0FF905C
:101056000032E4F0A3EFF0E0F8E4F0E8900032F0BC
:10106600900051E0FF900032E48FF012035E900092
:1010760032E0FEA3E0FF4E6009D3EF9408EE94073A
:101086004009900032E4F0A37405F0900052E0901D
:10109600002FF0900038F0900053E0900027F060A9
:1010A60006E0D394FF40069000277401F0900054A8
:1010B600E0F45401900024F0900055E05401786C5F
:1010C600F6A3E05401900015F0900057E05401900B
:1010D6000014F0900058E090000AF07B017A007945
:1010E600087D027F807E2F1228C3900008E09000C2
:1010F60036F0900009E0900007F07F807E2F1229DD
:10110600CA7F107E27122A92900036E004F0E0FF94
:101116007D807C2F12297D12136D900007E07003ED
:10112600022B0E900007E0FFB4010A7D817C2F128E
:06113600297D12136D2259
:1005B600E5546003020A9043B440E5B430E5FB53CA
:1005C600B4DF85B70985B60A9000161213451213D3
:1005D600C3AE09AF0A1212F790004BE0FEA3E0FF8C
:1005E600C3950AEE9509500DC3E50A9FF50AE5097C
:1005F6009EF509800BC3EF950AF50AEE9509F509F4
:1006060090001C12051FAE09AF0AE4FCFD1203742C
:1006160090001C120537900016E05401FEA3E04E30
:10062600705212138C4017900044E09464503DE0E1
:100636002402F0E0D3946440337464F0802E90007A
:100646000EE07004A3E06401702A90002FE0FF9092
:100656000044E0FED39F4014EE94024004E024FEE2
:10066600F0900044E0C39F500312139A900044E0B8
:10067600FF121F46C3900016E094205003020ABFE3
:1006860043BD10E4F0A3F0900045E0041213B190CE
:100696000063121352900047120537900045E0C3DD
:1006A60094084030E41213B178101204E190004728
:1006B6001205371213B290004BEE8FF012035E90C4
:1006C600004BE0C313F0A3E013F09000471205437C
:1006D60000000000900000E0C394085005E004F01C
:1006E6008040900068E07002A3E070361213A3E029
:1006F600FE2402FDE433FCEF1213C95018900031BA
:10070600E02402FDE433FCEE1213C95008900062A7
:10071600E0900031F0900031E0900062F0E490004B
:1007260000F0E4FFFEFDFC9000181212F070331288
:1007360013D3EF2488FFEE341312131012053790EB
:10074600002DE07002A3E070197F407E427D0FFC11
:100756009000181212AB400A900018120543000FC1
:100766004240900006E070131213D3900039120530
:10077600379000281205430000000190002812134C
:100786004C1212ED40030209359000281205139011
:10079600003912135290001C1212F0400302093560
:1007A600900006E004F090005D12134C90005D127C
:1007B6000537900006E0FFFBE4FAF9F890005D12B9
:1007C600051312041A90003912053712137A7803AA
:1007D6001204E1900028120537E47F207E4EFDFCCE
:1007E6009000281212F0500A9000281205430000CB
:1007F6004E20E47F607EEAFDFC9000281212AB409A
:100806000A9000281205430000EA6012137A90004D
:10081600181212AB403E90003912051F1212E71251
:1008260003811212FD7F807E387D017C009000637B
:100836001212AB40089000427406F0801DE47F401F
:100846007E9CFDFC9000631212AB9000424008743F
:1008560009F08006900042740CF090004212132EAC
:10086600403B1212E71212ED5033900043E0941011
:100876005003020944900042E0D394095005121334
:100886007A801112137A90001812129D400C1212DF
:10089600D21213D990001812053702093512132BFC
:1008A60050030209441212E790003912129D407754
:1008B6001213E212137A1203811212FD7F007E12C6
:1008C6007D7A7C001212ED505E7F807E1A7D067C5A
:1008D600009000631212F0504E900043E0941040D6
:1008E6000280387FE07E937D047C009000631212C4
:1008F600AB40089000437410F0801B7FF07E497D6A
:10090600027C009000631212AB9000434005740C09
:10091600F080037408F012132B400C1212D212133B
:10092600D990001812053712132B4012E48004E404
:10093600900006F090005D12054300000000900054
:1009460037E0D394004036E014F01213031212ABD2
:100956005003020A4390003D120513EF2498FFEE60
:10096600343AFEE43DFDE43CFC90001C1212F040DB
:1009760003020A43121303120537020A43121337FE
:10098600405774FFF5F012035E121337404B7F0099
:100996007E127D7A7C009000181212AB400C9000FB
:1009A60010120543000C3500802F1213251213E296
:1009B6001212FA7F407E547D897C009000631212E9
:1009C600AB40161213E2C374409BFF74549AFE7434
:1009D6008999FDE498FC12137412132590001812DD
:1009E600135290001C1212AB4053900067E0FF9028
:1009F6000031E0D39F40051213374041900068E074
:100A06007002A3E070091212E790003D12053790BC
:100A16000068E4F0A304F0786BF690002512134505
:100A260090002C7401F09000437408F0E490000EDE
:100A3600F0A3F07882F608F67880F608F61213D35B
:100A46009000201205379000631205430000000055
:100A560090001C12054300000000900068E0FEA311
:100A6600E0FFD39400EE9400404F900032E0FCA3E8
:100A7600E0FDD3EF9DEE9C4040E4900068F0A3F0CB
:100A8600755401786BF67868F62290000EE4F0A3B0
:100A960004F0E4F55490000BF0A3F0900002F07F10
:100AA600FAFE122955900047120543000000001275
:090AB60012B21205430000000019
:010ABF002214
:10206500E4F50A90006312054300000000E4F50959
:1020750043B440E5B430E5FB53B4DF1213C3AFB648
:10208500AEB71212F70509E509B480E47F907E0129
:10209500122955900063120513780B1204E18F097C
:1020A500E509D3940C400CE509948D5006E50A9496
:0D20B50014500A050AE50AD3945040A722F2
:0120C20022FB
:1020C30090006312054300000000E4F509E4F50CF9
:1020D300F50D43B440E5B430E5FB53B4DF85B70AEF
:1020E30085B60B1213C3AE0AAF0B1212F7050DE53B
:1020F3000D7002050CB400DAE50CB420D543BD1015
:102103000509E509B408C690006312051378101297
:0A21130004E190004BEEF0A3EFF0A2
:01211D00229F
:10232A00BF0105E4FCFD802E7E007C017DFF1202C8
:10233A00F71C7D64120309AC06AD07E41201C38FD2
:10234A002B8E2A8D298C28AB2BAA2AA929A82812D8
:10235A001380AC06AD0790FF907411F075DA017521
:0E236A00E30175E2FF8CE58DE475E10F7F0065
:012378002242
:1027F000BF0104E4FE801E7E007C007DFF121358A2
:102800008F2B8E2A8D298C28AB2BAA2AA929A828A0
:10281000121380AE0790FF9C7410F075DEFF8EDF00
:0528200075DD947F004E
:012825002290
:021F46008F26E4
:101F4800787DE6B526037F0022787DA626E52670F3
:101F580006900061048016E526B4640CE4900061E4
:101F6800F090003004F0800B9000617402F0E4906F
:101F78000030F0E526FD7C0090000AE0FF7E0012AC
:101F88001358E4FBFAF9783F1213868F27C3E52626
:0D1F98009527FF12232AAF271227F07F00A4
:011FA5002219
:100D6100122AEC120003122AA4122A301228F512B8
:100D71002ABE75BBAA90FEA774FFF053BBF7D2AF92
:100D81007FC87E001229551213A3F0C2AF120FC6FD
:100D91007F64121F46D2AF12206590002FE0FF90B2
:100DA1000044F0121F467F2C7E011229551220C3E8
:100DB10090006312054300000000900036E0D394D8
:100DC100034007E4F0122B0E8003121A217869E622
:100DD10060227F64120FBBE4FF120FBB787F06E62F
:100DE10018700106D3742C787F96740118965004FC
:100DF100E47869F6900003E0FF900061E0FD6F6028
:100E0100507F76122826900061E0900003F0900058
:100E110041E0FF900030E06F60377F647E0012296F
:100E210055900030E0FD7F77122826900030E09049
:100E31000041F06401701A786CE664017013F508E2
:100E41001213B86003120F9C0508E508C39408400B
:100E5100EF900001E064017055F090002CE0640116
:100E6100704CF0900025E0FEA3E0FF900034E06EAE
:100E71007003A3E06F6037E48F2D8E2CF52BF52ADC
:100E81007F74121D84900025E0FFA3E0900034CF11
:100E9100F0A3EFF0786CE664017013F5081213B853
:100EA1006003120F9C0508E508C3940840EF43BD99
:100EB10010E554700B900017E0541F700312113CA1
:100EC100900024E064016003020F67E555701CF592
:100ED1005475550112139A90004712054300000002
:100EE100001212B2120543000000001205B6D390A1
:100EF100000FE0940090000EE09400403390000257
:100F0100E0B4012CE4F090000E121346900027E0AB
:100F1100FFC390000FE09F90000EE094004011E4A9
:100F2100F0A3F0900014E064016005E4FF121F4695
:100F310012138C400F7881E6640118467006F6089A
:100F4100F6121346786CE664016003020DCE18E6D2
:100F5100FF7868667003020DCEA607900068E4F082
:100F6100A304F0020DCEE4F555900015E07007FFE3
:100F7100121F46020DCE900038E0FF121F46E4F525
:100F81005412139A900047120543000000001212F8
:0B0F9100B212054300000000020DCE6C
:100F9C007F647E00122955786A7601E50825E024E5
:100FAC006DF8E6FA08E6FBE4FD7F781221D42212F4
:0A0FBC001F467F647E0012295522B3
:03001B000218AB1D
:1018AB00C0E0C0F0C083C082C0D075D000C000C003
:1018BB0001C002C003C004C005C006C007AF53AED1
:1018CB0052AD51AC50EF2401FFE43EFEE43DFDE48C
:1018DB003C8F538E528D51F55090000B1213459047
:1018EB00000BE0FEA3E0FFE4FCFD7B607AEAF9F875
:1018FB00D31204BA500C90000BE4F0A3F09000024A
:10190B0004F0788306E618700106C37883E694E842
:10191B0018E69403400C7600087600788076000871
:10192B007601900004121345C3900005E094B89023
:10193B000004E0940B4009E4F0A3F090000104F0E4
:10194B00D007D006D005D004D003D002D001D000F0
:0B195B00D0D0D082D083D0F0D0E0329A
:030023000224F5BF
:1024F500C0E0C0F0C083C082C0D075D000C000C0AD
:0D25050001C002C003C004C005C006C0072D
:0F251200E59830E00AAF991224AA5398FED2AF91
:10252100D007D006D005D004D003D002D001D0000E
:0B253100D0D0D082D083D0F0D0E032B8
:1029CA0053BBF7C280E5BB20E3F6D280C2AF75FDE8
:1029DA00F075FC0F8EFA8FF975FDD275FC2D75FD19
:0529EA00E175FC1E2256
:10297D0053BBF7C280E5BB20E3F6D280C2AF8FFB1D
:10298D0075FDF075FC0F8CFA8DF975FDB475FC4B6A
:07299D0075FDE175FC1E222F
:101A21007F001213E812131B12041A78081204E142
:101A31007D007C2F12297D7F647E0012131B12040E
:101A41001A7D017C2F12297D12136D9000677D0292
:101A5100122A899000327D03122A89A3E0FF7D04B6
:101A6100122A8B90002FE0FF7D05122A8B90002710
:101A7100E0FF7D06122A8B900024E0F4FF7D07121F
:101A81002A8B786CE6FF7D08122A8B900015E0FF07
:101A91007D09122A8B900014E0FF7D0A122A8B9097
:101AA100000AE0FF7D0B122A8B7F801213E8122AB5
:101AB100927D807C2FE4FF12297D0D0F12297DD2AA
:011AC100AF75
:011AC2002201
:0414F8000266000088
:10196600120296FFE52E4FFFE52DFEE52CFDE52B39
:101976008F2E8E2D8D2CF52BFC78081204F48F2ECD
:101986008E2D8D2C22AF2DAE2CAD2BAC2A1204E160
:10199600AD0722AF2DAE2CAD2BAC2A1204E1AD075C
:1019A60022AB07E4FDFC90008BE022854E83854F39
:1019B60082E54C9582E54B958322C3E567950AFF40
:1019C600E5669509FEC3EF22AC06AD077F0722E464
:1019D60075F001020580AF65AE64AD63AC620204CA
:1019E600E1FEE544FDE543FCE47BFF22E4F51DF55D
:1019F6001CF51BF51A22120296AB26AA27A9282245
:101A0600AF05AE04AD0322754A01754B00754C6AED
:0B1A160022748D250AF97400350922A6
:101E6C00EFC39430400CEFD39439500674D02FFF4D
:101E7C008022EFC39441400CEFD394465006EF24DC
:101E8C00C9FF8010EFC39461400AEFD394665004ED
:101E9C00EF24A9FFEF540FC454F0FFEDC39430406E
:101EAC000CEDD39439500674D02DFD801EEDC394E7
:101EBC00414008EDD394465002800CEDC394614030
:101ECC000AEDD394665004ED24A9FDED540F42079E
:011EDC0022E3
:062583008B178A1889196C
:102589001219F2E94A4B7005FFFEFDFC221219F2FD
:1025990078171219D512027D601AE51D2401FFE48E
:1025A900351CFEE4351BFDE4351A8F1D8E1C8D1B71
:0C25B900F51A80DCAF1DAE1CAD1BAC1A87
:0125C50022F3
:06285C008B398A3A893B2A
:102862008B3F8A408941E94A4B7004FBFAF922E521
:102872003E153EAE3D7002153D4E600B783F12197B
:0D288200D5ED1202C380E8AB39AA3AA93B9C
:01288F002226
:061725008B1E8A1F8920C3
:10172B008B268A27892885212985222A85232BE93F
:10173B004A4B6008E5234522452170077B007A0060
:10174B00790022D3852A83852B82E5289582E5278C
:10175B0095834019E52B2525F9E52A3524FA8A834B
:10176B008982D3E5289582E52795834032E4F52CD1
:10177B00F52DC3E52D9525E52C9524505BAB29AABA
:10178B002AA92B852D82852C831219FC852D828508
:10179B002C831202D5052DE52D70D7052C80D38512
:1017AB00242C85252DD3E52D9400E52C9400402881
:1017BB00AB29AA2AA92BE52D24FFFFE52C34FFFE2C
:1017CB008F82F5831219FC8F828E831202D5E52D41
:0E17DB00152D70D1152C80CDAB1EAA1FA92094
:0117E90022DD
:102890008F658E648D638C6278181204E1EF1202EA
:1028A000C378101219DC900001EF1202D5780812DB
:1028B00019DC900002EF1202D5E565FF900003EFEE
:0328C0000202D53C
:10245F00E4F52EF52DF52CF52B12027DFFE48F2ED2
:10246F00F52DF52CF52BAE2DAD2CAC2B12197F8C39
:10247F002B9000011219668C2B9000021219668C9A
:10248F002B900003120296FFE52E4FFFE52DFEE580
:0A249F002CFDE52B121984F52BFC2F
:0124A9002210
:062B690090008CE0FF2249
:0C2B2800E490008CF0FDFC7F040222D73A
:062B6F00900089E0FF2246
:0823C7008F568B578A58895983
:1023CF001219A9B401037F0122AF05AE04AD561255
:1023DF002B1BAC06E4FD122B1BAC06E55AFD122B92
:1023EF001BAC06AD5B122B1BAC06AD07AB57AA5847
:1023FF00A959855A1C855B1D1229261219CE122246
:03240F00D77F0173
:0124120022A7
:022608008D261D
:10260A001219A7B401037F0122121A0612263CE40A
:10261A00FD12263CAD07E5267003FD8006AF05AE28
:10262A00047D01122B1BAC06AD077F071222D77F50
:01263A00019E
:0E263B0022122B1BAC067D01122B1BAC0622BB
:082006008F268D278A288B2903
:10200E00E4FDFCF52A90008BE0B401037F0122AFC2
:10201E0005AE04E528FD122B1BAC06AD29122B1BB9
:10202E00AC06AD26122058E4FD122058AD07E52768
:10203E007003FD8006AF05AE047D01122B1BAC06AE
:09204E00AD077FB21222D77F0119
:0E20570022122B1BAC067D01122B1BAC0622A5
:0821D4008F268D278A288B2934
:1021DC00E4FDFCF52A90008BE0B401037F0122AFF3
:1021EC0005AE04E528FD122B1BAD29122223AD26CA
:1021FC00122B1B7D04122223E4FD122B1BAC067D3B
:10220C0001122B1BAC06AD27122B1BAC06AD077FA6
:06221C00B21222D77F017F
:0922220022AC06122B1BAC0622B3
:101D84001219A7B401037F0122121A06122B1BACED
:101D9400067D02122B1BAC06E4FD122B1BAC067D48
:101DA40004122B1BC006C007781812198BD007D059
:101DB40006122B1BC006C007781012198BD007D04F
:101DC40006122B1BC006C007AF2DAE2CAD2BAC2AC0
:101DD40078081204E1AD07D007D006122B1BAC061D
:101DE400C007E52DFFE4AD07D007122B1B1219CE57
:051DF4001222D77F015F
:011DF90022C7
:021B5E008F29CD
:101B6000E4FDFCF53090008BE0B401037F0122AF6F
:101B700005AE04E52EFD122B1BAC06AD2F122B1B60
:101B8000AC06AD29122B1BAC067D02122B1BAC063A
:101B9000E4FD122B1BAC067D04122B1BC006C007F4
:101BA0007818121999D007D006122B1BC006C0074F
:101BB0007810121999D007D006122B1BC006C00747
:101BC000AF2DAE2CAD2BAC2A78081204E1AD07D0B6
:101BD00007D006122B1BAC06C007E52DFFE4AD07AE
:101BE000D007122B1BAC06AD077FB21222D77F01A4
:011BF00022D2
:082413008F5C8B5D8A5E895F1E
:10241B001219A9B401037F0122AF05AE04AD5C1202
:10242B002B1BAC067D03122B1BAC06E560FD122BA0
:10243B001BAC06AD61122B1BAC06AD07AB5DAA5EE8
:10244B00A95F85601C85611D1229261219CE1222E7
:03245B00D77F0127
:01245E00225B
:022826008D26FD
:102828001219A7B401037F0122121A06122B1BAC3E
:10283800067D04122B1BAC06E4FD122B1BAC067D97
:1028480001122B1BAC06AD26122B1B1219CE12221D
:03285800D77F0126
:01285B00225A
:0217EA00AD0749
:1017EC00E4F547F54890008BE0B401037F01221229
:1017FC00188B7D051218A3E4FD1218A374FFFFE5E6
:10180C00451219E7FAF9F8C31204D070097D0112D8
:10181C00188BAD46803D74FFFF1219E77AFFF9F87B
:10182C00C31204D070047D0280197D0412189778BD
:10183C0018121872AF46AE45AD44AC437810120482
:10184C00E1AD071218977808121872E546FFE4AD5F
:10185C0007AF48122B1B8E478F48AD48AC477F070C
:05186C001222D77F01EC
:1018710022AF46AE45AD44AC431204E1AD07AF48DB
:10188100AE47122B1B8E478F4822AF48AE47122B13
:101891001B8E478F4822AF48AE47122B1B8E478FB6
:0A18A1004822122B1B8E478F4822AD
:082B3F008C268D2712027DFF98
:012B4700226B
:082B48008C268D2712027DFF8F
:012B50002262
:072B51008C298D2A12245F7C
:012B5800225A
:1024AA008F38D31219B14015E54C954FFFE54B957E
:1024BA004EFEC3EF941FEE64809480502DC3121910
:1024CA00B1500DC3E54F954CFFE54E954B4F601A41
:1024DA00C39000891219B740077A00796A121A0D57
:0B24EA00784A1219D5E5381202C3220F
:10113C00E4F509F50AF50BF50CC3E5679423E566B0
:10114C0094005024122A4EEFD39400401B122649CF
:10115C000567E567AC667002056614248DF582742C
:10116C00003CF583EFF080D1C3E5679407E5669406
:10117C0000500302129C1219C09407EE9400500305
:10118C0002126B748D250AF58274003509F583E023
:10119C006455600A050AE50A70DC050980D8748E6E
:1011AC00250AF58274003509F583E064AA600A0506
:1011BC000AE50A70C1050980BD748F250AF5827491
:1011CC00003509F583E06004740280387491250AB7
:1011DC00F58274003509F583E0FE7492250AF582D8
:1011EC0074003509F583E07C002400FFEC3ECF242D
:1011FC0007F50CE43FF50BD3E50C942AE50B9400B2
:10120C0040097403250AF50AE4804D1219C0950CA7
:10121C00EE950B404A121A17FA7B01E50C24FFFDE0
:10122C00E50B34FFFC1229A4E50A250CFDE5093574
:10123C000BFC748C2DF58274003CF583E06F600917
:10124C007403250AF50AE4800FAF0AAE09120AC02E
:10125C00E50C250AF50AE50B3509F509021182C3DF
:10126C00E567950AF567E5669509F566D3E5679434
:10127C0000E56694004019121A17752101F52289B0
:10128C00238566248567257B017A00798D121725C5
:01129C00222F
:102AEC00121A0D754D01754E00754F6A9000897460
:032AFC00FFF022C6
:1014FC00018800048400000000603000CF0101036B
:10150C0002040265046602670168026902710172D5
:10151C0001730174027501760477047804820483E4
:0D152C00048404850486048704880489046F
:1025C600AB1EAA1FA920AD22AC212225E0246DF85E
:1025D600E6FA08E6FB4A2290000AE0FFE48F2DF5B2
:1025E6002CF52BF52A22900025E0FEA3E0FFE48FD0
:1025F6002D8E2CF52BF52A22E0FFE4FCFDFEC3020E
:0226060004D0FE
:0D2B0E00E4FDFC7F041222D77869760122D5
:102A6C00E4FEEF7004FFFD8006EEFF7E007D011298
:0D2A7C002B1BAE07EEFD7C007FB10222D7C0
:03001E00022B347E
:10153D009000007F0112160B9000157F7112160B93
:10154D0090002F1225E07F03121618900067E0FF20
:10155D00B4FF05E4F516801EEFB4C80575160280BC
:10156D0015EFB42805751603800CEFB41405751628
:10157D00048003751605AD167F651216489000326E
:10158D001225EF7F661216189000247F6712163011
:10159D009000271225E07F6812163DE47B107A2714
:1015AD00F9F890001012051312041AC374329F1229
:1015BD0025E17F6912163D786CE6FD7F72122608D3
:1015CD007F647E001229551225DD7F04121653907B
:1015DD0000147F731216301225EC7F74121653907F
:1015ED0000617F761216239000307F771216237DCF
:0E15FD00017F78121648E4FDFC7FB40222D76D
:10160B00E0FD1226087F647E0012295522121D84EC
:10161B007F647E0012295522E0FD1228267F647E0E
:10162B000012295522E0FD1226087F647E00122944
:10163B005522121D847F647E001229552212282602
:10164B007F647E0012295522121D847F647E001256
:03165B00295522EC
:102AD500122B3F900000EFF0FD7F01122608BF0189
:062AE500037F01227F00C7
:012AEB0022C8
:101FA600122B518F278E268D258C2490002FAB2740
:101FB600AA26A925A8241225FE6028E4F528E528E6
:101FC6001225D1601585272D85262C85252B852460
:101FD6002A8A2E8B2F7F03121B5E0528E528C394C1
:101FE6000840DBAF2790002FEFF0FE900038F0128C
:0F1FF60025E27F03121D84BF01037F01227F00BC
:0120050022B8
:10222B00122B518F2490000AE065246026E4F525DB
:10223B00E5251225D16013E485242DF52CF52BF51E
:10224B002A8A2E8B2F7F04121B5E0525E525C3944E
:10225B000840DD90000AE524F0E4FF121F469000D1
:10226B0038E0FF121F461225DD7F04121D84BF01CB
:06227B00037F01227F0039
:01228100223A
:101D0D00122B488F24E524788866601AE4F525E5C2
:101D1D00251225D16007AD247F651221D40525E557
:101D2D0025C3940840E9E52414601014601514606F
:101D3D001A14601F1460242405702890006774FF26
:101D4D00F0802090006774C8F080189000677428A8
:101D5D00F080109000677414F08008900031E090CE
:101D6D000067F07888A624AD247F65122826BF0170
:061D7D00037F01227F003C
:011D8300223D
:101EDD00122B518F278E268D258C24900032E0FEFB
:101EED00A3E0FFE4FCFDAB27AA26A925A824C31275
:101EFD0004D06028E4F528E5281225D16015852742
:101F0D002D85262C85252B85242A8A2E8B2F7F66C1
:101F1D00121B5E0528E528C3940840DBAE26AF27CB
:101F2D00900032EEF0A3EFF01225F47F66121D84BF
:081F3D00BF01037F01227F00B8
:011F45002279
:10270300122B3F8F24900024E06524601AE4F52502
:10271300E5251225D16007AD247F67122006052524
:10272300E525C3940840E9900024E524F0FD7F6784
:0B273300122608BF01037F01227F0077
:01273E002278
:10211E00122B518F278E268D258C24900027AB27CE
:10212E00AA26A925A8241225FE6028E4F528E5286C
:10213E001225D1601585272D85262C85252B8524E6
:10214E002A8A2E8B2F7F68121B5E0528E528C394E2
:10215E000840DBAF27900027EFF01225E27F6812D0
:0A216E001D84BF01037F01227F00E2
:012178002244
:101BF100122B518F278E268D258C24788412050770
:101C0100AB27AA26A925A824C31204D06028E4F58D
:101C110028E5281225D1601585272D85262C8525B7
:101C21002B85242A8A2E8B2F7F69121B5E0528E5BE
:101C310028C3940840DBAF27AE26AD25AC247884B9
:101C410012052BC374329527FFE49526FEE49525F2
:101C5100FDE49524FCE47B107A27F9F812038F90B8
:101C6100001012053778841205078F2D8E2C8D2BCD
:0F1C71008C2A7F69121D84BF01037F01227F002F
:011C80002241
:10228200122B3F8F24900015E06524601AE4F52597
:10229200E5251225D16007AD247F711220060525A0
:1022A200E525C3940840E9E5247006900015F08006
:1022B20011900024E0B40104786B7601900015744B
:1022C20001F0900015E0FD7F71122608BF01037F27
:0422D20001227F0066
:0122D60022E5
:10237900122B3F8F24E524786C66601AE4F525E575
:10238900251225D16007AD247F721220060525E5A7
:1023990025C3940840E9786CA624AF24122A6C78E6
:1023A9006CE66008E4FDFC7FB41222D7786CE6FD88
:0D23B9007F72122608BF01037F01227F0002
:0123C60022F4
:10273F00122B3F8F24900014E06524601AE4F525D6
:10274F00E5251225D16007AD247F731220060525DC
:10275F00E525C3940840E9900014E524F0FD7F734C
:0B276F00122608BF01037F01227F003B
:01277A00223C
:10253C00122B3FEF70037F0122E4900025F0A3F0F3
:10254C00F524E5241225D1601A900025E0FEA3E0C5
:10255C00FFE48F2D8E2CF52BF52A8A2E8B2F7F7472
:10256C00121B5E0524E524C3940840D61225EC7F8B
:06257C0074121D847F01B2
:012582002236
:1027B700122B488F24E5247019786AE6B40104E4E3
:1027C700F6800F900068E4F0A304F07D027F771293
:1027D70028267F647E00122955AD247F781228268B
:0827E700BF01037F01227F0006
:0127EF0022C7
:06165E008B1E8A1F89208B
:10166400EF12059016930116B80316C10416CA6545
:1016740016D36616DB6716E36816EB6916F3711664
:10168400FB72170373170B751713780000171D12DD
:1016940025C6122AD58F23E523640160030217228D
:1016A400900046E004F0E0C394054072E4F0122B8D
:1016B4000E0217221225C6121FA60217191225C6DA
:1016C40012222B0217191225C6121D0D0217191208
:1016D40025C6121EDD803E1225C61227038036124F
:1016E40025C612211E802E1225C6121BF180261239
:1016F40025C6122282801E1225C612237980161254
:1017040025C612273F800E1225C612253C800612DC
:1017140025C61227B78F238000E4900046F0AF233C
:0117240022A2
:032B75007F1822A4
:0F2AFF00386C6D786E6C676700312E302E3000AA
:0315390001490065
:101DFA007491250EF5827400350DF583E075140093
:101E0A00F5137492250EF5827400350DF583E025DD
:101E1A0014F514E43513F51322350DF583E0F8E4CF
:101E2A0022E026F618E436F6227493250EF582741B
:101E3A0000350DF583E02212051378101204E1AD86
:101E4A00072212051378081204E1AD072274B62F8F
:101E5A00F974003EFA7B0122E475F0011205800252
:021E6A00027DF7
:101AC300E4FFFE90004BE0C4F854F0C8A3E0C45414
:101AD3000F48FD122B1B7E00900031E0FD122B1BE3
:101AE3007E00C006C007900018121E41D007D00622
:101AF300122B1B7E00C006C007900018121E4CD08C
:101B030007D006122B1B7E00C006C00790002012D0
:101B13001E41D007D006122B1B7E00C006C00790C3
:101B23000020121E4CD007D006122B1B7E00C006CD
:101B3300C007900010121E41D007D006122B1B7E47
:101B430000C006C007900010121E4CD007D006122A
:0B1B53002B1BEFFD7C007FC00222D79F
:082B5900E4FDFC7FC10222D75C
:0C2B1B00121E57ED1202C30FBF00010E86
:012B2700228B
:0A2926008E178F188B198A1A891B6F
:10293000121E57851921851A22851B23851C248583
:102940001D25121725E51D2518F518E51C3517F569
:0429500017FEAF18A7
:012954002260
:1026C6008B338A3489358C368D37E94A4B602DE554
:1026D6003745366027E5371537AE36700215364E64
:1026E600601AAB33AA34A93512027DFF12001E749C
:0D26F600012535F535E43534F53480D92261
:0A29A4008B338A3489358C368D3769
:1029AE00E4FFFDFCC3ED9537EC9536500E783312EF
:0B29BE001E622FFF0DBD00010C80E920
:0129C90022EB
:0422D7008C318D3287
:1022DB009000B07455F0A374AAF0E4A3F0A3EFF050
:1022EB00E531A3F0E532A3F02407F532E43531F5FF
:1022FB00317B017A0079B0E53224FFFDE53134FF03
:10230B00FC1229A474AF2532F58274003531F583A4
:0F231B00EFF07B017A0079B0AD32AC310226C60B
:102A1000E4FFE549700AFEFD122B1B754901800792
:102A20007E007D01122B1BEFFD7C00E4FF0222D70C
:10277B00E4F5167A2A79FF1227A77A2A79FF12290C
:10278B00268F167A2B79081227A77A2B790812290C
:0C279B00268F16EFFD7C007F010222D784
:1027A7007BFF1225838E1C8F1DAF167E007BFF22B9
:082B6100E4FDFC7F020222D713
:0229EF008F1D3A
:1029F100122B75E4FEEEC39F501275F002EE9000AB
:0E2A0100CF120574E0651D60030E80E9AF067C
:012A0F0022A4
:062179008B168A1789187D
:10217F0012027DF519900001120296F51A900002D5
:10218F00120296751C00F51B900003120296251C77
:10219F00F51CE4351BF51BAF191229EF75F002EF93
:1021AF009000D0120574E0651A60037F0022AB1611
:1021BF00E5182404F9E43517FA851B21851C22AF95
:0421CF001912165E6D
:0121D30022E9
:040AC0008E0D8F0EFA
:100AC40074902FF58274003EF583E0FF1205900BBD
:100AD4000C000B0F010B12020B15030B32040B3924
:100AE400060D5D080AF8B10BAFB40B06C00B09C1C3
:100AF40000000D60121E336003020D60FDFC7FB424
:100B04008029021AC3022B59022A1002277B022BC6
:100B140061121E33FF900089F0BF020AE47869F67F
:100B2400121A2112153DE4FDFC7F030222D7900026
:100B34008C7401F022121DFAE4F511F512C3E512CA
:100B44009514E51195134003020D60E50E2512FD81
:100B5400E50D3511FC74952DF58274003CF583E0A8
:100B6400751000F50F74962DF58274003CF583E042
:100B74002510F510E4350FF50F7493250EF9740064
:100B8400350DFA7B01E92512F9EA3511FA122179BA
:100B9400BF0103121A21E5102404FFE4350FFEEF10
:100BA4002512F512EE3511F5118092121DFA121E5E
:100BB40033F5157494250EF5827400121E23796E94
:100BC400F7E819F77495250EF5827400350DF58351
:100BD400786E121E2B7496250EF5827400121E2355
:100BE4007970F7E819F77497250EF5827400350DBE
:100BF400F5837870121E2B7498250EF582740012FA
:100C04001E237972F7E819F77499250EF58274009A
:100C1400350DF583E07872121E2C749A250EF58238
:100C24007400121E237974F7E819F7749B250EF5E6
:100C3400827400350DF583E07874121E2C749C25A3
:100C44000EF5827400121E237976F7E819F7749D65
:100C5400250EF5827400350DF583E07876121E2C8E
:100C6400749E250EF5827400121E237978F7E81914
:100C7400F7749F250EF5827400350DF583E07878BE
:100C8400121E2C74A0250EF5827400121E23797A8C
:100C9400F7E819F774A1250EF5827400350DF58374
:100CA400E0787A121E2C74A2250EF5827400121EAE
:100CB40023797CF7E819F774A3250EF582740035BF
:100CC4000DF583E0787C121E2C786EE618466004DD
:100CD4007D018002E4FD7F821228267870E61846A2
:100CE40060047D018002E4FD7F831228267872E689
:100CF400184660047D018002E4FD7F841228267872
:100D040074E6184660047D018002E4FD7F851228A4
:100D1400267876E6184660047D018002E4FD7F862D
:100D24001228267878E6184660047D018002E4FDE6
:100D34007F87122826787AE6184660047D018002AF
:100D4400E4FD7F88122826787CE6184660047D013D
:0C0D54008002E4FD7F8902282612153D74
:010D60002270
:102A4E00E54D854E83854F82654A700AE54C658259
:0E2A5E007004E54B658360037F01227F002238
:10264900AB4DAA4EA94FE54A854B83854C82654D12
:10265900700AE54F65827004E54E65836021C39079
:102669000089E54F9582E54E9583400D7A00796A98
:0F267900754D01754E00754F6A784D121E62FF48
:01268800222F
:10002600020268E86480F8E933E83360110460F09E
:10003600ED33EC337009E8FCE9FDEAFEEBFF220440
:1000460060DED3EB9FEA9EE99DE8C2E78CF0C2F73B
:1000560095F0400CE8CCF8E9CDF9EACEFAEBCFFB07
:1000660012023385D0F05804700320D5B3E804702B
:10007600075002B2D502027292D5EC0460F7E4CCC6
:10008600C0E0C398F8603B94186008400DD0E0FBD0
:1000960002024AE4FBFAC9FC8028E830E406E4C917
:1000A600FBE4CAFCE830E305E4C9CACBFCE8540724
:1000B6006010F8C3E913F9EA13FAEB13FBEC13FC2F
:1000C600D8F130F52FC3E49CFCEF9BFFEE9AFEEDD2
:1000D60099FDD0E0FBEF4E4D4C701222DB0302027D
:1000E6006FEC2CFCEF33FFEE33FEED33FDED30E726
:1000F600EB02024AEF2BFFEE3AFEED39FDD0E0FBB4
:1001060050130BBB0003020272ED13FDEE13FEEF5C
:0801160013FFEC13FC02024A86
:10011E00020272EC5D046005E85904700302026885
:10012E00120233580460F6EC4860F2EC7004FDFEE7
:10013E00FF22C860DB2481C85009C39860025006B4
:10014E0002026F9850CAF582E9294B4A7005AB82BC
:10015E0002025E75F0007C1A7880C3EF9BEE9AED7A
:10016E0099400DC3EF9BFFEE9AFEED99FDE842F02C
:10017E00DC23ACF0D0E0FFD0E0FED0E0FDAB82207F
:10018E00E7101BEB60BAEC2CFCEF33FFEE33FEED09
:10019E0033FD02024AE803F830E705C0F075F000BF
:1001AE00EF2FFFEE33FEED33FD40B830E7C280AAED
:1001BE0075F020800E75F010800575F0087D007EBC
:1001CE00007F003392D530D5031204ACEC334010CF
:1001DE00EF33FFEE33FEED33FDEC33FCD5F0ED22C5
:0E01EE00E5F0247EA2D513CC92E7CDCEFF2201
:1001FC00EDD2E7CD33EC3392D524814006E4FFFEFB
:10020C00FDFC22FCE4CFCECDCC24E0501174FF8059
:10021C00EDC3CC13CCCD13CDCE13CECF13CF0470F6
:07022C00F030D5DE0204AC46
:10023300E9D2E7C933E833F892D5EDD2E7CD33EC11
:0702430033FC5002B2D5228A
:10024A00EC30E7100FBF000C0EBE00080DBD000415
:10025A000BEB6014A2D5EB13FCED92E7FD2274FFC1
:10026A00FCFDFEFF22E480F8A2D574FF13FC7D801A
:03027A00E480EF2E
:101C8D00020D61E493A3F8E493A34003F68001F2FF
:101C9D0008DFF48029E493A3F85407240CC8C33358
:101CAD00C4540F4420C8834004F456800146F6DF27
:101CBD00E4800B01020408102040809013F2E47EB2
:101CCD00019360BCA3FF543F30E509541FFEE4931C
:101CDD00A360010ECF54C025E060A840B8E493A3E3
:101CED00FAE493A3F8E493A3C8C582C8CAC583CA0E
:101CFD00F0A3C8C582C8CAC583CADFE9DEE780BEC6
:01153C0000AE
:10027D00BB010689828A83E0225002E722BBFE027F
:09028D00E32289828A83E49322B2
:10029600BB010CE58229F582E5833AF583E022501D
:1002A60006E92582F8E622BBFE06E92582F8E22267
:0D02B600E58229F582E5833AF583E4932281
:1002C300BB010689828A83F0225002F722BBFE011A
:0202D300F32214
:1002D500F8BB010DE58229F582E5833AF583E8F05F
:1002E500225006E92582C8F622BBFE05E92582C80B
:0202F500F222F3
:1002F700EF8DF0A4A8F0CF8CF0A428CE8DF0A42E1B
:02030700FE22D4
:10030900BC000BBE0029EF8DF084FFADF022E4CCD8
:10031900F875F008EF2FFFEE33FEEC33FCEE9DECA1
:10032900984005FCEE9DFE0FD5F0E9E4CEFD22EDE7
:10033900F8F5F0EE8420D21CFEADF075F008EF2F31
:10034900FFED33FD4007985006D5F0F222C398FD22
:050359000FD5F0EA22BF
:10035E00C5F0F8A3E028F0C5F0F8E582158270022A
:06036E001583E038F022C7
:0D037400EF2BFFEE3AFEED39FDEC38FC22D8
:0E038100C3EF9BFFEE9AFEED99FDEC98FC2277
:10038F00E88FF0A4CC8BF0A42CFCE98EF0A42CFC0D
:10039F008AF0EDA42CFCEA8EF0A4CDA8F08BF0A48B
:1003AF002DCC3825F0FDE98FF0A42CCD35F0FCEBEA
:1003BF008EF0A4FEA9F0EB8FF0A4CFC5F02ECD39AF
:0F03CF00FEE43CFCEAA42DCE35F0FDE43CFC221C
:1003DE0075F008758200EF2FFFEE33FECD33CDCCD6
:1003EE0033CCC58233C5829BED9AEC99E582984059
:1003FE000CF582EE9BFEED9AFDEC99FC0FD5F0D636
:10040E00E4CEFBE4CDFAE4CCF9A88222B800C1B95F
:10041E000059BA002DEC8BF084CFCECDFCE5F0CB9D
:10042E00F97818EF2FFFEE33FEED33FDEC33FCEBD6
:10043E0033FB10D703994004EB99FB0FD8E5E4F991
:10044E00FA227818EF2FFFEE33FEED33FDEC33FC7E
:10045E00C933C910D7059BE99A4007EC9BFCE99A72
:10046E00F90FD8E0E4C9FAE4CCFB2275F010EF2FB7
:10047E00FFEE33FEED33FDCC33CCC833C810D707B7
:10048E009BEC9AE899400AED9BFDEC9AFCE899F8F2
:0E049E000FD5F0DAE4CDFBE4CCFAE4C8F92285
:0E04AC00C3E49FFFE49EFEE49DFDE49CFC2261
:1004BA00EB9FF5F0EA9E42F0E99D42F0EC6480C8B9
:0604CA0064809845F02259
:1004D000EB9FF5F0EA9E42F0E99D42F0E89C45F082
:0104E00022F9
:1004E100E8600FECC313FCED13FDEE13FEEF13FFF9
:0304F100D8F1221D
:1004F400E8600FEFC333FFEE33FEED33FDEC33FC66
:03050400D8F12209
:0C050700E6FC08E6FD08E6FE08E6FF2220
:0C051300E0FCA3E0FDA3E0FEA3E0FF225B
:0C051F00E0F8A3E0F9A3E0FAA3E0FB225F
:0C052B00ECF608EDF608EEF608EFF622FC
:0C053700ECF0A3EDF0A3EEF0A3EFF02237
:10054300A8828583F0D083D08212055A12055A12ED
:10055300055A12055AE473E493A3C583C5F0C58312
:10056300C8C582C8F0A3C583C5F0C583C8C582C802
:010573002265
:0C057400A42582F582E5F03583F5832292
:10058000FAE6FB0808E6F925F0F618E6CA3AF6227C
:10059000D083D082F8E4937012740193700DA3A3FA
:1005A00093F8740193F5828883E47374029368600E
:0605B000EFA3A3A380DF0E
:00000001FF
