:03000000021D6975
:0C1D6900787FE4F6D8FD758191021DB072
:10130000043C00000000410006004100410C410087
:101310004240440038000000004400170000000074
:1013200044001B000000004400590000000044007D
:10133000450000000044005F0000000042002B0058
:1013400001420015000041000C004100360042003F
:1013500064000042000D000041000008410044000C
:1013600001400001410041001400410023014100FF
:101370002E0A4100430A4100350041003700420077
:101380000A000041000200028B00000287000010EA
:1013900074000000000000000000000000000000D9
:1013A0000001730041000900016D0041001300427B
:1013B00000240000420033000041005D01410003B1
:1013C00001420004000041000100017200013A00E6
:1013D00041002F0041004000018400016C000285A3
:1013E0000000028903E801420041002D00026E0066
:1013F0000002700000013B004E004B0000000000A6
:0E140000000000000000000000420007000095
:10145F00EF24A0FFEE340FFEE43DFDE43CFC12054B
:10146F001FD30204D0E4900044F09000427440F087
:10147F009000367402F09000007406F0E4900006BD
:10148F00F0900059229000171205139000381205A2
:10149F001F120374900017120537900017020513DF
:1014AF0090003812051FC30204D0E4FCFD12037430
:1014BF0090005F02053790003C120513EF2470FF78
:1014CF00EE3417FEE43DFDE43CFC90001722122C95
:1014DF0043E47BE87A03F9F890000F0205139000BC
:1014EF0042E0FF900006E0C39F22D390002CE094CF
:1014FF000090002BE0940022E475F00102035E12CD
:10150F00051390001B12051F0203741202F7AC069D
:10151F00AD07E41201C3E4FBFA79C8784202012156
:10152F007F647E00022C4390000F02053790003835
:10153F00020513E4FFFEFD7C3F12002D0201FCD3D8
:10154F00900065E09400900064E094002290002EDB
:10155F00E0900043F0227F0A12282B900030EFF02A
:10156F0090005E2290005F02051FD39DEC6480F80F
:10157F007480982290001B020513E47B02FAF9F89D
:10158F0002041A90001702051FE48F2E8E2DF52CE2
:0D159F00F52B227E2F122B7B7F107E272242
:1029F0008E098F0A8B0B8A0C890DAF051DEF6021A4
:102A0000050AE50AAE097002050914F5828E83E411
:102A100093FF780BE475F001120580EF1202C3807A
:022A2000D922B9
:102B06008F828E83E4F53FF53EF53DF53CAF82AE10
:102B160083E4FCFDAB3FAA3EA93DA83CC31204D00A
:082B2600500543BD1080E622BA
:092C3A00E0FF7C2F122B2E7F64B9
:102C4300E4FDFCC3ED9FEC9E50070DBD00010C801D
:012C5300F28E
:012C5400225D
:10000300758E5190FE917401F0A37410F075BD5F6D
:0700130090FEA07420F02212
:102BE100E490FE80F0758901758DFA758BCB43A851
:0E2BF10008438840758CCB758AEB4388102210
:102A220090FF10E054F04408F090FF02E054F044AC
:102A320002F0D28490FFA07420F0A37404F075CC4D
:102A42000675CEFF75CD98759E0275981043A81035
:012A52002261
:102C6F0043B40343B4807F147E00122C4375B50127
:072C7F0090FE9B744BF02254
:102C550090FF08E04488F090FF00E0540F4430F006
:0A2C650090FF11E054F04403F02248
:0B2D16008F99E59830E1FB5398FD22F7
:10282B008FB543B440E5B430E5FB53B4DF12152F3D
:10283B00E4FBFAF943B440E5B430E5FB53B4DFE510
:10284B00B62BFBE5B73AFA7F147E00122C4309B97D
:0C285B0010E275B501A90212152FAF01A3
:01286700224E
:100FF5007B017A00794B7D0E7F007E2F1229F090C0
:10100500004BE0FFE4FCFDFE1215361214E77808EC
:101015001204F412153690000F12051F90004CE0D3
:10102500FFE4FCFDFE1203741215361214E7E47B8F
:10103500E87A03F9F812038F121536E47F307E75CE
:10104500FDFC90000F1214B240107F007E097D3D1B
:101055007C0090000F12146D400A90000F1205439A
:1010650000009C4090004DE0900063F07002800706
:10107500900063E0B4FE0374FFF090004EE0FF9033
:101085000031E4F0A3EFF0E0F8E4F0E8900031F08F
:1010950090004FE0FF900031E48FF012035E900066
:1010A50031E0FEA3E0FF4E6009D3EF9408EE94070C
:1010B5004009900031E4F0A37405F0900050E090F1
:1010C500002EF0900037F0900051E0900026F0607F
:1010D50006E0D394FF40069000267401F09000527C
:1010E500E0F45401900023F0900053E0540178732C
:1010F500F6A3E05401900014F0900055E0540190DF
:101105000013F0900056E0900009F0900057E0FFC2
:101115007889760008A607E6F8E4798AF7E819F7EA
:10112500A3E0788A26F618E436F6E6FE08E6FF4ED2
:101135006009D3EF94B8EE940B40077889760308DD
:1011450076E87B017A0079077D027F807E2F122960
:10115500F0900007E0900035F0900008E0786DF61B
:101165007F807E2F122B7B7F107E27122C439000D1
:1011750035E004F0E0FF7D807C2F122B2E12152F19
:10118500786DE67003022CF0786DE6FFB4010A7DF8
:0A119500817C2F122B2E12152F2241
:1005B600E5406003020A9743B440E5B430E5FB53D7
:1005C600B4DF85B70985B60A90001512150712150E
:1005D60073AE09AF0A1214B9900049E0FEA3E0FF1A
:1005E600C3950AEE9509500DC3E50A9FF50AE5097C
:1005F6009EF509800BC3EF950AF50AEE9509F509F4
:1006060090001B12051FAE09AF0AE4FCFD1203742D
:1006160090001B120537900015E05401FEA3E04E32
:10062600705212154E4017900043E09464503DE01E
:100636002402F0E0D3946440337464F0802E90007A
:100646000DE07004A3E06401702A90002EE0FF9094
:100656000043E0FED39F4014EE94024004E024FEE3
:10066600F0900043E0C39F500312155C900043E0F6
:10067600FF1222A4C3900015E094205003020AC082
:1006860043BD10E4F0A3F0900044E004F0A312058B
:100696001390005F12151490004512053790004420
:1006A600E0C394084035E4F0A31205137810120451
:1006B600E190004512053790004512051390004958
:1006C600EE8FF012035E900049E0C313F0A3E0132F
:1006D600F090004512054300000000900000E0C3C2
:1006E60094085005E004F08040900064E07002A396
:1006F600E07036121565E0FE2402FDE433FCEF12CD
:1007060015795018900030E02402FDE433FCEE1217
:100716001579500890005EE0900030F0900030E0CF
:1007260090005EF0E4900000F0E4FFFEFDFC900017
:10073600171214B27033121583EF2488FFEE3413A8
:100746001214D212053790002BE07002A3E0701944
:100756007F407E427D0FFC90001712146D400A9078
:100766000017120543000F4240900006E070131276
:1007760015839000381205379000271205430000B4
:10078600000190002712150E1214AF400302093C17
:1007960090002712051390003812151490001B12B2
:1007A60014B2400302093C900006E004F0900059A0
:1007B60012150E900059120537900006E0FFFBE473
:1007C600FAF9F890005912051312041A900038121B
:1007D600053712153C78031204E1900027120537FD
:1007E600E47F207E4EFDFC9000271214B2500A9042
:1007F600002712054300004E20E47F607EEAFDFCE0
:1008060090002712146D400A90002712054300003D
:10081600EA6012153C90001712146D403E900038A5
:1008260012051F1214A91203811214BF7F807E388D
:100836007D017C0090005F12146D400890004174A9
:1008460006F0801DE47F407E9CFDFC90005F121444
:100856006D90004140087409F08006900041740CC8
:10086600F09000411214F0403B1214A91214AF503C
:1008760033900042E09410500302094B900041E08F
:10088600D39409500512153C801112153C9000179F
:1008960012145F400C121494121589900017120559
:1008A6003702093C1214ED500302094B1214A990A9
:1008B600003812145F407712159212153C1203810C
:1008C6001214BF7F007E127D7A7C001214AF505E38
:1008D6007F807E4F7D127C0090005F1214B2504ED6
:1008E600900042E09410400280387FE07E937D04C1
:1008F6007C0090005F12146D40089000427410F066
:10090600801B7FF07E497D027C0090005F12146D93
:100916009000424005740CF080037408F01214ED48
:10092600400C1214941215899000171205371214F0
:10093600ED4012E48004E4900006F09000591205A0
:100946004300000000900036E0D394004036E014E7
:10095600F01214C512146D5003020A4C90003C129A
:100966000513EF2498FFEE343AFEE43DFDE43CFC2B
:1009760090001B1214B24003020A4C1214C5120551
:1009860037020A4C1214F9405774FFF5F012035E51
:100996001214F9404B7F007E127D7A7C009000177E
:1009A60012146D400C90000F120543000C350080A8
:1009B6002F1214E71215921214BC7F407E547D89C3
:1009C6007C0090005F12146D4016121592C374409D
:1009D6009BFF74549AFE748999FDE498FC121536AF
:1009E6001214E790001712151490001B12146D4094
:1009F60055900063E0FF900030E0D39F400512144D
:100A0600F94043900064E07002A3E070091214A953
:100A160090003C120537900064E4F0A304F09000C7
:100A26002412150790002F7401F07872F6F53A90AB
:100A360000427408F0E490000DF0A3F0788BF608FD
:100A4600F67887F608F612158390001F1205379080
:100A5600005F1205430000000090001B12054300D2
:100A6600000000900064E0FEA3E0FFD39400EE9443
:100A7600004047900031E0FCA3E0FDD3EF9DEE9CE3
:100A86004038E4900064F0A3F075400190002FF028
:100A96002290000DE4F0A304F0E4F54090000AF083
:100AA600A3F0900002F090004512054300000000FC
:0A0AB6001214741205430000000042
:010AC0002213
:10219000E4F50A90005F12054300000000E4F50931
:1021A00043B440E5B430E5FB53B4DF121573AFB66A
:1021B000AEB71214B90509E509B480E47F907E0139
:1021C000122B0690005F120513780B1204E18F09A1
:1021D000E509D3940C400CE509948D5006E50A946A
:0D21E00014500A050AE50AD3945040A722C6
:0121ED0022CF
:1021EE0090005F12054300000000E4F509E4F50CD1
:1021FE00F50D43B440E5B430E5FB53B4DF85B70AC3
:10220E0085B60B121573AE0AAF0B1214B9050DE598
:10221E000D7002050CB400DAE50CB420D543BD10E8
:10222E000509E509B408C690005F1205137810126F
:0A223E0004E1900049EEF0A3EFF078
:012248002273
:1023F500BF0105E4FCFD802E7E007C017DFF1202FD
:10240500F71C7D64120309AC06AD07E41201C38F06
:10241500108E0F8D0E8C0DAB10AA0FA90EA80D12E4
:102425001542AC06AD0790FF907411F075DA017591
:0E243500E30175E2FF8CE58DE475E10F7F0099
:012443002276
:10291D00BF0104E4FE801E7E007C007DFF12151AAF
:10292D008F108E0F8D0E8C0DAB10AA0FA90EA80D4A
:10293D00121542AE0790FF9C7410F075DEFF8EDF0E
:05294D0075DD947F0020
:012952002262
:0222A4008F0B9E
:1022A6007884E6B50B037F00227884A60BE50B70D5
:1022B6000790005D04F08012E50BB46407E490001B
:1022C6005DF0800690005D7402F0E50BFD7C0090E9
:1022D6000009E0FF7E0012151AE4FBFAF9783F12B6
:1022E60015488F0CC3E50B950CFF1223F5AF0C12A6
:0422F600291D7F001F
:0122FA0022C1
:100D7C00122C9B120003122C55122BE1122A221258
:100D8C002C6F75BBAA90FEA774FFF053BBF7D2AFC4
:100D9C007FC87E00122B06121565F0C2AF120FF53C
:100DAC007F641222A4D2AF12219090002EE0FF900B
:100DBC000043F01222A47F2C7E01122B061221EE8E
:100DCC0090005F12054300000000E4F53B900035F5
:100DDC00E0D394034007E4F0122CF08003121AE4E1
:100DEC00E5426015120FDC90002DE004F0E0FF747A
:100DFC0003D39F5004E4F542F0786CE6601B120FAD
:100E0C00DC788606E618700106D3742C7886967406
:100E1C000118965004E4786CF6E53B6003020EE48E
:100E2C00900003E0FF90005DE0FD6F600D7F761297
:100E3C00295390005DE0900003F0900040E0FF909B
:100E4C00002FE0FD6F60187F7712295390002FE080
:100E5C00900040F0B40108786F06E618700106792E
:100E6C006FE7787166700419E71866601C786EE697
:100E7C00FE08E6FF1215987F7C121EFD786EE6FECA
:100E8C0008E6FF08A60608A607900001E0640170BA
:100E9C0047F07872E66401703FF6900024E0FEA300
:100EAC00E0FF900033E06E7003A3E06F602A121530
:100EBC00987F74121EFD900024E0FFA3E090003395
:100ECC00CFF0A3EFF090001F1205138F2E8E2D8DF7
:100EDC002C8C2B7F7D121EFDE53A6401702AF53AAD
:100EEC007873E664017021F508E50825E02474F8B0
:100EFC00E6FA08E6FB4A6007E4FD7F781222FB0560
:100F0C0008E508C3940840E143BD1012119F9000FE
:100F1C0023E064016003020FA7E541701CF54075E6
:100F2C00410112155C9000451205430000000012AF
:100F3C001474120543000000001205B6D390000E85
:100F4C00E0940090000DE094004033900002E0B477
:100F5C00012CE4F090000D121508900026E0FFC360
:100F6C0090000EE09F90000DE094004011E4F0A37F
:100F7C00F0900013E064016005E4FF1222A4121546
:100F8C004E5003020DEC7888E664011846600302AB
:100F9C000DECF608F6121508020DECE4F541900084
:100FAC0014E07007FF1222A4020DEC900037E0FF52
:100FBC001222A4E4F54012155C9000451205430082
:100FCC0000000012147412054300000000020DEC26
:100FDC007F641222A47F647E00122B06E4FF12228F
:090FEC00A47F647E00122B062292
:03001B000219695E
:10196900C0E0C0F0C083C082C0D075D000C000C044
:1019790001C002C003C004C005C006C007AF3FAE26
:101989003EAD3DAC3CEF2401FFE43EFEE43DFDE409
:101999003C8F3F8E3E8D3DF53C90000A1215079015
:1019A900000AE0FEA3E0FFE4FCFD7B607AEAF9F8B7
:1019B900D31204BA500C90000AE4F0A3F09000028C
:1019C90004F0788C06E618700106C3788CE694E872
:1019D90018E69403400C76000876007887760008AC
:1019E90076019000041215077889E6FE08E6FFC320
:1019F900900005E09F900004E09E4009E4F0A3F008
:101A090090000104F0D007D006D005D004D003D04F
:101A190002D001D000D0D0D082D083D0F0D0E03233
:0300230002265A58
:10265A00C0E0C0F0C083C082C0D075D000C000C046
:0D266A0001C002C003C004C005C006C007C7
:0F267700E59830E00AAF991225C55398FED2AF0F
:10268600D007D006D005D004D003D002D001D000A8
:0B269600D0D0D082D083D0F0D0E03252
:102B7B0053BBF7C280E5BB20E3F6D280C2AF75FD35
:102B8B00F075FC0F8EFA8FF975FDD275FC2D75FD66
:052B9B00E175FC1E22A3
:102B2E0053BBF7C280E5BB20E3F6D280C2AF8FFB6A
:102B3E0075FDF075FC0F8CFA8DF975FDB475FC4BB7
:072B4E0075FDE175FC1E227C
:101AE4007F001215A21214DD12041A78081204E100
:101AF4007D007C2F122B2E7F647E001214DD1204D5
:101B04001A7D017C2F122B2E12152F9000637D025B
:101B1400122C3A9000317D03122C3AA3E0FF7D048D
:101B2400122C3C90002EE0FF7D05122C3C900026E8
:101B3400E0FF7D06122C3C900023E0F4FF7D0712A9
:101B44002C3C7873E6FF7D08122C3C900014E0FFD7
:101B54007D09122C3C900013E0FF7D0A122C3C906E
:101B64000009E0FF7D0B122C3C7889E6FF7D0C1206
:101B74002C3C08E6FF7D0D122C3C7F801215A2122E
:101B84002C437D807C2FE4FF122B2E0D0F122B2E65
:021B9400D2AFCE
:011B9600222C
:04140E00026A00006E
:101A2900120296FFE52F4FFFE52EFEE52DFDE52C71
:101A39008F2F8E2E8D2DF52CFC78081204F48F2F04
:101A49008E2E8D2D22AF2EAE2DAD2CAC2B1204E196
:101A5900AD0722AF2EAE2DAD2CAC2B1204E1AD0794
:101A690022AB07E4FDFC900083E022855883855969
:101A790082E5569582E555958322C3E56B950AFF64
:101A8900E56A9509FEC3EF22AC06AD077F0722E49C
:101A990075F001020580AF69AE68AD67AC660204F6
:101AA900E1FEE54EFDE54DFCE47BFF22E4F51DF585
:101AB9001CF51BF51A22120296AB26AA27A9282281
:101AC900AF05AE04AD032275540175550075566610
:0B1AD900227485250AF97400350922EB
:101FE500EFC39430400CEFD39439500674D02FFFD3
:101FF5008022EFC39441400CEFD394465006EF2462
:10200500C9FF8010EFC39461400AEFD39466500472
:10201500EF24A9FFEF540FC454F0FFEDC3943040F3
:102025000CEDD39439500674D02DFD801EEDC3946C
:10203500414008EDD394465002800CEDC3946140B5
:102045000AEDD394665004ED24A9FDED540F420723
:012055002268
:0626E6008B178A18891908
:1026EC00121AB5E94A4B7005FFFEFDFC22121AB511
:1026FC007817121A9812027D601AE51D2401FFE466
:10270C00351CFEE4351BFDE4351A8F1D8E1C8D1B0C
:0C271C00F51A80DCAF1DAE1CAD1BAC1A22
:01272800228E
:062989008B438A448945DE
:10298F008B498A4A894BE94A4B7004FBFAF922E5D5
:10299F00481548AE47700215474E600B7849121A1A
:0D29AF0098ED1202C380E8AB43AA44A9458D
:0129BC0022F8
:0617E3008B1E8A1F892005
:1017E9008B268A27892885212985222A85232BE981
:1017F9004A4B6008E5234522452170077B007A00A2
:10180900790022D3852A83852B82E5289582E527CD
:1018190095834019E52B2525F9E52A3524FA8A838C
:101829008982D3E5289582E52795834032E4F52C12
:10183900F52DC3E52D9525E52C9524505BAB29AAFB
:101849002AA92B852D82852C83121ABF852D828585
:101859002C831202D5052DE52D70D7052C80D38553
:10186900242C85252DD3E52D9400E52C94004028C2
:10187900AB29AA2AA92BE52D24FFFFE52C34FFFE6D
:101889008F82F583121ABF8F828E831202D5E52DBE
:0E189900152D70D1152C80CDAB1EAA1FA920D5
:0118A700221E
:1029BD008F698E688D678C6678181204E1EF1202AC
:1029CD00C37810121A9F900001EF1202D5780812E9
:1029DD001A9F900002EF1202D5E569FF900003EFF8
:0329ED000202D50E
:10257A00E4F52FF52EF52DF52C12027DFFE48F2FB1
:10258A00F52EF52DF52CAE2EAD2DAC2C121A428C53
:10259A002C900001121A298C2C900002121A298CF4
:1025AA002C900003120296FFE52F4FFFE52EFEE561
:0A25BA002DFDE52C121A47F52CFC4C
:0125C40022F4
:062D4B00900084E0FF226D
:0C2D0A00E4900084F0FDFC7F04022352E2
:062D5100900081E0FF226A
:0824E2008F5A8B5B8A5C895D57
:1024EA00121A6CB401037F0122AF05AE04AD5A1271
:1024FA002CFDAC06E4FD122CFDAC06E55EFD122CAB
:10250A00FDAC06AD5F122CFDAC06AD07AB5BAA5C59
:10251A00A95D855E1C855F1D122A53121A9112232A
:03252A00527F01DC
:01252D00228B
:02276B008D27B8
:10276D00121A6AB401037F0122121AC912279FE4BB
:10277D00FD12279FAD07E5277003FD8006AF05AE5F
:10278D00047D01122CFDAC06AD077F071223527F8D
:01279D00013A
:0E279E0022122CFDAC067D01122CFDAC062291
:082131008F278D288A298B2AD3
:10213900E4FDFCF52B900083E0B401037F0122AF9D
:1021490005AE04E529FD122CFDAC06AD2A122CFDC5
:10215900AC06AD27122183E4FD122183AD07E528E2
:102169007003FD8006AF05AE047D01122CFDAC069F
:09217900AD077FB21223527F0171
:0E21820022122CFDAC067D01122CFDAC0622B3
:0822FB008F288D298A2A8B2B04
:10230300E4FDFCF52C900083E0B401037F0122AFD0
:1023130005AE04E52AFD122CFDAD2B12234AAD2890
:10232300122CFD7D0412234AE4FD122CFDAC067D24
:1023330001122CFDAC06AD29122CFDAC06AD077FB6
:06234300B21223527F01DB
:0923490022AC06122CFDAC0622A8
:101EFD00121A6AB401037F0122121AC9122CFDAC09
:101F0D00067D02122CFDAC06E4FD122CFDAC067D07
:101F1D0004122CFDC006C0077818121A4ED007D037
:101F2D0006122CFDC006C0077810121A4ED007D02D
:101F3D0006122CFDC006C007AF2EAE2DAD2CAC2B5E
:101F4D0078081204E1AD07D007D006122CFDAC06BF
:101F5D00C007E52EFFE4AD07D007122CFD121A9134
:051F6D001223527F0168
:011F7200224C
:021CD6008F2A53
:101CD800E4FDFCF531900083E0B401037F0122AFFD
:101CE80005AE04E52FFD122CFDAC06AD30122CFD1F
:101CF800AC06AD2A122CFDAC067D02122CFDAC06FA
:101D0800E4FD122CFDAC067D04122CFDC006C007B4
:101D18007818121A5CD007D006122CFDC006C0072E
:101D28007810121A5CD007D006122CFDC006C00726
:101D3800AF2EAE2DAD2CAC2B78081204E1AD07D038
:101D480007D006122CFDAC06C007E52EFFE4AD0750
:101D5800D007122CFDAC06AD077FB21223527F01CB
:011D68002258
:08252E008F608B618A628963F2
:10253600121A6CB401037F0122AF05AE04AD60121E
:102546002CFDAC067D03122CFDAC06E564FD122CB9
:10255600FDAC06AD65122CFDAC06AD07AB61AA62FB
:10256600A96385641C85651D122A53121A911223CC
:03257600527F0190
:01257900223F
:022953008D28CD
:10295500121A6AB401037F0122121AC9122CFDACA6
:10296500067D04122CFDAC06E4FD122CFDAC067DA3
:1029750001122CFDAC06AD28122CFD121A91122362
:03298500527F017D
:01298800222C
:0218A800AD078A
:1018AA00E4F551F552900083E0B401037F0122125E
:1018BA0019497D05121961E4FD12196174FFFFE5EA
:1018CA004F121AAAFAF9F8C31204D070097D01124C
:1018DA001949AD50803D74FFFF121AAA7AFFF9F830
:1018EA00C31204D070047D0280197D041219557840
:1018FA0018121930AF50AE4FAD4EAC4D78101204DD
:10190A00E1AD071219557808121930E550FFE4AD18
:10191A0007AF52122CFD8E518F52AD52AC517F0738
:05192A001223527F01B1
:10192F0022AF50AE4FAD4EAC4D1204E1AD07AF52EA
:10193F00AE51122CFD8E518F5222AF52AE51122C3E
:10194F00FD8E518F5222AF52AE51122CFD8E518F00
:0A195F005222122CFD8E518F5222ED
:082D21008C278D2812027DFFB2
:012D29002287
:082D2A008C288D2912027DFFA7
:012D3200227E
:072D33008C2A8D2B12257A7A
:012D3A002276
:1025C5008F39D3121A744015E5569559FFE555957F
:1025D50058FEC3EF941BEE64809480502DC3121AED
:1025E50074500DC3E5599556FFE55895554F601A3A
:1025F500C3900081121A7A40077A007966121AD0C0
:0B2605007854121A98E5391202C32223
:10119F00E4F509F50AF50BF50CC3E56B941FE56A49
:1011AF0094005024122BFFEFD39400401B1227AC56
:1011BF00056BE56BAC6A7002056A142485F58274C1
:1011CF00003CF583EFF080D1C3E56B9407E56A949B
:1011DF000050030212FF121A839407EE940050037B
:1011EF000212CE7485250AF58274003509F583E065
:1011FF006455600A050AE50A70DC050980D8748613
:10120F00250AF58274003509F583E064AA600A05A2
:10121F000AE50A70C1050980BD7487250AF5827435
:10122F00003509F583E06004740280387489250A5B
:10123F00F58274003509F583E0FE748A250AF5827C
:10124F0074003509F583E07C002400FFEC3ECF24C9
:10125F0007F50CE43FF50BD3E50C9426E50B940052
:10126F0040097403250AF50AE4804D121A83950C80
:10127F00EE950B404A121ADAFA7B01E50C24FFFDBA
:10128F00E50B34FFFC122B55E50A250CFDE509355E
:10129F000BFC74842DF58274003CF583E06F6009BC
:1012AF007403250AF50AE4800FAF0AAE09120AC1CA
:1012BF00E50C250AF50AE50B3509F5090211E5C319
:1012CF00E56B950AF56BE56A9509F56AD3E56B94BD
:1012DF0000E56A94004019121ADA752101F5228986
:1012EF0023856A24856B257B017A0079851217E3A4
:0112FF0022CC
:102C9B00121AD075570175580075596690008174DA
:032CAB00FFF02215
:10141200019100048D00000000603C00C301010343
:1014220002040265046602670168026902710172C0
:101432000173017402750176047704780479027AE3
:10144200017B047C027D0282048304840485048679
:091452000487048804890496044F
:1027EC00AB1EAA1FA920AD22AC212225E02474F82F
:1027FC00E6FA08E6FB4A22900024E0FEA3E0FFE4A0
:10280C008F2E8E2DF52CF52B22E0FFE48F2EF52D3F
:0F281C00F52CF52B22E0FFE4FCFDFEC30204D0F7
:0D2CF000E4FDFC7F04122352786C76012273
:102C1D00E4FEEF7004FFFD8006EEFF7E007D0112E5
:0D2C2D002CFDAE07EEFD7C007FB1022352AE
:03001E00022D169A
:1015AC007D017F011216D89000147F711216919054
:1015BC00002E1228157F0312169E900063E0FFB4D4
:1015CC00FF05E4F516801EEFB4C8057516028015EC
:1015DC00EFB42805751603800CEFB41405751604CA
:1015EC008003751605AD167F651216E39000311257
:1015FC0028067F6612169E9000237F671216919024
:10160C0000261228157F681216A9E47B107A27F998
:10161C00F890000F12051312041AC374329F12288B
:10162C00167F691216A97873E67F721216C19000A4
:10163C00091228157F041216CD900013E07F731247
:10164C0016C11228037F741216CD90005D7F76129E
:10165C0016B490002F7F771216B47D017F78121686
:10166C00E37889E6FE08E612280A7F79121EFD7FD0
:10167C00647E00122B06AD427F7A1216D8E4FDFC74
:05168C007FB4022352AF
:10169100E0FD12276B7F647E00122B0622121EFDD5
:1016A1007F647E00122B0622121EFD7F647E0012D3
:1016B1002B0622E0FD1229537F647E00122B0622A5
:1016C100FD12276B7F647E00122B0622121EFD7F06
:1016D100647E00122B062212276B7F647E00122B80
:0D16E10006221229537F647E00122B062280
:102CAE00122D218F257D017F0112276B8F247F022C
:012CBE0022F3
:1026A100E4F528122D338F278E268D258C2490005A
:1026B1002EAB27AA26A925A8241228217003752844
:1026C10001AF2790002EEFF0FE900037F01228178F
:1026D1007F03121EFDBF010AE52860037F02227FEE
:0426E10001227F0053
:0126E50022D2
:102A8200E4F524122D33900009E0B5070375240103
:102A9200900009EFF01228177F04121EFDBF010AF1
:0C2AA200E52460037F02227F01227F00F8
:012AAE002205
:101DF500E4F526122D2A8F24E52478916670057561
:101E05002601801F7873E6601AE4F525E52512277B
:101E1500F76007AD247F651222FB0525E525C394F0
:101E25000840E9E52414601014601514601A146064
:101E35001F1460242405702890006374FFF080202F
:101E450090006374C8F080189000637428F08010C7
:101E55009000637414F08008900030E0900063F007
:101E65007891A624AD247F65122953BF010AE52682
:0A1E750060037F02227F01227F003C
:011E7F002240
:101E8000E4F529122D338F278E268D258C24900082
:101E900031E0FEA3E0FFE4FCFDAB27AA26A925A8BC
:101EA00024C31204D07005752901802D7873E66073
:101EB00028E4F528E5281227F7601585272E8526C2
:101EC0002D85252C85242B8A2F8B307F66121CD6DE
:101ED0000528E528C3940840DBAE26AF27900031E3
:101EE000EEF0A3EFF012280B7F66121EFDBF010A71
:0C1EF000E52960037F02227F01227F00B1
:011EFC0022C3
:10244400E4F526122D218F24900023E0B524057590
:102454002601801F7873E6601AE4F525E525122726
:10246400F76007AD247F671221310525E525C39464
:102474000840E9900023E524F0FD7F6712276BBF35
:0E248400010AE52660037F02227F01227F000D
:012492002227
:10205600E4F529122D338F278E268D258C249000AA
:1020660026AB27AA26A925A824122821700575299A
:1020760001802D7873E66028E4F528E5281227F715
:10208600601585272E85262D85252C85242B8A2FC0
:102096008B307F68121CD60528E528C3940840DBE0
:1020A600AF27900026EFF01228177F68121EFDBF9B
:0E20B600010AE52960037F02227F01227F00DC
:0120C40022F9
:101B9700E4F529122D338F278E268D258C24788DF9
:101BA700120507AB27AA26A925A824C31204D070BB
:101BB70005752901802D7873E66028E4F528E52866
:101BC7001227F7601585272E85262D85252C852438
:101BD7002B8A2F8B307F69121CD60528E528C394E2
:101BE7000840DBAF27AE26AD25AC24788D12052B38
:101BF700C374329527FFE49526FEE49525FDE49509
:101C070024FCE47B107A27F9F812038F90000F1257
:101C17000537788D1205078F2E8E2D8D2C8C2B7FF7
:101C270069121EFDBF010AE52960037F02227F01B9
:031C3700227F0009
:011C3A002287
:102ADB00E4F524122D21900014E0B50703752401B1
:102AEB00900014EFF0FD7F7112276BBF010AE524F4
:0A2AFB0060037F02227F01227F00AA
:012B050022AD
:1028A500E4F524122D217873E6B507037524017824
:1028B50073EFF6122C1D7873E66008E4FDFC7FB417
:1028C5001223527873E6FD7F7212276BBF010AE56A
:0B28D5002460037F02227F01227F00AD
:0128E00022D5
:10249300E4F526122D218F24900013E0B524057551
:1024A3002601801F7873E6601AE4F525E5251227D7
:1024B300F76007AD247F731221310525E525C39409
:1024C3000840E9900013E524F0FD7F7312276BBFEA
:0E24D300010AE52660037F02227F01227F00BE
:0124E10022D8
:10261000122D21EF6041E4900024F0A3F07873E6DE
:10262000602DE4F524E5241227F7601A900024E0D9
:10263000FEA3E0FFE48F2E8E2DF52CF52B8A2F8B39
:10264000307F74121CD60524E524C3940840D612AA
:0926500028037F74121EFD7F02B5
:01265900225E
:102AAF00122D2AAD07ED146016047016900064E421
:102ABF00F0A304F090003604F090002FF08003751F
:0B2ACF0042017F781229538F247F0200
:012ADA0022D9
:1020C500E4F527122D338E248F25E525788A667051
:1020D50004E52418667005752701802C7873E66081
:1020E50027E4F526E5261227F76014E485252E85D5
:1020F500242DF52CF52B8A2F8B307F79121CD605D4
:1021050026E526C3940840DC7889A62408A6251868
:10211500E6FE08E612280A7F79121EFDBF010AE5D0
:0B2125002760037F02227F01227F0061
:01213000228C
:102C8600122D21EF6003754201E4FD7F7A12276B56
:042C96008F247F0206
:012C9A002217
:1023A500E4F527122D2A8F25E52514602F047034B6
:1023B5007873E66401702DF526E5261227F7600A85
:1023C5007D017F781222FB7527010526E526C3943A
:1023D5000840E6E527600D7542018008E4FDFC7FB5
:0F23E500B4122352AD257F7B1229538F247F0220
:0123F40022C6
:10272900122D2A8F25E525146015146017146019D8
:1027390014601B14601D2405701C122D5A80171279
:102749002D5D801212001A800D12002180081200DE
:10275900228003122D60AD257F961229538F247F85
:01276900026D
:01276A00224C
:0616EE008B1E8A1F8920FB
:1016F400EF120590172F01173A0317450417506589
:10170400175B66176667177168177C691787711707
:101714009272179C7317A67517B07817BA7917C405
:101724007A17CE7B17D896000017E01227EC122CFC
:10173400AE8F230217E01227EC1226A18F23021783
:10174400E01227EC122A828F230217E01227EC12F0
:101754001DF58F230217E01227EC121E808F23023F
:1017640017E01227EC1224448F230217E01227EC0F
:101774001220568F230217E01227EC121B978F2397
:101784000217E01227EC122ADB8F230217E012273C
:10179400EC1228A58F2380441227EC1224938F2364
:1017A400803A1227EC1226108F2380301227EC1275
:1017B4002AAF8F2380261227EC1220C58F23801C8A
:1017C4001227EC122C868F2380121227EC1223A5E9
:0E17D4008F2380081227EC1227298F23AF23C2
:0117E20022E4
:032D57007F1E22BA
:032D5A00022CBF89
:032D5D00022CD075
:01001A0022C3
:0100210022BC
:0100220022BB
:012D60002250
:102CBF00C2AF75FDF075FC0F75FD8775FC78D2AF4F
:012CCF0022E2
:102CD000C2AF75FDF075FC0F75FD7875FC87D2AF3E
:012CE00022D1
:0F2CE10064646E6F6861663600312E302E3000ED
:03145B000153003A
:101F73007489250EF5827400350DF583E075140020
:101F8300F513748A250EF5827400350DF583E0256B
:101F930014F514E43513F51322350DF583E0F8E455
:101FA30022E026F618E436F622748B250EF58274A9
:101FB30000350DF583E02212051378101204E1AD0C
:101FC300072212051378081204E1AD072274AA2F21
:101FD300F974003EFA7B0122E475F00112058002D8
:021FE300027D7D
:101C3B00E4FFFE900049E0C4F854F0C8A3E0C4549C
:101C4B000F48FD122CFD7E00900030E0FD122CFDA4
:101C5B007E00C006C007900017121FBAD007D0062F
:101C6B00122CFD7E00C006C007900017121FC5D0B6
:101C7B0007D006122CFD7E00C006C00790001F1275
:101C8B001FBAD007D006122CFD7E00C006C00790ED
:101C9B00001F121FC5D007D006122CFD7E00C006F8
:101CAB00C00790000F121FBAD007D006122CFD7E72
:101CBB0000C006C00790000F121FC5D007D0061238
:0B1CCB002CFDEFFD7C007FC0022352C7
:082D3B00E4FDFC7FC1022352FC
:0C2CFD00121FD0ED1202C30FBF00010E29
:012D090022A7
:0A2A53008E178F188B198A1A891B41
:102A5D00121FD0851921851A22851B23851C2485DB
:102A6D001D251217E3E51D2518F518E51C3517F57D
:042A7D0017FEAF1879
:012A81002232
:102868008B348A3589368C378D38E94A4B602DE5AB
:102878003845376027E5381538AE37700215374EBA
:10288800601AAB34AA35A93612027DFF12001E74F5
:0D289800012536F536E43535F53580D922B9
:0A2B55008B348A3589368C378D38B1
:102B5F00E4FFFDFCC3ED9538EC9537500E78341239
:0B2B6F001FDB2FFF0DBD00010C80E9F3
:012B7A002238
:042352008C328D3309
:102356009000A47455F0A374AAF0E4A3F0A3EFF0E0
:10236600E532A3F0E533A3F02407F533E43532F57F
:10237600327B017A0079A4E53324FFFDE53234FF90
:10238600FC122B5574A32533F58274003532F58380
:0F239600EFF07B017A0079A4AD33AC32022868F6
:102BC100E4FFE553700AFEFD122CFD7553018007E9
:102BD1007E007D01122CFDEFFD7C00E4FF022352FB
:1028E100E4F5167A2C79E112290D7A2C79E1122A74
:1028F100538F167A2C79EA12290D7A2C79EA122A49
:0C290100538F16EFFD7C007F0102235273
:10290D007BFF1226E68E1C8F1DAF167E007BFF22ED
:082D4300E4FDFC7F02022352B3
:022BA0008F1D87
:102BA200122D57E4FEEEC39F501275F002EE900014
:0E2BB200C3120574E0651D60030E80E9AF06D6
:012BC00022F2
:062249008B168A178918AC
:10224F0012027DF519900001120296F51A90000204
:10225F00120296751C00F51B900003120296251CA6
:10226F00F51CE4351BF51BAF19122BA075F002EF0F
:10227F009000C4120574E0651A60037F0022AB164C
:10228F00E5182404F9E43517FA851B21851C22AFC4
:04229F00191216EE0C
:0122A3002218
:040AC1008E0D8F0EF9
:100AC50074882FF58274003EF583E0FF1205900BC4
:100AD5000D000B10010B13020B16030B4D040B54E9
:100AE500060D78080AF9B10BCAB40B07C00B0AC189
:100AF50000000D7B121FAC6003020D7BFDFC7FB473
:100B05008043021C3B022D3B022BC10228E1022D32
:100B150043121FACFF900081F0BF020B121AE412C2
:100B250015ACE4F53B800C900081E0FFB40109753C
:100B35003B01E4786CF68008EF753B01786C760133
:100B4500E4FDFC7F030223529000847401F022121D
:100B55001F73E4F511F512C3E5129514E51195130C
:100B65004003020D7BE50E2512FDE50D3511FC74E4
:100B75008D2DF58274003CF583E0751000F50F743A
:100B85008E2DF58274003CF583E02510F510E435D3
:100B95000FF50F748B250EF97400350DFA7B01E9FD
:100BA5002512F9EA3511FA122249BF0103121AE496
:100BB500E5102404FFE4350FFEEF2512F512EE359E
:100BC50011F5118092121F73121FACF515748C2547
:100BD5000EF5827400121F9C7975F7E819F7748D6C
:100BE500250EF5827400350DF5837875121FA474F2
:100BF5008E250EF5827400121F9C7977F7E819F798
:100C0500748F250EF5827400350DF5837877121FE4
:100C1500A47490250EF5827400121F9C7979F7E86B
:100C250019F77491250EF5827400350DF583E0787A
:100C350079121FA57492250EF5827400121F9C79F6
:100C45007BF7E819F77493250EF5827400350DF5D9
:100C550083E0787B121FA57494250EF5827400122B
:100C65001F9C797DF7E819F77495250EF5827400B8
:100C7500350DF583E0787D121FA57496250EF58256
:100C85007400121F9C797FF7E819F77497250EF504
:100C9500827400350DF583E0787F121FA5749825C1
:100CA5000EF5827400121F9C7981F7E819F7749983
:100CB500250EF5827400350DF583E07881121FA5A8
:100CC500749A250EF5827400121F9C7983F7E81932
:100CD500F7749B250EF5827400350DF583E0788356
:100CE500121FA57875E6184660047D018002E4FDB3
:100CF5007F821229537877E6184660047D018002C9
:100D0500E4FD7F831229537879E6184660047D0156
:100D15008002E4FD7F84122953787BE6184660043F
:100D25007D018002E4FD7F85122953787DE6184612
:100D350060047D018002E4FD7F86122953787FE6F9
:100D4500184660047D018002E4FD7F8712295378EF
:100D550081E6184660047D018002E4FD7F88122942
:100D6500537883E6184660047D018002E4FD7F899F
:060D75000229531215AC27
:010D7B002255
:102BFF00E5578558838559826554700AE556658275
:0E2C0F007004E555658360037F01227F00227B
:1027AC00AB57AA58A959E554855583855682655768
:1027BC00700AE55965827004E55865836021C39001
:1027CC000081E5599582E5589583400D7A0079662C
:0F27DC007557017558007559667857121FDBFF46
:0127EB0022CB
:10002600020268E86480F8E933E83360110460F09E
:10003600ED33EC337009E8FCE9FDEAFEEBFF220440
:1000460060DED3EB9FEA9EE99DE8C2E78CF0C2F73B
:1000560095F0400CE8CCF8E9CDF9EACEFAEBCFFB07
:1000660012023385D0F05804700320D5B3E804702B
:10007600075002B2D502027292D5EC0460F7E4CCC6
:10008600C0E0C398F8603B94186008400DD0E0FBD0
:1000960002024AE4FBFAC9FC8028E830E406E4C917
:1000A600FBE4CAFCE830E305E4C9CACBFCE8540724
:1000B6006010F8C3E913F9EA13FAEB13FBEC13FC2F
:1000C600D8F130F52FC3E49CFCEF9BFFEE9AFEEDD2
:1000D60099FDD0E0FBEF4E4D4C701222DB0302027D
:1000E6006FEC2CFCEF33FFEE33FEED33FDED30E726
:1000F600EB02024AEF2BFFEE3AFEED39FDD0E0FBB4
:1001060050130BBB0003020272ED13FDEE13FEEF5C
:0801160013FFEC13FC02024A86
:10011E00020272EC5D046005E85904700302026885
:10012E00120233580460F6EC4860F2EC7004FDFEE7
:10013E00FF22C860DB2481C85009C39860025006B4
:10014E0002026F9850CAF582E9294B4A7005AB82BC
:10015E0002025E75F0007C1A7880C3EF9BEE9AED7A
:10016E0099400DC3EF9BFFEE9AFEED99FDE842F02C
:10017E00DC23ACF0D0E0FFD0E0FED0E0FDAB82207F
:10018E00E7101BEB60BAEC2CFCEF33FFEE33FEED09
:10019E0033FD02024AE803F830E705C0F075F000BF
:1001AE00EF2FFFEE33FEED33FD40B830E7C280AAED
:1001BE0075F020800E75F010800575F0087D007EBC
:1001CE00007F003392D530D5031204ACEC334010CF
:1001DE00EF33FFEE33FEED33FDEC33FCD5F0ED22C5
:0E01EE00E5F0247EA2D513CC92E7CDCEFF2201
:1001FC00EDD2E7CD33EC3392D524814006E4FFFEFB
:10020C00FDFC22FCE4CFCECDCC24E0501174FF8059
:10021C00EDC3CC13CCCD13CDCE13CECF13CF0470F6
:07022C00F030D5DE0204AC46
:10023300E9D2E7C933E833F892D5EDD2E7CD33EC11
:0702430033FC5002B2D5228A
:10024A00EC30E7100FBF000C0EBE00080DBD000415
:10025A000BEB6014A2D5EB13FCED92E7FD2274FFC1
:10026A00FCFDFEFF22E480F8A2D574FF13FC7D801A
:03027A00E480EF2E
:101D7500020D7CE493A3F8E493A34003F68001F2FB
:101D850008DFF48029E493A3F85407240CC8C3336F
:101D9500C4540F4420C8834004F456800146F6DF3E
:101DA500E4800B0102040810204080901300E47EBB
:101DB500019360BCA3FF543F30E509541FFEE49333
:101DC500A360010ECF54C025E060A840B8E493A3FA
:101DD500FAE493A3F8E493A3C8C582C8CAC583CA25
:101DE500F0A3C8C582C8CAC583CADFE9DEE780BEDD
:01145E00008D
:10027D00BB010689828A83E0225002E722BBFE027F
:09028D00E32289828A83E49322B2
:10029600BB010CE58229F582E5833AF583E022501D
:1002A60006E92582F8E622BBFE06E92582F8E22267
:0D02B600E58229F582E5833AF583E4932281
:1002C300BB010689828A83F0225002F722BBFE011A
:0202D300F32214
:1002D500F8BB010DE58229F582E5833AF583E8F05F
:1002E500225006E92582C8F622BBFE05E92582C80B
:0202F500F222F3
:1002F700EF8DF0A4A8F0CF8CF0A428CE8DF0A42E1B
:02030700FE22D4
:10030900BC000BBE0029EF8DF084FFADF022E4CCD8
:10031900F875F008EF2FFFEE33FEEC33FCEE9DECA1
:10032900984005FCEE9DFE0FD5F0E9E4CEFD22EDE7
:10033900F8F5F0EE8420D21CFEADF075F008EF2F31
:10034900FFED33FD4007985006D5F0F222C398FD22
:050359000FD5F0EA22BF
:10035E00C5F0F8A3E028F0C5F0F8E582158270022A
:06036E001583E038F022C7
:0D037400EF2BFFEE3AFEED39FDEC38FC22D8
:0E038100C3EF9BFFEE9AFEED99FDEC98FC2277
:10038F00E88FF0A4CC8BF0A42CFCE98EF0A42CFC0D
:10039F008AF0EDA42CFCEA8EF0A4CDA8F08BF0A48B
:1003AF002DCC3825F0FDE98FF0A42CCD35F0FCEBEA
:1003BF008EF0A4FEA9F0EB8FF0A4CFC5F02ECD39AF
:0F03CF00FEE43CFCEAA42DCE35F0FDE43CFC221C
:1003DE0075F008758200EF2FFFEE33FECD33CDCCD6
:1003EE0033CCC58233C5829BED9AEC99E582984059
:1003FE000CF582EE9BFEED9AFDEC99FC0FD5F0D636
:10040E00E4CEFBE4CDFAE4CCF9A88222B800C1B95F
:10041E000059BA002DEC8BF084CFCECDFCE5F0CB9D
:10042E00F97818EF2FFFEE33FEED33FDEC33FCEBD6
:10043E0033FB10D703994004EB99FB0FD8E5E4F991
:10044E00FA227818EF2FFFEE33FEED33FDEC33FC7E
:10045E00C933C910D7059BE99A4007EC9BFCE99A72
:10046E00F90FD8E0E4C9FAE4CCFB2275F010EF2FB7
:10047E00FFEE33FEED33FDCC33CCC833C810D707B7
:10048E009BEC9AE899400AED9BFDEC9AFCE899F8F2
:0E049E000FD5F0DAE4CDFBE4CCFAE4C8F92285
:0E04AC00C3E49FFFE49EFEE49DFDE49CFC2261
:1004BA00EB9FF5F0EA9E42F0E99D42F0EC6480C8B9
:0604CA0064809845F02259
:1004D000EB9FF5F0EA9E42F0E99D42F0E89C45F082
:0104E00022F9
:1004E100E8600FECC313FCED13FDEE13FEEF13FFF9
:0304F100D8F1221D
:1004F400E8600FEFC333FFEE33FEED33FDEC33FC66
:03050400D8F12209
:0C050700E6FC08E6FD08E6FE08E6FF2220
:0C051300E0FCA3E0FDA3E0FEA3E0FF225B
:0C051F00E0F8A3E0F9A3E0FAA3E0FB225F
:0C052B00ECF608EDF608EEF608EFF622FC
:0C053700ECF0A3EDF0A3EEF0A3EFF02237
:10054300A8828583F0D083D08212055A12055A12ED
:10055300055A12055AE473E493A3C583C5F0C58312
:10056300C8C582C8F0A3C583C5F0C583C8C582C802
:010573002265
:0C057400A42582F582E5F03583F5832292
:10058000FAE6FB0808E6F925F0F618E6CA3AF6227C
:10059000D083D082F8E4937012740193700DA3A3FA
:1005A00093F8740193F5828883E47374029368600E
:0605B000EFA3A3A380DF0E
:00000001FF
