:03000000021EE6F7
:0C1EE600787FE4F6D8FD75819A021F2D6C
:1014B00004570000000041005B0041008D0C41001A
:1014C0008E404400850000000044006B00000000D6
:1014D00044006F000000004400A20000000044002F
:1014E00092000000004400A90000000042007900C2
:1014F000014200690000410060004100820042009A
:10150000AE00004200610000410059084100900017
:101510004100B000015B00015C004100A7004100F8
:1015200068004100730141007C0A410091004100C4
:101530008F0A410081004100830042005E000041AB
:10154000005A000288000002860000410067004146
:1015500000A600410084001076000000000000009A
:101560000000000000000000000172000173000193
:10157000750001740001710041005D004A0098008F
:0D15800000000000000000000041005C00C1
:102906008E098F0A8B0B8A0C890DAF051DEF602689
:10291600050AE50AAE097002050914F5828E83E4FC
:1029260093FFAB0B050DE50DAA0C7002050C14F90F
:07293600EF120AF680D42223
:102B7800E4FDFCC3ED9FEC9E50070DBD00010C80E9
:012B8800F25A
:012B89002229
:1029FE008F828E83E4F55AF559F558F557AF82AEAE
:102A0E0083E4FCFDAB5AAA59A958A857C3120C7DF2
:082A1E00500543BD1080E622C3
:102B8A00E4FDFCC3ED9FEC9E50070DBD00010C80D7
:012B9A00F248
:012B9B002217
:10000300758E5190FE917401F0A37410F075BD5F6D
:0700130090FEA07420F02212
:102ADB00E490FE80F0758901758DFA758BCB43A858
:0E2AEB0008438840758CCB758AEB4388102217
:10296F0090FF10E054F04408F090FF02E054F04460
:10297F0002F0D28490FFA07420F0A37404F075CC01
:10298F000675CEFF75CD98759E0275981043A810E9
:01299F002215
:102B4A0043B40343B4807F147E00122B7875B50119
:072B5A0090FE9B744BF0227A
:102B170090FF08E04488F090FF00E0540F4430F045
:0A2B270090FF11E054F04403F02287
:0B2BB7008F99E59830E1FB5398FD2258
:10270C008FB543B440E5B430E5FB53B4DF7F647E52
:10271C0000122B78E4FBFAF943B440E5B430E5FB46
:10272C0053B4DFE5B62BFBE5B73AFA7F147E001203
:10273C002B7809B910E275B501A9027F647E0012ED
:04274C002B78AF0136
:012750002266
:10135A007B017A0079987D0A7F007E2F12290690F8
:10136A000098E0FFE4FCFDFE900063120CB49000CC
:10137A0063E0FCA3E0FDA3E0FEA3E0FF7808120C03
:10138A00A1900063120CB4900063E0F8A3E0F9A303
:10139A00E0FAA3E0FB900099E0FFE4FCFDFEEB2FEE
:1013AA00FFEE3AFEED39FDEC38FC900063120CB406
:1013BA00900063E0FCA3E0FDA3E0FEA3E0FFE47B72
:1013CA00E87A03F9F8120B3C900063120CB4E47F3C
:1013DA00307E75FDFC900063E0F8A3E0F9A3E0FA23
:1013EA00A3E0FBC3120C7D40177F007E097D3D7C84
:1013FA0000900063E0F8A3A3A3E0D3120C7D400A97
:10140A00900063120CC000009C4090009AE090008B
:10141A00ADF0700280079000ADE0B4FE0374FFF0F7
:10142A0090009BE0FF90007EE4F0A3EFF0E0F8E488
:10143A00F0E890007EF090009CE0FF90007FE02FA3
:10144A00F090007EE03400F0E0FEA3E0FF4E600979
:10145A00D3EF9408EE9407400990007EE4F0A37459
:10146A0005F090009DE090007CF0900083F09000E1
:10147A009EE0900074F06006E0D394FF400690006E
:10148A00747401F090009FE05401900073F07B01A6
:10149A007A00795C7D017F807E2F12290690005C9C
:0614AA00E0900081F02239
:10003E00E55B600302090543B440E5B430E5FB53CC
:10004E00B4DF85B70985B60A90006AE004F0700641
:10005E00900069E004F09000A9E0F8A3E0F9A3E0B5
:10006E00FAA3E0FBE4FCFDEB250AFFEA3509FEED01
:10007E0039FDEC38FC9000A9120CB4900096E0FE0D
:10008E00A3E0FFC3950AEE9509500DC3E50A9FF54F
:10009E000AE5099EF509800BC3EF950AF50AEE9560
:1000AE0009F50990006FE0F8A3E0F9A3E0FAA3E0E8
:1000BE00FBE4FCFDEB250AFFEA3509FEED39FDEC0C
:1000CE0038FC90006F120CB4900069E05401FEA34E
:1000DE00E04E7061D39000AFE094009000AEE094DB
:1000EE0000401790008FE094645042E02402F0E04C
:1000FE00D3946440387464F08033900061E07004EF
:10010E00A3E06401702F90007CE0FF90008FE0FE72
:10011E00D39F4019EE94024004E024FEF090008F2D
:10012E00E0C39F500890007CE090008FF090008F0D
:10013E00E0FF1229A0C3900069E094205003020949
:10014E005043BD10E4F0A3F0900090E004F0900056
:10015E0092E0FCA3E0FDA3E0FEA3E0FF9000A9E087
:10016E00F8A3E0F9A3E0FAA3E0FBEF2BFFEE3AFED3
:10017E00ED39FDEC38FC900092120CB4900090E03A
:10018E00C394084043E4F0900092E0FCA3E0FDA38A
:10019E00E0FEA3E0FF7810120C8E900092120CB4C9
:1001AE00900092A3A3E0FEA3E0FF900097E02FF053
:1001BE00900096E03EF0E0C313F0A3E013F0900041
:1001CE0092120CC000000000900059E0C394085039
:1001DE0005E004F080569000AEE07002A3E0704C93
:1001EE007F0A12270C90007DEFF09000A8E0FE240D
:1001FE0002FDE433FCEFD39DEC6480F874809850DC
:10020E001E90007DE02402FDE433FCEED39DEC64F1
:10021E0080F874809850089000A8E090007DF090CF
:10022E00007DE09000A8F0E4900059F0E4FFFEFDA0
:10023E00FC90006BE0F8A3E0F9A3E0FAA3E0FBC3A7
:10024E00120C7D704F90006FE0FCA3E0FDA3E0FE6A
:10025E00A3E02488FFEE3413FEE43DFDE43CFC9065
:10026E00006B120CB4900079E07002A3E070257F51
:10027E00407E427D0FFC90006BE0F8A3E0F9A3E016
:10028E00FAA3E0FBD3120C7D400A90006B120CC057
:10029E00000F424090005BE0701E90006FE0FCA3E8
:1002AE00E0FDA3E0FEA3E0FF900085120CB49000E9
:1002BE0075120CC000000001900075E0FCA3E0FD7B
:1002CE00A3E0FEA3E0FF90006FE0F8A3E0F9A3E047
:1002DE00FAA3E02FFFEA3EFEE93DFDE83CFC90006C
:1002EE0085E0F8A3E0F9A3E0FAA3E0FBC3120C7DCE
:1002FE0040030206C4900075E0FCA3E0FDA3E0FEFF
:10030E00A3E0FF900085E0F8A3A3A3E02FFFEA3E51
:10031E00FEE93DFDE83CFC90006FE0F8A3E0F9A398
:10032E00E0FAA3E0FBC3120C7D40030206C490006A
:10033E005BE004F09000A2E0FCA3E0FDA3E0FEA3CE
:10034E00E0FF90006FE0F8EF2BFFEE3AFEED39FD87
:10035E00EC38FC9000A2120CB490005BE0FBE4FAC7
:10036E00F9F89000A2E0FCA3E0FDA3E0FEA3E0FFFD
:10037E00120BC7900085120CB4900085E0FCA3E030
:10038E00FDA3E0FEA3E0FF7803120C8E9000751221
:10039E000CB4E47F207E4EFDFC900075E0F8A3E0E7
:1003AE00F9A3E0FAA3E0FBC3120C7D500A9000758E
:1003BE00120CC000004E20E47F607EEAFDFC90002F
:1003CE0075E0F8A3E0F9A3E0FAA3E0FBD3120C7DED
:1003DE00400A900075120CC00000EA60900085E0A3
:1003EE00FCA3E0FDA3E0FEA3E0FF90006BE0F8A30A
:1003FE00E0F9A3E0FAA3E0FBD3120C7D407390006A
:10040E0085E0F8A3E0F9A3E0FAA3E0FB90006BE02F
:10041E00FCA3E0FDA3E0FEA3E09BFFEE9AFEED99A8
:10042E00FDEC98FC9000A9120CB47F807E387D0103
:10043E007C009000A9E0F8A3E0F9A3E0FAA3E0FBAA
:10044E00D3120C7D400890008D7406F08029E47F55
:10045E00407E9CFDFC9000A9E0F8A3E0F9A3E0FA31
:10046E00A3E0FBD3120C7D90008D40087409F08040
:10047E000690008D740CF090008DE0FF90005BE014
:10048E00C39F500302055C90006BE0FCA3E0FDA34C
:10049E00E0FEA3E0FF900085E0F8A3E0F9A3E0FA08
:1004AE00A3E0FB120C7D400302055C90008EE094ED
:1004BE001050030206D390008DE0D3940950109093
:1004CE000085E0FCA3E0FDA3E0FEA3E0FF807690B4
:1004DE000085E0FCA3E0FDA3E0FEA3E024A0FFEE78
:1004EE00340FFEE43DFDE43CFC90006BE0F8A3E02D
:1004FE00F9A3E0FAA3E0FBD3120C7D50030206C46D
:10050E0090006BE0FCA3E0FDA3E0FEA3E0FF9000F3
:10051E0085E0F8A3E0F9A3E0FAA3E0FBEF2BFFEEF2
:10052E003AFEED39FDEC38FC90006B120CB49000E5
:10053E006BE0FCA3E0FDA3E0FEA3E0FFE47B02FA88
:10054E00F9F8120BC790006B120CB40206C490009F
:10055E008EE0FF90005BE0C39F50030206D3900035
:10056E006BE0FCA3E0FDA3E0FEA3E024A0FFEE34CD
:10057E000FFEE43DFDE43CFC900085E0F8A3E0F9BD
:10058E00A3E0FAA3E0FBD3120C7D50030206B49055
:10059E00006BE0F8A3E0F9A3E0FAA3E0FB9000857E
:1005AE00E0FCA3E0FDA3E0FEA3E09BFFEE9AFEEDD0
:1005BE0099FDEC98FC9000A9120CB47F007E127D80
:1005CE007A7C00900085E0F8A3E0F9A3E0FAA3E0BE
:1005DE00FBC3120C7D40030206B47F807E1A7D069B
:1005EE007C009000A9E0F8A3E0F9A3E0FAA3E0FBF9
:1005FE00C3120C7D40030206B490008EE0941040AE
:10060E000280587FE07E937D047C009000A9E0F884
:10061E00A3E0F9A3E0FAA3E0FBD3120C7D4008900F
:10062E00008E7410F080277FF07E497D027C009052
:10063E0000A9E0F8A3E0F9A3E0FAA3E0FBD3120CC3
:10064E007D90008E4005740CF080037408F09000CD
:10065E008EE0FF90005BE0C39F404B90006BE0FC90
:10066E00A3E0FDA3E0FEA3E0FF900085E0F8A3E089
:10067E00F9A3E0FAA3E0FBEF2BFFEE3AFEED39FD16
:10068E00EC38FC90006B120CB490006BE0FCA3E015
:10069E00FDA3E0FEA3E0FFE47B02FAF9F8120BC71C
:1006AE0090006B120CB490008EE0FF90005BE0C3E4
:1006BE009F4012E48004E490005BF09000A2120CC4
:1006CE00C000000000900082E0D3940050030207A7
:1006DE0067E014F0900089E0FCA3E0FDA3E0FEA328
:1006EE00E02470FFEE3417FEE43DFDE43CFC900088
:1006FE006BE0F8A3E0F9A3E0FAA3E0FBD3120C7DC4
:10070E0050030208C1900089E0FCA3E0FDA3E0FEC7
:10071E00A3E02498FFEE343AFEE43DFDE43CFC9069
:10072E00006FE0F8A3E0F9A3E0FAA3E0FBC3120C1C
:10073E007D40030208C1900089E0FCA3E0FDA3E028
:10074E00FEA3E02470FFEE3417FEE43DFDE43CFC16
:10075E0090006B120CB40208C1D390007AE09400A2
:10076E00900079E094005003020828A3E024FFF0E3
:10077E00900079E034FFF0D3A3E09400900079E08C
:10078E00940050030208287F007E127D7A7C009030
:10079E00006BE0F8A3E0F9A3E0FAA3E0FBD3120CA0
:1007AE007D400C900063120CC0000C3500806B90E5
:1007BE000063E0FCA3E0FDA3E0FEA3E0FF90006B6E
:1007CE00E0F8A3E0F9A3E0FAA3E02FFFEA3EFEE98A
:1007DE003DFDE83CFC9000A9120CB47F407E547D98
:1007EE00897C009000A9E0F8A3E0F9A3E0FAA3E069
:1007FE00FBD3120C7D402390006BE0F8A3E0F9A32D
:10080E00E0FAA3E0FB74409BFF74549AFE7489993E
:10081E00FDE498FC900063120CB4900063E0FCA31E
:10082E00E0FDA3E0FEA3E0FF90006BE0F8A3E0F98B
:10083E00A3E0FAA3E02FFFEA3EFEE93DFDE83CFC13
:10084E00A3E0F8A3E0F9A3E0FAA3E0FBD3120C7D3A
:10085E0040619000ADE0FF90007DE0D39F400FD34C
:10086E0090007AE09400900079E09400404590006A
:10087E00AEE07002A3E0701490006BE0FCA3E0FD0C
:10088E00A3E0FEA3E0FF900089120CB49000AEE44A
:10089E00F0A304F07874F67FDD122BB790008E74FF
:1008AE0008F0E4900061F0A3F07888F608F67886F8
:1008BE00F608F69000A9120CC00000000090006F20
:1008CE00120CC0000000009000AEE0FEA3E0FFD3CB
:1008DE009400EE9400406B90007EE0FCA3E0FDD30C
:1008EE00EF9DEE9C405CE49000AEF0A3F0755B01D2
:1008FE007874F67871F622900061E4F0A304F0E4C7
:10090E00F55B90005EF0A3F090005AF07FFAFE12B5
:10091E0029FE900092120CC000000000E49000909E
:10092E00F090008E7440F09000827402F0900059A6
:10093E007406F0E490005BF09000A2120CC0000070
:02094E000000A7
:010950002284
:10210400E4F50A9000A9120CC000000000E4F509EF
:1021140043B440E5B430E5FB53B4DF9000A9E0F8E4
:10212400A3E0F9A3E0FAA3E0FBAFB6AEB7E4FCFD8D
:10213400EB2FFFEA3EFEED39FDEC38FC9000A912CE
:102144000CB40509E509B480C77F907E011229FE0D
:102154009000A9E0FCA3E0FDA3E0FEA3E0FF780B60
:10216400120C8E8F09E509D3940C400CE509948D6B
:102174005006E50A9414500A050AE50AD39450401F
:022184008222B5
:012186002236
:102187009000A9120CC000000000E4F509E4F50C6A
:10219700F50D43B440E5B430E5FB53B4DF85B70A2A
:1021A70085B60B9000A9E0F8A3E0F9A3E0FAA3E055
:1021B700FBE4FCFDEB250BFFEA350AFEED39FDECF0
:1021C70038FC9000A9120CB4050DE50D7002050C42
:1021D700B400BFE50CB420BA43BD100509E509B446
:1021E70008AB9000A9E0FCA3E0FDA3E0FEA3E0FF9D
:0D21F7007810120C8E900096EEF0A3EFF021
:0122040022B7
:1029A0007E007C007DFF120B2AAC06AD07E4120905
:1029B000F6E4FBFA79C87842120954120A2F90FF04
:0E29C0009C7410F075DEFF8FDF75DD947F00D4
:0129CE0022E6
:100F9B00122B31120003122B177F641229A0122A75
:100FAB00DB12296F122B4A75BBAA90FEA774FFF0B8
:100FBB0053BBF7D2AF7FC87E001229FE7F64122984
:100FCB00A09000A77401F07F0A12270C90007DEF10
:100FDB00F09000A8F0C2AF12135A900081E004F019
:100FEB007F807E2F122A737F107E27122B8A900010
:100FFB0081E0FF7D807C2F122A267F647E00122BDE
:10100B008AD2AF12210490007CE0FF90008FF01287
:10101B0029A07F2C7E011229FE1221879000A91294
:10102B000CC000000000900081E0C394034005E475
:10103B00F0122A987873E6D39402502A18E66401CA
:10104B007024F608067F55122BB77FAA122BB7E434
:10105B00FF122BB77FB4122BB7E4FF122BB7122B57
:10106B00B77FB3122BB743BD10E55B700B90006AD3
:10107B00E0541F70031211D9900073E064016003F8
:10108B00021183E55C703DF55B755C0190007CE0C3
:10109B0090008FF0900092120CC000000000E490C2
:1010AB000090F090008E7440F09000827402F090EB
:1010BB0000597406F0E490005BF09000A2120CC093
:1010CB000000000012003ED3900062E094009000FC
:1010DB0061E09400403290005AE0B4012BE4F090B0
:1010EB000062E004F07006900061E004F090007480
:1010FB00E0FFC3900062E09F900061E09400400825
:10110B00E4F0A3F0FF1229A0D39000AFE09400907D
:10111B0000AEE0940040187887E664011846700F23
:10112B00F608F6A3E004F070069000AEE004F07849
:10113B0075E66401600302103118E6FF7871667082
:10114B0003021031A6079000AEE4F0A304F0E4F51F
:10115B0008E508C394084003021031E50825E02494
:10116B0076F8E6FA08E6FB4A600A900068E0FD7F35
:10117B0071121F72050880D9E4F55C900068E0706D
:10118B0007FF1229A0021031900083E0FF1229A063
:10119B00E4F55B90007CE090008FF0900092120CD5
:1011AB00C000000000E4900090F090008E7440F0BE
:1011BB009000827402F09000597406F0E490005B8A
:0E11CB00F09000A2120CC000000000021031D3
:03001B00021C655F
:101C6500C0E0C0F0C083C082C0D075D000C000C045
:101C750001C002C003C004C005C006C007AF5AAE0C
:101C850059AD58AC57EF2401F55AE43EF559E43DFA
:101C9500F558E43CF55790005FE004F070069000BD
:101CA5005EE004F090005EE0FEA3E0FFE4FCFD7B57
:101CB500607AEAF9F8D3120C67500C90005EE4F0F4
:101CC500A3F090005A04F0788906E618700106C35F
:101CD5007889E694E818E6940340127872760178DC
:101CE50088760008760078867600087601D007D0D9
:101CF50006D005D004D003D002D001D000D0D0D07A
:081D050082D083D0F0D0E0325F
:030023000226C5ED
:1026C500C0E0C0F0C083C082C0D075D000C000C0DB
:0D26D50001C002C003C004C005C006C0075C
:0F26E200E59830E00AAF991222F15398FED2AF7B
:1026F100D007D006D005D004D003D002D001D0003D
:0B270100D0D0D082D083D0F0D0E032E6
:03003B0002001AA6
:01001A0032B3
:102A730053BBF7C280E5BB20E3F6D280C2AF75FD3E
:102A8300F075FC0F8EFA8FF975FDD275FC2D75FD6F
:052A9300E175FC1E22AC
:102A260053BBF7C280E5BB20E3F6D280C2AF8FFB73
:102A360075FDF075FC0F8CFA8DF975FDB475FC4BC0
:072A460075FDE175FC1E2285
:04158D00026D0000EB
:10228000EFC39430400CEFD39439500674D02FFF35
:102290008022EFC39441400CEFD394465006EF24C4
:1022A000C9FF8010EFC39461400AEFD394665004D5
:1022B000EF24A9FFEF540FC454F0FFEDC394304056
:1022C0000CEDD39439500674D02DFD801EEDC394CF
:1022D000414008EDD394465002800CEDC394614018
:1022E0000AEDD394665004ED24A9FDED540F420786
:0122F00022CB
:0624DF008B168A17891814
:1024E500E4F51CF51BF51AF519E94A4B7005FFFED5
:1024F500FDFC22E4F51CF51BF51AF519AB160518BC
:10250500E518AA177002051714F9120AB06017E545
:102515001C2401F51CE4351BF51BE4351AF51AE4FA
:0E2525003519F51980D6AF1CAE1BAD1AAC19D6
:012533002285
:062818008B398A3A893B6E
:10281E008B3F8A408941E94A4B7004FBFAF922E565
:10282E003E153EAE3D7002153D4E6014AB3F054168
:10283E00E541AA407002054014F9ED120AF680DF58
:06284E00AB39AA3AA93BD8
:012854002261
:061973008B1D8A1E891F76
:101979008B258A26892785202885212985222AE9F8
:101989004A4B6008E5224521452070077B007A0013
:10199900790022D3852983852A82E5279582E52640
:1019A90095834019E52A2524F9E5293523FA8A83FF
:1019B9008982D3E5279582E52695834038E4F52B7E
:1019C900F52CC3E52C9524E52B95235067AB28AA64
:1019D90029A92A852C82852B83120AC9AB25AA2617
:1019E900A927852C82852B83120B08052CE52C70E1
:1019F900D1052B80CD85232B85242CD3E52C940070
:101A0900E52B9400402EAB28AA29A92AE52C24FF0E
:101A1900FFE52B34FFFE8F82F583120AC9AB25AA95
:101A290026A9278F828E83120B08E52C152C70CBE3
:0A1A3900152B80C7AB1DAA1EA91FC4
:011A43002280
:102751008F6C8E6B8D6A8C697818120C8EEF120A51
:10276100F6AF6CAE6BAD6AAC697810120C8E90004E
:1027710001EF120B08AF6CAE6BAD6AAC6978081251
:102781000C8E900002EF120B08E56CFF900003EF36
:03279100020B0830
:101DAF00E4F52DF52CF52BF52A120AB0FFE48F2D53
:101DBF00F52CF52BF52AAE2CAD2BAC2A7808120C8E
:101DCF00A18F2D8E2C8D2B8C2A900001120AC9FF0A
:101DDF00E52D4FF52DE52CF52CE52BF52BE52AF50B
:101DEF002AAF2DAE2CAD2BFC7808120CA18F2D8EA7
:101DFF002C8D2B8C2A900002120AC9FFE52D4FF56E
:101E0F002DE52CF52CE52BF52BE52AF52AAF2DAE7C
:101E1F002CAD2BFC7808120CA18F2D8E2C8D2B8CBA
:101E2F002A900003120AC9FFE52D4FF52DE52CF579
:101E3F002CE52BF52BE52AF52AAF2DAE2CAD2BFC7F
:011E4F002270
:062BE40090001AE0FF2240
:0C2BAB00E490001AF0FDFC7F040225DA23
:062BEA00900017E0FF223D
:082534008F5D8B5E8A5F8960F8
:10253C00E4FDFC900019E0B401037F0122AF05AE6D
:10254C0004AD5D120026AC06E4FD120026AC06E5D7
:10255C0061FD120026AC06AD62120026AC06AD077A
:10256C00AB5EAA5FA96085611B85621C122898ACC2
:0A257C0006AD077F071225DA7F0184
:012586002232
:04262D008D25AB0745
:10263100E4FDFC900019E0B401037F0122AF05AE77
:1026410004AD03120026AC067D01120026AC06E49F
:10265100FD120026AC067D01120026AC06AD07E591
:10266100257003FD8006AF05AE047D01120026AC86
:0A26710006AD077F071225DA7F018E
:01267B00223C
:021F7200A907BD
:101F7400E4FCF525F526900019E0B401037F012265
:101F84007527557528AAE4F529752AB2F52B752C01
:101F9400078A2D8B2E892F753001F531753201EDAD
:101FA4007004F5338003753301E4F536F53774278F
:101FB4002537F8E62CFC0537E53770020536640D45
:101FC400453670EA8C3475250075260EE4F536F531
:101FD40037E5261526AE25700215254E60147427A4
:101FE4002537F8E6FF12001E0537E53770E305369E
:041FF40080DF7F010A
:011FF80022C6
:021B0200A90731
:101B0400E4FCF525F526900019E0B401037F0122D9
:101B14007527557528AAE4F529752AB2F52B752C75
:101B2400078A2D8B2E892F753001F531753201ED21
:101B34007004F533802EBD01057533018026BD0286
:101B440005753302801EBD03057533038016BD047D
:101B540005753304800EBD05057533058006BD0685
:101B640003753306E4F536F53774272537F8E62C84
:101B7400FC0537E53770020536640D453670EA8C8E
:101B84003475250075260EE4F536F537E526152659
:101B9400AE25700215254E601474272537F8E6FF2C
:0F1BA40012001E0537E5377002053680DF7F011E
:011BB300220F
:021E5000AB07DE
:101E5200E4FDFC900019E0B401037F0122AF05AE5E
:101E620004AD03120026AC067D02120026AC06E485
:101E7200FD120026AC067D04120026C006C007AF84
:101E82002CAE2BAD2AAC297818120C8EAD07D007D8
:101E9200D006120026C006C007AF2CAE2BAD2AAC6E
:101EA200297810120C8EAD07D007D006120026C07A
:101EB20006C007AF2CAE2BAD2AAC297808120C8EC7
:101EC200AD07D007D006120026AC06C007E52CFFEE
:101ED200E4AD07D007120026AC06AD077F07122536
:031EE200DA7F01A3
:011EE50022DA
:021A4400AD07EC
:101A4600E4FBF52FF530900019E0B401037F012285
:101A5600788A76550876AAE408F60876B208F60873
:101A6600760AE52D08F608A62E08A605087602E4ED
:101A760008F6087604AF2CAE2BAD2AAC29781812DE
:101A86000C8E7896A607AF2CAE2BAD2AAC29781013
:101A9600120C8E7897A607AF2CAE2BAD2AAC297800
:101AA60008120C8E7898A607E52CFFE408A607F521
:101AB60031F532748A2532F8E62BFB0532E53270B1
:101AC6000205316410453170EA789AA603752F0035
:101AD600753011E4F531F532E5301530AE2F700270
:101AE600152F4E6014748A2532F8E6FF12001E0583
:0B1AF60032E5327002053180DF7F0115
:011B010022C1
:082587008F638B648A6589668D
:10258F00E4FDFC900019E0B401037F0122AF05AE1A
:10259F0004AD63120026AC067D03120026AC06E5DF
:1025AF0067FD120026AC06AD68120026AC06AD071B
:1025BF00AB64AA65A96685671B85681C122898AC51
:0A25CF0006AD077F071225DA7F0131
:0125D90022DF
:042794008D25AB07DD
:10279800E4FDFC900019E0B401037F0122AF05AE0F
:1027A80004AD03120026AC067D04120026AC06E434
:1027B800FD120026AC067D01120026AC06AD2512DE
:0D27C8000026AC06AD077F071225DA7F0161
:0127D50022E1
:0217B800AD077B
:1017BA00E4F547F548900019E0B401037F0122AF30
:1017CA0048AE471200268E478F487D051200268EA6
:1017DA00478F48E4FD1200268E478F4874FFFFE5C5
:1017EA0045FEE544FDE543FCE47BFFFAF9F8C31244
:1017FA000C7D70117D01AF48AE471200268E478FCF
:10180A0048AD46807E74FFFFFEE544FDE543FCE4F7
:10181A007BFF7AFFF9F8C3120C7D70047D028036D3
:10182A007D04AF48AE471200268E478F48AF46AEBA
:10183A0045AD44AC437818120C8EAD07AF48AE479D
:10184A001200268E478F48AF46AE45AD44AC43786A
:10185A0010120C8EAD07AF48AE471200268E478F86
:10186A0048AF46AE45AD44AC437808120C8EAD077E
:10187A00AF48AE471200268E478F48E546FFE4ADD3
:10188A0007AF481200268E478F48AD48AC477F07FE
:05189A001225DA7F01B8
:01189F002226
:082BC2008C258D26120AB0FFDC
:012BCA0022E8
:082BCB008C258D26120AB0FFD3
:012BD30022DF
:072BD4008C288D29121DAFB2
:012BDB0022D7
:1022F1008F38D3855583855682E5539582E552956E
:10230100834015E5539556FFE5529555FEC3EF946D
:1023110017EE648094805048C3855583855682E5C5
:10232100539582E5529583500DC3E5569553FFE5CC
:102331005595524F602AC3900017E5539582E55297
:1023410095834009755101755200755300AB5105D4
:1023510053E553AA527002055214F9E538120AF6F0
:012361002259
:1011D900E4F509F50AF50BF50CC3E56E941FE56D09
:1011E90094005024122AF9EFD39400401B1227D6F9
:1011F900056EE56EAC6D7002056D14241BF58274E5
:10120900003CF583EFF080D1C3E56E9407E56D945A
:10121900005003021359C3E56E950AFFE56D950960
:10122900FEC3EF9407EE94005003021322741B25AA
:101239000AF58274003509F583E06455600A050AE8
:10124900E50A70D2050980CE741C250AF58274005E
:101259003509F583E064AA600A050AE50A70B7054D
:101269000980B3741D250AF58274003509F583E0F8
:10127900600474028038741F250AF58274003509E8
:10128900F583E0FE7420250AF58274003509F5839B
:10129900E07C002400FFEC3ECF2407F50CE43FF589
:1012A9000BD3E50C9426E50B940040097403250A39
:1012B900F50AE4805DC3E56E950AFFE56D9509FEC3
:1012C900C3EF950CEE950B4050741B250AF9740079
:1012D9003509FA7B01E50C24FFFDE50B34FFFC120F
:1012E900293DE50A250CFDE509350BFC741A2DF598
:1012F9008274003CF583E06F60097403250AF50ADE
:10130900E4800FAF0AAE09120D17E50C250AF50A9C
:10131900E50B3509F50902121FC3E56E950AF56E4D
:10132900E56D9509F56DD3E56E9400E56D94004082
:101339001F741B250AF974003509752001F52189E7
:1013490022856D23856E247B017A00791B1219731E
:011359002271
:102B31007551017552007553007554017555007535
:092B4100560090001774FFF02209
:101591004100B5004400B100000000014E00014BC4
:1015A10000014A00014900014D00014C00014F00BA
:1015B1005400B60101030204026504660267016872
:0715C10002690271017201D1
:102A98007F55122BB77FAA122BB7E4FF122BB77FF3
:102AA80004122BB7E4FF122BB7E4FF122BB77F03F6
:032AB800022BB737
:03001E00022BB7FB
:1018A000900000E0FD7F0112262D900068E0FD7F92
:1018B0007112262D90007CE0FFE48F2CF52BF52A89
:1018C000F5297F03121E509000ADE0FFB4FF05E440
:1018D000F515801EEFB4C8057515028015EFB42804
:1018E00005751503800CEFB4140575150480037598
:1018F0001505AD157F6512279490007EE0FEA3E0EC
:10190000FFE48F2C8E2BF52AF5297F66121E50904E
:101910000073E0FD7F6712262D900074E0FFE48FD6
:101920002CF52BF52AF5297F68121E50E47B107ADE
:1019300027F9F8900063E0FCA3E0FDA3E0FEA3E03C
:10194000FF120BC7C374329FFFE48F2CF52BF52ACF
:10195000F5297F69121E507875E6FD7F7212262DDB
:1019600090005DE0FFE48F2CF52BF52AF5297F042C
:03197000021E5004
:102B6100122BC2900000EFF0FD7F0112262DBF0154
:062B7100037F01227F003A
:012B7700223B
:101FF900122BD48F268E258D248C23054A90007CA4
:10200900E0FFE4FCFDFEAB26AA25A924A823C31200
:102019000C7D6032E4F54AF527E52725E02476F8BA
:10202900E6FA08E6FB4A601585262C85252B8524CA
:102039002A8523298A2D8B2E7F03121A440527E529
:1020490027C3940840D3AF2690007CEFF09000732B
:10205900E07005900083EFF01215CC90007CE0FF52
:10206900E48F2CF52BF52AF5297F03121E50BF01A9
:06207900037F01227F003D
:01207F00223E
:1029CF00122BD48F268E258D248C2390005DEFF053
:1029DF001215CC90005DE0FFE48F2CF52BF52AF556
:0E29EF00297F04121E50BF01037F01227F00CA
:0129FD0022B7
:101D0D00122BCB8F2305499000B5E0B52317E523A2
:101D1D00640570359000ADE0FF90007DE06F6029A7
:101D2D00E4F5498024E4F549F524E52425E02476FD
:101D3D00F8E6FA08E6FB4A6007AD237F65121B0241
:101D4D000524E524C3940840E1E5231460101460D4
:101D5D001514601A14601F14602424057028900057
:101D6D00AD74FFF080209000AD74C8F08018900025
:101D7D00AD7428F080109000AD7414F080089000C0
:101D8D007DE09000ADF09000B5E523F01215CC90FC
:101D9D0000B5E0FD7F65122794BF01037F01227F0F
:011DAD000035
:011DAE002212
:10208000122BD48F268E258D248C23054D90007E17
:10209000E0FEA3E0FFE4FCFDAB26AA25A924A823CB
:1020A000C3120C7D6032E4F54DF527E52725E024C9
:1020B00076F8E6FA08E6FB4A601585262C85252B7E
:1020C00085242A8523298A2D8B2E7F66121A4405A2
:1020D00027E527C3940840D390007EE525F0A3E5CB
:1020E00026F01215CC90007EE0FEA3E0FFE48F2CDA
:1020F0008E2BF52AF5297F66121E50BF01037F0142
:03210000227F003B
:0121030022B9
:10248900122BC28F23054B900073E065236024E46F
:10249900F54BF524E52425E02476F8E6FA08E6FB71
:1024A9004A6007AD237F67121F720524E524C39490
:1024B9000840E1E5239000737003F080037401F094
:1024C9001215CC900073E0FD7F6712262DBF010322
:0524D9007F01227F00DD
:0124DE0022DB
:10220500122BD48F268E258D248C23054C9000749B
:10221500E0FFE4FCFDFEAB26AA25A924A823C312F2
:102225000C7D6032E4F54CF527E52725E02476F8AA
:10223500E6FA08E6FB4A601585262C85252B8524BC
:102245002A8523298A2D8B2E7F68121A440527E5B6
:1022550027C3940840D3900074E526F01215CC905E
:102265000074E0FFE48F2CF52BF52AF5297F681221
:0A2275001E50BF01037F01227F000D
:01227F00223C
:101BB400122BD48F268E258D248C23054F9000B1B3
:101BC400E0FCA3E0FDA3E0FEA3E0FFAB26AA25A969
:101BD40024A823C3120C7D6032E4F54FF527E527D2
:101BE40025E02476F8E6FA08E6FB4A601585262CFB
:101BF40085252B85242A8523298A2D8B2E7F6912FE
:101C04001A440527E527C3940840D3AF26AE25AD73
:101C140024AC239000B1120CB4C374329526FFE4B3
:101C24009525FEE49524FDE49523FCE47B107A27B6
:101C3400F9F8120B3C900063120CB41215CC90000E
:101C4400B1E0FCA3E0FDA3E0FEA3E0F52C8E2B8D18
:101C54002A8C297F69121E50BF01037F01227F0055
:011C6400225D
:1023C800122BC28F23054E900068E065236024E439
:1023D800F54EF524E52425E02476F8E6FA08E6FB30
:1023E8004A6007AD237F71121F720524E524C39448
:1023F8000840E1E5237006900068F08011900073B2
:10240800E0B40104787476019000687401F09000DB
:1024180068E0FD7F7112262DBF01037F01227F0036
:012428002291
:10267C00122BC28F23E5237875666022E4F524E5DE
:10268C002425E02476F8E6FA08E6FB4A6007AD2339
:10269C007F72121F720524E524C3940840E1E523E0
:1026AC0078757003F680027601AD237F7212262DA9
:0826BC00BF01037F01227F0032
:0126C40022F3
:0616CC008B1D8A1E891F20
:1016D200EF120CF116F801172703173604174565A8
:1016E2001754661763671772681781691790711725
:1016F2009F72000017B0AB1DAA1EA91FAD21AC201E
:10170200122B618F22E522640160030217B590005B
:1017120091E004F0E0C3940550030217B5E4F0121F
:101722002A980217B5AB1DAA1EA91FAD21AC201223
:101732001FF98076AB1DAA1EA91FAD21AC2012296C
:10174200CF8067AB1DAA1EA91FAD21AC20121D0DB3
:101752008058AB1DAA1EA91FAD21AC20122080808B
:1017620049AB1DAA1EA91FAD21AC20122489803AC3
:10177200AB1DAA1EA91FAD21AC20122205802BABE6
:101782001DAA1EA91FAD21AC20121BB4801CAB1DCB
:10179200AA1EA91FAD21AC201223C8800DAB1DAA21
:1017A2001EA91FAD21AC2012267C8F228000E4905E
:0517B2000091F0AF22E0
:0117B700220F
:032BF0007F0A2237
:1015CC007F007E2F122A737F107E27122B8AE47BDA
:1015DC00E87A03F9F8900063E0FCA3E0FDA3E0FED9
:1015EC00A3E0FF120BC77808120C8E7D007C2F1223
:1015FC002A267F647E00122B8AE47BE87A03F9F8B2
:10160C00900063E0FCA3E0FDA3E0FEA3E0FF120B5F
:10161C00C7E47D017C2F122A267F647E00122B8A60
:10162C009000ADE0FF7D027C2F122A267F647E00A5
:10163C00122B8A90007EE0FF7D037C2F122A267FDE
:10164C00647E00122B8A90007EA3E0FF7D047C2F29
:10165C00122A267F647E00122B8A90007CE0FF7D8C
:10166C00057C2F122A267F647E00122B8A90007430
:10167C00E0FF7D067C2F122A267F647E00122B8AC7
:10168C00900073E0FF7D077C2F122A267F647E007A
:10169C00122B8A90005DE0FF7D087C2F122A267F9A
:1016AC00647E00122B8A7F807E2F122A737F107E1D
:0F16BC0027122B8A7D807C2FE4FF122A26D2AFC3
:0116CB0022FC
:0F2B9C00386C6D786E6C676700312E302E30000C
:0315C800015000CF
:1000260074402FF974003EFA7B01ED120AF60FBFF9
:0300360000010EB8
:0100390022A4
:06289200AF157E007BFF84
:0A2898008E168F178B188A19891A03
:1028A20074402FF974003EFA7B01851820851921A6
:1028B200851A22851B23851C24121973E51C2517F2
:0B28C200F517E51B3516F516FEAF17E5
:0128CD0022E8
:102855008B2F8A3089318C328D33E94A4B602DE5D7
:102865003345326027E5331533AE32700215324EEB
:10287500601AAB2FAA30A931120AB0FF12001E74DC
:0D288500012531F531E43530F53080D922E0
:0A293D008B2F8A3089318C328D33E4
:10294700E4FFFDFCC3ED9533EC9532501AAB2F0530
:1029570031E531AA307002053014F9120AB02FFFA1
:072967000DBD00010C80DD35
:01296E002246
:0425DA008C2D8D2E89
:1025DE0090003A7455F0A374AAF0E4A3F0A3EFF0C0
:1025EE00E52DA3F0E52EA3F02407F52EE4352DF509
:1025FE002D7B017A00793AE52E24FFFDE52D34FF7F
:10260E00FC12293D7439252EF5827400352DF58383
:0F261E00EFF07B017A00793AAD2EAC2D022855F2
:042362008C6F8D707F
:1023660074022570F570E4356FF56F90003A745578
:10237600F0A374AAF0E4A3F0A3EFF0E56FA3F0E5F1
:1023860070A3F0A374FFF0A3F074072570F570E452
:10239600356FF56F7B017A00793AE57024FFFDE52C
:1023A6006F34FFFC12293D74392570F582740035AF
:1023B6006FF583EFF07B017A00793AAD70AC6F026E
:0223C600285598
:102ABB00E4FFE550700AFEFD1200267550018007F9
:102ACB007E007D01120026EFFD7C00E4FF0225DA7B
:1028CE00E4F5157BFF7A2B799C1224DF8E1B8F1C6F
:1028DE007A2B799C1228928F157BFF7A2B79A51271
:1028EE0024DF8E1B8F1C7A2B79A51228928F15EF61
:0828FE00FD7C007F010225DAD8
:082BDC00E4FDFC7F020225DA92
:022A4D008F1CDC
:102A4F00122BF0E4FEEEC39F501775F002EEA42494
:102A5F00B6F582E5F03400F583E0651C60030E8067
:032A6F00E4AF06CB
:012A72002241
:062429008B158A168917CD
:10242F00120AB0F518900001120AC9F519900002AE
:10243F00120AC9751B00F51A900003120AC9251B51
:10244F00F51BE4351AF51AAF18122A4D75F002EF85
:10245F00A424B7F582E5F03400F583E06519600335
:10246F007F0022AB15E5172404F9E43516FA851A17
:09247F0020851B21AF181216CCB8
:012488002231
:040D17008E0D8F0EA0
:100D1B00741E2FF58274003EF583E0FF244C7003A4
:100D2B00020E1E24B4B409004003020F9A900D3F2B
:100D3B00F8282873020D5A020D5D020D60020D6337
:100D4B00020D7C020F9A020D83020F9A020F97027B
:100D5B002ABB0228CE022BDC7421250EF5827400EF
:100D6B00350DF583E0900017F0E4FDFC7F030225C1
:100D7B00DA90001A7401F022741F250EF5827400AC
:100D8B00350DF583E0751400F5137420250EF582EF
:100D9B007400350DF583E02514F514E43513F513C4
:100DAB00E4F511F512C3E5129514E5119513400303
:100DBB00020F9AE50E2512FDE50D3511FC74232D5E
:100DCB00F58274003CF583E0751000F50F74242D4B
:100DDB00F58274003CF583E02510F510E4350FF532
:100DEB000F7421250EF97400350DFA7B01E92512DC
:100DFB00F9EA3511FA122429BF01031215CCE510BB
:100E0B002404FFE4350FFEEF2512F512EE3511F534
:100E1B00118092741F250EF5827400350DF583E059
:100E2B00751400F5137420250EF5827400350DF53D
:100E3B0083E02514F514E43513F5137422250EF510
:100E4B00827400350DF583E0F8E47977F7E819F74C
:100E5B007423250EF5827400350DF583E078772623
:100E6B00F618E436F67424250EF5827400350DF56C
:100E7B0083E0F8E47979F7E819F77425250EF58204
:100E8B007400350DF583E0787926F618E436F674A0
:100E9B0026250EF5827400350DF583E0F8E4797B99
:100EAB00F7E819F77427250EF5827400350DF583D5
:100EBB00E0787B26F618E436F67428250EF5827456
:100ECB0000350DF583E0F8E4797DF7E819F774291F
:100EDB00250EF5827400350DF583E0787D26F61826
:100EEB00E436F6742A250EF5827400350DF583E091
:100EFB00F8E4797FF7E819F7742B250EF582740067
:100F0B00350DF583E0787F26F618E436F6742C253C
:100F1B000EF5827400350DF583E0F8E47981F7E87E
:100F2B0019F7742D250EF5827400350DF583E078D5
:100F3B008126F618E436F6742E250EF582740035EC
:100F4B000DF583E0F8E47983F7E819F7742F250E94
:100F5B00F5827400350DF583E0788326F618E436B8
:100F6B00F67430250EF5827400350DF583E0F8E448
:100F7B007985F7E819F77431250EF5827400350D74
:0F0F8B00F583E0788526F618E436F6221218A0D2
:010F9A002234
:102AF900E5548555838556826551700AE55365828B
:0E2B09007004E552658360037F01227F002285
:1027D600E5518552838553826554700AE5566582B4
:1027E6007004E55565836029C3900017E556958208
:1027F600E55595834009755401755500755600AB2E
:10280600540556E556AA557002055514F9120AB034
:01281600FFC2
:01281700229E
:10095100020AA5EC5D046005E859047003020A9BD4
:10096100120A66580460F6EC4860F2EC7004FDFE71
:10097100FF22C860DB2481C85009C3986002500679
:10098100020AA29850CAF582E9294B4A7005AB8246
:10099100020A9175F0007C1A7880C3EF9BEE9AED04
:1009A10099400DC3EF9BFFEE9AFEED99FDE842F0F1
:1009B100DC23ACF0D0E0FFD0E0FED0E0FDAB822044
:1009C100E7101BEB60BAEC2CFCEF33FFEE33FEEDCE
:1009D10033FD020A7DE803F830E705C0F075F00049
:1009E100EF2FFFEE33FEED33FD40B830E7C280AAB2
:1009F10075F020800E75F010800575F0087D007E81
:100A0100007F003392D530D503120C59EC334010DE
:100A1100EF33FFEE33FEED33FDEC33FCD5F0ED2289
:0E0A2100E5F0247EA2D513CC92E7CDCEFF22C5
:100A2F00EDD2E7CD33EC3392D524814006E4FFFEBF
:100A3F00FDFC22FCE4CFCECDCC24E0501174FF801E
:100A4F00EDC3CC13CCCD13CDCE13CECF13CF0470BB
:070A5F00F030D5DE020C5956
:100A6600E9D2E7C933E833F892D5EDD2E7CD33ECD6
:070A760033FC5002B2D5224F
:100A7D00EC30E7100FBF000C0EBE00080DBD0004DA
:100A8D000BEB6014A2D5EB13FCED92E7FD2274FF86
:100A9D00FCFDFEFF22E480F8A2D574FF13FC7D80DF
:030AAD00E480EFF3
:101EF200020F9BE493A3F8E493A34003F68001F25C
:101F020008DFF48029E493A3F85407240CC8C333F0
:101F1200C4540F4420C8834004F456800146F6DFBF
:101F2200E4800B01020408102040809014B0E47E8B
:101F3200019360BCA3FF543F30E509541FFEE493B4
:101F4200A360010ECF54C025E060A840B8E493A37B
:101F5200FAE493A3F8E493A3C8C582C8CAC583CAA6
:101F6200F0A3C8C582C8CAC583CADFE9DEE780BE5E
:0115CB00001F
:100AB000BB010689828A83E0225002E722BBFE0244
:090AC000E32289828A83E4932277
:100AC900BB010CE58229F582E5833AF583E02250E2
:100AD90006E92582F8E622BBFE06E92582F8E2222C
:0D0AE900E58229F582E5833AF583E4932246
:100AF600BB010689828A83F0225002F722BBFE01DF
:020B0600F322D8
:100B0800F8BB010DE58229F582E5833AF583E8F023
:100B1800225006E92582C8F622BBFE05E92582C8CF
:020B2800F222B7
:100B2A00EF8DF0A4A8F0CF8CF0A428CE8DF0A42EDF
:020B3A00FE2299
:100B3C00E88FF0A4CC8BF0A42CFCE98EF0A42CFC58
:100B4C008AF0EDA42CFCEA8EF0A4CDA8F08BF0A4D6
:100B5C002DCC3825F0FDE98FF0A42CCD35F0FCEB35
:100B6C008EF0A4FEA9F0EB8FF0A4CFC5F02ECD39FA
:0F0B7C00FEE43CFCEAA42DCE35F0FDE43CFC2267
:100B8B0075F008758200EF2FFFEE33FECD33CDCC21
:100B9B0033CCC58233C5829BED9AEC99E5829840A4
:100BAB000CF582EE9BFEED9AFDEC99FC0FD5F0D681
:100BBB00E4CEFBE4CDFAE4CCF9A88222B800C1B9AB
:100BCB000059BA002DEC8BF084CFCECDFCE5F0CBE9
:100BDB00F97818EF2FFFEE33FEED33FDEC33FCEB22
:100BEB0033FB10D703994004EB99FB0FD8E5E4F9DD
:100BFB00FA227818EF2FFFEE33FEED33FDEC33FCCA
:100C0B00C933C910D7059BE99A4007EC9BFCE99ABD
:100C1B00F90FD8E0E4C9FAE4CCFB2275F010EF2F02
:100C2B00FFEE33FEED33FDCC33CCC833C810D70702
:100C3B009BEC9AE899400AED9BFDEC9AFCE899F83D
:0E0C4B000FD5F0DAE4CDFBE4CCFAE4C8F922D0
:0E0C5900C3E49FFFE49EFEE49DFDE49CFC22AC
:100C6700EB9FF5F0EA9E42F0E99D42F0EC6480C804
:060C770064809845F022A4
:100C7D00EB9FF5F0EA9E42F0E99D42F0E89C45F0CD
:010C8D002244
:100C8E00E8600FECC313FCED13FDEE13FEEF13FF44
:030C9E00D8F12268
:100CA100E8600FEFC333FFEE33FEED33FDEC33FCB1
:030CB100D8F12255
:0C0CB400ECF0A3EDF0A3EEF0A3EFF022B3
:100CC000A8828583F0D083D082120CD7120CD71261
:100CD0000CD7120CD7E473E493A3C583C5F0C58386
:100CE000C8C582C8F0A3C583C5F0C583C8C582C87E
:010CF00022E1
:100CF100D083D082F8E4937012740193700DA3A392
:100D010093F8740193F5828883E4737402936860A5
:060D1100EFA3A3A380DFA5
:00000001FF
