:03000000021D7A64
:0C1D7A00787FE4F6D8FD758191021DC150
:10131100043C00000000410006004100410C410076
:101321004240440038000000004400170000000063
:1013310044001B000000004400590000000044006C
:10134100450000000044005F0000000042002B0047
:1013510001420015000041000C004100360042002E
:1013610064000042000D00004100000841004400FB
:1013710001400001410041001400410023014100EE
:101381002E0A4100430A4100350041003700420066
:101391000A000041000200028B00000287000010D9
:1013A10074000000000000000000000000000000C8
:1013B1000001730041000900016D0041001300426A
:1013C10000240000420033000041005D01410003A0
:1013D10001420004000041000100017200013A00D5
:1013E10041002F0041004000018400016C00028592
:1013F1000000028903E801420041002D00026E0055
:101401000002700000013B004E004B000000000094
:0E141100000000000000000000420007000084
:10147000EF24A0FFEE340FFEE43DFDE43CFC12053A
:101480001FD30204D0E4900044F09000427440F076
:101490009000367402F09000007406F0E4900006AC
:1014A000F090005922900017120513900038120591
:1014B0001F120374900017120537900017020513CE
:1014C00090003812051FC30204D0E4FCFD1203741F
:1014D00090005F02053790003C120513EF2470FF67
:1014E000EE3417FEE43DFDE43CFC90001722122C84
:1014F00054E47BE87A03F9F890000F02051390009A
:1015000042E0FF900006E0C39F22D390002CE094BD
:101510000090002BE0940022E475F00102035E12BB
:10152000051390001B12051F0203741202F7AC068C
:10153000AD07E41201C3E4FBFA79C8784202012145
:101540007F647E00022C5490000F02053790003813
:10155000020513E4FFFEFD7C3F12002D0201FCD3C7
:10156000900065E09400900064E094002290002ECA
:10157000E0900043F0227F0A12283C900030EFF008
:1015800090005E2290005F02051FD39DEC6480F8FE
:101590007480982290001B020513E47B02FAF9F88C
:1015A00002041A90001702051FE48F2E8E2DF52CD1
:0D15B000F52B227E2F122B8C7F107E272220
:102A01008E098F0A8B0B8A0C890DAF051DEF602192
:102A1100050AE50AAE097002050914F5828E83E400
:102A210093FF780BE475F001120580EF1202C38069
:022A3100D922A8
:102B17008F828E83E4F53FF53EF53DF53CAF82AEFF
:102B270083E4FCFDAB3FAA3EA93DA83CC31204D0F9
:082B3700500543BD1080E622A9
:092C4B00E0FF7C2F122B3F7F6497
:102C5400E4FDFCC3ED9FEC9E50070DBD00010C800C
:012C6400F27D
:012C6500224C
:10000300758E5190FE917401F0A37410F075BD5F6D
:0700130090FEA07420F02212
:102BF200E490FE80F0758901758DFA758BCB43A840
:0E2C020008438840758CCB758AEB43881022FE
:102A330090FF10E054F04408F090FF02E054F0449B
:102A430002F0D28490FFA07420F0A37404F075CC3C
:102A53000675CEFF75CD98759E0275981043A81024
:012A63002250
:102C800043B40343B4807F147E00122C5475B50105
:072C900090FE9B744BF02243
:102C660090FF08E04488F090FF00E0540F4430F0F5
:0A2C760090FF11E054F04403F02237
:0B2D27008F99E59830E1FB5398FD22E6
:10283C008FB543B440E5B430E5FB53B4DF1215401B
:10284C00E4FBFAF943B440E5B430E5FB53B4DFE5FF
:10285C00B62BFBE5B73AFA7F147E00122C5409B95B
:0C286C0010E275B501A902121540AF0181
:01287800223D
:100FF5007B017A00794B7D0E7F007E2F122A0190AE
:10100500004BE0FFE4FCFDFE1215471214F87808CA
:101015001204F412154790000F12051F90004CE0C2
:10102500FFE4FCFDFE1203741215471214F8E47B6D
:10103500E87A03F9F812038F121547E47F307E75BD
:10104500FDFC90000F1214C340107F007E097D3D0A
:101055007C0090000F12147E400A90000F12054389
:1010650000009C4090004DE0900063F07002800706
:10107500900063E0B4FE0374FFF090004EE0FF9033
:101085000031E4F0A3EFF0E0F8E4F0E8900031F08F
:1010950090004FE0FF900031E48FF012035E900066
:1010A50031E0FEA3E0FF4E6009D3EF9408EE94070C
:1010B5004009900031E4F0A37405F0900050E090F1
:1010C500002EF0900037F0900051E0900026F0607F
:1010D50006E0D394FF40069000267401F09000527C
:1010E500E0F45401900023F0900053E0540178732C
:1010F500F6A3E05401900014F0900055E0540190DF
:101105000013F0900056E0900009F0900057E0FFC2
:101115007889760008A607E6F8E4798AF7E819F7EA
:10112500A3E0788A26F618E436F6E6FE08E6FF4ED2
:101135006009D3EF94B8EE940B40077889760308DD
:1011450076E87B017A0079077D027F807E2F122A5F
:1011550001900007E0900035F0900008E0786DF60A
:101165007F807E2F122B8C7F107E27122C549000AF
:1011750035E004F0E0FF7D807C2F122B3F121540F7
:10118500786DE67014122D019000097464F09000DA
:101195002E740AF0900037F022786DE6FFB4010A4C
:0B11A5007D817C2F122B3F1215402291
:1005B600E5406003020A9743B440E5B430E5FB53D7
:1005C600B4DF85B70985B60A9000151215181215FD
:1005D60084AE09AF0A1214CA900049E0FEA3E0FFF8
:1005E600C3950AEE9509500DC3E50A9FF50AE5097C
:1005F6009EF509800BC3EF950AF50AEE9509F509F4
:1006060090001B12051FAE09AF0AE4FCFD1203742D
:1006160090001B120537900015E05401FEA3E04E32
:10062600705212155F4017900043E09464503DE00D
:100636002402F0E0D3946440337464F0802E90007A
:100646000DE07004A3E06401702A90002EE0FF9094
:100656000043E0FED39F4014EE94024004E024FEE3
:10066600F0900043E0C39F500312156D900043E0E5
:10067600FF1222B5C3900015E094205003020AC071
:1006860043BD10E4F0A3F0900044E004F0A312058B
:100696001390005F1215259000451205379000440F
:1006A600E0C394084035E4F0A31205137810120451
:1006B600E190004512053790004512051390004958
:1006C600EE8FF012035E900049E0C313F0A3E0132F
:1006D600F090004512054300000000900000E0C3C2
:1006E60094085005E004F08040900064E07002A396
:1006F600E07036121576E0FE2402FDE433FCEF12BC
:10070600158A5018900030E02402FDE433FCEE1206
:10071600158A500890005EE0900030F0900030E0BE
:1007260090005EF0E4900000F0E4FFFEFDFC900017
:10073600171214C37033121594EF2488FFEE341386
:100746001214E312053790002BE07002A3E0701933
:100756007F407E427D0FFC90001712147E400A9067
:100766000017120543000F4240900006E070131276
:1007760015949000381205379000271205430000A3
:10078600000190002712151F1214C0400302093CF5
:1007960090002712051390003812152590001B12A1
:1007A60014C3400302093C900006E004F09000598F
:1007B60012151F900059120537900006E0FFFBE462
:1007C600FAF9F890005912051312041A900038121B
:1007D600053712154D78031204E1900027120537EC
:1007E600E47F207E4EFDFC9000271214C3500A9031
:1007F600002712054300004E20E47F607EEAFDFCE0
:1008060090002712147E400A90002712054300002C
:10081600EA6012154D90001712147E403E90003883
:1008260012051F1214BA1203811214D07F807E386B
:100836007D017C0090005F12147E40089000417498
:1008460006F0801DE47F407E9CFDFC90005F121444
:100856007E90004140087409F08006900041740CB7
:10086600F0900041121501403B1214BA1214C05008
:1008760033900042E09410500302094B900041E08F
:10088600D39409500512154D801112154D9000177D
:10089600121470400C1214A512159A900017120526
:1008A6003702093C1214FE500302094B1214BA9087
:1008B600003812147040771215A312154D120381D9
:1008C6001214D07F007E127D7A7C001214C0505E16
:1008D6007F807E4F7D127C0090005F1214C3504EC5
:1008E600900042E09410400280387FE07E937D04C1
:1008F6007C0090005F12147E40089000427410F055
:10090600801B7FF07E497D027C0090005F12147E82
:100916009000424005740CF080037408F01214FE37
:10092600400C1214A512159A9000171205371214CE
:10093600FE4012E48004E4900006F090005912058F
:100946004300000000900036E0D394004036E014E7
:10095600F01214D612147E5003020A4C90003C1278
:100966000513EF2498FFEE343AFEE43DFDE43CFC2B
:1009760090001B1214C34003020A4C1214D612052F
:1009860037020A4C12150A405774FFF5F012035E3F
:1009960012150A404B7F007E127D7A7C009000176C
:1009A60012147E400C90000F120543000C35008097
:1009B6002F1214F81215A31214CD7F407E547D8990
:1009C6007C0090005F12147E40161215A3C374407B
:1009D6009BFF74549AFE748999FDE498FC1215479E
:1009E6001214F890001712152590001B12147E4061
:1009F60055900063E0FF900030E0D39F400512154C
:100A06000A4043900064E07002A3E070091214BA31
:100A160090003C120537900064E4F0A304F09000C7
:100A26002412151890002F7401F07872F6F53A909A
:100A360000427408F0E490000DF0A3F0788BF608FD
:100A4600F67887F608F612159490001F120537906F
:100A5600005F1205430000000090001B12054300D2
:100A6600000000900064E0FEA3E0FFD39400EE9443
:100A7600004047900031E0FCA3E0FDD3EF9DEE9CE3
:100A86004038E4900064F0A3F075400190002FF028
:100A96002290000DE4F0A304F0E4F54090000AF083
:100AA600A3F0900002F090004512054300000000FC
:0A0AB6001214851205430000000031
:010AC0002213
:1021A100E4F50A90005F12054300000000E4F50920
:1021B10043B440E5B430E5FB53B4DF121584AFB648
:1021C100AEB71214CA0509E509B480E47F907E0117
:1021D100122B1790005F120513780B1204E18F097F
:1021E100E509D3940C400CE509948D5006E50A9459
:0D21F10014500A050AE50AD3945040A722B5
:0121FE0022BE
:1021FF0090005F12054300000000E4F509E4F50CC0
:10220F00F50D43B440E5B430E5FB53B4DF85B70AB1
:10221F0085B60B121584AE0AAF0B1214CA050DE565
:10222F000D7002050CB400DAE50CB420D543BD10D7
:10223F000509E509B408C690005F1205137810125E
:0A224F0004E1900049EEF0A3EFF067
:012259002262
:10240600BF0105E4FCFD802E7E007C017DFF1202EB
:10241600F71C7D64120309AC06AD07E41201C38FF5
:10242600108E0F8D0E8C0DAB10AA0FA90EA80D12D3
:102436001553AC06AD0790FF907411F075DA01756F
:0E244600E30175E2FF8CE58DE475E10F7F0088
:012454002265
:10292E00BF0104E4FE801E7E007C007DFF12152B8D
:10293E008F108E0F8D0E8C0DAB10AA0FA90EA80D39
:10294E00121553AE0790FF9C7410F075DEFF8EDFEC
:05295E0075DD947F000F
:012963002251
:0222B5008F0B8D
:1022B7007884E6B50B037F00227884A60BE50B70C4
:1022C7000790005D04F08012E50BB46407E490000A
:1022D7005DF0800690005D7402F0E50BFD7C0090D8
:1022E7000009E0FF7E0012152BE4FBFAF9783F1294
:1022F70015598F0CC3E50B950CFF122406AF0C1272
:04230700292E7F00FC
:01230B0022AF
:100D7C00122CAC120003122C66122BF2122A331214
:100D8C002C8075BBAA90FEA774FFF053BBF7D2AFB3
:100D9C007FC87E00122B17121576F0C2AF120FF51A
:100DAC007F641222B5D2AF1221A190002EE0FF90E9
:100DBC000043F01222B57F2C7E01122B171221FF5B
:100DCC0090005F12054300000000E4F53B900035F5
:100DDC00E0D3940A4007E4F0122D018003121AF5B7
:100DEC00E5426015120FDC90002DE004F0E0FF747A
:100DFC0003D39F5004E4F542F0786CE6601B120FAD
:100E0C00DC788606E618700106D3742C7886967406
:100E1C000118965004E4786CF6E53B6003020EE48E
:100E2C00900003E0FF90005DE0FD6F600D7F761297
:100E3C00296490005DE0900003F0900040E0FF908A
:100E4C00002FE0FD6F60187F7712296490002FE06F
:100E5C00900040F0B40108786F06E618700106792E
:100E6C006FE7787166700419E71866601C786EE697
:100E7C00FE08E6FF1215A97F7C121F0E786EE6FEA7
:100E8C0008E6FF08A60608A607900001E0640170BA
:100E9C0047F07872E66401703FF6900024E0FEA300
:100EAC00E0FF900033E06E7003A3E06F602A121530
:100EBC00A97F74121F0E900024E0FFA3E090003372
:100ECC00CFF0A3EFF090001F1205138F2E8E2D8DF7
:100EDC002C8C2B7F7D121F0EE53A6401702AF53A9B
:100EEC007873E664017021F508E50825E02474F8B0
:100EFC00E6FA08E6FB4A6007E4FD7F7812230C054E
:100F0C0008E508C3940840E143BD101211B09000ED
:100F1C0023E064016003020FA7E541701CF54075E6
:100F2C00410112156D90004512054300000000129E
:100F3C001485120543000000001205B6D390000E74
:100F4C00E0940090000DE094004033900002E0B477
:100F5C00012CE4F090000D121519900026E0FFC34F
:100F6C0090000EE09F90000DE094004011E4F0A37F
:100F7C00F0900013E064016005E4FF1222B5121535
:100F8C005F5003020DEC7888E6640118466003029A
:100F9C000DECF608F6121519020DECE4F541900073
:100FAC0014E07007FF1222B5020DEC900037E0FF41
:100FBC001222B5E4F54012156D9000451205430060
:100FCC0000000012148512054300000000020DEC15
:100FDC007F641222B57F647E00122B17E4FF12226D
:090FEC00B57F647E00122B172270
:03001B0002197A4D
:10197A00C0E0C0F0C083C082C0D075D000C000C033
:10198A0001C002C003C004C005C006C007AF3FAE15
:10199A003EAD3DAC3CEF2401FFE43EFEE43DFDE4F8
:1019AA003C8F3F8E3E8D3DF53C90000A12151890F3
:1019BA00000AE0FEA3E0FFE4FCFD7B607AEAF9F8A6
:1019CA00D31204BA500C90000AE4F0A3F09000027B
:1019DA0004F0788C06E618700106C3788CE694E861
:1019EA0018E69403400C760008760078877600089B
:1019FA0076019000041215187889E6FE08E6FFC3FE
:101A0A00900005E09F900004E09E4009E4F0A3F0F6
:101A1A0090000104F0D007D006D005D004D003D03E
:101A2A0002D001D000D0D0D082D083D0F0D0E03222
:0300230002266B47
:10266B00C0E0C0F0C083C082C0D075D000C000C035
:0D267B0001C002C003C004C005C006C007B6
:0F268800E59830E00AAF991225D65398FED2AFED
:10269700D007D006D005D004D003D002D001D00097
:0B26A700D0D0D082D083D0F0D0E03241
:102B8C0053BBF7C280E5BB20E3F6D280C2AF75FD24
:102B9C00F075FC0F8EFA8FF975FDD275FC2D75FD55
:052BAC00E175FC1E2292
:102B3F0053BBF7C280E5BB20E3F6D280C2AF8FFB59
:102B4F0075FDF075FC0F8CFA8DF975FDB475FC4BA6
:072B5F0075FDE175FC1E226B
:101AF5007F001215B31214EE12041A78081204E1CD
:101B05007D007C2F122B3F7F647E001214EE1204A1
:101B15001A7D017C2F122B3F1215409000637D0228
:101B2500122C4B9000317D03122C4BA3E0FF7D045A
:101B3500122C4D90002EE0FF7D05122C4D900026B5
:101B4500E0FF7D06122C4D900023E0F4FF7D071287
:101B55002C4D7873E6FF7D08122C4D900014E0FFA4
:101B65007D09122C4D900013E0FF7D0A122C4D903B
:101B75000009E0FF7D0B122C4D7889E6FF7D0C12E4
:101B85002C4D08E6FF7D0D122C4D7F801215B312EA
:101B95002C547D807C2FE4FF122B3F0D0F122B3F21
:021BA500D2AFBD
:011BA700221B
:04141F00026A00005D
:101A3A00120296FFE52F4FFFE52EFEE52DFDE52C60
:101A4A008F2F8E2E8D2DF52CFC78081204F48F2FF3
:101A5A008E2E8D2D22AF2EAE2DAD2CAC2B1204E185
:101A6A00AD0722AF2EAE2DAD2CAC2B1204E1AD0783
:101A7A0022AB07E4FDFC900083E022855883855958
:101A8A0082E5569582E555958322C3E56B950AFF53
:101A9A00E56A9509FEC3EF22AC06AD077F0722E48B
:101AAA0075F001020580AF69AE68AD67AC660204E5
:101ABA00E1FEE54EFDE54DFCE47BFF22E4F51DF574
:101ACA001CF51BF51A22120296AB26AA27A9282270
:101ADA00AF05AE04AD0322755401755500755666FF
:0B1AEA00227485250AF97400350922DA
:101FF600EFC39430400CEFD39439500674D02FFFC2
:102006008022EFC39441400CEFD394465006EF2450
:10201600C9FF8010EFC39461400AEFD39466500461
:10202600EF24A9FFEF540FC454F0FFEDC3943040E2
:102036000CEDD39439500674D02DFD801EEDC3945B
:10204600414008EDD394465002800CEDC3946140A4
:102056000AEDD394665004ED24A9FDED540F420712
:012066002257
:0626F7008B178A188919F7
:1026FD00121AC6E94A4B7005FFFEFDFC22121AC6DE
:10270D007817121AA912027D601AE51D2401FFE443
:10271D00351CFEE4351BFDE4351A8F1D8E1C8D1BFB
:0C272D00F51A80DCAF1DAE1CAD1BAC1A11
:01273900227D
:06299A008B438A448945CD
:1029A0008B498A4A894BE94A4B7004FBFAF922E5C4
:1029B000481548AE47700215474E600B7849121A09
:0D29C000A9ED1202C380E8AB43AA44A9456B
:0129CD0022E7
:0617F4008B1E8A1F8920F4
:1017FA008B268A27892885212985222A85232BE970
:10180A004A4B6008E5234522452170077B007A0090
:10181A00790022D3852A83852B82E5289582E527BC
:10182A0095834019E52B2525F9E52A3524FA8A837B
:10183A008982D3E5289582E52795834032E4F52C01
:10184A00F52DC3E52D9525E52C9524505BAB29AAEA
:10185A002AA92B852D82852C83121AD0852D828563
:10186A002C831202D5052DE52D70D7052C80D38542
:10187A00242C85252DD3E52D9400E52C94004028B1
:10188A00AB29AA2AA92BE52D24FFFFE52C34FFFE5C
:10189A008F82F583121AD08F828E831202D5E52D9C
:0E18AA00152D70D1152C80CDAB1EAA1FA920C4
:0118B800220D
:1029CE008F698E688D678C6678181204E1EF12029B
:1029DE00C37810121AB0900001EF1202D5780812C7
:1029EE001AB0900002EF1202D5E569FF900003EFD6
:0329FE000202D5FD
:10258B00E4F52FF52EF52DF52C12027DFFE48F2FA0
:10259B00F52EF52DF52CAE2EAD2DAC2C121A538C31
:1025AB002C900001121A3A8C2C900002121A3A8CC1
:1025BB002C900003120296FFE52F4FFFE52EFEE550
:0A25CB002DFDE52C121A58F52CFC2A
:0125D50022E3
:062D5C00900084E0FF225C
:0C2D1B00E4900084F0FDFC7F04022363C0
:062D6200900081E0FF2259
:0824F3008F5A8B5B8A5C895D46
:1024FB00121A7DB401037F0122AF05AE04AD5A124F
:10250B002D0EAC06E4FD122D0EAC06E55EFD122D74
:10251B000EAC06AD5F122D0EAC06AD07AB5BAA5C25
:10252B00A95D855E1C855F1D122A64121AA21223F7
:03253B00637F01BA
:01253E00227A
:02277C008D27A7
:10277E00121A7BB401037F0122121ADA1227B0E477
:10278E00FD1227B0AD07E5277003FD8006AF05AE3D
:10279E00047D01122D0EAC06AD077F071223637F59
:0127AE000129
:0E27AF0022122D0EAC067D01122D0EAC06225C
:082142008F278D288A298B2AC2
:10214A00E4FDFCF52B900083E0B401037F0122AF8C
:10215A0005AE04E529FD122D0EAC06AD2A122D0E90
:10216A00AC06AD27122194E4FD122194AD07E528AF
:10217A007003FD8006AF05AE047D01122D0EAC067C
:09218A00AD077FB21223637F014F
:0E21930022122D0EAC067D01122D0EAC06227E
:08230C008F288D298A2A8B2BF2
:10231400E4FDFCF52C900083E0B401037F0122AFBF
:1023240005AE04E52AFD122D0EAD2B12235BAD285C
:10233400122D0E7D0412235BE4FD122D0EAC067DDE
:1023440001122D0EAC06AD29122D0EAC06AD077F81
:06235400B21223637F01B9
:09235A0022AC06122D0EAC062285
:101F0E00121A7BB401037F0122121ADA122D0EACC3
:101F1E00067D02122D0EAC06E4FD122D0EAC067DD2
:101F2E0004122D0EC006C0077818121A5FD007D003
:101F3E0006122D0EC006C0077810121A5FD007D0F9
:101F4E0006122D0EC006C007AF2EAE2DAD2CAC2B3B
:101F5E0078081204E1AD07D007D006122D0EAC069C
:101F6E00C007E52EFFE4AD07D007122D0E121AA200
:051F7E001223637F0146
:011F8300223B
:021CE7008F2A42
:101CE900E4FDFCF531900083E0B401037F0122AFEC
:101CF90005AE04E52FFD122D0EAC06AD30122D0EEA
:101D0900AC06AD2A122D0EAC067D02122D0EAC06C4
:101D1900E4FD122D0EAC067D04122D0EC006C0077F
:101D29007818121A6DD007D006122D0EC006C007FA
:101D39007810121A6DD007D006122D0EC006C007F2
:101D4900AF2EAE2DAD2CAC2B78081204E1AD07D027
:101D590007D006122D0EAC06C007E52EFFE4AD072D
:101D6900D007122D0EAC06AD077FB21223637F0197
:011D79002247
:08253F008F608B618A628963E1
:10254700121A7DB401037F0122AF05AE04AD6012FC
:102557002D0EAC067D03122D0EAC06E564FD122D83
:102567000EAC06AD65122D0EAC06AD07AB61AA62C7
:10257700A96385641C85651D122A64121AA2122399
:03258700637F016E
:01258A00222E
:022964008D28BC
:10296600121A7BB401037F0122121ADA122D0EAC61
:10297600067D04122D0EAC06E4FD122D0EAC067D6E
:1029860001122D0EAC06AD28122D0E121AA212231C
:03299600637F015B
:01299900221B
:0218B900AD0779
:1018BB00E4F551F552900083E0B401037F0122124D
:1018CB00195A7D05121972E4FD12197274FFFFE5A6
:1018DB004F121ABBFAF9F8C31204D070097D01122A
:1018EB00195AAD50803D74FFFF121ABB7AFFF9F8FD
:1018FB00C31204D070047D0280197D04121966781E
:10190B0018121941AF50AE4FAD4EAC4D78101204BA
:10191B00E1AD071219667808121941E550FFE4ADE5
:10192B0007AF52122D0E8E518F52AD52AC517F0715
:05193B001223637F018F
:1019400022AF50AE4FAD4EAC4D1204E1AD07AF52D9
:10195000AE51122D0E8E518F5222AF52AE51122D1A
:101960000E8E518F5222AF52AE51122D0E8E518FCC
:0A1970005222122D0E8E518F5222CA
:082D32008C278D2812027DFFA1
:012D3A002276
:082D3B008C288D2912027DFF96
:012D4300226D
:072D44008C2A8D2B12258B58
:012D4B002265
:1025D6008F39D3121A854015E5569559FFE555955D
:1025E60058FEC3EF941BEE64809480502DC3121ADC
:1025F60085500DC3E5599556FFE55895554F601A18
:10260600C3900081121A8B40077A007966121AE18C
:0B2616007854121AA9E5391202C32201
:1011B000E4F509F50AF50BF50CC3E56B941FE56A38
:1011C00094005024122C10EFD39400401B1227BD22
:1011D000056BE56BAC6A7002056A142485F58274B0
:1011E000003CF583EFF080D1C3E56B9407E56A948A
:1011F000005003021310121A949407EE9400500347
:101200000212DF7485250AF58274003509F583E042
:101210006455600A050AE50A70DC050980D8748601
:10122000250AF58274003509F583E064AA600A0591
:101230000AE50A70C1050980BD7487250AF5827424
:10124000003509F583E06004740280387489250A4A
:10125000F58274003509F583E0FE748A250AF5826B
:1012600074003509F583E07C002400FFEC3ECF24B8
:1012700007F50CE43FF50BD3E50C9426E50B940041
:1012800040097403250AF50AE4804D121A94950C5E
:10129000EE950B404A121AEBFA7B01E50C24FFFD98
:1012A000E50B34FFFC122B66E50A250CFDE509353C
:1012B0000BFC74842DF58274003CF583E06F6009AB
:1012C0007403250AF50AE4800FAF0AAE09120AC1B9
:1012D000E50C250AF50AE50B3509F5090211F6C3F7
:1012E000E56B950AF56BE56A9509F56AD3E56B94AC
:1012F00000E56A94004019121AEB752101F5228964
:1013000023856A24856B257B017A0079851217F481
:0113100022BA
:102CAC00121AE175570175580075596690008174B8
:032CBC00FFF02204
:10142300019100048D00000000603C00C301010332
:1014330002040265046602670168026902710172AF
:101443000173017402750176047704780479027AD2
:10145300017B047C027D0282048304840485048668
:091463000487048804890496043E
:1027FD00AB1EAA1FA920AD22AC212225E02474F81E
:10280D00E6FA08E6FB4A22900024E0FEA3E0FFE48E
:10281D008F2E8E2DF52CF52B22E0FFE48F2EF52D2E
:0F282D00F52CF52B22E0FFE4FCFDFEC30204D0E6
:0D2D0100E4FDFC7F04122363786C76012250
:102C2E00E4FEEF7004FFFD8006EEFF7E007D0112D4
:0D2C3E002D0EAE07EEFD7C007FB10223637A
:03001E00022D2789
:1015BD007D017F011216E99000147F711216A29021
:1015CD00002E1228267F031216AF900063E0FFB4A1
:1015DD00FF05E4F516801EEFB4C8057516028015DB
:1015ED00EFB42805751603800CEFB41405751604B9
:1015FD008003751605AD167F651216F49000311235
:10160D0028177F661216AF9000237F671216A290DF
:10161D0000261228267F681216BAE47B107A27F965
:10162D00F890000F12051312041AC374329F12287A
:10163D00277F691216BA7873E67F721216D2900060
:10164D00091228267F041216DE900013E07F731214
:10165D0016D21228147F741216DE90005D7F76125A
:10166D0016C590002F7F771216C57D017F78121653
:10167D00F47889E6FE08E612281B7F79121F0E7F8B
:10168D00647E00122B17AD427F7A1216E9E4FDFC41
:05169D007FB40223638D
:1016A200E0FD12277C7F647E00122B1722121F0E90
:1016B2007F647E00122B1722121F0E7F647E00129F
:1016C2002B1722E0FD1229647F647E00122B172261
:1016D200FD12277C7F647E00122B1722121F0E7FC1
:1016E200647E00122B172212277C7F647E00122B4D
:0D16F20017221229647F647E00122B17223C
:102CBF00122D328F257D017F0112277C8F247F02F9
:012CCF0022E2
:1026B200E4F528122D448F278E268D258C24900038
:1026C2002EAB27AA26A925A8241228327003752822
:1026D20001AF2790002EEFF0FE900037F01228286D
:1026E2007F03121F0EBF010AE52860037F02227FCB
:0426F20001227F0042
:0126F60022C1
:102A9300E4F524122D44900009E0B50703752401E1
:102AA300900009EFF01228287F04121F0EBF010ABD
:0C2AB300E52460037F02227F01227F00E7
:012ABF0022F4
:101E0600E4F526122D3B8F24E5247891667005753E
:101E16002601801F7873E6601AE4F525E525122869
:101E2600086007AD247F6512230C0525E525C394BC
:101E36000840E9E52414601014601514601A146053
:101E46001F1460242405702890006374FFF080201E
:101E560090006374C8F080189000637428F08010B6
:101E66009000637414F08008900030E0900063F0F6
:101E76007891A624AD247F65122964BF010AE52660
:0A1E860060037F02227F01227F002B
:011E9000222F
:101E9100E4F529122D448F278E268D258C24900060
:101EA10031E0FEA3E0FFE4FCFDAB27AA26A925A8AB
:101EB10024C31204D07005752901802D7873E66062
:101EC10028E4F528E528122808601585272E85269F
:101ED1002D85252C85242B8A2F8B307F66121CE7BC
:101EE1000528E528C3940840DBAE26AF27900031D2
:101EF100EEF0A3EFF012281C7F66121F0EBF010A3D
:0C1F0100E52960037F02227F01227F009F
:011F0D0022B1
:10245500E4F526122D328F24900023E0B52405756E
:102465002601801F7873E6601AE4F525E525122814
:10247500086007AD247F671221420525E525C39431
:102485000840E9900023E524F0FD7F6712277CBF13
:0E249500010AE52660037F02227F01227F00FC
:0124A3002216
:10206700E4F529122D448F278E268D258C24900088
:1020770026AB27AA26A925A8241228327005752978
:1020870001802D7873E66028E4F528E528122808F2
:10209700601585272E85262D85252C85242B8A2FAF
:1020A7008B307F68121CE70528E528C3940840DBBE
:1020B700AF27900026EFF01228287F68121F0EBF67
:0E20C700010AE52960037F02227F01227F00CB
:0120D50022E8
:101BA800E4F529122D448F278E268D258C24788DD7
:101BB800120507AB27AA26A925A824C31204D070AA
:101BC80005752901802D7873E66028E4F528E52855
:101BD800122808601585272E85262D85252C852415
:101BE8002B8A2F8B307F69121CE70528E528C394C0
:101BF8000840DBAF27AE26AD25AC24788D12052B27
:101C0800C374329527FFE49526FEE49525FDE495F7
:101C180024FCE47B107A27F9F812038F90000F1246
:101C28000537788D1205078F2E8E2D8D2C8C2B7FE6
:101C380069121F0EBF010AE52960037F02227F0196
:031C4800227F00F8
:011C4B002276
:102AEC00E4F524122D32900014E0B507037524018F
:102AFC00900014EFF0FD7F7112277CBF010AE524D2
:0A2B0C0060037F02227F01227F0098
:012B1600229C
:1028B600E4F524122D327873E6B507037524017802
:1028C60073EFF6122C2E7873E66008E4FDFC7FB4F5
:1028D6001223637873E6FD7F7212277CBF010AE537
:0B28E6002460037F02227F01227F009C
:0128F10022C4
:1024A400E4F526122D328F24900013E0B52405752F
:1024B4002601801F7873E6601AE4F525E5251228C5
:1024C400086007AD247F731221420525E525C394D6
:1024D4000840E9900013E524F0FD7F7312277CBFC8
:0E24E400010AE52660037F02227F01227F00AD
:0124F20022C7
:10262100122D32EF6041E4900024F0A3F07873E6BC
:10263100602DE4F524E524122808601A900024E0B6
:10264100FEA3E0FFE48F2E8E2DF52CF52B8A2F8B28
:10265100307F74121CE70524E524C3940840D61288
:0926610028147F74121F0E7F0281
:01266A00224D
:102AC000122D3BAD07ED146016047016900064E4FF
:102AD000F0A304F090003604F090002FF08003750E
:0B2AE00042017F781229648F247F02DE
:012AEB0022C8
:1020D600E4F527122D448E248F25E525788A66702F
:1020E60004E52418667005752701802C7873E66070
:1020F60027E4F526E5261228086014E485252E85B2
:10210600242DF52CF52B8A2F8B307F79121CE705B1
:1021160026E526C3940840DC7889A62408A6251857
:10212600E6FE08E612281B7F79121F0EBF010AE59C
:0B2136002760037F02227F01227F0050
:01214100227B
:102C9700122D32EF6003754201E4FD7F7A12277C23
:042CA7008F247F02F5
:012CAB002206
:1023B600E4F527122D3B8F25E52514602F04703494
:1023C6007873E66401702DF526E526122808600A62
:1023D6007D017F7812230C7527010526E526C39417
:1023E6000840E6E527600D7542018008E4FDFC7FA4
:0F23F600B4122363AD257F7B1229648F247F02ED
:0124050022B4
:10273A00122D3B8F25E525146015146017146019B6
:10274A0014601B14601D2405701C122D6B80171257
:10275A002D6E801212001A800D12002180081200BC
:10276A00228003122D71AD257F961229648F247F52
:01277A00025C
:01277B00223B
:0616FF008B1E8A1F8920EA
:10170500EF120590174001174B0317560417616533
:10171500176C66177767178268178D6917987117A1
:10172500A37217AD7317B77517C17817CB7917D58E
:101735007A17DF7B17E996000017F11227FD122CA7
:10174500BF8F230217F11227FD1226B28F2302172E
:10175500F11227FD122A938F230217F11227FD128A
:101765001E068F230217F11227FD121E918F2302E9
:1017750017F11227FD1224558F230217F11227FDA9
:101785001220678F230217F11227FD121BA88F2342
:101795000217F11227FD122AEC8F230217F11227E7
:1017A500FD1228B68F2380441227FD1224A48F230F
:1017B500803A1227FD1226218F2380301227FD1231
:1017C5002AC08F2380261227FD1220D68F23801C46
:1017D5001227FD122C978F2380121227FD1223B694
:0E17E5008F2380081227FD12273A8F23AF238F
:0117F30022D3
:032D68007F1E22A9
:032D6B00022CD067
:032D6E00022CE153
:01001A0022C3
:0100210022BC
:0100220022BB
:012D7100223F
:102CD000C2AF75FDF075FC0F75FD8775FC78D2AF3E
:012CE00022D1
:102CE100C2AF75FDF075FC0F75FD7875FC87D2AF2D
:012CF10022C0
:0F2CF20064646E6F6861663600312E302E3000DC
:03146C0001530029
:101F84007489250EF5827400350DF583E07514000F
:101F9400F513748A250EF5827400350DF583E0255A
:101FA40014F514E43513F51322350DF583E0F8E444
:101FB40022E026F618E436F622748B250EF5827498
:101FC40000350DF583E02212051378101204E1ADFB
:101FD400072212051378081204E1AD072274AA2F10
:101FE400F974003EFA7B0122E475F00112058002C7
:021FF400027D6C
:101C4C00E4FFFE900049E0C4F854F0C8A3E0C4548B
:101C5C000F48FD122D0E7E00900030E0FD122D0E6F
:101C6C007E00C006C007900017121FCBD007D0060D
:101C7C00122D0E7E00C006C007900017121FD6D082
:101C8C0007D006122D0E7E00C006C00790001F1252
:101C9C001FCBD007D006122D0E7E00C006C00790B9
:101CAC00001F121FD6D007D006122D0E7E00C006C4
:101CBC00C00790000F121FCBD007D006122D0E7E3E
:101CCC0000C006C00790000F121FD6D007D0061216
:0B1CDC002D0EEFFD7C007FC002236393
:082D4C00E4FDFC7FC1022363DA
:0C2D0E00121FE1ED1202C30FBF00010E06
:012D1A002296
:0A2A64008E178F188B198A1A891B30
:102A6E00121FE1851921851A22851B23851C2485B9
:102A7E001D251217F4E51D2518F518E51C3517F55B
:042A8E0017FEAF1868
:012A92002221
:102879008B348A3589368C378D38E94A4B602DE59A
:102889003845376027E5381538AE37700215374EA9
:10289900601AAB34AA35A93612027DFF12001E74E4
:0D28A900012536F536E43535F53580D922A8
:0A2B66008B348A3589368C378D38A0
:102B7000E4FFFDFCC3ED9538EC9537500E78341228
:0B2B80001FEC2FFF0DBD00010C80E9D1
:012B8B002227
:042363008C328D33F8
:102367009000A47455F0A374AAF0E4A3F0A3EFF0CF
:10237700E532A3F0E533A3F02407F533E43532F56E
:10238700327B017A0079A4E53324FFFDE53234FF7F
:10239700FC122B6674A32533F58274003532F5835E
:0F23A700EFF07B017A0079A4AD33AC32022879D4
:102BD200E4FFE553700AFEFD122D0E7553018007C6
:102BE2007E007D01122D0EEFFD7C00E4FF022363C7
:1028F200E4F5167A2C79F212291E7A2C79F2122A30
:10290200648F167A2C79FB12291E7A2C79FB122AF3
:0C291200648F16EFFD7C007F0102236340
:10291E007BFF1226F78E1C8F1DAF167E007BFF22CB
:082D5400E4FDFC7F0202236391
:022BB1008F1D76
:102BB300122D68E4FEEEC39F501275F002EE9000F2
:0E2BC300C3120574E0651D60030E80E9AF06C5
:012BD10022E1
:06225A008B168A1789189B
:1022600012027DF519900001120296F51A900002F3
:10227000120296751C00F51B900003120296251C95
:10228000F51CE4351BF51BAF19122BB175F002EFED
:102290009000C4120574E0651A60037F0022AB163B
:1022A000E5182404F9E43517FA851B21851C22AFB3
:0422B000191216FFEA
:0122B4002207
:040AC1008E0D8F0EF9
:100AC50074882FF58274003EF583E0FF1205900BC4
:100AD5000D000B10010B13020B16030B4D040B54E9
:100AE500060D78080AF9B10BCAB40B07C00B0AC189
:100AF50000000D7B121FBD6003020D7BFDFC7FB462
:100B05008043021C4C022D4C022BD20228F2022DEE
:100B150054121FBDFF900081F0BF020B121AF5128F
:100B250015BDE4F53B800C900081E0FFB40109752B
:100B35003B01E4786CF68008EF753B01786C760133
:100B4500E4FDFC7F030223639000847401F022120C
:100B55001F84E4F511F512C3E5129514E5119513FB
:100B65004003020D7BE50E2512FDE50D3511FC74E4
:100B75008D2DF58274003CF583E0751000F50F743A
:100B85008E2DF58274003CF583E02510F510E435D3
:100B95000FF50F748B250EF97400350DFA7B01E9FD
:100BA5002512F9EA3511FA12225ABF0103121AF574
:100BB500E5102404FFE4350FFEEF2512F512EE359E
:100BC50011F5118092121F84121FBDF515748C2525
:100BD5000EF5827400121FAD7975F7E819F7748D5B
:100BE500250EF5827400350DF5837875121FB574E1
:100BF5008E250EF5827400121FAD7977F7E819F787
:100C0500748F250EF5827400350DF5837877121FE4
:100C1500B57490250EF5827400121FAD7979F7E849
:100C250019F77491250EF5827400350DF583E0787A
:100C350079121FB67492250EF5827400121FAD79D4
:100C45007BF7E819F77493250EF5827400350DF5D9
:100C550083E0787B121FB67494250EF5827400121A
:100C65001FAD797DF7E819F77495250EF5827400A7
:100C7500350DF583E0787D121FB67496250EF58245
:100C85007400121FAD797FF7E819F77497250EF5F3
:100C9500827400350DF583E0787F121FB6749825B0
:100CA5000EF5827400121FAD7981F7E819F7749972
:100CB500250EF5827400350DF583E07881121FB697
:100CC500749A250EF5827400121FAD7983F7E81921
:100CD500F7749B250EF5827400350DF583E0788356
:100CE500121FB67875E6184660047D018002E4FDA2
:100CF5007F821229647877E6184660047D018002B8
:100D0500E4FD7F831229647879E6184660047D0145
:100D15008002E4FD7F84122964787BE6184660042E
:100D25007D018002E4FD7F85122964787DE6184601
:100D350060047D018002E4FD7F86122964787FE6E8
:100D4500184660047D018002E4FD7F8712296478DE
:100D550081E6184660047D018002E4FD7F88122942
:100D6500647883E6184660047D018002E4FD7F898E
:060D75000229641215BD05
:010D7B002255
:102C1000E5578558838559826554700AE556658263
:0E2C20007004E555658360037F01227F00226A
:1027BD00AB57AA58A959E554855583855682655757
:1027CD00700AE55965827004E55865836021C390F0
:1027DD000081E5599582E5589583400D7A0079661B
:0F27ED007557017558007559667857121FECFF24
:0127FC0022BA
:10002600020268E86480F8E933E83360110460F09E
:10003600ED33EC337009E8FCE9FDEAFEEBFF220440
:1000460060DED3EB9FEA9EE99DE8C2E78CF0C2F73B
:1000560095F0400CE8CCF8E9CDF9EACEFAEBCFFB07
:1000660012023385D0F05804700320D5B3E804702B
:10007600075002B2D502027292D5EC0460F7E4CCC6
:10008600C0E0C398F8603B94186008400DD0E0FBD0
:1000960002024AE4FBFAC9FC8028E830E406E4C917
:1000A600FBE4CAFCE830E305E4C9CACBFCE8540724
:1000B6006010F8C3E913F9EA13FAEB13FBEC13FC2F
:1000C600D8F130F52FC3E49CFCEF9BFFEE9AFEEDD2
:1000D60099FDD0E0FBEF4E4D4C701222DB0302027D
:1000E6006FEC2CFCEF33FFEE33FEED33FDED30E726
:1000F600EB02024AEF2BFFEE3AFEED39FDD0E0FBB4
:1001060050130BBB0003020272ED13FDEE13FEEF5C
:0801160013FFEC13FC02024A86
:10011E00020272EC5D046005E85904700302026885
:10012E00120233580460F6EC4860F2EC7004FDFEE7
:10013E00FF22C860DB2481C85009C39860025006B4
:10014E0002026F9850CAF582E9294B4A7005AB82BC
:10015E0002025E75F0007C1A7880C3EF9BEE9AED7A
:10016E0099400DC3EF9BFFEE9AFEED99FDE842F02C
:10017E00DC23ACF0D0E0FFD0E0FED0E0FDAB82207F
:10018E00E7101BEB60BAEC2CFCEF33FFEE33FEED09
:10019E0033FD02024AE803F830E705C0F075F000BF
:1001AE00EF2FFFEE33FEED33FD40B830E7C280AAED
:1001BE0075F020800E75F010800575F0087D007EBC
:1001CE00007F003392D530D5031204ACEC334010CF
:1001DE00EF33FFEE33FEED33FDEC33FCD5F0ED22C5
:0E01EE00E5F0247EA2D513CC92E7CDCEFF2201
:1001FC00EDD2E7CD33EC3392D524814006E4FFFEFB
:10020C00FDFC22FCE4CFCECDCC24E0501174FF8059
:10021C00EDC3CC13CCCD13CDCE13CECF13CF0470F6
:07022C00F030D5DE0204AC46
:10023300E9D2E7C933E833F892D5EDD2E7CD33EC11
:0702430033FC5002B2D5228A
:10024A00EC30E7100FBF000C0EBE00080DBD000415
:10025A000BEB6014A2D5EB13FCED92E7FD2274FFC1
:10026A00FCFDFEFF22E480F8A2D574FF13FC7D801A
:03027A00E480EF2E
:101D8600020D7CE493A3F8E493A34003F68001F2EA
:101D960008DFF48029E493A3F85407240CC8C3335E
:101DA600C4540F4420C8834004F456800146F6DF2D
:101DB600E4800B0102040810204080901311E47E99
:101DC600019360BCA3FF543F30E509541FFEE49322
:101DD600A360010ECF54C025E060A840B8E493A3E9
:101DE600FAE493A3F8E493A3C8C582C8CAC583CA14
:101DF600F0A3C8C582C8CAC583CADFE9DEE780BECC
:01146F00007C
:10027D00BB010689828A83E0225002E722BBFE027F
:09028D00E32289828A83E49322B2
:10029600BB010CE58229F582E5833AF583E022501D
:1002A60006E92582F8E622BBFE06E92582F8E22267
:0D02B600E58229F582E5833AF583E4932281
:1002C300BB010689828A83F0225002F722BBFE011A
:0202D300F32214
:1002D500F8BB010DE58229F582E5833AF583E8F05F
:1002E500225006E92582C8F622BBFE05E92582C80B
:0202F500F222F3
:1002F700EF8DF0A4A8F0CF8CF0A428CE8DF0A42E1B
:02030700FE22D4
:10030900BC000BBE0029EF8DF084FFADF022E4CCD8
:10031900F875F008EF2FFFEE33FEEC33FCEE9DECA1
:10032900984005FCEE9DFE0FD5F0E9E4CEFD22EDE7
:10033900F8F5F0EE8420D21CFEADF075F008EF2F31
:10034900FFED33FD4007985006D5F0F222C398FD22
:050359000FD5F0EA22BF
:10035E00C5F0F8A3E028F0C5F0F8E582158270022A
:06036E001583E038F022C7
:0D037400EF2BFFEE3AFEED39FDEC38FC22D8
:0E038100C3EF9BFFEE9AFEED99FDEC98FC2277
:10038F00E88FF0A4CC8BF0A42CFCE98EF0A42CFC0D
:10039F008AF0EDA42CFCEA8EF0A4CDA8F08BF0A48B
:1003AF002DCC3825F0FDE98FF0A42CCD35F0FCEBEA
:1003BF008EF0A4FEA9F0EB8FF0A4CFC5F02ECD39AF
:0F03CF00FEE43CFCEAA42DCE35F0FDE43CFC221C
:1003DE0075F008758200EF2FFFEE33FECD33CDCCD6
:1003EE0033CCC58233C5829BED9AEC99E582984059
:1003FE000CF582EE9BFEED9AFDEC99FC0FD5F0D636
:10040E00E4CEFBE4CDFAE4CCF9A88222B800C1B95F
:10041E000059BA002DEC8BF084CFCECDFCE5F0CB9D
:10042E00F97818EF2FFFEE33FEED33FDEC33FCEBD6
:10043E0033FB10D703994004EB99FB0FD8E5E4F991
:10044E00FA227818EF2FFFEE33FEED33FDEC33FC7E
:10045E00C933C910D7059BE99A4007EC9BFCE99A72
:10046E00F90FD8E0E4C9FAE4CCFB2275F010EF2FB7
:10047E00FFEE33FEED33FDCC33CCC833C810D707B7
:10048E009BEC9AE899400AED9BFDEC9AFCE899F8F2
:0E049E000FD5F0DAE4CDFBE4CCFAE4C8F92285
:0E04AC00C3E49FFFE49EFEE49DFDE49CFC2261
:1004BA00EB9FF5F0EA9E42F0E99D42F0EC6480C8B9
:0604CA0064809845F02259
:1004D000EB9FF5F0EA9E42F0E99D42F0E89C45F082
:0104E00022F9
:1004E100E8600FECC313FCED13FDEE13FEEF13FFF9
:0304F100D8F1221D
:1004F400E8600FEFC333FFEE33FEED33FDEC33FC66
:03050400D8F12209
:0C050700E6FC08E6FD08E6FE08E6FF2220
:0C051300E0FCA3E0FDA3E0FEA3E0FF225B
:0C051F00E0F8A3E0F9A3E0FAA3E0FB225F
:0C052B00ECF608EDF608EEF608EFF622FC
:0C053700ECF0A3EDF0A3EEF0A3EFF02237
:10054300A8828583F0D083D08212055A12055A12ED
:10055300055A12055AE473E493A3C583C5F0C58312
:10056300C8C582C8F0A3C583C5F0C583C8C582C802
:010573002265
:0C057400A42582F582E5F03583F5832292
:10058000FAE6FB0808E6F925F0F618E6CA3AF6227C
:10059000D083D082F8E4937012740193700DA3A3FA
:1005A00093F8740193F5828883E47374029368600E
:0605B000EFA3A3A380DF0E
:00000001FF
