:03000000021CE9F6
:0C1CE900787FE4F6D8FD75818A021D307A
:1012A900045100000000410006004100420C4100C9
:1012B90043404400390000000044001700000000CA
:1012C90044001B0000000044005A000000004400D4
:1012D90046000000004400600000000042002B00AE
:1012E90001420015000041000C0041003600420097
:1012F90065000042000D0000410000084100450062
:10130900015500015600410014004100230141002C
:101319002E0A4100440A41003500410037004200CD
:101329000A0000410002000284000002800000104F
:101339006D00000000000000000000000000000037
:1013490000016C0041000900016A004100130042DC
:1013590000240000420033000041005E0141000307
:1013690001420004000041000100016B0041002F0F
:101379000041004100017D00016900027E00000278
:101389008203E84100380041002D004E004C000066
:1013990000000000000000000000000042000700FB
:0113A9000043
:10153900EF24A0FFEE340FFEE43DFDE43CFC120570
:101549001FD30204D0E4900045F09000437440F0AA
:101559009000367402F09000007406F0E4900006E2
:10156900F090005A229000171205139000391205C5
:101579001F12037490001712053790001702051304
:1015890090003912051FC30204D0E4FCFD12037454
:1015990090006002053790003D120513EF2470FF9B
:1015A900EE3417FEE43DFDE43CFC90001722122CBA
:1015B90009E47BE87A03F9F890000F02051390001B
:1015C90043E0FF900006E0C39F22D390002CE094F3
:1015D9000090002BE0940022E475F00102035E12F2
:1015E900051390001B12051F0203741202F7AC06C3
:1015F900AD07E41201C3E4FBFA79C878420201217C
:101609007F647E00022C0990000F02053790003993
:10161900020513E4FFFEFD7C3F12002D0201FCD3FD
:10162900900066E09400900065E094002290002EFE
:10163900E0900044F0227F0A122882900030EFF0F7
:1016490090005F2290006002051FD39DEC6480F832
:101659007480982290001B020513E47B02FAF9F8C2
:1016690002041A90001702051F7E2F122B417F10CA
:031679007E2722A7
:102A0B008E098F0A8B0B8A0C890DAF051DEF602188
:102A1B00050AE50AAE097002050914F5828E83E4F6
:102A2B0093FF780BE475F001120580EF1202C3805F
:022A3B00D9229E
:102ACC008F828E83E4F554F553F552F551AF82AEF7
:102ADC0083E4FCFDAB54AA53A952A851C31204D0F1
:082AEC00500543BD1080E622F5
:092C0000E0FF7C2F122AF47F642E
:102C0900E4FDFCC3ED9FEC9E50070DBD00010C8057
:012C1900F2C8
:012C1A002297
:102C3500758E5190FE917401F0A37410F075BD5F0F
:072C450090FEA07420F022B4
:102BA700E490FE80F0758901758DFA758BCB43A88B
:0E2BB70008438840758CCB758AEB438810224A
:102A3D0090FF10E054F04408F090FF02E054F04491
:102A4D0002F0D28490FFA07420F0A37404F075CC32
:102A5D000675CEFF75CD98759E0275981043A8101A
:012A6D002246
:102C4C0043B40343B4807F147E00122C0975B50184
:072C5C0090FE9B744BF02277
:102C1B0090FF08E04488F090FF00E0540F4430F040
:0A2C2B0090FF11E054F04403F02282
:0B2CBC008F99E59830E1FB5398FD2252
:102882008FB543B440E5B430E5FB53B4DF1216090B
:10289200E4FBFAF943B440E5B430E5FB53B4DFE5B9
:1028A200B62BFBE5B73AFA7F147E00122C0909B960
:0C28B20010E275B501A902121609AF0171
:0128BE0022F7
:100F9E007B017A00794C7D0E7F007E2F122A0B90FA
:100FAE00004CE0FFE4FCFDFE1216101215C178088D
:100FBE001204F412161090000F12051F90004DE04F
:100FCE00FFE4FCFDFE1203741216101215C1E47B31
:100FDE00E87A03F9F812038F121610E47F307E754B
:100FEE00FDFC90000F12158C40107F007E097D3D98
:100FFE007C0090000F121547400A90000F12054317
:10100E0000009C4090004EE0900064F0700280075B
:10101E00900064E0B4FE0374FFF090004FE0FF9088
:10102E000031E4F0A3EFF0E0F8E4F0E8900031F0E6
:10103E00900050E0FF900031E48FF012035E9000BC
:10104E0031E0FEA3E0FF4E6009D3EF9408EE940763
:10105E004009900031E4F0A37405F0900051E09047
:10106E00002EF0900037F0900052E0900026F060D5
:10107E0006E0D394FF40069000267401F0900053D2
:10108E00E0F45401900023F0900054E05401786C89
:10109E00F6A3E05401900014F0900056E054019035
:1010AE000013F0900057E0900009F0900058E0FF18
:1010BE007882760008A607E6F8E47983F7E819F750
:1010CE00A3E0788326F618E436F6E6FE08E6FF4E31
:1010DE006009D3EF94B8EE940B400778827603083C
:1010EE0076E87B017A0079077D027F807E2F122AB7
:1010FE000B900007E0900035F0900008E0786AF65B
:10110E007F807E2F122B417F107E27122C0990009C
:10111E0035E004F0E0FF7D807C2F122AF4121609D0
:10112E00786AE67003022C96786AE6FFB4010A7DAF
:0A113E00817C2F122AF412160922F8
:1005B600E5556003020A9543B440E5B430E5FB53C4
:1005C600B4DF85B70985B60A9000151215E1121633
:1005D6004DAE09AF0A12159390004AE0FEA3E0FF64
:1005E600C3950AEE9509500DC3E50A9FF50AE5097C
:1005F6009EF509800BC3EF950AF50AEE9509F509F4
:1006060090001B12051FAE09AF0AE4FCFD1203742D
:1006160090001B120537900015E05401FEA3E04E32
:1006260070521216284017900044E09464503DE042
:100636002402F0E0D3946440337464F0802E90007A
:100646000DE07004A3E06401702A90002EE0FF9094
:100656000044E0FED39F4014EE94024004E024FEE2
:10066600F0900044E0C39F5003121636900044E019
:10067600FF1222EAC3900015E094205003020AC438
:1006860043BD10E4F0A3F0900045E004F0A312058A
:10069600139000601215EE90004612053790004543
:1006A600E0C394084035E4F0A31205137810120451
:1006B600E190004612053790004612051390004A55
:1006C600EE8FF012035E90004AE0C313F0A3E0132E
:1006D600F090004612054300000000900000E0C3C1
:1006E60094085005E004F08040900065E07002A395
:1006F600E0703612163FE0FE2402FDE433FCEF12F2
:1007060016535018900030E02402FDE433FCEE123C
:100716001653500890005FE0900030F0900030E0F3
:1007260090005FF0E4900000F0E4FFFEFDFC900016
:100736001712158C703312165DEF2488FFEE3413F2
:100746001215AC12053790002BE07002A3E0701969
:100756007F407E427D0FFC900017121547400A909D
:100766000017120543000F4240900006E070131276
:10077600165D9000391205379000271205430000D8
:1007860000019000271215E8121589400302093C62
:100796009000271205139000391215EE90001B12D7
:1007A600158C400302093C900006E004F090005AC4
:1007B6001215E890005A120537900006E0FFFBE498
:1007C600FAF9F890005A12051312041A9000391219
:1007D600053712161678031204E190002712053722
:1007E600E47F207E4EFDFC90002712158C500A9067
:1007F600002712054300004E20E47F607EEAFDFCE0
:10080600900027121547400A900027120543000062
:10081600EA60121616900017121547403E900039EE
:1008260012051F1215831203811215997F807E38D7
:100836007D017C00900060121547400890004274CC
:1008460006F0801DE47F407E9CFDFC900060121542
:100856004790004240087409F08006900042740CEC
:10086600F09000421215CA403B12158312158950AA
:1008760033900043E09410500302094B900042E08D
:10088600D3940950051216168011121616900017E9
:10089600121539400C12156E1216639000171205C8
:1008A6003702093C1215C7500302094B12158390F3
:1008B6000039121539407712166C1216161203817A
:1008C6001215997F007E127D7A7C00121589505E82
:1008D6007F807E1A7D067C0090006012158C504E3B
:1008E600900043E09410400280387FE07E937D04C0
:1008F6007C0090006012154740089000437410F089
:10090600801B7FF07E497D027C00900060121547B7
:100916009000434005740CF080037408F01215C76C
:10092600400C12156E121663900017120537121539
:10093600C74012E48004E4900006F090005A1205C5
:100946004300000000900036E0D394004036E014E7
:10095600F012159F1215475003020A4A90003D12E5
:100966000513EF2498FFEE343AFEE43DFDE43CFC2B
:1009760090001B12158C4003020A4A12159F12059D
:1009860037020A4A1215D3405774FFF5F012035E78
:100996001215D3404B7F007E127D7A7C00900017A3
:1009A600121547400C90000F120543000C350080CD
:1009B6002F1215C112166C1215967F407E547D8932
:1009C6007C00900060121547401612166CC37440E6
:1009D6009BFF74549AFE748999FDE498FC121610D4
:1009E6001215C19000171215EE90001B1215474004
:1009F60053900064E0FF900030E0D39F400512154D
:100A0600D34041900065E07002A3E070091215839F
:100A160090003D120537900065E4F0A304F09000C5
:100A2600241215E190002F7401F0786BF6900043C4
:100A36007408F0E490000DF0A3F07884F608F678D8
:100A460080F608F612165D90001F120537900060BA
:100A56001205430000000090001B12054300000031
:100A660000900065E0FEA3E0FFD39400EE94004002
:100A76004D900031E0FCA3E0FDD3EF9DEE9C403E9F
:100A8600E4900065F0A3F075550190002FF02290D8
:100A9600000DE4F0A304F0E4F55590000AF0A3F08D
:100AA600900002F07FFAFE122ACC9000461205430F
:0E0AB6000000000012154E1205430000000063
:010AC400220F
:10217E00E4F50A90006012054300000000E4F50942
:10218E0043B440E5B430E5FB53B4DF12164DAFB6A1
:10219E00AEB71215930509E509B480E47F907E0170
:1021AE00122ACC900060120513780B1204E18F09ED
:1021BE00E509D3940C400CE509948D5006E50A947C
:0D21CE0014500A050AE50AD3945040A722D8
:0121DB0022E1
:1021DC0090006012054300000000E4F509E4F50CE2
:1021EC00F50D43B440E5B430E5FB53B4DF85B70AD5
:1021FC0085B60B12164DAE0AAF0B121593050DE5F5
:10220C000D7002050CB400DAE50CB420D543BD10FA
:10221C000509E509B408C690006012051378101280
:0A222C0004E190004AEEF0A3EFF089
:012236002285
:10243D00BF0105E4FCFD802E7E007C017DFF1202B4
:10244D00F71C7D64120309AC06AD07E41201C38FBE
:10245D00108E0F8D0E8C0DAB10AA0FA90EA80D129C
:10246D00161CAC06AD0790FF907411F075DA01756E
:0E247D00E30175E2FF8CE58DE475E10F7F0051
:01248B00222E
:10293800BF0104E4FE801E7E007C007DFF1215F4BA
:102948008F108E0F8D0E8C0DAB10AA0FA90EA80D2F
:1029580012161CAE0790FF9C7410F075DEFF8EDF18
:0529680075DD947F0005
:01296D002247
:0222EA008F0B58
:1022EC00787DE6B50B037F0022787DA60BE50B709D
:1022FC000790005E04F08012E50BB46407E49000D4
:10230C005EF0800690005E7402F0E50BFD7C0090A0
:10231C000009E0FF7E001215F4E4FBFAF9783F1295
:10232C0016228F0CC3E50B950CFF12243DAF0C123B
:04233C0029387F00BD
:01234000227A
:100D6600122C63122C35122C1B122BA7122A3D12A1
:100D76002C4C75BBAA90FEA774FFF053BBF7D2AFFD
:100D86007FC87E00122ACC12163FF0C2AF120F9E09
:100D96007F641222EAD2AF12217E90002EE0FF90ED
:100DA6000044F01222EA7F2C7E01122ACC1221DCAA
:100DB60090006012054300000000900035E0D394D7
:100DC600034007E4F0122C968003121A6490003850
:100DD600E0601A120F8590002DE004F0E0FF740326
:100DE600D39F5009E4900038F090002DF07869E622
:100DF600601B120F85787F06E618700106D3742CE7
:100E0600787F96740118965004E47869F69000038A
:100E1600E0FF90005EE0FD6F600D7F7612296E9018
:100E2600005EE0900003F0900041E0FF90002FE0AC
:100E3600FD6F600D7F7712296E90002FE0900041C4
:100E4600F0900001E064017062F0786BE664017076
:100E56005AF6900024E0FEA3E0FF900033E06E70A7
:100E660003A3E06F601DE48F2E8E2DF52CF52B7FEE
:100E760074121E7D900024E0FFA3E0900033CFF0B3
:100E8600A3EFF0786CE664017021F508E50825E02B
:100E9600246DF8E6FA08E6FB4A6007E4FD7F78125F
:100EA60023410508E508C3940840E143BD10E55514
:100EB600700B900016E0541F700312114890002327
:100EC600E064016003020F50E556701CF555755637
:100ED6000112163690004612054300000000121556
:100EE6004E120543000000001205B6D390000EE036
:100EF600940090000DE094004033900002E0B401AD
:100F06002CE4F090000D1215E2900026E0FFC3904D
:100F1600000EE09F90000DE094004011E4F0A3F075
:100F2600900013E064016005E4FF1222EA1216281D
:100F36005003020DD37881E6640118466003020D62
:100F4600D3F608F61215E2020DD3E4F55690001416
:100F5600E07007FF1222EA020DD3900037E0FF127D
:100F660022EAE4F5551216369000461205430000B3
:0F0F7600000012154E12054300000000020DD3BB
:100F85007F641222EA7F647E00122ACCE4FF1222DB
:090F9500EA7F647E00122ACC22DE
:03001B000218E9DF
:1018E900C0E0C0F0C083C082C0D075D000C000C0C5
:1018F90001C002C003C004C005C006C007AF54AE92
:1019090053AD52AC51EF2401FFE43EFEE43DFDE44A
:101919003C8F548E538D52F55190000A1215E19067
:10192900000AE0FEA3E0FFE4FCFD7B607AEAF9F837
:10193900D31204BA500C90000AE4F0A3F09000020C
:1019490004F0788506E618700106C37885E694E800
:1019590018E69403400C7600087600788076000833
:1019690076019000041215E17882E6FE08E6FFC3CD
:10197900900005E09F900004E09E4009E4F0A3F088
:1019890090000104F0D007D006D005D004D003D0D0
:1019990002D001D000D0D0D082D083D0F0D0E032B4
:030023000226F5BD
:1026F500C0E0C0F0C083C082C0D075D000C000C0AB
:0D27050001C002C003C004C005C006C0072B
:0F271200E59830E00AAF991226AA5398FED2AF8D
:10272100D007D006D005D004D003D002D001D0000C
:0B273100D0D0D082D083D0F0D0E032B6
:102B410053BBF7C280E5BB20E3F6D280C2AF75FD6F
:102B5100F075FC0F8EFA8FF975FDD275FC2D75FDA0
:052B6100E175FC1E22DD
:102AF40053BBF7C280E5BB20E3F6D280C2AF8FFBA5
:102B040075FDF075FC0F8CFA8DF975FDB475FC4BF1
:072B140075FDE175FC1E22B6
:101A64007F001216721215B712041A78081204E1D4
:101A74007D007C2F122AF47F647E001215B71204B5
:101A84001A7D017C2F122AF41216099000647D023B
:101A9400122C009000317D03122C00A3E0FF7D0482
:101AA400122C0290002EE0FF7D05122C02900026DD
:101AB400E0FF7D06122C02900023E0F4FF7D071264
:101AC4002C02786CE6FF7D08122C02900014E0FFD3
:101AD4007D09122C02900013E0FF7D0A122C029063
:101AE4000009E0FF7D0B122C027882E6FF7D0C12C8
:101AF4002C0208E6FF7D0D122C027F801216721252
:101B04002C097D807C2FE4FF122AF40D0F122AF495
:021B1400D2AF4E
:011B160022AC
:0413AA0002670000D6
:1019A900120296FFE52F4FFFE52EFEE52DFDE52CF2
:1019B9008F2F8E2E8D2DF52CFC78081204F48F2F85
:1019C9008E2E8D2D22AF2EAE2DAD2CAC2B1204E117
:1019D900AD0722AF2EAE2DAD2CAC2B1204E1AD0715
:1019E90022AB07E4FDFC900088E022854F838550F7
:1019F90082E54D9582E54C958322C3E568950AFFFA
:101A0900E5679509FEC3EF22AC06AD077F0722E41F
:101A190075F001020580AF66AE65AD64AC63020482
:101A2900E1FEE545FDE544FCE47BFF22E4F51DF517
:101A39001CF51BF51A22120296AB26AA27A9282201
:101A4900AF05AE04AD0322754B01754C00754D67AA
:0B1A590022748A250AF9740035092266
:101FD900EFC39430400CEFD39439500674D02FFFDF
:101FE9008022EFC39441400CEFD394465006EF246E
:101FF900C9FF8010EFC39461400AEFD3946650047F
:10200900EF24A9FFEF540FC454F0FFEDC3943040FF
:102019000CEDD39439500674D02DFD801EEDC39478
:10202900414008EDD394465002800CEDC3946140C1
:102039000AEDD394665004ED24A9FDED540F42072F
:012049002274
:06273C008B178A188919B1
:10274200121A35E94A4B7005FFFEFDFC22121A35BA
:102752007817121A1812027D601AE51D2401FFE48F
:10276200351CFEE4351BFDE4351A8F1D8E1C8D1BB6
:0C277200F51A80DCAF1DAE1CAD1BAC1ACC
:01277E002238
:0629A4008B3A8A3B893CDE
:1029AA008B408A418942E94A4B7004FBFAF922E5D5
:1029BA003F153FAE3E7002153E4E600B7840121A2C
:0D29CA0018ED1202C380E8AB3AAA3BA93C0D
:0129D70022DD
:061763008B1E8A1F892085
:101769008B268A27892885212985222A85232BE901
:101779004A4B6008E5234522452170077B007A0022
:10178900790022D3852A83852B82E5289582E5274E
:1017990095834019E52B2525F9E52A3524FA8A830D
:1017A9008982D3E5289582E52795834032E4F52C93
:1017B900F52DC3E52D9525E52C9524505BAB29AA7C
:1017C9002AA92B852D82852C83121A3F852D828586
:1017D9002C831202D5052DE52D70D7052C80D385D4
:1017E900242C85252DD3E52D9400E52C9400402843
:1017F900AB29AA2AA92BE52D24FFFFE52C34FFFEEE
:101809008F82F583121A3F8F828E831202D5E52DBE
:0E181900152D70D1152C80CDAB1EAA1FA92055
:01182700229E
:1029D8008F668E658D648C6378181204E1EF12029D
:1029E800C37810121A1F900001EF1202D57808124E
:1029F8001A1F900002EF1202D5E566FF900003EF60
:032A08000202D5F2
:10265F00E4F52FF52EF52DF52C12027DFFE48F2FCB
:10266F00F52EF52DF52CAE2EAD2DAC2C1219C28CEE
:10267F002C9000011219A98C2C9000021219A98C10
:10268F002C900003120296FFE52F4FFFE52EFEE57B
:0A269F002DFDE52C1219C7F52CFCE7
:0126A900220E
:062CF100900089E0FF22C3
:0C2CB000E4900089F0FDFC7F04022398F2
:062CF700900086E0FF22C0
:0825C7008F578B588A59895A7D
:1025CF001219ECB401037F0122AF05AE04AD57120F
:1025DF002CA3AC06E4FD122CA3AC06E55BFD122C7C
:1025EF00A3AC06AD5C122CA3AC06AD07AB58AA5931
:1025FF00A95A855B1C855C1D122A9D121A11122384
:03260F00987F01B0
:0126120022A5
:0227C2008D2761
:1027C4001219EAB401037F0122121A491227F6E40E
:1027D400FD1227F6AD07E5277003FD8006AF05AEB1
:1027E400047D01122CA3AC06AD077F071223987F4A
:0127F40001E3
:0E27F50022122CA3AC067D01122CA3AC0622EE
:08211F008F278D288A298B2AE5
:10212700E4FDFCF52B900088E0B401037F0122AFAA
:1021370005AE04E529FD122CA3AC06AD2A122CA38B
:10214700AC06AD27122171E4FD122171AD07E52818
:102157007003FD8006AF05AE047D01122CA3AC060B
:09216700AD077FB21223987F013D
:0E21700022122CA3AC067D01122CA3AC062279
:082341008F278D288A298B2AC1
:10234900E4FDFCF52B900088E0B401037F0122AF86
:1023590005AE04E529FD122CA3AD2A122390AD2761
:10236900122CA37D04122390E4FD122CA3AC067D4C
:1023790001122CA3AC06AD28122CA3AC06AD077F25
:06238900B21223987F014F
:09238F0022AC06122CA3AC0622BC
:101E7D001219EAB401037F0122121A49122CA3ACE4
:101E8D00067D02122CA3AC06E4FD122CA3AC067D3C
:101E9D0004122CA3C006C00778181219CED007D093
:101EAD0006122CA3C006C00778101219CED007D089
:101EBD0006122CA3C006C007AF2EAE2DAD2CAC2B39
:101ECD0078081204E1AD07D007D006122CA3AC069A
:101EDD00C007E52EFFE4AD07D007122CA3121A118F
:051EED001223987F01A3
:011EF20022CD
:021C56008F2AD3
:101C5800E4FDFCF531900088E0B401037F0122AF78
:101C680005AE04E52FFD122CA3AC06AD30122CA353
:101C7800AC06AD2A122CA3AC067D02122CA3AC062E
:101C8800E4FD122CA3AC067D04122CA3C006C007E9
:101C980078181219DCD007D006122CA3C006C0078A
:101CA80078101219DCD007D006122CA3C006C00782
:101CB800AF2EAE2DAD2CAC2B78081204E1AD07D0B9
:101CC80007D006122CA3AC06C007E52EFFE4AD072B
:101CD800D007122CA3AC06AD077FB21223987F0160
:011CE80022D9
:082613008F5D8B5E8A5F896018
:10261B001219ECB401037F0122AF05AE04AD5D12BC
:10262B002CA3AC067D03122CA3AC06E561FD122C8A
:10263B00A3AC06AD62122CA3AC06AD07AB5EAA5FD2
:10264B00A96085611C85621D122A9D121A11122325
:03265B00987F0164
:01265E002259
:02296E008D27B3
:102970001219EAB401037F0122121A49122CA3ACE6
:10298000067D04122CA3AC06E4FD122CA3AC067D3C
:1029900001122CA3AC06AD27122CA3121A1112237C
:0329A000987F011C
:0129A3002211
:02182800AD070A
:10182A00E4F548F549900088E0B401037F012212EB
:10183A0018C97D051218E1E4FD1218E174FFFFE5ED
:10184A0046121A2AFAF9F8C31204D070097D011255
:10185A0018C9AD47803D74FFFF121A2A7AFFF9F8BA
:10186A00C31204D070047D0280197D041218D57841
:10187A00181218B0AF47AE46AD45AC447810120402
:10188A00E1AD071218D578081218B0E547FFE4ADA4
:10189A0007AF49122CA38E488F49AD49AC487F0740
:0518AA001223987F01EC
:1018AF0022AF47AE46AD45AC441204E1AD07AF4998
:1018BF00AE48122CA38E488F4922AF49AE48122C46
:1018CF00A38E488F4922AF49AE48122CA38E488F62
:0A18DF004922122CA38E488F4922E3
:082CC7008C278D2812027DFF0D
:012CCF0022E2
:082CD0008C278D2812027DFF04
:012CD80022D9
:072CD9008C2A8D2B12265FEF
:012CE00022D1
:1026AA008F39D31219F44015E54D9550FFE54C9535
:1026BA004FFEC3EF941FEE64809480502DC312190D
:1026CA00F4500DC3E550954DFFE54F954C4F601AF8
:1026DA00C39000861219FA40077A007967121A50D5
:0B26EA00784B121A18E5391202C322C7
:10114800E4F509F50AF50BF50CC3E568941FE567A6
:1011580094005024122BC5EFD39400401B1228038F
:101168000568E568AC677002056714248AF582741F
:10117800003CF583EFF080D1C3E5689407E56794F8
:101188000050030212A8121A039407EE94005003A9
:10119800021277748A250AF58274003509F583E00E
:1011A8006455600A050AE50A70DC050980D8748B65
:1011B800250AF58274003509F583E064AA600A05FA
:1011C8000AE50A70C1050980BD748C250AF5827488
:1011D800003509F583E0600474028038748E250AAE
:1011E800F58274003509F583E0FE748F250AF582CF
:1011F80074003509F583E07C002400FFEC3ECF2421
:1012080007F50CE43FF50BD3E50C9426E50B9400A9
:1012180040097403250AF50AE4804D121A03950C57
:10122800EE950B404A121A5AFA7B01E50C24FFFD91
:10123800E50B34FFFC122B1BE50A250CFDE50935EF
:101248000BFC74892DF58274003CF583E06F60090E
:101258007403250AF50AE4800FAF0AAE09120AC51D
:10126800E50C250AF50AE50B3509F50902118EC3C7
:10127800E568950AF568E5679509F567D3E5689423
:1012880000E56794004019121A5A752101F5228960
:10129800238567248568257B017A00798A1217637C
:0112A8002223
:102C6300121A50754E01754F0075506790008674A7
:032C7300FFF0224D
:1013AE00018A00048600000000603600C8010103B7
:1013BE000204026504660267016802690271017225
:1013CE000173017402750176047704780479027A48
:1013DE00017B0482048304840485048604870488C4
:0313EE000489046B
:10257900AB1EAA1FA920AD22AC212225E0246DF8AB
:10258900E6FA08E6FB4A22900024E0FEA3E0FFE415
:102599008F2E8E2DF52CF52B22E0FFE48F2EF52DB5
:1025A900F52CF52B22FFE48F2E8E2DF52CF52B8A99
:0E25B9002F8B3022E0FFE4FCFDFEC30204D0B5
:0D2C9600E4FDFC7F0412239878697601228A
:102BE300E4FEEF7004FFFD8006EEFF7E007D011220
:0D2BF3002CA3AE07EEFD7C007FB1022398FD
:03001E00022CBCF5
:1013F5007D017F011215239000147F711214DB907B
:10140500002E1225A27F031214E8900064E0FFB4B9
:10141500FF05E4F516801EEFB4C8057516028015A4
:10142500EFB42805751603800CEFB4140575160482
:101435008003751605AD167F6512152E90003112C5
:1014450025937F661214E89000237F671214DB90C2
:1014550000261225A27F681214F3E47B107A27F97F
:10146500F890000F12051312041AC374329F122547
:10147500A37F691214F3786CE6FD7F721215239031
:1014850000091225A27F041215189000137F73120C
:1014950014FE1225907F7412151890005E7F761247
:1014A500150B90002F7F7712150B7D017F78121594
:1014B5002E7882E6FE08E61225977F79121E7D7F3B
:1014C500647E00122ACC9000387F7A1214FEE4FD67
:0614D500FC7FB402239825
:1014DB00E0FD1227C27F647E00122ACC22121E7DF1
:1014EB007F647E00122ACC22121E7D7F647E001246
:1014FB002ACC22E0FD1227C27F647E00122ACC2266
:10150B00E0FD12296E7F647E00122ACC22121E7D12
:10151B007F647E00122ACC221227C27F647E0012C7
:0E152B002ACC2212296E7F647E00122ACC2266
:102C7600122CC78F257D017F011227C28F247F0268
:012C8600222B
:101EF300E4F529122CD98F278E268D258C2490006A
:101F03002EAB27AA26A925A8241225BD700575295D
:101F130001802D786CE66028E4F528E528122584F5
:101F2300601585272E85262D85252C85242B8A2F24
:101F33008B307F03121C560528E528C3940840DB29
:101F4300AF2790002EEFF0FE900037F01225A47F0C
:101F530003121E7DBF010AE52960037F02227F0170
:031F6300227F00DA
:011F66002258
:10229200E4F526122CD98F24900009E0B5240575A7
:1022A20026018026786CE66021E4F525E5251225D5
:1022B20084600EE485242EF52D1225B47F04121CB1
:1022C200560525E525C3940840E2900009E524F06F
:1022D2001225A27F04121E7DBF010AE52660037F3C
:0722E20002227F01227F00B0
:0122E90022D2
:101D7500E4F526122CD08F24E524788A6670057543
:101D85002601801F786CE6601AE4F525E525122505
:101D9500846007AD247F651223410525E525C3949D
:101DA5000840E9E52414601014601514601A1460E5
:101DB5001F1460242405702890006474FFF08020AF
:101DC50090006474C8F080189000647428F0801046
:101DD5009000647414F08008900030E0900064F086
:101DE500788AA624AD247F6512296EBF010AE526EF
:0A1DF50060037F02227F01227F00BD
:011DFF0022C1
:101E0000E4F529122CD98F278E268D258C2490005D
:101E100031E0FEA3E0FFE4FCFDAB27AA26A925A83C
:101E200024C31204D07005752901802D786CE660FA
:101E300028E4F528E528122584601585272E8526B7
:101E40002D85252C85242B8A2F8B307F66121C56DE
:101E50000528E528C3940840DBAE26AF2790003163
:101E6000EEF0A3EFF01225987F66121E7DBF010AE7
:0C1E7000E52960037F02227F01227F0031
:011E7C002243
:10248C00E4F526122CC78F24900023E0B5240575A3
:10249C002601801F786CE6601AE4F525E5251225E7
:1024AC00846007AD247F6712211F0525E525C394A1
:1024BC000840E9900023E524F0FD7F671227C2BF96
:0E24CC00010AE52660037F02227F01227F00C5
:0124DA0022DF
:10204A00E4F529122CD98F278E268D258C24900011
:10205A0026AB27AA26A925A8241225BD700575290D
:10206A0001802D786CE66028E4F528E5281225849D
:10207A00601585272E85262D85252C85242B8A2FCC
:10208A008B307F68121C560528E528C3940840DB6C
:10209A00AF27900026EFF01225A47F68121E7DBF9D
:0E20AA00010AE52960037F02227F01227F00E8
:0120B8002205
:101B1700E4F529122CD98F278E268D258C247886DB
:101B2700120507AB27AA26A925A824C31204D0703B
:101B370005752901802D786CE66028E4F528E528ED
:101B4700122584601585272E85262D85252C85242D
:101B57002B8A2F8B307F69121C560528E528C394E2
:101B67000840DBAF27AE26AD25AC24788612052BBF
:101B7700C374329527FFE49526FEE49525FDE49589
:101B870024FCE47B107A27F9F812038F90000F12D8
:101B9700053778861205078F2E8E2D8D2C8C2B7F7F
:101BA70069121E7DBF010AE52960037F02227F01BA
:031BB700227F008A
:011BBA002208
:1024DB00E4F526122CC78F24900014E0B524057563
:1024EB002601801F786CE6601AE4F525E525122598
:1024FB00846007AD247F7112211F0525E525C39448
:10250B000840E9900014E524F0FD7F711227C2BF4B
:0E251B00010AE52660037F02227F01227F0075
:01252900228F
:1023EB00122CC78F24786CE6FF6524601DEF601AF2
:1023FB00E4F525E5251225846007AD247F721221B3
:10240B001F0525E525C3940840E9786CA624AF2465
:10241B00122BE3786CE66008E4FDFC7FB412239882
:10242B00786CE6FD7F721227C2BF01037F01227F0A
:01243B0000A0
:01243C00227D
:10252A00E4F526122CC78F24900013E0B524057514
:10253A002601801F786CE6601AE4F525E525122548
:10254A00846007AD247F7312211F0525E525C394F6
:10255A000840E9900013E524F0FD7F731227C2BFFB
:0E256A00010AE52660037F02227F01227F0026
:012578002240
:10284300122CC7EF6036E4900024F0A3F0786CE616
:102853006022E4F524E524122584600F900024E02F
:10286300FEA3E01225AE7F74121C560524E524C393
:0E287300940840E11225907F74121E7D7F02B2
:012881002234
:102A6E00122CD0AD07ED146016047019900065E4B9
:102A7E00F0A304F090003604F090002FF080069042
:0E2A8E0000387401F07F7812296E8F247F02C9
:012A9C002217
:1020B900E4F527122CD98E248F25E52578836670BF
:1020C90004E524186670057527018026786CE6609A
:1020D90021E4F526E526122584600E7882E6FE08BD
:1020E900E61225AE7F79121C560526E526C394080B
:1020F90040E27882A62408A62518E6FE08E61225FD
:10210900977F79121E7DBF010AE52760037F0222AE
:052119007F01227F00A0
:01211E00229E
:10000300122CC7EF60069000387401F0E4FD7F7A8C
:070013001227C28F247F02B7
:01001A0022C3
:10277F00122CD08F25E52514602504702A786CE67D
:10278F0064017023F526E52612258460077D017FFD
:10279F00781223410526E526C3940840E98008E412
:1027AF00FDFC7FB4122398AD257F7B12296E8F24F9
:0227BF007F0297
:0127C10022F5
:06167C008B1E8A1F89206D
:10168200EF12059016BA0116C50316D00416DB65D3
:1016920016E66616F16716FC6817076917127117C6
:1016A2001C72172673173075173A78174479174E3C
:1016B2007A17587B00001760122579122C768F2337
:1016C200021760122579121EF38F2302176012256A
:1016D200791222928F23021760122579121D758FBB
:1016E20023021760122579121E008F23021760123F
:1016F200257912248C8F2302176012257912204A31
:101702008F23021760122579121B178F230217608D
:101712001225791224DB8F2380441225791223EBC0
:101722008F23803A12257912252A8F2380301225A1
:10173200791228438F238026122579122A6E8F234D
:10174200801C1225791220B98F238012122579125A
:1017520000038F23800812257912277F8F23AF235E
:011762002264
:032CFD007F1B2218
:0F2C8700386C6D786E6C676700312E302E300020
:0313F100014A00AE
:101F6700748E250EF5827400350DF583E075140027
:101F7700F513748F250EF5827400350DF583E02572
:101F870014F514E43513F51322350DF583E0F8E461
:101F970022E026F618E436F6227490250EF58274B0
:101FA70000350DF583E02212051378101204E1AD18
:101FB700072212051378081204E1AD072274AF2F28
:101FC700F974003EFA7B0122E475F00112058002E4
:021FD700027D89
:101BBB00E4FFFE90004AE0C4F854F0C8A3E0C4541C
:101BCB000F48FD122CA37E00900030E0FD122CA3D9
:101BDB007E00C006C007900017121FAED007D006BC
:101BEB00122CA37E00C006C007900017121FB9D09D
:101BFB0007D006122CA37E00C006C00790001F1250
:101C0B001FAED007D006122CA37E00C006C00790D3
:101C1B00001F121FB9D007D006122CA37E00C006DE
:101C2B00C00790000F121FAED007D006122CA37E58
:101C3B0000C006C00790000F121FB9D007D00612C4
:0B1C4B002CA3EFFD7C007FC00223985B
:082CE100E4FDFC7FC102239811
:0C2CA300121FC4ED1202C30FBF00010E8F
:012CAF002202
:0A2A9D008E178F188B198A1A891BF7
:102AA700121FC4851921851A22851B23851C24859D
:102AB7001D25121763E51D2518F518E51C3517F5B3
:042AC70017FEAF182F
:012ACB0022E8
:1028BF008B348A3589368C378D38E94A4B602DE554
:1028CF003845376027E5381538AE37700215374E63
:1028DF00601AAB34AA35A93612027DFF12001E749E
:0D28EF00012536F536E43535F53580D92262
:0A2B1B008B348A3589368C378D38EB
:102B2500E4FFFDFCC3ED9538EC9537500E78341273
:0B2B35001FCF2FFF0DBD00010C80E939
:012B40002272
:042398008C328D33C3
:10239C009000A97455F0A374AAF0E4A3F0A3EFF095
:1023AC00E532A3F0E533A3F02407F533E43532F539
:1023BC00327B017A0079A9E53324FFFDE53234FF45
:1023CC00FC122B1B74A82533F58274003532F5836F
:0F23DC00EFF07B017A0079A9AD33AC320228BF54
:102B8700E4FFE54A700AFEFD122CA3754A0180078F
:102B97007E007D01122CA3EFFD7C00E4FF02239849
:1028FC00E4F5167A2C79871229287A2C7987122AF2
:10290C009D8F167A2C79901229287A2C7990122A7C
:0C291C009D8F16EFFD7C007F01022398C8
:102928007BFF12273C8E1C8F1DAF167E007BFF227B
:082CE900E4FDFC7F02022398C8
:022B66008F1DC1
:102B6800122CFDE4FEEEC39F501275F002EE9000A9
:0E2B7800C8120574E0651D60030E80E9AF060B
:012B8600222C
:062237008B168A178918BE
:10223D0012027DF519900001120296F51A90000216
:10224D00120296751C00F51B900003120296251CB8
:10225D00F51CE4351BF51BAF19122B6675F002EF5B
:10226D009000C9120574E0651A60037F0022AB1659
:10227D00E5182404F9E43517FA851B21851C22AFD6
:04228D001912167C90
:01229100222A
:040AC5008E0D8F0EF5
:100AC900748D2FF58274003EF583E0FF1205900BBB
:100AD90011000B14010B17020B1A030B37040B3E01
:100AE900060D62080AFDB10BB4B40B0BC00B0EC1A5
:100AF90000000D65121FA06003020D65FDFC7FB4A7
:100B09008029021BBB022CE1022B870228FC022C44
:100B1900E9121FA0FF900086F0BF020AE47869F687
:100B2900121A641213F5E4FDFC7F03022398900066
:100B3900897401F022121F67E4F511F512C3E51259
:100B49009514E51195134003020D65E50E2512FD77
:100B5900E50D3511FC74922DF58274003CF583E0A6
:100B6900751000F50F74932DF58274003CF583E040
:100B79002510F510E4350FF50F7490250EF9740062
:100B8900350DFA7B01E92512F9EA3511FA122237F6
:100B9900BF0103121A64E5102404FFE4350FFEEFC8
:100BA9002512F512EE3511F5118092121F67121FE9
:100BB900A0F5157491250EF5827400121F90796EB7
:100BC900F7E819F77492250EF5827400350DF5834F
:100BD900786E121F987493250EF5827400121F9077
:100BE9007970F7E819F77494250EF5827400350DBC
:100BF900F5837870121F987495250EF5827400128A
:100C09001F907972F7E819F77496250EF58274002A
:100C1900350DF583E07872121F997497250EF582C8
:100C29007400121F907974F7E819F77498250EF576
:100C3900827400350DF583E07874121F9974992533
:100C49000EF5827400121F907976F7E819F7749AF5
:100C5900250EF5827400350DF583E07876121F991B
:100C6900749B250EF5827400121F907978F7E819A4
:100C7900F7749C250EF5827400350DF583E07878BC
:100C8900121F99749D250EF5827400121F90797AAE
:100C9900F7E819F7749E250EF5827400350DF58372
:100CA900E0787A121F99749F250EF5827400121F3D
:100CB90090797CF7E819F774A0250EF58274003550
:100CC9000DF583E0787C121F99786EE6184660046A
:100CD9007D018002E4FD7F8212296E7870E6184654
:100CE90060047D018002E4FD7F8312296E7872E63B
:100CF900184660047D018002E4FD7F8412296E7824
:100D090074E6184660047D018002E4FD7F8512299E
:100D19006E7876E6184660047D018002E4FD7F86E0
:100D290012296E7878E6184660047D018002E4FD98
:100D39007F8712296E787AE6184660047D01800261
:100D4900E4FD7F8812296E787CE6184660047D01EF
:0C0D59008002E4FD7F8902296E1213F570
:010D6500226B
:102BC500E54E854F83855082654B700AE54D6582DC
:0E2BD5007004E54C658360037F01227F0022BF
:10280300AB4EAA4FA950E54B854C83854D82654E4F
:10281300700AE55065827004E54F65836021C390BB
:102823000086E5509582E54F9583400D7A007967E0
:0F283300754E01754F00755067784E121FCFFF1D
:012842002273
:10002600020268E86480F8E933E83360110460F09E
:10003600ED33EC337009E8FCE9FDEAFEEBFF220440
:1000460060DED3EB9FEA9EE99DE8C2E78CF0C2F73B
:1000560095F0400CE8CCF8E9CDF9EACEFAEBCFFB07
:1000660012023385D0F05804700320D5B3E804702B
:10007600075002B2D502027292D5EC0460F7E4CCC6
:10008600C0E0C398F8603B94186008400DD0E0FBD0
:1000960002024AE4FBFAC9FC8028E830E406E4C917
:1000A600FBE4CAFCE830E305E4C9CACBFCE8540724
:1000B6006010F8C3E913F9EA13FAEB13FBEC13FC2F
:1000C600D8F130F52FC3E49CFCEF9BFFEE9AFEEDD2
:1000D60099FDD0E0FBEF4E4D4C701222DB0302027D
:1000E6006FEC2CFCEF33FFEE33FEED33FDED30E726
:1000F600EB02024AEF2BFFEE3AFEED39FDD0E0FBB4
:1001060050130BBB0003020272ED13FDEE13FEEF5C
:0801160013FFEC13FC02024A86
:10011E00020272EC5D046005E85904700302026885
:10012E00120233580460F6EC4860F2EC7004FDFEE7
:10013E00FF22C860DB2481C85009C39860025006B4
:10014E0002026F9850CAF582E9294B4A7005AB82BC
:10015E0002025E75F0007C1A7880C3EF9BEE9AED7A
:10016E0099400DC3EF9BFFEE9AFEED99FDE842F02C
:10017E00DC23ACF0D0E0FFD0E0FED0E0FDAB82207F
:10018E00E7101BEB60BAEC2CFCEF33FFEE33FEED09
:10019E0033FD02024AE803F830E705C0F075F000BF
:1001AE00EF2FFFEE33FEED33FD40B830E7C280AAED
:1001BE0075F020800E75F010800575F0087D007EBC
:1001CE00007F003392D530D5031204ACEC334010CF
:1001DE00EF33FFEE33FEED33FDEC33FCD5F0ED22C5
:0E01EE00E5F0247EA2D513CC92E7CDCEFF2201
:1001FC00EDD2E7CD33EC3392D524814006E4FFFEFB
:10020C00FDFC22FCE4CFCECDCC24E0501174FF8059
:10021C00EDC3CC13CCCD13CDCE13CECF13CF0470F6
:07022C00F030D5DE0204AC46
:10023300E9D2E7C933E833F892D5EDD2E7CD33EC11
:0702430033FC5002B2D5228A
:10024A00EC30E7100FBF000C0EBE00080DBD000415
:10025A000BEB6014A2D5EB13FCED92E7FD2274FFC1
:10026A00FCFDFEFF22E480F8A2D574FF13FC7D801A
:03027A00E480EF2E
:101CF500020D66E493A3F8E493A34003F68001F292
:101D050008DFF48029E493A3F85407240CC8C333EF
:101D1500C4540F4420C8834004F456800146F6DFBE
:101D2500E4800B01020408102040809012A9E47E93
:101D3500019360BCA3FF543F30E509541FFEE493B3
:101D4500A360010ECF54C025E060A840B8E493A37A
:101D5500FAE493A3F8E493A3C8C582C8CAC583CAA5
:101D6500F0A3C8C582C8CAC583CADFE9DEE780BE5D
:0113F40000F8
:10027D00BB010689828A83E0225002E722BBFE027F
:09028D00E32289828A83E49322B2
:10029600BB010CE58229F582E5833AF583E022501D
:1002A60006E92582F8E622BBFE06E92582F8E22267
:0D02B600E58229F582E5833AF583E4932281
:1002C300BB010689828A83F0225002F722BBFE011A
:0202D300F32214
:1002D500F8BB010DE58229F582E5833AF583E8F05F
:1002E500225006E92582C8F622BBFE05E92582C80B
:0202F500F222F3
:1002F700EF8DF0A4A8F0CF8CF0A428CE8DF0A42E1B
:02030700FE22D4
:10030900BC000BBE0029EF8DF084FFADF022E4CCD8
:10031900F875F008EF2FFFEE33FEEC33FCEE9DECA1
:10032900984005FCEE9DFE0FD5F0E9E4CEFD22EDE7
:10033900F8F5F0EE8420D21CFEADF075F008EF2F31
:10034900FFED33FD4007985006D5F0F222C398FD22
:050359000FD5F0EA22BF
:10035E00C5F0F8A3E028F0C5F0F8E582158270022A
:06036E001583E038F022C7
:0D037400EF2BFFEE3AFEED39FDEC38FC22D8
:0E038100C3EF9BFFEE9AFEED99FDEC98FC2277
:10038F00E88FF0A4CC8BF0A42CFCE98EF0A42CFC0D
:10039F008AF0EDA42CFCEA8EF0A4CDA8F08BF0A48B
:1003AF002DCC3825F0FDE98FF0A42CCD35F0FCEBEA
:1003BF008EF0A4FEA9F0EB8FF0A4CFC5F02ECD39AF
:0F03CF00FEE43CFCEAA42DCE35F0FDE43CFC221C
:1003DE0075F008758200EF2FFFEE33FECD33CDCCD6
:1003EE0033CCC58233C5829BED9AEC99E582984059
:1003FE000CF582EE9BFEED9AFDEC99FC0FD5F0D636
:10040E00E4CEFBE4CDFAE4CCF9A88222B800C1B95F
:10041E000059BA002DEC8BF084CFCECDFCE5F0CB9D
:10042E00F97818EF2FFFEE33FEED33FDEC33FCEBD6
:10043E0033FB10D703994004EB99FB0FD8E5E4F991
:10044E00FA227818EF2FFFEE33FEED33FDEC33FC7E
:10045E00C933C910D7059BE99A4007EC9BFCE99A72
:10046E00F90FD8E0E4C9FAE4CCFB2275F010EF2FB7
:10047E00FFEE33FEED33FDCC33CCC833C810D707B7
:10048E009BEC9AE899400AED9BFDEC9AFCE899F8F2
:0E049E000FD5F0DAE4CDFBE4CCFAE4C8F92285
:0E04AC00C3E49FFFE49EFEE49DFDE49CFC2261
:1004BA00EB9FF5F0EA9E42F0E99D42F0EC6480C8B9
:0604CA0064809845F02259
:1004D000EB9FF5F0EA9E42F0E99D42F0E89C45F082
:0104E00022F9
:1004E100E8600FECC313FCED13FDEE13FEEF13FFF9
:0304F100D8F1221D
:1004F400E8600FEFC333FFEE33FEED33FDEC33FC66
:03050400D8F12209
:0C050700E6FC08E6FD08E6FE08E6FF2220
:0C051300E0FCA3E0FDA3E0FEA3E0FF225B
:0C051F00E0F8A3E0F9A3E0FAA3E0FB225F
:0C052B00ECF608EDF608EEF608EFF622FC
:0C053700ECF0A3EDF0A3EEF0A3EFF02237
:10054300A8828583F0D083D08212055A12055A12ED
:10055300055A12055AE473E493A3C583C5F0C58312
:10056300C8C582C8F0A3C583C5F0C583C8C582C802
:010573002265
:0C057400A42582F582E5F03583F5832292
:10058000FAE6FB0808E6F925F0F618E6CA3AF6227C
:10059000D083D082F8E4937012740193700DA3A3FA
:1005A00093F8740193F5828883E47374029368600E
:0605B000EFA3A3A380DF0E
:00000001FF
