:03000000021D4E90
:0C1D4E00787FE4F6D8FD758199021D95A0
:10127B00045100000000410006004100420C4100F7
:10128B0043404400390000000044001800000000F7
:10129B0044001C0000000044005F000000004400FC
:1012AB0049000000004400650000000042002D00D2
:1012BB0001420016000041000D00410037004200C2
:1012CB006A000042000E000041000008410045008A
:1012DB0041006C0001550001560041001500410012
:1012EB00240141002F0A410048004100440A4100FB
:1012FB0036004100380042000B00004100020002A2
:10130B0082000002800000106F000000000000004F
:10131B00000000000000000000016E00016D0001E4
:10132B006B0041000A00410007004100140042001D
:10133B00250000420034000041006300410003001F
:10134B0042000400004100010041002C004100302C
:10135B000041004100017F00016C0042004600008B
:10136B0050004F00000000000000000000000000D3
:08137B00000000420008000020
:1013C600EF24A0FFEE340FFEE43DFDE43CFC1205E5
:1013D6001FD30204D0E4900045F09000437440F01F
:1013E6009000377402F09000007406F0E490000656
:1013F600F090005F22900018120513900039120534
:101406001F12037490001812053790001802051376
:1014160090003912051FC30204D0E4FCFD120374C8
:1014260090006502053790003D120513EF2470FF0A
:10143600EE3417FEE43DFDE43CFC90001822122A2F
:10144600C0E47BE87A03F9F8900010020513E4750E
:10145600F00102035E900043E0FF900006E0C39FA8
:1014660022D390002EE0940090002DE094002212EA
:10147600051390001C12051F0203741202F7AC0636
:10148600AD07E41201C3E4FBFA79C87842020121F0
:101496007F647E00022AC090001002053790003952
:1014A600020513E4FFFEFD7C3F12002D0201FCD372
:1014B60090006BE0940090006AE094002290002F68
:1014C600E0900044F0227F0A12272C900031EFF0C2
:1014D60090006422F0900049020513900065020511
:1014E6001FD39DEC6480F874809822E47B02FAF99D
:1014F600F802041A90001802051F7E2F1229F87FA1
:04150600107E27220A
:1028F1008E098F0A8B0B8A0C890DAF051DEF6021A4
:10290100050AE50AAE097002050914F5828E83E411
:1029110093FF780BE475F001120580EF1202C3807A
:02292100D922B9
:102983008F828E83E4F554F553F552F551AF82AE41
:1029930083E4FCFDAB54AA53A952A851C31204D03B
:0829A300500543BD1080E6223F
:092AB700E0FF7C2F1229AB7F64C3
:102AC000E4FDFCC3ED9FEC9E50070DBD00010C80A2
:012AD000F213
:012AD10022E2
:10000300758E5190FE917401F0A37410F075BD5F6D
:0700130090FEA07420F02212
:102A5E00E490FE80F0758901758DFA758BCB43A8D5
:0E2A6E0008438840758CCB758AEB4388102294
:1029230090FF10E054F04408F090FF02E054F044AC
:1029330002F0D28490FFA07420F0A37404F075CC4D
:102943000675CEFF75CD98759E0275981043A81035
:012953002261
:102AEC0043B40343B4807F147E00122AC075B50131
:072AFC0090FE9B744BF022D9
:102AD20090FF08E04488F090FF00E0540F4430F08B
:0A2AE20090FF11E054F04403F022CD
:0B2B62008F99E59830E1FB5398FD22AD
:10272C008FB543B440E5B430E5FB53B4DF121496D7
:10273C00E4FBFAF943B440E5B430E5FB53B4DFE510
:10274C00B62BFBE5B73AFA7F147E00122AC009B902
:0C275C0010E275B501A902121496AF013D
:01276800224E
:100FA4007B017A00794F7D107F007E2F1228F1900B
:100FB400004FE0FFE4FCFDFE12149D12144E78086D
:100FC4001204F412149D90001012051F900050E0BA
:100FD400FFE4FCFDFE12037412149D12144EE47B14
:100FE400E87A03F9F812038F12149DE47F307E75BA
:100FF400FDFC90001012141940107F007E097D3D05
:101004007C009000101213D4400A90001012054383
:1010140000009C40900051E0900069F0700280074D
:10102400900069E0B4FE0374FFF0900052E0FF907A
:101034000032E4F0A3EFF0E0F8E4F0E8900032F0DE
:10104400900053E0FF900032E48FF012035E9000B2
:1010540032E0FEA3E0FF4E6009D3EF9408EE94075C
:101064004009900032E4F0A37405F0900054E0903D
:10107400002FF0900038F0900055E0900027F060C9
:1010840006E0D394FF40069000277401F0900056C8
:10109400E0F45401900024F0900057E05401786E7D
:1010A400F6A3E05401900015F0900059E05401902B
:1010B4000014F090005AE090000AF07B017A007965
:1010C400087D027F807E2F1228F1900008E09000B6
:1010D40036F0900009E0900007F07F807E2F1229FF
:1010E400F87F107E27122AC0900036E004F0E0FF5B
:1010F4007D807C2F1229AB121496900007E07003B8
:10110400022B3C900007E0FFB4010A7D817C2F1282
:0611140029AB1214962223
:1005B600E5556003020A8D43B440E5B430E5FB53CC
:1005C600B4DF85B70985B60A9000161214541214C2
:1005D600E1AE09AF0A12142090004DE0FEA3E0FF41
:1005E600C3950AEE9509500DC3E50A9FF50AE5097C
:1005F6009EF509800BC3EF950AF50AEE9509F509F4
:1006060090001C12051FAE09AF0AE4FCFD1203742C
:1006160090001C120537900016E05401FEA3E04E30
:1006260070521214B54017900044E09464503DE0B7
:100636002402F0E0D3946440337464F0802E90007A
:100646000EE07004A3E06401702A90002FE0FF9092
:100656000044E0FED39F4014EE94024004E024FEE2
:10066600F0900044E0C39F50031214C3900044E08E
:10067600FF12208EC3900016E094205003020ABC9D
:1006860043BD10E4F0A3F0900045E0041214DA90A4
:10069600006512147B900049120537900045E0C3AF
:1006A60094084030E41214DA78101204E1900049FC
:1006B6001205371214DB90004DEE8FF012035E9098
:1006C600004DE0C313F0A3E013F090004912054378
:1006D60000000000900000E0C394085005E004F01C
:1006E600804090006AE07002A3E070361214CCE0FD
:1006F600FE2402FDE433FCEF1214E750189000319B
:10070600E02402FDE433FCEE1214E7500890006486
:10071600E0900031F0900031E0900064F0E4900049
:1007260000F0E4FFFEFDFC900018121419703690DC
:10073600001C120513EF2488FFEE3413121439122D
:10074600053790002DE07002A3E070197F407E42CD
:100756007D0FFC9000181213D4400A900018120561
:1007660043000F4240900006E0701690001C1205F0
:100776001390003912053790002812054300000037
:1007860001900028121475121416400302093B90BA
:10079600002812051390003912147B90001C1214C5
:1007A60019400302093B900006E004F090005F1236
:1007B600147590005F120537900006E0FFFBE4FA1F
:1007C600F9F890005F12051312041A900039120509
:1007D600371214A378031204E1900028120537E4B7
:1007E6007F207E4EFDFC900028121419500A9000BE
:1007F6002812054300004E20E47F607EEAFDFC904F
:1008060000281213D4400A9000281205430000EA7B
:10081600601214A39000181213D4403E90003912AF
:10082600051F1214101203811214267F807E387D54
:10083600017C009000651213D440089000427406B3
:10084600F0801DE47F407E9CFDFC9000651213D471
:1008560090004240087409F08006900042740CF043
:1008660090004212145E403B1214101214165033BC
:10087600900043E09410500302094A900042E0D3EE
:10088600940950051214A380111214A39000181293
:1008960013C6400C1213FB1214F190001812053700
:1008A60002093B12145B500302094A12141090000D
:1008B600391213C640771214FA1214A312038112C6
:1008C60014267F007E127D7A7C00121416505E7FFD
:1008D600807E1A7D067C00900065121419504E9099
:1008E6000043E09410400280387FE07E937D047CD4
:1008F600009000651213D440089000437410F080F5
:100906001B7FF07E497D027C009000651213D49017
:1009160000434005740CF080037408F012145B4029
:100926000C1213FB1214F190001812053712145B07
:100936004012E48004E4900006F090005F12054344
:1009460000000000900037E0D394004036E014F039
:1009560012142C1213D45003020A4990003D1205BA
:1009660013EF2498FFEE343AFEE43DFDE43CFC90A0
:10097600001C1214194003020A4912142C120537DE
:10098600020A49121467405774FFF5F012035E120B
:100996001467404B7F007E127D7A7C00900018120F
:1009A60013D4400C900010120543000C3500802F24
:1009B60012144E1214FA1214237F407E547D897C41
:1009C600009000651213D440161214FAC374409BAB
:1009D600FF74549AFE748999FDE498FC12149D12D2
:1009E600144E90001812147B90001C1213D440531E
:1009F600900069E0FF900031E0D39F400512146734
:100A0600404190006AE07002A3E070091214109051
:100A1600003D12053790006AE4F0A304F0786DF605
:100A260090002512145490002C7401F09000437429
:100A360008F0E490000EF0A3F07882F608F67880CD
:100A4600F608F69000651205430000000090001CB1
:100A56001205430000000090006AE0FEA3E0FFD309
:100A66009400EE9400404F900032E0FCA3E0FDD3EA
:100A7600EF9DEE9C4040E490006AF0A3F0755501AE
:100A8600786DF6786BF62290000EE4F0A304F0E49D
:100A9600F55590000BF0A3F0900002F07FFAFE12DD
:100AA6002983900049120543000000001213DB124F
:060AB600054300000000F2
:010ABC002217
:1020EE00E4F50A90006512054300000000E4F509CE
:1020FE0043B440E5B430E5FB53B4DF1214E1AFB6A0
:10210E00AEB71214200509E509B480E47F907E0174
:10211E00122983900065120513780B1204E18F09C2
:10212E00E509D3940C400CE509948D5006E50A940C
:0D213E0014500A050AE50AD3945040A72268
:01214B002271
:1021A90090006512054300000000E4F509E4F50C10
:1021B900F50D43B440E5B430E5FB53B4DF85B70A08
:1021C90085B60B1214E1AE0AAF0B121420050DE50A
:1021D9000D7002050CB400DAE50CB420D543BD102E
:1021E9000509E509B408C6900065120513781012AF
:0A21F90004E190004DEEF0A3EFF0BA
:0122030022B8
:10235D00BF0105E4FCFD802E7E007C017DFF120295
:10236D00F71C7D64120309AC06AD07E41201C38F9F
:10237D002B8E2A8D298C28AB2BAA2AA929A82812A5
:10238D0014A9AC06AD0790FF907411F075DA0175C4
:0E239D00E30175E2FF8CE58DE475E10F7F0032
:0123AB00220F
:10281E00BF0104E4FE801E7E007C007DFF12148149
:10282E008F2B8E2A8D298C28AB2BAA2AA929A82872
:10283E001214A9AE0790FF9C7410F075DEFF8EDFA8
:05284E0075DD947F0020
:012853002262
:02208E008F269B
:10209000787FE6B526037F0022787FA626E52670A6
:1020A00006900063048016E526B4640CE490006397
:1020B000F090003004F0800B9000637402F0E49024
:1020C0000030F0E526FD7C0090000AE0FF7E001263
:1020D0001481E4FBFAF9783F1214AF8F27C3E52689
:0D20E0009527FF12235DAF2712281E7F00F9
:0120ED0022D0
:100D7800122B1A120003122AD2122A5E12292312E7
:100D88002AEC75BBAA90FEA774FFF053BBF7D2AF4D
:100D98007FC87E001229831214CCF0C2AF120FA4B0
:100DA8007F6412208ED2AF1220EE90002FE0FF90C9
:100DB8000044F012208E7F2C7E011229831221A973
:100DC80090006512054300000000900036E0D394BF
:100DD800034005E4F0122B3C786CE660237F641234
:100DE8000F99E4FF120F99900046121454C3900013
:100DF80047E0942C900046E094014004E4786CF6B7
:100E0800900003E0FF900063E0FD6F600D7F7612B5
:100E18002854900063E0900003F0900041E0FF90B8
:100E28000030E0FD6F600D7F77122854900030E0AD
:100E3800900041F0900001E06401704190002CE0C6
:100E4800B4013AE4900001F090002CF0900025E005
:100E5800FEA3E0FF900034E06E7003A3E06F601D16
:100E6800E48F2D8E2CF52BF52A7F74121EDA900054
:100E780025E0FFA3E0900034CFF0A3EFF043BD10CE
:100E8800E555700B900017E0541F700312111A906B
:100E98000024E064016003020F64E556701CF555F8
:100EA8007556011214C39000491205430000000052
:100EB8001213DB120543000000001205B6D39000A0
:100EC8000FE0940090000EE094004033900002E0A0
:100ED800B4012CE4F090000E121455900027E0FFA6
:100EE800C390000FE09F90000EE094004011E4F0E2
:100EF800A3F0900014E064016005E4FF12208E1254
:100F080014B5400F7881E6640118467006F608F6B5
:100F1800121455786EE664016003020DD218E6FFDC
:100F2800786B667003020DD2A60790006AE4F0A3FE
:100F380004F0E4F508E508C394084003020DD2E57F
:100F48000825E0246FF8E6FA08E6FB4A600A9000F4
:100F580015E0FD7F71121DDA050880D9E4F5569079
:100F68000015E07007FF12208E020DD2900038E0C5
:100F7800FF12208EE4F5551214C390004912054360
:100F8800000000001213DB12054300000000020DF0
:010F9800D286
:0B0F990012208E7F647E00122983224C
:03001B0002175C6D
:10175C00C0E0C0F0C083C082C0D075D000C000C053
:10176C0001C002C003C004C005C006C007AF54AE20
:10177C0053AD52AC51EF2401FFE43EFEE43DFDE4D9
:10178C003C8F548E538D52F55190000B1214549083
:10179C00000BE0FEA3E0FFE4FCFD7B607AEAF9F8C5
:1017AC00D31204BA500C90000BE4F0A3F09000029A
:1017BC0004F0788306E618700106C37883E694E893
:1017CC0018E69403400C76000876007880760008C2
:1017DC007601900004121454C3900005E094E89034
:1017EC000004E094034009E4F0A3F090000104F03D
:1017FC00D007D006D005D004D003D002D001D00041
:0B180C00D0D0D082D083D0F0D0E032EA
:030023000224DADA
:1024DA00C0E0C0F0C083C082C0D075D000C000C0C8
:0D24EA0001C002C003C004C005C006C00749
:0F24F700E59830E00AAF9912248F5398FED2AFC8
:10250600D007D006D005D004D003D002D001D00029
:0B251600D0D0D082D083D0F0D0E032D3
:1029F80053BBF7C280E5BB20E3F6D280C2AF75FDBA
:102A0800F075FC0F8EFA8FF975FDD275FC2D75FDEA
:052A1800E175FC1E2227
:1029AB0053BBF7C280E5BB20E3F6D280C2AF8FFBEF
:1029BB0075FDF075FC0F8CFA8DF975FDB475FC4B3C
:0729CB0075FDE175FC1E2201
:101AE7007F0012150012144412041A78081204E138
:101AF7007D007C2F1229AB7F647E001214441204F0
:101B07001A7D017C2F1229AB1214969000697D0271
:101B1700122AB79000327D03122AB7A3E0FF7D0493
:101B2700122AB990002FE0FF7D05122AB9900027ED
:101B3700E0FF7D06122AB9900024E0F4FF7D07122A
:101B47002AB9786EE6FF7D08122AB9900015E0FFE2
:101B57007D09122AB9900014E0FF7D0A122AB99074
:101B6700000AE0FF7D0B122AB97F80121500122AA6
:101B7700C07D807C2FE4FF1229AB0D0F1229ABD259
:011B8700AFAE
:011B8800223A
:0413830002670000FD
:10181700120296FFE52E4FFFE52DFEE52CFDE52B89
:101827008F2E8E2D8D2CF52BFC78081204F48F2E1D
:101837008E2D8D2C22AF2DAE2CAD2BAC2A1204E1B0
:10184700AD0722AB07E4FDFC90008EE022AF2DAE82
:101857002CAD2BAC2A0204E1854F83855082E54DE0
:101867009582E54C958322C3E568950AFFE5679560
:1018770009FEC3EF22AC06AD077F0722E475F0012E
:10188700020580AF66AE65AD64AC630204E1FEE5B8
:1018970045FDE544FCE47BFF22E4F51DF51CF51B43
:1018A700F51A22120296AB26AA27A92822AF05AE5F
:1018B70004AD0322754B01754C00754D6D22749074
:0818C700250AF974003509221D
:101F5000EFC39430400CEFD39439500674D02FFF68
:101F60008022EFC39441400CEFD394465006EF24F7
:101F7000C9FF8010EFC39461400AEFD39466500408
:101F8000EF24A9FFEF540FC454F0FFEDC394304089
:101F90000CEDD39439500674D02DFD801EEDC39402
:101FA000414008EDD394465002800CEDC39461404B
:101FB0000AEDD394665004ED24A9FDED540F4207B9
:011FC00022FE
:062567008B178A18891988
:10256D001218A0E94A4B7005FFFEFDFC221218A0BF
:10257D00781712188312027D601AE51D2401FFE4FD
:10258D00351CFEE4351BFDE4351A8F1D8E1C8D1B8D
:0C259D00F51A80DCAF1DAE1CAD1BAC1AA3
:0125A900220F
:06288A008B3A8A3B893CF9
:102890008B408A418942E94A4B7004FBFAF922E5F0
:1028A0003F153FAE3E7002153E4E600B7840121849
:0D28B00083ED1202C380E8AB3AAA3BA93CBD
:0128BD0022F8
:0615D6008B1E8A1F892014
:1015DC008B268A27892885212985222A85232BE990
:1015EC004A4B6008E5234522452170077B007A00B1
:1015FC00790022D3852A83852B82E5289582E527DD
:10160C0095834019E52B2525F9E52A3524FA8A839B
:10161C008982D3E5289582E52795834032E4F52C21
:10162C00F52DC3E52D9525E52C9524505BAB29AA0A
:10163C002AA92B852D82852C831218AA852D8285AB
:10164C002C831202D5052DE52D70D7052C80D38562
:10165C00242C85252DD3E52D9400E52C94004028D1
:10166C00AB29AA2AA92BE52D24FFFFE52C34FFFE7C
:10167C008F82F5831218AA8F828E831202D5E52DE4
:0E168C00152D70D1152C80CDAB1EAA1FA920E4
:01169A00222D
:1028BE008F668E658D648C6378181204E1EF1202B8
:1028CE00C3781012188A900001EF1202D578081200
:1028DE00188A900002EF1202D5E566FF900003EF12
:0328EE000202D50E
:10244400E4F52EF52DF52CF52B12027DFFE48F2EED
:10245400F52DF52CF52BAE2DAD2CAC2B1218308CA4
:102464002B9000011218178C2B9000021218178C55
:102474002B900003120296FFE52E4FFFE52DFEE59B
:0A2484002CFDE52B121835F52BFC9A
:01248E00222B
:062B970090008FE0FF2218
:0C2B5600E490008FF0FDFC7F040227A635
:062B9D0090008CE0FF2215
:0823AC008F578B588A59895A9A
:1023B40012184CB401037F0122AF05AE04AD5712CD
:1023C4002B49AC06E4FD122B49AC06E55BFD122B50
:1023D40049AC06AD5C122B49AC06AD07AB58AA5903
:1023E400A95A855B1C855C1D12295412187C12277E
:0323F400A67F01C0
:0123F70022C3
:02262F008D26F6
:1026310012184AB401037F01221218B4122663E46E
:10264100FD122663AD07E5267003FD8006AF05AEDA
:10265100047D01122B49AC06AD077F071227A67F27
:012661000177
:0E26620022122B49AC067D01122B49AC062238
:021DDA00A90757
:101DDC00E4FCF526F52790008EE0B401037F012288
:101DEC007528557529AAE4F52A752BB2F52C752D95
:101DFC00078A2E8B2F8930753101F532753301ED41
:101E0C007004F5348003753401E4F537F538742823
:101E1C002538F8E62CFC0538E53870020537640DDA
:101E2C00453770EA8C3575260075270EE4F537F5C5
:101E3C0038E5271527AE26700215264E6014742837
:101E4C002538F8E6FF12001E0538E53870E3053733
:041E5C0080DF7F01A3
:011E6000225F
:02198700A907AE
:10198900E4FCF526F52790008EE0B401037F0122DF
:101999007528557529AAE4F52A752BB2F52C752DEC
:1019A900078A2E8B2F8930753101F532753301ED98
:1019B9007004F534802EBD01057534018026BD0201
:1019C90005753402801EBD03057534038016BD04F8
:1019D90005753404800EBD05057534058006BD0600
:1019E90003753406E4F537F53874282538F8E62CFC
:1019F900FC0538E53870020537640D453770EA8C07
:101A09003575260075270EE4F537F538E5271527CE
:101A1900AE26700215264E601474282538F8E6FFA4
:0F1A290012001E0538E5387002053780DF7F0197
:011A3800228B
:101EDA0012184AB401037F01221218B4122B49AC1A
:101EEA00067D02122B49AC06E4FD122B49AC067D95
:101EFA0004122B49C006C007781812183CD007D024
:101F0A0006122B49C006C007781012183CD007D019
:101F1A0006122B49C006C007AF2DAE2CAD2BAC2A3A
:101F2A0078081204E1AD07D007D006122B49AC0697
:101F3A00C007E52DFFE4AD07D007122B4912187C24
:051F4A001227A67F0133
:011F4F00226F
:021A3900AD07F7
:101A3B00E4FBF530F53190008EE0B401037F012219
:101A4B00788476550876AAE408F60876B208F60884
:101A5B00760AE52E08F608A62F08A605087602E4F6
:101A6B0008F608760478181218547890A6077810A0
:101A7B001218547891A607AF2DAE2CAD2BAC2A784B
:101A8B00081204E17892A607E52DFFE408A607F5F6
:101A9B0032F53374842533F8E62BFB0533E53370CD
:101AAB000205326410453270EA7894A60375300053
:101ABB00753111E4F532F533E5311531AE30700285
:101ACB0015304E601474842533F8E6FF12001E05A2
:0B1ADB0033E5337002053280DF7F012D
:011AE60022DD
:0823F8008F5D8B5E8A5F896036
:1024000012184CB401037F0122AF05AE04AD5D127A
:102410002B49AC067D03122B49AC06E561FD122B5E
:1024200049AC06AD62122B49AC06AD07AB5EAA5FA4
:10243000A96085611C85621D12295412187C12271F
:03244000A67F0173
:012443002276
:022854008D26CF
:1028560012184AB401037F01221218B4122B49AC94
:10286600067D04122B49AC06E4FD122B49AC067D0D
:1028760001122B49AC06AD26122B4912187C1227E1
:03288600A67F0129
:01288900222C
:02169B00AD0799
:10169D00E4F548F54990008EE0B401037F01221274
:1016AD00173C7D05121754E4FD12175474FFFFE526
:1016BD0046121895FAF9F8C31204D070097D01127B
:1016CD00173CAD47803D74FFFF1218957AFFF9F86E
:1016DD00C31204D070047D0280197D04121748785E
:1016ED0018121723AF47AE46AD45AC44781012041F
:1016FD00E1AD071217487808121723E547FFE4AD4F
:10170D0007AF49122B498E488F49AD49AC487F0729
:05171D001227A67F0168
:1017220022AF47AE46AD45AC441204E1AD07AF4926
:10173200AE48122B498E488F4922AF49AE48122B30
:10174200498E488F4922AF49AE48122B498E488FA5
:0A1752004922122B498E488F4922CC
:082B6D008C268D2712027DFF6A
:012B7500223D
:082B76008C268D2712027DFF61
:012B7E002234
:072B7F008C298D2A12244469
:012B8600222C
:10248F008F39D312185F4015E54D9550FFE54C95E8
:10249F004FFEC3EF941FEE64809480502DC312182B
:1024AF005F500DC3E550954DFFE54F954C4F601AAA
:1024BF00C390008C12186540077A00796D1218BB13
:0B24CF00784B121883E5391202C3227B
:10111A00E4F509F50AF50BF50CC3E5689423E567D0
:10112A0094005024122A7CEFD39400401B1226709C
:10113A000568E568AC6770020567142490F5827447
:10114A00003CF583EFF080D1C3E5689407E5679426
:10115A0000500302127A12186E9407EE940050039C
:10116A000212497490250AF58274003509F583E064
:10117A006455600A050AE50A70DC050980D874918D
:10118A00250AF58274003509F583E064AA600A0528
:10119A000AE50A70C1050980BD7492250AF58274B0
:1011AA00003509F583E06004740280387494250AD6
:1011BA00F58274003509F583E0FE7495250AF582F7
:1011CA0074003509F583E07C002400FFEC3ECF244F
:1011DA0007F50CE43FF50BD3E50C942AE50B9400D4
:1011EA0040097403250AF50AE4804D12186E950C1D
:1011FA00EE950B404A1218C5FA7B01E50C24FFFD57
:10120A00E50B34FFFC1229D2E50A250CFDE5093568
:10121A000BFC748F2DF58274003CF583E06F600936
:10122A007403250AF50AE4800FAF0AAE09120ABD53
:10123A00E50C250AF50AE50B3509F509021160C323
:10124A00E568950AF568E5679509F567D3E5689451
:10125A0000E567940040191218C5752101F5228925
:10126A00238567248568257B017A0079901215D633
:01127A002251
:102B1A001218BB754E01754F0075506D90008C747C
:032B2A00FFF02297
:10138700019900049500000000602E00D2010103BE
:10139700020402650466026701680269027101724C
:1013A700017301740275017604770482048304844F
:0B13B700048504860487048804890470
:1025ED0025E0246FF8E6FA08E6FB4A22AB1EAA1F87
:1025FD00A920AD22AC212290000AE0FFE48F2DF539
:10260D002CF52BF52A22900025E0FEA3E0FFE48FA8
:10261D002D8E2CF52BF52A22E0FFE4FCFDFEC302E6
:02262D0004D0D7
:0D2B3C00E4FDFC7F041227A6786C760122D0
:102A9A00E4FEEF7004FFFD8006EEFF7E007D01126A
:0D2AAA002B49AE07EEFD7C007FB10227A690
:03001E00022B6250
:10150A00900000E0FD7F0112262F900015E0FD7F7C
:10151A007112262F90002F1226077F03121EDA90CF
:10152A000069E0FFB4FF05E4F516801EEFB4C805B4
:10153A007516028015EFB42805751603800CEFB4F2
:10154A0014057516048003751605AD167F651228F5
:10155A00549000321226167F66121EDA900024E09A
:10156A00FD7F6712262F9000271226077F68121E1A
:10157A00DAE47B107A27F9F89000101205131204A6
:10158A001AC374329F1226087F69121EDA786EE631
:10159A00FD7F7212262F1226047F04121EDA900093
:1015AA0014E0FD7F7312262F1226137F74121EDA9F
:1015BA00900063E0FD7F76122854900030E0FD7FB2
:0C15CA0077122854E4FDFC7FB40227A631
:102B0300122B6D900000EFF0FD7F0112262FBF0105
:062B1300037F01227F0098
:012B19002299
:10202C00122B7F8F278E268D258C2490002FAB278B
:10203C00AA26A925A8241226257002FF22E4F52839
:10204C00E5281225ED601585272D85262C85252B59
:10205C0085242A8A2E8B2F7F03121A390528E5280E
:10206C00C3940840DBAF2790002FEFF0FE900038B0
:10207C00F01226097F03121EDABF01037F01227FB3
:01208C000053
:01208D002230
:10225F00122B7F8F2490000AE0B524037F0022E425
:10226F00F525E5251225ED6013E485242DF52CF5D4
:10227F002BF52A8A2E8B2F7F04121A390525E52577
:10228F00C3940840DD90000AE524F0E4FF12208E8D
:10229F00900038E0FF12208E1226047F04121EDAFF
:0822AF00BF01037F01227F0043
:0122B7002204
:101E6100122B768F24E5247899667002FF22E4F51F
:101E710025E5251225ED6007AD247F65121987053B
:101E810025E525C3940840E9E52414601014601584
:101E910014601A14601F14602424057028900069CE
:101EA10074FFF0802090006974C8F0801890006978
:101EB1007428F080109000697414F080089000314B
:101EC100E0900069F07899A624AD247F651228542A
:081ED100BF01037F01227F0025
:011ED90022E6
:101FC100122B7F8F278E268D258C24900032E0FEE8
:101FD100A3E0FFE4FCFDAB27AA26A925A824C31290
:101FE10004D07002FF22E4F528E5281225ED6015E2
:101FF10085272D85262C85252B85242A8A2E8B2F16
:102001007F66121A390528E528C3940840DBAE26FD
:10201100AF27900032EEF0A3EFF012261B7F66127D
:0A2021001EDABF01037F01227F00D9
:01202B002292
:1026B000122B6D8F24900024E0B524037F0022E4C8
:1026C000F525E5251225ED6007AD247F67121DDA9B
:1026D0000525E525C3940840E9900024E524F0FD94
:0D26E0007F6712262FBF01037F01227F00BC
:0126ED0022CA
:10214C00122B7F8F278E268D258C24900027AB2772
:10215C00AA26A925A8241226257002FF22E4F52818
:10216C00E5281225ED601585272D85262C85252B38
:10217C0085242A8A2E8B2F7F68121A390528E52888
:10218C00C3940840DBAF27900027EFF01226097F9D
:0C219C0068121EDABF01037F01227F00E1
:0121A8002214
:101CBC00122B7F8F278E268D258C24789512050765
:101CCC00AB27AA26A925A824C31204D07002FF2290
:101CDC00E4F528E5281225ED601585272D85262CA1
:101CEC0085252B85242A8A2E8B2F7F69121A39057C
:101CFC0028E528C3940840DBAF27AE26AD25AC24DD
:101D0C00789512052BC374329527FFE49526FEE4D3
:101D1C009525FDE49524FCE47B107A27F9F8120351
:101D2C008F90001012053778951205078F2D8E2C89
:101D3C008D2B8C2A7F69121EDABF01037F01227F53
:011D4C000096
:011D4D002273
:1022B800122B6D8F24900015E06524601AE4F52533
:1022C800E5251225ED6007AD247F71121DDA05257D
:1022D800E525C3940840E9E5247006900015F080D0
:1022E80011900024E0B40104786D76019000157413
:1022F80001F0900015E0FD7F7112262FBF01037FCA
:0423080001227F002F
:01230C0022AE
:10230D00122B6D8F24E524786E667002FF22E4F5A2
:10231D0025E5251225ED6007AD247F72121DDA0526
:10232D0025E525C3940840E9786EA624AF24122A2A
:10233D009A786EE66008E4FDFC7FB41227A6786EED
:0F234D00E6FD7F7212262FBF01037F01227F0062
:01235C00225E
:1026EE00122B6D8F24900014E0B524037F0022E49A
:1026FE00F525E5251225ED6007AD247F73121DDA51
:10270E000525E525C3940840E9900014E524F0FD65
:0D271E007F7312262FBF01037F01227F0071
:01272B00228B
:10252100122B6DEF7002FF22E4900025F0A3F0F56D
:1025310024E5241225ED601A900025E0FEA3E0FFBA
:10254100E48F2D8E2CF52BF52A8A2E8B2F7F74127A
:102551001A390524E524C3940840D61226137F7442
:05256100121EDA7F01EB
:012566002252
:0618CF008B1E8A1F892018
:1018D500EF120590190101192303192C0419356517
:1018E500193D66194567194D68195569195D7119CD
:1018F5006572196D731975750000197F1225F91236
:101905002B038F23E52364017075900048E004F0F4
:10191500E0C394054069E4F0122B3C0219841225BA
:10192500F912202C02197B1225F912225F02197B6C
:101935001225F9121E61803E1225F9121FC180364B
:101945001225F91226B0802E1225F912214C802677
:101955001225F9121CBC801E1225F91222B8801618
:101965001225F912230D800E1225F91226EE800696
:101975001225F91225218F238000E4900048F0AF4D
:01198500233E
:01198600223E
:032BA3007F172277
:0F2B2D00386C6D786E6C676700312E302E30007B
:0313C200014A00DD
:101C24007494250EF5827400350DF583E075140067
:101C3400F5137495250EF5827400350DF583E025B2
:101C440014F514E43513F51322350DF583E0F8E4A7
:101C540022E026F618E436F6227496250EF58274F0
:101C640000350DF583E02212051378101204E1AD5E
:101C7400072212051378081204E1AD07229000B37D
:101C84007455F0A374AAF0E4A3F0A3EFF022F58353
:101C9400EFF07B017A0079B32274B92FF974003E16
:101CA400FA7B0122E475F00112058002027D256AA7
:081CB400F56AE43569F56922C7
:101B8900E4FFFE90004DE0C4F854F0C8A3E0C4544B
:101B99000F48FD122B497E00900031E0FD122B49C0
:101BA9007E00C006C007900018121C6BD007D00633
:101BB900122B497E00C006C007900018121C76D06F
:101BC90007D006122B497E00C006C00790002012DC
:101BD9001C6BD007D006122B497E00C006C00790A7
:101BE9000020121C76D007D006122B497E00C006B1
:101BF900C007900010121C6BD007D006122B497E2B
:101C090000C006C007900010121C76D007D006123B
:0B1C19002B49EFFD7C007FC00227A6D6
:082B8700E4FDFC7FC10227A65A
:0C2B4900121C9DED1202C30FBF00010E14
:012B5500225D
:0A2954008E178F188B198A1A891B41
:10295E00121C9D851921851A22851B23851C248511
:10296E001D251215D6E51D2518F518E51C3517F58C
:04297E0017FEAF1879
:012982002232
:102769008B308A3189328C338D34E94A4B602DE5BF
:102779003445336027E5341534AE33700215334ED2
:10278900601AAB30AA31A93212027DFF12001E7401
:0D279900012532F532E43531F53180D922C9
:0A29D2008B308A3189328C338D344A
:1029DC00E4FFFDFCC3ED9534EC9533500E783012CA
:0B29EC001CA82FFF0DBD00010C80E9AE
:0129F70022BD
:0427A6008C2E8D2FB9
:1027AA00121C81E52EA3F0E52FA3F02407F52FE4F0
:1027BA00352EF52E121C96E52F24FFFDE52E34FF4B
:1027CA00FC1229D274B2252FF5827400352E121C00
:0827DA0092AD2FAC2E0227691D
:0425AA008C698D6A41
:1025AE007402121CB2121C81E569A3F0E56AA3F055
:1025BE00A374FFF0A3F07407121CB2121C96E56A06
:1025CE0024FFFDE56934FFFC1229D274B2256AF5A9
:0F25DE008274003569121C92AD6AAC69022769DC
:102A3E00E4FFE54A700AFEFD122B49754A01800734
:102A4E007E007D01122B49EFFD7C00E4FF0227A6DC
:1027E200E4F5167A2B792D12280E7A2B792D1229DF
:1027F200548F167A2B793612280E7A2B79361229B3
:0C280200548F16EFFD7C007F010227A61A
:10280E007BFF1225678E1C8F1DAF167E007BFF226D
:082B8F00E4FDFC7F020227A611
:022A1D008F1D0B
:102A1F00122BA3E4FEEEC39F501275F002EE90004E
:0E2A2F00D2120574E0651D60030E80E9AF064B
:012A3D002276
:062204008B168A178918F1
:10220A0012027DF519900001120296F51A90000249
:10221A00120296751C00F51B900003120296251CEB
:10222A00F51CE4351BF51BAF19122A1D75F002EFD8
:10223A009000D3120574E0651A60037F0022AB1682
:10224A00E5182404F9E43517FA851B21851C22AF09
:04225A00191218CF6E
:01225E00225D
:040ABD008E0D8F0EFD
:100AC10074932FF58274003EF583E0FF1205900BBD
:100AD10015000B18010B1B020B1E030B49040B50D5
:100AE100060D74080AF5B10BC6B40B0FC00B12C189
:100AF10000000D77121C5D700E7D017F7212262F92
:100B0100E4FDFC7FB4803EE4FD7F7202262F021BD0
:100B110089022B87022A3E0227E2022B8F121C5DDB
:100B2100FF90008CF0BF0209E4786CF6121AE7809E
:100B31000790008CE0B40108E4FDFC7FB41227A605
:100B4100E4FDFC7F030227A690008F7401F02212BE
:100B51001C24E4F511F512C3E5129514E511951362
:100B61004003020D77E50E2512FDE50D3511FC74EC
:100B7100982DF58274003CF583E0751000F50F7433
:100B8100992DF58274003CF583E02510F510E435CC
:100B91000FF50F7496250EF97400350DFA7B01E9F6
:100BA1002512F9EA3511FA122204BF0103121AE7DC
:100BB100E5102404FFE4350FFEEF2512F512EE35A2
:100BC10011F5118092121C24121C5DF515749725E4
:100BD1000EF5827400121C4D7970F7E819F77498BC
:100BE100250EF5827400350DF5837870121C55744D
:100BF10099250EF5827400121C4D7972F7E819F7E8
:100C0100749A250EF5827400350DF5837872121CE5
:100C110055749B250EF5827400121C4D7974F7E80A
:100C210019F7749C250EF5827400350DF583E07873
:100C310074121C56749D250EF5827400121C4D7998
:100C410076F7E819F7749E250EF5827400350DF5D7
:100C510083E07876121C56749F250EF5827400127B
:100C61001C4D7978F7E819F774A0250EF582740008
:100C7100350DF583E07878121C5674A1250EF582A6
:100C81007400121C4D797AF7E819F774A2250EF554
:100C9100827400350DF583E0787A121C5674A32511
:100CA1000EF5827400121C4D797CF7E819F774A4D3
:100CB100250EF5827400350DF583E0787C121C5603
:100CC10074A5250EF5827400121C4D797EF7E81982
:100CD100F774A6250EF5827400350DF583E0787E54
:100CE100121C567870E6184660047D018002E4FD0E
:100CF1007F821228547872E6184660047D018002D2
:100D0100E4FD7F831228547874E6184660047D015F
:100D11008002E4FD7F841228547876E61846600448
:100D21007D018002E4FD7F851228547878E618461B
:100D310060047D018002E4FD7F86122854787AE602
:100D4100184660047D018002E4FD7F8712285478F3
:100D51007CE6184660047D018002E4FD7F8812284C
:100D610054787EE6184660047D018002E4FD7F89A7
:060D710002285412150ACD
:010D77002259
:102A7C00E54E854F83855082654B700AE54D658226
:0E2A8C007004E54C658360037F01227F002209
:10267000AB4EAA4FA950E54B854C83854D82654EE4
:10268000700AE55065827004E54F65836021C39050
:10269000008CE5509582E54F9583400D7A00796D69
:0F26A000754E01754F0075506D784E121CA8FFD6
:0126AF002208
:10002600020268E86480F8E933E83360110460F09E
:10003600ED33EC337009E8FCE9FDEAFEEBFF220440
:1000460060DED3EB9FEA9EE99DE8C2E78CF0C2F73B
:1000560095F0400CE8CCF8E9CDF9EACEFAEBCFFB07
:1000660012023385D0F05804700320D5B3E804702B
:10007600075002B2D502027292D5EC0460F7E4CCC6
:10008600C0E0C398F8603B94186008400DD0E0FBD0
:1000960002024AE4FBFAC9FC8028E830E406E4C917
:1000A600FBE4CAFCE830E305E4C9CACBFCE8540724
:1000B6006010F8C3E913F9EA13FAEB13FBEC13FC2F
:1000C600D8F130F52FC3E49CFCEF9BFFEE9AFEEDD2
:1000D60099FDD0E0FBEF4E4D4C701222DB0302027D
:1000E6006FEC2CFCEF33FFEE33FEED33FDED30E726
:1000F600EB02024AEF2BFFEE3AFEED39FDD0E0FBB4
:1001060050130BBB0003020272ED13FDEE13FEEF5C
:0801160013FFEC13FC02024A86
:10011E00020272EC5D046005E85904700302026885
:10012E00120233580460F6EC4860F2EC7004FDFEE7
:10013E00FF22C860DB2481C85009C39860025006B4
:10014E0002026F9850CAF582E9294B4A7005AB82BC
:10015E0002025E75F0007C1A7880C3EF9BEE9AED7A
:10016E0099400DC3EF9BFFEE9AFEED99FDE842F02C
:10017E00DC23ACF0D0E0FFD0E0FED0E0FDAB82207F
:10018E00E7101BEB60BAEC2CFCEF33FFEE33FEED09
:10019E0033FD02024AE803F830E705C0F075F000BF
:1001AE00EF2FFFEE33FEED33FD40B830E7C280AAED
:1001BE0075F020800E75F010800575F0087D007EBC
:1001CE00007F003392D530D5031204ACEC334010CF
:1001DE00EF33FFEE33FEED33FDEC33FCD5F0ED22C5
:0E01EE00E5F0247EA2D513CC92E7CDCEFF2201
:1001FC00EDD2E7CD33EC3392D524814006E4FFFEFB
:10020C00FDFC22FCE4CFCECDCC24E0501174FF8059
:10021C00EDC3CC13CCCD13CDCE13CECF13CF0470F6
:07022C00F030D5DE0204AC46
:10023300E9D2E7C933E833F892D5EDD2E7CD33EC11
:0702430033FC5002B2D5228A
:10024A00EC30E7100FBF000C0EBE00080DBD000415
:10025A000BEB6014A2D5EB13FCED92E7FD2274FFC1
:10026A00FCFDFEFF22E480F8A2D574FF13FC7D801A
:03027A00E480EF2E
:101D5A00020D78E493A3F8E493A34003F68001F21A
:101D6A0008DFF48029E493A3F85407240CC8C3338A
:101D7A00C4540F4420C8834004F456800146F6DF59
:101D8A00E4800B010204081020408090127BE47E5C
:101D9A00019360BCA3FF543F30E509541FFEE4934E
:101DAA00A360010ECF54C025E060A840B8E493A315
:101DBA00FAE493A3F8E493A3C8C582C8CAC583CA40
:101DCA00F0A3C8C582C8CAC583CADFE9DEE780BEF8
:0113C5000027
:10027D00BB010689828A83E0225002E722BBFE027F
:09028D00E32289828A83E49322B2
:10029600BB010CE58229F582E5833AF583E022501D
:1002A60006E92582F8E622BBFE06E92582F8E22267
:0D02B600E58229F582E5833AF583E4932281
:1002C300BB010689828A83F0225002F722BBFE011A
:0202D300F32214
:1002D500F8BB010DE58229F582E5833AF583E8F05F
:1002E500225006E92582C8F622BBFE05E92582C80B
:0202F500F222F3
:1002F700EF8DF0A4A8F0CF8CF0A428CE8DF0A42E1B
:02030700FE22D4
:10030900BC000BBE0029EF8DF084FFADF022E4CCD8
:10031900F875F008EF2FFFEE33FEEC33FCEE9DECA1
:10032900984005FCEE9DFE0FD5F0E9E4CEFD22EDE7
:10033900F8F5F0EE8420D21CFEADF075F008EF2F31
:10034900FFED33FD4007985006D5F0F222C398FD22
:050359000FD5F0EA22BF
:10035E00C5F0F8A3E028F0C5F0F8E582158270022A
:06036E001583E038F022C7
:0D037400EF2BFFEE3AFEED39FDEC38FC22D8
:0E038100C3EF9BFFEE9AFEED99FDEC98FC2277
:10038F00E88FF0A4CC8BF0A42CFCE98EF0A42CFC0D
:10039F008AF0EDA42CFCEA8EF0A4CDA8F08BF0A48B
:1003AF002DCC3825F0FDE98FF0A42CCD35F0FCEBEA
:1003BF008EF0A4FEA9F0EB8FF0A4CFC5F02ECD39AF
:0F03CF00FEE43CFCEAA42DCE35F0FDE43CFC221C
:1003DE0075F008758200EF2FFFEE33FECD33CDCCD6
:1003EE0033CCC58233C5829BED9AEC99E582984059
:1003FE000CF582EE9BFEED9AFDEC99FC0FD5F0D636
:10040E00E4CEFBE4CDFAE4CCF9A88222B800C1B95F
:10041E000059BA002DEC8BF084CFCECDFCE5F0CB9D
:10042E00F97818EF2FFFEE33FEED33FDEC33FCEBD6
:10043E0033FB10D703994004EB99FB0FD8E5E4F991
:10044E00FA227818EF2FFFEE33FEED33FDEC33FC7E
:10045E00C933C910D7059BE99A4007EC9BFCE99A72
:10046E00F90FD8E0E4C9FAE4CCFB2275F010EF2FB7
:10047E00FFEE33FEED33FDCC33CCC833C810D707B7
:10048E009BEC9AE899400AED9BFDEC9AFCE899F8F2
:0E049E000FD5F0DAE4CDFBE4CCFAE4C8F92285
:0E04AC00C3E49FFFE49EFEE49DFDE49CFC2261
:1004BA00EB9FF5F0EA9E42F0E99D42F0EC6480C8B9
:0604CA0064809845F02259
:1004D000EB9FF5F0EA9E42F0E99D42F0E89C45F082
:0104E00022F9
:1004E100E8600FECC313FCED13FDEE13FEEF13FFF9
:0304F100D8F1221D
:1004F400E8600FEFC333FFEE33FEED33FDEC33FC66
:03050400D8F12209
:0C050700E6FC08E6FD08E6FE08E6FF2220
:0C051300E0FCA3E0FDA3E0FEA3E0FF225B
:0C051F00E0F8A3E0F9A3E0FAA3E0FB225F
:0C052B00ECF608EDF608EEF608EFF622FC
:0C053700ECF0A3EDF0A3EEF0A3EFF02237
:10054300A8828583F0D083D08212055A12055A12ED
:10055300055A12055AE473E493A3C583C5F0C58312
:10056300C8C582C8F0A3C583C5F0C583C8C582C802
:010573002265
:0C057400A42582F582E5F03583F5832292
:10058000FAE6FB0808E6F925F0F618E6CA3AF6227C
:10059000D083D082F8E4937012740193700DA3A3FA
:1005A00093F8740193F5828883E47374029368600E
:0605B000EFA3A3A380DF0E
:00000001FF
