:03000000021D4E90
:0C1D4E00787FE4F6D8FD75818E021D95AB
:1012EB00045100000000410006004100420C410087
:1012FB004340440039000000004400170000000088
:10130B0044001B0000000044005A00000000440091
:10131B0046000000004400600000000042002B006B
:10132B0001420015000041000C0041003600420054
:10133B0065000042000D000041000008410045001F
:10134B0001550001560041001400410023014100EA
:10135B002E0A4100440A410035004100370042008B
:10136B000A00004100020002880000028400001005
:10137B0071000000000000000000000000000000F1
:10138B000001700041000900016A00410013004296
:10139B0000240000420033000041005E01410003C5
:1013AB0001420004000041000100016F0041002FC9
:1013BB00004100410001810001690002820000022E
:1013CB008603E84100380041002D00026B0000024B
:1013DB006D00004E004C00000000000000000000FB
:0913EB00000000004200070000B0
:10144500EF24A0FFEE340FFEE43DFDE43CFC120565
:101455001FD30204D0E4900045F09000437440F09F
:101465009000367402F09000007406F0E4900006D7
:10147500F090005A229000171205139000391205BA
:101485001F120374900017120537900017020513F9
:1014950090003912051FC30204D0E4FCFD12037449
:1014A50090006002053790003D120513EF2470FF90
:1014B500EE3417FEE43DFDE43CFC90001722122CAF
:1014C500D2E47BE87A03F9F890000F020513900047
:1014D50043E0FF900006E0C39F22D390002CE094E8
:1014E5000090002BE0940022E475F00102035E12E7
:1014F500051390001B12051F0203741202F7AC06B8
:10150500AD07E41201C3E4FBFA79C8784202012170
:101515007F647E00022CD290000F020537900039BF
:10152500020513E4FFFEFD7C3F12002D0201FCD3F2
:10153500900066E09400900065E094002290002EF3
:10154500E0900044F0227F0A12294E900030EFF01F
:1015550090005F2290006002051FD39DEC6480F827
:101565007480982290001B020513E47B02FAF9F8B7
:1015750002041A90001702051FE48F2E8E2DF52CFC
:0D158500F52B227E2F122C0A7F107E2722CC
:102AD7008E098F0A8B0B8A0C890DAF051DEF6021BC
:102AE700050AE50AAE097002050914F5828E83E42A
:102AF70093FF780BE475F001120580EF1202C38093
:022B0700D922D1
:102B95008F828E83E4F554F553F552F551AF82AE2D
:102BA50083E4FCFDAB54AA53A952A851C31204D027
:082BB500500543BD1080E6222B
:092CC900E0FF7C2F122BBD7F649B
:102CD200E4FDFCC3ED9FEC9E50070DBD00010C808E
:012CE200F2FF
:012CE30022CE
:10000300758E5190FE917401F0A37410F075BD5F6D
:0700130090FEA07420F02212
:102C7000E490FE80F0758901758DFA758BCB43A8C1
:0E2C800008438840758CCB758AEB4388102280
:102B090090FF10E054F04408F090FF02E054F044C4
:102B190002F0D28490FFA07420F0A37404F075CC65
:102B29000675CEFF75CD98759E0275981043A8104D
:012B39002279
:102CFE0043B40343B4807F147E00122CD275B50109
:072D0E0090FE9B744BF022C4
:102CE40090FF08E04488F090FF00E0540F4430F077
:0A2CF40090FF11E054F04403F022B9
:0B2DA5008F99E59830E1FB5398FD2268
:10294E008FB543B440E5B430E5FB53B4DF12151533
:10295E00E4FBFAF943B440E5B430E5FB53B4DFE5EC
:10296E00B62BFBE5B73AFA7F147E00122CD209B9CA
:0C297E0010E275B501A902121515AF0199
:01298A00222A
:100FE0007B017A00794C7D0E7F007E2F122AD790EC
:100FF000004CE0FFE4FCFDFE12151C1214CD780835
:101000001204F412151C90000F12051F90004DE001
:10101000FFE4FCFDFE12037412151C1214CDE47BD8
:10102000E87A03F9F812038F12151CE47F307E75FD
:10103000FDFC90000F12149840107F007E097D3D4A
:101040007C0090000F121453400A90000F120543C9
:1010500000009C4090004EE0900064F07002800719
:10106000900064E0B4FE0374FFF090004FE0FF9046
:101070000031E4F0A3EFF0E0F8E4F0E8900031F0A4
:10108000900050E0FF900031E48FF012035E90007A
:1010900031E0FEA3E0FF4E6009D3EF9408EE940721
:1010A0004009900031E4F0A37405F0900051E09005
:1010B000002EF0900037F0900052E0900026F06093
:1010C00006E0D394FF40069000267401F090005390
:1010D000E0F45401900023F0900054E05401787043
:1010E000F6A3E05401900014F0900056E0540190F3
:1010F0000013F0900057E0900009F0900058E0FFD6
:101100007886760008A607E6F8E47987F7E819F705
:10111000A3E0788726F618E436F6E6FE08E6FF4EEA
:101120006009D3EF94B8EE940B40077886760308F5
:1011300076E87B017A0079077D027F807E2F122A74
:10114000D7900007E0900035F0900008E0786AF64C
:101150007F807E2F122C0A7F107E27122CD29000C7
:1011600035E004F0E0FF7D807C2F122BBD121515B9
:10117000786AE67003022D7F786AE6FFB4010A7D83
:0A118000817C2F122BBD12151522E1
:1005B600E5556003020A9543B440E5B430E5FB53C4
:1005C600B4DF85B70985B60A9000151214ED121529
:1005D60059AE09AF0A12149F90004AE0FEA3E0FF4D
:1005E600C3950AEE9509500DC3E50A9FF50AE5097C
:1005F6009EF509800BC3EF950AF50AEE9509F509F4
:1006060090001B12051FAE09AF0AE4FCFD1203742D
:1006160090001B120537900015E05401FEA3E04E32
:1006260070521215344017900044E09464503DE037
:100636002402F0E0D3946440337464F0802E90007A
:100646000DE07004A3E06401702A90002EE0FF9094
:100656000044E0FED39F4014EE94024004E024FEE2
:10066600F0900044E0C39F5003121542900044E00E
:10067600FF12235DC3900015E094205003020AC4C4
:1006860043BD10E4F0A3F0900045E004F0A312058A
:10069600139000601214FA90004612053790004538
:1006A600E0C394084035E4F0A31205137810120451
:1006B600E190004612053790004612051390004A55
:1006C600EE8FF012035E90004AE0C313F0A3E0132E
:1006D600F090004612054300000000900000E0C3C1
:1006E60094085005E004F08040900065E07002A395
:1006F600E0703612154BE0FE2402FDE433FCEF12E7
:10070600155F5018900030E02402FDE433FCEE1231
:10071600155F500890005FE0900030F0900030E0E8
:1007260090005FF0E4900000F0E4FFFEFDFC900016
:10073600171214987033121569EF2488FFEE3413DC
:100746001214B812053790002BE07002A3E070195E
:100756007F407E427D0FFC900017121453400A9092
:100766000017120543000F4240900006E070131276
:1007760015699000391205379000271205430000CD
:1007860000019000271214F4121495400302093C4C
:100796009000271205139000391214FA90001B12CC
:1007A6001498400302093C900006E004F090005AB9
:1007B6001214F490005A120537900006E0FFFBE48D
:1007C600FAF9F890005A12051312041A9000391219
:1007D600053712152278031204E190002712053717
:1007E600E47F207E4EFDFC900027121498500A905C
:1007F600002712054300004E20E47F607EEAFDFCE0
:10080600900027121453400A900027120543000057
:10081600EA60121522900017121453403E900039D8
:1008260012051F12148F1203811214A57F807E38C1
:100836007D017C00900060121453400890004274C1
:1008460006F0801DE47F407E9CFDFC900060121443
:100856005390004240087409F08006900042740CE0
:10086600F09000421214D6403B12148F1214955089
:1008760033900043E09410500302094B900042E08D
:10088600D3940950051215228011121522900017D3
:10089600121445400C12147A12156F9000171205A7
:1008A6003702093C1214D3500302094B12148F90DD
:1008B6000039121445407712157812152212038159
:1008C6001214A57F007E127D7A7C00121495505E6C
:1008D6007F807E1A7D067C00900060121498504E30
:1008E600900043E09410400280387FE07E937D04C0
:1008F6007C0090006012145340089000437410F07E
:10090600801B7FF07E497D027C00900060121453AC
:100916009000434005740CF080037408F01214D361
:10092600400C12147A12156F900017120537121424
:10093600D34012E48004E4900006F090005A1205B9
:100946004300000000900036E0D394004036E014E7
:10095600F01214AB1214535003020A4A90003D12CF
:100966000513EF2498FFEE343AFEE43DFDE43CFC2B
:1009760090001B1214984003020A4A1214AB120587
:1009860037020A4A1214DF405774FFF5F012035E6D
:100996001214DF404B7F007E127D7A7C0090001798
:1009A600121453400C90000F120543000C350080C2
:1009B6002F1214CD1215781214A27F407E547D8911
:1009C6007C009000601214534016121578C37440D0
:1009D6009BFF74549AFE748999FDE498FC12151CC9
:1009E6001214CD9000171214FA90001B12145340E3
:1009F60053900064E0FF900030E0D39F400512144E
:100A0600DF4041900065E07002A3E0700912148F88
:100A160090003D120537900065E4F0A304F09000C5
:100A2600241214ED90002F7401F0786FF6900043B5
:100A36007408F0E490000DF0A3F07888F608F678D4
:100A460084F608F612156990001F120537900060AB
:100A56001205430000000090001B12054300000031
:100A660000900065E0FEA3E0FFD39400EE94004002
:100A76004D900031E0FCA3E0FDD3EF9DEE9C403E9F
:100A8600E4900065F0A3F075550190002FF02290D8
:100A9600000DE4F0A304F0E4F55590000AF0A3F08D
:100AA600900002F07FFAFE122B9590004612054345
:0E0AB6000000000012145A1205430000000058
:010AC400220F
:10224900E4F50A90006012054300000000E4F50976
:1022590043B440E5B430E5FB53B4DF121559AFB6CA
:10226900AEB712149F0509E509B480E47F907E0199
:10227900122B95900060120513780B1204E18F0957
:10228900E509D3940C400CE509948D5006E50A94B0
:0D22990014500A050AE50AD3945040A7220C
:0122A6002215
:1022A70090006012054300000000E4F509E4F50C16
:1022B700F50D43B440E5B430E5FB53B4DF85B70A09
:1022C70085B60B121559AE0AAF0B12149F050DE513
:1022D7000D7002050CB400DAE50CB420D543BD102F
:1022E7000509E509B408C6900060120513781012B5
:0A22F70004E190004AEEF0A3EFF0BE
:0123010022B9
:10255200BF0105E4FCFD802E7E007C017DFF12029E
:10256200F71C7D64120309AC06AD07E41201C38FA8
:102572002C8E2B8D2A8C29AB2CAA2BA92AA82912A6
:102582001528AC06AD0790FF907411F075DA01754D
:0E259200E30175E2FF8CE58DE475E10F7F003B
:0125A0002218
:102A0400BF0104E4FE801E7E007C007DFF121500E1
:102A14008F2C8E2B8D2A8C29AB2CAA2BA92AA82982
:102A2400121528AE0790FF9C7410F075DEFF8EDF40
:052A340075DD947F0038
:012A3900227A
:02235D008F27C8
:10235F007881E6B527037F00227881A627E52770CD
:10236F000790005E04F08012E527B46407E4900044
:10237F005EF0800690005E7402F0E527FD7C009011
:10238F000009E0FF7E00121500E4FBFAF9783F1216
:10239F00152E8F28C3E5279528FF122552AF281237
:0423AF002A047F007D
:0123B3002207
:100D6600122D2A120003122CE4122C70122B0912D7
:100D76002CFE75BBAA90FEA774FFF053BBF7D2AF4B
:100D86007FC87E00122B9512154BF0C2AF120FE0F2
:100D96007F6412235DD2AF12224990002EE0FF90AD
:100DA6000044F012235D7F2C7E01122B951222A7A0
:100DB60090006012054300000000900035E0D394D7
:100DC600034007E4F0122D7F8003121AC990003801
:100DD600E0601A120FC790002DE004F0E0FF7403E4
:100DE600D39F5009E4900038F090002DF07869E622
:100DF600601B120FC7788306E618700106D3742CA1
:100E0600788396740118965004E47869F690000386
:100E1600E0FF90005EE0FD6F600D7F76122A3A904B
:100E2600005EE0900003F0900041E0FF90002FE0AC
:100E3600FD6F60187F77122A3A90002FE0900041EC
:100E4600F0B40108786C06E618700106796CE7784C
:100E56006E66700419E71866601C786BE6FE08E695
:100E6600FF12157E7F7C121EE2786BE6FE08E6FF17
:100E760008A60608A607900001E06401706FF078E6
:100E86006FE664017067F6900024E0FEA3E0FF9031
:100E96000033E06E7003A3E06F602A12157E7F7444
:100EA600121EE2900024E0FFA3E0900033CFF0A3EF
:100EB600EFF090001F1205138F2E8E2D8D2C8C2B8C
:100EC6007F7D121EE27870E664017021F508E50860
:100ED60025E02471F8E6FA08E6FB4A6007E4FD7FA0
:100EE600781223B40508E508C3940840E143BD1011
:100EF600E555700B900016E0541F700312118A908E
:100F06000023E064016003020F92E556701CF5555C
:100F16007556011215429000461205430000000066
:100F260012145A120543000000001205B6D39000B1
:100F36000EE0940090000DE094004033900002E033
:100F4600B4012CE4F090000D1214EE900026E0FFA0
:100F5600C390000EE09F90000DE094004011E4F075
:100F6600A3F0900013E064016005E4FF12235D1214
:100F760015345003020DD37885E6640118466003E4
:100F8600020DD3F608F61214EE020DD3E4F55690D0
:100F96000014E07007FF12235D020DD3900037E0C6
:100FA600FF12235DE4F555121542900046120543E3
:100FB6000000000012145A12054300000000020D42
:010FC600D357
:100FC7007F6412235D7F647E00122B95E4FF12235A
:090FD7005D7F647E00122B95225F
:03001B0002194E79
:10194E00C0E0C0F0C083C082C0D075D000C000C05F
:10195E0001C002C003C004C005C006C007AF54AE2C
:10196E0053AD52AC51EF2401FFE43EFEE43DFDE4E5
:10197E003C8F548E538D52F55190000A1214ED90F7
:10198E00000AE0FEA3E0FFE4FCFD7B607AEAF9F8D2
:10199E00D31204BA500C90000AE4F0A3F0900002A7
:1019AE0004F0788906E618700106C37889E694E893
:1019BE0018E69403400C76000876007884760008CA
:1019CE0076019000041214ED7886E6FE08E6FFC359
:1019DE00900005E09F900004E09E4009E4F0A3F023
:1019EE0090000104F0D007D006D005D004D003D06B
:1019FE0002D001D000D0D0D082D083D0F0D0E0324F
:030023000227BCF5
:1027BC00C0E0C0F0C083C082C0D075D000C000C0E3
:0D27CC0001C002C003C004C005C006C00764
:0F27D900E59830E00AAF991227715398FED2AFFE
:1027E800D007D006D005D004D003D002D001D00045
:0B27F800D0D0D082D083D0F0D0E032EF
:102C0A0053BBF7C280E5BB20E3F6D280C2AF75FDA5
:102C1A00F075FC0F8EFA8FF975FDD275FC2D75FDD6
:052C2A00E175FC1E2213
:102BBD0053BBF7C280E5BB20E3F6D280C2AF8FFBDB
:102BCD0075FDF075FC0F8CFA8DF975FDB475FC4B28
:072BDD0075FDE175FC1E22ED
:101AC9007F001215881214C312041A78081204E14F
:101AD9007D007C2F122BBD7F647E001214C312047B
:101AE9001A7D017C2F122BBD1215159000647D0201
:101AF900122CC99000317D03122CC9A3E0FF7D048B
:101B0900122CCB90002EE0FF7D05122CCB900026E5
:101B1900E0FF7D06122CCB900023E0F4FF7D071235
:101B29002CCB7870E6FF7D08122CCB900014E0FFD7
:101B39007D09122CCB900013E0FF7D0A122CCB906B
:101B49000009E0FF7D0B122CCB7886E6FF7D0C1295
:101B59002CCB08E6FF7D0D122CCB7F801215881245
:101B69002CD27D807C2FE4FF122BBD0D0F122BBDD3
:021B7900D2AFE9
:011B7B002247
:0413F400026700008C
:101A0E00120296FFE52F4FFFE52EFEE52DFDE52C8C
:101A1E008F2F8E2E8D2DF52CFC78081204F48F2F1F
:101A2E008E2E8D2D22AF2EAE2DAD2CAC2B1204E1B1
:101A3E00AD0722AF2EAE2DAD2CAC2B1204E1AD07AF
:101A4E0022AB07E4FDFC900084E022854F83855095
:101A5E0082E54D9582E54C958322C3E568950AFF94
:101A6E00E5679509FEC3EF22AC06AD077F0722E4BA
:101A7E0075F001020580AF66AE65AD64AC6302041D
:101A8E00E1FEE545FDE544FCE47BFF22E4F51DF5B2
:101A9E001CF51BF51A22120296AB26AA27A928229C
:101AAE00AF05AE04AD0322754B01754C00754D6745
:0B1ABE00227486250AF9740035092205
:10203E00EFC39430400CEFD39439500674D02FFF79
:10204E008022EFC39441400CEFD394465006EF2408
:10205E00C9FF8010EFC39461400AEFD39466500419
:10206E00EF24A9FFEF540FC454F0FFEDC39430409A
:10207E000CEDD39439500674D02DFD801EEDC39413
:10208E00414008EDD394465002800CEDC39461405C
:10209E000AEDD394665004ED24A9FDED540F4207CA
:0120AE00220F
:062848008B178A188919A4
:10284E00121A9AE94A4B7005FFFEFDFC22121A9AE3
:10285E007817121A7D12027D601AE51D2401FFE41D
:10286E00351CFEE4351BFDE4351A8F1D8E1C8D1BA9
:0C287E00F51A80DCAF1DAE1CAD1BAC1ABF
:01288A00222B
:062A70008B3A8A3B893C11
:102A76008B408A418942E94A4B7004FBFAF922E508
:102A86003F153FAE3E7002153E4E600B7840121A5F
:0D2A96007DED1202C380E8AB3AAA3BA93CDB
:012AA3002210
:0617C8008B1E8A1F892020
:1017CE008B268A27892885212985222A85232BE99C
:1017DE004A4B6008E5234522452170077B007A00BD
:1017EE00790022D3852A83852B82E5289582E527E9
:1017FE0095834019E52B2525F9E52A3524FA8A83A8
:10180E008982D3E5289582E52795834032E4F52C2D
:10181E00F52DC3E52D9525E52C9524505BAB29AA16
:10182E002AA92B852D82852C83121AA4852D8285BB
:10183E002C831202D5052DE52D70D7052C80D3856E
:10184E00242C85252DD3E52D9400E52C94004028DD
:10185E00AB29AA2AA92BE52D24FFFFE52C34FFFE88
:10186E008F82F583121AA48F828E831202D5E52DF4
:0E187E00152D70D1152C80CDAB1EAA1FA920F0
:01188C002239
:102AA4008F668E658D648C6378181204E1EF1202D0
:102AB400C37810121A84900001EF1202D57808121C
:102AC4001A84900002EF1202D5E566FF900003EF2E
:032AD4000202D526
:10272600E4F52FF52EF52DF52C12027DFFE48F2F03
:10273600F52EF52DF52CAE2EAD2DAC2C121A278CC0
:102746002C900001121A0E8C2C900002121A0E8C7C
:102756002C900003120296FFE52F4FFFE52EFEE5B3
:0A2766002DFDE52C121A2CF52CFCB9
:012770002246
:062DDA00900085E0FF22DD
:0C2D9900E4900085F0FDFC7F0402240B98
:062DE000900082E0FF22DA
:08268E008F578B588A59895AB5
:10269600121A51B401037F0122AF05AE04AD5712E1
:1026A6002D8CAC06E4FD122D8CAC06E55BFD122DDF
:1026B6008CAC06AD5C122D8CAC06AD07AB58AA5996
:1026C600A95A855B1C855C1D122B3A121A761224B8
:0326D6000B7F0176
:0126D90022DE
:0228CD008D2755
:1028CF00121A4FB401037F0122121AAE122901E42A
:1028DF00FD122901AD07E5277003FD8006AF05AE98
:1028EF00047D01122D8CAC06AD077F0712240B7FE0
:0128FF0001D7
:0E29000022122D8CAC067D01122D8CAC06220D
:0821EA008F278D288A298B2A1A
:1021F200E4FDFCF52B900084E0B401037F0122AFE3
:1022020005AE04E529FD122D8CAC06AD2A122D8CEB
:10221200AC06AD2712223CE4FD12223CAD07E528B4
:102222007003FD8006AF05AE047D01122D8CAC0655
:09223200AD077FB212240B7F01FD
:0E223B0022122D8CAC067D01122D8CAC0622D9
:0823B4008F288D298A2A8B2B4A
:1023BC00E4FDFCF52C900084E0B401037F0122AF16
:1023CC0005AE04E52AFD122D8CAD2B122403AD288D
:1023DC00122D8C7D04122403E4FD122D8CAC067D91
:1023EC0001122D8CAC06AD29122D8CAC06AD077FDD
:0623FC00B212240B7F0168
:0924020022AC06122D8CAC06225E
:101EE200121A4FB401037F0122121AAE122D8CACCA
:101EF200067D02122D8CAC06E4FD122D8CAC067D03
:101F020004122D8CC006C0077818121A33D007D0DD
:101F120006122D8CC006C0077810121A33D007D0D3
:101F220006122D8CC006C007AF2EAE2DAD2CAC2BE9
:101F320078081204E1AD07D007D006122D8CAC064A
:101F4200C007E52EFFE4AD07D007122D8C121A76DA
:051F520012240B7F01C9
:011F57002267
:021CBB008F2A6E
:101CBD00E4FDFCF531900084E0B401037F0122AF17
:101CCD0005AE04E52FFD122D8CAC06AD30122D8C1A
:101CDD00AC06AD2A122D8CAC067D02122D8CAC06F5
:101CED00E4FD122D8CAC067D04122D8CC006C007B0
:101CFD007818121A41D007D006122D8CC006C007D5
:101D0D007810121A41D007D006122D8CC006C007CC
:101D1D00AF2EAE2DAD2CAC2B78081204E1AD07D053
:101D2D0007D006122D8CAC06C007E52EFFE4AD07DB
:101D3D00D007122D8CAC06AD077FB212240B7F019C
:011D4D002273
:0826DA008F5D8B5E8A5F896051
:1026E200121A51B401037F0122AF05AE04AD5D128F
:1026F2002D8CAC067D03122D8CAC06E561FD122DEE
:102702008CAC06AD62122D8CAC06AD07AB5EAA5F37
:10271200A96085611C85621D122B3A121A76122459
:032722000B7F0129
:012725002291
:022A3A008D28E5
:102A3C00121A4FB401037F0122121AAE122D8CAC64
:102A4C00067D04122D8CAC06E4FD122D8CAC067D9B
:102A5C0001122D8CAC06AD28122D8C121A76122474
:032A6C000B7F01DC
:012A6F002244
:02188D00AD07A5
:10188F00E4F548F549900084E0B401037F0122128A
:10189F00192E7D05121946E4FD12194674FFFFE556
:1018AF0046121A8FFAF9F8C31204D070097D01128B
:1018BF00192EAD47803D74FFFF121A8F7AFFF9F88A
:1018CF00C31204D070047D0280197D0412193A7876
:1018DF0018121915AF47AE46AD45AC447810120437
:1018EF00E1AD0712193A7808121915E547FFE4AD73
:1018FF0007AF49122D8C8E488F49AD49AC487F07F1
:05190F0012240B7F0112
:1019140022AF47AE46AD45AC441204E1AD07AF4932
:10192400AE48122D8C8E488F4922AF49AE48122DF5
:101934008C8E488F4922AF49AE48122D8C8E488F29
:0A1944004922122D8C8E488F492293
:082DB0008C278D2812027DFF23
:012DB80022F8
:082DB9008C288D2912027DFF18
:012DC10022EF
:072DC2008C2A8D2B1227263D
:012DC90022E7
:102771008F39D3121A594015E54D9550FFE54C9507
:102781004FFEC3EF941BEE64809480502DC3121A48
:1027910059500DC3E550954DFFE54F954C4F601ACB
:1027A100C3900082121A5F40077A007967121AB546
:0B27B100784B121A7DE5391202C3229A
:10118A00E4F509F50AF50BF50CC3E568941FE56764
:10119A0094005024122C8EEFD39400401B12290E77
:1011AA000568E568AC6770020567142486F58274E1
:1011BA00003CF583EFF080D1C3E5689407E56794B6
:1011CA000050030212EA121A689407EE94005003C0
:1011DA000212B97486250AF58274003509F583E08E
:1011EA006455600A050AE50A70DC050980D8748727
:1011FA00250AF58274003509F583E064AA600A05B8
:10120A000AE50A70C1050980BD7488250AF5827449
:10121A00003509F583E0600474028038748A250A6F
:10122A00F58274003509F583E0FE748B250AF58290
:10123A0074003509F583E07C002400FFEC3ECF24DE
:10124A0007F50CE43FF50BD3E50C9426E50B940067
:10125A0040097403250AF50AE4804D121A68950CB0
:10126A00EE950B404A121ABFFA7B01E50C24FFFDEA
:10127A00E50B34FFFC122BE4E50A250CFDE50935E4
:10128A000BFC74852DF58274003CF583E06F6009D0
:10129A007403250AF50AE4800FAF0AAE09120AC5DB
:1012AA00E50C250AF50AE50B3509F5090211D0C343
:1012BA00E568950AF568E5679509F567D3E56894E1
:1012CA0000E56794004019121ABF752101F52289B9
:1012DA00238567248568257B017A0079861217C8D9
:0112EA0022E1
:102D2A00121AB5754E01754F00755067900082747E
:032D3A00FFF02285
:1013F800018E00048A00000000603C00C401010363
:1014080002040265046602670168026902710172DA
:101418000173017402750176047704780479027AFD
:10142800017B047C027D0282048304840485048693
:0914380004870488048904960469
:1024B000AB1EAA1FA920AD22AC212225E02471F871
:1024C000E6FA08E6FB4A22900009E0FFE48F2EF5C9
:1024D0002DF52CF52B22900024E0FEA3E0FFE48FE5
:1024E0002E8E2DF52CF52B22F52CF52B8A2F8B30EB
:1024F00022E0FFE4FCFDFEC30204D090003874012A
:02250000F022C7
:0D2D7F00E4FDFC7F0412240B78697601222C
:102CAC00E4FEEF7004FFFD8006EEFF7E007D011256
:0D2CBC002D8CAE07EEFD7C007FB102240BD5
:03001E00022DA50B
:101592007D017F011216BD9000147F7112167590A5
:1015A200002E1224CA7F03121682900064E0FFB458
:1015B200FF05E4F516801EEFB4C805751602801506
:1015C200EFB42805751603800CEFB41405751604E4
:1015D2008003751605AD167F651216C8900031128C
:1015E20024D97F661216829000237F6712167590A7
:1015F20000261224CA7F6812168DE47B107A27F91E
:10160200F890000F12051312041AC374329F1224A9
:10161200CB7F6912168D7870E6FD7F721216BD12AD
:1016220024C77F041216B29000137F731216981209
:1016320024D67F741216B290005E7F761216A590A1
:10164200002F7F771216A57D017F781216C8788643
:10165200E6FE08E61224DD7F79121EE27F647E0038
:10166200122B959000387F7A121698E4FDFC7FB415
:0316720002240B44
:10167500E0FD1228CD7F647E00122B9522121EE21A
:101685007F647E00122B9522121EE27F647E00127B
:101695002B9522E0FD1228CD7F647E00122B95222A
:1016A500E0FD122A3A7F647E00122B9522121EE27B
:1016B5007F647E00122B95221228CD7F647E001256
:0E16C5002B9522122A3A7F647E00122B95226A
:102D3D00122DB08F257D017F011228CD8F247F02AA
:012D4D002263
:101F5800E4F529122DC28F278E268D258C2490001A
:101F68002EAB27AA26A925A8241224F170057529C5
:101F780001802D7870E66028E4F528E5281224BB56
:101F8800601585272E85262D85252C85242B8A2FBF
:101F98008B307F03121CBB0528E528C3940840DB5F
:101FA800AF2790002EEFF0FE900037F01224CC7F80
:101FB80003121EE2BF010AE52960037F02227F01A6
:031FC800227F0075
:011FCB0022F3
:10218500E4F526122DC28F24900009E0B5240575CB
:10219500260180267870E66021E4F525E5251224E0
:1021A500BB600EE485242EF52D1224E87F04121C55
:1021B500BB0525E525C3940840E2900009E524F018
:1021C500E4FF12235D900037E0FF12235D1224C760
:1021D5007F04121EE2BF010AE52660037F02227F0B
:0421E50001227F0054
:0121E90022D3
:101DDA00E4F526122DB98F24E524788E66700575F0
:101DEA002601801F7870E6601AE4F525E52512249D
:101DFA00BB6007AD247F651223B40525E525C3948E
:101E0A000840E9E52414601014601514601A14607F
:101E1A001F1460242405702890006474FFF0802049
:101E2A0090006474C8F080189000647428F08010E0
:101E3A009000647414F08008900030E0900064F020
:101E4A00788EA624AD247F65122A3ABF010AE526B8
:0A1E5A0060037F02227F01227F0057
:011E6400225B
:101E6500E4F529122DC28F278E268D258C2490000E
:101E750031E0FEA3E0FFE4FCFDAB27AA26A925A8D7
:101E850024C31204D07005752901802D7870E66091
:101E950028E4F528E5281224BB601585272E85261C
:101EA5002D85252C85242B8A2F8B307F66121CBB14
:101EB5000528E528C3940840DBAE26AF27900031FE
:101EC500EEF0A3EFF01224DE7F66121EE2BF010AD8
:0C1ED500E52960037F02227F01227F00CC
:011EE10022DE
:1025A100E4F526122DB08F24900023E0B5240575A3
:1025B1002601801F7870E6601AE4F525E5251224CE
:1025C100BB6007AD247F671221EA0525E525C39489
:1025D1000840E9900023E524F0FD7F671228CDBF74
:0E25E100010AE52660037F02227F01227F00AF
:0125EF0022C9
:1020AF00E4F529122DC28F278E268D258C249000C2
:1020BF0026AB27AA26A925A8241224F17005752975
:1020CF0001802D7870E66028E4F528E5281224BBFE
:1020DF00601585272E85262D85252C85242B8A2F67
:1020EF008B307F68121CBB0528E528C3940840DBA2
:1020FF00AF27900026EFF01224CC7F68121EE2BFAC
:0E210F00010AE52960037F02227F01227F0082
:01211D00229F
:101B7C00E4F529122DC28F278E268D258C24788A88
:101B8C00120507AB27AA26A925A824C31204D070D6
:101B9C0005752901802D7870E66028E4F528E52884
:101BAC001224BB601585272E85262D85252C852492
:101BBC002B8A2F8B307F69121CBB0528E528C39418
:101BCC000840DBAF27AE26AD25AC24788A12052B56
:101BDC00C374329527FFE49526FEE49525FDE49524
:101BEC0024FCE47B107A27F9F812038F90000F1273
:101BFC000537788A1205078F2E8E2D8D2C8C2B7F16
:101C0C0069121EE2BF010AE52960037F02227F01EF
:031C1C00227F0024
:011C1F0022A2
:1025F000E4F526122DB08F24900014E0B524057563
:102600002601801F7870E6601AE4F525E52512247E
:10261000BB6007AD247F711221EA0525E525C3942F
:102620000840E9900014E524F0FD7F711228CDBF29
:0E263000010AE52660037F02227F01227F005F
:01263E002279
:10245E00122DB08F247870E6FF6524601DEF601A90
:10246E00E4F525E5251224BB6007AD247F72122109
:10247E00EA0525E525C3940840E97870A624AF2423
:10248E00122CAC7870E66008E4FDFC7FB412240BCD
:10249E007870E6FD7F721228CDBF01037F01227F87
:0124AE00002D
:0124AF00220A
:10263F00E4F526122DB08F24900013E0B524057514
:10264F002601801F7870E6601AE4F525E52512242F
:10265F00BB6007AD247F731221EA0525E525C394DE
:10266F000840E9900013E524F0FD7F731228CDBFD9
:0E267F00010AE52660037F02227F01227F0010
:01268D00222A
:10280300122DB0EF603CE4900024F0A3F07870E662
:102813006028E4F524E5241224BB6015900024E02D
:10282300FEA3E0FFE48F2E8E2D1224E87F74121C8A
:10283300BB0524E524C3940840DB1224D67F74121D
:042843001EE27F0210
:01284700226E
:102B6900122DB9AD07ED146016047016900065E4D6
:102B7900F0A304F090003604F090002FF0800312C7
:0B2B890024FB7F78122A3A8F247F0281
:012B9400221E
:10211E00E4F527122DC28E248F25E525788766706B
:10212E0004E5241866700575270180277870E6602F
:10213E0022E4F526E5261224BB600FE485252E85C4
:10214E00242D1224E87F79121CBB0526E526C394A4
:10215E000840E17886A62408A62518E6FE08E612B1
:10216E0024DD7F79121EE2BF010AE52760037F029C
:06217E00227F01227F0018
:012184002238
:102D1500122DB0EF60031224FBE4FD7F7A1228CD5B
:042D25008F247F0276
:012D29002287
:10250200E4F527122DB98F25E52514602F047034C8
:102512007870E66401702DF526E5261224BB600A68
:102522007D017F781223B47527010526E526C39421
:102532000840E6E527600D1224FB8008E4FDFC7FDD
:0F254200B412240BAD257F7B122A3A8F247F021F
:012551002267
:10288B00122DB98F25E525146015146017146019E6
:10289B0014601B14601D2405701C122DE980171287
:1028AB002DEC801212001A800D12002180081200EC
:1028BB00228003122DEFAD257F96122A3A8F247FAB
:0128CB00020A
:0128CC0022E9
:0616D3008B1E8A1F892016
:1016D900EF120590171401171F03172A0417356510
:1016E900174066174B67175668176169176C7117AA
:1016F9007772178173178B75179578179F7917A9C3
:101709007A17B37B17BD96000017C51224B0122DA6
:101719003D8F230217C51224B0121F588F230217B9
:10172900C51224B01221858F230217C51224B012C5
:101739001DDA8F230217C51224B0121E658F2302EA
:1017490017C51224B01225A18F230217C51224B080
:101759001220AF8F230217C51224B0121B7C8F23CE
:101769000217C51224B01225F08F230217C51224BF
:10177900B012245E8F2380441224B012263F8F2397
:10178900803A1224B01228038F2380301224B01219
:101799002B698F2380261224B012211E8F23801CCF
:1017A9001224B0122D158F2380121224B012250293
:0E17B9008F2380081224B012288B8F23AF23B9
:0117C70022FF
:032DE6007F1E222B
:032DE900022D4E6A
:032DEC00022D5F56
:01001A0022C3
:0100210022BC
:0100220022BB
:012DEF0022C1
:102D4E00C2AF75FDF075FC0F75FD8775FC78D2AFBF
:012D5E002252
:102D5F00C2AF75FDF075FC0F75FD7875FC87D2AFAE
:012D6F002241
:0F2D7000386C6D786E6C676700312E302E300036
:03144100014A005D
:101FCC00748A250EF5827400350DF583E0751400C6
:101FDC00F513748B250EF5827400350DF583E02511
:101FEC0014F514E43513F51322350DF583E0F8E4FC
:101FFC0022E026F618E436F622748C250EF582744F
:10200C0000350DF583E02212051378101204E1ADB2
:10201C00072212051378081204E1AD072274AB2FC6
:10202C00F974003EFA7B0122E475F001120580027E
:02203C00027D23
:101C2000E4FFFE90004AE0C4F854F0C8A3E0C454B6
:101C30000F48FD122D8C7E00900030E0FD122D8C9F
:101C40007E00C006C007900017122013D007D006F0
:101C5000122D8C7E00C006C00790001712201ED0E7
:101C600007D006122D8C7E00C006C00790001F1200
:101C70002013D007D006122D8C7E00C006C007901E
:101C8000001F12201ED007D006122D8C7E00C00629
:101C9000C00790000F122013D007D006122D8C7EA3
:101CA00000C006C00790000F12201ED007D00612F9
:0B1CB0002D8CEFFD7C007FC002240B98
:082DCA00E4FDFC7FC102240BB3
:0C2D8C00122029ED1202C30FBF00010E3F
:012D98002218
:0A2B3A008E178F188B198A1A891B59
:102B4400122029851921851A22851B23851C248599
:102B54001D251217C8E51D2518F518E51C3517F5B0
:042B640017FEAF1891
:012B6800224A
:10298B008B348A3589368C378D38E94A4B602DE587
:10299B003845376027E5381538AE37700215374E96
:1029AB00601AAB34AA35A93612027DFF12001E74D1
:0D29BB00012536F536E43535F53580D92295
:0A2BE4008B348A3589368C378D3822
:102BEE00E4FFFDFCC3ED9538EC9537500E783412AA
:0B2BFE0020342FFF0DBD00010C80E90A
:012C090022A8
:04240B008C328D334F
:10240F009000A57455F0A374AAF0E4A3F0A3EFF025
:10241F00E532A3F0E533A3F02407F533E43532F5C5
:10242F00327B017A0079A5E53324FFFDE53234FFD5
:10243F00FC122BE474A42533F58274003532F58336
:0F244F00EFF07B017A0079A5AD33AC3202298B17
:102C5000E4FFE54A700AFEFD122D8C754A018007DB
:102C60007E007D01122D8CEFFD7C00E4FF02240B21
:1029C800E4F5167A2D79701229F47A2D7970122B84
:1029D8003A8F167A2D79791229F47A2D7979122B72
:0C29E8003A8F16EFFD7C007F0102240BEB
:1029F4007BFF1228488E1C8F1DAF167E007BFF22A2
:082DD200E4FDFC7F0202240B6A
:022C2F008F1DF7
:102C3100122DE6E4FEEEC39F501275F002EE9000F5
:0E2C4100C4120574E0651D60030E80E9AF0645
:012C4F002262
:062302008B168A178918F2
:1023080012027DF519900001120296F51A9000024A
:10231800120296751C00F51B900003120296251CEC
:10232800F51CE4351BF51BAF19122C2F75F002EFC5
:102338009000C5120574E0651A60037F0022AB1691
:10234800E5182404F9E43517FA851B21851C22AF0A
:04235800191216D36D
:01235C00225E
:040AC5008E0D8F0EF5
:100AC90074892FF58274003EF583E0FF1205900BBF
:100AD90011000B14010B17020B1A030B37040B3E01
:100AE900060D62080AFDB10BB4B40B0BC00B0EC1A5
:100AF90000000D651220056003020D65FDFC7FB441
:100B09008029021C20022DCA022C500229C8022D5C
:100B1900D2122005FF900082F0BF020AE47869F63C
:100B2900121AC9121592E4FDFC7F0302240B9000EE
:100B3900857401F022121FCCE4F511F512C3E512F8
:100B49009514E51195134003020D65E50E2512FD77
:100B5900E50D3511FC748E2DF58274003CF583E0AA
:100B6900751000F50F748F2DF58274003CF583E044
:100B79002510F510E4350FF50F748C250EF9740066
:100B8900350DFA7B01E92512F9EA3511FA1223022A
:100B9900BF0103121AC9E5102404FFE4350FFEEF63
:100BA9002512F512EE3511F5118092121FCC122083
:100BB90005F515748D250EF5827400121FF57972ED
:100BC900F7E819F7748E250EF5827400350DF58353
:100BD9007872121FFD748F250EF5827400121FF5AD
:100BE9007974F7E819F77490250EF5827400350DBC
:100BF900F5837874121FFD7491250EF58274001225
:100C09001FF57976F7E819F77492250EF5827400C5
:100C1900350DF583E07876121FFE7493250EF58263
:100C29007400121FF57978F7E819F77494250EF511
:100C3900827400350DF583E07878121FFE749525CE
:100C49000EF5827400121FF5797AF7E819F7749690
:100C5900250EF5827400350DF583E0787A121FFEB2
:100C69007497250EF5827400121FF5797CF7E8193F
:100C7900F77498250EF5827400350DF583E0787CBC
:100C8900121FFE7499250EF5827400121FF5797EE4
:100C9900F7E819F7749A250EF5827400350DF58376
:100CA900E0787E121FFE749B250EF5827400121FD8
:100CB900F57980F7E819F7749C250EF582740035EB
:100CC9000DF583E07880121FFE7872E618466004FD
:100CD9007D018002E4FD7F82122A3A7874E6184683
:100CE90060047D018002E4FD7F83122A3A7876E66A
:100CF900184660047D018002E4FD7F84122A3A7857
:100D090078E6184660047D018002E4FD7F85122A99
:100D19003A787AE6184660047D018002E4FD7F8610
:100D2900122A3A787CE6184660047D018002E4FDC7
:100D39007F87122A3A787EE6184660047D01800290
:100D4900E4FD7F88122A3A7880E6184660047D011E
:0C0D59008002E4FD7F89022A3A12159204
:010D6500226B
:102C8E00E54E854F83855082654B700AE54D658212
:0E2C9E007004E54C658360037F01227F0022F5
:10290E00AB4EAA4FA950E54B854C83854D82654E43
:10291E00700AE55065827004E54F65836021C390AF
:10292E000082E5509582E54F9583400D7A007967D8
:0F293E00754E01754F00755067784E122034FFAB
:01294D002267
:10002600020268E86480F8E933E83360110460F09E
:10003600ED33EC337009E8FCE9FDEAFEEBFF220440
:1000460060DED3EB9FEA9EE99DE8C2E78CF0C2F73B
:1000560095F0400CE8CCF8E9CDF9EACEFAEBCFFB07
:1000660012023385D0F05804700320D5B3E804702B
:10007600075002B2D502027292D5EC0460F7E4CCC6
:10008600C0E0C398F8603B94186008400DD0E0FBD0
:1000960002024AE4FBFAC9FC8028E830E406E4C917
:1000A600FBE4CAFCE830E305E4C9CACBFCE8540724
:1000B6006010F8C3E913F9EA13FAEB13FBEC13FC2F
:1000C600D8F130F52FC3E49CFCEF9BFFEE9AFEEDD2
:1000D60099FDD0E0FBEF4E4D4C701222DB0302027D
:1000E6006FEC2CFCEF33FFEE33FEED33FDED30E726
:1000F600EB02024AEF2BFFEE3AFEED39FDD0E0FBB4
:1001060050130BBB0003020272ED13FDEE13FEEF5C
:0801160013FFEC13FC02024A86
:10011E00020272EC5D046005E85904700302026885
:10012E00120233580460F6EC4860F2EC7004FDFEE7
:10013E00FF22C860DB2481C85009C39860025006B4
:10014E0002026F9850CAF582E9294B4A7005AB82BC
:10015E0002025E75F0007C1A7880C3EF9BEE9AED7A
:10016E0099400DC3EF9BFFEE9AFEED99FDE842F02C
:10017E00DC23ACF0D0E0FFD0E0FED0E0FDAB82207F
:10018E00E7101BEB60BAEC2CFCEF33FFEE33FEED09
:10019E0033FD02024AE803F830E705C0F075F000BF
:1001AE00EF2FFFEE33FEED33FD40B830E7C280AAED
:1001BE0075F020800E75F010800575F0087D007EBC
:1001CE00007F003392D530D5031204ACEC334010CF
:1001DE00EF33FFEE33FEED33FDEC33FCD5F0ED22C5
:0E01EE00E5F0247EA2D513CC92E7CDCEFF2201
:1001FC00EDD2E7CD33EC3392D524814006E4FFFEFB
:10020C00FDFC22FCE4CFCECDCC24E0501174FF8059
:10021C00EDC3CC13CCCD13CDCE13CECF13CF0470F6
:07022C00F030D5DE0204AC46
:10023300E9D2E7C933E833F892D5EDD2E7CD33EC11
:0702430033FC5002B2D5228A
:10024A00EC30E7100FBF000C0EBE00080DBD000415
:10025A000BEB6014A2D5EB13FCED92E7FD2274FFC1
:10026A00FCFDFEFF22E480F8A2D574FF13FC7D801A
:03027A00E480EF2E
:101D5A00020D66E493A3F8E493A34003F68001F22C
:101D6A0008DFF48029E493A3F85407240CC8C3338A
:101D7A00C4540F4420C8834004F456800146F6DF59
:101D8A00E4800B01020408102040809012EBE47EEC
:101D9A00019360BCA3FF543F30E509541FFEE4934E
:101DAA00A360010ECF54C025E060A840B8E493A315
:101DBA00FAE493A3F8E493A3C8C582C8CAC583CA40
:101DCA00F0A3C8C582C8CAC583CADFE9DEE780BEF8
:0114440000A7
:10027D00BB010689828A83E0225002E722BBFE027F
:09028D00E32289828A83E49322B2
:10029600BB010CE58229F582E5833AF583E022501D
:1002A60006E92582F8E622BBFE06E92582F8E22267
:0D02B600E58229F582E5833AF583E4932281
:1002C300BB010689828A83F0225002F722BBFE011A
:0202D300F32214
:1002D500F8BB010DE58229F582E5833AF583E8F05F
:1002E500225006E92582C8F622BBFE05E92582C80B
:0202F500F222F3
:1002F700EF8DF0A4A8F0CF8CF0A428CE8DF0A42E1B
:02030700FE22D4
:10030900BC000BBE0029EF8DF084FFADF022E4CCD8
:10031900F875F008EF2FFFEE33FEEC33FCEE9DECA1
:10032900984005FCEE9DFE0FD5F0E9E4CEFD22EDE7
:10033900F8F5F0EE8420D21CFEADF075F008EF2F31
:10034900FFED33FD4007985006D5F0F222C398FD22
:050359000FD5F0EA22BF
:10035E00C5F0F8A3E028F0C5F0F8E582158270022A
:06036E001583E038F022C7
:0D037400EF2BFFEE3AFEED39FDEC38FC22D8
:0E038100C3EF9BFFEE9AFEED99FDEC98FC2277
:10038F00E88FF0A4CC8BF0A42CFCE98EF0A42CFC0D
:10039F008AF0EDA42CFCEA8EF0A4CDA8F08BF0A48B
:1003AF002DCC3825F0FDE98FF0A42CCD35F0FCEBEA
:1003BF008EF0A4FEA9F0EB8FF0A4CFC5F02ECD39AF
:0F03CF00FEE43CFCEAA42DCE35F0FDE43CFC221C
:1003DE0075F008758200EF2FFFEE33FECD33CDCCD6
:1003EE0033CCC58233C5829BED9AEC99E582984059
:1003FE000CF582EE9BFEED9AFDEC99FC0FD5F0D636
:10040E00E4CEFBE4CDFAE4CCF9A88222B800C1B95F
:10041E000059BA002DEC8BF084CFCECDFCE5F0CB9D
:10042E00F97818EF2FFFEE33FEED33FDEC33FCEBD6
:10043E0033FB10D703994004EB99FB0FD8E5E4F991
:10044E00FA227818EF2FFFEE33FEED33FDEC33FC7E
:10045E00C933C910D7059BE99A4007EC9BFCE99A72
:10046E00F90FD8E0E4C9FAE4CCFB2275F010EF2FB7
:10047E00FFEE33FEED33FDCC33CCC833C810D707B7
:10048E009BEC9AE899400AED9BFDEC9AFCE899F8F2
:0E049E000FD5F0DAE4CDFBE4CCFAE4C8F92285
:0E04AC00C3E49FFFE49EFEE49DFDE49CFC2261
:1004BA00EB9FF5F0EA9E42F0E99D42F0EC6480C8B9
:0604CA0064809845F02259
:1004D000EB9FF5F0EA9E42F0E99D42F0E89C45F082
:0104E00022F9
:1004E100E8600FECC313FCED13FDEE13FEEF13FFF9
:0304F100D8F1221D
:1004F400E8600FEFC333FFEE33FEED33FDEC33FC66
:03050400D8F12209
:0C050700E6FC08E6FD08E6FE08E6FF2220
:0C051300E0FCA3E0FDA3E0FEA3E0FF225B
:0C051F00E0F8A3E0F9A3E0FAA3E0FB225F
:0C052B00ECF608EDF608EEF608EFF622FC
:0C053700ECF0A3EDF0A3EEF0A3EFF02237
:10054300A8828583F0D083D08212055A12055A12ED
:10055300055A12055AE473E493A3C583C5F0C58312
:10056300C8C582C8F0A3C583C5F0C583C8C582C802
:010573002265
:0C057400A42582F582E5F03583F5832292
:10058000FAE6FB0808E6F925F0F618E6CA3AF6227C
:10059000D083D082F8E4937012740193700DA3A3FA
:1005A00093F8740193F5828883E47374029368600E
:0605B000EFA3A3A380DF0E
:00000001FF
