:03000000021D5B83
:0C1D5B00787FE4F6D8FD75819B021DA284
:10128400045100000000410006004100420C4100EE
:1012940043404400390000000044001800000000EE
:1012A40044001C0000000044005F000000004400F3
:1012B40049000000004400650000000042002D00C9
:1012C40001420016000041000D00410037004200B9
:1012D4006A000042000E0000410000084100450081
:1012E40041006C0001550001560041001500410009
:1012F400240141002F0A410048004100440A4100F2
:1013040036004100380042000B0000410002000298
:101314008400000282000010710000000000000040
:10132400000000000000000000016C00016E0001DC
:101334007000016F00016B0041000A0041000700CA
:101344004100140042002500004200340000410026
:101354006300410003004200040000410001004119
:10136400002C004100300041004100018100016D6A
:1013740000420046000050004F0000000000000042
:0E138400000000000000000000420008000011
:1013D500EF24A0FFEE340FFEE43DFDE43CFC1205D6
:1013E5001FD30204D0E4900045F09000437440F010
:1013F5009000377402F09000007406F0E490000647
:10140500F090005F22900018120513900039120524
:101415001F12037490001812053790001802051367
:1014250090003912051FC30204D0E4FCFD120374B9
:1014350090006502053790003D120513EF2470FFFB
:10144500EE3417FEE43DFDE43CFC90001822122A20
:10145500C2E47BE87A03F9F8900010020513E475FD
:10146500F00102035E900043E0FF900006E0C39F99
:1014750022D390002EE0940090002DE094002212DB
:10148500051390001C12051F0203741202F7AC0627
:10149500AD07E41201C3E4FBFA79C87842020121E1
:1014A5007F647E00022AC290001002053790003941
:1014B500020513E4FFFEFD7C3F12002D0201FCD363
:1014C50090006BE0940090006AE094002290002F59
:1014D500E0900044F0227F0A12272E900031EFF0B1
:1014E50090006422F0900049020513900065020502
:1014F5001FD39DEC6480F874809822E47B02FAF98E
:10150500F802041A90001802051F7E2F1229FA7F8F
:04151500107E2722FB
:1028F3008E098F0A8B0B8A0C890DAF051DEF6021A2
:10290300050AE50AAE097002050914F5828E83E40F
:1029130093FF780BE475F001120580EF1202C38078
:02292300D922B7
:102985008F828E83E4F554F553F552F551AF82AE3F
:1029950083E4FCFDAB54AA53A952A851C31204D039
:0829A500500543BD1080E6223D
:092AB900E0FF7C2F1229AD7F64BF
:102AC200E4FDFCC3ED9FEC9E50070DBD00010C80A0
:012AD200F211
:012AD30022E0
:10000300758E5190FE917401F0A37410F075BD5F6D
:0700130090FEA07420F02212
:102A6000E490FE80F0758901758DFA758BCB43A8D3
:0E2A700008438840758CCB758AEB4388102292
:1029250090FF10E054F04408F090FF02E054F044AA
:1029350002F0D28490FFA07420F0A37404F075CC4B
:102945000675CEFF75CD98759E0275981043A81033
:01295500225F
:102AEE0043B40343B4807F147E00122AC275B5012D
:072AFE0090FE9B744BF022D7
:102AD40090FF08E04488F090FF00E0540F4430F089
:0A2AE40090FF11E054F04403F022CB
:0B2B64008F99E59830E1FB5398FD22AB
:10272E008FB543B440E5B430E5FB53B4DF1214A5C6
:10273E00E4FBFAF943B440E5B430E5FB53B4DFE50E
:10274E00B62BFBE5B73AFA7F147E00122AC209B9FE
:0C275E0010E275B501A9021214A5AF012C
:01276A00224C
:100FAD007B017A00794F7D107F007E2F1228F39000
:100FBD00004FE0FFE4FCFDFE1214AC12145D780846
:100FCD001204F41214AC90001012051F900050E0A2
:100FDD00FFE4FCFDFE1203741214AC12145DE47BED
:100FED00E87A03F9F812038F1214ACE47F307E75A2
:100FFD00FDFC90001012142840107F007E097D3DED
:10100D007C009000101213E3400A9000101205436B
:10101D0000009C40900051E0900069F07002800744
:10102D00900069E0B4FE0374FFF0900052E0FF9071
:10103D000032E4F0A3EFF0E0F8E4F0E8900032F0D5
:10104D00900053E0FF900032E48FF012035E9000A9
:10105D0032E0FEA3E0FF4E6009D3EF9408EE940753
:10106D004009900032E4F0A37405F0900054E09034
:10107D00002FF0900038F0900055E0900027F060C0
:10108D0006E0D394FF40069000277401F0900056BF
:10109D00E0F45401900024F0900057E05401787072
:1010AD00F6A3E05401900015F0900059E054019022
:1010BD000014F090005AE090000AF07B017A00795C
:1010CD00087D027F807E2F1228F3900008E09000AB
:1010DD0036F0900009E0900007F07F807E2F1229F6
:1010ED00FA7F107E27122AC2900036E004F0E0FF4E
:1010FD007D807C2F1229AD1214A5900007E070039E
:10110D00022B3E900007E0FFB4010A7D817C2F1277
:06111D0029AD1214A52209
:1005B600E5556003020A8D43B440E5B430E5FB53CC
:1005C600B4DF85B70985B60A9000161214631214B3
:1005D600F0AE09AF0A12142F90004DE0FEA3E0FF23
:1005E600C3950AEE9509500DC3E50A9FF50AE5097C
:1005F6009EF509800BC3EF950AF50AEE9509F509F4
:1006060090001C12051FAE09AF0AE4FCFD1203742C
:1006160090001C120537900016E05401FEA3E04E30
:1006260070521214C44017900044E09464503DE0A8
:100636002402F0E0D3946440337464F0802E90007A
:100646000EE07004A3E06401702A90002FE0FF9092
:100656000044E0FED39F4014EE94024004E024FEE2
:10066600F0900044E0C39F50031214D2900044E07F
:10067600FF12209BC3900016E094205003020ABC90
:1006860043BD10E4F0A3F0900045E0041214E99095
:10069600006512148A900049120537900045E0C3A0
:1006A60094084030E41214E978101204E1900049ED
:1006B6001205371214EA90004DEE8FF012035E9089
:1006C600004DE0C313F0A3E013F090004912054378
:1006D60000000000900000E0C394085005E004F01C
:1006E600804090006AE07002A3E070361214DBE0EE
:1006F600FE2402FDE433FCEF1214F650189000318C
:10070600E02402FDE433FCEE1214F6500890006477
:10071600E0900031F0900031E0900064F0E4900049
:1007260000F0E4FFFEFDFC900018121428703690CD
:10073600001C120513EF2488FFEE3413121448121E
:10074600053790002DE07002A3E070197F407E42CD
:100756007D0FFC9000181213E3400A900018120552
:1007660043000F4240900006E0701690001C1205F0
:100776001390003912053790002812054300000037
:1007860001900028121484121425400302093B909C
:10079600002812051390003912148A90001C1214B6
:1007A60028400302093B900006E004F090005F1227
:1007B600148490005F120537900006E0FFFBE4FA10
:1007C600F9F890005F12051312041A900039120509
:1007D600371214B278031204E1900028120537E4A8
:1007E6007F207E4EFDFC900028121428500A9000AF
:1007F6002812054300004E20E47F607EEAFDFC904F
:1008060000281213E3400A9000281205430000EA6C
:10081600601214B29000181213E3403E9000391291
:10082600051F12141F1203811214357F807E387D36
:10083600017C009000651213E340089000427406A4
:10084600F0801DE47F407E9CFDFC9000651213E362
:1008560090004240087409F08006900042740CF043
:1008660090004212146D403B12141F12142550338F
:10087600900043E09410500302094A900042E0D3EE
:10088600940950051214B280111214B29000181275
:1008960013D5400C12140A121500900018120537D1
:1008A60002093B12146A500302094A12141F9000EF
:1008B600391213D540771215091214B21203811298
:1008C60014357F007E127D7A7C00121425505E7FDF
:1008D600807E1A7D067C00900065121428504E908A
:1008E6000043E09410400280387FE07E937D047CD4
:1008F600009000651213E340089000437410F080E6
:100906001B7FF07E497D027C009000651213E39008
:1009160000434005740CF080037408F012146A401A
:100926000C12140A12150090001812053712146AD8
:100936004012E48004E4900006F090005F12054344
:1009460000000000900037E0D394004036E014F039
:1009560012143B1213E35003020A4990003D12059C
:1009660013EF2498FFEE343AFEE43DFDE43CFC90A0
:10097600001C1214284003020A4912143B120537C0
:10098600020A49121476405774FFF5F012035E12FC
:100996001476404B7F007E127D7A7C009000181200
:1009A60013E3400C900010120543000C3500802F15
:1009B60012145D1215091214327F407E547D897C13
:1009C600009000651213E34016121509C374409B8C
:1009D600FF74549AFE748999FDE498FC1214AC12C3
:1009E600145D90001812148A90001C1213E34053F1
:1009F600900069E0FF900031E0D39F400512147625
:100A0600404190006AE07002A3E0700912141F9042
:100A1600003D12053790006AE4F0A304F0786FF603
:100A260090002512146390002C7401F0900043741A
:100A360008F0E490000EF0A3F07884F608F67882C9
:100A4600F608F69000651205430000000090001CB1
:100A56001205430000000090006AE0FEA3E0FFD309
:100A66009400EE9400404F900032E0FCA3E0FDD3EA
:100A7600EF9DEE9C4040E490006AF0A3F0755501AE
:100A8600786FF6786BF62290000EE4F0A304F0E49B
:100A9600F55590000BF0A3F0900002F07FFAFE12DD
:100AA6002985900049120543000000001213EA123E
:060AB600054300000000F2
:010ABC002217
:1020FB00E4F50A90006512054300000000E4F509C1
:10210B0043B440E5B430E5FB53B4DF1214F0AFB683
:10211B00AEB712142F0509E509B480E47F907E0158
:10212B00122985900065120513780B1204E18F09B3
:10213B00E509D3940C400CE509948D5006E50A94FF
:0D214B0014500A050AE50AD3945040A7225B
:012158002264
:1021B60090006512054300000000E4F509E4F50C03
:1021C600F50D43B440E5B430E5FB53B4DF85B70AFB
:1021D60085B60B1214F0AE0AAF0B12142F050DE5DF
:1021E6000D7002050CB400DAE50CB420D543BD1021
:1021F6000509E509B408C6900065120513781012A2
:0A22060004E190004DEEF0A3EFF0AC
:0122100022AB
:10231C00BF0105E4FCFD802E7E007C017DFF1202D6
:10232C00F71C7D64120309AC06AD07E41201C38FE0
:10233C002B8E2A8D298C28AB2BAA2AA929A82812E6
:10234C0014B8AC06AD0790FF907411F075DA0175F6
:0E235C00E30175E2FF8CE58DE475E10F7F0073
:01236A002250
:10282000BF0104E4FE801E7E007C007DFF12149038
:102830008F2B8E2A8D298C28AB2BAA2AA929A82870
:102840001214B8AE0790FF9C7410F075DEFF8EDF97
:0528500075DD947F001E
:012855002260
:02209B008F268E
:10209D007881E6B526037F00227881A626E5267095
:1020AD0006900063048016E526B4640CE49000638A
:1020BD00F090003004F0800B9000637402F0E49017
:1020CD000030F0E526FD7C0090000AE0FF7E001256
:1020DD001490E4FBFAF9783F1214BE8F27C3E5265E
:0D20ED009527FF12231CAF271228207F002B
:0120FA0022C3
:100D6700122B1C120003122AD4122A6012292512F0
:100D77002AEE75BBAA90FEA774FFF053BBF7D2AF5C
:100D87007FC87E001229851214DBF0C2AF120FADA7
:100D97007F6412209BD2AF1220FB90002FE0FF90C0
:100DA7000044F012209B7F2C7E011229851221B668
:100DB70090006512054300000000900036E0D394D0
:100DC700034005E4F0122B3E786DE660237F641242
:100DD7000FA2E4FF120FA2900046121463C3900003
:100DE70047E0942C900046E094014004E4786DF6C7
:100DF700900003E0FF900063E0FD6F600D7F7612C7
:100E07002856900063E0900003F0900041E0FF90C7
:100E17000030E0FD6F600D7F77122856900030E0BC
:100E2700900041F0900001E06401704190002CE0D7
:100E3700B4013AE4900001F090002CF0900025E016
:100E4700FEA3E0FF900034E06E7003A3E06F601D27
:100E5700E48F2D8E2CF52BF52A7F74121EE7900058
:100E670025E0FFA3E0900034CFF0A3EFF0786EE623
:100E7700D394005012786CE6B4010CE4F6786E0651
:100E8700FDFC7FB41227A843BD10E555700B9000F9
:100E970017E0541F7003121123900024E0640160CF
:100EA70003020F6DE556701CF5557556011214D2E5
:100EB700900049120543000000001213EA1205438F
:100EC700000000001205B6D390000FE094009000D8
:100ED7000EE094004033900002E0B4012CE4F0905F
:100EE700000E121464900027E0FFC390000FE09FEC
:100EF70090000EE094004011E4F0A3F0900014E09D
:100F070064016005E4FF12209B1214C4400F78832C
:100F1700E6640118467006F608F61214647870E65F
:100F270064016003020DC118E6FF786B6670030267
:100F37000DC1A60790006AE4F0A304F0E4F508E504
:100F470008C394084003020DC1E50825E02471F8A1
:100F5700E6FA08E6FB4A600A900015E0FD7F711289
:100F67001DE7050880D9E4F556900015E07007FFE6
:100F770012209B020DC1900038E0FF12209BE4F580
:100F8700551214D2900049120543000000001213B5
:0B0F9700EA12054300000000020DC13B
:0B0FA20012209B7F647E001229852234
:03001B000216A228
:1016A200C0E0C0F0C083C082C0D075D000C000C00E
:1016B20001C002C003C004C005C006C007AF54AEDB
:1016C20053AD52AC51EF2401FFE43EFEE43DFDE494
:1016D2003C8F548E538D52F55190000B121463902F
:1016E200000BE0FEA3E0FFE4FCFD7B607AEAF9F880
:1016F200D31204BA500C90000BE4F0A3F090000255
:1017020004F0788506E618700106C37885E694E849
:1017120018E694034012786C760178847600087695
:101722000078827600087601900004121463C39058
:101732000005E094E8900004E094034009E4F0A37B
:10174200F090000104F0D007D006D005D004D003F9
:10175200D002D001D000D0D0D082D083D0F0D0E05F
:011762003254
:030023000224991B
:10249900C0E0C0F0C083C082C0D075D000C000C009
:0D24A90001C002C003C004C005C006C0078A
:0F24B600E59830E00AAF9912244E5398FED2AF4A
:1024C500D007D006D005D004D003D002D001D0006B
:0B24D500D0D0D082D083D0F0D0E03215
:1029FA0053BBF7C280E5BB20E3F6D280C2AF75FDB8
:102A0A00F075FC0F8EFA8FF975FDD275FC2D75FDE8
:052A1A00E175FC1E2225
:1029AD0053BBF7C280E5BB20E3F6D280C2AF8FFBED
:1029BD0075FDF075FC0F8CFA8DF975FDB475FC4B3A
:0729CD0075FDE175FC1E22FF
:101AF4007F0012150F12145312041A78081204E10D
:101B04007D007C2F1229AD7F647E001214531204D1
:101B14001A7D017C2F1229AD1214A59000697D0253
:101B2400122AB99000327D03122AB9A3E0FF7D0482
:101B3400122ABB90002FE0FF7D05122ABB900027DC
:101B4400E0FF7D06122ABB900024E0F4FF7D07121B
:101B54002ABB7870E6FF7D08122ABB900015E0FFCF
:101B64007D09122ABB900014E0FF7D0A122ABB9063
:101B7400000AE0FF7D0B122ABB7F8012150F122A88
:101B8400C27D807C2FE4FF1229AD0D0F1229ADD246
:011B9400AFA1
:011B9500222D
:0413920002670000EE
:10182400120296FFE52E4FFFE52DFEE52CFDE52B7C
:101834008F2E8E2D8D2CF52BFC78081204F48F2E10
:101844008E2D8D2C22AF2DAE2CAD2BAC2A1204E1A3
:10185400AD0722AB07E4FDFC90008EE022AF2DAE75
:101864002CAD2BAC2A0204E1854F83855082E54DD3
:101874009582E54C958322C3E568950AFFE5679553
:1018840009FEC3EF22AC06AD077F0722E475F00121
:10189400020580AF66AE65AD64AC630204E1FEE5AB
:1018A40045FDE544FCE47BFF22E4F51DF51CF51B36
:1018B400F51A22120296AB26AA27A92822AF05AE52
:1018C40004AD0322754B01754C00754D6D22749067
:0818D400250AF9740035092210
:101F5D00EFC39430400CEFD39439500674D02FFF5B
:101F6D008022EFC39441400CEFD394465006EF24EA
:101F7D00C9FF8010EFC39461400AEFD394665004FB
:101F8D00EF24A9FFEF540FC454F0FFEDC39430407C
:101F9D000CEDD39439500674D02DFD801EEDC394F5
:101FAD00414008EDD394465002800CEDC39461403E
:101FBD000AEDD394665004ED24A9FDED540F4207AC
:011FCD0022F1
:062526008B178A188919C9
:10252C001218ADE94A4B7005FFFEFDFC221218ADE6
:10253C00781712189012027D601AE51D2401FFE431
:10254C00351CFEE4351BFDE4351A8F1D8E1C8D1BCE
:0C255C00F51A80DCAF1DAE1CAD1BAC1AE4
:012568002250
:06288C008B3A8A3B893CF7
:102892008B408A418942E94A4B7004FBFAF922E5EE
:1028A2003F153FAE3E7002153E4E600B7840121847
:0D28B20090ED1202C380E8AB3AAA3BA93CAE
:0128BF0022F6
:061519008B1E8A1F8920D1
:10151F008B268A27892885212985222A85232BE94D
:10152F004A4B6008E5234522452170077B007A006E
:10153F00790022D3852A83852B82E5289582E5279A
:10154F0095834019E52B2525F9E52A3524FA8A8359
:10155F008982D3E5289582E52795834032E4F52CDF
:10156F00F52DC3E52D9525E52C9524505BAB29AAC8
:10157F002AA92B852D82852C831218B7852D82855C
:10158F002C831202D5052DE52D70D7052C80D38520
:10159F00242C85252DD3E52D9400E52C940040288F
:1015AF00AB29AA2AA92BE52D24FFFFE52C34FFFE3A
:1015BF008F82F5831218B78F828E831202D5E52D95
:0E15CF00152D70D1152C80CDAB1EAA1FA920A2
:0115DD0022EB
:1028C0008F668E658D648C6378181204E1EF1202B6
:1028D000C37810121897900001EF1202D5780812F1
:1028E0001897900002EF1202D5E566FF900003EF03
:0328F0000202D50C
:10240300E4F52EF52DF52CF52B12027DFFE48F2E2E
:10241300F52DF52CF52BAE2DAD2CAC2B12183D8CD8
:102423002B9000011218248C2B9000021218248C7C
:102433002B900003120296FFE52E4FFFE52DFEE5DC
:0A2443002CFDE52B121842F52BFCCE
:01244D00226C
:062B990090008FE0FF2216
:0C2B5800E490008FF0FDFC7F040227A831
:062B9F0090008CE0FF2213
:08236B008F578B588A59895ADB
:10237300121859B401037F0122AF05AE04AD571201
:102383002B4BAC06E4FD122B4BAC06E55BFD122B8D
:102393004BAC06AD5C122B4BAC06AD07AB58AA5940
:1023A300A95A855B1C855C1D1229561218891227B0
:0323B300A87F01FF
:0123B6002204
:022631008D26F4
:10263300121857B401037F01221218C1122665E450
:10264300FD122665AD07E5267003FD8006AF05AED6
:10265300047D01122B4BAC06AD077F071227A87F21
:012663000175
:0E26640022122B4BAC067D01122B4BAC062232
:021DE700A9074A
:101DE900E4FCF526F52790008EE0B401037F01227B
:101DF9007528557529AAE4F52A752BB2F52C752D88
:101E0900078A2E8B2F8930753101F532753301ED33
:101E19007004F5348003753401E4F537F538742816
:101E29002538F8E62CFC0538E53870020537640DCD
:101E3900453770EA8C3575260075270EE4F537F5B8
:101E490038E5271527AE26700215264E601474282A
:101E59002538F8E6FF12001E0538E53870E3053726
:041E690080DF7F0196
:011E6D002252
:02199400A907A1
:10199600E4FCF526F52790008EE0B401037F0122D2
:1019A6007528557529AAE4F52A752BB2F52C752DDF
:1019B600078A2E8B2F8930753101F532753301ED8B
:1019C6007004F534802EBD01057534018026BD02F4
:1019D60005753402801EBD03057534038016BD04EB
:1019E60005753404800EBD05057534058006BD06F3
:1019F60003753406E4F537F53874282538F8E62CEF
:101A0600FC0538E53870020537640D453770EA8CF9
:101A16003575260075270EE4F537F538E5271527C1
:101A2600AE26700215264E601474282538F8E6FF97
:0F1A360012001E0538E5387002053780DF7F018A
:011A4500227E
:101EE700121857B401037F01221218C1122B4BACF1
:101EF700067D02122B4BAC06E4FD122B4BAC067D84
:101F070004122B4BC006C0077818121849D007D007
:101F170006122B4BC006C0077810121849D007D0FD
:101F270006122B4BC006C007AF2DAE2CAD2BAC2A2B
:101F370078081204E1AD07D007D006122B4BAC0688
:101F4700C007E52DFFE4AD07D007122B4B12188908
:051F57001227A87F0124
:011F5C002262
:021A4600AD07EA
:101A4800E4FBF530F53190008EE0B401037F01220C
:101A5800788676550876AAE408F60876B208F60875
:101A6800760AE52E08F608A62F08A605087602E4E9
:101A780008F608760478181218617892A607781084
:101A88001218617893A607AF2DAE2CAD2BAC2A782F
:101A9800081204E17894A607E52DFFE408A607F5E7
:101AA80032F53374862533F8E62BFB0533E53370BE
:101AB8000205326410453270EA7896A60375300044
:101AC800753111E4F532F533E5311531AE30700278
:101AD80015304E601474862533F8E6FF12001E0593
:0B1AE80033E5337002053280DF7F0120
:011AF30022D0
:0823B7008F5D8B5E8A5F896077
:1023BF00121859B401037F0122AF05AE04AD5D12AF
:1023CF002B4BAC067D03122B4BAC06E561FD122B9C
:1023DF004BAC06AD62122B4BAC06AD07AB5EAA5FE2
:1023EF00A96085611C85621D122956121889122752
:0323FF00A87F01B3
:0124020022B7
:022856008D26CD
:10285800121857B401037F01221218C1122B4BAC76
:10286800067D04122B4BAC06E4FD122B4BAC067D07
:1028780001122B4BAC06AD26122B4B1218891227CE
:03288800A87F0125
:01288B00222A
:02176300AD07D0
:10176500E4F548F54990008EE0B401037F012212AB
:1017750018047D0512181CE4FD12181C74FFFFE502
:10178500461218A2FAF9F8C31204D070097D0112A5
:101795001804AD47803D74FFFF1218A27AFFF9F8CF
:1017A500C31204D070047D0280197D0412181078CC
:1017B500181217EBAF47AE46AD45AC44781012048E
:1017C500E1AD0712181078081217EBE547FFE4ADF5
:1017D50007AF49122B4B8E488F49AD49AC487F075F
:0517E5001227A87F019E
:1017EA0022AF47AE46AD45AC441204E1AD07AF495E
:1017FA00AE48122B4B8E488F4922AF49AE48122B66
:10180A004B8E488F4922AF49AE48122B4B8E488FD8
:0A181A004922122B4B8E488F492201
:082B6F008C268D2712027DFF68
:012B7700223B
:082B78008C268D2712027DFF5F
:012B80002232
:072B81008C298D2A122403A8
:012B8800222A
:10244E008F39D312186C4015E54D9550FFE54C951C
:10245E004FFEC3EF941FEE64809480502DC312186C
:10246E006C500DC3E550954DFFE54F954C4F601ADE
:10247E00C390008C12187240077A00796D1218C83A
:0B248E00784B121890E5391202C322AF
:10112300E4F509F50AF50BF50CC3E5689423E567C7
:1011330094005024122A7EEFD39400401B1226728F
:101143000568E568AC6770020567142490F582743E
:10115300003CF583EFF080D1C3E5689407E567941D
:1011630000500302128312187B9407EE940050037D
:101173000212527490250AF58274003509F583E052
:101183006455600A050AE50A70DC050980D8749184
:10119300250AF58274003509F583E064AA600A051F
:1011A3000AE50A70C1050980BD7492250AF58274A7
:1011B300003509F583E06004740280387494250ACD
:1011C300F58274003509F583E0FE7495250AF582EE
:1011D30074003509F583E07C002400FFEC3ECF2446
:1011E30007F50CE43FF50BD3E50C942AE50B9400CB
:1011F30040097403250AF50AE4804D12187B950C07
:10120300EE950B404A1218D2FA7B01E50C24FFFD40
:10121300E50B34FFFC1229D4E50A250CFDE509355D
:101223000BFC748F2DF58274003CF583E06F60092D
:101233007403250AF50AE4800FAF0AAE09120ABD4A
:10124300E50C250AF50AE50B3509F509021169C311
:10125300E568950AF568E5679509F567D3E5689448
:1012630000E567940040191218D2752101F522890F
:10127300238567248568257B017A007990121519E7
:011283002248
:102B1C001218C8754E01754F0075506D90008C746D
:032B2C00FFF02295
:10139600019B00049700000000602E00D2010103AB
:1013A600020402650466026701680269027101723D
:1013B6000173017402750176047704820483048440
:0B13C600048504860487048804890461
:1025EF0025E02471F8E6FA08E6FB4A22AB1EAA1F83
:1025FF00A920AD22AC212290000AE0FFE48F2DF537
:10260F002CF52BF52A22900025E0FEA3E0FFE48FA6
:10261F002D8E2CF52BF52A22E0FFE4FCFDFEC302E4
:02262F0004D0D5
:0D2B3E00E4FDFC7F041227A8786D760122CB
:102A9C00E4FEEF7004FFFD8006EEFF7E007D011268
:0D2AAC002B4BAE07EEFD7C007FB10227A88A
:03001E00022B644E
:1015DE00900000E0FD7F01122631900015E0FD7FA6
:1015EE007112263190002F1226097F03121EE790EA
:1015FE000069E0FFB4FF05E4F516801EEFB4C805E0
:10160E007516028015EFB42805751603800CEFB41D
:10161E0014057516048003751605AD167F65122820
:10162E00569000321226187F66121EE7900024E0B4
:10163E00FD7F671226319000271226097F68121E41
:10164E00E7E47B107A27F9F89000101205131204C4
:10165E001AC374329F12260A7F69121EE77870E64B
:10166E00FD7F721226311226067F04121EE79000AD
:10167E0014E0FD7F731226311226157F74121EE7B9
:10168E00900063E0FD7F76122856900030E0FD7FDB
:04169E007702285651
:102B0500122B6F900000EFF0FD7F01122631BF01FF
:062B1500037F01227F0096
:012B1B002297
:10203900122B818F278E268D258C2490002FAB277C
:10204900AA26A925A8241226277002FF22E4F5282A
:10205900E5281225EF601585272D85262C85252B4A
:1020690085242A8A2E8B2F7F03121A460528E528F4
:10207900C3940840DBAF2790002FEFF0FE900038A3
:10208900F012260B7F03121EE7BF01037F01227F97
:012099000046
:01209A002223
:10226C00122B818F2490000AE0B524037F0022E416
:10227C00F525E5251225EF6013E485242DF52CF5C5
:10228C002BF52A8A2E8B2F7F04121A460525E5255D
:10229C00C3940840DD90000AE524F0E4FF12209B73
:1022AC00900038E0FF12209B1226067F04121EE7D6
:0822BC00BF01037F01227F0036
:0122C40022F7
:101E6E00122B788F24E524789B667002FF22E4F50E
:101E7E0025E5251225EF6007AD247F65121994051F
:101E8E0025E525C3940840E9E52414601014601577
:101E9E0014601A14601F14602424057028900069C1
:101EAE0074FFF0802090006974C8F080189000696B
:101EBE007428F080109000697414F080089000313E
:101ECE00E0900069F0789BA624AD247F6512285619
:081EDE00BF01037F01227F0018
:011EE60022D9
:101FCE00122B818F278E268D258C24900032E0FED9
:101FDE00A3E0FFE4FCFDAB27AA26A925A824C31283
:101FEE0004D07002FF22E4F528E5281225EF6015D3
:101FFE0085272D85262C85252B85242A8A2E8B2F09
:10200E007F66121A460528E528C3940840DBAE26E3
:10201E00AF27900032EEF0A3EFF012261D7F66126E
:0A202E001EE7BF01037F01227F00BF
:012038002285
:1026B200122B6F8F24900024E0B524037F0022E4C4
:1026C200F525E5251225EF6007AD247F67121DE78A
:1026D2000525E525C3940840E9900024E524F0FD92
:0D26E2007F67122631BF01037F01227F00B8
:0126EF0022C8
:10215900122B818F278E268D258C24900027AB2763
:10216900AA26A925A8241226277002FF22E4F52809
:10217900E5281225EF601585272D85262C85252B29
:1021890085242A8A2E8B2F7F68121A460528E5286E
:10219900C3940840DBAF27900027EFF012260B7F8E
:0C21A90068121EE7BF01037F01227F00C7
:0121B5002207
:101CC900122B818F278E268D258C24789712050754
:101CD900AB27AA26A925A824C31204D07002FF2283
:101CE900E4F528E5281225EF601585272D85262C92
:101CF90085252B85242A8A2E8B2F7F69121A460562
:101D090028E528C3940840DBAF27AE26AD25AC24CF
:101D1900789712052BC374329527FFE49526FEE4C4
:101D29009525FDE49524FCE47B107A27F9F8120344
:101D39008F90001012053778971205078F2D8E2C7A
:101D49008D2B8C2A7F69121EE7BF01037F01227F39
:011D59000089
:011D5A002266
:1022C500122B6F8F24900015E0B524037F0022E4C4
:1022D500F525E5251225EF6007AD247F71121DE771
:1022E5000525E525C3940840E9E524700690001509
:1022F500F08011900024E0B40104786F760190001D
:10230500157401F0900015E0FD7F71122631BF01B3
:06231500037F01227F009E
:01231B00229F
:10256900122B6F8F24E5247870667002FF22E4F540
:1025790025E5251225EF6007AD247F72121DE705B9
:1025890025E525C3940840E97870A624AF24122ACA
:102599009C7870E6FD7F72122631BF01037F01220C
:0225A9007F00B1
:0125AB00220D
:1026F000122B6F8F24900014E0B524037F0022E496
:10270000F525E5251225EF6007AD247F73121DE73F
:102710000525E525C3940840E9900014E524F0FD63
:0D2720007F73122631BF01037F01227F006D
:01272D002289
:1024E000122B6FEF7002FF22E4900025F0A3F0F5AD
:1024F00024E5241225EF601A900025E0FEA3E0FFFA
:10250000E48F2D8E2CF52BF52A8A2E8B2F7F7412BB
:102510001A460524E524C3940840D61226157F7474
:05252000121EE77F011F
:012525002293
:0618DC008B1E8A1F89200B
:1018E200EF120590190E01193003193904194265D6
:1018F200194A66195267195A68196269196A71197F
:101902007272197A731982750000198C1225FB12F2
:101912002B058F23E52364017075900048E004F0E5
:10192200E0C394054069E4F0122B3E02199112259E
:10193200FB1220390219881225FB12226C02198827
:101942001225FB121E6E803E1225FB121FCE803620
:101952001225FB1226B2802E1225FB122159802657
:101962001225FB121CC9801E1225FB1222C58016ED
:101972001225FB122569800E1225FB1226F0800625
:101982001225FB1224E08F238000E4900048F0AF80
:011992002331
:011993002231
:032BA5007F172275
:0F2B2F00386C6D786E6C676700312E302E300079
:0313D100014A00CE
:101C31007494250EF5827400350DF583E07514005A
:101C4100F5137495250EF5827400350DF583E025A5
:101C510014F514E43513F51322350DF583E0F8E49A
:101C610022E026F618E436F6227496250EF58274E3
:101C710000350DF583E02212051378101204E1AD51
:101C8100072212051378081204E1AD07229000B370
:101C91007455F0A374AAF0E4A3F0A3EFF022F58346
:101CA100EFF07B017A0079B32274B92FF974003E09
:101CB100FA7B0122E475F00112058002027D256A9A
:081CC100F56AE43569F56922BA
:101B9600E4FFFE90004DE0C4F854F0C8A3E0C4543E
:101BA6000F48FD122B4B7E00900031E0FD122B4BAF
:101BB6007E00C006C007900018121C78D007D00619
:101BC600122B4B7E00C006C007900018121C83D053
:101BD60007D006122B4B7E00C006C00790002012CD
:101BE6001C78D007D006122B4B7E00C006C007908B
:101BF6000020121C83D007D006122B4B7E00C00695
:101C0600C007900010121C78D007D006122B4B7E0E
:101C160000C006C007900010121C83D007D0061221
:0B1C26002B4BEFFD7C007FC00227A8C5
:082B8900E4FDFC7FC10227A856
:0C2B4B00121CAAED1202C30FBF00010E05
:012B5700225B
:0A2956008E178F188B198A1A891B3F
:10296000121CAA851921851A22851B23851C248502
:102970001D25121519E51D2518F518E51C3517F547
:0429800017FEAF1877
:012984002230
:10276B008B308A3189328C338D34E94A4B602DE5BD
:10277B003445336027E5341534AE33700215334ED0
:10278B00601AAB30AA31A93212027DFF12001E74FF
:0D279B00012532F532E43531F53180D922C7
:0A29D4008B308A3189328C338D3448
:1029DE00E4FFFDFCC3ED9534EC9533500E783012C8
:0B29EE001CB52FFF0DBD00010C80E99F
:0129F90022BB
:0427A8008C2E8D2FB7
:1027AC00121C8EE52EA3F0E52FA3F02407F52FE4E1
:1027BC00352EF52E121CA3E52F24FFFDE52E34FF3C
:1027CC00FC1229D474B2252FF5827400352E121CFC
:0827DC009FAD2FAC2E02276B0C
:0425AC008C698D6A3F
:1025B0007402121CBF121C8EE569A3F0E56AA3F039
:1025C000A374FFF0A3F07407121CBF121CA3E56AEA
:1025D00024FFFDE56934FFFC1229D474B2256AF5A5
:0F25E0008274003569121C9FAD6AAC6902276BCB
:102A4000E4FFE54A700AFEFD122B4B754A01800730
:102A50007E007D01122B4BEFFD7C00E4FF0227A8D6
:1027E400E4F5167A2B792F1228107A2B792F1229D7
:1027F400568F167A2B79381228107A2B79381229A9
:0C280400568F16EFFD7C007F010227A814
:102810007BFF1225268E1C8F1DAF167E007BFF22AC
:082B9100E4FDFC7F020227A80D
:022A1F008F1D09
:102A2100122BA5E4FEEEC39F501275F002EE90004A
:0E2A3100D2120574E0651D60030E80E9AF0649
:012A3F002274
:062211008B168A178918E4
:1022170012027DF519900001120296F51A9000023C
:10222700120296751C00F51B900003120296251CDE
:10223700F51CE4351BF51BAF19122A1F75F002EFC9
:102247009000D3120574E0651A60037F0022AB1675
:10225700E5182404F9E43517FA851B21851C22AFFC
:04226700191218DC54
:01226B002250
:040ABD008E0D8F0EFD
:100AC10074932FF58274003EF583E0FF1205900BBD
:100AD10015000B18010B1B020B1E030B38040B3FF7
:100AE100060D63080AF5B10BB5B40B0FC00B12C1AB
:100AF10000000D66121C6A700E7D017F7212263194
:100B0100E4FDFC7FB4802DE4FD7F72022631021BDF
:100B110096022B89022A400227E4022B91121C6AB9
:100B2100FF90008CF0BF0207E4786DF6121AF4E42E
:100B3100FDFC7F030227A890008F7401F022121C94
:100B410031E4F511F512C3E5129514E51195134041
:100B510003020D66E50E2512FDE50D3511FC7498B5
:100B61002DF58274003CF583E0751000F50F749942
:100B71002DF58274003CF583E02510F510E4350F66
:100B8100F50F7496250EF97400350DFA7B01E925F0
:100B910012F9EA3511FA122211BF0103121AF4E512
:100BA100102404FFE4350FFEEF2512F512EE351186
:100BB100F5118092121C31121C6AF5157497250EDD
:100BC100F5827400121C5A7972F7E819F7749825A6
:100BD1000EF5827400350DF5837872121C627499DA
:100BE100250EF5827400121C5A7974F7E819F7740E
:100BF1009A250EF5827400350DF5837874121C6206
:100C0100749B250EF5827400121C5A7976F7E81947
:100C1100F7749C250EF5827400350DF583E0787626
:100C2100121C63749D250EF5827400121C5A79788A
:100C3100F7E819F7749E250EF5827400350DF583DA
:100C4100E07878121C63749F250EF5827400121CE3
:100C51005A797AF7E819F774A0250EF582740035F0
:100C61000DF583E0787A121C6374A1250EF5827468
:100C710000121C5A797CF7E819F774A2250EF58247
:100C81007400350DF583E0787C121C6374A3250E86
:100C9100F5827400121C5A797EF7E819F774A425BD
:100CA1000EF5827400350DF583E0787E121C6374B5
:100CB100A5250EF5827400121C5A7980F7E819F700
:100CC10074A6250EF5827400350DF583E078801247
:100CD1001C637872E6184660047D018002E4FD7FA2
:100CE100821228567874E6184660047D018002E479
:100CF100FD7F831228567876E6184660047D0180D0
:100D010002E4FD7F841228567878E6184660047D57
:100D1100018002E4FD7F85122856787AE618466044
:100D2100047D018002E4FD7F86122856787CE61856
:100D31004660047D018002E4FD7F87122856787E9B
:100D4100E6184660047D018002E4FD7F8812285682
:100D51007880E6184660047D018002E4FD7F890207
:050D610028561215DE0A
:010D6600226A
:102A7E00E54E854F83855082654B700AE54D658224
:0E2A8E007004E54C658360037F01227F002207
:10267200AB4EAA4FA950E54B854C83854D82654EE2
:10268200700AE55065827004E54F65836021C3904E
:10269200008CE5509582E54F9583400D7A00796D67
:0F26A200754E01754F0075506D784E121CB5FFC7
:0126B1002206
:10002600020268E86480F8E933E83360110460F09E
:10003600ED33EC337009E8FCE9FDEAFEEBFF220440
:1000460060DED3EB9FEA9EE99DE8C2E78CF0C2F73B
:1000560095F0400CE8CCF8E9CDF9EACEFAEBCFFB07
:1000660012023385D0F05804700320D5B3E804702B
:10007600075002B2D502027292D5EC0460F7E4CCC6
:10008600C0E0C398F8603B94186008400DD0E0FBD0
:1000960002024AE4FBFAC9FC8028E830E406E4C917
:1000A600FBE4CAFCE830E305E4C9CACBFCE8540724
:1000B6006010F8C3E913F9EA13FAEB13FBEC13FC2F
:1000C600D8F130F52FC3E49CFCEF9BFFEE9AFEEDD2
:1000D60099FDD0E0FBEF4E4D4C701222DB0302027D
:1000E6006FEC2CFCEF33FFEE33FEED33FDED30E726
:1000F600EB02024AEF2BFFEE3AFEED39FDD0E0FBB4
:1001060050130BBB0003020272ED13FDEE13FEEF5C
:0801160013FFEC13FC02024A86
:10011E00020272EC5D046005E85904700302026885
:10012E00120233580460F6EC4860F2EC7004FDFEE7
:10013E00FF22C860DB2481C85009C39860025006B4
:10014E0002026F9850CAF582E9294B4A7005AB82BC
:10015E0002025E75F0007C1A7880C3EF9BEE9AED7A
:10016E0099400DC3EF9BFFEE9AFEED99FDE842F02C
:10017E00DC23ACF0D0E0FFD0E0FED0E0FDAB82207F
:10018E00E7101BEB60BAEC2CFCEF33FFEE33FEED09
:10019E0033FD02024AE803F830E705C0F075F000BF
:1001AE00EF2FFFEE33FEED33FD40B830E7C280AAED
:1001BE0075F020800E75F010800575F0087D007EBC
:1001CE00007F003392D530D5031204ACEC334010CF
:1001DE00EF33FFEE33FEED33FDEC33FCD5F0ED22C5
:0E01EE00E5F0247EA2D513CC92E7CDCEFF2201
:1001FC00EDD2E7CD33EC3392D524814006E4FFFEFB
:10020C00FDFC22FCE4CFCECDCC24E0501174FF8059
:10021C00EDC3CC13CCCD13CDCE13CECF13CF0470F6
:07022C00F030D5DE0204AC46
:10023300E9D2E7C933E833F892D5EDD2E7CD33EC11
:0702430033FC5002B2D5228A
:10024A00EC30E7100FBF000C0EBE00080DBD000415
:10025A000BEB6014A2D5EB13FCED92E7FD2274FFC1
:10026A00FCFDFEFF22E480F8A2D574FF13FC7D801A
:03027A00E480EF2E
:101D6700020D67E493A3F8E493A34003F68001F21E
:101D770008DFF48029E493A3F85407240CC8C3337D
:101D8700C4540F4420C8834004F456800146F6DF4C
:101D9700E4800B0102040810204080901284E47E46
:101DA700019360BCA3FF543F30E509541FFEE49341
:101DB700A360010ECF54C025E060A840B8E493A308
:101DC700FAE493A3F8E493A3C8C582C8CAC583CA33
:101DD700F0A3C8C582C8CAC583CADFE9DEE780BEEB
:0113D4000018
:10027D00BB010689828A83E0225002E722BBFE027F
:09028D00E32289828A83E49322B2
:10029600BB010CE58229F582E5833AF583E022501D
:1002A60006E92582F8E622BBFE06E92582F8E22267
:0D02B600E58229F582E5833AF583E4932281
:1002C300BB010689828A83F0225002F722BBFE011A
:0202D300F32214
:1002D500F8BB010DE58229F582E5833AF583E8F05F
:1002E500225006E92582C8F622BBFE05E92582C80B
:0202F500F222F3
:1002F700EF8DF0A4A8F0CF8CF0A428CE8DF0A42E1B
:02030700FE22D4
:10030900BC000BBE0029EF8DF084FFADF022E4CCD8
:10031900F875F008EF2FFFEE33FEEC33FCEE9DECA1
:10032900984005FCEE9DFE0FD5F0E9E4CEFD22EDE7
:10033900F8F5F0EE8420D21CFEADF075F008EF2F31
:10034900FFED33FD4007985006D5F0F222C398FD22
:050359000FD5F0EA22BF
:10035E00C5F0F8A3E028F0C5F0F8E582158270022A
:06036E001583E038F022C7
:0D037400EF2BFFEE3AFEED39FDEC38FC22D8
:0E038100C3EF9BFFEE9AFEED99FDEC98FC2277
:10038F00E88FF0A4CC8BF0A42CFCE98EF0A42CFC0D
:10039F008AF0EDA42CFCEA8EF0A4CDA8F08BF0A48B
:1003AF002DCC3825F0FDE98FF0A42CCD35F0FCEBEA
:1003BF008EF0A4FEA9F0EB8FF0A4CFC5F02ECD39AF
:0F03CF00FEE43CFCEAA42DCE35F0FDE43CFC221C
:1003DE0075F008758200EF2FFFEE33FECD33CDCCD6
:1003EE0033CCC58233C5829BED9AEC99E582984059
:1003FE000CF582EE9BFEED9AFDEC99FC0FD5F0D636
:10040E00E4CEFBE4CDFAE4CCF9A88222B800C1B95F
:10041E000059BA002DEC8BF084CFCECDFCE5F0CB9D
:10042E00F97818EF2FFFEE33FEED33FDEC33FCEBD6
:10043E0033FB10D703994004EB99FB0FD8E5E4F991
:10044E00FA227818EF2FFFEE33FEED33FDEC33FC7E
:10045E00C933C910D7059BE99A4007EC9BFCE99A72
:10046E00F90FD8E0E4C9FAE4CCFB2275F010EF2FB7
:10047E00FFEE33FEED33FDCC33CCC833C810D707B7
:10048E009BEC9AE899400AED9BFDEC9AFCE899F8F2
:0E049E000FD5F0DAE4CDFBE4CCFAE4C8F92285
:0E04AC00C3E49FFFE49EFEE49DFDE49CFC2261
:1004BA00EB9FF5F0EA9E42F0E99D42F0EC6480C8B9
:0604CA0064809845F02259
:1004D000EB9FF5F0EA9E42F0E99D42F0E89C45F082
:0104E00022F9
:1004E100E8600FECC313FCED13FDEE13FEEF13FFF9
:0304F100D8F1221D
:1004F400E8600FEFC333FFEE33FEED33FDEC33FC66
:03050400D8F12209
:0C050700E6FC08E6FD08E6FE08E6FF2220
:0C051300E0FCA3E0FDA3E0FEA3E0FF225B
:0C051F00E0F8A3E0F9A3E0FAA3E0FB225F
:0C052B00ECF608EDF608EEF608EFF622FC
:0C053700ECF0A3EDF0A3EEF0A3EFF02237
:10054300A8828583F0D083D08212055A12055A12ED
:10055300055A12055AE473E493A3C583C5F0C58312
:10056300C8C582C8F0A3C583C5F0C583C8C582C802
:010573002265
:0C057400A42582F582E5F03583F5832292
:10058000FAE6FB0808E6F925F0F618E6CA3AF6227C
:10059000D083D082F8E4937012740193700DA3A3FA
:1005A00093F8740193F5828883E47374029368600E
:0605B000EFA3A3A380DF0E
:00000001FF
