:03000000021C528D
:0C1C5200787FE4F6D8FD758185021C99AE
:1013AE00045000000000410006004100420C4100C4
:1013BE0043404400390000000044001800000000C3
:1013CE0044001C0000000044005F000000004400C8
:1013DE0049000000004400650000000042002D009E
:1013EE0001420016000041000D004100370042008E
:1013FE006A000042000E0000410000084100450056
:10140E000154000155004100150041002401410026
:10141E002F0A410048004100440A410036004100B5
:10142E00380042000B000041000200027F00000263
:10143E007D0000106C0000000000000000000000A5
:10144E000000000000016B00016A0001680041000D
:10145E000A0041000700410014004200250000422E
:10146E00003400004100630041000300420004000C
:10147E00004100010041002C0041003000410041BC
:10148E0000017C00016900420046000050004F0040
:10149E0000000000000000000000000000000042FC
:0414AE000008000032
:10126400EF24A0FFEE340FFEE43DFDE43CFC120548
:101274001FD30204D0E4900045F09000437440F082
:101284009000377402F09000007406F0E4900006B9
:10129400F090005F22900018120513900039120597
:1012A4001F120374900018120537900018020513DA
:1012B40090003912051FC30204D0E4FCFD1203742C
:1012C40090006502053790003D120513EF2470FF6E
:1012D400EE3417FEE43DFDE43CFC90001822122A93
:1012E400F1E47BE87A03F9F8900010020513E47541
:1012F400F00102035E900043E0FF900006E0C39F0C
:1013040022D390002EE0940090002DE0940022124D
:10131400051390001C12051F0203741202F7AC0699
:10132400AD07E41201C3E4FBFA79C8784202012153
:101334007F647E00022AF190001002053790003984
:10134400020513E4FFFEFD7C3F12002D0201FCD3D5
:1013540090006BE0940090006AE094002290002FCB
:10136400E0900044F0227F0A122721900031EFF030
:1013740090006422F0900049020513900065020574
:101384001FD39DEC6480F87480982290001C0205A1
:1013940013E47B02FAF9F802041A90001802051FFC
:0A13A4007E2F122A297F107E2722D7
:102922008E098F0A8B0B8A0C890DAF051DEF602172
:10293200050AE50AAE097002050914F5828E83E4E0
:1029420093FF780BE475F001120580EF1202C38049
:02295200D92288
:1029B4008F828E83E4F553F552F551F550AF82AE14
:1029C40083E4FCFDAB53AA52A951A850C31204D00E
:0829D400500543BD1080E6220E
:092AE800E0FF7C2F1229DC7F6461
:102AF100E4FDFCC3ED9FEC9E50070DBD00010C8071
:012B0100F2E1
:012B020022B0
:10000300758E5190FE917401F0A37410F075BD5F6D
:0700130090FEA07420F02212
:102A8F00E490FE80F0758901758DFA758BCB43A8A4
:0E2A9F0008438840758CCB758AEB4388102263
:1029540090FF10E054F04408F090FF02E054F0447B
:1029640002F0D28490FFA07420F0A37404F075CC1C
:102974000675CEFF75CD98759E0275981043A81004
:012984002230
:102B1D0043B40343B4807F147E00122AF175B501CE
:072B2D0090FE9B744BF022A7
:102B030090FF08E04488F090FF00E0540F4430F059
:0A2B130090FF11E054F04403F0229B
:0B2B93008F99E59830E1FB5398FD227C
:102721008FB543B440E5B430E5FB53B4DF12133445
:10273100E4FBFAF943B440E5B430E5FB53B4DFE51B
:10274100B62BFBE5B73AFA7F147E00122AF109B9DC
:0C27510010E275B501A902121334AF01AB
:01275D002259
:100F8D007B017A00794F7D107F007E2F12292290F0
:100F9D00004FE0FFE4FCFDFE12133B1212EC78084B
:100FAD001204F412133B90001012051F900050E034
:100FBD00FFE4FCFDFE12037412133B1212ECE47BF2
:100FCD00E87A03F9F812038F12133BE47F307E7534
:100FDD00FDFC9000101212B740107F007E097D3D80
:100FED007C00900010121272400A900010120543FE
:100FFD0000009C40900051E0900069F07002800765
:10100D00900069E0B4FE0374FFF0900052E0FF9091
:10101D000032E4F0A3EFF0E0F8E4F0E8900032F0F5
:10102D00900053E0FF900032E48FF012035E9000C9
:10103D0032E0FEA3E0FF4E6009D3EF9408EE940773
:10104D004009900032E4F0A37405F0900054E09054
:10105D00002FF0900038F0900055E0900027F060E0
:10106D0006E0D394FF40069000277401F0900056DF
:10107D00E0F45401900024F0900057E05401786B97
:10108D00F6A3E05401900015F0900059E054019042
:10109D000014F090005AE090000AF07B017A00797C
:1010AD00087D027F807E2F122922900008E090009B
:1010BD0036F0900009E0900007F07F807E2F122A15
:1010CD00297F107E27122AF1900036E004F0E0FF10
:1010DD007D807C2F1229DC121334900007E0700301
:1010ED00022B6D900007E0FFB4010A7D817C2F1269
:0610FD0029DC121334226D
:1005B600E5546003020A9043B440E5B430E5FB53CA
:1005C600B4DF85B70985B60A9000161212F2121327
:1005D6007FAE09AF0A1212BE90004DE0FEA3E0FF07
:1005E600C3950AEE9509500DC3E50A9FF50AE5097C
:1005F6009EF509800BC3EF950AF50AEE9509F509F4
:1006060090001C12051FAE09AF0AE4FCFD1203742C
:1006160090001C120537900016E05401FEA3E04E30
:1006260070521213534017900044E09464503DE01A
:100636002402F0E0D3946440337464F0802E90007A
:100646000EE07004A3E06401702A90002FE0FF9092
:100656000044E0FED39F4014EE94024004E024FEE2
:10066600F0900044E0C39F5003121361900044E0F1
:10067600FF122094C3900016E094205003020ABF94
:1006860043BD10E4F0A3F0900045E0041213789007
:100696000065121319900049120537900045E0C312
:1006A60094084030E412137878101204E19000495F
:1006B60012053712137990004DEE8FF012035E90FB
:1006C600004DE0C313F0A3E013F090004912054378
:1006D60000000000900000E0C394085005E004F01C
:1006E600804090006AE07002A3E0703612136AE060
:1006F600FE2402FDE433FCEF1213855018900031FE
:10070600E02402FDE433FCEE1213855008900064E9
:10071600E0900031F0900031E0900064F0E4900049
:1007260000F0E4FFFEFDFC9000181212B7703312C1
:10073600138FEF2488FFEE34131212D71205379069
:10074600002DE07002A3E070197F407E427D0FFC11
:10075600900018121272400A900018120543000FFA
:100766004240900006E0701312138F900039120574
:10077600379000281205430000000190002812134C
:10078600131212B440030209359000281205139083
:10079600003912131990001C1212B74003020935D2
:1007A600900006E004F090005F12131390005F12B1
:1007B6000537900006E0FFFBE4FAF9F890005F12B7
:1007C600051312041A9000391205371213417803E3
:1007D6001204E1900028120537E47F207E4EFDFCCE
:1007E6009000281212B7500A900028120543000004
:1007F6004E20E47F607EEAFDFC90002812127240D3
:100806000A9000281205430000EA60121341900086
:1008160018121272403E90003912051F1212AE12C3
:1008260003811212C47F807E387D017C00900065B2
:1008360012127240089000427406F0801DE47F4058
:100846007E9CFDFC90006512127290004240087476
:1008560009F08006900042740CF09000421212FCDF
:10086600403B1212AE1212B45033900043E0941083
:100876005003020944900042E0D394095005121334
:10088600418011121341900018121264400C12128A
:10089600991213959000181205370209351212F9AC
:1008A60050030209441212AE9000391212644077C6
:1008B60012139E1213411203811212C47F007E127C
:1008C6007D7A7C001212B4505E7F807E1A7D067C93
:1008D600009000651212B7504E900043E09410400D
:1008E6000280387FE07E937D047C009000651212C2
:1008F6007240089000437410F0801B7FF07E497DA3
:10090600027C009000651212729000434005740C40
:10091600F080037408F01212F9400C1212991213A7
:10092600959000181205371212F94012E48004E47B
:10093600900006F090005F12054300000000900052
:1009460037E0D394004036E014F01212CA12127245
:100956005003020A4390003D120513EF2498FFEE60
:10096600343AFEE43DFDE43CFC90001C1212B74014
:1009760003020A431212CA120537020A431213056A
:10098600405774FFF5F012035E121305404B7F00CB
:100996007E127D7A7C00900018121272400C900034
:1009A60010120543000C3500802F1212EC12139E14
:1009B6001212C17F407E547D897C00900065121220
:1009C60072401612139EC374409BFF74549AFE74B1
:1009D6008999FDE498FC12133B1212EC9000181250
:1009E600131990001C1212724053900069E0FF9098
:1009F6000031E0D39F4005121305404190006AE0A4
:100A06007002A3E070091212AE90003D12053790F5
:100A1600006AE4F0A304F0786AF69000251212F258
:100A260090002C7401F09000437408F0E490000EDE
:100A3600F0A3F0787FF608F6787DF608F612138FA5
:100A46009000201205379000651205430000000053
:100A560090001C1205430000000090006AE0FEA30F
:100A6600E0FFD39400EE9400404F900032E0FCA3E8
:100A7600E0FDD3EF9DEE9C4040E490006AF0A3F0C9
:100A8600755401786AF67868F62290000EE4F0A3B1
:100A960004F0E4F55490000BF0A3F0900002F07F10
:100AA600FAFE1229B4900049120543000000001214
:090AB60012791205430000000052
:010ABF002214
:10215400E4F50A90006512054300000000E4F50967
:1021640043B440E5B430E5FB53B4DF12137FAFB69C
:10217400AEB71212BE0509E509B480E47F907E0172
:102184001229B4900065120513780B1204E18F092B
:10219400E509D3940C400CE509948D5006E50A94A6
:0D21A40014500A050AE50AD3945040A72202
:0121B100220B
:1021B20090006512054300000000E4F509E4F50C07
:1021C200F50D43B440E5B430E5FB53B4DF85B70AFF
:1021D20085B60B12137FAE0AAF0B1212BE050DE5C8
:1021E2000D7002050CB400DAE50CB420D543BD1025
:1021F2000509E509B408C6900065120513781012A6
:0A22020004E190004DEEF0A3EFF0B0
:01220C0022AF
:1023C200BF0105E4FCFD802E7E007C017DFF120230
:1023D200F71C7D64120309AC06AD07E41201C38F3A
:1023E2002B8E2A8D298C28AB2BAA2AA929A8281240
:1023F2001347AC06AD0790FF907411F075DA0175C2
:0E240200E30175E2FF8CE58DE475E10F7F00CC
:0124100022A9
:10284F00BF0104E4FE801E7E007C007DFF12131F7B
:10285F008F2B8E2A8D298C28AB2BAA2AA929A82841
:10286F00121347AE0790FF9C7410F075DEFF8EDFDA
:05287F0075DD947F00EF
:012884002231
:022094008F2695
:10209600787CE6B526037F0022787CA626E52670A6
:1020A60006900063048016E526B4640CE490006391
:1020B600F090003004F0800B9000637402F0E4901E
:1020C6000030F0E526FD7C0090000AE0FF7E00125D
:1020D600131FE4FBFAF9783F12134D8F27C3E52649
:0D20E6009527FF1223C2AF2712284F7F005D
:0120F30022CA
:100D6100122B4B120003122B03122A8F1229541239
:100D71002B1D75BBAA90FEA774FFF053BBF7D2AF32
:100D81007FC87E001229B412136AF0C2AF120F8D10
:100D91007F64122094D2AF12215490002FE0FF9073
:100DA1000044F01220947F2C7E011229B41221B24A
:100DB10090006512054300000000900036E0D394D6
:100DC100034005E4F0122B6D7869E660237F64121D
:100DD1000F82E4FF120F829000461212F2C39000BC
:100DE10047E0942C900046E094014004E47869F6D1
:100DF100900003E0FF900063E0FD6F600D7F7612CD
:100E01002885900063E0900003F0900041E0FF909E
:100E11000030E0FD6F600D7F77122885900030E093
:100E2100900041F0900001E06401704190002CE0DD
:100E3100B4013AE4900001F090002CF0900025E01C
:100E4100FEA3E0FF900034E06E7003A3E06F601D2D
:100E5100E48F2D8E2CF52BF52A7F74121ED2900073
:100E610025E0FFA3E0900034CFF0A3EFF043BD10E5
:100E7100E554700B900017E0541F7003121103909A
:100E81000024E064016003020F4DE555701CF55428
:100E910075550112136190004912054300000000CD
:100EA100121279120543000000001205B6D390001A
:100EB1000FE0940090000EE094004033900002E0B7
:100EC100B4012CE4F090000E1212F3900027E0FF21
:100ED100C390000FE09F90000EE094004011E4F0F9
:100EE100A3F0900014E064016005E4FF1220941265
:100EF1001353400F787EE6640118467006F608F633
:100F01001212F3786BE664016003020DBB18E6FF71
:100F11007868667003020DBBA60790006AE4F0A32F
:100F210004F0E4F508E508C394084003020DBBE5AD
:100F31000825E0246CF8E6FA08E6FB4A600A90000E
:100F410015E0FD7F71121CDE050880D9E4F555908E
:100F51000015E07007FF122094020DBB900038E0ED
:100F6100FF122094E4F554121361900049120543D5
:100F71000000000012127912054300000000020D6A
:010F8100BBB4
:0B0F82001220947F647E001229B4222C
:03001B0002185F69
:10185F00C0E0C0F0C083C082C0D075D000C000C04F
:10186F0001C002C003C004C005C006C007AF53AE1D
:10187F0052AD51AC50EF2401FFE43EFEE43DFDE4D8
:10188F003C8F538E528D51F55090000B1212F290E7
:10189F00000BE0FEA3E0FFE4FCFD7B607AEAF9F8C1
:1018AF00D31204BA500C90000BE4F0A3F090000296
:1018BF0004F0788006E618700106C37880E694E895
:1018CF0018E69403400C7600087600787D760008C1
:1018DF0076019000041212F2C3900005E094E89094
:1018EF000004E094034009E4F0A3F090000104F039
:1018FF00D007D006D005D004D003D002D001D0003D
:0B190F00D0D0D082D083D0F0D0E032E6
:0300230002258D26
:10258D00C0E0C0F0C083C082C0D075D000C000C014
:0D259D0001C002C003C004C005C006C00795
:0F25AA00E59830E00AAF991225425398FED2AF60
:1025B900D007D006D005D004D003D002D001D00076
:0B25C900D0D0D082D083D0F0D0E03220
:102A290053BBF7C280E5BB20E3F6D280C2AF75FD88
:102A3900F075FC0F8EFA8FF975FDD275FC2D75FDB9
:052A4900E175FC1E22F6
:1029DC0053BBF7C280E5BB20E3F6D280C2AF8FFBBE
:1029EC0075FDF075FC0F8CFA8DF975FDB475FC4B0B
:0729FC0075FDE175FC1E22D0
:101A85007F001213A41212E212041A78081204E15C
:101A95007D007C2F1229DC7F647E001212E2120485
:101AA5001A7D017C2F1229DC1213349000697D0206
:101AB500122AE89000327D03122AE8A3E0FF7D0494
:101AC500122AEA90002FE0FF7D05122AEA900027EE
:101AD500E0FF7D06122AEA900024E0F4FF7D07125C
:101AE5002AEA786BE6FF7D08122AEA900015E0FFE6
:101AF5007D09122AEA900014E0FF7D0A122AEA9075
:101B0500000AE0FF7D0B122AEA7F801213A4122A35
:101B1500F17D807C2FE4FF1229DC0D0F1229DCD228
:011B2500AF10
:011B2600229C
:0414B20002660000CE
:10160B00120296FFE52E4FFFE52DFEE52CFDE52B97
:10161B008F2E8E2D8D2CF52BFC78081204F48F2E2B
:10162B008E2D8D2C22AF2DAE2CAD2BAC2A1204E1BE
:10163B00AD0722AF2DAE2CAD2BAC2A1204E1AD07BA
:10164B0022AB07E4FDFC90008DE02274B22FF582F3
:10165B0074003EF583E022854E83854F82E54C95E1
:10166B0082E54B958322C3E567950AFFE5669509ED
:10167B00FEC3EF22AC06AD077F0722E475F0010233
:10168B000580AF65AE64AD63AC620204E1FEE54478
:10169B00FDE543FCE47BFF22E4F51DF51CF51BF592
:1016AB001A22120296AB26AA27A92822AF05AE044E
:1016BB00AD0322AC06AD077FB222754A01754B0014
:0E16CB00754C6C22748F250AF97400350922C3
:101FBA00EFC39430400CEFD39439500674D02FFFFE
:101FCA008022EFC39441400CEFD394465006EF248D
:101FDA00C9FF8010EFC39461400AEFD3946650049E
:101FEA00EF24A9FFEF540FC454F0FFEDC39430401F
:101FFA000CEDD39439500674D02DFD801EEDC39498
:10200A00414008EDD394465002800CEDC3946140E0
:10201A000AEDD394665004ED24A9FDED540F42074E
:01202A002293
:06261B008B178A188919D3
:102621001216A3E94A4B7005FFFEFDFC221216A308
:10263100781712168612027D601AE51D2401FFE447
:10264100351CFEE4351BFDE4351A8F1D8E1C8D1BD8
:0C265100F51A80DCAF1DAE1CAD1BAC1AEE
:01265D00225A
:0628BB008B398A3A893BCB
:1028C1008B3F8A408941E94A4B7004FBFAF922E5C2
:1028D1003E153EAE3D7002153D4E600B783F12161F
:0D28E10086ED1202C380E8AB39AA3AA93B8C
:0128EE0022C7
:0616D9008B1E8A1F892010
:1016DF008B268A27892885212985222A85232BE98C
:1016EF004A4B6008E5234522452170077B007A00AD
:1016FF00790022D3852A83852B82E5289582E527D9
:10170F0095834019E52B2525F9E52A3524FA8A8397
:10171F008982D3E5289582E52795834032E4F52C1D
:10172F00F52DC3E52D9525E52C9524505BAB29AA06
:10173F002AA92B852D82852C831216AD852D8285A6
:10174F002C831202D5052DE52D70D7052C80D3855E
:10175F00242C85252DD3E52D9400E52C94004028CD
:10176F00AB29AA2AA92BE52D24FFFFE52C34FFFE78
:10177F008F82F5831216AD8F828E831202D5E52DDF
:0E178F00152D70D1152C80CDAB1EAA1FA920E0
:01179D002229
:1028EF008F658E648D638C6278181204E1EF12028B
:1028FF00C3781012168D900001EF1202D5780812CE
:10290F00168D900002EF1202D5E565FF900003EFE0
:03291F000202D5DC
:1024F700E4F52EF52DF52CF52B12027DFFE48F2E3A
:10250700F52DF52CF52BAE2DAD2CAC2B1216248CFE
:102517002B90000112160B8C2B90000212160B8CBD
:102527002B900003120296FFE52E4FFFE52DFEE5E7
:0A2537002CFDE52B121629F52BFCF4
:012541002277
:062BC80090008EE0FF22E8
:0C2B8700E490008EF0FDFC7F0402236F40
:062BCE0090008BE0FF22E5
:08245F008F568B578A588959EA
:1024670012164EB401037F0122AF05AE04AD56121A
:102477002B7AAC06E4FD122B7AAC06E55AFD122B3B
:102487007AAC06AD5B122B7AAC06AD07AB57AA58F0
:10249700A959855A1C855B1D12298512167F12239F
:0324A7006F7F0143
:0124AA00220F
:0226A0008D2685
:1026A20012164CB401037F01221216B71226D4E48B
:1026B200FD1226D4AD07E5267003FD8006AF05AEF8
:1026C200047D01122B7AAC06AD077F0712236F7FC0
:0126D2000106
:0E26D30022122B7AAC067D01122B7AAC062265
:021CDE00A90754
:101CE000E4FCF509F50A90008DE0B401037F0122C0
:101CF000750B55750CAAE4F50D750EB2F50F751040
:101D0000078A118B128913751401F515751601EDEB
:101D10007004F5178003751701E4F51AF51B740BB1
:101D2000251BF8E62CFC051BE51B7002051A640D4B
:101D3000451A70EA8C18750900750A0EE4F51AF553
:101D40001BE50A150AAE09700215094E6014740BE2
:101D5000251BF8E6FF12001E051BE51B70E3051AA4
:041D600080DF7F01A0
:011D6400225C
:081D65008F268D278A288B29A7
:101D6D00E4FDFCF52A90008DE0B401037F0122AF64
:101D7D0005AE04E528FD122B7AAC06AD29122B7A9F
:101D8D00AC06AD26121DD7E4FD121DD7AD07E52714
:101D9D007003FD8006AF05AE047D01122B7AAC06F3
:101DAD00AD077F087E00121656252AF52A0FBF00B3
:101DBD00010EEF640D4E70EEAF05AE04AD2A122B81
:091DCD007A1216BE12236F7F0189
:0E1DD60022122B7AAC067D01122B7AAC06226B
:081DE4008F268D278A288B2928
:101DEC00E4FDFCF52A90008DE0B401037F0122AFE5
:101DFC0005AE04E528FD122B7AAD29121E53AD2633
:101E0C00122B7A7D04121E53E4FD122B7AAC067D44
:101E1C0001122B7AAC06AD27122B7AAC06AD077FDC
:101E2C00087E00121656252AF52A0FBF00010EEF68
:101E3C00640D4E70EEAF05AE04AD2A122B7A12165D
:061E4C00BE12236F7F01AE
:091E520022AC06122B7AAC062228
:101ED20012164CB401037F01221216B7122B7AACF0
:101EE200067D02122B7AAC06E4FD122B7AAC067D3B
:101EF20004122B7AC006C0077818121630D007D009
:101F020006122B7AC006C0077810121630D007D0FE
:101F120006122B7AC006C007AF2DAE2CAD2BAC2A11
:101F220078081204E1AD07D007D006122B7AAC066E
:101F3200C007E52DFFE4AD07D007122B7A12167FFA
:051F420012236F7F0176
:011F47002277
:0219D2008F295B
:1019D400E4FDFCF53090008DE0B401037F0122AFFB
:1019E40005AE04E52EFD122B7AAC06AD2F122B7A30
:1019F400AC06AD29122B7AAC067D02122B7AAC060A
:101A0400E4FD122B7AAC067D04122B7AC006C007C3
:101A1400781812163ED007D006122B7AC006C007DB
:101A2400781012163ED007D006122B7AC006C007D3
:101A3400AF2DAE2CAD2BAC2A78081204E1AD07D043
:101A440007D006122B7AAC06C007E52DFFE4AD07DC
:101A5400D007122B7AAC06AD077F087E001216560B
:101A64002530F5300FBF00010EEF64104E70EEAF5D
:101A740005AE04AD30122B7A1216BE12236F7F010D
:011A8400223F
:0824AB008F5C8B5D8A5E895F86
:1024B30012164EB401037F0122AF05AE04AD5C12C8
:1024C3002B7AAC067D03122B7AAC06E560FD122B4A
:1024D3007AAC06AD61122B7AAC06AD07AB5DAA5E92
:1024E300A95F85601C85611D12298512167F122341
:0324F3006F7F01F7
:0124F60022C3
:022885008D269E
:1028870012164CB401037F01221216B7122B7AAC31
:10289700067D04122B7AAC06E4FD122B7AAC067D7A
:1028A70001122B7AAC06AD26122B7A12167F122351
:0328B7006F7F012F
:0128BA0022FB
:02179E00AD0795
:1017A000E4F547F54890008DE0B401037F01221273
:1017B000183F7D05121857E4FD12185774FFFFE516
:1017C00045121698FAF9F8C31204D070097D011277
:1017D000183FAD46803D74FFFF1216987AFFF9F866
:1017E000C31204D070047D0280197D0412184B7856
:1017F00018121826AF46AE45AD44AC43781012041B
:10180000E1AD0712184B7808121826E546FFE4AD43
:1018100007AF48122B7A8E478F48AD48AC477F07F9
:0518200012236F7F019F
:1018250022AF46AE45AD44AC431204E1AD07AF4827
:10183500AE47122B7A8E478F4822AF48AE47122B00
:101845007A8E478F4822AF48AE47122B7A8E478F44
:0A1855004822122B7A8E478F48229A
:082B9E008C268D2712027DFF39
:012BA600220C
:082BA7008C268D2712027DFF30
:012BAF002203
:072BB0008C298D2A1224F785
:012BB70022FB
:102542008F38D31216624015E54C954FFFE54B9537
:102552004EFEC3EF941FEE64809480502DC312167A
:1025620062500DC3E54F954CFFE54E954B4F601AF7
:10257200C390008B12166840077A00796C1216C558
:0B258200784A121686E5381202C322C8
:10110300E4F509F50AF50BF50CC3E5679423E566E9
:1011130094005024122AADEFD39400401B1226E111
:101123000567E567AC667002056614248FF5827463
:10113300003CF583EFF080D1C3E5679407E566943F
:101143000050030212631216719407EE94005003C9
:10115300021232748F250AF58274003509F583E093
:101163006455600A050AE50A70DC050980D87490A5
:10117300250AF58274003509F583E064AA600A053F
:101183000AE50A70C1050980BD7491250AF58274C8
:10119300003509F583E06004740280387493250AEE
:1011A300F58274003509F583E0FE7494250AF5820F
:1011B30074003509F583E07C002400FFEC3ECF2466
:1011C30007F50CE43FF50BD3E50C942AE50B9400EB
:1011D30040097403250AF50AE4804D121671950C33
:1011E300EE950B404A1216CFFA7B01E50C24FFFD66
:1011F300E50B34FFFC122A03E50A250CFDE509354E
:101203000BFC748E2DF58274003CF583E06F60094E
:101213007403250AF50AE4800FAF0AAE09120AC067
:10122300E50C250AF50AE50B3509F509021149C351
:10123300E567950AF567E5669509F566D3E567946D
:1012430000E566940040191216CF752101F5228935
:10125300238566248567257B017A00798F1216D949
:011263002268
:102B4B001216C5754D01754E00754F6C90008B7448
:032B5B00FFF02266
:1014B600018500048100000000602E00D1010103B7
:1014C600020402650466026701680269027101721C
:1014D600017301740275017604770482048304841F
:0B14E600048504860487048804890440
:10265E0025E0246CF8E6FA08E6FB4A22AB1EAA1F18
:10266E00A920AD22AC212290000AE0FFE48F2DF5C7
:10267E002CF52BF52A22900025E0FEA3E0FFE48F37
:10268E002D8E2CF52BF52A22E0FFE4FCFDFEC30275
:02269E0004D066
:0D2B6D00E4FDFC7F0412236F7869760122DD
:102ACB00E4FEEF7004FFFD8006EEFF7E007D011239
:0D2ADB002B7AAE07EEFD7C007FB102236F69
:03001E00022B931F
:1014F5009000007F011215C39000157F711215C36E
:1015050090002F1226787F031215D0900069E0FF16
:10151500B4FF05E4F516801EEFB4C8057516028004
:1015250015EFB42805751603800CEFB41405751670
:10153500048003751605AD167F651228857F647EC8
:10154500001229B49000321226877F661215D090BA
:1015550000247F671215DB9000271226787F68121A
:1015650015E8E47B107A27F9F8900010120513129C
:10157500041AC374329F1226797F691215E8786BB5
:10158500E6FD7F721226A07F647E001229B4122622
:10159500757F041216009000147F731215DB122656
:1015A500847F741216009000637F761215F3900005
:0E15B500307F771215F3E4FDFC7FB402236F44
:1015C300E0FD1226A07F647E001229B422121ED2EF
:1015D3007F647E001229B422E0FD1226A07F647E80
:1015E300001229B422121ED27F647E001229B42273
:1015F300E0FD1228857F647E001229B422121ED2D8
:081603007F647E001229B4226D
:102B3400122B9E900000EFF0FD7F011226A0BF0132
:062B4400037F01227F0067
:012B4A002268
:1020F400122BB08F278E268D258C2490002FAB2792
:10210400AA26A925A8241226966028E4F528E528FD
:1021140012265E601585272D85262C85252B852482
:102124002A8A2E8B2F7F031219D20528E528C394FF
:102134000840DBAF2790002FEFF0FE900038F0123C
:0F214400267A7F03121ED2BF01037F01227F0084
:012153002269
:1022C300122BB08F2490000AE065246026E4F525E4
:1022D300E52512265E6013E485242DF52CF52BF5F8
:1022E3002A8A2E8B2F7F041219D20525E525C39444
:1022F3000840DD90000AE524F0E4FF1220949000EA
:1023030038E0FF1220941226757F04121ED2BF01FB
:06231300037F01227F00A0
:0123190022A1
:101E5B00122BA78F24E524788566601AE4F525E517
:101E6B002512265E6007AD247F65121DE40525E56E
:101E7B0025C3940840E9E524146010146015146020
:101E8B001A14601F1460242405702890006974FFD5
:101E9B00F0802090006974C8F08018900069742855
:101EAB00F080109000697414F08008900031E0907D
:101EBB000069F07885A624AD247F65122885BF01C3
:061ECB00037F01227F00ED
:011ED10022EE
:10202B00122BB08F278E268D258C24900032E0FE4C
:10203B00A3E0FFE4FCFDAB27AA26A925A824C31225
:10204B0004D06028E4F528E52812265E6015852764
:10205B002D85262C85252B85242A8A2E8B2F7F6672
:10206B001219D20528E528C3940840DBAE26AF270A
:10207B00900032EEF0A3EFF012268C7F66121ED288
:08208B00BF01037F01227F0069
:01209300222A
:10279B00122B9E8F24900024E06524601AE4F5250B
:1027AB00E52512265E6007AD247F67121D650525A2
:1027BB00E525C3940840E9900024E524F0FD7F67EC
:0B27CB001226A0BF01037F01227F0047
:0127D60022E0
:10220D00122BB08F278E268D258C24900027AB277F
:10221D00AA26A925A8241226966028E4F528E528E3
:10222D0012265E601585272D85262C85252B852468
:10223D002A8A2E8B2F7F681219D20528E528C39480
:10224D000840DBAF27900027EFF012267A7F681247
:0A225D001ED2BF01037F01227F00A3
:012267002254
:101BC200122BB08F278E268D258C24788112050743
:101BD200AB27AA26A925A824C31204D06028E4F5BD
:101BE20028E52812265E601585272D85262C852559
:101BF2002B85242A8A2E8B2F7F691219D20528E57C
:101C020028C3940840DBAF27AE26AD25AC247881EB
:101C120012052BC374329527FFE49526FEE4952521
:101C2200FDE49524FCE47B107A27F9F812038F90E7
:101C3200001012053778811205078F2D8E2C8D2BFF
:0F1C42008C2A7F69121ED2BF01037F01227F000F
:011C51002270
:10231A00122B9E8F24900015E06524601AE4F5259F
:10232A00E52512265E6007AD247F71121D6505251D
:10233A00E525C3940840E9E5247006900015F0806D
:10234A0011900024E0B40104786A760190001574B3
:10235A0001F0900015E0FD7F711226A0BF01037FF6
:04236A0001227F00CD
:01236E00224C
:10241100122B9E8F24E524786B66601AE4F525E57E
:102421002512265E6007AD247F72121D650525E524
:1024310025C3940840E9786BA624AF24122ACB78EF
:102441006BE66008E4FDFC7FB412236F786BE6FD58
:0D2451007F721226A0BF01037F01227F00D1
:01245E00225B
:1027D700122B9E8F24900014E06524601AE4F525DF
:1027E700E52512265E6007AD247F73121D6505255A
:1027F700E525C3940840E9900014E524F0FD7F73B4
:0B2807001226A0BF01037F01227F000A
:0128120022A3
:1025D400122B9EEF70037F0122E4900025F0A3F0FC
:1025E400F524E52412265E601A900025E0FEA3E09F
:1025F400FFE48F2D8E2CF52BF52A8A2E8B2F7F74DA
:102604001219D20524E524C3940840D61226847FE7
:0626140074121ED27F01CA
:01261A00229D
:06191A008B1E8A1F8920CC
:10192000EF120590194C01196E031977041980659F
:1019300019886619906719986819A06919A871190A
:10194000B07219B87319C075000019CA12266A124C
:101950002B348F23E52364017075900048E004F078
:10196000E0C394054069E4F0122B6D0219CF1226F2
:101970006A1220F40219C612266A1222C30219C67C
:1019800012266A121E5B803E12266A12202B8036B7
:1019900012266A12279B802E12266A12220D80269A
:1019A00012266A121BC2801E12266A12231A801681
:1019B00012266A122411800E12266A1227D7800678
:1019C00012266A1225D48F238000E4900048F0AFDD
:0119D00023F3
:0119D10022F3
:032BD4007F172246
:0F2B5E00386C6D786E6C676700312E302E30004A
:0314F100014900AE
:101F48007493250EF5827400350DF583E075140041
:101F5800F5137494250EF5827400350DF583E0258C
:101F680014F514E43513F51322350DF583E0F8E480
:101F780022E026F618E436F6227495250EF58274CA
:101F880000350DF583E02212051378101204E1AD37
:101F9800072212051378081204E1AD072274B82F3E
:101FA800F974003EFA7B0122E475F0011205800203
:021FB800027DA8
:101B2700E4FFFE90004DE0C4F854F0C8A3E0C454AD
:101B37000F48FD122B7A7E00900031E0FD122B7AC0
:101B47007E00C006C007900018121F8FD007D0066E
:101B5700122B7A7E00C006C007900018121F9AD079
:101B670007D006122B7A7E00C006C007900020120D
:101B77001F8FD007D006122B7A7E00C006C00790B1
:101B87000020121F9AD007D006122B7A7E00C006BB
:101B9700C007900010121F8FD007D006122B7A7E35
:101BA70000C006C007900010121F9AD007D0061277
:0B1BB7002B7AEFFD7C007FC002236F43
:082BB800E4FDFC7FC102236F64
:0C2B7A00121FA5ED1202C30FBF00010ED8
:012B8600222C
:0A2985008E178F188B198A1A891B10
:10298F00121FA5851921851A22851B23851C2485D5
:10299F001D251216D9E51D2518F518E51C3517F557
:0429AF0017FEAF1848
:0129B3002201
:10275E008B338A3489358C368D37E94A4B602DE5BB
:10276E003745366027E5371537AE36700215364ECB
:10277E00601AAB33AA34A93512027DFF12001E7403
:0D278E00012535F535E43534F53480D922C8
:0A2A03008B338A3489358C368D3709
:102A0D00E4FFFDFCC3ED9537EC9536500E7833128F
:0B2A1D001FB02FFF0DBD00010C80E971
:012A2800228B
:04236F008C318D32EE
:102373009000B27455F0A374AAF0E4A3F0A3EFF0B5
:10238300E531A3F0E532A3F02407F532E43531F566
:10239300317B017A0079B2E53224FFFDE53134FF68
:1023A300FC122A0374B12532F58274003531F583AA
:0F23B300EFF07B017A0079B2AD32AC3102275ED8
:102A6F00E4FFE549700AFEFD122B7A7549018007D4
:102A7F007E007D01122B7AEFFD7C00E4FF02236FB5
:10281300E4F5167A2B795E12283F7A2B795E12291A
:10282300858F167A2B796712283F7A2B79671229BD
:0C283300858F16EFFD7C007F0102236FF3
:10283F007BFF12261B8E1C8F1DAF167E007BFF2287
:082BC000E4FDFC7F0202236F1B
:022A4E008F1DDA
:102A5000122BD4E4FEEEC39F501275F002EE9000EC
:0E2A6000D1120574E0651D60030E80E9AF061B
:012A6E002245
:062268008B168A1789188D
:10226E0012027DF519900001120296F51A900002E5
:10227E00120296751C00F51B900003120296251C87
:10228E00F51CE4351BF51BAF19122A4E75F002EF43
:10229E009000D2120574E0651A60037F0022AB161F
:1022AE00E5182404F9E43517FA851B21851C22AFA5
:0422BE001912191ABE
:0122C20022F9
:040AC0008E0D8F0EFA
:100AC40074922FF58274003EF583E0FF1205900BBB
:100AD4000C000B0F010B12020B15030B32040B3924
:100AE400060D5D080AF8B10BAFB40B06C00B09C1C3
:100AF40000000D60121F816003020D60FDFC7FB4D5
:100B04008029021B27022BB8022A6F022813022B0A
:100B1400C0121F81FF90008BF0BF020AE47869F6CF
:100B2400121A851214F5E4FDFC7F0302236F900072
:100B34008E7401F022121F48E4F511F512C3E51278
:100B44009514E51195134003020D60E50E2512FD81
:100B5400E50D3511FC74972DF58274003CF583E0A6
:100B6400751000F50F74982DF58274003CF583E040
:100B74002510F510E4350FF50F7495250EF9740062
:100B8400350DFA7B01E92512F9EA3511FA122268CA
:100B9400BF0103121A85E5102404FFE4350FFEEFAC
:100BA4002512F512EE3511F5118092121F48121F0D
:100BB40081F5157496250EF5827400121F71796DF6
:100BC400F7E819F77497250EF5827400350DF5834F
:100BD400786D121F797498250EF5827400121F71B6
:100BE400796FF7E819F77499250EF5827400350DBD
:100BF400F583786F121F79749A250EF582740012AA
:100C04001F717971F7E819F7749B250EF58274004A
:100C1400350DF583E07871121F7A749C250EF582E8
:100C24007400121F717973F7E819F7749D250EF596
:100C3400827400350DF583E07873121F7A749E2553
:100C44000EF5827400121F717975F7E819F7749F15
:100C5400250EF5827400350DF583E07875121F7A40
:100C640074A0250EF5827400121F717977F7E819C4
:100C7400F774A1250EF5827400350DF583E07877BD
:100C8400121F7A74A2250EF5827400121F717979ED
:100C9400F7E819F774A3250EF5827400350DF58372
:100CA400E07879121F7A74A4250EF5827400121F5D
:100CB40071797BF7E819F774A5250EF58274003570
:100CC4000DF583E0787B121F7A786DE61846600490
:100CD4007D018002E4FD7F82122885786FE6184644
:100CE40060047D018002E4FD7F831228857871E62B
:100CF400184660047D018002E4FD7F841228857813
:100D040073E6184660047D018002E4FD7F851228A5
:100D1400857875E6184660047D018002E4FD7F86CF
:100D24001228857877E6184660047D018002E4FD88
:100D34007F871228857879E6184660047D01800251
:100D4400E4FD7F88122885787BE6184660047D01DF
:0C0D54008002E4FD7F890228851214F55E
:010D60002270
:102AAD00E54D854E83854F82654A700AE54C6582FA
:0E2ABD007004E54B658360037F01227F0022D9
:1026E100AB4DAA4EA94FE54A854B83854C82654D7A
:1026F100700AE54F65827004E54E65836021C390E1
:10270100008BE54F9582E54E9583400D7A00796CFB
:0F271100754D01754E00754F6C784D121FB0FF5E
:012720002296
:10002600020268E86480F8E933E83360110460F09E
:10003600ED33EC337009E8FCE9FDEAFEEBFF220440
:1000460060DED3EB9FEA9EE99DE8C2E78CF0C2F73B
:1000560095F0400CE8CCF8E9CDF9EACEFAEBCFFB07
:1000660012023385D0F05804700320D5B3E804702B
:10007600075002B2D502027292D5EC0460F7E4CCC6
:10008600C0E0C398F8603B94186008400DD0E0FBD0
:1000960002024AE4FBFAC9FC8028E830E406E4C917
:1000A600FBE4CAFCE830E305E4C9CACBFCE8540724
:1000B6006010F8C3E913F9EA13FAEB13FBEC13FC2F
:1000C600D8F130F52FC3E49CFCEF9BFFEE9AFEEDD2
:1000D60099FDD0E0FBEF4E4D4C701222DB0302027D
:1000E6006FEC2CFCEF33FFEE33FEED33FDED30E726
:1000F600EB02024AEF2BFFEE3AFEED39FDD0E0FBB4
:1001060050130BBB0003020272ED13FDEE13FEEF5C
:0801160013FFEC13FC02024A86
:10011E00020272EC5D046005E85904700302026885
:10012E00120233580460F6EC4860F2EC7004FDFEE7
:10013E00FF22C860DB2481C85009C39860025006B4
:10014E0002026F9850CAF582E9294B4A7005AB82BC
:10015E0002025E75F0007C1A7880C3EF9BEE9AED7A
:10016E0099400DC3EF9BFFEE9AFEED99FDE842F02C
:10017E00DC23ACF0D0E0FFD0E0FED0E0FDAB82207F
:10018E00E7101BEB60BAEC2CFCEF33FFEE33FEED09
:10019E0033FD02024AE803F830E705C0F075F000BF
:1001AE00EF2FFFEE33FEED33FD40B830E7C280AAED
:1001BE0075F020800E75F010800575F0087D007EBC
:1001CE00007F003392D530D5031204ACEC334010CF
:1001DE00EF33FFEE33FEED33FDEC33FCD5F0ED22C5
:0E01EE00E5F0247EA2D513CC92E7CDCEFF2201
:1001FC00EDD2E7CD33EC3392D524814006E4FFFEFB
:10020C00FDFC22FCE4CFCECDCC24E0501174FF8059
:10021C00EDC3CC13CCCD13CDCE13CECF13CF0470F6
:07022C00F030D5DE0204AC46
:10023300E9D2E7C933E833F892D5EDD2E7CD33EC11
:0702430033FC5002B2D5228A
:10024A00EC30E7100FBF000C0EBE00080DBD000415
:10025A000BEB6014A2D5EB13FCED92E7FD2274FFC1
:10026A00FCFDFEFF22E480F8A2D574FF13FC7D801A
:03027A00E480EF2E
:101C5E00020D61E493A3F8E493A34003F68001F22E
:101C6E0008DFF48029E493A3F85407240CC8C33387
:101C7E00C4540F4420C8834004F456800146F6DF56
:101C8E00E4800B01020408102040809013AEE47E25
:101C9E00019360BCA3FF543F30E509541FFEE4934B
:101CAE00A360010ECF54C025E060A840B8E493A312
:101CBE00FAE493A3F8E493A3C8C582C8CAC583CA3D
:101CCE00F0A3C8C582C8CAC583CADFE9DEE780BEF5
:0114F40000F7
:10027D00BB010689828A83E0225002E722BBFE027F
:09028D00E32289828A83E49322B2
:10029600BB010CE58229F582E5833AF583E022501D
:1002A60006E92582F8E622BBFE06E92582F8E22267
:0D02B600E58229F582E5833AF583E4932281
:1002C300BB010689828A83F0225002F722BBFE011A
:0202D300F32214
:1002D500F8BB010DE58229F582E5833AF583E8F05F
:1002E500225006E92582C8F622BBFE05E92582C80B
:0202F500F222F3
:1002F700EF8DF0A4A8F0CF8CF0A428CE8DF0A42E1B
:02030700FE22D4
:10030900BC000BBE0029EF8DF084FFADF022E4CCD8
:10031900F875F008EF2FFFEE33FEEC33FCEE9DECA1
:10032900984005FCEE9DFE0FD5F0E9E4CEFD22EDE7
:10033900F8F5F0EE8420D21CFEADF075F008EF2F31
:10034900FFED33FD4007985006D5F0F222C398FD22
:050359000FD5F0EA22BF
:10035E00C5F0F8A3E028F0C5F0F8E582158270022A
:06036E001583E038F022C7
:0D037400EF2BFFEE3AFEED39FDEC38FC22D8
:0E038100C3EF9BFFEE9AFEED99FDEC98FC2277
:10038F00E88FF0A4CC8BF0A42CFCE98EF0A42CFC0D
:10039F008AF0EDA42CFCEA8EF0A4CDA8F08BF0A48B
:1003AF002DCC3825F0FDE98FF0A42CCD35F0FCEBEA
:1003BF008EF0A4FEA9F0EB8FF0A4CFC5F02ECD39AF
:0F03CF00FEE43CFCEAA42DCE35F0FDE43CFC221C
:1003DE0075F008758200EF2FFFEE33FECD33CDCCD6
:1003EE0033CCC58233C5829BED9AEC99E582984059
:1003FE000CF582EE9BFEED9AFDEC99FC0FD5F0D636
:10040E00E4CEFBE4CDFAE4CCF9A88222B800C1B95F
:10041E000059BA002DEC8BF084CFCECDFCE5F0CB9D
:10042E00F97818EF2FFFEE33FEED33FDEC33FCEBD6
:10043E0033FB10D703994004EB99FB0FD8E5E4F991
:10044E00FA227818EF2FFFEE33FEED33FDEC33FC7E
:10045E00C933C910D7059BE99A4007EC9BFCE99A72
:10046E00F90FD8E0E4C9FAE4CCFB2275F010EF2FB7
:10047E00FFEE33FEED33FDCC33CCC833C810D707B7
:10048E009BEC9AE899400AED9BFDEC9AFCE899F8F2
:0E049E000FD5F0DAE4CDFBE4CCFAE4C8F92285
:0E04AC00C3E49FFFE49EFEE49DFDE49CFC2261
:1004BA00EB9FF5F0EA9E42F0E99D42F0EC6480C8B9
:0604CA0064809845F02259
:1004D000EB9FF5F0EA9E42F0E99D42F0E89C45F082
:0104E00022F9
:1004E100E8600FECC313FCED13FDEE13FEEF13FFF9
:0304F100D8F1221D
:1004F400E8600FEFC333FFEE33FEED33FDEC33FC66
:03050400D8F12209
:0C050700E6FC08E6FD08E6FE08E6FF2220
:0C051300E0FCA3E0FDA3E0FEA3E0FF225B
:0C051F00E0F8A3E0F9A3E0FAA3E0FB225F
:0C052B00ECF608EDF608EEF608EFF622FC
:0C053700ECF0A3EDF0A3EEF0A3EFF02237
:10054300A8828583F0D083D08212055A12055A12ED
:10055300055A12055AE473E493A3C583C5F0C58312
:10056300C8C582C8F0A3C583C5F0C583C8C582C802
:010573002265
:0C057400A42582F582E5F03583F5832292
:10058000FAE6FB0808E6F925F0F618E6CA3AF6227C
:10059000D083D082F8E4937012740193700DA3A3FA
:1005A00093F8740193F5828883E47374029368600E
:0605B000EFA3A3A380DF0E
:00000001FF
