:03000000021CC21D
:0C1CC200787FE4F6D8FD75819E021D09B4
:10131200043800000000410006004100400C41007A
:101322004140440037000000004400160000000065
:1013320044001A000000004400580000000044006D
:10134200440000000044005F0000000042002A0048
:1013520001420014000041000B0041003500420030
:1013620064000042000C00004100000841004300FC
:10137200013C00013D0041001300410022014100F7
:101382002D0A4100420A4100340041003600420069
:1013920009000041000200029800000294000010BF
:1013A20081000000000000000000000000000000BA
:1013B2000001800041005E00017A004100120042FB
:1013C20000230000420032000041005C01410003A2
:1013D20001420004000041000100017F00013600CB
:1013E20041002E0041003F0001910001790002926C
:1013F2000000029603E8013E0041002C00027B003F
:1014020000027D00000137004E004A00000000008B
:0E141200000000000000000000420007000083
:1015B300EF24A0FFEE340FFEE43DFDE43CFC1205F6
:1015C3001FD30204D0E4900043F09000417440F034
:1015D3009000357402F09000007406F0E490000669
:1015E300F090005822900016120513900037120550
:1015F3001F1203749000161205379000160205138C
:1016030090003712051FC30204D0E4FCFD120374DB
:1016130090005F02053790003B120513EF2470FF23
:10162300EE3417FEE43DFDE43CFC90001622122A42
:10163300EDE47BE87A03F9F890000E0205139000BD
:1016430041E0FF900006E0C39F22D390002BE0947B
:101653000090002AE0940022E475F00102035E1278
:10166300051390001A12051F0203747F647E0002A3
:101673002AED90000E020537900037020513D39030
:101683000065E09400900064E094002290002DE057
:10169300900042F0227F0A12262090002FEFF09054
:1016A300005D22E4FFFEFD7C3F12002D0201FC9051
:1016B300005F02051FD39DEC6480F874809822902C
:1016C300001A020513E47B02FAF9F802041A9000E7
:1016D3001602051FE48F2D8E2CF52BF52A227E2F63
:0816E300122A257F107E272248
:102817008E098F0A8B0B8A0C890DAF051DEF60217E
:10282700050AE50AAE097002050914F5828E83E4EC
:1028370093FF780BE475F001120580EF1202C38055
:02284700D92294
:1029B0008F828E83E4F53BF53AF539F538AF82AE78
:1029C00083E4FCFDAB3BAA3AA939A838C31204D072
:0829D000500543BD1080E62212
:092AE400E0FF7C2F1229D87F6469
:102AED00E4FDFCC3ED9FEC9E50070DBD00010C8075
:012AFD00F2E6
:012AFE0022B5
:102B1900758E5190FE917401F0A37410F075BD5F2C
:072B290090FEA07420F022D1
:102A8B00E490FE80F0758901758DFA758BCB43A8A8
:0E2A9B0008438840758CCB758AEB4388102267
:1028490090FF10E054F04408F090FF02E054F04487
:1028590002F0D28490FFA07420F0A37404F075CC28
:102869000675CEFF75CD98759E0275981043A81010
:01287900223C
:102B300043B40343B4807F147E00122AED75B501BF
:072B400090FE9B744BF02294
:102AFF0090FF08E04488F090FF00E0540F4430F05E
:0A2B0F0090FF11E054F04403F0229F
:0B2BD7008F99E59830E1FB5398FD2238
:102620008FB543B440E5B430E5FB53B4DF12166E0A
:10263000E4FBFAF943B440E5B430E5FB53B4DFE51D
:10264000B62BFBE5B73AFA7F147E00122AED09B9E2
:0C26500010E275B501A90212166EAF0170
:01265C00225B
:100FF6007B017A00794A7D0E7F007E2F122817909A
:10100600004AE0FFE4FCFDFE12167512163B780856
:101016001204F412167590000E12051F90004BE094
:10102600FFE4FCFDFE12037412167512163BE47BF8
:10103600E87A03F9F812038F121675E47F307E758D
:10104600FDFC90000E12160640107F007E097D3DC5
:101056007C0090000E1215C1400A90000E12054346
:1010660000009C4090004CE0900063F07002800706
:10107600900063E0B4FE0374FFF090004DE0FF9033
:101086000030E4F0A3EFF0E0F8E4F0E8900030F090
:1010960090004EE0FF900030E48FF012035E900067
:1010A60030E0FEA3E0FF4E6009D3EF9408EE94070C
:1010B6004009900030E4F0A37405F090004FE090F2
:1010C600002DF0900036F0900050E0900025F06082
:1010D60006E0D394FF40069000257401F09000517D
:1010E600E0F45401900022F0900052E05401788020
:1010F600F6A3E05401900013F0900054E0540190E0
:101106000012F0900055E090005EF0900056E0FF6F
:101116007896760008A607E6F8E47997F7E819F7CF
:10112600A3E0789726F618E436F6E6FE08E6FF4EC4
:101136006009D3EF94B8EE940B40077896760308CF
:1011460076E87B017A0079077D027F807E2F122860
:1011560017900007E0900034F0900008E0787AF6E7
:101166007F807E2F122A257F107E27122AED90007F
:1011760034E004F0E0FF7D807C2F1229D812166E31
:10118600787AE67014122BB190005E7464F09000C9
:101196002D740AF0900036F022787AE6FFB4010A40
:0B11A6007D817C2F1229D812166E22CA
:1005B600E53C6003020A9943B440E5B430E5FB53D9
:1005C600B4DF85B70985B60A90001412165B1216B9
:1005D600B2AE09AF0A12160D900048E0FEA3E0FF86
:1005E600C3950AEE9509500DC3E50A9FF50AE5097C
:1005F6009EF509800BC3EF950AF50AEE9509F509F4
:1006060090001A12051FAE09AF0AE4FCFD1203742E
:1006160090001A120537900014E05401FEA3E04E34
:100626007054121681401990005EE0FF900042E07F
:100636009F503BE02402F0E0D39F4032EFF0802E43
:1006460090000CE07004A3E06401702A90002DE095
:10065600FF900042E0FED39F4014EE94024004E077
:1006660024FEF0900042E0C39F500312168F9000C4
:1006760042E0FF1228A9C3900014E0942050030220
:100686000AC243BD10E4F0A3F0900043E004F0A3D7
:1006960012051390005F12166890004412053790F9
:1006A6000043E0C394084035E4F0A3120513781024
:1006B6001204E1900044120537900044120513908D
:1006C6000048EE8FF012035E900048E0C313F0A3DB
:1006D600E013F09000441205430000000090000073
:1006E600E0C394085005E004F08040900064E07098
:1006F60002A3E07036121698E0FE2402FDE433FCF5
:10070600EF1216B8501890002FE02402FDE433FCD7
:10071600EE1216B8500890005DE090002FF09000A1
:100726002FE090005DF0E4900000F0E4FFFEFDFC99
:1007360090001612160670331216C2EF2488FFEECA
:10074600341312162612053790002AE07002A3E031
:1007560070197F407E427D0FFC9000161215C14035
:100766000A900016120543000F4240900006E07002
:10077600131216C290003712053790002612054351
:1007860000000001900026121662121603400302B2
:10079600093E900026120513900037121668900045
:1007A6001A121606400302093E900006E004F09075
:1007B6000058121662900058120537900006E0FFA6
:1007C600FBE4FAF9F890005812051312041A900087
:1007D6003712053712167B78031204E190002612B1
:1007E6000537E47F207E4EFDFC900026121606504B
:1007F6000A90002612054300004E20E47F607EEA40
:10080600FDFC9000261215C1400A900026120543F1
:100816000000EA6012167B9000161215C1403E9049
:10082600003712051F1215FD1203811216137F8061
:100836007E387D017C0090005F1215C14008900053
:10084600407406F0801DE47F407E9CFDFC90005FB6
:100856001215C190004040087409F08006900040CF
:10086600740CF0900040121644403B1215FD12160F
:10087600035033900041E09410500302094D90005C
:1008860040E0D39409500512167B801112167B9016
:1008960000161215B3400C1215E81216C890001671
:1008A60012053702093E121641500302094D121570
:1008B600FD9000371215B340771216D112167B122F
:1008C60003811216137F007E127D7A7C00121603B6
:1008D600505E7F807E4F7D127C0090005F12160670
:1008E600504E900041E09410400280387FE07E93A5
:1008F6007D047C0090005F1215C140089000417491
:1009060010F0801B7FF07E497D027C0090005F1214
:1009160015C19000414005740CF080037408F01274
:100926001641400C1215E81216C89000161205372B
:100936001216414012E48004E4900006F09000583C
:1009460012054300000000900035E0D394004036C5
:10095600E014F01216191215C15003020A4E900047
:100966003B120513EF2498FFEE343AFEE43DFDE416
:100976003CFC90001A1216064003020A4E12161983
:10098600120537020A4E12164D405774FFF5F01243
:10099600035E12164D404B7F007E127D7A7C0090DE
:1009A60000161215C1400C90000E120543000C35BE
:1009B60000802F12163B1216D11216107F407E545D
:1009C6007D897C0090005F1215C140161216D1C3B6
:1009D60074409BFF74549AFE748999FDE498FC1246
:1009E600167512163B90001612166890001A12150C
:1009F600C14055900063E0FF90002FE0D39F400573
:100A060012164D4043900064E07002A3E070091294
:100A160015FD90003B120537900064E4F0A304F046
:100A260090002312165B90002E7401F0787FF6F585
:100A3600369000417408F0E490000CF0A3F078982A
:100A4600F608F67894F608F61216C290001E1205FD
:100A56003790005F1205430000000090001A12054F
:100A66004300000000900064E0FEA3E0FFD3940082
:100A7600EE94004047900030E0FCA3E0FDD3EF9DEC
:100A8600EE9C4038E4900064F0A3F0753C019000C1
:100A96002EF02290000CE4F0A304F0E4F53C900064
:100AA60009F0A3F0900002F0900044120543000004
:0C0AB60000001215C812054300000000EB
:010AC2002211
:101FE000E4F50A90005F12054300000000E4F509E3
:101FF00043B440E5B430E5FB53B4DF1216B2AFB6DC
:10200000AEB712160D0509E509B480E47F907E0194
:102010001229B090005F120513780B1204E18F09AA
:10202000E509D3940C400CE509948D5006E50A941B
:0D20300014500A050AE50AD3945040A72277
:01203D002280
:10203E0090005F12054300000000E4F509E4F50C82
:10204E00F50D43B440E5B430E5FB53B4DF85B70A74
:10205E0085B60B1216B2AE0AAF0B12160D050DE5B4
:10206E000D7002050CB400DAE50CB420D543BD109A
:10207E000509E509B408C690005F12051378101221
:0A208E0004E1900048EEF0A3EFF02B
:012098002225
:1021F600BF0105E4FCFD802E7E007C017DFF1202FE
:10220600F71C7D64120309AC06AD07E41201C38F07
:10221600728E718D708C6FAB72AA71A970A86F12D5
:1022260016A6AC06AD0790FF907411F075DA01752D
:0E223600E30175E2FF8CE58DE475E10F7F009A
:012244002277
:1023C100BF0104E4FE80307E007C007DFF1202F735
:1023D100AC06AD07E41201C3E4FBFA79C8784212F6
:1023E10001218F0E8E0D8D0C8C0BAB0EAA0DA90C3D
:1023F100A80B1216A6AE0790FF9C7410F075DEFFB5
:072401008EDF75DD947F0002
:0124080022B1
:1028A9007891E6B507037F00227891A607EF7007B4
:1028B90090005C04F08010BF6407E490005CF08035
:0D28C9000690005C7402F01223C17F002213
:100D7D00122B5C122B19122AFF122A8B12284912E0
:100D8D002B3075BBAA90FEA774FFF053BBF7D2AF03
:100D9D007FC87E001229B0121698F0C2AF120FF65E
:100DAD007F641228A9D2AF121FE090002DE0FF90B2
:100DBD000042F01228A97F2C7E011229B012203E8C
:100DCD0090005F12054300000000E4F537900034F9
:100DDD00E0D3940A4007E4F0122BB18003121AE11C
:100DED00E53E6015120FDD90002CE004F0E0FF747D
:100DFD0003D39F5004E4F53EF07879E6601B120FA3
:100E0D00DD789306E618700106D374847893967492
:100E1D000318965004E47879F6E5376003020EE581
:100E2D00900003E0FF90005CE0FD6F600D7F761297
:100E3D00271290005CE0900003F090003FE0FF90DF
:100E4D00002EE0FD6F60187F7712271290002EE0C4
:100E5D0090003FF0B40108787C06E6187001067921
:100E6D007CE7787E66700419E71866601C787BE66F
:100E7D00FE08E6FF1216D77F7C121D4E787BE6FE2C
:100E8D0008E6FF08A60608A607900001E0640170B9
:100E9D0047F0787FE66401703FF6900023E0FEA3F3
:100EAD00E0FF900032E06E7003A3E06F602A12162F
:100EBD00D77F74121D4E900023E0FFA3E090003207
:100ECD00CFF0A3EFF090001E1205138F2D8E2C8DF9
:100EDD002B8C2A7F7D121D4EE5366401702AF53666
:100EED007880E664017021F508E50825E02481F895
:100EFD00E6FA08E6FB4A6007E4FD7F7812214C050F
:100F0D0008E508C3940840E143BD101211B19000EB
:100F1D0022E064016003020FA8E53D701CF53C75ED
:100F2D003D0112168F90004412054300000000127F
:100F3D0015C8120543000000001205B6D390000D30
:100F4D00E0940090000CE094004033900002E0B477
:100F5D00012CE4F090000C12165C900025E0FFC30C
:100F6D0090000DE09F90000CE094004011E4F0A380
:100F7D00F0900012E064016005E4FF1228A912163A
:100F8D00815003020DED7895E66401184660030269
:100F9D000DEDF608F612165C020DEDE4F53D900030
:100FAD0013E07007FF1228A9020DED900036E0FF47
:100FBD001228A9E4F53C12168F9000441205430047
:100FCD000000001215C812054300000000020DEDCF
:100FDD007F641228A97F647E001229B0E4FF1228D5
:090FED00A97F647E001229B022E4
:03001B0002196661
:10196600C0E0C0F0C083C082C0D075D000C000C047
:1019760001C002C003C004C005C006C007AF3BAE2D
:101986003AAD39AC38EF2401FFE43EFEE43DFDE418
:101996003C8F3B8E3A8D39F53890000912165B90D4
:1019A6000009E0FEA3E0FFE4FCFD7B607AEAF9F8BB
:1019B600D31204BA500C900009E4F0A3F090000290
:1019C60004F0789906E618700106C37899E694E85B
:1019D60018E69403400C76000876007894760008A2
:1019E600760190000412165B7896E6FE08E6FFC3C1
:1019F600900005E09F900004E09E4009E4F0A3F00B
:101A060090000104F0D007D006D005D004D003D052
:101A160002D001D000D0D0D082D083D0F0D0E03236
:03002300022409AB
:10240900C0E0C0F0C083C082C0D075D000C000C099
:0D24190001C002C003C004C005C006C0071A
:0F242600E59830E00AAF991223765398FED2AFB3
:10243500D007D006D005D004D003D002D001D000FB
:0B244500D0D0D082D083D0F0D0E032A5
:102A250053BBF7C280E5BB20E3F6D280C2AF75FD8C
:102A3500F075FC0F8EFA8FF975FDD275FC2D75FDBD
:052A4500E175FC1E22FA
:1029D80053BBF7C280E5BB20E3F6D280C2AF8FFBC2
:1029E80075FDF075FC0F8CFA8DF975FDB475FC4B0F
:0729F80075FDE175FC1E22D4
:101AE1007F001216E112163112041A78081204E16D
:101AF1007D007C2F1229D87F647E001216311204DA
:101B01001A7D017C2F1229D812166E9000637D0276
:101B1100122AE49000307D03122AE4A3E0FF7D0441
:101B2100122AE690002DE0FF7D05122AE69000259D
:101B3100E0FF7D06122AE6900022E0F4FF7D071205
:101B41002AE67880E6FF7D08122AE6900013E0FF7E
:101B51007D09122AE6900012E0FF7D0A122AE69022
:101B6100005EE0FF7D0B122AE67896E6FF7D0C12FF
:101B71002AE608E6FF7D0D122AE67F801216E112A1
:101B81002AED7D807C2FE4FF1229D80D0F1229D870
:021B9100D2AFD1
:011B9300222F
:04142000027700004F
:101A2600120296FFE52E4FFFE52DFEE52CFDE52B78
:101A36008F2E8E2D8D2CF52BFC78081204F48F2E0C
:101A46008E2D8D2C22AF2DAE2CAD2BAC2A1204E19F
:101A5600AD0722AF4CAE4BAD4AAC491204E1AD071F
:101A660022AB07E4FDFC900083E022855C83855D64
:101A760082E55A9582E559958322C3E578950AFF52
:101A8600E5779509FEC3EF22AC06AD077F0722E492
:101A960075F001020580AF76AE75AD74AC730204C5
:101AA600E1FEE552FDE551FCE47BFF22E4F51DF580
:101AB6001CF51BF51A22120296AB26AA27A9282284
:101AC600AF05AE04AD0322755801755900755A6607
:0B1AD600227485250AF97400350922EE
:101EAB00EFC39430400CEFD39439500674D02FFF0E
:101EBB008022EFC39441400CEFD394465006EF249D
:101ECB00C9FF8010EFC39461400AEFD394665004AE
:101EDB00EF24A9FFEF540FC454F0FFEDC39430402F
:101EEB000CEDD39439500674D02DFD801EEDC394A8
:101EFB00414008EDD394465002800CEDC3946140F1
:101F0B000AEDD394665004ED24A9FDED540F42075E
:011F1B0022A3
:0624DA008B178A18891916
:1024E000121AB2E94A4B7005FFFEFDFC22121AB225
:1024F0007817121A9512027D601AE51D2401FFE477
:10250000351CFEE4351BFDE4351A8F1D8E1C8D1B1A
:0C251000F51A80DCAF1DAE1CAD1BAC1A30
:01251C00229C
:06277D008B3F8A408941F8
:102783008B458A468947E94A4B7004FBFAF922E5EF
:10279300441544AE43700215434E600B7845121A3C
:0D27A30095ED1202C380E8AB3FAA40A941AA
:0127B0002206
:0617E0008B1E8A1F892008
:1017E6008B268A27892885212985222A85232BE984
:1017F6004A4B6008E5234522452170077B007A00A5
:10180600790022D3852A83852B82E5289582E527D0
:1018160095834019E52B2525F9E52A3524FA8A838F
:101826008982D3E5289582E52795834032E4F52C15
:10183600F52DC3E52D9525E52C9524505BAB29AAFE
:101846002AA92B852D82852C83121ABC852D82858B
:101856002C831202D5052DE52D70D7052C80D38556
:10186600242C85252DD3E52D9400E52C94004028C5
:10187600AB29AA2AA92BE52D24FFFFE52C34FFFE70
:101886008F82F583121ABC8F828E831202D5E52DC4
:0E189600152D70D1152C80CDAB1EAA1FA920D8
:0118A4002221
:1027B1008F768E758D748C7378181204E1EF120286
:1027C100C37810121A9C900001EF1202D5780812FA
:1027D1001A9C900002EF1202D5E576FF900003EFFC
:0327E1000202D51C
:10232B00E4F52EF52DF52CF52B12027DFFE48F2E07
:10233B00F52DF52CF52BAE2DAD2CAC2B121A3F8CAD
:10234B002B900001121A268C2B900002121A268C4D
:10235B002B900003120296FFE52E4FFFE52DFEE5B5
:0A236B002CFDE52B121A44F52BFCA3
:012375002245
:062C1500900084E0FF22A4
:0C2BCB00E4900084F0FDFC7F040221A3D4
:062C1B00900081E0FF22A1
:082293008F5E8B5F8A60896198
:10229B00121A69B401037F0122AF05AE04AD5E12C1
:1022AB002BBEAC06E4FD122BBEAC06E562FD122B79
:1022BB00BEAC06AD63122BBEAC06AD07AB5FAA601E
:1022CB00A96185621C85631D12287A121A8E122150
:0322DB00A37F01DD
:0122DE0022DD
:02255F008D26C7
:10256100121A67B401037F0122121AC6122593E4DD
:10257100FD122593AD07E5267003FD8006AF05AE7C
:10258100047D01122BBEAC06AD077F071221A37F8C
:012591000148
:0E25920022122BBEAC067D01122BBEAC06221F
:081F81008F6A8D6B8A6C8B6D79
:101F8900E4FDFCF56E900083E0B401037F0122AF0C
:101F990005AE04E56CFD122BBEAC06AD6D122BBE71
:101FA900AC06AD6A121FD3E4FD121FD3AD07E56B72
:101FB9007003FD8006AF05AE047D01122BBEAC0691
:091FC900AD077FB21221A37F01D4
:0E1FD20022122BBEAC067D01122BBEAC0622E5
:08214C008F288D298A2A8B2BB4
:10215400E4FDFCF52C900083E0B401037F0122AF81
:1021640005AE04E52AFD122BBEAD2B12219BAD2832
:10217400122BBE7D0412219BE4FD122BBEAC067D06
:1021840001122BBEAC06AD29122BBEAC06AD077FE7
:06219400B21221A37F013D
:09219A0022AC06122BBEAC062299
:101D4E00121A67B401037F0122121AC6122BBEACFF
:101D5E00067D02122BBEAC06E4FD122BBEAC067D38
:101D6E0004122BBEC006C0077818121A4BD007D02B
:101D7E0006122BBEC006C0077810121A4BD007D021
:101D8E0006122BBEC006C007AF2DAE2CAD2BAC2A53
:101D9E0078081204E1AD07D007D006122BBEAC06B0
:101DAE00C007E52DFFE4AD07D007122BBE121A8E29
:051DBE001221A37F01CA
:011DC30022FD
:021C2F008F48DC
:101C3100E4FDFCF54F900083E0B401037F0122AF86
:101C410005AE04E54DFD122BBEAC06AD4E122BBE0A
:101C5100AC06AD48122BBEAC067D02122BBEAC0603
:101C6100E4FD122BBEAC067D04122BBEC006C007DC
:101C71007818121A59D007D006122BBEC006C00719
:101C81007810121A59D007D006122BBEC006C00711
:101C9100AF4CAE4BAD4AAC4978081204E1AD07D068
:101CA10007D006122BBEAC06C007E54CFFE4AD071A
:101CB100D007122BBEAC06AD077FB21221A37F0164
:011CC1002200
:0822DF008F648B658A66896734
:1022E700121A69B401037F0122AF05AE04AD64126F
:1022F7002BBEAC067D03122BBEAC06E568FD122B88
:10230700BEAC06AD69122BBEAC06AD07AB65AA66BF
:10231700A96785681C85691D12287A121A8E1221F1
:03232700A37F0190
:01232A002290
:022712008D2810
:10271400121A67B401037F0122121AC6122BBEAC2F
:10272400067D04122BBEAC06E4FD122BBEAC067D66
:1027340001122BBEAC06AD28122BBE121A8E12212A
:03274400A37F016F
:01274700226F
:0218A500AD078D
:1018A700E4F555F556900083E0B401037F01221259
:1018B70019467D0512195EE4FD12195E74FFFFE5F6
:1018C70053121AA7FAF9F8C31204D070097D01124E
:1018D7001946AD54803D74FFFF121AA77AFFF9F835
:1018E700C31204D070047D0280197D041219527846
:1018F7001812192DAF54AE53AD52AC5178101204D3
:10190700E1AD07121952780812192DE554FFE4AD1D
:1019170007AF56122BBE8E558F56AD56AC557F0767
:051927001221A37F0165
:10192C0022AF54AE53AD52AC511204E1AD07AF56D9
:10193C00AE55122BBE8E558F5622AF56AE55122B6E
:10194C00BE8E558F5622AF56AE55122BBE8E558F6E
:0A195C005622122BBE8E558F562224
:082BE2008C268D2712027DFFF5
:012BEA0022C8
:082BEB008C288D2912027DFFE8
:012BF30022BF
:072BFD008C298D2A12232B05
:012C040022AD
:102376008F35D3121A714015E55A955DFFE55995CB
:102386005CFEC3EF941BEE64809480502DC3121A3A
:1023960071500DC3E55D955AFFE55C95594F601A7E
:1023A600C3900081121A7740077A007966121ACD17
:0B23B6007858121A95E5351202C32278
:1011B100E4F509F50AF50BF50CC3E578941FE5771D
:1011C10094005024122AA9EFD39400401B1225E069
:1011D1000578E578AC7770020577142485F582747B
:1011E100003CF583EFF080D1C3E5789407E577946F
:1011F100005003021311121A809407EE9400500359
:101201000212E07485250AF58274003509F583E040
:101211006455600A050AE50A70DC050980D8748600
:10122100250AF58274003509F583E064AA600A0590
:101231000AE50A70C1050980BD7487250AF5827423
:10124100003509F583E06004740280387489250A49
:10125100F58274003509F583E0FE748A250AF5826A
:1012610074003509F583E07C002400FFEC3ECF24B7
:1012710007F50CE43FF50BD3E50C9426E50B940040
:1012810040097403250AF50AE4804D121A80950C71
:10129100EE950B404A121AD7FA7B01E50C24FFFDAB
:1012A100E50B34FFFC1229FFE50A250CFDE50935A4
:1012B1000BFC74842DF58274003CF583E06F6009AA
:1012C1007403250AF50AE4800FAF0AAE09120AC3B6
:1012D100E50C250AF50AE50B3509F5090211F7C3F5
:1012E100E578950AF578E5779509F577D3E578946A
:1012F10000E57794004019121AD7752101F522896A
:10130100238577248578257B017A0079851217E07A
:0113110022B9
:102B5C00121ACD755B01755C00755D669000817411
:032B6C00FFF02255
:10142400019E00049A00000000603C00C301010317
:1014340002040265046602670168026902710172AE
:101444000173017402750176047704780479027AD1
:10145400017B047C027D0282048304840485048667
:091464000487048804890496043D
:1027E400AB1EAA1FA920AD22AC2122900023E0FE3B
:1027F400A3E0FFE48F2D8E2CF52BF52A22E0FFE4D5
:102804008F2DF52CF52BF52A22E0FFE4FCFDFEC309
:032814000204D0EB
:0D2BB100E4FDFC7F041221A3787976012257
:102AC700E4FEEF7004FFFD8006EEFF7E007D01123D
:0D2AD7002BBEAE07EEFD7C007FB10221A3F7
:03001E00022BD7DB
:101471007D017F0112159D9000137F711215569009
:10148100002D1228017F03121563900063E0FFB461
:10149100FF05E4F516801EEFB4C805751602801528
:1014A100EFB42805751603800CEFB4140575160406
:1014B1008003751605AD167F651215A890003012D0
:1014C10027F27F661215639000227F6712155690EE
:1014D10000251228017F6812156EE47B107A27F926
:1014E100F890000E12051312041AC374329F1228C9
:1014F100027F6912156E7880E67F72121586900060
:101501005E1228017F04121592900012E07F73127F
:1015110015861227EF7F7412159290005C7F761268
:10152100157990002E7F771215797D017F7812153C
:10153100A87896E6FE08E61227F67F79121D4E7FFF
:10154100647E001229B0AD3E7F7A12159DE4FDFC48
:051551007FB40221A39C
:10155600E0FD12255F7F647E001229B022121D4E27
:101566007F647E001229B022121D4E7F647E001217
:1015760029B022E0FD1227127F647E001229B022D4
:10158600FD12255F7F647E001229B022121D4E7F58
:10159600647E001229B02212255F7F647E00122924
:0D15A600B0221227127F647E001229B022AD
:102B6F00122BE28F257D017F0112255F8F247F02BB
:012B7F002233
:10245000E4F528122BFD8F278E268D258C249000E5
:102460002DAB27AA26A925A82412280D70037528AC
:1024700001AF2790002DEFF0FE900036F0122803F8
:102480007F03121D4EBF010AE52860037F02227FF1
:0424900001227F00A6
:012494002225
:1028D600E4F524122BFD90005EE0B5070375240194
:1028E60090005EEFF01228037F04121D4EBF010A0E
:0C28F600E52460037F02227F01227F00A6
:0129020022B2
:101F1C00E4F524122BEB789EE6B50703752401EF4C
:101F2C0014601014601514601A14601F14602424BB
:101F3C0005702890006374FFF0802090006374C8D3
:101F4C00F080189000637428F08010900063741473
:101F5C00F0800890002FE0900063F0789EEFF6FD83
:101F6C007F65122712BF010AE52460037F02227FDE
:041F7C0001227F00BF
:011F8000223E
:10224500E4F528122BFD8F278E268D258C249000F2
:1022550030E0FEA3E0FFE4FCFDAB27AA26A925A8F4
:1022650024C31204D07003752801AE26AF27900051
:1022750030EEF0A3EFF01227F77F66121D4EBF0177
:0D2285000AE52860037F02227F01227F000E
:012292002229
:10292F00E4F524122BE2900022E0B5070375240191
:10293F00900022EFF0FD7F6712255FBF010AE524AB
:0A294F0060037F02227F01227F0057
:01295900225B
:1025A000E4F528122BFD8F278E268D258C24900094
:1025B00025AB27AA26A925A82412280D7003752863
:1025C00001AF27900025EFF01228037F68121D4EFF
:0F25D000BF010AE52860037F02227F01227F00FE
:0125DF0022D9
:101DC400E4F528122BFD8F278E268D258C24789AF6
:101DD400120507AB27AA26A925A824C31204D0708C
:101DE40003752801AF27AE26AD25AC24789A1205D9
:101DF4002BC374329527FFE49526FEE49525FDE474
:101E04009524FCE47B107A27F9F812038F90000ED6
:101E1400120537789A1205078F2D8E2C8D2B8C2A5C
:101E24007F69121D4EBF010AE52860037F02227FED
:041E340001227F0008
:011E38002287
:10295A00E4F524122BE2900013E0B5070375240175
:10296A00900013EFF0FD7F7112255FBF010AE52485
:0A297A0060037F02227F01227F002C
:012984002230
:10269A00E4F524122BE27880E6B507037524017865
:1026AA0080EFF6122AC77880E66008E4FDFC7FB462
:1026BA001221A37880E6FD7F7212255FBF010AE529
:0B26CA002460037F02227F01227F00BA
:0126D50022E2
:10298500E4F524122BE2900012E0B507037524014B
:10299500900012EFF0FD7F7312255FBF010AE52459
:0A29A50060037F02227F01227F0001
:0129AF002205
:10000300122BE2EF600FE4900023F0A3F01227EF2E
:070013007F74121D4E7F02F5
:01001A0022C3
:10290300122BEBAD07ED146016047016900064E40F
:10291300F0A304F090003504F090002EF0800375CE
:0B2923003E017F781227128F247F02F4
:01292E002286
:10274800E4F524122BFD7896E6FC08E6B50707EEBB
:10275800B504037524017896EEF608EFF61227F70C
:102768007F79121D4EBF010AE52460037F02227F94
:0427780001227F00BB
:01277C00223A
:102B4700122BE2EF6003753E01E4FD7F7A12255FE9
:042B57008F247F0246
:012B5B002257
:1020F400E4F527122BEB8F25E52514603704703C9B
:102104007880E664017035F526E52625E02481F81B
:10211400E6FA08E6FB4A600A7D017F7812214C75D5
:1021240027010526E526C3940840DEE527600D75E2
:102134003E018008E4FDFC7FB41221A3AD257F7B22
:072144001227128F247F0215
:01214B002271
:10251D00122BEB8F25E52514601514601714601927
:10252D0014601B14601D2405701C122C2A801712B8
:10253D002C2D8012122C21800D122BF480081200EC
:10254D00218003122495AD257F961227128F247FAB
:01255D00027B
:01255E00225A
:0616EB008B1E8A1F8920FE
:1016F100EF120590172C01173703174204174D6598
:10170100175866176367176E681779691784711719
:101711008F7217997317A37517AD7817B77917C11A
:101721007A17CB7B17D596000017DD1227E4122B11
:101731006F8F230217DD1227E41224508F23021723
:10174100DD1227E41228D68F230217DD1227E412B7
:101751001F1C8F230217DD1227E41222458F23025B
:1017610017DD1227E412292F8F230217DD1227E438
:101771001225A08F230217DD1227E4121DC48F2327
:101781000217DD1227E412295A8F230217DD1227CF
:10179100E412269A8F2380441227E41229858F238D
:1017A100803A1227E41200038F2380301227E412BB
:1017B10029038F2380261227E41227488F23801CB8
:1017C1001227E4122B478F2380121227E41220F4F0
:0E17D1008F2380081227E412251D8F23AF23DB
:0117DF0022E7
:032C27007F1E22EB
:032C2A00022B80FA
:032C2D00022B91E6
:062C2100122495022BB104
:092BF4007D017C007F040221A395
:0100210022BC
:1024950090000E12054300009C4090006374FFF00D
:1024A500900030E4F0A37405F090002D740AF090CC
:1024B50000257401F0900022F0E47880F690001376
:1024C500F0900012F090005E7464F0789676030840
:0524D50076E8021AE1A7
:102B8000C2AF75FDF075FC0F75FD8775FC78D2AF8F
:012B90002222
:102B9100C2AF75FDF075FC0F75FD7875FC87D2AF7E
:012BA1002211
:0F2BA20064646E6F6861663600312E302E30002D
:03146D0001570024
:101E39007489250EF5827400350DF583E07514005B
:101E4900F513748A250EF5827400350DF583E025A6
:101E590014F514E43513F51322350DF583E0F8E490
:101E690022E026F618E436F622748B250EF58274E4
:101E790000350DF583E02212051378101204E1AD47
:101E8900072212051378081204E1AD072274AA2F5C
:101E9900F974003EFA7B0122E475F0011205800213
:021EA900027DB8
:101B9400E4FFFE900048E0C4F854F0C8A3E0C45445
:101BA4000F48FD122BBE7E0090002FE0FD122BBECD
:101BB4007E00C006C007900016121E80D007D00613
:101BC400122BBE7E00C006C007900016121E8BD0DA
:101BD40007D006122BBE7E00C006C00790001E125E
:101BE4001E80D007D006122BBE7E00C006C0079010
:101BF400001E121E8BD007D006122BBE7E00C0061C
:101C0400C00790000E121E80D007D006122BBE7E95
:101C140000C006C00790000E121E8BD007D006121B
:0B1C24002BBEEFFD7C007FC00221A35F
:082C0500E4FDFC7FC10221A3E4
:0C2BBE00121E96ED1202C30FBF00010EA4
:012BCA0022E8
:0A287A008E178F188B198A1A891B1C
:10288400121E96851921851A22851B23851C2485F1
:102894001D251217E0E51D2518F518E51C3517F55B
:0428A40017FEAF1854
:0128A800220D
:10265D008B308A3189328C338D34E94A4B602DE5CC
:10266D003445336027E5341534AE33700215334EDF
:10267D00601AAB30AA31A93212027DFF12001E740E
:0D268D00012532F532E43531F53180D922D6
:0A29FF008B308A3189328C338D341D
:102A0900E4FFFDFCC3ED9534EC9533500E7830129C
:0B2A19001EA12FFF0DBD00010C80E985
:012A2400228F
:0421A3008C2E8D2FC2
:1021A7009000A47455F0A374AAF0E4A3F0A3EFF091
:1021B700E52EA3F0E52FA3F02407F52FE4352EF540
:1021C7002E7B017A0079A4E52F24FFFDE52E34FF4D
:1021D700FC1229FF74A3252FF5827400352EF58391
:0F21E700EFF07B017A0079A4AD2FAC2E02265DBC
:102A6B00E4FFE557700AFEFD122BBE755701800778
:102A7B007E007D01122BBEEFFD7C00E4FF0221A343
:1026D600E4F5167A2B79A21227027A2B79A2122810
:1026E6007A8F167A2B79AB1227027A2B79AB1228BE
:0C26F6007A8F16EFFD7C007F010221A30B
:102702007BFF1224DA8E1C8F1DAF167E007BFF2208
:082C0D00E4FDFC7F020221A39B
:022A4A008F1DDE
:102A4C00122C27E4FEEEC39F501275F002EE90009C
:0E2A5C00C3120574E0651D60030E80E9AF062D
:012A6A002249
:062099008B168A1789185E
:10209F0012027DF519900001120296F51A900002B6
:1020AF00120296751C00F51B900003120296251C58
:1020BF00F51CE4351BF51BAF19122A4A75F002EF18
:1020CF009000C4120574E0651A60037F0022AB16FE
:1020DF00E5182404F9E43517FA851B21851C22AF76
:0420EF00191216EBC1
:0120F30022CA
:040AC3008E0D8F0EF7
:100AC70074882FF58274003EF583E0FF1205900BC2
:100AD7000F000B12010B15020B18030B4E040B55DD
:100AE700060D79080AFBB10BCBB40B09C00B0CC17F
:100AF70000000D7C121E726003020D7CFDFC7FB4AA
:100B07008042021B94022C05022A6B0226D6022C75
:100B17000D121E72FF900081F0BF020E121AE11231
:100B27001471E4F5377879F68015900081E0FFB409
:100B370001057537018008EF75370178797601E48B
:100B4700FDFC7F030221A39000847401F022121E92
:100B570039E4F511F512C3E5129514E51195134023
:100B670003020D7CE50E2512FDE50D3511FC748D94
:100B77002DF58274003CF583E0751000F50F748E37
:100B87002DF58274003CF583E02510F510E4350F50
:100B9700F50F748B250EF97400350DFA7B01E925E5
:100BA70012F9EA3511FA122099BF0103121AE1E589
:100BB700102404FFE4350FFEEF2512F512EE351170
:100BC700F5118092121E39121E72F515748C250EBE
:100BD700F5827400121E627982F7E819F7748D2581
:100BE7000EF5827400350DF5837882121E6A748EB5
:100BF700250EF5827400121E627984F7E819F774DE
:100C07008F250EF5827400350DF5837884121E6AE0
:100C17007490250EF5827400121E627986F7E81922
:100C2700F77491250EF5827400350DF583E078860B
:100C3700121E6B7492250EF5827400121E6279885B
:100C4700F7E819F77493250EF5827400350DF583CF
:100C5700E07888121E6B7494250EF5827400121EBC
:100C670062798AF7E819F77495250EF582740035CD
:100C77000DF583E0788A121E6B7496250EF5827443
:100C870000121E62798CF7E819F77497250EF58222
:100C97007400350DF583E0788C121E6B7498250E61
:100CA700F5827400121E62798EF7E819F774992598
:100CB7000EF5827400350DF583E0788E121E6B7485
:100CC7009A250EF5827400121E627990F7E819F7DB
:100CD700749B250EF5827400350DF583E07890122C
:100CE7001E6B7882E6184660047D018002E4FD7F72
:100CF700821227127884E6184660047D018002E498
:100D0700FD7F831227127886E6184660047D0180EE
:100D170002E4FD7F841227127888E6184660047D76
:100D2700018002E4FD7F85122712788AE618466063
:100D3700047D018002E4FD7F86122712788CE61875
:100D47004660047D018002E4FD7F87122712788EBA
:100D5700E6184660047D018002E4FD7F88122712B1
:100D67007890E6184660047D018002E4FD7F8902E1
:050D77002712121471A7
:010D7C002254
:102AA900E55B855C83855D826558700AE55A6582B8
:0E2AB9007004E559658360037F01227F0022CF
:1025E000AB5BAA5CA95DE558855983855A82655B1A
:1025F000700AE55D65827004E55C65836021C390C7
:102600000081E55D9582E55C9583400D7A007966F1
:0F261000755B01755C00755D66785B121EA1FF3E
:01261F002298
:10002600020268E86480F8E933E83360110460F09E
:10003600ED33EC337009E8FCE9FDEAFEEBFF220440
:1000460060DED3EB9FEA9EE99DE8C2E78CF0C2F73B
:1000560095F0400CE8CCF8E9CDF9EACEFAEBCFFB07
:1000660012023385D0F05804700320D5B3E804702B
:10007600075002B2D502027292D5EC0460F7E4CCC6
:10008600C0E0C398F8603B94186008400DD0E0FBD0
:1000960002024AE4FBFAC9FC8028E830E406E4C917
:1000A600FBE4CAFCE830E305E4C9CACBFCE8540724
:1000B6006010F8C3E913F9EA13FAEB13FBEC13FC2F
:1000C600D8F130F52FC3E49CFCEF9BFFEE9AFEEDD2
:1000D60099FDD0E0FBEF4E4D4C701222DB0302027D
:1000E6006FEC2CFCEF33FFEE33FEED33FDED30E726
:1000F600EB02024AEF2BFFEE3AFEED39FDD0E0FBB4
:1001060050130BBB0003020272ED13FDEE13FEEF5C
:0801160013FFEC13FC02024A86
:10011E00020272EC5D046005E85904700302026885
:10012E00120233580460F6EC4860F2EC7004FDFEE7
:10013E00FF22C860DB2481C85009C39860025006B4
:10014E0002026F9850CAF582E9294B4A7005AB82BC
:10015E0002025E75F0007C1A7880C3EF9BEE9AED7A
:10016E0099400DC3EF9BFFEE9AFEED99FDE842F02C
:10017E00DC23ACF0D0E0FFD0E0FED0E0FDAB82207F
:10018E00E7101BEB60BAEC2CFCEF33FFEE33FEED09
:10019E0033FD02024AE803F830E705C0F075F000BF
:1001AE00EF2FFFEE33FEED33FD40B830E7C280AAED
:1001BE0075F020800E75F010800575F0087D007EBC
:1001CE00007F003392D530D5031204ACEC334010CF
:1001DE00EF33FFEE33FEED33FDEC33FCD5F0ED22C5
:0E01EE00E5F0247EA2D513CC92E7CDCEFF2201
:1001FC00EDD2E7CD33EC3392D524814006E4FFFEFB
:10020C00FDFC22FCE4CFCECDCC24E0501174FF8059
:10021C00EDC3CC13CCCD13CDCE13CECF13CF0470F6
:07022C00F030D5DE0204AC46
:10023300E9D2E7C933E833F892D5EDD2E7CD33EC11
:0702430033FC5002B2D5228A
:10024A00EC30E7100FBF000C0EBE00080DBD000415
:10025A000BEB6014A2D5EB13FCED92E7FD2274FFC1
:10026A00FCFDFEFF22E480F8A2D574FF13FC7D801A
:03027A00E480EF2E
:101CCE00020D7DE493A3F8E493A34003F68001F2A2
:101CDE0008DFF48029E493A3F85407240CC8C33317
:101CEE00C4540F4420C8834004F456800146F6DFE6
:101CFE00E4800B0102040810204080901312E47E51
:101D0E00019360BCA3FF543F30E509541FFEE493DA
:101D1E00A360010ECF54C025E060A840B8E493A3A1
:101D2E00FAE493A3F8E493A3C8C582C8CAC583CACC
:101D3E00F0A3C8C582C8CAC583CADFE9DEE780BE84
:01147000007B
:10027D00BB010689828A83E0225002E722BBFE027F
:09028D00E32289828A83E49322B2
:10029600BB010CE58229F582E5833AF583E022501D
:1002A60006E92582F8E622BBFE06E92582F8E22267
:0D02B600E58229F582E5833AF583E4932281
:1002C300BB010689828A83F0225002F722BBFE011A
:0202D300F32214
:1002D500F8BB010DE58229F582E5833AF583E8F05F
:1002E500225006E92582C8F622BBFE05E92582C80B
:0202F500F222F3
:1002F700EF8DF0A4A8F0CF8CF0A428CE8DF0A42E1B
:02030700FE22D4
:10030900BC000BBE0029EF8DF084FFADF022E4CCD8
:10031900F875F008EF2FFFEE33FEEC33FCEE9DECA1
:10032900984005FCEE9DFE0FD5F0E9E4CEFD22EDE7
:10033900F8F5F0EE8420D21CFEADF075F008EF2F31
:10034900FFED33FD4007985006D5F0F222C398FD22
:050359000FD5F0EA22BF
:10035E00C5F0F8A3E028F0C5F0F8E582158270022A
:06036E001583E038F022C7
:0D037400EF2BFFEE3AFEED39FDEC38FC22D8
:0E038100C3EF9BFFEE9AFEED99FDEC98FC2277
:10038F00E88FF0A4CC8BF0A42CFCE98EF0A42CFC0D
:10039F008AF0EDA42CFCEA8EF0A4CDA8F08BF0A48B
:1003AF002DCC3825F0FDE98FF0A42CCD35F0FCEBEA
:1003BF008EF0A4FEA9F0EB8FF0A4CFC5F02ECD39AF
:0F03CF00FEE43CFCEAA42DCE35F0FDE43CFC221C
:1003DE0075F008758200EF2FFFEE33FECD33CDCCD6
:1003EE0033CCC58233C5829BED9AEC99E582984059
:1003FE000CF582EE9BFEED9AFDEC99FC0FD5F0D636
:10040E00E4CEFBE4CDFAE4CCF9A88222B800C1B95F
:10041E000059BA002DEC8BF084CFCECDFCE5F0CB9D
:10042E00F97818EF2FFFEE33FEED33FDEC33FCEBD6
:10043E0033FB10D703994004EB99FB0FD8E5E4F991
:10044E00FA227818EF2FFFEE33FEED33FDEC33FC7E
:10045E00C933C910D7059BE99A4007EC9BFCE99A72
:10046E00F90FD8E0E4C9FAE4CCFB2275F010EF2FB7
:10047E00FFEE33FEED33FDCC33CCC833C810D707B7
:10048E009BEC9AE899400AED9BFDEC9AFCE899F8F2
:0E049E000FD5F0DAE4CDFBE4CCFAE4C8F92285
:0E04AC00C3E49FFFE49EFEE49DFDE49CFC2261
:1004BA00EB9FF5F0EA9E42F0E99D42F0EC6480C8B9
:0604CA0064809845F02259
:1004D000EB9FF5F0EA9E42F0E99D42F0E89C45F082
:0104E00022F9
:1004E100E8600FECC313FCED13FDEE13FEEF13FFF9
:0304F100D8F1221D
:1004F400E8600FEFC333FFEE33FEED33FDEC33FC66
:03050400D8F12209
:0C050700E6FC08E6FD08E6FE08E6FF2220
:0C051300E0FCA3E0FDA3E0FEA3E0FF225B
:0C051F00E0F8A3E0F9A3E0FAA3E0FB225F
:0C052B00ECF608EDF608EEF608EFF622FC
:0C053700ECF0A3EDF0A3EEF0A3EFF02237
:10054300A8828583F0D083D08212055A12055A12ED
:10055300055A12055AE473E493A3C583C5F0C58312
:10056300C8C582C8F0A3C583C5F0C583C8C582C802
:010573002265
:0C057400A42582F582E5F03583F5832292
:10058000FAE6FB0808E6F925F0F618E6CA3AF6227C
:10059000D083D082F8E4937012740193700DA3A3FA
:1005A00093F8740193F5828883E47374029368600E
:0605B000EFA3A3A380DF0E
:00000001FF
