:03000000021C4996
:0C1C4900787FE4F6D8FD758185021C90C0
:10126100045000000000410006004100420C410012
:101271004340440039000000004400180000000011
:1012810044001C0000000044005F00000000440016
:1012910049000000004400650000000042002D00EC
:1012A10001420016000041000D00410037004200DC
:1012B1006A000042000E00004100000841004500A4
:1012C1000154000155004100150041002401410075
:1012D1002F0A410048004100440A41003600410004
:1012E100380042000B000041000200027F000002B2
:1012F1007D0000106C0000000000000000000000F4
:101301000000000000016B00016A0001680041005B
:101311000A0041000700410014004200250000427C
:10132100003400004100630041000300420004005A
:10133100004100010041002C00410030004100410A
:1013410000017C00016900420046000050004F008E
:10135100000000000000000000000000000000424A
:041361000008000080
:1013A800EF24A0FFEE340FFEE43DFDE43CFC120503
:1013B8001FD30204D0E4900045F09000437440F03D
:1013C8009000377402F09000007406F0E490000674
:1013D800F090005F22900018120513900039120552
:1013E8001F12037490001812053790001802051395
:1013F80090003912051FC30204D0E4FCFD120374E7
:1014080090006502053790003D120513EF2470FF28
:10141800EE3417FEE43DFDE43CFC90001822122A4D
:1014280061E47BE87A03F9F8900010020513E4758B
:10143800F00102035E900043E0FF900006E0C39FC6
:1014480022D390002EE0940090002DE09400221208
:10145800051390001C12051F0203741202F7AC0654
:10146800AD07E41201C3E4FBFA79C878420201210E
:101478007F647E00022A61900010020537900039CF
:10148800020513E4FFFEFD7C3F12002D0201FCD390
:1014980090006BE0940090006AE094002290002F86
:1014A800E0900044F0227F0A122691900031EFF07C
:1014B80090006422F090004902051390006502052F
:1014C8001FD39DEC6480F874809822E47B02FAF9BB
:1014D800F802041A90001802051F7E2F1229997F1E
:0414E800107E272229
:102892008E098F0A8B0B8A0C890DAF051DEF602103
:1028A200050AE50AAE097002050914F5828E83E471
:1028B20093FF780BE475F001120580EF1202C380DA
:0228C200D92219
:102924008F828E83E4F553F552F551F550AF82AEA4
:1029340083E4FCFDAB53AA52A951A850C31204D09E
:08294400500543BD1080E6229E
:092A5800E0FF7C2F12294C7F6481
:102A6100E4FDFCC3ED9FEC9E50070DBD00010C8001
:012A7100F272
:012A72002241
:10000300758E5190FE917401F0A37410F075BD5F6D
:0700130090FEA07420F02212
:1029FF00E490FE80F0758901758DFA758BCB43A835
:0E2A0F0008438840758CCB758AEB43881022F3
:1028C40090FF10E054F04408F090FF02E054F0440C
:1028D40002F0D28490FFA07420F0A37404F075CCAD
:1028E4000675CEFF75CD98759E0275981043A81095
:0128F40022C1
:102A8D0043B40343B4807F147E00122A6175B501EF
:072A9D0090FE9B744BF02238
:102A730090FF08E04488F090FF00E0540F4430F0EA
:0A2A830090FF11E054F04403F0222C
:0B2B03008F99E59830E1FB5398FD220C
:102691008FB543B440E5B430E5FB53B4DF12147891
:1026A100E4FBFAF943B440E5B430E5FB53B4DFE5AC
:1026B100B62BFBE5B73AFA7F147E00122A6109B9FD
:0C26C10010E275B501A902121478AF01F7
:0126CD0022EA
:100F8A007B017A00794F7D107F007E2F1228929084
:100F9A00004FE0FFE4FCFDFE12147F1214307808C3
:100FAA001204F412147F90001012051F900050E0F2
:100FBA00FFE4FCFDFE12037412147F121430E47B6A
:100FCA00E87A03F9F812038F12147FE47F307E75F2
:100FDA00FDFC9000101213FB40107F007E097D3D3E
:100FEA007C009000101213B6400A900010120543BC
:100FFA0000009C40900051E0900069F07002800768
:10100A00900069E0B4FE0374FFF0900052E0FF9094
:10101A000032E4F0A3EFF0E0F8E4F0E8900032F0F8
:10102A00900053E0FF900032E48FF012035E9000CC
:10103A0032E0FEA3E0FF4E6009D3EF9408EE940776
:10104A004009900032E4F0A37405F0900054E09057
:10105A00002FF0900038F0900055E0900027F060E3
:10106A0006E0D394FF40069000277401F0900056E2
:10107A00E0F45401900024F0900057E05401786B9A
:10108A00F6A3E05401900015F0900059E054019045
:10109A000014F090005AE090000AF07B017A00797F
:1010AA00087D027F807E2F122892900008E090002F
:1010BA0036F0900009E0900007F07F807E2F122919
:1010CA00997F107E27122A61900036E004F0E0FF33
:1010DA007D807C2F12294C121478900007E070034F
:1010EA00022ADD900007E0FFB4010A7D817C2F12FD
:0610FA00294C12147822BB
:1005B600E5546003020A8D43B440E5B430E5FB53CD
:1005C600B4DF85B70985B60A9000161214361214E0
:1005D600C3AE09AF0A12140290004DE0FEA3E0FF7D
:1005E600C3950AEE9509500DC3E50A9FF50AE5097C
:1005F6009EF509800BC3EF950AF50AEE9509F509F4
:1006060090001C12051FAE09AF0AE4FCFD1203742C
:1006160090001C120537900016E05401FEA3E04E30
:1006260070521214974017900044E09464503DE0D5
:100636002402F0E0D3946440337464F0802E90007A
:100646000EE07004A3E06401702A90002FE0FF9092
:100656000044E0FED39F4014EE94024004E024FEE2
:10066600F0900044E0C39F50031214A5900044E0AC
:10067600FF122004C3900016E094205003020ABC27
:1006860043BD10E4F0A3F0900045E0041214BC90C2
:10069600006512145D900049120537900045E0C3CD
:1006A60094084030E41214BC78101204E19000491A
:1006B6001205371214BD90004DEE8FF012035E90B6
:1006C600004DE0C313F0A3E013F090004912054378
:1006D60000000000900000E0C394085005E004F01C
:1006E600804090006AE07002A3E070361214AEE01B
:1006F600FE2402FDE433FCEF1214C95018900031B9
:10070600E02402FDE433FCEE1214C95008900064A4
:10071600E0900031F0900031E0900064F0E4900049
:1007260000F0E4FFFEFDFC9000181213FB703690FB
:10073600001C120513EF2488FFEE341312141B124B
:10074600053790002DE07002A3E070197F407E42CD
:100756007D0FFC9000181213B6400A90001812057F
:1007660043000F4240900006E0701690001C1205F0
:100776001390003912053790002812054300000037
:10078600019000281214571213F8400302093B90F7
:10079600002812051390003912145D90001C1213E4
:1007A600FB400302093B900006E004F090005F1254
:1007B600145790005F120537900006E0FFFBE4FA3D
:1007C600F9F890005F12051312041A900039120509
:1007D6003712148578031204E1900028120537E4D5
:1007E6007F207E4EFDFC9000281213FB500A9000DD
:1007F6002812054300004E20E47F607EEAFDFC904F
:1008060000281213B6400A9000281205430000EA99
:10081600601214859000181213B6403E90003912EB
:10082600051F1213F21203811214087F807E387D91
:10083600017C009000651213B640089000427406D1
:10084600F0801DE47F407E9CFDFC9000651213B68F
:1008560090004240087409F08006900042740CF043
:10086600900042121440403B1213F21213F8503318
:10087600900043E09410500302094A900042E0D3EE
:1008860094095005121485801112148590001812CF
:1008960013A8400C1213DD1214D39000181205375A
:1008A60002093B12143D500302094A1213F290004A
:1008B600391213A840771214DC1214851203811220
:1008C60014087F007E127D7A7C001213F8505E7F3A
:1008D600807E1A7D067C009000651213FB504E90B8
:1008E6000043E09410400280387FE07E937D047CD4
:1008F600009000651213B640089000437410F08013
:100906001B7FF07E497D027C009000651213B69035
:1009160000434005740CF080037408F012143D4047
:100926000C1213DD1214D390001812053712143D61
:100936004012E48004E4900006F090005F12054344
:1009460000000000900037E0D394004036E014F039
:1009560012140E1213B65003020A4990003D1205F6
:1009660013EF2498FFEE343AFEE43DFDE43CFC90A0
:10097600001C1213FB4003020A4912140E1205371B
:10098600020A49121449405774FFF5F012035E1229
:100996001449404B7F007E127D7A7C00900018122D
:1009A60013B6400C900010120543000C3500802F42
:1009B6001214301214DC1214057F407E547D897C9B
:1009C600009000651213B640161214DCC374409BE7
:1009D600FF74549AFE748999FDE498FC12147F12F0
:1009E600143090001812145D90001C1213B6405378
:1009F600900069E0FF900031E0D39F400512144952
:100A0600404190006AE07002A3E070091213F29070
:100A1600003D12053790006AE4F0A304F0786AF608
:100A260090002512143690002C7401F09000437447
:100A360008F0E490000EF0A3F0787FF608F6787DD3
:100A4600F608F69000651205430000000090001CB1
:100A56001205430000000090006AE0FEA3E0FFD309
:100A66009400EE9400404F900032E0FCA3E0FDD3EA
:100A7600EF9DEE9C4040E490006AF0A3F0755401AF
:100A8600786AF67868F62290000EE4F0A304F0E4A3
:100A9600F55490000BF0A3F0900002F07FFAFE12DE
:100AA6002924900049120543000000001213BD12CC
:060AB600054300000000F2
:010ABC002217
:1020C400E4F50A90006512054300000000E4F509F8
:1020D40043B440E5B430E5FB53B4DF1214C3AFB6E8
:1020E400AEB71214020509E509B480E47F907E01BD
:1020F400122924900065120513780B1204E18F094C
:10210400E509D3940C400CE509948D5006E50A9436
:0D21140014500A050AE50AD3945040A72292
:01212100229B
:1021220090006512054300000000E4F509E4F50C97
:10213200F50D43B440E5B430E5FB53B4DF85B70A8F
:1021420085B60B1214C3AE0AAF0B121402050DE5CD
:102152000D7002050CB400DAE50CB420D543BD10B5
:102162000509E509B408C690006512051378101236
:0A21720004E190004DEEF0A3EFF041
:01217C002240
:10233200BF0105E4FCFD802E7E007C017DFF1202C0
:10234200F71C7D64120309AC06AD07E41201C38FCA
:102352002B8E2A8D298C28AB2BAA2AA929A82812D0
:10236200148BAC06AD0790FF907411F075DA01750D
:0E237200E30175E2FF8CE58DE475E10F7F005D
:01238000223A
:1027BF00BF0104E4FE801E7E007C007DFF121463C7
:1027CF008F2B8E2A8D298C28AB2BAA2AA929A828D2
:1027DF0012148BAE0790FF9C7410F075DEFF8EDF26
:0527EF0075DD947F0080
:0127F40022C2
:022004008F2625
:10200600787CE6B526037F0022787CA626E5267036
:1020160006900063048016E526B4640CE490006321
:10202600F090003004F0800B9000637402F0E490AE
:102036000030F0E526FD7C0090000AE0FF7E0012ED
:102046001463E4FBFAF9783F1214918F27C3E5264F
:0D2056009527FF122332AF271227BF7F000E
:01206300225A
:100D5E00122ABB120003122A731229FF1228C41280
:100D6E002A8D75BBAA90FEA774FFF053BBF7D2AFC6
:100D7E007FC87E001229241214AEF0C2AF120F8A61
:100D8E007F64122004D2AF1220C490002FE0FF9097
:100D9E000044F01220047F2C7E01122924122122FD
:100DAE0090006512054300000000900036E0D394D9
:100DBE00034005E4F0122ADD7869E660237F6412B1
:100DCE000F7FE4FF120F7F900046121436C390007F
:100DDE0047E0942C900046E094014004E47869F6D4
:100DEE00900003E0FF900063E0FD6F600D7F7612D0
:100DFE0027F5900063E0900003F0900041E0FF9033
:100E0E000030E0FD6F600D7F771227F5900030E027
:100E1E00900041F0900001E06401704190002CE0E0
:100E2E00B4013AE4900001F090002CF0900025E01F
:100E3E00FEA3E0FF900034E06E7003A3E06F601D30
:100E4E00E48F2D8E2CF52BF52A7F74121E42900006
:100E5E0025E0FFA3E0900034CFF0A3EFF043BD10E8
:100E6E00E554700B900017E0541F700312110090A0
:100E7E000024E064016003020F4AE555701CF5542E
:100E8E007555011214A5900049120543000000008B
:100E9E001213BD120543000000001205B6D39000D8
:100EAE000FE0940090000EE094004033900002E0BA
:100EBE00B4012CE4F090000E121437900027E0FFDE
:100ECE00C390000FE09F90000EE094004011E4F0FC
:100EDE00A3F0900014E064016005E4FF12200412F8
:100EEE001497400F787EE6640118467006F608F6F1
:100EFE00121437786BE664016003020DB818E6FF32
:100F0E007868667003020DB8A60790006AE4F0A335
:100F1E0004F0E4F508E508C394084003020DB8E5B3
:100F2E000825E0246CF8E6FA08E6FB4A600A900011
:100F3E0015E0FD7F71121CD5050880D9E4F555909A
:100F4E000015E07007FF122004020DB8900038E083
:100F5E00FF122004E4F5541214A590004912054323
:100F6E00000000001213BD12054300000000020D28
:010F7E00B8BA
:0B0F7F001220047F647E00122924224F
:03001B0002185672
:10185600C0E0C0F0C083C082C0D075D000C000C058
:1018660001C002C003C004C005C006C007AF53AE26
:1018760052AD51AC50EF2401FFE43EFEE43DFDE4E1
:101886003C8F538E528D51F55090000B12143690AA
:10189600000BE0FEA3E0FFE4FCFD7B607AEAF9F8CA
:1018A600D31204BA500C90000BE4F0A3F09000029F
:1018B60004F0788006E618700106C37880E694E89E
:1018C60018E69403400C7600087600787D760008CA
:1018D6007601900004121436C3900005E094E89057
:1018E6000004E094034009E4F0A3F090000104F042
:1018F600D007D006D005D004D003D002D001D00046
:0B190600D0D0D082D083D0F0D0E032EF
:030023000224FDB7
:1024FD00C0E0C0F0C083C082C0D075D000C000C0A5
:0D250D0001C002C003C004C005C006C00725
:0F251A00E59830E00AAF991224B25398FED2AF81
:10252900D007D006D005D004D003D002D001D00006
:0B253900D0D0D082D083D0F0D0E032B0
:1029990053BBF7C280E5BB20E3F6D280C2AF75FD19
:1029A900F075FC0F8EFA8FF975FDD275FC2D75FD4A
:0529B900E175FC1E2287
:10294C0053BBF7C280E5BB20E3F6D280C2AF8FFB4E
:10295C0075FDF075FC0F8CFA8DF975FDB475FC4B9B
:07296C0075FDE175FC1E2260
:101A7C007F001214E212142612041A78081204E1E0
:101A8C007D007C2F12294C7F647E001214261204D8
:101A9C001A7D017C2F12294C1214789000697D025A
:101AAC00122A589000327D03122A58A3E0FF7D04BD
:101ABC00122A5A90002FE0FF7D05122A5A90002717
:101ACC00E0FF7D06122A5A900024E0F4FF7D0712F5
:101ADC002A5A786BE6FF7D08122A5A900015E0FF0F
:101AEC007D09122A5A900014E0FF7D0A122A5A909E
:101AFC00000AE0FF7D0B122A5A7F801214E2122A90
:101B0C00617D807C2FE4FF12294C0D0F12294CD2E1
:011B1C00AF19
:011B1D0022A5
:04136500026600001C
:10160200120296FFE52E4FFFE52DFEE52CFDE52BA0
:101612008F2E8E2D8D2CF52BFC78081204F48F2E34
:101622008E2D8D2C22AF2DAE2CAD2BAC2A1204E1C7
:10163200AD0722AF2DAE2CAD2BAC2A1204E1AD07C3
:1016420022AB07E4FDFC90008DE02274B22FF582FC
:1016520074003EF583E022854E83854F82E54C95EA
:1016620082E54B958322C3E567950AFFE5669509F6
:10167200FEC3EF22AC06AD077F0722E475F001023C
:101682000580AF65AE64AD63AC620204E1FEE54481
:10169200FDE543FCE47BFF22E4F51DF51CF51BF59B
:1016A2001A22120296AB26AA27A92822AF05AE0457
:1016B200AD0322AC06AD077FB222754A01754B001D
:0E16C200754C6C22748F250AF97400350922CC
:101F2A00EFC39430400CEFD39439500674D02FFF8E
:101F3A008022EFC39441400CEFD394465006EF241D
:101F4A00C9FF8010EFC39461400AEFD3946650042E
:101F5A00EF24A9FFEF540FC454F0FFEDC3943040AF
:101F6A000CEDD39439500674D02DFD801EEDC39428
:101F7A00414008EDD394465002800CEDC394614071
:101F8A000AEDD394665004ED24A9FDED540F4207DF
:011F9A002224
:06258B008B178A18891964
:1025910012169AE94A4B7005FFFEFDFC2212169AAB
:1025A100781712167D12027D601AE51D2401FFE4E1
:1025B100351CFEE4351BFDE4351A8F1D8E1C8D1B69
:0C25C100F51A80DCAF1DAE1CAD1BAC1A7F
:0125CD0022EB
:06282B008B398A3A893B5B
:102831008B3F8A408941E94A4B7004FBFAF922E552
:102841003E153EAE3D7002153D4E600B783F1216AF
:0D2851007DED1202C380E8AB39AA3AA93B25
:01285E002257
:0616D0008B1E8A1F892019
:1016D6008B268A27892885212985222A85232BE995
:1016E6004A4B6008E5234522452170077B007A00B6
:1016F600790022D3852A83852B82E5289582E527E2
:1017060095834019E52B2525F9E52A3524FA8A83A0
:101716008982D3E5289582E52795834032E4F52C26
:10172600F52DC3E52D9525E52C9524505BAB29AA0F
:101736002AA92B852D82852C831216A4852D8285B8
:101746002C831202D5052DE52D70D7052C80D38567
:10175600242C85252DD3E52D9400E52C94004028D6
:10176600AB29AA2AA92BE52D24FFFFE52C34FFFE81
:101776008F82F5831216A48F828E831202D5E52DF1
:0E178600152D70D1152C80CDAB1EAA1FA920E9
:011794002232
:10285F008F658E648D638C6278181204E1EF12021B
:10286F00C37810121684900001EF1202D578081267
:10287F001684900002EF1202D5E565FF900003EF7A
:03288F000202D56D
:10246700E4F52EF52DF52CF52B12027DFFE48F2ECA
:10247700F52DF52CF52BAE2DAD2CAC2B12161B8C98
:102487002B9000011216028C2B9000021216028C60
:102497002B900003120296FFE52E4FFFE52DFEE578
:0A24A7002CFDE52B121620F52BFC8E
:0124B1002208
:062B380090008EE0FF2278
:0C2AF700E490008EF0FDFC7F040222DF62
:062B3E0090008BE0FF2275
:0823CF008F568B578A5889597B
:1023D700121645B401037F0122AF05AE04AD5612B4
:1023E7002AEAAC06E4FD122AEAAC06E55AFD122AEF
:1023F700EAAC06AD5B122AEAAC06AD07AB57AA58A2
:10240700A959855A1C855B1D1228F51216761222CA
:03241700DF7F0163
:01241A00229F
:022610008D2615
:10261200121643B401037F01221216AE122644E4BD
:10262200FD122644AD07E5267003FD8006AF05AE18
:10263200047D01122AEAAC06AD077F071222DF7F72
:012642000196
:0E26430022122AEAAC067D01122AEAAC062217
:081CD5008F268D278A288B2938
:101CDD00E4FDFCF52A90008DE0B401037F0122AFF5
:101CED0005AE04E528FD122AEAAC06AD29122AEA52
:101CFD00AC06AD26121D47E4FD121D47AD07E527C5
:101D0D007003FD8006AF05AE047D01122AEAAC0614
:101D1D00AD077F087E0012164D252AF52A0FBF004C
:101D2D00010EEF640D4E70EEAF05AE04AD2A122A12
:091D3D00EA1216B51222DF7F0143
:0E1D460022122AEAAC067D01122AEAAC06221D
:081D54008F268D278A288B29B8
:101D5C00E4FDFCF52A90008DE0B401037F0122AF75
:101D6C0005AE04E528FD122AEAAD29121DC3AD26E5
:101D7C00122AEA7D04121DC3E4FD122AEAAC067D88
:101D8C0001122AEAAC06AD27122AEAAC06AD077F8F
:101D9C00087E0012164D252AF52A0FBF00010EEF02
:101DAC00640D4E70EEAF05AE04AD2A122AEA12167F
:061DBC00B51222DF7F01D9
:091DC20022AC06122AEAAC06224A
:101E4200121643B401037F01221216AE122AEAAC23
:101E5200067D02122AEAAC06E4FD122AEAAC067DED
:101E620004122AEAC006C0077818121627D007D033
:101E720006122AEAC006C0077810121627D007D029
:101E820006122AEAC006C007AF2DAE2CAD2BAC2A33
:101E920078081204E1AD07D007D006122AEAAC0690
:101EA200C007E52DFFE4AD07D007122AEA12167625
:051EB2001222DF7F0198
:011EB7002208
:0219C9008F2964
:1019CB00E4FDFCF53090008DE0B401037F0122AF04
:1019DB0005AE04E52EFD122AEAAC06AD2F122AEA5B
:1019EB00AC06AD29122AEAAC067D02122AEAAC0635
:1019FB00E4FD122AEAAC067D04122AEAC006C007EF
:101A0B007818121635D007D006122AEAC006C0077E
:101A1B007810121635D007D006122AEAC006C00776
:101A2B00AF2DAE2CAD2BAC2A78081204E1AD07D04C
:101A3B0007D006122AEAAC06C007E52DFFE4AD0776
:101A4B00D007122AEAAC06AD077F087E0012164DAE
:101A5B002530F5300FBF00010EEF64104E70EEAF66
:101A6B0005AE04AD30122AEA1216B51222DF7F0141
:011A7B002248
:08241B008F5C8B5D8A5E895F16
:10242300121645B401037F0122AF05AE04AD5C1261
:102433002AEAAC067D03122AEAAC06E560FD122AFD
:10244300EAAC06AD61122AEAAC06AD07AB5DAA5E43
:10245300A95F85601C85611D1228F512167612226C
:03246300DF7F0117
:012466002253
:0227F5008D262F
:1027F700121643B401037F01221216AE122AEAAC65
:10280700067D04122AEAAC06E4FD122AEAAC067D2C
:1028170001122AEAAC06AD26122AEA12167612220D
:03282700DF7F014F
:01282A00228B
:02179500AD079E
:10179700E4F547F54890008DE0B401037F0122127C
:1017A70018367D0512184EE4FD12184E74FFFFE53A
:1017B7004512168FFAF9F8C31204D070097D011289
:1017C7001836AD46803D74FFFF12168F7AFFF9F881
:1017D700C31204D070047D0280197D041218427868
:1017E7001812181DAF46AE45AD44AC43781012042D
:1017F700E1AD07121842780812181DE546FFE4AD5F
:1018070007AF48122AEA8E478F48AD48AC477F0793
:051817001222DF7F0139
:10181C0022AF46AE45AD44AC431204E1AD07AF4830
:10182C00AE47122AEA8E478F4822AF48AE47122A9B
:10183C00EA8E478F4822AF48AE47122AEA8E478F6E
:0A184C004822122AEA8E478F482234
:082B0E008C268D2712027DFFC9
:012B1600229C
:082B17008C268D2712027DFFC0
:012B1F002293
:072B20008C298D2A122467A5
:012B2700228B
:1024B2008F38D31216594015E54C954FFFE54B95D1
:1024C2004EFEC3EF941FEE64809480502DC312160B
:1024D20059500DC3E54F954CFFE54E954B4F601A91
:1024E200C390008B12165F40077A00796C1216BCFB
:0B24F200784A12167DE5381202C32262
:10110000E4F509F50AF50BF50CC3E5679423E566EC
:1011100094005024122A1DEFD39400401B12265134
:101120000567E567AC667002056614248FF5827466
:10113000003CF583EFF080D1C3E5679407E5669442
:101140000050030212601216689407EE94005003D8
:1011500002122F748F250AF58274003509F583E099
:101160006455600A050AE50A70DC050980D87490A8
:10117000250AF58274003509F583E064AA600A0542
:101180000AE50A70C1050980BD7491250AF58274CB
:10119000003509F583E06004740280387493250AF1
:1011A000F58274003509F583E0FE7494250AF58212
:1011B00074003509F583E07C002400FFEC3ECF2469
:1011C00007F50CE43FF50BD3E50C942AE50B9400EE
:1011D00040097403250AF50AE4804D121668950C3F
:1011E000EE950B404A1216C6FA7B01E50C24FFFD72
:1011F000E50B34FFFC122973E50A250CFDE50935E2
:101200000BFC748E2DF58274003CF583E06F600951
:101210007403250AF50AE4800FAF0AAE09120ABD6D
:10122000E50C250AF50AE50B3509F509021146C357
:10123000E567950AF567E5669509F566D3E5679470
:1012400000E566940040191216C6752101F5228941
:10125000238566248567257B017A00798F1216D055
:01126000226B
:102ABB001216BC754D01754E00754F6C90008B74E2
:032ACB00FFF022F7
:10136900018500048100000000602E00D101010305
:10137900020402650466026701680269027101726A
:10138900017301740275017604770482048304846D
:0B13990004850486048704880489048E
:1025CE0025E0246CF8E6FA08E6FB4A22AB1EAA1FA9
:1025DE00A920AD22AC212290000AE0FFE48F2DF558
:1025EE002CF52BF52A22900025E0FEA3E0FFE48FC8
:1025FE002D8E2CF52BF52A22E0FFE4FCFDFEC30206
:02260E0004D0F6
:0D2ADD00E4FDFC7F041222DF7869760122FF
:102A3B00E4FEEF7004FFFD8006EEFF7E007D0112C9
:0D2A4B002AEAAE07EEFD7C007FB10222DF1B
:03001E00022B03AF
:1014EC009000007F011215BA9000157F711215BA89
:1014FC0090002F1225E87F031215C7900069E0FFBA
:10150C00B4FF05E4F516801EEFB4C805751602800D
:10151C0015EFB42805751603800CEFB41405751679
:10152C00048003751605AD167F651227F57F647E62
:10153C00001229249000321225F77F661215C790ED
:10154C0000247F671215D29000271225E87F6812BD
:10155C0015DFE47B107A27F9F890001012051312AE
:10156C00041AC374329F1225E97F691215DF786B58
:10157C00E6FD7F721226107F647E0012292412254C
:10158C00E57F041215F79000147F731215D2122503
:10159C00F47F741215F79000637F761215EA9000B1
:0E15AC00307F771215EAE4FDFC7FB40222DFE7
:1015BA00E0FD1226107F647E0012292422121E42A8
:1015CA007F647E0012292422E0FD1226107F647EA9
:1015DA000012292422121E427F647E00122924222C
:1015EA00E0FD1227F57F647E0012292422121E4292
:0815FA007F647E001229242207
:102AA400122B0E900000EFF0FD7F01122610BF01E3
:062AB400037F01227F00F8
:012ABA0022F9
:10206400122B208F278E268D258C2490002FAB27B2
:10207400AA26A925A8241226066028E4F528E5281E
:102084001225CE601585272D85262C85252B8524A4
:102094002A8A2E8B2F7F031219C90528E528C39499
:1020A4000840DBAF2790002FEFF0FE900038F012CD
:0F20B40025EA7F03121E42BF01037F01227F0036
:0120C30022FA
:10223300122B208F2490000AE065246026E4F52504
:10224300E5251225CE6013E485242DF52CF52BF519
:102253002A8A2E8B2F7F041219C90525E525C394DD
:102263000840DD90000AE524F0E4FF12200490000A
:1022730038E0FF1220041225E57F04121E42BF013D
:06228300037F01227F0031
:012289002232
:101DCB00122B178F24E524788566601AE4F525E538
:101DDB00251225CE6007AD247F65121D540525E520
:101DEB0025C3940840E9E5241460101460151460B1
:101DFB001A14601F1460242405702890006974FF66
:101E0B00F0802090006974C8F080189000697428E5
:101E1B00F080109000697414F08008900031E0900D
:101E2B000069F07885A624AD247F651227F5BF01E4
:061E3B00037F01227F007D
:011E4100227E
:101F9B00122B208F278E268D258C24900032E0FE6D
:101FAB00A3E0FFE4FCFDAB27AA26A925A824C312B6
:101FBB0004D06028E4F528E5281225CE6015852786
:101FCB002D85262C85252B85242A8A2E8B2F7F6603
:101FDB001219C90528E528C3940840DBAE26AF27A4
:101FEB00900032EEF0A3EFF01225FC7F66121E423A
:081FFB00BF01037F01227F00FA
:0120030022BA
:10270B00122B0E8F24900024E06524601AE4F5252B
:10271B00E5251225CE6007AD247F67121CD5052554
:10272B00E525C3940840E9900024E524F0FD7F677C
:0B273B00122610BF01037F01227F0067
:012746002270
:10217D00122B208F278E268D258C24900027AB27A0
:10218D00AA26A925A8241226066028E4F528E52804
:10219D001225CE601585272D85262C85252B85248A
:1021AD002A8A2E8B2F7F681219C90528E528C3941A
:1021BD000840DBAF27900027EFF01225EA7F681269
:0A21CD001E42BF01037F01227F00C4
:0121D70022E5
:101BB900122B208F278E268D258C247881120507DC
:101BC900AB27AA26A925A824C31204D06028E4F5C6
:101BD90028E5281225CE601585272D85262C8525F3
:101BE9002B85242A8A2E8B2F7F691219C90528E58E
:101BF90028C3940840DBAF27AE26AD25AC247881F5
:101C090012052BC374329527FFE49526FEE495252A
:101C1900FDE49524FCE47B107A27F9F812038F90F0
:101C2900001012053778811205078F2D8E2C8D2B08
:0F1C39008C2A7F69121E42BF01037F01227F00A8
:011C48002279
:10228A00122B0E8F24900015E06524601AE4F525C0
:10229A00E5251225CE6007AD247F71121CD50525D0
:1022AA00E525C3940840E9E5247006900015F080FE
:1022BA0011900024E0B40104786A76019000157444
:1022CA0001F0900015E0FD7F71122610BF01037F17
:0422DA0001227F005E
:0122DE0022DD
:10238100122B0E8F24E524786B66601AE4F525E59F
:10239100251225CE6007AD247F72121CD50525E5D7
:1023A10025C3940840E9786BA624AF24122A3B7810
:1023B1006BE66008E4FDFC7FB41222DF786BE6FD7A
:0D23C1007F72122610BF01037F01227F00F2
:0123CE0022EC
:10274700122B0E8F24900014E06524601AE4F525FF
:10275700E5251225CE6007AD247F73121CD505250C
:10276700E525C3940840E9900014E524F0FD7F7344
:0B277700122610BF01037F01227F002B
:012782002234
:10254400122B0EEF70037F0122E4900025F0A3F01C
:10255400F524E5241225CE601A900025E0FEA3E0C0
:10256400FFE48F2D8E2CF52BF52A8A2E8B2F7F746A
:102574001219C90524E524C3940840D61225F47F12
:0625840074121E427F01EB
:01258A00222E
:061911008B1E8A1F8920D5
:10191700EF120590194301196503196E04197765CC
:10192700197F66198767198F68199769199F711940
:10193700A77219AF7319B775000019C11225DA120A
:101947002AA48F23E52364017075900048E004F012
:10195700E0C394054069E4F0122ADD0219C6122596
:10196700DA1220640219BD1225DA1222330219BDD8
:101977001225DA121DCB803E1225DA121F9B803604
:101987001225DA12270B802E1225DA12217D8026E6
:101997001225DA121BB9801E1225DA12228A801646
:1019A7001225DA122381800E1225DA1227478006C4
:1019B7001225DA1225448F238000E4900048F0AF07
:0119C70023FC
:0119C80022FC
:032B44007F1722D6
:0F2ACE00386C6D786E6C676700312E302E3000DB
:0313A400014900FC
:101EB8007493250EF5827400350DF583E0751400D2
:101EC800F5137494250EF5827400350DF583E0251D
:101ED80014F514E43513F51322350DF583E0F8E411
:101EE80022E026F618E436F6227495250EF582745B
:101EF80000350DF583E02212051378101204E1ADC8
:101F0800072212051378081204E1AD072274B82FCE
:101F1800F974003EFA7B0122E475F0011205800293
:021F2800027D38
:101B1E00E4FFFE90004DE0C4F854F0C8A3E0C454B6
:101B2E000F48FD122AEA7E00900031E0FD122AEAEB
:101B3E007E00C006C007900018121EFFD007D00608
:101B4E00122AEA7E00C006C007900018121F0AD0A3
:101B5E0007D006122AEA7E00C006C00790002012A7
:101B6E001EFFD007D006122AEA7E00C006C00790DC
:101B7E000020121F0AD007D006122AEA7E00C006E5
:101B8E00C007900010121EFFD007D006122AEA7E60
:101B9E0000C006C007900010121F0AD007D0061210
:0B1BAE002AEAEFFD7C007FC00222DF6E
:082B2800E4FDFC7FC10222DF85
:0C2AEA00121F15ED1202C30FBF00010EF9
:012AF60022BD
:0A28F5008E178F188B198A1A891BA1
:1028FF00121F15851921851A22851B23851C2485F6
:10290F001D251216D0E51D2518F518E51C3517F5F0
:04291F0017FEAF18D8
:012923002291
:1026CE008B338A3489358C368D37E94A4B602DE54C
:1026DE003745366027E5371537AE36700215364E5C
:1026EE00601AAB33AA34A93512027DFF12001E7494
:0D26FE00012535F535E43534F53480D92259
:0A2973008B338A3489358C368D379A
:10297D00E4FFFDFCC3ED9537EC9536500E78331220
:0B298D001F202FFF0DBD00010C80E992
:01299800221C
:0422DF008C318D327F
:1022E3009000B27455F0A374AAF0E4A3F0A3EFF046
:1022F300E531A3F0E532A3F02407F532E43531F5F7
:10230300317B017A0079B2E53224FFFDE53134FFF8
:10231300FC12297374B12532F58274003531F583CB
:0F232300EFF07B017A0079B2AD32AC310226CEF9
:1029DF00E4FFE549700AFEFD122AEA7549018007F6
:1029EF007E007D01122AEAEFFD7C00E4FF0222DF68
:10278300E4F5167A2A79CE1227AF7A2A79CE12285F
:10279300F58F167A2A79D71227AF7A2A79D7122892
:0C27A300F58F16EFFD7C007F010222DFA5
:1027AF007BFF12258B8E1C8F1DAF167E007BFF22A9
:082B3000E4FDFC7F020222DF3C
:0229BE008F1D6B
:1029C000122B44E4FEEEC39F501275F002EE90000D
:0E29D000D1120574E0651D60030E80E9AF06AC
:0129DE0022D6
:0621D8008B168A1789181E
:1021DE0012027DF519900001120296F51A90000276
:1021EE00120296751C00F51B900003120296251C18
:1021FE00F51CE4351BF51BAF191229BE75F002EF65
:10220E009000D2120574E0651A60037F0022AB16AF
:10221E00E5182404F9E43517FA851B21851C22AF35
:04222E001912191157
:012232002289
:040ABD008E0D8F0EFD
:100AC10074922FF58274003EF583E0FF1205900BBE
:100AD10009000B0C010B0F020B12030B2F040B3639
:100AE100060D5A080AF5B10BACB40B03C00B06C1D5
:100AF10000000D5D121EF16003020D5DFDFC7FB46F
:100B01008029021B1E022B280229DF022783022BC8
:100B110030121EF1FF90008BF0BF020AE47869F6F3
:100B2100121A7C1214ECE4FDFC7F030222DF900018
:100B31008E7401F022121EB8E4F511F512C3E5120C
:100B41009514E51195134003020D5DE50E2512FD87
:100B5100E50D3511FC74972DF58274003CF583E0A9
:100B6100751000F50F74982DF58274003CF583E043
:100B71002510F510E4350FF50F7495250EF9740065
:100B8100350DFA7B01E92512F9EA3511FA1221D85E
:100B9100BF0103121A7CE5102404FFE4350FFEEFB8
:100BA1002512F512EE3511F5118092121EB8121EA2
:100BB100F1F5157496250EF5827400121EE1796D1A
:100BC100F7E819F77497250EF5827400350DF58352
:100BD100786D121EE97498250EF5827400121EE1DB
:100BE100796FF7E819F77499250EF5827400350DC0
:100BF100F583786F121EE9749A250EF5827400123E
:100C01001EE17971F7E819F7749B250EF5827400DE
:100C1100350DF583E07871121EEA749C250EF5827C
:100C21007400121EE17973F7E819F7749D250EF52A
:100C3100827400350DF583E07873121EEA749E25E7
:100C41000EF5827400121EE17975F7E819F7749FA9
:100C5100250EF5827400350DF583E07875121EEAD4
:100C610074A0250EF5827400121EE17977F7E81958
:100C7100F774A1250EF5827400350DF583E07877C0
:100C8100121EEA74A2250EF5827400121EE1797912
:100C9100F7E819F774A3250EF5827400350DF58375
:100CA100E07879121EEA74A4250EF5827400121EF2
:100CB100E1797BF7E819F774A5250EF58274003503
:100CC1000DF583E0787B121EEA786DE61846600424
:100CD1007D018002E4FD7F821227F5786FE61846D8
:100CE10060047D018002E4FD7F831227F57871E6BF
:100CF100184660047D018002E4FD7F841227F578A7
:100D010073E6184660047D018002E4FD7F851227A9
:100D1100F57875E6184660047D018002E4FD7F8662
:100D21001227F57877E6184660047D018002E4FD1C
:100D31007F871227F57879E6184660047D018002E5
:100D4100E4FD7F881227F5787BE6184660047D0173
:0C0D51008002E4FD7F890227F51214ECFB
:010D5D002273
:102A1D00E54D854E83854F82654A700AE54C65828A
:0E2A2D007004E54B658360037F01227F002269
:10265100AB4DAA4EA94FE54A854B83854C82654D0A
:10266100700AE54F65827004E54E65836021C39071
:10267100008BE54F9582E54E9583400D7A00796C8C
:0F268100754D01754E00754F6C784D121F20FF7F
:012690002227
:10002600020268E86480F8E933E83360110460F09E
:10003600ED33EC337009E8FCE9FDEAFEEBFF220440
:1000460060DED3EB9FEA9EE99DE8C2E78CF0C2F73B
:1000560095F0400CE8CCF8E9CDF9EACEFAEBCFFB07
:1000660012023385D0F05804700320D5B3E804702B
:10007600075002B2D502027292D5EC0460F7E4CCC6
:10008600C0E0C398F8603B94186008400DD0E0FBD0
:1000960002024AE4FBFAC9FC8028E830E406E4C917
:1000A600FBE4CAFCE830E305E4C9CACBFCE8540724
:1000B6006010F8C3E913F9EA13FAEB13FBEC13FC2F
:1000C600D8F130F52FC3E49CFCEF9BFFEE9AFEEDD2
:1000D60099FDD0E0FBEF4E4D4C701222DB0302027D
:1000E6006FEC2CFCEF33FFEE33FEED33FDED30E726
:1000F600EB02024AEF2BFFEE3AFEED39FDD0E0FBB4
:1001060050130BBB0003020272ED13FDEE13FEEF5C
:0801160013FFEC13FC02024A86
:10011E00020272EC5D046005E85904700302026885
:10012E00120233580460F6EC4860F2EC7004FDFEE7
:10013E00FF22C860DB2481C85009C39860025006B4
:10014E0002026F9850CAF582E9294B4A7005AB82BC
:10015E0002025E75F0007C1A7880C3EF9BEE9AED7A
:10016E0099400DC3EF9BFFEE9AFEED99FDE842F02C
:10017E00DC23ACF0D0E0FFD0E0FED0E0FDAB82207F
:10018E00E7101BEB60BAEC2CFCEF33FFEE33FEED09
:10019E0033FD02024AE803F830E705C0F075F000BF
:1001AE00EF2FFFEE33FEED33FD40B830E7C280AAED
:1001BE0075F020800E75F010800575F0087D007EBC
:1001CE00007F003392D530D5031204ACEC334010CF
:1001DE00EF33FFEE33FEED33FDEC33FCD5F0ED22C5
:0E01EE00E5F0247EA2D513CC92E7CDCEFF2201
:1001FC00EDD2E7CD33EC3392D524814006E4FFFEFB
:10020C00FDFC22FCE4CFCECDCC24E0501174FF8059
:10021C00EDC3CC13CCCD13CDCE13CECF13CF0470F6
:07022C00F030D5DE0204AC46
:10023300E9D2E7C933E833F892D5EDD2E7CD33EC11
:0702430033FC5002B2D5228A
:10024A00EC30E7100FBF000C0EBE00080DBD000415
:10025A000BEB6014A2D5EB13FCED92E7FD2274FFC1
:10026A00FCFDFEFF22E480F8A2D574FF13FC7D801A
:03027A00E480EF2E
:101C5500020D5EE493A3F8E493A34003F68001F23A
:101C650008DFF48029E493A3F85407240CC8C33390
:101C7500C4540F4420C8834004F456800146F6DF5F
:101C8500E4800B0102040810204080901261E47E7C
:101C9500019360BCA3FF543F30E509541FFEE49354
:101CA500A360010ECF54C025E060A840B8E493A31B
:101CB500FAE493A3F8E493A3C8C582C8CAC583CA46
:101CC500F0A3C8C582C8CAC583CADFE9DEE780BEFE
:0113A7000045
:10027D00BB010689828A83E0225002E722BBFE027F
:09028D00E32289828A83E49322B2
:10029600BB010CE58229F582E5833AF583E022501D
:1002A60006E92582F8E622BBFE06E92582F8E22267
:0D02B600E58229F582E5833AF583E4932281
:1002C300BB010689828A83F0225002F722BBFE011A
:0202D300F32214
:1002D500F8BB010DE58229F582E5833AF583E8F05F
:1002E500225006E92582C8F622BBFE05E92582C80B
:0202F500F222F3
:1002F700EF8DF0A4A8F0CF8CF0A428CE8DF0A42E1B
:02030700FE22D4
:10030900BC000BBE0029EF8DF084FFADF022E4CCD8
:10031900F875F008EF2FFFEE33FEEC33FCEE9DECA1
:10032900984005FCEE9DFE0FD5F0E9E4CEFD22EDE7
:10033900F8F5F0EE8420D21CFEADF075F008EF2F31
:10034900FFED33FD4007985006D5F0F222C398FD22
:050359000FD5F0EA22BF
:10035E00C5F0F8A3E028F0C5F0F8E582158270022A
:06036E001583E038F022C7
:0D037400EF2BFFEE3AFEED39FDEC38FC22D8
:0E038100C3EF9BFFEE9AFEED99FDEC98FC2277
:10038F00E88FF0A4CC8BF0A42CFCE98EF0A42CFC0D
:10039F008AF0EDA42CFCEA8EF0A4CDA8F08BF0A48B
:1003AF002DCC3825F0FDE98FF0A42CCD35F0FCEBEA
:1003BF008EF0A4FEA9F0EB8FF0A4CFC5F02ECD39AF
:0F03CF00FEE43CFCEAA42DCE35F0FDE43CFC221C
:1003DE0075F008758200EF2FFFEE33FECD33CDCCD6
:1003EE0033CCC58233C5829BED9AEC99E582984059
:1003FE000CF582EE9BFEED9AFDEC99FC0FD5F0D636
:10040E00E4CEFBE4CDFAE4CCF9A88222B800C1B95F
:10041E000059BA002DEC8BF084CFCECDFCE5F0CB9D
:10042E00F97818EF2FFFEE33FEED33FDEC33FCEBD6
:10043E0033FB10D703994004EB99FB0FD8E5E4F991
:10044E00FA227818EF2FFFEE33FEED33FDEC33FC7E
:10045E00C933C910D7059BE99A4007EC9BFCE99A72
:10046E00F90FD8E0E4C9FAE4CCFB2275F010EF2FB7
:10047E00FFEE33FEED33FDCC33CCC833C810D707B7
:10048E009BEC9AE899400AED9BFDEC9AFCE899F8F2
:0E049E000FD5F0DAE4CDFBE4CCFAE4C8F92285
:0E04AC00C3E49FFFE49EFEE49DFDE49CFC2261
:1004BA00EB9FF5F0EA9E42F0E99D42F0EC6480C8B9
:0604CA0064809845F02259
:1004D000EB9FF5F0EA9E42F0E99D42F0E89C45F082
:0104E00022F9
:1004E100E8600FECC313FCED13FDEE13FEEF13FFF9
:0304F100D8F1221D
:1004F400E8600FEFC333FFEE33FEED33FDEC33FC66
:03050400D8F12209
:0C050700E6FC08E6FD08E6FE08E6FF2220
:0C051300E0FCA3E0FDA3E0FEA3E0FF225B
:0C051F00E0F8A3E0F9A3E0FAA3E0FB225F
:0C052B00ECF608EDF608EEF608EFF622FC
:0C053700ECF0A3EDF0A3EEF0A3EFF02237
:10054300A8828583F0D083D08212055A12055A12ED
:10055300055A12055AE473E493A3C583C5F0C58312
:10056300C8C582C8F0A3C583C5F0C583C8C582C802
:010573002265
:0C057400A42582F582E5F03583F5832292
:10058000FAE6FB0808E6F925F0F618E6CA3AF6227C
:10059000D083D082F8E4937012740193700DA3A3FA
:1005A00093F8740193F5828883E47374029368600E
:0605B000EFA3A3A380DF0E
:00000001FF
