:03000000022001DA
:0C200100787FE4F6D8FD75819A02204833
:10168800045700000000410063004100980C41002D
:1016980099404400900000000044007400000000DD
:1016A800440078000000004400AD00000000440041
:1016B8009D000000004400B40000000042008400C7
:1016C8000142007200004100680041008D004200A4
:1016D800B9000042006900004100610841009B0018
:1016E8004100BB00015B00015C004100B200410009
:1016F800710041007C014100870A41009C004100C3
:101708009A0A41008C0041008E00420066000041A8
:10171800006200028800000286000041006F00415C
:1017280000B10041008F00107600000000000000AA
:1017380000000000000000000001720001730001B9
:1017480075000174000171004100650041007000DE
:1017580042007D00004A00A30000000000000000D5
:06176800000041006400D6
:102A1A008E098F0A8B0B8A0C890DAF051DEF602674
:102A2A00050AE50AAE097002050914F5828E83E4E7
:102A3A0093FFAB0B050DE50DAA0C7002050C14F9FA
:072A4A00EF120B7580D4228E
:102C9F00E4FDFCC3ED9FEC9E50070DBD00010C80C1
:012CAF00F232
:012CB0002201
:102B12008F828E83E4F55AF559F558F557AF82AE98
:102B220083E4FCFDAB5AAA59A958A857C3120CFC5E
:082B3200500543BD1080E622AE
:102CB100E4FDFCC3ED9FEC9E50070DBD00010C80AF
:012CC100F220
:012CC20022EF
:10000300758E5190FE917401F0A37410F075BD5F6D
:0700130090FEA07420F02212
:102BEF00E490FE80F0758901758DFA758BCB43A843
:0E2BFF0008438840758CCB758AEB4388102202
:102A830090FF10E054F04408F090FF02E054F0444B
:102A930002F0D28490FFA07420F0A37404F075CCEC
:102AA3000675CEFF75CD98759E0275981043A810D4
:012AB3002200
:102C5E0043B40343B4807F147E00122C9F75B501DC
:072C6E0090FE9B744BF02265
:102C2B0090FF08E04488F090FF00E0540F4430F030
:0A2C3B0090FF11E054F04403F02272
:0B2CDE008F99E59830E1FB5398FD2230
:102820008FB543B440E5B430E5FB53B4DF7F647E3D
:1028300000122C9FE4FBFAF943B440E5B430E5FB09
:1028400053B4DFE5B62BFBE5B73AFA7F147E0012EE
:102850002C9F09B910E275B501A9027F647E0012B0
:042860002C9FAF01F9
:012864002251
:1013E2007B017A0079A37D0A7F007E2F122A1A9050
:1013F20000A3E0FFE4FCFDFE90006B120D339000B1
:101402006BE0FCA3E0FDA3E0FEA3E0FF7808120D71
:101412002090006B120D3390006BE0F8A3E0F9A36B
:10142200E0FAA3E0FB9000A4E0FFE4FCFDFEEB2F5A
:10143200FFEE3AFEED39FDEC38FC90006B120D33F5
:1014420090006BE0FCA3E0FDA3E0FEA3E0FFE47BE1
:10145200E87A03F9F8120BBB90006B120D33E47FAC
:10146200307E75FDFC90006BE0F8A3E0F9A3E0FA92
:10147200A3E0FBC3120CFC40177F007E097D3D7C7C
:101482000090006BE0F8A3A3A3E0D3120CFC400A87
:1014920090006B120D3F00009C409000A5E0900070
:1014A200B8F0700280079000B8E0B4FE0374FFF059
:1014B2009000A6E0FF900089E4F0A3EFF0E0F8E4EA
:1014C200F0E8900089F09000A7E0FF90008AE02FFA
:1014D200F0900089E03400F0E0FEA3E0FF4E6009E6
:1014E200D3EF9408EE94074009900089E4F0A374C6
:1014F20005F09000A8E0900087F090008EF0900038
:10150200A9E090007FF06006E0D394FF40069000CF
:101512007F7401F09000AAE0540190007CF07B01FE
:101522007A0079647D017F807E2F122A1A900064EE
:06153200E090008CF022A5
:10003E00E55B600302098443B440E5B430E5FB534D
:10004E00B4DF85B70985B60A900073E004F0700638
:10005E00900072E004F09000B4E0F8A3E0F9A3E0A1
:10006E00FAA3E0FBE4FCFDEB250AFFEA3509FEED01
:10007E0039FDEC38FC9000B4120D339000A1E0FE77
:10008E00A3E0FFC3950AEE9509500DC3E50A9FF54F
:10009E000AE5099EF509800BC3EF950AF50AEE9560
:1000AE0009F509900078E0F8A3E0F9A3E0FAA3E0DF
:1000BE00FBE4FCFDEB250AFFEA3509FEED39FDEC0C
:1000CE0038FC900078120D33900072E05401FEA3BC
:1000DE00E04E7061D39000BAE094009000B9E094C5
:1000EE0000401790009AE094645042E02402F0E041
:1000FE00D3946440387464F08033900069E07004E7
:10010E00A3E06401702F900087E0FF90009AE0FE5C
:10011E00D39F4019EE94024004E024FEF090009A22
:10012E00E0C39F5008900087E090009AF090009AEC
:10013E00E0FF122AB4C3900072E09420500302092B
:10014E00CF43BD10E4F0A3F090009BE004F09000CC
:10015E009DE0FCA3E0FDA3E0FEA3E0FF9000B4E071
:10016E00F8A3E0F9A3E0FAA3E0FBEF2BFFEE3AFED3
:10017E00ED39FDEC38FC90009D120D3390009BE0A4
:10018E00C394084043E4F090009DE0FCA3E0FDA37F
:10019E00E0FEA3E0FF7810120D0D90009D120D33BE
:1001AE0090009DA3A3E0FEA3E0FF9000A2E02FF03D
:1001BE009000A1E03EF0E0C313F0A3E013F0900036
:1001CE009D120D3F00000000900061E0C3940850A6
:1001DE0005E004F080569000B9E07002A3E0704C88
:1001EE007F0A122820900088EFF09000B3E0FE24E2
:1001FE0002FDE433FCEFD39DEC6480F874809850DC
:10020E001E900088E02402FDE433FCEED39DEC64E6
:10021E0080F874809850089000B3E0900088F090B9
:10022E000088E09000B3F0E4900061F0E4FFFEFD82
:10023E00FC900074E0F8A3E0F9A3E0FAA3E0FBC39E
:10024E00120CFC704F900078E0FCA3E0FDA3E0FEE2
:10025E00A3E02488FFEE3413FEE43DFDE43CFC9065
:10026E000074120D33900084E07002A3E070257FBD
:10027E00407E427D0FFC900074E0F8A3E0F9A3E00D
:10028E00FAA3E0FBD3120CFC400A900074120D3F4F
:10029E00000F4240900063E0701E900078E0FCA3D7
:1002AE00E0FDA3E0FEA3E0FF900090120D3390005E
:1002BE0080120D3F00000001900080E0FCA3E0FDE5
:1002CE00A3E0FEA3E0FF900078E0F8A3E0F9A3E03E
:1002DE00FAA3E02FFFEA3EFEE93DFDE83CFC90006C
:1002EE0090E0F8A3E0F9A3E0FAA3E0FBC3120CFC44
:1002FE0040030206C4900080E0FCA3E0FDA3E0FEF4
:10030E00A3E0FF900090E0F8A3A3A3E02FFFEA3E46
:10031E00FEE93DFDE83CFC900078E0F8A3E0F9A38F
:10032E00E0FAA3E0FBC3120CFC40030206C49000EB
:10033E0063E004F09000ADE0FCA3E0FDA3E0FEA3BB
:10034E00E0FF900078E0F8EF2BFFEE3AFEED39FD7E
:10035E00EC38FC9000AD120D33900063E0FBE4FA34
:10036E00F9F89000ADE0FCA3E0FDA3E0FEA3E0FFF2
:10037E00120C46900090120D33900090E0FCA3E01A
:10038E00FDA3E0FEA3E0FF7803120D0D9000801296
:10039E000D33E47F207E4EFDFC900080E0F8A3E05C
:1003AE00F9A3E0FAA3E0FBC3120CFC500A90008004
:1003BE00120D3F00004E20E47F607EEAFDFC9000AF
:1003CE0080E0F8A3E0F9A3E0FAA3E0FBD3120CFC63
:1003DE00400A900080120D3F0000EA60900090E00D
:1003EE00FCA3E0FDA3E0FEA3E0FF900074E0F8A301
:1003FE00E0F9A3E0FAA3E0FBD3120CFC40739000EB
:10040E0090E0F8A3E0F9A3E0FAA3E0FB900074E01B
:10041E00FCA3E0FDA3E0FEA3E09BFFEE9AFEED99A8
:10042E00FDEC98FC9000B4120D337F807E387D0178
:10043E007C009000B4E0F8A3E0F9A3E0FAA3E0FB9F
:10044E00D3120CFC40089000987406F08029E47FCB
:10045E00407E9CFDFC9000B4E0F8A3E0F9A3E0FA26
:10046E00A3E0FBD3120CFC90009840087409F080B6
:10047E0006900098740CF0900098E0FF900063E0F6
:10048E00C39F500302055C900074E0FCA3E0FDA343
:10049E00E0FEA3E0FF900090E0F8A3E0F9A3E0FAFD
:1004AE00A3E0FB120CFC400302055C900099E09463
:1004BE001050030206D3900098E0D3940950109088
:1004CE000090E0FCA3E0FDA3E0FEA3E0FF807690A9
:1004DE000090E0FCA3E0FDA3E0FEA3E024A0FFEE6D
:1004EE00340FFEE43DFDE43CFC900074E0F8A3E024
:1004FE00F9A3E0FAA3E0FBD3120CFC50030206C4EE
:10050E00900074E0FCA3E0FDA3E0FEA3E0FF9000EA
:10051E0090E0F8A3E0F9A3E0FAA3E0FBEF2BFFEEE7
:10052E003AFEED39FDEC38FC900074120D3390005C
:10053E0074E0FCA3E0FDA3E0FEA3E0FFE47B02FA7F
:10054E00F9F8120C46900074120D330206C4900096
:10055E0099E0FF900063E0C39F50030206D3900022
:10056E0074E0FCA3E0FDA3E0FEA3E024A0FFEE34C4
:10057E000FFEE43DFDE43CFC900090E0F8A3E0F9B2
:10058E00A3E0FAA3E0FBD3120CFC50030206B490D6
:10059E000074E0F8A3E0F9A3E0FAA3E0FB9000906A
:1005AE00E0FCA3E0FDA3E0FEA3E09BFFEE9AFEEDD0
:1005BE0099FDEC98FC9000B4120D337F007E127DF5
:1005CE007A7C00900090E0F8A3E0F9A3E0FAA3E0B3
:1005DE00FBC3120CFC40030206B47F807E1A7D061C
:1005EE007C009000B4E0F8A3E0F9A3E0FAA3E0FBEE
:1005FE00C3120CFC40030206B4900099E094104024
:10060E000280587FE07E937D047C009000B4E0F879
:10061E00A3E0F9A3E0FAA3E0FBD3120CFC40089090
:10062E0000997410F080277FF07E497D027C009047
:10063E0000B4E0F8A3E0F9A3E0FAA3E0FBD3120CB8
:10064E00FC9000994005740CF080037408F0900043
:10065E0099E0FF900063E0C39F404B900074E0FC74
:10066E00A3E0FDA3E0FEA3E0FF900090E0F8A3E07E
:10067E00F9A3E0FAA3E0FBEF2BFFEE3AFEED39FD16
:10068E00EC38FC900074120D33900074E0FCA3E083
:10069E00FDA3E0FEA3E0FFE47B02FAF9F8120C469C
:1006AE00900074120D33900099E0FF900063E0C348
:1006BE009F4012E48004E4900063F09000AD120DB0
:1006CE003F0000000090008DE0D39400500302071D
:1006DE0067E014F0900094E0FCA3E0FDA3E0FEA31D
:1006EE00E02470FFEE3417FEE43DFDE43CFC900088
:1006FE0074E0F8A3E0F9A3E0FAA3E0FBD3120CFC3C
:10070E0050030208E3900094E0FCA3E0FDA3E0FE9A
:10071E00A3E02498FFEE343AFEE43DFDE43CFC9069
:10072E000078E0F8A3E0F9A3E0FAA3E0FBC3120C13
:10073E00FC40030208E3900094E0FCA3E0FDA3E07C
:10074E00FEA3E02470FFEE3417FEE43DFDE43CFC16
:10075E00900074120D330208E3D3900085E09400EC
:10076E00900084E094005003020828A3E024FFF0D8
:10077E00900084E034FFF0D3A3E09400900084E076
:10078E00940050030208287F007E127D7A7C009030
:10079E000074E0F8A3E0F9A3E0FAA3E0FBD3120C97
:1007AE00FC400C90006B120D3F000C3500806B90DE
:1007BE00006BE0FCA3E0FDA3E0FEA3E0FF9000745D
:1007CE00E0F8A3E0F9A3E0FAA3E02FFFEA3EFEE98A
:1007DE003DFDE83CFC9000B4120D337F407E547D0D
:1007EE00897C009000B4E0F8A3E0F9A3E0FAA3E05E
:1007FE00FBD3120CFC4023900074E0F8A3E0F9A3A5
:10080E00E0FAA3E0FB74409BFF74549AFE7489993E
:10081E00FDE498FC90006B120D3390006BE0FCA38E
:10082E00E0FDA3E0FEA3E0FF900074E0F8A3E0F982
:10083E00A3E0FAA3E02FFFEA3EFEE93DFDE83CFC13
:10084E00A3E0F8A3E0F9A3E0FAA3E0FBD3120CFCBB
:10085E0050030208E39000B8E0FF900088E0D39FB9
:10086E00400FD3900085E09400900084E094004007
:10087E00649000B9E07002A3E07014900074E0FC84
:10088E00A3E0FDA3E0FEA3E0FF900094120D3390D1
:10089E0000B9E4F0A304F07874F690007EE004F062
:1008AE00700690007DE004F090007DE0FEA3E0FF76
:1008BE00E48F2C8E2BF52AF5297F74121F6B900076
:1008CE00997408F0E4900069F0A3F07888F608F6C1
:1008DE007886F608F69000A1E0FEA3E0FFE48F2CE8
:1008EE008E2BF52AF5297F75121F6B900088E0FF7D
:1008FE00E48F2CF52BF52AF5297F76121F6B9000CD
:10090E0074E0FCA3E0FDA3E0FEA3E0F52C8E2B8D9E
:10091E002A8C297F77121F6B900078E0FCA3E0FDF4
:10092E00A3E0FEA3E0F52C8E2B8D2A8C297F781266
:10093E001F6B9000B4120D3F000000009000781263
:10094E000D3F000000009000B9E0FEA3E0FFD3943D
:10095E0000EE9400406B900089E0FCA3E0FDD3EF25
:10096E009DEE9C405CE49000B9F0A3F0755B0178BD
:10097E0074F67871F622900069E4F0A304F0E4F5C1
:10098E005B900066F0A3F0900062F07FFAFE122BEF
:10099E001290009D120D3F00000000E490009BF0AD
:1009AE009000997440F090008D7402F09000617484
:1009BE0006F0E4900063F09000AD120D3F000000D1
:0109CE000028
:0109CF002205
:10219800E4F50A9000B4120D3F00000000E4F509D0
:1021A80043B440E5B430E5FB53B4DF9000B4E0F845
:1021B800A3E0F9A3E0FAA3E0FBAFB6AEB7E4FCFDF9
:1021C800EB2FFFEA3EFEED39FDEC38FC9000B4122F
:1021D8000D330509E509B480C77F907E01122B12E3
:1021E8009000B4E0FCA3E0FDA3E0FEA3E0FF780BC1
:1021F800120D0D8F09E509D3940C400CE509948D57
:102208005006E50A9414500A050AE50AD39450408A
:02221800822220
:01221A0022A1
:10229B009000B4120D3F00000000E4F509E4F50CCA
:1022AB00F50D43B440E5B430E5FB53B4DF85B70A15
:1022BB0085B60B9000B4E0F8A3E0F9A3E0FAA3E035
:1022CB00FBE4FCFDEB250BFFEA350AFEED39FDECDB
:1022DB0038FC9000B4120D33050DE50D7002050CA2
:1022EB00B400BFE50CB420BA43BD100509E509B431
:1022FB0008AB9000B4E0FCA3E0FDA3E0FEA3E0FF7D
:0D230B007810120D0D9000A1EEF0A3EFF080
:0123180022A2
:102AB4007E007C007DFF120BA9AC06AD07E4120A70
:102AC40075E4FBFA79C878421209D3120AAE90FF72
:0E2AD4009C7410F075DEFF8FDF75DD947F00BF
:012AE20022D1
:10101A00122C45120003122C2B7F64122AB4122BB5
:10102A00EF122A83122C5E75BBAA90FEA774FFF0FA
:10103A0053BBF7D2AF7FC87E00122B127F64122AED
:10104A00B49000B27401F07F0A122820900088EF51
:10105A00F09000B3F0C2AF1213E290008CE004F0FB
:10106A007F807E2F122B877F107E27122CB1900053
:10107A008CE0FF7D807C2F122B3A7F647E00122C3D
:10108A00B1D2AF122198900087E0FF90009AF01237
:10109A002AB47F2C7E01122B1212229B9000B412CA
:1010AA000D3F0000000090008CE0C394034005E46B
:1010BA00F0122BAC7873E6D39402502A18E6640136
:1010CA007024F608067F55122CDE7FAA122CDEE465
:1010DA00FF122CDE7FB4122CDEE4FF122CDE122C5F
:1010EA00DE7FB3122CDE43BD10E55B700B900073FC
:1010FA00E0541F700312126190007CE064016003E7
:10110A0002120BE55C703DF55B755C01900087E0AF
:10111A0090009AF090009D120D3F00000000E490AC
:10112A00009BF09000997440F090008D7402F0904A
:10113A0000617406F0E4900063F09000AD120D3F78
:10114A000000000012003ED390006AE09400900074
:10115A0069E09400403B900062E0B40134E4F0900E
:10116A00006AE004F07006900069E004F090007FE5
:10117A00E0FFC390006AE09F900069E0940040118C
:10118A00E4F0A3F0900070E064016005E4FF122A25
:10119A00B4D39000BAE094009000B9E094004018EB
:1011AA007887E664011846700FF608F6A3E004F0A3
:1011BA0070069000B9E004F07875E66401600302F5
:1011CA0010B018E6FF78716670030210B0A6079097
:1011DA0000B9E4F0A304F0E4F508E508C394084074
:1011EA00030210B0E50825E02476F8E6FA08E6FBE3
:1011FA004A600A900071E0FD7F7112208D05088017
:10120A00D9E4F55C900071E07007FF122AB402106D
:10121A00B090008EE0FF122AB4E4F55B900087E0FC
:10122A0090009AF090009D120D3F00000000E4909B
:10123A00009BF09000997440F090008D7402F09039
:10124A0000617406F0E4900063F09000AD120D3F67
:07125A00000000000210B0CB
:03001B00021D8043
:101D8000C0E0C0F0C083C082C0D075D000C000C029
:101D900001C002C003C004C005C006C007AF5AAEF0
:101DA00059AD58AC57EF2401F55AE43EF559E43DDE
:101DB000F558E43CF557900067E004F07006900099
:101DC00066E004F0900066E0FEA3E0FFE4FCFD7B2B
:101DD000607AEAF9F8D3120CE6500C900066E4F051
:101DE000A3F090006204F0788906E618700106C33B
:101DF0007889E694E818E6940340127872760178C0
:101E000088760008760078867600087601D007D0BC
:101E100006D005D004D003D002D001D000D0D0D05D
:081E200082D083D0F0D0E03243
:030023000227D9D8
:1027D900C0E0C0F0C083C082C0D075D000C000C0C6
:0D27E90001C002C003C004C005C006C00747
:0F27F600E59830E00AAF991224055398FED2AF50
:10280500D007D006D005D004D003D002D001D00027
:0B281500D0D0D082D083D0F0D0E032D1
:03003B0002001AA6
:01001A0032B3
:102B870053BBF7C280E5BB20E3F6D280C2AF75FD29
:102B9700F075FC0F8EFA8FF975FDD275FC2D75FD5A
:052BA700E175FC1E2297
:102B3A0053BBF7C280E5BB20E3F6D280C2AF8FFB5E
:102B4A0075FDF075FC0F8CFA8DF975FDB475FC4BAB
:072B5A0075FDE175FC1E2270
:04176E00026D000008
:10239400EFC39430400CEFD39439500674D02FFF20
:1023A4008022EFC39441400CEFD394465006EF24AF
:1023B400C9FF8010EFC39461400AEFD394665004C0
:1023C400EF24A9FFEF540FC454F0FFEDC394304041
:1023D4000CEDD39439500674D02DFD801EEDC394BA
:1023E400414008EDD394465002800CEDC394614003
:1023F4000AEDD394665004ED24A9FDED540F420771
:0124040022B5
:0625F3008B168A178918FF
:1025F900E4F51CF51BF51AF519E94A4B7005FFFEC0
:10260900FDFC22E4F51CF51BF51AF519AB160518A6
:10261900E518AA177002051714F9120B2F6017E5B0
:102629001C2401F51CE4351BF51BE4351AF51AE4E5
:0E2639003519F51980D6AF1CAE1BAD1AAC19C1
:012647002270
:06292C008B398A3A893B59
:102932008B3F8A408941E94A4B7004FBFAF922E550
:102942003E153EAE3D7002153D4E6014AB3F054153
:10295200E541AA407002054014F9ED120B7580DFC3
:06296200AB39AA3AA93BC3
:01296800224C
:061A8E008B1D8A1E891F5A
:101A94008B258A26892785202885212985222AE9DC
:101AA4004A4B6008E5224521452070077B007A00F7
:101AB400790022D3852983852A82E5279582E52624
:101AC40095834019E52A2524F9E5293523FA8A83E3
:101AD4008982D3E5279582E52695834038E4F52B62
:101AE400F52CC3E52C9524E52B95235067AB28AA48
:101AF40029A92A852C82852B83120B48AB25AA267B
:101B0400A927852C82852B83120B87052CE52C7045
:101B1400D1052B80CD85232B85242CD3E52C940053
:101B2400E52B9400402EAB28AA29A92AE52C24FFF2
:101B3400FFE52B34FFFE8F82F583120B48AB25AAF9
:101B440026A9278F828E83120B87E52C152C70CB48
:0A1B5400152B80C7AB1DAA1EA91FA8
:011B5E002264
:102865008F6C8E6B8D6A8C697818120D0DEF120BBB
:1028750075AF6CAE6BAD6AAC697810120D0D90003A
:1028850001EF120B87AF6CAE6BAD6AAC69780812BD
:102895000D0D900002EF120B87E56CFF900003EF22
:0328A500020B879C
:101ECA00E4F52DF52CF52BF52A120B2FFFE48F2DB7
:101EDA00F52CF52BF52AAE2CAD2BAC2A7808120D71
:101EEA00208F2D8E2C8D2B8C2A900001120B48FFEF
:101EFA00E52D4FF52DE52CF52CE52BF52BE52AF5EF
:101F0A002AAF2DAE2CAD2BFC7808120D208F2D8E0A
:101F1A002C8D2B8C2A900002120B48FFE52D4FF5D1
:101F2A002DE52CF52CE52BF52BE52AF52AAF2DAE60
:101F3A002CAD2BFC7808120D208F2D8E2C8D2B8C1E
:101F4A002A900003120B48FFE52D4FF52DE52CF5DD
:101F5A002CE52BF52BE52AF52AAF2DAE2CAD2BFC63
:011F6A002254
:062D0B00900022E0FF220F
:0C2CD200E4900022F0FDFC7F040226EEDE
:062D110090001FE0FF220C
:082648008F5D8B5E8A5F8960E3
:10265000E4FDFC900021E0B401037F0122AF05AE50
:1026600004AD5D120026AC06E4FD120026AC06E5C2
:1026700061FD120026AC06AD62120026AC06AD0765
:10268000AB5EAA5FA96085611B85621C1229ACAC98
:0A26900006AD077F071226EE7F015A
:01269A00221D
:042741008D25AB0730
:10274500E4FDFC900021E0B401037F0122AF05AE5A
:1027550004AD03120026AC067D01120026AC06E48A
:10276500FD120026AC067D01120026AC06AD07E57C
:10277500257003FD8006AF05AE047D01120026AC71
:0A27850006AD077F071226EE7F0164
:01278F002227
:02208D00A907A1
:10208F00E4FCF525F526900021E0B401037F012241
:10209F007527557528AAE4F529752AB2F52B752CE5
:1020AF00078A2D8B2E892F753001F531753201ED91
:1020BF007004F5338003753301E4F536F537742773
:1020CF002537F8E62CFC0537E53770020536640D29
:1020DF00453670EA8C3475250075260EE4F536F515
:1020EF0037E5261526AE25700215254E6014742788
:1020FF002537F8E6FF12001E0537E53770E3053682
:04210F0080DF7F01ED
:0121130022A9
:021C1D00A90715
:101C1F00E4FCF525F526900021E0B401037F0122B5
:101C2F007527557528AAE4F529752AB2F52B752C59
:101C3F00078A2D8B2E892F753001F531753201ED05
:101C4F007004F533802EBD01057533018026BD026A
:101C5F0005753302801EBD03057533038016BD0461
:101C6F0005753304800EBD05057533058006BD0669
:101C7F0003753306E4F536F53774272537F8E62C68
:101C8F00FC0537E53770020536640D453670EA8C72
:101C9F003475250075260EE4F536F537E52615263D
:101CAF00AE25700215254E601474272537F8E6FF10
:0F1CBF0012001E0537E5377002053680DF7F0102
:011CCE0022F3
:021F6B00AB07C2
:101F6D00E4FDFC900021E0B401037F0122AF05AE3A
:101F7D0004AD03120026AC067D02120026AC06E469
:101F8D00FD120026AC067D04120026C006C007AF68
:101F9D002CAE2BAD2AAC297818120D0DAD07D0073C
:101FAD00D006120026C006C007AF2CAE2BAD2AAC52
:101FBD00297810120D0DAD07D007D006120026C0DE
:101FCD0006C007AF2CAE2BAD2AAC297808120D0D2B
:101FDD00AD07D007D006120026AC06C007E52CFFD2
:101FED00E4AD07D007120026AC06AD077F07122619
:031FFD00EE7F0173
:0120000022BD
:021B5F00AD07D0
:101B6100E4FBF52FF530900021E0B401037F012261
:101B7100788A76550876AAE408F60876B208F60857
:101B8100760AE52D08F608A62E08A605087602E4D1
:101B910008F6087604AF2CAE2BAD2AAC29781812C2
:101BA1000D0D7896A607AF2CAE2BAD2AAC29781077
:101BB100120D0D7897A607AF2CAE2BAD2AAC297864
:101BC10008120D0D7898A607E52CFFE408A607F585
:101BD10031F532748A2532F8E62BFB0532E5327095
:101BE1000205316410453170EA789AA603752F0019
:101BF100753011E4F531F532E5301530AE2F700254
:101C0100152F4E6014748A2532F8E6FF12001E0566
:0B1C110032E5327002053180DF7F01F8
:011C1C0022A5
:08269B008F638B648A65896678
:1026A300E4FDFC900021E0B401037F0122AF05AEFD
:1026B30004AD63120026AC067D03120026AC06E5CA
:1026C30067FD120026AC06AD68120026AC06AD0706
:1026D300AB64AA65A96685671B85681C1229ACAC27
:0A26E30006AD077F071226EE7F0107
:0126ED0022CA
:0428A8008D25AB07C8
:1028AC00E4FDFC900021E0B401037F0122AF05AEF2
:1028BC0004AD03120026AC067D04120026AC06E41F
:1028CC00FD120026AC067D01120026AC06AD2512C9
:0D28DC000026AC06AD077F071226EE7F0137
:0128E90022CC
:0219A600AD078B
:1019A800E4F547F548900021E0B401037F0122AF38
:1019B80048AE471200268E478F487D051200268EB6
:1019C800478F48E4FD1200268E478F4874FFFFE5D5
:1019D80045FEE544FDE543FCE47BFFFAF9F8C31254
:1019E8000CFC70117D01AF48AE471200268E478F60
:1019F80048AD46807E74FFFFFEE544FDE543FCE408
:101A08007BFF7AFFF9F8C3120CFC70047D02803664
:101A18007D04AF48AE471200268E478F48AF46AECA
:101A280045AD44AC437818120D0DAD07AF48AE472D
:101A38001200268E478F48AF46AE45AD44AC43787A
:101A480010120D0DAD07AF48AE471200268E478F16
:101A580048AF46AE45AD44AC437808120D0DAD070E
:101A6800AF48AE471200268E478F48E546FFE4ADE3
:101A780007AF481200268E478F48AD48AC477F070E
:051A88001226EE7F01B3
:011A8D002236
:082CE9008C258D26120B2FFF34
:012CF10022C0
:082CF2008C258D26120B2FFF2B
:012CFA0022B7
:072CFB008C288D29121ECA6E
:012D020022AE
:102405008F38D3855583855682E5539582E5529558
:10241500834015E5539556FFE5529555FEC3EF9458
:102425001FEE648094805048C3855583855682E5A8
:10243500539582E5529583500DC3E5569553FFE5B7
:102445005595524F602AC390001FE5539582E5527A
:1024550095834009755101755200755300AB5105BF
:1024650053E553AA527002055214F9E538120B755B
:012475002244
:10126100E4F509F50AF50BF50CC3E56E941FE56D80
:1012710094005024122C0DEFD39400401B1228EA45
:10128100056EE56EAC6D7002056D142423F5827454
:10129100003CF583EFF080D1C3E56E9407E56D94D2
:1012A1000050030213E1C3E56E950AFFE56D950950
:1012B100FEC3EF9407EE940050030213AA74232592
:1012C1000AF58274003509F583E06455600A050A60
:1012D100E50A70D2050980CE7424250AF5827400CE
:1012E1003509F583E064AA600A050AE50A70B705C5
:1012F1000980B37425250AF58274003509F583E068
:101301006004740280387427250AF5827400350957
:10131100F583E0FE7428250AF58274003509F5830A
:10132100E07C002400FFEC3ECF2407F50CE43FF500
:101331000BD3E50C9426E50B940040097403250AB0
:10134100F50AE4805DC3E56E950AFFE56D9509FE3A
:10135100C3EF950CEE950B40507423250AF97400E8
:101361003509FA7B01E50C24FFFDE50B34FFFC1286
:101371002A51E50A250CFDE509350BFC74222DF5F2
:101381008274003CF583E06F60097403250AF50A55
:10139100E4800FAF0AAE09120D96E50C250AF50A95
:1013A100E50B3509F5090212A7C3E56E950AF56E3D
:1013B100E56D9509F56DD3E56E9400E56D940040FA
:1013C1001F7423250AF974003509752001F5218957
:1013D10022856D23856E247B017A007923121A8E72
:0113E10022E9
:102C45007551017552007553007554017555007520
:092C5500560090001F74FFF022EC
:101772004100C0004400BC00000000014E00014BCB
:1017820000014A00014900014D00014C00014F00D7
:10179200602000C1010103020402650466026701C0
:1017A20068026902710172017301740275027602A4
:0417B2007702780240
:102BAC007F55122CDE7FAA122CDEE4FF122CDE7F66
:102BBC0004122CDEE4FF122CDEE4FF122CDE7F0369
:032BCC00022CDEFA
:03001E00022CDED3
:10153800900000E0FD7F01122741900071E0FD7FDF
:1015480071122741900087E0FFE48F2CF52BF52AD4
:10155800F5297F03121F6B9000B8E0FFB4FF05E484
:10156800F515801EEFB4C8057515028015EFB4286F
:1015780005751503800CEFB4140575150480037503
:101588001505AD157F651228A8900089E0FEA3E037
:10159800FFE48F2C8E2BF52AF5297F66121F6B909E
:1015A800007CE0FD7F6712274190007FE0FFE48F19
:1015B8002CF52BF52AF5297F68121F6BE47B107A2E
:1015C80027F9F890006BE0FCA3E0FDA3E0FEA3E0A0
:1015D800FF120C46C374329FFFE48F2CF52BF52ABB
:1015E800F5297F69121F6B7875E6FD7F7212274116
:1015F800900065E0FFE48F2CF52BF52AF5297F0490
:10160800121F6B900070E0FD7F7312274190007DE0
:10161800E0FEA3E0FFE48F2C8E2BF52AF5297F74DA
:10162800121F6B9000A1E0FEA3E0FFE48F2C8E2B2D
:10163800F52AF5297F75121F6B900088E0FFE48F6B
:101648002CF52BF52AF5297F76121F6B900074E094
:10165800FCA3E0FDA3E0FEA3E0F52C8E2B8D2A8CE5
:10166800297F77121F6B900078E0FCA3E0FDA3E0D0
:10167800FEA3E0F52C8E2B8D2A8C297F78021F6B18
:102C7500122CE9900000EFF0FD7F01122741BF0102
:062C8500037F01227F0025
:012C8B002226
:10221B00122CFB8F268E258D248C23054A9000874C
:10222B00E0FFE4FCFDFEAB26AA25A924A823C312DC
:10223B000CFC6032E4F54AF527E52725E02476F817
:10224B00E6FA08E6FB4A601585262C85252B8524A6
:10225B002A8523298A2D8B2E7F03121B5F0527E5E9
:10226B0027C3940840D3AF26900087EFF090008EE1
:10227B00F01217BA900087E0FFE48F2CF52BF52AAC
:0F228B00F5297F03121F6BBF01037F01227F0024
:01229A002221
:102AE300122CFB8F268E258D248C23900065EFF00E
:102AF3001217BA900065E0FFE48F2CF52BF52AF549
:0E2B0300297F04121F6BBF01037F01227F0098
:012B110022A1
:101E2800122CF28F2305499000C0E0B52317E52353
:101E3800640570359000B8E0FF900088E06F602975
:101E4800E4F5498024E4F549F524E52425E02476E1
:101E5800F8E6FA08E6FB4A6007AD237F65121C1D09
:101E68000524E524C3940840E1E5231460101460B8
:101E78001514601A14601F1460242405702890003B
:101E8800B874FFF080209000B874C8F080189000F3
:101E9800B87428F080109000B87414F0800890008E
:101EA80088E09000B8F09000C0E523F01217BA90CF
:101EB80000C0E0FD7F651228A8BF01037F01227FD3
:011EC8000019
:011EC90022F6
:10211400122CFB8F268E258D248C23054D9000894F
:10212400E0FEA3E0FFE4FCFDAB26AA25A924A82336
:10213400C3120CFC6032E4F54DF527E52725E024B5
:1021440076F8E6FA08E6FB4A601585262C85252BE9
:1021540085242A8523298A2D8B2E7F66121B5F05F1
:1021640027E527C3940840D3900089E525F0A3E52B
:1021740026F01217BA900089E0FEA3E0FFE48F2C4A
:102184008E2BF52AF5297F66121F6BBF01037F0191
:03219400227F00A7
:012197002225
:10259D00122CE98F23054B90007CE065236024E429
:1025AD00F54BF524E52425E02476F8E6FA08E6FB5C
:1025BD004A6007AD237F6712208D0524E524C3945F
:1025CD000840E1E52390007C7003F080037401F076
:1025DD001217BA90007CE0FD7F67122741BF0103FF
:0525ED007F01227F00C8
:0125F20022C6
:10231900122CFB8F268E258D248C23054C90007F53
:10232900E0FFE4FCFDFEAB26AA25A924A823C312DD
:102339000CFC6032E4F54CF527E52725E02476F816
:10234900E6FA08E6FB4A601585262C85252B8524A7
:102359002A8523298A2D8B2E7F68121B5F0527E585
:1023690027C3940840D390007FE526F01217BA904E
:10237900007FE0FFE48F2CF52BF52AF5297F681201
:0A2389001F6BBF01037F01227F00DC
:012393002227
:101CCF00122CFB8F268E258D248C23054F9000BC64
:101CDF00E0FCA3E0FDA3E0FEA3E0FFAB26AA25A94D
:101CEF0024A823C3120CFC6032E4F54FF527E52737
:101CFF0025E02476F8E6FA08E6FB4A601585262CDF
:101D0F0085252B85242A8523298A2D8B2E7F6912E1
:101D1F001B5F0527E527C3940840D3AF26AE25AD3B
:101D2F0024AC239000BC120D33C374329526FFE40C
:101D3F009525FEE49524FDE49523FCE47B107A279A
:101D4F00F9F8120BBB90006B120D331217BA9000FB
:101D5F00BCE0FCA3E0FDA3E0FEA3E0F52C8E2B8DF1
:101D6F002A8C297F69121F6BBF01037F01227F001D
:011D7F002241
:1024DC00122CE98F23054E900071E065236024E4F3
:1024EC00F54EF524E52425E02476F8E6FA08E6FB1B
:1024FC004A6007AD237F7112208D0524E524C39417
:10250C000840E1E5237006900071F0801190007C8A
:10251C00E0B40104787476019000717401F09000BD
:10252C0071E0FD7F71122741BF01037F01227F0003
:01253C00227C
:10279000122CE98F23E5237875666022E4F524E5A1
:1027A0002425E02476F8E6FA08E6FB4A6007AD2324
:1027B0007F7212208D0524E524C3940840E1E523AF
:1027C00078757003F680027601AD237F721227417F
:0827D000BF01037F01227F001D
:0127D80022DE
:102C8C00122CE9AD077F73122741BF01037F01228C
:022C9C007F00B7
:012C9E002213
:0618BA008B1D8A1E891F30
:1018C000EF120D7018E60119150319240419336578
:1018D000194266195167196068196F69197E711983
:1018E0008D720000199EAB1DAA1EA91FAD21AC2050
:1018F000122C758F22E522640160030219A3900067
:101900009CE004F0E0C3940550030219A3E4F01234
:101910002BAC0219A3AB1DAA1EA91FAD21AC20122E
:10192000221B8076AB1DAA1EA91FAD21AC20122A56
:10193000E38067AB1DAA1EA91FAD21AC20121E2893
:101940008058AB1DAA1EA91FAD21AC201221148006
:1019500049AB1DAA1EA91FAD21AC2012259D803ABE
:10196000AB1DAA1EA91FAD21AC20122319802BABE1
:101970001DAA1EA91FAD21AC20121CCF801CAB1DBF
:10198000AA1EA91FAD21AC201224DC800DAB1DAA1C
:101990001EA91FAD21AC201227908F228000E49059
:0519A000009CF0AF22E5
:0119A500221F
:032D17007F102208
:1017BA007F007E2F122B877F107E27122CB1E47BAD
:1017CA00E87A03F9F890006BE0FCA3E0FDA3E0FEE1
:1017DA00A3E0FF120C467808120D0D7D007C2F1233
:1017EA002B3A7F647E00122CB1E47BE87A03F9F885
:1017FA0090006BE0FCA3E0FDA3E0FEA3E0FF120C67
:10180A0046E47D017C2F122B3A7F647E00122CB1B4
:10181A009000B8E0FF7D027C2F122B3A7F647E0095
:10182A00122CB1900089E0FF7D037C2F122B3A7FA6
:10183A00647E00122CB1900089A3E0FF7D047C2F06
:10184A00122B3A7F647E00122CB1900087E0FF7D54
:10185A00057C2F122B3A7F647E00122CB190007FF8
:10186A00E0FF7D067C2F122B3A7F647E00122CB19A
:10187A0090007CE0FF7D077C2F122B3A7F647E006C
:10188A00122CB1900065E0FF7D087C2F122B3A7F65
:10189A00647E00122CB17F807E2F122B877F107EF0
:0F18AA0027122CB17D807C2FE4FF122B3AD2AF96
:0118B900220C
:0F2CC300386C6D786E6C676700312E302E3000E4
:0317B600015000DF
:1000260074482FF974003EFA7B01ED120B750FBF71
:0300360000010EB8
:0100390022A4
:0629A600AF157E007BFF6F
:0A29AC008E168F178B188A19891AEE
:1029B60074482FF974003EFA7B0185182085192189
:1029C600851A22851B23851C24121A8EE51C2517C1
:0B29D600F517E51B3516F516FEAF17D0
:0129E10022D3
:102969008B2F8A3089318C328D33E94A4B602DE5C2
:102979003345326027E5331533AE32700215324ED6
:10298900601AAB2FAA30A931120B2FFF12001E7447
:0D299900012531F531E43530F53080D922CB
:0A2A51008B2F8A3089318C328D33CF
:102A5B00E4FFFDFCC3ED9533EC9532501AAB2F051B
:102A6B0031E531AA307002053014F9120B2F2FFF0C
:072A7B000DBD00010C80DD20
:012A82002231
:0426EE008C2D8D2E74
:1026F2009000427455F0A374AAF0E4A3F0A3EFF0A3
:10270200E52DA3F0E52EA3F02407F52EE4352DF5F3
:102712002D7B017A007942E52E24FFFDE52D34FF61
:10272200FC122A517441252EF5827400352DF58351
:0F273200EFF07B017A007942AD2EAC2D022969C0
:042476008C6F8D706A
:10247A0074022570F570E4356FF56F90004274555B
:10248A00F0A374AAF0E4A3F0A3EFF0E56FA3F0E5DC
:10249A0070A3F0A374FFF0A3F074072570F570E43D
:1024AA00356FF56F7B017A007942E57024FFFDE50F
:1024BA006F34FFFC122A5174412570F5827400357D
:1024CA006FF583EFF07B017A007942AD70AC6F0251
:0224DA0029696E
:102BCF00E4FFE550700AFEFD1200267550018007E4
:102BDF007E007D01120026EFFD7C00E4FF0226EE51
:1029E200E4F5157BFF7A2C79C31225F38E1B8F1C1D
:1029F2007A2C79C31229A68F157BFF7A2C79CC12F7
:102A020025F38E1B8F1C7A2C79CC1229A68F15EFF9
:082A1200FD7C007F010226EEAD
:082D0300E4FDFC7F020226EE54
:022B61008F1CC7
:102B6300122D17E4FEEEC39F501775F002EEA42456
:102B7300C1F582E5F03400F583E0651C60030E8047
:032B8300E4AF06B6
:012B8600222C
:06253D008B158A168917B8
:10254300120B2FF518900001120B48F51990000299
:10255300120B48751B00F51A900003120B48251B3C
:10256300F51BE4351AF51AAF18122B6175F002EF5B
:10257300A424C2F582E5F03400F583E06519600315
:102583007F0022AB15E5172404F9E43516FA851A02
:0925930020851B21AF181218BAB3
:01259C00221C
:040D96008E0D8F0E21
:100D9A0074262FF58274003EF583E0FF244C70031D
:100DAA00020E9D24B4B409004003021019900DBE2E
:100DBA00F8282873020DD9020DDC020DDF020DE2BC
:100DCA00020DFB021019020E02021019021016027D
:100DDA002BCF0229E2022D037429250EF582740015
:100DEA00350DF583E090001FF0E4FDFC7F03022639
:100DFA00EE9000227401F0227427250EF582740009
:100E0A00350DF583E0751400F5137428250EF58267
:100E1A007400350DF583E02514F514E43513F51344
:100E2A00E4F511F512C3E5129514E5119513400383
:100E3A00021019E50E2512FDE50D3511FC742B2D56
:100E4A00F58274003CF583E0751000F50F742C2DC3
:100E5A00F58274003CF583E02510F510E4350FF5B2
:100E6A000F7429250EF97400350DFA7B01E9251254
:100E7A00F9EA3511FA12253DBF01031217BAE51036
:100E8A002404FFE4350FFEEF2512F512EE3511F5B5
:100E9A001180927427250EF5827400350DF583E0D2
:100EAA00751400F5137428250EF5827400350DF5B6
:100EBA0083E02514F514E43513F513742A250EF589
:100ECA00827400350DF583E0F8E47977F7E819F7CD
:100EDA00742B250EF5827400350DF583E07877269C
:100EEA00F618E436F6742C250EF5827400350DF5E5
:100EFA0083E0F8E47979F7E819F7742D250EF5827D
:100F0A007400350DF583E0787926F618E436F67420
:100F1A002E250EF5827400350DF583E0F8E4797B11
:100F2A00F7E819F7742F250EF5827400350DF5834D
:100F3A00E0787B26F618E436F67430250EF58274CE
:100F4A0000350DF583E0F8E4797DF7E819F7743197
:100F5A00250EF5827400350DF583E0787D26F618A6
:100F6A00E436F67432250EF5827400350DF583E009
:100F7A00F8E4797FF7E819F77433250EF5827400DF
:100F8A00350DF583E0787F26F618E436F6743425B5
:100F9A000EF5827400350DF583E0F8E47981F7E8FF
:100FAA0019F77435250EF5827400350DF583E0784E
:100FBA008126F618E436F67436250EF58274003565
:100FCA000DF583E0F8E47983F7E819F77437250E0D
:100FDA00F5827400350DF583E0788326F618E43639
:100FEA00F67438250EF5827400350DF583E0F8E4C1
:100FFA007985F7E819F77439250EF5827400350DED
:0F100A00F583E0788526F618E436F622121538BD
:0110190022B4
:102C0D00E5548555838556826551700AE553658275
:0E2C1D007004E552658360037F01227F002270
:1028EA00E5518552838553826554700AE55665829F
:1028FA007004E55565836029C390001FE5569582EB
:10290A00E55595834009755401755500755600AB18
:10291A00540556E556AA557002055514F9120B2F9F
:01292A00FFAD
:01292B002289
:1009D000020B24EC5D046005E859047003020B1A55
:1009E000120AE5580460F6EC4860F2EC7004FDFE73
:1009F000FF22C860DB2481C85009C39860025006FA
:100A0000020B219850CAF582E9294B4A7005AB8246
:100A1000020B1075F0007C1A7880C3EF9BEE9AED04
:100A200099400DC3EF9BFFEE9AFEED99FDE842F071
:100A3000DC23ACF0D0E0FFD0E0FED0E0FDAB8220C4
:100A4000E7101BEB60BAEC2CFCEF33FFEE33FEED4E
:100A500033FD020AFCE803F830E705C0F075F0004A
:100A6000EF2FFFEE33FEED33FD40B830E7C280AA32
:100A700075F020800E75F010800575F0087D007E01
:100A8000007F003392D530D503120CD8EC334010E0
:100A9000EF33FFEE33FEED33FDEC33FCD5F0ED220A
:0E0AA000E5F0247EA2D513CC92E7CDCEFF2246
:100AAE00EDD2E7CD33EC3392D524814006E4FFFE40
:100ABE00FDFC22FCE4CFCECDCC24E0501174FF809F
:100ACE00EDC3CC13CCCD13CDCE13CECF13CF04703C
:070ADE00F030D5DE020CD858
:100AE500E9D2E7C933E833F892D5EDD2E7CD33EC57
:070AF50033FC5002B2D522D0
:100AFC00EC30E7100FBF000C0EBE00080DBD00045B
:100B0C000BEB6014A2D5EB13FCED92E7FD2274FF06
:100B1C00FCFDFEFF22E480F8A2D574FF13FC7D805F
:030B2C00E480EF73
:10200D0002101AE493A3F8E493A34003F68001F2BF
:10201D0008DFF48029E493A3F85407240CC8C333D4
:10202D00C4540F4420C8834004F456800146F6DFA3
:10203D00E4800B0102040810204080901688E47E95
:10204D00019360BCA3FF543F30E509541FFEE49398
:10205D00A360010ECF54C025E060A840B8E493A35F
:10206D00FAE493A3F8E493A3C8C582C8CAC583CA8A
:10207D00F0A3C8C582C8CAC583CADFE9DEE780BE42
:0117B900002F
:100B2F00BB010689828A83E0225002E722BBFE02C4
:090B3F00E32289828A83E49322F7
:100B4800BB010CE58229F582E5833AF583E0225062
:100B580006E92582F8E622BBFE06E92582F8E222AC
:0D0B6800E58229F582E5833AF583E49322C6
:100B7500BB010689828A83F0225002F722BBFE015F
:020B8500F32259
:100B8700F8BB010DE58229F582E5833AF583E8F0A4
:100B9700225006E92582C8F622BBFE05E92582C850
:020BA700F22238
:100BA900EF8DF0A4A8F0CF8CF0A428CE8DF0A42E60
:020BB900FE221A
:100BBB00E88FF0A4CC8BF0A42CFCE98EF0A42CFCD9
:100BCB008AF0EDA42CFCEA8EF0A4CDA8F08BF0A457
:100BDB002DCC3825F0FDE98FF0A42CCD35F0FCEBB6
:100BEB008EF0A4FEA9F0EB8FF0A4CFC5F02ECD397B
:0F0BFB00FEE43CFCEAA42DCE35F0FDE43CFC22E8
:100C0A0075F008758200EF2FFFEE33FECD33CDCCA1
:100C1A0033CCC58233C5829BED9AEC99E582984024
:100C2A000CF582EE9BFEED9AFDEC99FC0FD5F0D601
:100C3A00E4CEFBE4CDFAE4CCF9A88222B800C1B92B
:100C4A000059BA002DEC8BF084CFCECDFCE5F0CB69
:100C5A00F97818EF2FFFEE33FEED33FDEC33FCEBA2
:100C6A0033FB10D703994004EB99FB0FD8E5E4F95D
:100C7A00FA227818EF2FFFEE33FEED33FDEC33FC4A
:100C8A00C933C910D7059BE99A4007EC9BFCE99A3E
:100C9A00F90FD8E0E4C9FAE4CCFB2275F010EF2F83
:100CAA00FFEE33FEED33FDCC33CCC833C810D70783
:100CBA009BEC9AE899400AED9BFDEC9AFCE899F8BE
:0E0CCA000FD5F0DAE4CDFBE4CCFAE4C8F92251
:0E0CD800C3E49FFFE49EFEE49DFDE49CFC222D
:100CE600EB9FF5F0EA9E42F0E99D42F0EC6480C885
:060CF60064809845F02225
:100CFC00EB9FF5F0EA9E42F0E99D42F0E89C45F04E
:010D0C0022C4
:100D0D00E8600FECC313FCED13FDEE13FEEF13FFC4
:030D1D00D8F122E8
:100D2000E8600FEFC333FFEE33FEED33FDEC33FC31
:030D3000D8F122D5
:0C0D3300ECF0A3EDF0A3EEF0A3EFF02233
:100D3F00A8828583F0D083D082120D56120D5612E1
:100D4F000D56120D56E473E493A3C583C5F0C58306
:100D5F00C8C582C8F0A3C583C5F0C583C8C582C8FE
:010D6F002261
:100D7000D083D082F8E4937012740193700DA3A312
:100D800093F8740193F5828883E473740293686026
:060D9000EFA3A3A380DF26
:00000001FF
