:03000000021C0BD4
:0C1C0B00787FE4F6D8FD758185021C523C
:10139A00045000000000410006004100420C4100D8
:1013AA0043404400390000000044001800000000D7
:1013BA0044001C0000000044005F000000004400DC
:1013CA0049000000004400650000000042002D00B2
:1013DA0001420016000041000D00410037004200A2
:1013EA006A000042000E000041000008410045006A
:1013FA00015400015500410015004100240141003B
:10140A002F0A410048004100440A410036004100C9
:10141A00380042000B000041000200027F00000277
:10142A007D0000106C0000000000000000000000B9
:10143A000000000000016B00016A00016800410021
:10144A000A00410007004100140042002500004242
:10145A000034000041006300410003004200040020
:10146A00004100010041002C0041003000410041D0
:10147A0000017C00016900420046000050004F0054
:10148A000000000000000000000000000000004210
:04149A000008000046
:10125000EF24A0FFEE340FFEE43DFDE43CFC12055C
:101260001FD30204D0E4900045F09000437440F096
:101270009000377402F09000007406F0E4900006CD
:10128000F090005F229000181205139000391205AB
:101290001F120374900018120537900018020513EE
:1012A00090003912051FC30204D0E4FCFD12037440
:1012B00090006502053790003D120513EF2470FF82
:1012C000EE3417FEE43DFDE43CFC900018221229A8
:1012D000E3E47BE87A03F9F8900010020513E47563
:1012E000F00102035E900043E0FF900006E0C39F20
:1012F00022D390002EE0940090002DE09400221262
:10130000051390001C12051F0203741202F7AC06AD
:10131000AD07E41201C3E4FBFA79C8784202012167
:101320007F647E000229E3900010020537900039A7
:10133000020513E4FFFEFD7C3F12002D0201FCD3E9
:1013400090006BE0940090006AE094002290002FDF
:10135000E0900044F0227F0A122613900031EFF053
:1013600090006422F0900049020513900065020588
:101370001FD39DEC6480F87480982290001C0205B5
:1013800013E47B02FAF9F802041A90001802051F10
:0A1390007E2F12291B7F107E2722FA
:102814008E098F0A8B0B8A0C890DAF051DEF602181
:10282400050AE50AAE097002050914F5828E83E4EF
:1028340093FF780BE475F001120580EF1202C38058
:02284400D92297
:1028A6008F828E83E4F553F552F551F550AF82AE23
:1028B60083E4FCFDAB53AA52A951A850C31204D01D
:0828C600500543BD1080E6221D
:0929DA00E0FF7C2F1228CE7F647F
:1029E300E4FDFCC3ED9FEC9E50070DBD00010C8080
:0129F300F2F1
:0129F40022C0
:10000300758E5190FE917401F0A37410F075BD5F6D
:0700130090FEA07420F02212
:10298100E490FE80F0758901758DFA758BCB43A8B3
:0E29910008438840758CCB758AEB4388102272
:1028460090FF10E054F04408F090FF02E054F0448A
:1028560002F0D28490FFA07420F0A37404F075CC2B
:102866000675CEFF75CD98759E0275981043A81013
:01287600223F
:102A0F0043B40343B4807F147E001229E375B501EC
:072A1F0090FE9B744BF022B6
:1029F50090FF08E04488F090FF00E0540F4430F069
:0A2A050090FF11E054F04403F022AA
:0B2A85008F99E59830E1FB5398FD228B
:102613008FB543B440E5B430E5FB53B4DF12132068
:10262300E4FBFAF943B440E5B430E5FB53B4DFE52A
:10263300B62BFBE5B73AFA7F147E001229E309B9FA
:0C26430010E275B501A902121320AF01CE
:01264F002268
:100F79007B017A00794F7D107F007E2F1228149013
:100F8900004FE0FFE4FCFDFE1213271212D8780887
:100F99001204F412132790001012051F900050E05C
:100FA900FFE4FCFDFE1203741213271212D8E47B2E
:100FB900E87A03F9F812038F121327E47F307E755C
:100FC900FDFC9000101212A340107F007E097D3DA8
:100FD9007C0090001012125E400A90001012054326
:100FE90000009C40900051E0900069F07002800779
:100FF900900069E0B4FE0374FFF0900052E0FF90A6
:101009000032E4F0A3EFF0E0F8E4F0E8900032F009
:10101900900053E0FF900032E48FF012035E9000DD
:1010290032E0FEA3E0FF4E6009D3EF9408EE940787
:101039004009900032E4F0A37405F0900054E09068
:10104900002FF0900038F0900055E0900027F060F4
:1010590006E0D394FF40069000277401F0900056F3
:10106900E0F45401900024F0900057E05401786BAB
:10107900F6A3E05401900015F0900059E054019056
:101089000014F090005AE090000AF07B017A007990
:10109900087D027F807E2F122814900008E09000BE
:1010A90036F0900009E0900007F07F807E2F12292A
:1010B9001B7F107E271229E3900036E004F0E0FF41
:1010C9007D807C2F1228CE121320900007E0700338
:1010D900022A5F900007E0FFB4010A7D817C2F128C
:0610E90028CE12132022A4
:1005B600E5546003020A9043B440E5B430E5FB53CA
:1005C600B4DF85B70985B60A9000161212DE12133B
:1005D6006BAE09AF0A1212AA90004DE0FEA3E0FF2F
:1005E600C3950AEE9509500DC3E50A9FF50AE5097C
:1005F6009EF509800BC3EF950AF50AEE9509F509F4
:1006060090001C12051FAE09AF0AE4FCFD1203742C
:1006160090001C120537900016E05401FEA3E04E30
:10062600705212133F4017900044E09464503DE02E
:100636002402F0E0D3946440337464F0802E90007A
:100646000EE07004A3E06401702A90002FE0FF9092
:100656000044E0FED39F4014EE94024004E024FEE2
:10066600F0900044E0C39F500312134D900044E005
:10067600FF121ED0C3900016E094205003020ABF5A
:1006860043BD10E4F0A3F0900045E004121364901B
:100696000065121305900049120537900045E0C326
:1006A60094084030E412136478101204E190004973
:1006B60012053712136590004DEE8FF012035E900F
:1006C600004DE0C313F0A3E013F090004912054378
:1006D60000000000900000E0C394085005E004F01C
:1006E600804090006AE07002A3E07036121356E074
:1006F600FE2402FDE433FCEF121371501890003112
:10070600E02402FDE433FCEE1213715008900064FD
:10071600E0900031F0900031E0900064F0E4900049
:1007260000F0E4FFFEFDFC9000181212A3703312D5
:10073600137BEF2488FFEE34131212C31205379091
:10074600002DE07002A3E070197F407E427D0FFC11
:1007560090001812125E400A900018120543000F0E
:100766004240900006E0701312137B900039120588
:10077600379000281205430000000190002812124D
:10078600FF1212A0400302093590002812051390AB
:10079600003912130590001C1212A34003020935FA
:1007A600900006E004F090005F1212FF90005F12C6
:1007B6000537900006E0FFFBE4FAF9F890005F12B7
:1007C600051312041A90003912053712132D7803F7
:1007D6001204E1900028120537E47F207E4EFDFCCE
:1007E6009000281212A3500A900028120543000018
:1007F6004E20E47F607EEAFDFC90002812125E40E7
:100806000A9000281205430000EA6012132D90009A
:100816001812125E403E90003912051F12129A12EB
:1008260003811212B07F807E387D017C00900065C6
:1008360012125E40089000427406F0801DE47F406C
:100846007E9CFDFC90006512125E9000424008748A
:1008560009F08006900042740CF09000421212E8F3
:10086600403B12129A1212A05033900043E09410AB
:100876005003020944900042E0D394095005121334
:100886002D801112132D900018121250400C1212C6
:10089600851213819000181205370209351212E5E8
:1008A600500302094412129A9000391212504077EE
:1008B60012138A12132D1203811212B07F007E12B8
:1008C6007D7A7C001212A0505E7F807E1A7D067CA7
:1008D600009000651212A3504E900043E094104021
:1008E6000280387FE07E937D047C009000651212C2
:1008F6005E40089000437410F0801B7FF07E497DB7
:10090600027C0090006512125E9000434005740C54
:10091600F080037408F01212E5400C1212851213CF
:10092600819000181205371212E54012E48004E4A3
:10093600900006F090005F12054300000000900052
:1009460037E0D394004036E014F01212B612125E6D
:100956005003020A4390003D120513EF2498FFEE60
:10096600343AFEE43DFDE43CFC90001C1212A34028
:1009760003020A431212B6120537020A431212F193
:10098600405774FFF5F012035E1212F1404B7F00E0
:100996007E127D7A7C0090001812125E400C900048
:1009A60010120543000C3500802F1212D812138A3C
:1009B6001212AD7F407E547D897C00900065121234
:1009C6005E401612138AC374409BFF74549AFE74D9
:1009D6008999FDE498FC1213271212D89000181278
:1009E600130590001C12125E4053900069E0FF90C0
:1009F6000031E0D39F40051212F1404190006AE0B9
:100A06007002A3E0700912129A90003D1205379009
:100A1600006AE4F0A304F0786AF69000251212DE6C
:100A260090002C7401F09000437408F0E490000EDE
:100A3600F0A3F0787FF608F6787DF608F612137BB9
:100A46009000201205379000651205430000000053
:100A560090001C1205430000000090006AE0FEA30F
:100A6600E0FFD39400EE9400404F900032E0FCA3E8
:100A7600E0FDD3EF9DEE9C4040E490006AF0A3F0C9
:100A8600755401786AF67868F62290000EE4F0A3B1
:100A960004F0E4F55490000BF0A3F0900002F07F10
:100AA600FAFE1228A6900049120543000000001223
:090AB60012651205430000000066
:010ABF002214
:101FEF00E4F50A90006512054300000000E4F509CE
:101FFF0043B440E5B430E5FB53B4DF12136BAFB617
:10200F00AEB71212AA0509E509B480E47F907E01EC
:10201F001228A6900065120513780B1204E18F09A0
:10202F00E509D3940C400CE509948D5006E50A940C
:0D203F0014500A050AE50AD3945040A72268
:01204C002271
:10204D0090006512054300000000E4F509E4F50C6D
:10205D00F50D43B440E5B430E5FB53B4DF85B70A65
:10206D0085B60B12136BAE0AAF0B1212AA050DE556
:10207D000D7002050CB400DAE50CB420D543BD108B
:10208D000509E509B408C69000651205137810120C
:0A209D0004E190004DEEF0A3EFF017
:0120A7002216
:1022B400BF0105E4FCFD802E7E007C017DFF12023F
:1022C400F71C7D64120309AC06AD07E41201C38F49
:1022D4002B8E2A8D298C28AB2BAA2AA929A828124F
:1022E4001333AC06AD0790FF907411F075DA0175E5
:0E22F400E30175E2FF8CE58DE475E10F7F00DC
:0123020022B8
:10274100BF0104E4FE801E7E007C007DFF12130B9E
:102751008F2B8E2A8D298C28AB2BAA2AA929A82850
:10276100121333AE0790FF9C7410F075DEFF8EDFFD
:0527710075DD947F00FE
:012776002240
:021ED0008F265B
:101ED200787CE6B526037F0022787CA626E526706C
:101EE20006900063048016E526B4640CE490006357
:101EF200F090003004F0800B9000637402F0E490E4
:101F02000030F0E526FD7C0090000AE0FF7E001222
:101F1200130BE4FBFAF9783F1213398F27C3E52636
:0D1F22009527FF1222B4AF271227417F0040
:011F2F00228F
:100D6100122A3D1200031229F51229811228461276
:100D71002A0F75BBAA90FEA774FFF053BBF7D2AF41
:100D81007FC87E001228A6121356F0C2AF120F7947
:100D91007F64121ED0D2AF121FEF90002FE0FF90A0
:100DA1000044F0121ED07F2C7E011228A612204D85
:100DB10090006512054300000000900036E0D394D6
:100DC100034007E4F0122A5F80031219AB7869E649
:100DD10060237F64120F6EE4FF120F6E90004612C3
:100DE10012DEC3900047E0942C900046E09401404D
:100DF10004E47869F6900003E0FF900063E0FD6F82
:100E010060277F76122777900063E0900003F090CF
:100E11000041E0FF900030E0FD6F600D7F77122709
:100E210077900030E0900041F0900001E0640170A3
:100E31004190002CE0B4013AE4900001F090002CC4
:100E4100F0900025E0FEA3E0FF900034E06E700317
:100E5100A3E06F601DE48F2D8E2CF52BF52A7F7496
:100E6100121D0E900025E0FFA3E0900034CFF0A307
:100E7100EFF043BD10E554700B900017E0541F7064
:100E8100031210EF900024E064016003020F39E5C2
:100E910055701CF55475550112134D9000491205FA
:100EA1004300000000121265120543000000001209
:100EB10005B6D390000FE0940090000EE09400403E
:100EC10033900002E0B4012CE4F090000E1212DF26
:100ED100900027E0FFC390000FE09F90000EE09488
:100EE100004011E4F0A3F0900014E064016005E417
:100EF100FF121ED012133F400F787EE664011846A0
:100F01007006F608F61212DF786BE66401600302E0
:100F11000DCE18E6FF7868667003020DCEA6079025
:100F2100006AE4F0A304F0E4F508E508C39408407E
:100F310003020DCE050880F2E4F555900015E0702E
:100F410007FF121ED0020DCE900038E0FF121ED016
:100F5100E4F55412134D90004912054300000000BE
:0D0F610012126512054300000000020DCEC3
:0B0F6E00121ED07F647E001228A62215
:03001B0002177D4C
:10177D00C0E0C0F0C083C082C0D075D000C000C032
:10178D0001C002C003C004C005C006C007AF53AE00
:10179D0052AD51AC50EF2401FFE43EFEE43DFDE4BB
:1017AD003C8F538E528D51F55090000B1212DE90DE
:1017BD00000BE0FEA3E0FFE4FCFD7B607AEAF9F8A4
:1017CD00D31204BA500C90000BE4F0A3F090000279
:1017DD0004F0788006E618700106C37880E694E878
:1017ED0018E69403400C7600087600787D760008A4
:1017FD0076019000041212DEC3900005E094B090C3
:10180D000004E094044009E4F0A3F090000104F01A
:10181D00D007D006D005D004D003D002D001D0001F
:0B182D00D0D0D082D083D0F0D0E032C9
:0300230002247F35
:10247F00C0E0C0F0C083C082C0D075D000C000C023
:0D248F0001C002C003C004C005C006C007A4
:0F249C00E59830E00AAF991224345398FED2AF7E
:1024AB00D007D006D005D004D003D002D001D00085
:0B24BB00D0D0D082D083D0F0D0E0322F
:10291B0053BBF7C280E5BB20E3F6D280C2AF75FD97
:10292B00F075FC0F8EFA8FF975FDD275FC2D75FDC8
:05293B00E175FC1E2205
:1028CE0053BBF7C280E5BB20E3F6D280C2AF8FFBCD
:1028DE0075FDF075FC0F8CFA8DF975FDB475FC4B1A
:0728EE0075FDE175FC1E22DF
:1019AB007F001213901212CE12041A78081204E15F
:1019BB007D007C2F1228CE7F647E001212CE120483
:1019CB001A7D017C2F1228CE1213209000697D0204
:1019DB001229DA9000327D031229DAA3E0FF7D048D
:1019EB001229DC90002FE0FF7D051229DC900027E7
:1019FB00E0FF7D061229DC900024E0F4FF7D071246
:101A0B0029DC786BE6FF7D081229DC900015E0FFDE
:101A1B007D091229DC900014E0FF7D0A1229DC906D
:101A2B00000AE0FF7D0B1229DC7F80121390122934
:101A3B00E37D807C2FE4FF1228CE0D0F1228CED22F
:011A4B00AFEB
:011A4C002277
:04149E0002660000E2
:10183800120296FFE52E4FFFE52DFEE52CFDE52B68
:101848008F2E8E2D8D2CF52BFC78081204F48F2EFC
:101858008E2D8D2C22AF2DAE2CAD2BAC2A1204E18F
:10186800AD0722AF2DAE2CAD2BAC2A1204E1AD078B
:1018780022AB07E4FDFC90008DE022854E83854F66
:1018880082E54C9582E54B958322C3E567950AFF6F
:10189800E5669509FEC3EF22AC06AD077F0722E493
:1018A80075F001020580AF65AE64AD63AC620204F9
:1018B800E1FEE544FDE543FCE47BFF22E4F51DF58C
:1018C8001CF51BF51A22120296AB26AA27A9282274
:1018D800AF05AE04AD0322754A01754B00754C6C1B
:0B18E80022748F250AF97400350922D4
:101DF600EFC39430400CEFD39439500674D02FFFC4
:101E06008022EFC39441400CEFD394465006EF2452
:101E1600C9FF8010EFC39461400AEFD39466500463
:101E2600EF24A9FFEF540FC454F0FFEDC3943040E4
:101E36000CEDD39439500674D02DFD801EEDC3945D
:101E4600414008EDD394465002800CEDC3946140A6
:101E56000AEDD394665004ED24A9FDED540F420714
:011E66002259
:06250D008B178A188919E2
:102513001218C4E94A4B7005FFFEFDFC221218C4D1
:1025230078171218A712027D601AE51D2401FFE433
:10253300351CFEE4351BFDE4351A8F1D8E1C8D1BE7
:0C254300F51A80DCAF1DAE1CAD1BAC1AFD
:01254F002269
:0627AD008B398A3A893BDA
:1027B3008B3F8A408941E94A4B7004FBFAF922E5D1
:1027C3003E153EAE3D7002153D4E600B783F12182C
:0D27D300A7ED1202C380E8AB39AA3AA93B7A
:0127E00022D6
:0615F7008B1E8A1F8920F3
:1015FD008B268A27892885212985222A85232BE96F
:10160D004A4B6008E5234522452170077B007A008F
:10161D00790022D3852A83852B82E5289582E527BB
:10162D0095834019E52B2525F9E52A3524FA8A837A
:10163D008982D3E5289582E52795834032E4F52C00
:10164D00F52DC3E52D9525E52C9524505BAB29AAE9
:10165D002AA92B852D82852C831218CE852D828566
:10166D002C831202D5052DE52D70D7052C80D38541
:10167D00242C85252DD3E52D9400E52C94004028B0
:10168D00AB29AA2AA92BE52D24FFFFE52C34FFFE5B
:10169D008F82F5831218CE8F828E831202D5E52D9F
:0E16AD00152D70D1152C80CDAB1EAA1FA920C3
:0116BB00220C
:1027E1008F658E648D638C6278181204E1EF12029A
:1027F100C378101218AE900001EF1202D5780812BA
:1028010018AE900002EF1202D5E565FF900003EFCC
:032811000202D5EB
:1023E900E4F52EF52DF52CF52B12027DFFE48F2E49
:1023F900F52DF52CF52BAE2DAD2CAC2B1218518CDF
:102409002B9000011218388C2B9000021218388C6E
:102419002B900003120296FFE52E4FFFE52DFEE5F6
:0A2429002CFDE52B121856F52BFCD4
:012433002286
:062ABA0090008EE0FF22F7
:0C2A7900E490008EF0FDFC7F040222615E
:062AC00090008BE0FF22F4
:082351008F568B578A588959F9
:1023590012187BB401037F0122AF05AE04AD5612FA
:102369002A6CAC06E4FD122A6CAC06E55AFD122A69
:102379006CAC06AD5B122A6CAC06AD07AB57AA581C
:10238900A959855A1C855B1D1228771218A012229B
:03239900617F0160
:01239C00221E
:022592008D2694
:10259400121879B401037F01221218D81225C6E457
:1025A400FD1225C6AD07E5267003FD8006AF05AE16
:1025B400047D01122A6CAC06AD077F071222617FED
:0125C4000115
:0E25C50022122A6CAC067D01122A6CAC062292
:081F90008F268D278A288B297A
:101F9800E4FDFCF52A90008DE0B401037F0122AF37
:101FA80005AE04E528FD122A6CAC06AD29122A6C90
:101FB800AC06AD26121FE2E4FD121FE2AD07E527CD
:101FC8007003FD8006AF05AE047D01122A6CAC06D5
:091FD800AD077FB21222617F0106
:0E1FE10022122A6CAC067D01122A6CAC06227C
:08215E008F268D278A288B29AA
:10216600E4FDFCF52A90008DE0B401037F0122AF67
:1021760005AE04E528FD122A6CAD291221ADAD2667
:10218600122A6C7D041221ADE4FD122A6CAC067D88
:1021960001122A6CAC06AD27122A6CAC06AD077F7D
:0621A600B21222617F016C
:0921AC0022AC06122A6CAC0622DA
:101D0E00121879B401037F01221218D8122A6CAC72
:101D1E00067D02122A6CAC06E4FD122A6CAC067D1E
:101D2E0004122A6CC006C007781812185DD007D0AE
:101D3E0006122A6CC006C007781012185DD007D0A4
:101D4E0006122A6CC006C007AF2DAE2CAD2BAC2AE6
:101D5E0078081204E1AD07D007D006122A6CAC0643
:101D6E00C007E52DFFE4AD07D007122A6C1218A0AC
:051D7E001222617F014B
:011D8300223D
:021AE8008F2944
:101AEA00E4FDFCF53090008DE0B401037F0122AFE4
:101AFA0005AE04E52EFD122A6CAC06AD2F122A6C37
:101B0A00AC06AD29122A6CAC067D02122A6CAC0610
:101B1A00E4FD122A6CAC067D04122A6CC006C007CA
:101B2A00781812186BD007D006122A6CC006C007A4
:101B3A00781012186BD007D006122A6CC006C0079C
:101B4A00AF2DAE2CAD2BAC2A78081204E1AD07D02C
:101B5A0007D006122A6CAC06C007E52DFFE4AD07D4
:101B6A00D007122A6CAC06AD077FB21222617F0140
:011B7A002248
:08239D008F5C8B5D8A5E895F95
:1023A50012187BB401037F0122AF05AE04AD5C12A8
:1023B5002A6CAC067D03122A6CAC06E560FD122A78
:1023C5006CAC06AD61122A6CAC06AD07AB5DAA5EBE
:1023D500A95F85601C85611D1228771218A012223D
:0323E500617F0114
:0123E80022D2
:022777008D26AD
:10277900121879B401037F01221218D8122A6CACFD
:10278900067D04122A6CAC06E4FD122A6CAC067DA7
:1027990001122A6CAC06AD26122A6C1218A012225C
:0327A900617F014C
:0127AC00220A
:0216BC00AD0778
:1016BE00E4F547F54890008DE0B401037F01221256
:1016CE00175D7D05121775E4FD12177574FFFFE5A2
:1016DE00451218B9FAF9F8C31204D070097D011237
:1016EE00175DAD46803D74FFFF1218B97AFFF9F809
:1016FE00C31204D070047D0280197D04121769781C
:10170E0018121744AF46AE45AD44AC4378101204E0
:10171E00E1AD071217697808121744E546FFE4ADEC
:10172E0007AF48122A6C8E478F48AD48AC477F07EB
:05173E001222617F0191
:1017430022AF46AE45AD44AC431204E1AD07AF480A
:10175300AE47122A6C8E478F4822AF48AE47122AF3
:101763006C8E478F4822AF48AE47122A6C8E478F44
:0A1773004822122A6C8E478F48228C
:082A90008C268D2712027DFF48
:012A9800221B
:082A99008C268D2712027DFF3F
:012AA1002212
:072AA2008C298D2A1223E9A3
:012AA900220A
:102434008F38D31218834015E54C954FFFE54B9523
:102444004EFEC3EF941FEE64809480502DC3121887
:1024540083500DC3E54F954CFFE54E954B4F601AE5
:10246400C390008B12188940077A00796C1218DF28
:0B247400784A1218A7E5381202C322B4
:1010EF00E4F509F50AF50BF50CC3E5679423E566FE
:1010FF009400502412299FEFD39400401B1225D344
:10110F000567E567AC667002056614248FF5827477
:10111F00003CF583EFF080D1C3E5679407E5669453
:10112F0000500302124F1218929407EE94005003CE
:10113F0002121E748F250AF58274003509F583E0BB
:10114F006455600A050AE50A70DC050980D87490B9
:10115F00250AF58274003509F583E064AA600A0553
:10116F000AE50A70C1050980BD7491250AF58274DC
:10117F00003509F583E06004740280387493250A02
:10118F00F58274003509F583E0FE7494250AF58223
:10119F0074003509F583E07C002400FFEC3ECF247A
:1011AF0007F50CE43FF50BD3E50C942AE50B9400FF
:1011BF0040097403250AF50AE4804D121892950C24
:1011CF00EE950B404A1218E9FA7B01E50C24FFFD5E
:1011DF00E50B34FFFC1228F5E50A250CFDE5093572
:1011EF000BFC748E2DF58274003CF583E06F600963
:1011FF007403250AF50AE4800FAF0AAE09120AC07C
:10120F00E50C250AF50AE50B3509F509021135C379
:10121F00E567950AF567E5669509F566D3E5679481
:10122F0000E566940040191218E9752101F522892D
:10123F00238566248567257B017A00798F1215F740
:01124F00227C
:102A3D001218DF754D01754E00754F6C90008B743B
:032A4D00FFF02275
:1014A200018500048100000000602E00D1010103CB
:1014B2000204026504660267016802690271017230
:1014C2000173017402750176047704820483048433
:0B14D200048504860487048804890454
:1025500025E0246CF8E6FA08E6FB4A22AB1EAA1F27
:10256000A920AD22AC212290000AE0FFE48F2DF5D6
:102570002CF52BF52A22900025E0FEA3E0FFE48F46
:102580002D8E2CF52BF52A22E0FFE4FCFDFEC30284
:0225900004D075
:0D2A5F00E4FDFC7F041222617869760122FB
:1029BD00E4FEEF7004FFFD8006EEFF7E007D011248
:0D29CD002A6CAE07EEFD7C007FB102226196
:03001E00022A852E
:1014E1009000007F011215AF9000157F711215AFAA
:1014F10090002F12256A7F031215BC900069E0FF4E
:10150100B4FF05E4F516801EEFB4C8057516028018
:1015110015EFB42805751603800CEFB41405751684
:10152100048003751605AD167F651227777F647EEB
:10153100001228A69000321225797F661215BC9000
:1015410000247F671215C790002712256A7F681251
:1015510015D4E47B107A27F9F890001012051312C4
:10156100041AC374329F12256B7F691215D4786BEC
:10157100E6FD7F721225927F647E001228A6122555
:10158100677F041215EC9000147F731215C71225A2
:10159100767F741215EC9000637F761215DF900050
:0E15A100307F771215DFE4FDFC7FB40222617B
:1015AF00E0FD1225927F647E001228A622121D0EE6
:1015BF007F647E001228A622E0FD1225927F647EB2
:1015CF00001228A622121D0E7F647E001228A6226A
:1015DF00E0FD1227777F647E001228A622121D0ECF
:0815EF007F647E001228A62291
:102A2600122A90900000EFF0FD7F01122592BF015F
:062A3600037F01227F0076
:012A3C002277
:101F3000122AA28F278E268D258C2490002FAB2766
:101F4000AA26A925A8241225886028E4F528E528D2
:101F5000122550601585272D85262C85252B852457
:101F60002A8A2E8B2F7F03121AE80528E528C394AE
:101F70000840DBAF2790002FEFF0FE900038F01202
:0F1F8000256C7F03121D0EBF01037F01227F001E
:011F8F00222F
:1021B500122AA28F2490000AE065246026E4F52502
:1021C500E5251225506013E485242DF52CF52BF516
:1021D5002A8A2E8B2F7F04121AE80525E525C3943C
:1021E5000840DD90000AE524F0E4FF121ED09000BF
:1021F50038E0FF121ED01225677F04121D0EBF01A5
:06220500037F01227F00AF
:01220B0022B0
:101C9700122A998F24E524788566601AE4F525E5EC
:101CA700251225506007AD247F6512215E0525E5C5
:101CB70025C3940840E9E5241460101460151460E6
:101CC7001A14601F1460242405702890006974FF9B
:101CD700F0802090006974C8F0801890006974281B
:101CE700F080109000697414F08008900031E09043
:101CF7000069F07885A624AD247F65122777BF0198
:061D0700037F01227F00B2
:011D0D0022B3
:101E6700122AA28F278E268D258C24900032E0FE21
:101E7700A3E0FFE4FCFDAB27AA26A925A824C312EB
:101E870004D06028E4F528E5281225506015852739
:101E97002D85262C85252B85242A8A2E8B2F7F6638
:101EA700121AE80528E528C3940840DBAE26AF27B9
:101EB700900032EEF0A3EFF012257E7F66121D0E22
:081EC700BF01037F01227F002F
:011ECF0022F0
:10268D00122A908F24900024E06524601AE4F52529
:10269D00E5251225506007AD247F67121F90052593
:1026AD00E525C3940840E9900024E524F0FD7F67FB
:0B26BD00122592BF01037F01227F0065
:0126C80022EF
:1020A800122AA28F278E268D258C24900027AB27F5
:1020B800AA26A925A8241225886028E4F528E52859
:1020C800122550601585272D85262C85252B8524DE
:1020D8002A8A2E8B2F7F68121AE80528E528C394D0
:1020E8000840DBAF27900027EFF012256C7F6812BD
:0A20F8001D0EBF01037F01227F00CF
:0121020022BA
:101B7B00122AA28F278E268D258C24788112050799
:101B8B00AB27AA26A925A824C31204D06028E4F504
:101B9B0028E528122550601585272D85262C8525AF
:101BAB002B85242A8A2E8B2F7F69121AE80528E5AC
:101BBB0028C3940840DBAF27AE26AD25AC24788133
:101BCB0012052BC374329527FFE49526FEE4952569
:101BDB00FDE49524FCE47B107A27F9F812038F902F
:101BEB00001012053778811205078F2D8E2C8D2B47
:0F1BFB008C2A7F69121D0EBF01037F01227F001C
:011C0A0022B7
:10220C00122A908F24900015E06524601AE4F525BD
:10221C00E5251225506007AD247F71121F9005250E
:10222C00E525C3940840E9E5247006900015F0807C
:10223C0011900024E0B40104786A760190001574C2
:10224C0001F0900015E0FD7F71122592BF01037F14
:04225C0001227F00DC
:01226000225B
:10230300122A908F24E524786B66601AE4F525E59C
:10231300251225506007AD247F72121F900525E515
:1023230025C3940840E9786BA624AF241229BD780D
:102333006BE66008E4FDFC7FB4122261786BE6FD76
:0D2343007F72122592BF01037F01227F00EF
:01235000226A
:1026C900122A908F24900014E06524601AE4F525FD
:1026D900E5251225506007AD247F73121F9005254B
:1026E900E525C3940840E9900014E524F0FD7F73C3
:0B26F900122592BF01037F01227F0029
:0127040022B2
:1024C600122A90EF70037F0122E4900025F0A3F01A
:1024D600F524E524122550601A900025E0FEA3E0BD
:1024E600FFE48F2D8E2CF52BF52A8A2E8B2F7F74E9
:1024F600121AE80524E524C3940840D61225767FEF
:0625060074121D0E7F019E
:01250C0022AC
:0618F3008B1E8A1F8920F4
:1018F900EF12059019250119470319500419596563
:1019090019616619696719716819796919817119F4
:101919008972199173199975000019A312255C121E
:101929002A268F23E52364017075900048E004F0AE
:10193900E0C394054069E4F0122A5F0219A8122550
:101949005C121F3002199F12255C1221B502199FE2
:1019590012255C121C97803E12255C121E67803688
:1019690012255C12268D802E12255C1220A8802655
:1019790012255C121B7B801E12255C12220C80161C
:1019890012255C122303800E12255C1226C98006DB
:1019990012255C1224C68F238000E4900048F0AF22
:0119A900231A
:0119AA00221A
:032AC6007F172255
:0F2A5000386C6D786E6C676700312E302E300059
:0314DD00014900C2
:101D84007493250EF5827400350DF583E075140007
:101D9400F5137494250EF5827400350DF583E02552
:101DA40014F514E43513F51322350DF583E0F8E446
:101DB40022E026F618E436F6227495250EF5827490
:101DC40000350DF583E02212051378101204E1ADFD
:101DD400072212051378081204E1AD072274B82F04
:101DE400F974003EFA7B0122E475F00112058002C9
:021DF400027D6E
:101A4D00E4FFFE90004DE0C4F854F0C8A3E0C45488
:101A5D000F48FD122A6C7E00900031E0FD122A6CB9
:101A6D007E00C006C007900018121DCBD007D0060F
:101A7D00122A6C7E00C006C007900018121DD6D029
:101A8D0007D006122A6C7E00C006C00790002012F7
:101A9D001DCBD007D006122A6C7E00C006C0079061
:101AAD000020121DD6D007D006122A6C7E00C0066B
:101ABD00C007900010121DCBD007D006122A6C7EE5
:101ACD0000C006C007900010121DD6D007D0061218
:0B1ADD002A6CEFFD7C007FC00222613C
:082AAA00E4FDFC7FC102226182
:0C2A6C00121DE1ED1202C30FBF00010EAD
:012A7800223B
:0A2877008E178F188B198A1A891B1F
:10288100121DE1851921851A22851B23851C2485AA
:102891001D251215F7E51D2518F518E51C3517F549
:0428A10017FEAF1857
:0128A5002210
:102650008B338A3489358C368D37E94A4B602DE5CA
:102660003745366027E5371537AE36700215364EDA
:10267000601AAB33AA34A93512027DFF12001E7412
:0D268000012535F535E43534F53480D922D7
:0A28F5008B338A3489358C368D3719
:1028FF00E4FFFDFCC3ED9537EC9536500E7833129F
:0B290F001DEC2FFF0DBD00010C80E946
:01291A00229A
:042261008C318D32FD
:102265009000B27455F0A374AAF0E4A3F0A3EFF0C4
:10227500E531A3F0E532A3F02407F532E43531F575
:10228500317B017A0079B2E53224FFFDE53134FF77
:10229500FC1228F574B12532F58274003531F583C9
:0F22A500EFF07B017A0079B2AD32AC31022650F6
:10296100E4FFE549700AFEFD122A6C7549018007F2
:102971007E007D01122A6CEFFD7C00E4FF022261E2
:10270500E4F5167A2A79501227317A2A7950122857
:10271500778F167A2A79591227317A2A7959122808
:0C272500778F16EFFD7C007F010222611F
:102731007BFF12250D8E1C8F1DAF167E007BFF22A5
:082AB200E4FDFC7F0202226139
:022940008F1DE9
:10294200122AC6E4FEEEC39F501275F002EE90000A
:0E295200D1120574E0651D60030E80E9AF062A
:012960002254
:062103008B168A178918F3
:1021090012027DF519900001120296F51A9000024B
:10211900120296751C00F51B900003120296251CED
:10212900F51CE4351BF51BAF1912294075F002EFB8
:102139009000D2120574E0651A60037F0022AB1685
:10214900E5182404F9E43517FA851B21851C22AF0B
:04215900191218F34C
:01215D00225F
:040AC0008E0D8F0EFA
:100AC40074922FF58274003EF583E0FF1205900BBB
:100AD4000C000B0F010B12020B15030B32040B3924
:100AE400060D5D080AF8B10BAFB40B06C00B09C1C3
:100AF40000000D60121DBD6003020D60FDFC7FB49B
:100B04008029021A4D022AAA022961022705022A13
:100B1400B2121DBDFF90008BF0BF020AE47869F6A3
:100B24001219AB1214E1E4FDFC7F03022261900070
:100B34008E7401F022121D84E4F511F512C3E5123E
:100B44009514E51195134003020D60E50E2512FD81
:100B5400E50D3511FC74972DF58274003CF583E0A6
:100B6400751000F50F74982DF58274003CF583E040
:100B74002510F510E4350FF50F7495250EF9740062
:100B8400350DFA7B01E92512F9EA3511FA12210330
:100B9400BF01031219ABE5102404FFE4350FFEEF87
:100BA4002512F512EE3511F5118092121D84121DD5
:100BB400BDF5157496250EF5827400121DAD796D80
:100BC400F7E819F77497250EF5827400350DF5834F
:100BD400786D121DB57498250EF5827400121DAD42
:100BE400796FF7E819F77499250EF5827400350DBD
:100BF400F583786F121DB5749A250EF58274001270
:100C04001DAD7971F7E819F7749B250EF582740010
:100C1400350DF583E07871121DB6749C250EF582AE
:100C24007400121DAD7973F7E819F7749D250EF55C
:100C3400827400350DF583E07873121DB6749E2519
:100C44000EF5827400121DAD7975F7E819F7749FDB
:100C5400250EF5827400350DF583E07875121DB606
:100C640074A0250EF5827400121DAD7977F7E8198A
:100C7400F774A1250EF5827400350DF583E07877BD
:100C8400121DB674A2250EF5827400121DAD797979
:100C9400F7E819F774A3250EF5827400350DF58372
:100CA400E07879121DB674A4250EF5827400121D25
:100CB400AD797BF7E819F774A5250EF58274003534
:100CC4000DF583E0787B121DB6786DE61846600456
:100CD4007D018002E4FD7F82122777786FE6184653
:100CE40060047D018002E4FD7F831227777871E63A
:100CF400184660047D018002E4FD7F841227777822
:100D040073E6184660047D018002E4FD7F851227A6
:100D1400777875E6184660047D018002E4FD7F86DD
:100D24001227777877E6184660047D018002E4FD97
:100D34007F871227777879E6184660047D01800260
:100D4400E4FD7F88122777787BE6184660047D01EE
:0C0D54008002E4FD7F890227771214E181
:010D60002270
:10299F00E54D854E83854F82654A700AE54C658209
:0E29AF007004E54B658360037F01227F0022E8
:1025D300AB4DAA4EA94FE54A854B83854C82654D89
:1025E300700AE54F65827004E54E65836021C390F0
:1025F300008BE54F9582E54E9583400D7A00796C0B
:0F260300754D01754E00754F6C784D121DECFF33
:0126120022A5
:10002600020268E86480F8E933E83360110460F09E
:10003600ED33EC337009E8FCE9FDEAFEEBFF220440
:1000460060DED3EB9FEA9EE99DE8C2E78CF0C2F73B
:1000560095F0400CE8CCF8E9CDF9EACEFAEBCFFB07
:1000660012023385D0F05804700320D5B3E804702B
:10007600075002B2D502027292D5EC0460F7E4CCC6
:10008600C0E0C398F8603B94186008400DD0E0FBD0
:1000960002024AE4FBFAC9FC8028E830E406E4C917
:1000A600FBE4CAFCE830E305E4C9CACBFCE8540724
:1000B6006010F8C3E913F9EA13FAEB13FBEC13FC2F
:1000C600D8F130F52FC3E49CFCEF9BFFEE9AFEEDD2
:1000D60099FDD0E0FBEF4E4D4C701222DB0302027D
:1000E6006FEC2CFCEF33FFEE33FEED33FDED30E726
:1000F600EB02024AEF2BFFEE3AFEED39FDD0E0FBB4
:1001060050130BBB0003020272ED13FDEE13FEEF5C
:0801160013FFEC13FC02024A86
:10011E00020272EC5D046005E85904700302026885
:10012E00120233580460F6EC4860F2EC7004FDFEE7
:10013E00FF22C860DB2481C85009C39860025006B4
:10014E0002026F9850CAF582E9294B4A7005AB82BC
:10015E0002025E75F0007C1A7880C3EF9BEE9AED7A
:10016E0099400DC3EF9BFFEE9AFEED99FDE842F02C
:10017E00DC23ACF0D0E0FFD0E0FED0E0FDAB82207F
:10018E00E7101BEB60BAEC2CFCEF33FFEE33FEED09
:10019E0033FD02024AE803F830E705C0F075F000BF
:1001AE00EF2FFFEE33FEED33FD40B830E7C280AAED
:1001BE0075F020800E75F010800575F0087D007EBC
:1001CE00007F003392D530D5031204ACEC334010CF
:1001DE00EF33FFEE33FEED33FDEC33FCD5F0ED22C5
:0E01EE00E5F0247EA2D513CC92E7CDCEFF2201
:1001FC00EDD2E7CD33EC3392D524814006E4FFFEFB
:10020C00FDFC22FCE4CFCECDCC24E0501174FF8059
:10021C00EDC3CC13CCCD13CDCE13CECF13CF0470F6
:07022C00F030D5DE0204AC46
:10023300E9D2E7C933E833F892D5EDD2E7CD33EC11
:0702430033FC5002B2D5228A
:10024A00EC30E7100FBF000C0EBE00080DBD000415
:10025A000BEB6014A2D5EB13FCED92E7FD2274FFC1
:10026A00FCFDFEFF22E480F8A2D574FF13FC7D801A
:03027A00E480EF2E
:101C1700020D61E493A3F8E493A34003F68001F275
:101C270008DFF48029E493A3F85407240CC8C333CE
:101C3700C4540F4420C8834004F456800146F6DF9D
:101C4700E4800B010204081020408090139AE47E80
:101C5700019360BCA3FF543F30E509541FFEE49392
:101C6700A360010ECF54C025E060A840B8E493A359
:101C7700FAE493A3F8E493A3C8C582C8CAC583CA84
:101C8700F0A3C8C582C8CAC583CADFE9DEE780BE3C
:0114E000000B
:10027D00BB010689828A83E0225002E722BBFE027F
:09028D00E32289828A83E49322B2
:10029600BB010CE58229F582E5833AF583E022501D
:1002A60006E92582F8E622BBFE06E92582F8E22267
:0D02B600E58229F582E5833AF583E4932281
:1002C300BB010689828A83F0225002F722BBFE011A
:0202D300F32214
:1002D500F8BB010DE58229F582E5833AF583E8F05F
:1002E500225006E92582C8F622BBFE05E92582C80B
:0202F500F222F3
:1002F700EF8DF0A4A8F0CF8CF0A428CE8DF0A42E1B
:02030700FE22D4
:10030900BC000BBE0029EF8DF084FFADF022E4CCD8
:10031900F875F008EF2FFFEE33FEEC33FCEE9DECA1
:10032900984005FCEE9DFE0FD5F0E9E4CEFD22EDE7
:10033900F8F5F0EE8420D21CFEADF075F008EF2F31
:10034900FFED33FD4007985006D5F0F222C398FD22
:050359000FD5F0EA22BF
:10035E00C5F0F8A3E028F0C5F0F8E582158270022A
:06036E001583E038F022C7
:0D037400EF2BFFEE3AFEED39FDEC38FC22D8
:0E038100C3EF9BFFEE9AFEED99FDEC98FC2277
:10038F00E88FF0A4CC8BF0A42CFCE98EF0A42CFC0D
:10039F008AF0EDA42CFCEA8EF0A4CDA8F08BF0A48B
:1003AF002DCC3825F0FDE98FF0A42CCD35F0FCEBEA
:1003BF008EF0A4FEA9F0EB8FF0A4CFC5F02ECD39AF
:0F03CF00FEE43CFCEAA42DCE35F0FDE43CFC221C
:1003DE0075F008758200EF2FFFEE33FECD33CDCCD6
:1003EE0033CCC58233C5829BED9AEC99E582984059
:1003FE000CF582EE9BFEED9AFDEC99FC0FD5F0D636
:10040E00E4CEFBE4CDFAE4CCF9A88222B800C1B95F
:10041E000059BA002DEC8BF084CFCECDFCE5F0CB9D
:10042E00F97818EF2FFFEE33FEED33FDEC33FCEBD6
:10043E0033FB10D703994004EB99FB0FD8E5E4F991
:10044E00FA227818EF2FFFEE33FEED33FDEC33FC7E
:10045E00C933C910D7059BE99A4007EC9BFCE99A72
:10046E00F90FD8E0E4C9FAE4CCFB2275F010EF2FB7
:10047E00FFEE33FEED33FDCC33CCC833C810D707B7
:10048E009BEC9AE899400AED9BFDEC9AFCE899F8F2
:0E049E000FD5F0DAE4CDFBE4CCFAE4C8F92285
:0E04AC00C3E49FFFE49EFEE49DFDE49CFC2261
:1004BA00EB9FF5F0EA9E42F0E99D42F0EC6480C8B9
:0604CA0064809845F02259
:1004D000EB9FF5F0EA9E42F0E99D42F0E89C45F082
:0104E00022F9
:1004E100E8600FECC313FCED13FDEE13FEEF13FFF9
:0304F100D8F1221D
:1004F400E8600FEFC333FFEE33FEED33FDEC33FC66
:03050400D8F12209
:0C050700E6FC08E6FD08E6FE08E6FF2220
:0C051300E0FCA3E0FDA3E0FEA3E0FF225B
:0C051F00E0F8A3E0F9A3E0FAA3E0FB225F
:0C052B00ECF608EDF608EEF608EFF622FC
:0C053700ECF0A3EDF0A3EEF0A3EFF02237
:10054300A8828583F0D083D08212055A12055A12ED
:10055300055A12055AE473E493A3C583C5F0C58312
:10056300C8C582C8F0A3C583C5F0C583C8C582C802
:010573002265
:0C057400A42582F582E5F03583F5832292
:10058000FAE6FB0808E6F925F0F618E6CA3AF6227C
:10059000D083D082F8E4937012740193700DA3A3FA
:1005A00093F8740193F5828883E47374029368600E
:0605B000EFA3A3A380DF0E
:00000001FF
