:03000000021C9F40
:0C1C9F00787FE4F6D8FD75818B021CE60E
:10128000045200000000410006004100430C4100F0
:10129000444044003A0000000044001800000000F0
:1012A00044001C0000000044005A000000004400FC
:1012B00047000000004400600000000042002C00D5
:1012C00001420016000041000D00410037004200BD
:1012D00065000042000E0000410000084100460089
:1012E0000156000157004100150041002401410052
:1012F0002F0A4100450A41003600410038004200F3
:101300000B00004100020002850000028100001075
:101310006E0000000000000000000000000000005F
:1013200000016D0041000A00410007004100140067
:101330004200250000420034000041005E014100EF
:101340000301420004000041000100016C00410063
:10135000300041004200017E00016A00027F00006F
:10136000016B00028303E84100390041002E004D6B
:10137000004D0000000000000000000000000042DE
:041380000008000061
:1013CD00EF24A0FFEE340FFEE43DFDE43CFC1205DE
:1013DD001FD30204D0E4900046F09000447440F016
:1013ED009000377402F09000007406F0E49000064F
:1013FD00F090005A2290001812051390003A120531
:10140D001F1203749000181205379000180205136F
:10141D0090003A12051FC30204D0E4FCFD120374C0
:10142D0090006002053790003E120513EF2470FF07
:10143D00EE3417FEE43DFDE43CFC90001822122B27
:10144D0081E47BE87A03F9F890001002051390000F
:10145D0044E0FF900006E0C39F22D390002DE0945E
:10146D000090002CE0940022E475F00102035E125E
:10147D00051390001C12051F0203741202F7AC062F
:10148D00AD07E41201C3E4FBFA79C87842020121E9
:10149D007F647E00022B8190001002053790003A88
:1014AD00020513E4FFFEFD7C3F12002D0201FCD36B
:1014BD00900066E09400900065E094002290002F6B
:1014CD00E0900045F0227F0A1227FC900031EFF0EA
:1014DD0090005F2290006002051FD39DEC6480F8A0
:1014ED007480982290001C020513E47B02FAF9F82F
:1014FD0002041A90001802051F7E2F122AB97F10C0
:03150D007E272214
:102985008E098F0A8B0B8A0C890DAF051DEF60210F
:10299500050AE50AAE097002050914F5828E83E47D
:1029A50093FF780BE475F001120580EF1202C380E6
:0229B500D92225
:102A44008F828E83E4F555F554F553F552AF82AE7B
:102A540083E4FCFDAB55AA54A953A852C31204D075
:082A6400500543BD1080E6227D
:092B7800E0FF7C2F122A6C7F643F
:102B8100E4FDFCC3ED9FEC9E50070DBD00010C80E0
:012B9100F251
:012B92002220
:102BAD00758E5190FE917401F0A37410F075BD5F98
:072BBD0090FEA07420F0223D
:102B1F00E490FE80F0758901758DFA758BCB43A813
:0E2B2F0008438840758CCB758AEB43881022D2
:1029B70090FF10E054F04408F090FF02E054F04418
:1029C70002F0D28490FFA07420F0A37404F075CCB9
:1029D7000675CEFF75CD98759E0275981043A810A1
:0129E70022CD
:102BC40043B40343B4807F147E00122B8175B50196
:072BD40090FE9B744BF02200
:102B930090FF08E04488F090FF00E0540F4430F0C9
:0A2BA30090FF11E054F04403F0220B
:0B2C34008F99E59830E1FB5398FD22DA
:1027FC008FB543B440E5B430E5FB53B4DF12149D00
:10280C00E4FBFAF943B440E5B430E5FB53B4DFE53F
:10281C00B62BFBE5B73AFA7F147E00122B8109B96F
:0C282C0010E275B501A90212149DAF0165
:01283800227D
:100FA9007B017A00794D7D0D7F007E2F1229859076
:100FB900004DE0FFE4FCFDFE1214A412145578085C
:100FC9001204F41214A490001012051F90004EE0B0
:100FD900FFE4FCFDFE1203741214A4121455E47B01
:100FE900E87A03F9F812038F1214A4E47F307E75AE
:100FF900FDFC90001012142040107F007E097D3DF9
:101009007C009000101213DB400A90001012054377
:1010190000009C4090004FE0900064F0700280074F
:10102900900064E0B4FE0374FFF0900050E0FF907C
:101039000032E4F0A3EFF0E0F8E4F0E8900032F0D9
:10104900900051E0FF900032E48FF012035E9000AF
:1010590032E0FEA3E0FF4E6009D3EF9408EE940757
:101069004009900032E4F0A37405F0900052E0903A
:10107900002FF0900038F0900053E0900027F060C6
:1010890006E0D394FF40069000277401F0900054C5
:10109900E0F45401900024F0900055E05401786D7B
:1010A900F6A3E05401900015F0900057E054019028
:1010B9000014F0900058E090000AF07B017A007962
:1010C900087D027F807E2F122985900008E090001C
:1010D90036F0900009E0900007F07F807E2F122AF9
:1010E900B97F107E27122B81900036E004F0E0FFD3
:1010F9007D807C2F122A6C12149D900007E07003EA
:10110900022C0E900007E0FFB4010A7D817C2F12AA
:061119002A6C12149D2255
:1005B600E5566003020A9543B440E5B430E5FB53C3
:1005C600B4DF85B70985B60A9000161214751214A1
:1005D600E1AE09AF0A12142790004BE0FEA3E0FF3C
:1005E600C3950AEE9509500DC3E50A9FF50AE5097C
:1005F6009EF509800BC3EF950AF50AEE9509F509F4
:1006060090001C12051FAE09AF0AE4FCFD1203742C
:1006160090001C120537900016E05401FEA3E04E30
:1006260070521214BC4017900045E09464503DE0AF
:100636002402F0E0D3946440337464F0802E90007A
:100646000EE07004A3E06401702A90002FE0FF9092
:100656000045E0FED39F4014EE94024004E024FEE1
:10066600F0900045E0C39F50031214CA900045E085
:10067600FF1222A0C3900016E094205003020AC481
:1006860043BD10E4F0A3F0900046E004F0A3120589
:1006960013900060121482900047120537900046AE
:1006A600E0C394084035E4F0A31205137810120451
:1006B600E190004712053790004712051390004B52
:1006C600EE8FF012035E90004BE0C313F0A3E0132D
:1006D600F090004712054300000000900000E0C3C0
:1006E60094085005E004F08040900065E07002A395
:1006F600E070361214D3E0FE2402FDE433FCEF1260
:1007060014E75018900031E02402FDE433FCEE12A9
:1007160014E7500890005FE0900031F0900031E05F
:1007260090005FF0E4900000F0E4FFFEFDFC900016
:100736001812142070331214F1EF2488FFEE3413CC
:1007460012144012053790002CE07002A3E07019D5
:100756007F407E427D0FFC9000181213DB400A900A
:100766000018120543000F4240900006E070131275
:1007760014F190003A120537900028120543000044
:10078600000190002812147C12141D400302093C3B
:1007960090002812051390003A12148290001C1241
:1007A6001420400302093C900006E004F090005A31
:1007B60012147C90005A120537900006E0FFFBE405
:1007C600FAF9F890005A12051312041A90003A1218
:1007D60005371214AA78031204E19000281205378F
:1007E600E47F207E4EFDFC900028121420500A90D3
:1007F600002812054300004E20E47F607EEAFDFCDF
:100806009000281213DB400A9000281205430000CE
:10081600EA601214AA9000181213DB403E90003AC8
:1008260012051F12141712038112142D7F807E38B1
:100836007D017C009000601213DB40089000437439
:1008460006F0801DE47F407E9CFDFC900060121344
:10085600DB90004340087409F08006900043740C56
:10086600F090004312145E403B12141712141D50F0
:1008760033900044E09410500302094B900043E08B
:10088600D3940950051214AA80111214AA900018C4
:100896001213CD400C1214021214F7900018120510
:1008A6003702093C12145B500302094B12141790CD
:1008B600003A1213CD40771215001214AA120381C2
:1008C60012142D7F007E127D7A7C0012141D505E5C
:1008D6007F807E1A7D067C00900060121420504EA8
:1008E600900044E09410400280387FE07E937D04BF
:1008F6007C009000601213DB40089000447410F0F6
:10090600801B7FF07E497D027C009000601213DB25
:100916009000444005740CF080037408F012145BD8
:10092600400C1214021214F7900018120537121414
:100936005B4012E48004E4900006F090005A120531
:100946004300000000900037E0D394004036E014E6
:10095600F01214331213DB5003020A4A90003E12BF
:100966000513EF2498FFEE343AFEE43DFDE43CFC2B
:1009760090001C1214204003020A4A121433120576
:1009860037020A4A121467405774FFF5F012035EE5
:10099600121467404B7F007E127D7A7C009000180F
:1009A6001213DB400C900010120543000C3500803A
:1009B6002F12145512150012142A7F407E547D8979
:1009C6007C009000601213DB4016121500C37440C1
:1009D6009BFF74549AFE748999FDE498FC1214A442
:1009E60012145590001812148290001C1213DB404A
:1009F60053900064E0FF900031E0D39F400512144D
:100A0600674041900065E07002A3E0700912141778
:100A160090003E120537900065E4F0A304F09000C4
:100A2600251214759000307401F0786CF69000442D
:100A36007408F0E490000EF0A3F07885F608F678D6
:100A460081F608F61214F190002012053790006026
:100A56001205430000000090001C12054300000030
:100A660000900065E0FEA3E0FFD39400EE94004002
:100A76004D900032E0FCA3E0FDD3EF9DEE9C403E9E
:100A8600E4900065F0A3F0755601900030F02290D6
:100A9600000EE4F0A304F0E4F55690000BF0A3F08A
:100AA600900002F07FFAFE122A4490004712054396
:0E0AB600000000001213E212054300000000D1
:010AC400220F
:10213400E4F50A90006012054300000000E4F5098C
:1021440043B440E5B430E5FB53B4DF1214E1AFB659
:10215400AEB71214270509E509B480E47F907E0127
:10216400122A44900060120513780B1204E18F09BF
:10217400E509D3940C400CE509948D5006E50A94C6
:0D21840014500A050AE50AD3945040A72222
:01219100222B
:1021920090006012054300000000E4F509E4F50C2C
:1021A200F50D43B440E5B430E5FB53B4DF85B70A1F
:1021B20085B60B1214E1AE0AAF0B121427050DE51A
:1021C2000D7002050CB400DAE50CB420D543BD1045
:1021D2000509E509B408C6900060120513781012CB
:0A21E20004E190004BEEF0A3EFF0D3
:0121EC0022D0
:10244800BF0105E4FCFD802E7E007C017DFF1202A9
:10245800F71C7D64120309AC06AD07E41201C38FB3
:10246800108E0F8D0E8C0DAB10AA0FA90EA80D1291
:1024780014B0AC06AD0790FF907411F075DA0175D1
:0E248800E30175E2FF8CE58DE475E10F7F0046
:012496002223
:1028B200BF0104E4FE801E7E007C007DFF121488AE
:1028C2008F108E0F8D0E8C0DAB10AA0FA90EA80DB6
:1028D2001214B0AE0790FF9C7410F075DEFF8EDF0D
:0528E20075DD947F008C
:0128E70022CE
:0222A0008F0BA2
:1022A200787EE6B50B037F0022787EA60BE50B70E5
:1022B2000790005E04F08012E50BB46407E490001E
:1022C2005EF0800690005E7402F0E50BFD7C0090EB
:1022D200000AE0FF7E00121488E4FBFAF9783F124C
:1022E20014B68F0CC3E50B950CFF122448AF0C12E9
:0422F20028B27F008F
:0122F60022C5
:100D6600122BDB122BAD122B93122B1F1229B7124B
:100D76002BC475BBAA90FEA774FFF053BBF7D2AF86
:100D86007FC87E00122A441214D3F0C2AF120FA9F4
:100D96007F641222A0D2AF12213490002FE0FF9080
:100DA6000045F01222A07F2C7E01122A44122192C5
:100DB60090006012054300000000900036E0D394D6
:100DC600034007E4F0122C0E8003121ACF9000396C
:100DD600E0601A120F9090002EE004F0E0FF74031A
:100DE600D39F5009E4900039F090002EF0786AE61F
:100DF600601B120F90788006E618700106D3742CDB
:100E0600788096740118965004E4786AF690000388
:100E1600E0FF90005EE0FD6F600D7F761228E8909F
:100E2600005EE0900003F0900042E0FF900030E0AA
:100E3600FD6F600D7F771228E8900030E090004249
:100E4600F0900001E06401706DF0786CE66401706A
:100E560065F6900025E0FEA3E0FF900034E06E709A
:100E660003A3E06F601DE48F2E8E2DF52CF52B7FEE
:100E760074121E33900025E0FFA3E0900034CFF0FB
:100E8600A3EFF0786DE66401702CF508E50825E01F
:100E9600246EF8E6FA08E6FB4A6012786B7601E4FF
:100EA600FD7F781222F77F647E00122A440508E54A
:100EB60008C3940840D643BD10E556700B90001742
:100EC600E0541F700312111F900024E064016003B8
:100ED600020F5BE557701CF5567557011214CA9040
:100EE6000047120543000000001213E212054300FA
:100EF6000000001205B6D390000FE0940090000E9B
:100F0600E094004033900002E0B4012CE4F090003D
:100F16000E121476900027E0FFC390000FE09F901A
:100F2600000EE094004011E4F0A3F0900014E06499
:100F3600016005E4FF1222A01214BC5003020DD377
:100F46007882E6640118466003020DD3F608F612AD
:100F56001476020DD3E4F557900015E07007FF12E2
:100F660022A0020DD3900038E0FF1222A0E4F5562D
:100F76001214CA900047120543000000001213E243
:0A0F860012054300000000020DD325
:100F90007F641222A07F647E00122A44E4FF1222A2
:090FA000A07F647E00122A4422A5
:03001B000218B018
:1018B000C0E0C0F0C083C082C0D075D000C000C0FE
:1018C00001C002C003C004C005C006C007AF55AECA
:1018D00054AD53AC52EF2401FFE43EFEE43DFDE481
:1018E0003C8F558E548D53F55290000B1214759009
:1018F000000BE0FEA3E0FFE4FCFD7B607AEAF9F870
:10190000D31204BA500C90000BE4F0A3F090000244
:1019100004F0788606E618700106C37886E694E837
:1019200018E69403400C760008760078817600086B
:1019300076019000041214757883E6FE08E6FFC372
:10194000900005E09F900004E09E4009E4F0A3F0C1
:1019500090000104F0D007D006D005D004D003D009
:1019600002D001D000D0D0D082D083D0F0D0E032ED
:030023000226B200
:1026B200C0E0C0F0C083C082C0D075D000C000C0EE
:0D26C20001C002C003C004C005C006C0076F
:0F26CF00E59830E00AAF991226675398FED2AF14
:1026DE00D007D006D005D004D003D002D001D00050
:0B26EE00D0D0D082D083D0F0D0E032FA
:102AB90053BBF7C280E5BB20E3F6D280C2AF75FDF8
:102AC900F075FC0F8EFA8FF975FDD275FC2D75FD29
:052AD900E175FC1E2266
:102A6C0053BBF7C280E5BB20E3F6D280C2AF8FFB2D
:102A7C0075FDF075FC0F8CFA8DF975FDB475FC4B7A
:072A8C0075FDE175FC1E223F
:101ACF007F0012150612144B12041A78081204E143
:101ADF007D007C2F122A6C7F647E0012144B12043F
:101AEF001A7D017C2F122A6C12149D9000647D02C6
:101AFF00122B789000327D03122B78A3E0FF7D0428
:101B0F00122B7A90002FE0FF7D05122B7A90002781
:101B1F00E0FF7D06122B7A900024E0F4FF7D071280
:101B2F002B7A786DE6FF7D08122B7A900015E0FF77
:101B3F007D09122B7A900014E0FF7D0A122B7A9008
:101B4F00000AE0FF7D0B122B7A7F80121506122BF5
:101B5F00817D807C2FE4FF122A6C0D0F122A6CD22C
:011B6F00AFC6
:011B70002252
:0413840002680000FB
:10197000120296FFE5304FFFE52FFEE52EFDE52D27
:101980008F308E2F8D2EF52DFC78081204F48F30B9
:101990008E2F8D2E22AF2EAE2DAD2CAC2B1204E14E
:1019A000AD0722AF2FAE2EAD2DAC2C1204E1AD074A
:1019B00022AB07E4FDFC900088E02285508385512E
:1019C00082E54E9582E54D958322C3E569950AFF30
:1019D000E5689509FEC3EF22AC06AD077F0722E458
:1019E00075F001020580AF67AE66AD65AC640204B8
:1019F000E1FEE546FDE545FCE47BFF22E4F51DF54F
:101A00001CF51BF51A22120296AB26AA27A928223A
:101A1000AF05AE04AD0322754C01754D00754E67E0
:0B1A200022748A250AF974003509229F
:101F8F00EFC39430400CEFD39439500674D02FFF29
:101F9F008022EFC39441400CEFD394465006EF24B8
:101FAF00C9FF8010EFC39461400AEFD394665004C9
:101FBF00EF24A9FFEF540FC454F0FFEDC39430404A
:101FCF000CEDD39439500674D02DFD801EEDC394C3
:101FDF00414008EDD394465002800CEDC39461400C
:101FEF000AEDD394665004ED24A9FDED540F42077A
:011FFF0022BF
:0626F9008B178A188919F5
:1026FF001219FCE94A4B7005FFFEFDFC221219FC72
:10270F0078171219DF12027D601AE51D2401FFE40C
:10271F00351CFEE4351BFDE4351A8F1D8E1C8D1BF9
:0C272F00F51A80DCAF1DAE1CAD1BAC1A0F
:01273B00227B
:06291E008B3B8A3C893D61
:102924008B418A428943E94A4B7004FBFAF922E558
:10293400401540AE3F7002153F4E600B78411219AE
:0D294400DFED1202C380E8AB3BAA3CA93DC9
:012951002263
:06172A008B1E8A1F8920BE
:101730008B268A27892885212985222A85232BE93A
:101740004A4B6008E5234522452170077B007A005B
:10175000790022D3852A83852B82E5289582E52787
:1017600095834019E52B2525F9E52A3524FA8A8346
:101770008982D3E5289582E52795834032E4F52CCC
:10178000F52DC3E52D9525E52C9524505BAB29AAB5
:101790002AA92B852D82852C83121A06852D8285F8
:1017A0002C831202D5052DE52D70D7052C80D3850D
:1017B000242C85252DD3E52D9400E52C940040287C
:1017C000AB29AA2AA92BE52D24FFFFE52C34FFFE27
:1017D0008F82F583121A068F828E831202D5E52D31
:0E17E000152D70D1152C80CDAB1EAA1FA9208F
:0117EE0022D8
:102952008F678E668D658C6478181204E1EF12021F
:10296200C378101219E6900001EF1202D57808120E
:1029720019E6900002EF1202D5E567FF900003EF1F
:032982000202D579
:10261C00E4F530F52FF52EF52D12027DFFE48F3009
:10262C00F52FF52EF52DAE2FAD2EAC2D1219898C64
:10263C002D9000011219708C2D9000021219708CC3
:10264C002D900003120296FFE5304FFFE52FFEE5BB
:0A265C002EFDE52D12198EF52DFC60
:012666002251
:062C6900900089E0FF224B
:0C2C2800E4900089F0FDFC7F040223A36F
:062C6F00900086E0FF2248
:082584008F588B598A5A895BBC
:10258C001219B3B401037F0122AF05AE04AD58128A
:10259C002C1BAC06E4FD122C1BAC06E55CFD122CCE
:1025AC001BAC06AD5D122C1BAC06AD07AB59AA5A81
:1025BC00A95B855C1C855D1D1229E81219D81223B4
:0325CC00A37F01E9
:0125CF0022E9
:02273C008D27E7
:10273E001219B1B401037F0122121A10122770E48C
:10274E00FD122770AD07E5277003FD8006AF05AEBD
:10275E00047D01122C1BAC06AD077F071223A37F4D
:01276E000169
:0E276F0022122C1BAC067D01122C1BAC062284
:0820D5008F278D288A298B2A30
:1020DD00E4FDFCF52B900088E0B401037F0122AFF5
:1020ED0005AE04E529FD122C1BAC06AD2A122C1BE6
:1020FD00AC06AD27122127E4FD122127AD07E528F7
:10210D007003FD8006AF05AE047D01122C1BAC06DD
:09211D00AD077FB21223A37F017C
:0E21260022122C1BAC067D01122C1BAC0622D3
:0822F7008F278D288A298B2A0C
:1022FF00E4FDFCF52B900088E0B401037F0122AFD1
:10230F0005AE04E529FD122C1BAD2A122346AD277D
:10231F00122C1B7D04122346E4FD122C1BAC067DF0
:10232F0001122C1BAC06AD28122C1BAC06AD077F7F
:06233F00B21223A37F018E
:0923450022AC06122C1BAC06228E
:101E33001219B1B401037F0122121A10122C1BAC28
:101E4300067D02122C1BAC06E4FD122C1BAC067D96
:101E530004122C1BC006C0077818121995D007D09E
:101E630006122C1BC006C0077810121995D007D094
:101E730006122C1BC006C007AF2EAE2DAD2CAC2B0B
:101E830078081204E1AD07D007D006122C1BAC066C
:101E9300C007E52EFFE4AD07D007122C1B1219D89B
:051EA3001223A37F01E2
:011EA8002217
:021C0C008F2B1C
:101C0E00E4FDFCF532900088E0B401037F0122AFC1
:101C1E0005AE04E530FD122C1BAC06AD31122C1BAB
:101C2E00AC06AD2B122C1BAC067D02122C1BAC0687
:101C3E00E4FD122C1BAC067D04122C1BC006C00743
:101C4E0078181219A3D007D006122C1BC006C00795
:101C5E0078101219A3D007D006122C1BC006C0078D
:101C6E00AF2FAE2EAD2DAC2C78081204E1AD07D0FF
:101C7E0007D006122C1BAC06C007E52FFFE4AD07FC
:101C8E00D007122C1BAC06AD077FB21223A37F0127
:011C9E002223
:0825D0008F5E8B5F8A60896158
:1025D8001219B3B401037F0122AF05AE04AD5E1238
:1025E8002C1BAC067D03122C1BAC06E562FD122CDD
:1025F8001BAC06AD63122C1BAC06AD07AB5FAA6023
:10260800A96185621C85631D1229E81219D8122355
:03261800A37F019C
:01261B00229C
:0228E8008D273A
:1028EA001219B1B401037F0122121A10122C1BAC67
:1028FA00067D04122C1BAC06E4FD122C1BAC067DD3
:10290A0001122C1BAC06AD27122C1B1219D812234C
:03291A00A37F0197
:01291D002297
:0217EF00AD0744
:1017F100E4F549F54A900088E0B401037F01221223
:1018010018907D051218A8E4FD1218A874FFFFE5D1
:10181100471219F1FAF9F8C31204D070097D0112C7
:101821001890AD48803D74FFFF1219F17AFFF9F865
:10183100C31204D070047D0280197D0412189C78B3
:1018410018121877AF48AE47AD46AC457810120470
:10185100E1AD0712189C7808121877E548FFE4AD4E
:1018610007AF4A122C1B8E498F4AAD4AAC497F07FC
:051871001223A37F011A
:1018760022AF48AE47AD46AC451204E1AD07AF4ACC
:10188600AE49122C1B8E498F4A22AF4AAE49122C02
:101896001B8E498F4A22AF4AAE49122C1B8E498FA6
:0A18A6004A22122C1B8E498F4A22A1
:082C3F008C278D2812027DFF95
:012C4700226A
:082C48008C278D2812027DFF8C
:012C50002261
:072C51008C2B8D2C12261CB8
:012C58002259
:102667008F3AD31219BB4015E54E9551FFE54D95AD
:1026770050FEC3EF941FEE64809480502DC312194F
:10268700BB500DC3E551954EFFE550954D4F601A70
:10269700C39000861219C140077A007967121A178A
:0B26A700784C1219DFE53A1202C32242
:10111F00E4F509F50AF50BF50CC3E5699423E568C9
:10112F0094005024122B3DEFD39400401B12277DC7
:10113F000569E569AC687002056814248AF5827444
:10114F00003CF583EFF080D1C3E5699407E568941F
:10115F0000500302127F1219CA9407EE9400500335
:10116F0002124E748A250AF58274003509F583E060
:10117F006455600A050AE50A70DC050980D8748B8E
:10118F00250AF58274003509F583E064AA600A0523
:10119F000AE50A70C1050980BD748C250AF58274B1
:1011AF00003509F583E0600474028038748E250AD7
:1011BF00F58274003509F583E0FE748F250AF582F8
:1011CF0074003509F583E07C002400FFEC3ECF244A
:1011DF0007F50CE43FF50BD3E50C942AE50B9400CF
:1011EF0040097403250AF50AE4804D1219CA950CBB
:1011FF00EE950B404A121A21FA7B01E50C24FFFDF4
:10120F00E50B34FFFC122A93E50A250CFDE50935A1
:10121F000BFC74892DF58274003CF583E06F600937
:10122F007403250AF50AE4800FAF0AAE09120AC546
:10123F00E50C250AF50AE50B3509F509021165C319
:10124F00E569950AF569E5689509F568D3E5699447
:10125F0000E56894004019121A21752101F52289C1
:10126F00238568248569257B017A00798A12172ADC
:01127F00224C
:102BDB00121A17754F017550007551679000867466
:032BEB00FFF022D6
:10138800018B00048700000000603400CC010103D9
:10139800020402650466026701680269027101724B
:1013A8000173017402750176047704780479027A6E
:1013B80001820483048404850486048704880489DC
:0113C8000420
:10234E00AB1EAA1FA920AD22AC212225E0246EF8D7
:10235E00E6FA08E6FB4A22E0FFE48F2EF52DF52C77
:10236E00F52B22900025E0FEA3E0FFE48F2E8E2DAC
:10237E00F52CF52B22FFE48F2F8E2EF52DF52C8AC2
:10238E00308B3122E0FFE4FCFDFEC30204D07883E3
:05239E00E6FE08E62246
:0D2C0E00E4FDFC7F041223A3786A76012206
:102B5B00E4FEEF7004FFFD8006EEFF7E007D0112A8
:0D2B6B002C1BAE07EEFD7C007FB10223A302
:03001E00022C347D
:101510007D017F0112163B9000157F711215F3902B
:10152000002F1223657F03121600900064E0FFB4C1
:10153000FF05E4F516801EEFB4C805751602801588
:10154000EFB42805751603800CEFB4140575160466
:101550008003751605AD167F65121646900032128F
:1015600023747F661216009000247F671215F39093
:1015700000271223657F6812160BE47B107A27F987
:10158000F890001012051312041AC374329F12232C
:10159000667F6912160B786DE6FD7F7212163B901E
:1015A000000A1223657F041216309000147F731214
:1015B00016161223717F7412163090005E7F761219
:1015C00016239000307F771216237D017F78121644
:1015D0004612239C1223787F79121E337F647E008B
:1015E000122A449000397F7A121616E4FDFC7FB46B
:0315F0000223A330
:1015F300E0FD12273C7F647E00122A4422121E3330
:101603007F647E00122A4422121E337F647E0012FE
:101613002A4422E0FD12273C7F647E00122A4422E2
:10162300E0FD1228E87F647E00122A4422121E3352
:101633007F647E00122A442212273C7F647E0012BC
:0E1643002A44221228E87F647E00122A4422E4
:102BEE00122C3F8F257D017F0112273C8F247F02FF
:012BFE0022B4
:101EA900E4F529122C518F278E268D258C2490003C
:101EB9002FAB27AA26A925A82412239270057529D4
:101EC90001802D786DE66028E4F528E5281223596C
:101ED900601585272F85262E85252D85242C8A306A
:101EE9008B317F03121C0C0528E528C3940840DBBD
:101EF900AF2790002FEFF0FE900038F01223677F94
:101F090003121E33BF010AE52960037F02227F0104
:031F1900227F0024
:011F1C0022A2
:10224800E4F526122C518F2490000AE0B524057578
:1022580026018026786DE66021E4F525E525122320
:1022680059600EE485242FF52E1223897F04121C51
:102278000C0525E525C3940840E290000AE524F002
:102288001223657F04121E33BF010AE52660037F0F
:0722980002227F01227F00FA
:01229F00221C
:101D2B00E4F526122C488F24E524788B6670057514
:101D3B002601801F786DE6601AE4F525E525122350
:101D4B00596007AD247F651222F70525E525C3945D
:101D5B000840E9E52414601014601514601A14602F
:101D6B001F1460242405702890006474FFF08020F9
:101D7B0090006474C8F080189000647428F0801090
:101D8B009000647414F08008900031E0900064F0CF
:101D9B00788BA624AD247F651228E8BF010AE526BF
:0A1DAB0060037F02227F01227F0007
:011DB500220B
:101DB600E4F529122C518F278E268D258C24900030
:101DC60032E0FEA3E0FFE4FCFDAB27AA26A925A886
:101DD60024C31204D07005752901802D786DE66044
:101DE60028E4F528E528122359601585272F85262E
:101DF6002E85252D85242C8A308B317F66121C0C6E
:101E06000528E528C3940840DBAE26AF27900032AC
:101E1600EEF0A3EFF01223797F66121E33BF010A9C
:0C1E2600E52960037F02227F01227F007B
:011E3200228D
:10249700E4F526122C3F8F24900024E0B52405751F
:1024A7002601801F786DE6601AE4F525E5251223DD
:1024B700596007AD247F671220D50525E525C3940C
:1024C7000840E9900024E524F0FD7F6712273CBF10
:0E24D700010AE52660037F02227F01227F00BA
:0124E50022D4
:10200000E4F529122C518F278E268D258C249000E3
:1020100027AB27AA26A925A8241223927005752983
:1020200001802D786DE66028E4F528E52812235913
:10203000601585272F85262E85252D85242C8A3011
:102040008B317F68121C0C0528E528C3940840DBFF
:10205000AF27900027EFF01223677F68121E33BF6F
:0E206000010AE52960037F02227F01227F0032
:01206E00224F
:101A2B00E4F529122C518F278E268D258C2478874F
:101A3B00120507AB27AA26A925A824C31204D07028
:101A4B0005752901802D786DE66028E4F528E528D9
:101A5B00122359601585272F85262E85252D852444
:101A6B002C8A308B317F69121C0C0528E528C39416
:101A7B000840DBAF27AE26AD25AC24788712052BAB
:101A8B00C374329527FFE49526FEE49525FDE49576
:101A9B0024FCE47B107A27F9F812038F90001012C4
:101AAB00053778871205078F2E8E2D8D2C8C2B7F6B
:101ABB0069121E33BF010AE52960037F02227F01F1
:031ACB00227F0077
:011ACE0022F5
:1024E600E4F526122C3F8F24900015E0B5240575DF
:1024F6002601801F786DE6601AE4F525E52512238E
:10250600596007AD247F711220D50525E525C394B2
:102516000840E9900015E524F0FD7F7112273CBFC5
:0E252600010AE52660037F02227F01227F006A
:012534002284
:1023F600122C3F8F24786DE6FF6524601DEF601A6E
:10240600E4F525E5251223596007AD247F721220D5
:10241600D50525E525C3940840E9786DA624AF24A3
:10242600122B5B786DE66008E4FDFC7FB41223A3F3
:10243600786DE6FD7F7212273CBF01037F01227F84
:012446000095
:012447002272
:10253500E4F526122C3F8F24900014E0B524057590
:102545002601801F786DE6601AE4F525E52512233E
:10255500596007AD247F731220D50525E525C39461
:102565000840E9900014E524F0FD7F7312273CBF75
:0E257500010AE52660037F02227F01227F001B
:012583002235
:1027BD00122C3FEF6036E4900025F0A3F0786DE623
:1027CD006022E4F524E524122359600F900025E0E2
:1027DD00FEA3E01223837F74121C0C0524E524C391
:0E27ED00940840E11223717F74121E337F02A4
:0127FB0022BB
:102A1700122C48AD07ED701B786BE6B40104E4F6A1
:102A27008011900065E4F0A304F090003704F09063
:0C2A37000030F07F781228E88F247F0226
:012A43002270
:10206F00E4F52A122C518F288E278D268C251223CA
:10207F009CFFE4FCFDAB28AA27A926A825C31204C0
:10208F00D07005752A018023786DE6601EE4F5296E
:10209F00E529122359600B12239C1223837F791297
:1020AF001C0C0529E529C3940840E5AF287883A6C1
:1020BF002708A607E524B4010AE52A60037F022258
:0520CF007F01227F00EB
:0120D40022E9
:10000300122C3FEF60069000397401F0E4FD7F7A13
:0700130012273C8F247F023D
:01001A0022C3
:061651008B1E8A1F892098
:10165700EF120590168C0116970316A20416AD65B6
:1016670016B86616C36716CE6816D96916E37116DB
:10167700ED7216F773170175170B78171579171F82
:101687007A0000172712234E122BEE8F23021727FB
:1016970012234E121EA98F2302172712234E12223E
:1016A700488F2302172712234E121D2B8F23021751
:1016B7002712234E121DB68F2302172712234E120D
:1016C70024978F2302172712234E1220008F2302FD
:1016D700172712234E121A2B8F23804412234E12E0
:1016E70024E68F23803A12234E1223F68F2380306D
:1016F70012234E1225358F23802612234E1227BD23
:101707008F23801C12234E122A178F238012122335
:101717004E12206F8F23800812234E1200038F234F
:02172700AF23EE
:01172900229D
:032C75007F1A22A1
:0F2BFF00386C6D786E6C676700312E302E3000A9
:0313C900014B00D5
:101F1D00748E250EF5827400350DF583E075140071
:101F2D00F513748F250EF5827400350DF583E025BC
:101F3D0014F514E43513F51322350DF583E0F8E4AB
:101F4D0022E026F618E436F6227490250EF58274FA
:101F5D0000350DF583E02212051378101204E1AD62
:101F6D00072212051378081204E1AD072274B32F6E
:101F7D00F974003EFA7B0122E475F001120580022E
:021F8D00027DD3
:101B7100E4FFFE90004BE0C4F854F0C8A3E0C45465
:101B81000F48FD122C1B7E00900031E0FD122C1B32
:101B91007E00C006C007900018121F64D007D0064F
:101BA100122C1B7E00C006C007900018121F6FD0B8
:101BB10007D006122C1B7E00C006C0079000201221
:101BC1001F64D007D006122C1B7E00C006C00790F0
:101BD1000020121F6FD007D006122C1B7E00C006FA
:101BE100C007900010121F64D007D006122C1B7E74
:101BF10000C006C007900010121F6FD007D0061258
:0B1C01002C1BEFFD7C007FC00223A322
:082C5900E4FDFC7FC10223A38E
:0C2C1B00121F7AED1202C30FBF00010E61
:012C2700228A
:0A29E8008E178F188B198A1A891BAD
:1029F200121F7A851921851A22851B23851C24859D
:102A02001D2512172AE51D2518F518E51C3517F5A1
:042A120017FEAF18E4
:012A1600229D
:102839008B358A3689378C388D39E94A4B602DE5D5
:102849003945386027E5391539AE38700215384EE3
:10285900601AAB35AA36A93712027DFF12001E7421
:0D286900012537F537E43536F53680D922E4
:0A2A93008B358A3689378C388D396F
:102A9D00E4FFFDFCC3ED9539EC9538500E783512F9
:0B2AAD001F852FFF0DBD00010C80E90C
:012AB80022FB
:0423A3008C338D34B6
:1023A7009000AD7455F0A374AAF0E4A3F0A3EFF086
:1023B700E533A3F0E534A3F02407F534E43533F52A
:1023C700337B017A0079ADE53424FFFDE53334FF33
:1023D700FC122A9374AC2534F58274003533F583E7
:0F23E700EFF07B017A0079ADAD34AC33022839C9
:102AFF00E4FFE54B700AFEFD122C1B754B0180079E
:102B0F007E007D01122C1BEFFD7C00E4FF0223A34E
:10287600E4F5167A2B79FF1228A27A2B79FF122912
:10288600E88F167A2C79081228A27A2C7908122950
:0C289600E88F16EFFD7C007F010223A3F9
:1028A2007BFF1226F98E1C8F1DAF167E007BFF2246
:082C6100E4FDFC7F020223A345
:022ADE008F1D4A
:102AE000122C75E4FEEEC39F501275F002EE9000BA
:0E2AF000CC120574E0651D60030E80E9AF0690
:012AFE0022B5
:0621ED008B168A17891809
:1021F30012027DF519900001120296F51A90000261
:10220300120296751C00F51B900003120296251C02
:10221300F51CE4351BF51BAF19122ADE75F002EF2E
:102223009000CD120574E0651A60037F0022AB169F
:10223300E5182404F9E43517FA851B21851C22AF20
:042243001912165105
:012247002274
:040AC5008E0D8F0EF5
:100AC900748D2FF58274003EF583E0FF1205900BBB
:100AD90011000B14010B17020B1A030B37040B3E01
:100AE900060D62080AFDB10BB4B40B0BC00B0EC1A5
:100AF90000000D65121F566003020D65FDFC7FB4F1
:100B09008029021B71022C59022AFF022876022C25
:100B190061121F56FF900086F0BF020AE4786AF658
:100B2900121ACF121510E4FDFC7F030223A39000D3
:100B3900897401F022121F1DE4F511F512C3E512A3
:100B49009514E51195134003020D65E50E2512FD77
:100B5900E50D3511FC74922DF58274003CF583E0A6
:100B6900751000F50F74932DF58274003CF583E040
:100B79002510F510E4350FF50F7490250EF9740062
:100B8900350DFA7B01E92512F9EA3511FA1221ED41
:100B9900BF0103121ACFE5102404FFE4350FFEEF5D
:100BA9002512F512EE3511F5118092121F1D121F33
:100BB90056F5157491250EF5827400121F46796F4A
:100BC900F7E819F77492250EF5827400350DF5834F
:100BD900786F121F4E7493250EF5827400121F460A
:100BE9007971F7E819F77494250EF5827400350DBB
:100BF900F5837871121F4E7495250EF582740012D3
:100C09001F467973F7E819F77496250EF582740073
:100C1900350DF583E07873121F4F7497250EF58211
:100C29007400121F467975F7E819F77498250EF5BF
:100C3900827400350DF583E07875121F4F7499257C
:100C49000EF5827400121F467977F7E819F7749A3E
:100C5900250EF5827400350DF583E07877121F4F64
:100C6900749B250EF5827400121F467979F7E819ED
:100C7900F7749C250EF5827400350DF583E07879BB
:100C8900121F4F749D250EF5827400121F46797B41
:100C9900F7E819F7749E250EF5827400350DF58372
:100CA900E0787B121F4F749F250EF5827400121F86
:100CB90046797DF7E819F774A0250EF58274003599
:100CC9000DF583E0787D121F4F786FE618466004B2
:100CD9007D018002E4FD7F821228E87871E61846DA
:100CE90060047D018002E4FD7F831228E87873E6C1
:100CF900184660047D018002E4FD7F841228E878AB
:100D090075E6184660047D018002E4FD7F8512289E
:100D1900E87877E6184660047D018002E4FD7F8665
:100D29001228E87879E6184660047D018002E4FD1E
:100D39007F871228E8787BE6184660047D018002E7
:100D4900E4FD7F881228E8787DE6184660047D0175
:0C0D59008002E4FD7F890228E8121510DA
:010D6500226B
:102B3D00E54F855083855182654C700AE54E65825F
:0E2B4D007004E54D658360037F01227F002246
:10277D00AB4FAA50A951E54C854D83854E82654FCF
:10278D00700AE55165827004E55065836021C39040
:10279D000086E5519582E5509583400D7A00796765
:0F27AD00754F01755000755167784F121F85FFEA
:0127BC0022FA
:10002600020268E86480F8E933E83360110460F09E
:10003600ED33EC337009E8FCE9FDEAFEEBFF220440
:1000460060DED3EB9FEA9EE99DE8C2E78CF0C2F73B
:1000560095F0400CE8CCF8E9CDF9EACEFAEBCFFB07
:1000660012023385D0F05804700320D5B3E804702B
:10007600075002B2D502027292D5EC0460F7E4CCC6
:10008600C0E0C398F8603B94186008400DD0E0FBD0
:1000960002024AE4FBFAC9FC8028E830E406E4C917
:1000A600FBE4CAFCE830E305E4C9CACBFCE8540724
:1000B6006010F8C3E913F9EA13FAEB13FBEC13FC2F
:1000C600D8F130F52FC3E49CFCEF9BFFEE9AFEEDD2
:1000D60099FDD0E0FBEF4E4D4C701222DB0302027D
:1000E6006FEC2CFCEF33FFEE33FEED33FDED30E726
:1000F600EB02024AEF2BFFEE3AFEED39FDD0E0FBB4
:1001060050130BBB0003020272ED13FDEE13FEEF5C
:0801160013FFEC13FC02024A86
:10011E00020272EC5D046005E85904700302026885
:10012E00120233580460F6EC4860F2EC7004FDFEE7
:10013E00FF22C860DB2481C85009C39860025006B4
:10014E0002026F9850CAF582E9294B4A7005AB82BC
:10015E0002025E75F0007C1A7880C3EF9BEE9AED7A
:10016E0099400DC3EF9BFFEE9AFEED99FDE842F02C
:10017E00DC23ACF0D0E0FFD0E0FED0E0FDAB82207F
:10018E00E7101BEB60BAEC2CFCEF33FFEE33FEED09
:10019E0033FD02024AE803F830E705C0F075F000BF
:1001AE00EF2FFFEE33FEED33FD40B830E7C280AAED
:1001BE0075F020800E75F010800575F0087D007EBC
:1001CE00007F003392D530D5031204ACEC334010CF
:1001DE00EF33FFEE33FEED33FDEC33FCD5F0ED22C5
:0E01EE00E5F0247EA2D513CC92E7CDCEFF2201
:1001FC00EDD2E7CD33EC3392D524814006E4FFFEFB
:10020C00FDFC22FCE4CFCECDCC24E0501174FF8059
:10021C00EDC3CC13CCCD13CDCE13CECF13CF0470F6
:07022C00F030D5DE0204AC46
:10023300E9D2E7C933E833F892D5EDD2E7CD33EC11
:0702430033FC5002B2D5228A
:10024A00EC30E7100FBF000C0EBE00080DBD000415
:10025A000BEB6014A2D5EB13FCED92E7FD2274FFC1
:10026A00FCFDFEFF22E480F8A2D574FF13FC7D801A
:03027A00E480EF2E
:101CAB00020D66E493A3F8E493A34003F68001F2DC
:101CBB0008DFF48029E493A3F85407240CC8C3333A
:101CCB00C4540F4420C8834004F456800146F6DF09
:101CDB00E4800B0102040810204080901280E47E07
:101CEB00019360BCA3FF543F30E509541FFEE493FE
:101CFB00A360010ECF54C025E060A840B8E493A3C5
:101D0B00FAE493A3F8E493A3C8C582C8CAC583CAEF
:101D1B00F0A3C8C582C8CAC583CADFE9DEE780BEA7
:0113CC000020
:10027D00BB010689828A83E0225002E722BBFE027F
:09028D00E32289828A83E49322B2
:10029600BB010CE58229F582E5833AF583E022501D
:1002A60006E92582F8E622BBFE06E92582F8E22267
:0D02B600E58229F582E5833AF583E4932281
:1002C300BB010689828A83F0225002F722BBFE011A
:0202D300F32214
:1002D500F8BB010DE58229F582E5833AF583E8F05F
:1002E500225006E92582C8F622BBFE05E92582C80B
:0202F500F222F3
:1002F700EF8DF0A4A8F0CF8CF0A428CE8DF0A42E1B
:02030700FE22D4
:10030900BC000BBE0029EF8DF084FFADF022E4CCD8
:10031900F875F008EF2FFFEE33FEEC33FCEE9DECA1
:10032900984005FCEE9DFE0FD5F0E9E4CEFD22EDE7
:10033900F8F5F0EE8420D21CFEADF075F008EF2F31
:10034900FFED33FD4007985006D5F0F222C398FD22
:050359000FD5F0EA22BF
:10035E00C5F0F8A3E028F0C5F0F8E582158270022A
:06036E001583E038F022C7
:0D037400EF2BFFEE3AFEED39FDEC38FC22D8
:0E038100C3EF9BFFEE9AFEED99FDEC98FC2277
:10038F00E88FF0A4CC8BF0A42CFCE98EF0A42CFC0D
:10039F008AF0EDA42CFCEA8EF0A4CDA8F08BF0A48B
:1003AF002DCC3825F0FDE98FF0A42CCD35F0FCEBEA
:1003BF008EF0A4FEA9F0EB8FF0A4CFC5F02ECD39AF
:0F03CF00FEE43CFCEAA42DCE35F0FDE43CFC221C
:1003DE0075F008758200EF2FFFEE33FECD33CDCCD6
:1003EE0033CCC58233C5829BED9AEC99E582984059
:1003FE000CF582EE9BFEED9AFDEC99FC0FD5F0D636
:10040E00E4CEFBE4CDFAE4CCF9A88222B800C1B95F
:10041E000059BA002DEC8BF084CFCECDFCE5F0CB9D
:10042E00F97818EF2FFFEE33FEED33FDEC33FCEBD6
:10043E0033FB10D703994004EB99FB0FD8E5E4F991
:10044E00FA227818EF2FFFEE33FEED33FDEC33FC7E
:10045E00C933C910D7059BE99A4007EC9BFCE99A72
:10046E00F90FD8E0E4C9FAE4CCFB2275F010EF2FB7
:10047E00FFEE33FEED33FDCC33CCC833C810D707B7
:10048E009BEC9AE899400AED9BFDEC9AFCE899F8F2
:0E049E000FD5F0DAE4CDFBE4CCFAE4C8F92285
:0E04AC00C3E49FFFE49EFEE49DFDE49CFC2261
:1004BA00EB9FF5F0EA9E42F0E99D42F0EC6480C8B9
:0604CA0064809845F02259
:1004D000EB9FF5F0EA9E42F0E99D42F0E89C45F082
:0104E00022F9
:1004E100E8600FECC313FCED13FDEE13FEEF13FFF9
:0304F100D8F1221D
:1004F400E8600FEFC333FFEE33FEED33FDEC33FC66
:03050400D8F12209
:0C050700E6FC08E6FD08E6FE08E6FF2220
:0C051300E0FCA3E0FDA3E0FEA3E0FF225B
:0C051F00E0F8A3E0F9A3E0FAA3E0FB225F
:0C052B00ECF608EDF608EEF608EFF622FC
:0C053700ECF0A3EDF0A3EEF0A3EFF02237
:10054300A8828583F0D083D08212055A12055A12ED
:10055300055A12055AE473E493A3C583C5F0C58312
:10056300C8C582C8F0A3C583C5F0C583C8C582C802
:010573002265
:0C057400A42582F582E5F03583F5832292
:10058000FAE6FB0808E6F925F0F618E6CA3AF6227C
:10059000D083D082F8E4937012740193700DA3A3FA
:1005A00093F8740193F5828883E47374029368600E
:0605B000EFA3A3A380DF0E
:00000001FF
